{
	"contract/security/ForceAttacker.sol": {
		"ForceAttacker": {
			"abi": [
				{
					"inputs": [],
					"stateMutability": "payable",
					"type": "constructor"
				},
				{
					"inputs": [
						{
							"internalType": "address payable",
							"name": "_addr",
							"type": "address"
						}
					],
					"name": "destruct",
					"outputs": [],
					"stateMutability": "nonpayable",
					"type": "function"
				}
			],
			"devdoc": {
				"kind": "dev",
				"methods": {},
				"version": 1
			},
			"evm": {
				"assembly": "    /* \"contract/security/ForceAttacker.sol\":27:185  contract ForceAttacker{\r... */\n  mstore(0x40, 0x80)\n  dataSize(sub_0)\n  dup1\n  dataOffset(sub_0)\n  0x00\n  codecopy\n  0x00\n  return\nstop\n\nsub_0: assembly {\n        /* \"contract/security/ForceAttacker.sol\":27:185  contract ForceAttacker{\r... */\n      mstore(0x40, 0x80)\n      callvalue\n      dup1\n      iszero\n      tag_1\n      jumpi\n      0x00\n      dup1\n      revert\n    tag_1:\n      pop\n      jumpi(tag_2, lt(calldatasize, 0x04))\n      shr(0xe0, calldataload(0x00))\n      dup1\n      0x1beb2615\n      eq\n      tag_3\n      jumpi\n    tag_2:\n      0x00\n      dup1\n      revert\n        /* \"contract/security/ForceAttacker.sol\":97:182  function destruct(address payable _addr) public{\r... */\n    tag_3:\n      tag_4\n      0x04\n      dup1\n      calldatasize\n      sub\n      0x20\n      dup2\n      lt\n      iszero\n      tag_5\n      jumpi\n      0x00\n      dup1\n      revert\n    tag_5:\n      dup2\n      add\n      swap1\n      dup1\n      dup1\n      calldataload\n      0xffffffffffffffffffffffffffffffffffffffff\n      and\n      swap1\n      0x20\n      add\n      swap1\n      swap3\n      swap2\n      swap1\n      pop\n      pop\n      pop\n      tag_6\n      jump\t// in\n    tag_4:\n      stop\n    tag_6:\n        /* \"contract/security/ForceAttacker.sol\":168:173  _addr */\n      dup1\n        /* \"contract/security/ForceAttacker.sol\":155:174  selfdestruct(_addr) */\n      0xffffffffffffffffffffffffffffffffffffffff\n      and\n      selfdestruct\n\n    auxdata: 0xa2646970667358221220c2392e948a952273e360c20c0de0c393ee300e53fb7e441f472fb4fa9b8059c264736f6c634300060c0033\n}\n",
				"bytecode": {
					"linkReferences": {},
					"object": "608060405260bd806100126000396000f3fe6080604052348015600f57600080fd5b506004361060285760003560e01c80631beb261514602d575b600080fd5b606c60048036036020811015604157600080fd5b81019080803573ffffffffffffffffffffffffffffffffffffffff169060200190929190505050606e565b005b8073ffffffffffffffffffffffffffffffffffffffff16fffea2646970667358221220c2392e948a952273e360c20c0de0c393ee300e53fb7e441f472fb4fa9b8059c264736f6c634300060c0033",
					"opcodes": "PUSH1 0x80 PUSH1 0x40 MSTORE PUSH1 0xBD DUP1 PUSH2 0x12 PUSH1 0x0 CODECOPY PUSH1 0x0 RETURN INVALID PUSH1 0x80 PUSH1 0x40 MSTORE CALLVALUE DUP1 ISZERO PUSH1 0xF JUMPI PUSH1 0x0 DUP1 REVERT JUMPDEST POP PUSH1 0x4 CALLDATASIZE LT PUSH1 0x28 JUMPI PUSH1 0x0 CALLDATALOAD PUSH1 0xE0 SHR DUP1 PUSH4 0x1BEB2615 EQ PUSH1 0x2D JUMPI JUMPDEST PUSH1 0x0 DUP1 REVERT JUMPDEST PUSH1 0x6C PUSH1 0x4 DUP1 CALLDATASIZE SUB PUSH1 0x20 DUP2 LT ISZERO PUSH1 0x41 JUMPI PUSH1 0x0 DUP1 REVERT JUMPDEST DUP2 ADD SWAP1 DUP1 DUP1 CALLDATALOAD PUSH20 0xFFFFFFFFFFFFFFFFFFFFFFFFFFFFFFFFFFFFFFFF AND SWAP1 PUSH1 0x20 ADD SWAP1 SWAP3 SWAP2 SWAP1 POP POP POP PUSH1 0x6E JUMP JUMPDEST STOP JUMPDEST DUP1 PUSH20 0xFFFFFFFFFFFFFFFFFFFFFFFFFFFFFFFFFFFFFFFF AND SELFDESTRUCT INVALID LOG2 PUSH5 0x6970667358 0x22 SLT KECCAK256 0xC2 CODECOPY 0x2E SWAP5 DUP11 SWAP6 0x22 PUSH20 0xE360C20C0DE0C393EE300E53FB7E441F472FB4FA SWAP12 DUP1 MSIZE 0xC2 PUSH5 0x736F6C6343 STOP MOD 0xC STOP CALLER "
				},
				"gasEstimates": {
					"creation": {
						"codeDepositCost": "37800",
						"executionCost": "63",
						"totalCost": "37863"
					},
					"external": {
						"destruct(address)": "30210"
					}
				},
				"methodIdentifiers": {
					"destruct(address)": "1beb2615"
				}
			},
			"storageLayout": {
				"storage": [],
				"types": null
			},
			"userdoc": {
				"kind": "user",
				"methods": {},
				"version": 1
			}
		}
	}
}