{
	"contract/security/MagicNumAttack.sol": {
		"MagicNumberAttacker": {
			"abi": [
				{
					"inputs": [],
					"name": "whatIsTheMeaningOfLife",
					"outputs": [
						{
							"internalType": "uint256",
							"name": "",
							"type": "uint256"
						}
					],
					"stateMutability": "nonpayable",
					"type": "function"
				}
			],
			"devdoc": {
				"kind": "dev",
				"methods": {},
				"version": 1
			},
			"evm": {
				"assembly": "    /* \"contract/security/MagicNumAttack.sol\":705:866  contract MagicNumberAttacker{\r... */\n  mstore(0x40, 0x80)\n  callvalue\n  dup1\n  iszero\n  tag_1\n  jumpi\n  0x00\n  dup1\n  revert\ntag_1:\n  pop\n  dataSize(sub_0)\n  dup1\n  dataOffset(sub_0)\n  0x00\n  codecopy\n  0x00\n  return\nstop\n\nsub_0: assembly {\n        /* \"contract/security/MagicNumAttack.sol\":705:866  contract MagicNumberAttacker{\r... */\n      mstore(0x40, 0x80)\n      callvalue\n      dup1\n      iszero\n      tag_1\n      jumpi\n      0x00\n      dup1\n      revert\n    tag_1:\n      pop\n      jumpi(tag_2, lt(calldatasize, 0x04))\n      shr(0xe0, calldataload(0x00))\n      dup1\n      0x650500c1\n      eq\n      tag_3\n      jumpi\n    tag_2:\n      0x00\n      dup1\n      revert\n        /* \"contract/security/MagicNumAttack.sol\":798:863  function whatIsTheMeaningOfLife() public returns (uint){\r... */\n    tag_3:\n      tag_4\n      tag_5\n      jump\t// in\n    tag_4:\n      mload(0x40)\n      dup1\n      dup3\n      dup2\n      mstore\n      0x20\n      add\n      swap2\n      pop\n      pop\n      mload(0x40)\n      dup1\n      swap2\n      sub\n      swap1\n      return\n    tag_5:\n        /* \"contract/security/MagicNumAttack.sol\":848:852  uint */\n      0x00\n        /* \"contract/security/MagicNumAttack.sol\":798:863  function whatIsTheMeaningOfLife() public returns (uint){\r... */\n      swap1\n      jump\t// out\n\n    auxdata: 0xa264697066735822122036859a7536e204ecc1cc1bdfbfc9eeb00f20e69f3842a16e75f4114936f63a6964736f6c634300060c0033\n}\n",
				"bytecode": {
					"linkReferences": {},
					"object": "6080604052348015600f57600080fd5b5060848061001e6000396000f3fe6080604052348015600f57600080fd5b506004361060285760003560e01c8063650500c114602d575b600080fd5b60336049565b6040518082815260200191505060405180910390f35b60009056fea264697066735822122036859a7536e204ecc1cc1bdfbfc9eeb00f20e69f3842a16e75f4114936f63a6964736f6c634300060c0033",
					"opcodes": "PUSH1 0x80 PUSH1 0x40 MSTORE CALLVALUE DUP1 ISZERO PUSH1 0xF JUMPI PUSH1 0x0 DUP1 REVERT JUMPDEST POP PUSH1 0x84 DUP1 PUSH2 0x1E PUSH1 0x0 CODECOPY PUSH1 0x0 RETURN INVALID PUSH1 0x80 PUSH1 0x40 MSTORE CALLVALUE DUP1 ISZERO PUSH1 0xF JUMPI PUSH1 0x0 DUP1 REVERT JUMPDEST POP PUSH1 0x4 CALLDATASIZE LT PUSH1 0x28 JUMPI PUSH1 0x0 CALLDATALOAD PUSH1 0xE0 SHR DUP1 PUSH4 0x650500C1 EQ PUSH1 0x2D JUMPI JUMPDEST PUSH1 0x0 DUP1 REVERT JUMPDEST PUSH1 0x33 PUSH1 0x49 JUMP JUMPDEST PUSH1 0x40 MLOAD DUP1 DUP3 DUP2 MSTORE PUSH1 0x20 ADD SWAP2 POP POP PUSH1 0x40 MLOAD DUP1 SWAP2 SUB SWAP1 RETURN JUMPDEST PUSH1 0x0 SWAP1 JUMP INVALID LOG2 PUSH5 0x6970667358 0x22 SLT KECCAK256 CALLDATASIZE DUP6 SWAP11 PUSH22 0x36E204ECC1CC1BDFBFC9EEB00F20E69F3842A16E75F4 GT 0x49 CALLDATASIZE 0xF6 GASPRICE PUSH10 0x64736F6C634300060C00 CALLER "
				},
				"gasEstimates": {
					"creation": {
						"codeDepositCost": "26400",
						"executionCost": "81",
						"totalCost": "26481"
					},
					"external": {
						"whatIsTheMeaningOfLife()": "183"
					}
				},
				"methodIdentifiers": {
					"whatIsTheMeaningOfLife()": "650500c1"
				}
			},
			"storageLayout": {
				"storage": [],
				"types": null
			},
			"userdoc": {
				"kind": "user",
				"methods": {},
				"version": 1
			}
		}
	}
}