{
	"contract/security/Shop.sol": {
		"Shop": {
			"abi": [
				{
					"inputs": [],
					"name": "buy",
					"outputs": [],
					"stateMutability": "nonpayable",
					"type": "function"
				},
				{
					"inputs": [],
					"name": "isSold",
					"outputs": [
						{
							"internalType": "bool",
							"name": "",
							"type": "bool"
						}
					],
					"stateMutability": "view",
					"type": "function"
				},
				{
					"inputs": [],
					"name": "price",
					"outputs": [
						{
							"internalType": "uint256",
							"name": "",
							"type": "uint256"
						}
					],
					"stateMutability": "view",
					"type": "function"
				}
			],
			"devdoc": {
				"kind": "dev",
				"methods": {},
				"version": 1
			},
			"evm": {
				"assembly": "    /* \"contract/security/Shop.sol\":134:385  contract Shop {\r... */\n  mstore(0x40, 0x80)\n    /* \"contract/security/Shop.sol\":173:176  100 */\n  0x64\n    /* \"contract/security/Shop.sol\":153:176  uint public price = 100 */\n  0x00\n  sstore\n    /* \"contract/security/Shop.sol\":134:385  contract Shop {\r... */\n  callvalue\n  dup1\n  iszero\n  tag_1\n  jumpi\n  0x00\n  dup1\n  revert\ntag_1:\n  pop\n  dataSize(sub_0)\n  dup1\n  dataOffset(sub_0)\n  0x00\n  codecopy\n  0x00\n  return\nstop\n\nsub_0: assembly {\n        /* \"contract/security/Shop.sol\":134:385  contract Shop {\r... */\n      mstore(0x40, 0x80)\n      callvalue\n      dup1\n      iszero\n      tag_1\n      jumpi\n      0x00\n      dup1\n      revert\n    tag_1:\n      pop\n      jumpi(tag_2, lt(calldatasize, 0x04))\n      shr(0xe0, calldataload(0x00))\n      dup1\n      0xa035b1fe\n      eq\n      tag_3\n      jumpi\n      dup1\n      0xa6f2ae3a\n      eq\n      tag_4\n      jumpi\n      dup1\n      0xe852e741\n      eq\n      tag_5\n      jumpi\n    tag_2:\n      0x00\n      dup1\n      revert\n        /* \"contract/security/Shop.sol\":153:176  uint public price = 100 */\n    tag_3:\n      tag_6\n      tag_7\n      jump\t// in\n    tag_6:\n      mload(0x40)\n      dup1\n      dup3\n      dup2\n      mstore\n      0x20\n      add\n      swap2\n      pop\n      pop\n      mload(0x40)\n      dup1\n      swap2\n      sub\n      swap1\n      return\n        /* \"contract/security/Shop.sol\":206:382  function buy() public {\r... */\n    tag_4:\n      tag_8\n      tag_9\n      jump\t// in\n    tag_8:\n      stop\n        /* \"contract/security/Shop.sol\":181:199  bool public isSold */\n    tag_5:\n      tag_10\n      tag_11\n      jump\t// in\n    tag_10:\n      mload(0x40)\n      dup1\n      dup3\n      iszero\n      iszero\n      dup2\n      mstore\n      0x20\n      add\n      swap2\n      pop\n      pop\n      mload(0x40)\n      dup1\n      swap2\n      sub\n      swap1\n      return\n        /* \"contract/security/Shop.sol\":153:176  uint public price = 100 */\n    tag_7:\n      sload(0x00)\n      dup2\n      jump\t// out\n        /* \"contract/security/Shop.sol\":206:382  function buy() public {\r... */\n    tag_9:\n        /* \"contract/security/Shop.sol\":235:247  Buyer _buyer */\n      0x00\n        /* \"contract/security/Shop.sol\":256:266  msg.sender */\n      caller\n        /* \"contract/security/Shop.sol\":235:267  Buyer _buyer = Buyer(msg.sender) */\n      swap1\n      pop\n        /* \"contract/security/Shop.sol\":298:303  price */\n      sload(0x00)\n        /* \"contract/security/Shop.sol\":280:286  _buyer */\n      dup2\n        /* \"contract/security/Shop.sol\":280:292  _buyer.price */\n      0xffffffffffffffffffffffffffffffffffffffff\n      and\n      0xa035b1fe\n        /* \"contract/security/Shop.sol\":280:294  _buyer.price() */\n      mload(0x40)\n      dup2\n      0xffffffff\n      and\n      0xe0\n      shl\n      dup2\n      mstore\n      0x04\n      add\n      0x20\n      mload(0x40)\n      dup1\n      dup4\n      sub\n      dup2\n      dup7\n      dup1\n      extcodesize\n      iszero\n      dup1\n      iszero\n      tag_13\n      jumpi\n      0x00\n      dup1\n      revert\n    tag_13:\n      pop\n      gas\n      staticcall\n      iszero\n      dup1\n      iszero\n      tag_15\n      jumpi\n      returndatasize\n      0x00\n      dup1\n      returndatacopy\n      revert(0x00, returndatasize)\n    tag_15:\n      pop\n      pop\n      pop\n      pop\n      mload(0x40)\n      returndatasize\n      0x20\n      dup2\n      lt\n      iszero\n      tag_16\n      jumpi\n      0x00\n      dup1\n      revert\n    tag_16:\n      dup2\n      add\n      swap1\n      dup1\n      dup1\n      mload\n      swap1\n      0x20\n      add\n      swap1\n      swap3\n      swap2\n      swap1\n      pop\n      pop\n      pop\n        /* \"contract/security/Shop.sol\":280:303  _buyer.price() >= price */\n      lt\n      iszero\n        /* \"contract/security/Shop.sol\":280:314  _buyer.price() >= price && !isSold */\n      dup1\n      iszero\n      tag_17\n      jumpi\n      pop\n        /* \"contract/security/Shop.sol\":308:314  isSold */\n      0x01\n      0x00\n      swap1\n      sload\n      swap1\n      0x0100\n      exp\n      swap1\n      div\n      0xff\n      and\n        /* \"contract/security/Shop.sol\":307:314  !isSold */\n      iszero\n        /* \"contract/security/Shop.sol\":280:314  _buyer.price() >= price && !isSold */\n    tag_17:\n        /* \"contract/security/Shop.sol\":276:377  if (_buyer.price() >= price && !isSold) {\r... */\n      iszero\n      tag_18\n      jumpi\n        /* \"contract/security/Shop.sol\":334:338  true */\n      0x01\n        /* \"contract/security/Shop.sol\":325:331  isSold */\n      dup1\n      0x00\n        /* \"contract/security/Shop.sol\":325:338  isSold = true */\n      0x0100\n      exp\n      dup2\n      sload\n      dup2\n      0xff\n      mul\n      not\n      and\n      swap1\n      dup4\n      iszero\n      iszero\n      mul\n      or\n      swap1\n      sstore\n      pop\n        /* \"contract/security/Shop.sol\":355:361  _buyer */\n      dup1\n        /* \"contract/security/Shop.sol\":355:367  _buyer.price */\n      0xffffffffffffffffffffffffffffffffffffffff\n      and\n      0xa035b1fe\n        /* \"contract/security/Shop.sol\":355:369  _buyer.price() */\n      mload(0x40)\n      dup2\n      0xffffffff\n      and\n      0xe0\n      shl\n      dup2\n      mstore\n      0x04\n      add\n      0x20\n      mload(0x40)\n      dup1\n      dup4\n      sub\n      dup2\n      dup7\n      dup1\n      extcodesize\n      iszero\n      dup1\n      iszero\n      tag_19\n      jumpi\n      0x00\n      dup1\n      revert\n    tag_19:\n      pop\n      gas\n      staticcall\n      iszero\n      dup1\n      iszero\n      tag_21\n      jumpi\n      returndatasize\n      0x00\n      dup1\n      returndatacopy\n      revert(0x00, returndatasize)\n    tag_21:\n      pop\n      pop\n      pop\n      pop\n      mload(0x40)\n      returndatasize\n      0x20\n      dup2\n      lt\n      iszero\n      tag_22\n      jumpi\n      0x00\n      dup1\n      revert\n    tag_22:\n      dup2\n      add\n      swap1\n      dup1\n      dup1\n      mload\n      swap1\n      0x20\n      add\n      swap1\n      swap3\n      swap2\n      swap1\n      pop\n      pop\n      pop\n        /* \"contract/security/Shop.sol\":347:352  price */\n      0x00\n        /* \"contract/security/Shop.sol\":347:369  price = _buyer.price() */\n      dup2\n      swap1\n      sstore\n      pop\n        /* \"contract/security/Shop.sol\":276:377  if (_buyer.price() >= price && !isSold) {\r... */\n    tag_18:\n        /* \"contract/security/Shop.sol\":206:382  function buy() public {\r... */\n      pop\n      jump\t// out\n        /* \"contract/security/Shop.sol\":181:199  bool public isSold */\n    tag_11:\n      0x01\n      0x00\n      swap1\n      sload\n      swap1\n      0x0100\n      exp\n      swap1\n      div\n      0xff\n      and\n      dup2\n      jump\t// out\n\n    auxdata: 0xa2646970667358221220a85d80a87313944d8f85f5ae8a0140c3540019d9fabb13e7ab92115163a064bc64736f6c634300060c0033\n}\n",
				"bytecode": {
					"linkReferences": {},
					"object": "6080604052606460005534801561001557600080fd5b5061022b806100256000396000f3fe608060405234801561001057600080fd5b50600436106100415760003560e01c8063a035b1fe14610046578063a6f2ae3a14610064578063e852e7411461006e575b600080fd5b61004e61008e565b6040518082815260200191505060405180910390f35b61006c610094565b005b6100766101e2565b60405180821515815260200191505060405180910390f35b60005481565b60003390506000548173ffffffffffffffffffffffffffffffffffffffff1663a035b1fe6040518163ffffffff1660e01b815260040160206040518083038186803b1580156100e257600080fd5b505afa1580156100f6573d6000803e3d6000fd5b505050506040513d602081101561010c57600080fd5b8101908080519060200190929190505050101580156101385750600160009054906101000a900460ff16155b156101df5760018060006101000a81548160ff0219169083151502179055508073ffffffffffffffffffffffffffffffffffffffff1663a035b1fe6040518163ffffffff1660e01b815260040160206040518083038186803b15801561019d57600080fd5b505afa1580156101b1573d6000803e3d6000fd5b505050506040513d60208110156101c757600080fd5b81019080805190602001909291905050506000819055505b50565b600160009054906101000a900460ff168156fea2646970667358221220a85d80a87313944d8f85f5ae8a0140c3540019d9fabb13e7ab92115163a064bc64736f6c634300060c0033",
					"opcodes": "PUSH1 0x80 PUSH1 0x40 MSTORE PUSH1 0x64 PUSH1 0x0 SSTORE CALLVALUE DUP1 ISZERO PUSH2 0x15 JUMPI PUSH1 0x0 DUP1 REVERT JUMPDEST POP PUSH2 0x22B DUP1 PUSH2 0x25 PUSH1 0x0 CODECOPY PUSH1 0x0 RETURN INVALID PUSH1 0x80 PUSH1 0x40 MSTORE CALLVALUE DUP1 ISZERO PUSH2 0x10 JUMPI PUSH1 0x0 DUP1 REVERT JUMPDEST POP PUSH1 0x4 CALLDATASIZE LT PUSH2 0x41 JUMPI PUSH1 0x0 CALLDATALOAD PUSH1 0xE0 SHR DUP1 PUSH4 0xA035B1FE EQ PUSH2 0x46 JUMPI DUP1 PUSH4 0xA6F2AE3A EQ PUSH2 0x64 JUMPI DUP1 PUSH4 0xE852E741 EQ PUSH2 0x6E JUMPI JUMPDEST PUSH1 0x0 DUP1 REVERT JUMPDEST PUSH2 0x4E PUSH2 0x8E JUMP JUMPDEST PUSH1 0x40 MLOAD DUP1 DUP3 DUP2 MSTORE PUSH1 0x20 ADD SWAP2 POP POP PUSH1 0x40 MLOAD DUP1 SWAP2 SUB SWAP1 RETURN JUMPDEST PUSH2 0x6C PUSH2 0x94 JUMP JUMPDEST STOP JUMPDEST PUSH2 0x76 PUSH2 0x1E2 JUMP JUMPDEST PUSH1 0x40 MLOAD DUP1 DUP3 ISZERO ISZERO DUP2 MSTORE PUSH1 0x20 ADD SWAP2 POP POP PUSH1 0x40 MLOAD DUP1 SWAP2 SUB SWAP1 RETURN JUMPDEST PUSH1 0x0 SLOAD DUP2 JUMP JUMPDEST PUSH1 0x0 CALLER SWAP1 POP PUSH1 0x0 SLOAD DUP2 PUSH20 0xFFFFFFFFFFFFFFFFFFFFFFFFFFFFFFFFFFFFFFFF AND PUSH4 0xA035B1FE PUSH1 0x40 MLOAD DUP2 PUSH4 0xFFFFFFFF AND PUSH1 0xE0 SHL DUP2 MSTORE PUSH1 0x4 ADD PUSH1 0x20 PUSH1 0x40 MLOAD DUP1 DUP4 SUB DUP2 DUP7 DUP1 EXTCODESIZE ISZERO DUP1 ISZERO PUSH2 0xE2 JUMPI PUSH1 0x0 DUP1 REVERT JUMPDEST POP GAS STATICCALL ISZERO DUP1 ISZERO PUSH2 0xF6 JUMPI RETURNDATASIZE PUSH1 0x0 DUP1 RETURNDATACOPY RETURNDATASIZE PUSH1 0x0 REVERT JUMPDEST POP POP POP POP PUSH1 0x40 MLOAD RETURNDATASIZE PUSH1 0x20 DUP2 LT ISZERO PUSH2 0x10C JUMPI PUSH1 0x0 DUP1 REVERT JUMPDEST DUP2 ADD SWAP1 DUP1 DUP1 MLOAD SWAP1 PUSH1 0x20 ADD SWAP1 SWAP3 SWAP2 SWAP1 POP POP POP LT ISZERO DUP1 ISZERO PUSH2 0x138 JUMPI POP PUSH1 0x1 PUSH1 0x0 SWAP1 SLOAD SWAP1 PUSH2 0x100 EXP SWAP1 DIV PUSH1 0xFF AND ISZERO JUMPDEST ISZERO PUSH2 0x1DF JUMPI PUSH1 0x1 DUP1 PUSH1 0x0 PUSH2 0x100 EXP DUP2 SLOAD DUP2 PUSH1 0xFF MUL NOT AND SWAP1 DUP4 ISZERO ISZERO MUL OR SWAP1 SSTORE POP DUP1 PUSH20 0xFFFFFFFFFFFFFFFFFFFFFFFFFFFFFFFFFFFFFFFF AND PUSH4 0xA035B1FE PUSH1 0x40 MLOAD DUP2 PUSH4 0xFFFFFFFF AND PUSH1 0xE0 SHL DUP2 MSTORE PUSH1 0x4 ADD PUSH1 0x20 PUSH1 0x40 MLOAD DUP1 DUP4 SUB DUP2 DUP7 DUP1 EXTCODESIZE ISZERO DUP1 ISZERO PUSH2 0x19D JUMPI PUSH1 0x0 DUP1 REVERT JUMPDEST POP GAS STATICCALL ISZERO DUP1 ISZERO PUSH2 0x1B1 JUMPI RETURNDATASIZE PUSH1 0x0 DUP1 RETURNDATACOPY RETURNDATASIZE PUSH1 0x0 REVERT JUMPDEST POP POP POP POP PUSH1 0x40 MLOAD RETURNDATASIZE PUSH1 0x20 DUP2 LT ISZERO PUSH2 0x1C7 JUMPI PUSH1 0x0 DUP1 REVERT JUMPDEST DUP2 ADD SWAP1 DUP1 DUP1 MLOAD SWAP1 PUSH1 0x20 ADD SWAP1 SWAP3 SWAP2 SWAP1 POP POP POP PUSH1 0x0 DUP2 SWAP1 SSTORE POP JUMPDEST POP JUMP JUMPDEST PUSH1 0x1 PUSH1 0x0 SWAP1 SLOAD SWAP1 PUSH2 0x100 EXP SWAP1 DIV PUSH1 0xFF AND DUP2 JUMP INVALID LOG2 PUSH5 0x6970667358 0x22 SLT KECCAK256 0xA8 0x5D DUP1 0xA8 PUSH20 0x13944D8F85F5AE8A0140C3540019D9FABB13E7AB SWAP3 GT MLOAD PUSH4 0xA064BC64 PUSH20 0x6F6C634300060C00330000000000000000000000 "
				},
				"gasEstimates": {
					"creation": {
						"codeDepositCost": "111000",
						"executionCost": "20165",
						"totalCost": "131165"
					},
					"external": {
						"buy()": "infinite",
						"isSold()": "1069",
						"price()": "983"
					}
				},
				"methodIdentifiers": {
					"buy()": "a6f2ae3a",
					"isSold()": "e852e741",
					"price()": "a035b1fe"
				}
			},
			"storageLayout": {
				"storage": [
					{
						"astId": 10,
						"contract": "contract/security/Shop.sol:Shop",
						"label": "price",
						"offset": 0,
						"slot": "0",
						"type": "t_uint256"
					},
					{
						"astId": 12,
						"contract": "contract/security/Shop.sol:Shop",
						"label": "isSold",
						"offset": 0,
						"slot": "1",
						"type": "t_bool"
					}
				],
				"types": {
					"t_bool": {
						"encoding": "inplace",
						"label": "bool",
						"numberOfBytes": "1"
					},
					"t_uint256": {
						"encoding": "inplace",
						"label": "uint256",
						"numberOfBytes": "32"
					}
				}
			},
			"userdoc": {
				"kind": "user",
				"methods": {},
				"version": 1
			}
		}
	}
}