{
	"data": {
		"bytecode": {
			"linkReferences": {
				"contract/sourcecode/SecondUncleCoin.sol": {
					"IterableMapping": [
						{
							"length": 20,
							"start": 3166
						},
						{
							"length": 20,
							"start": 3560
						},
						{
							"length": 20,
							"start": 3771
						},
						{
							"length": 20,
							"start": 6352
						},
						{
							"length": 20,
							"start": 6478
						},
						{
							"length": 20,
							"start": 7250
						}
					]
				}
			},
			"object": "608060405234801561001057600080fd5b506144e0806100206000396000f3fe608060405234801561001057600080fd5b506004361061023d5760003560e01c80638da5cb5b1161013b578063c705c569116100b8578063e98030c71161007c578063e98030c714610733578063f2fde38b1461074f578063f7c618c11461076b578063fbcbc0f114610789578063ffb2c479146107c05761023d565b8063c705c5691461067d578063cd6dc687146106ad578063dd62ed3e146106c9578063e30443bc146106f9578063e7841ec0146107155761023d565b8063a9059cbb116100ff578063a9059cbb146105b3578063aafd847a146105e3578063ba72a95514610613578063bc4c4b371461062f578063be10b6141461065f5761023d565b80638da5cb5b146104e757806391b89fba1461050557806395d89b4114610535578063a457c2d714610553578063a8b9d240146105835761023d565b8063313ce567116101c95780636a4740021161018d5780636a474002146104675780636f2789ec1461047157806370a082311461048f578063715018a6146104bf57806385a6b3ae146104c95761023d565b8063313ce5671461039657806331e79db0146103b457806339509351146103d05780634e7b827f146104005780635183d6fd146104305761023d565b806318160ddd1161021057806318160ddd146102ca578063226cfa3d146102e857806323b872dd1461031857806327ce0147146103485780633009a609146103785761023d565b806306fdde0314610242578063095ea7b31461026057806309bbedde146102905780630dcb2e89146102ae575b600080fd5b61024a6107f2565b6040516102579190613857565b60405180910390f35b61027a600480360381019061027591906133e9565b610884565b604051610287919061383c565b60405180910390f35b6102986108a2565b6040516102a59190613b06565b60405180910390f35b6102c860048036038101906102c39190613477565b6108b2565b005b6102d2610938565b6040516102df9190613b06565b60405180910390f35b61030260048036038101906102fd9190613294565b610942565b60405161030f9190613b06565b60405180910390f35b610332600480360381019061032d919061339a565b61095a565b60405161033f919061383c565b60405180910390f35b610362600480360381019061035d9190613294565b610a52565b60405161036f9190613b06565b60405180910390f35b610380610af5565b60405161038d9190613b06565b60405180910390f35b61039e610afb565b6040516103ab9190613b58565b60405180910390f35b6103ce60048036038101906103c99190613294565b610b04565b005b6103ea60048036038101906103e591906133e9565b610cec565b6040516103f7919061383c565b60405180910390f35b61041a60048036038101906104159190613294565b610d98565b604051610427919061383c565b60405180910390f35b61044a60048036038101906104459190613477565b610db8565b60405161045e9897969594939291906137be565b60405180910390f35b61046f610f4b565b005b610479610f8e565b6040516104869190613b06565b60405180910390f35b6104a960048036038101906104a49190613294565b610f94565b6040516104b69190613b06565b60405180910390f35b6104c7610fdd565b005b6104d1611065565b6040516104de9190613b06565b60405180910390f35b6104ef61106b565b6040516104fc919061377a565b60405180910390f35b61051f600480360381019061051a9190613294565b611095565b60405161052c9190613b06565b60405180910390f35b61053d6110a7565b60405161054a9190613857565b60405180910390f35b61056d600480360381019061056891906133e9565b611139565b60405161057a919061383c565b60405180910390f35b61059d60048036038101906105989190613294565b611224565b6040516105aa9190613b06565b60405180910390f35b6105cd60048036038101906105c891906133e9565b611287565b6040516105da919061383c565b60405180910390f35b6105fd60048036038101906105f89190613294565b6112a5565b60405161060a9190613b06565b60405180910390f35b61062d60048036038101906106289190613477565b6112ee565b005b610649600480360381019061064491906132e6565b611444565b604051610656919061383c565b60405180910390f35b610667611583565b6040516106749190613b06565b60405180910390f35b61069760048036038101906106929190613294565b611589565b6040516106a4919061383c565b60405180910390f35b6106c760048036038101906106c291906133e9565b6115df565b005b6106e360048036038101906106de919061335e565b61173f565b6040516106f09190613b06565b60405180910390f35b610713600480360381019061070e9190613322565b6117c6565b005b61071d6119a8565b60405161072a9190613b06565b60405180910390f35b61074d60048036038101906107489190613477565b6119b2565b005b61076960048036038101906107649190613294565b611b01565b005b610773611bf9565b604051610780919061377a565b60405180910390f35b6107a3600480360381019061079e9190613294565b611c1f565b6040516107b79897969594939291906137be565b60405180910390f35b6107da60048036038101906107d59190613477565b611e0d565b6040516107e993929190613b21565b60405180910390f35b60606036805461080190613ea6565b80601f016020809104026020016040519081016040528092919081815260200182805461082d90613ea6565b801561087a5780601f1061084f5761010080835404028352916020019161087a565b820191906000526020600020905b81548152906001019060200180831161085d57829003601f168201915b5050505050905090565b6000610898610891611fc5565b8484611fcd565b6001905092915050565b6000609c60000180549050905090565b6108ba611fc5565b73ffffffffffffffffffffffffffffffffffffffff166108d861106b565b73ffffffffffffffffffffffffffffffffffffffff161461092e576040517f08c379a000000000000000000000000000000000000000000000000000000000815260040161092590613959565b60405180910390fd5b8060a48190555050565b6000603554905090565b60a26020528060005260406000206000915090505481565b6000610967848484612198565b6000603460008673ffffffffffffffffffffffffffffffffffffffff1673ffffffffffffffffffffffffffffffffffffffff16815260200190815260200160002060006109b2611fc5565b73ffffffffffffffffffffffffffffffffffffffff1673ffffffffffffffffffffffffffffffffffffffff16815260200190815260200160002054905082811015610a32576040517f08c379a0000000000000000000000000000000000000000000000000000000008152600401610a2990613939565b60405180910390fd5b610a4685610a3e611fc5565b858403611fcd565b60019150509392505050565b6000700100000000000000000000000000000000610ae4610adf609960008673ffffffffffffffffffffffffffffffffffffffff1673ffffffffffffffffffffffffffffffffffffffff16815260200190815260200160002054610ad1610acc610abb88610f94565b6098546121de90919063ffffffff16565b6121f4565b61221190919063ffffffff16565b61225c565b610aee9190613c79565b9050919050565b60a05481565b60006012905090565b610b0c611fc5565b73ffffffffffffffffffffffffffffffffffffffff16610b2a61106b565b73ffffffffffffffffffffffffffffffffffffffff1614610b80576040517f08c379a0000000000000000000000000000000000000000000000000000000008152600401610b7790613959565b60405180910390fd5b60a160008273ffffffffffffffffffffffffffffffffffffffff1673ffffffffffffffffffffffffffffffffffffffff16815260200190815260200160002060009054906101000a900460ff1615610bd757600080fd5b600160a160008373ffffffffffffffffffffffffffffffffffffffff1673ffffffffffffffffffffffffffffffffffffffff16815260200190815260200160002060006101000a81548160ff021916908315150217905550610c3a816000612273565b609c73__$1c4d4a802bd1aa1875ee187131b4464523$__634c60db9c9091836040518363ffffffff1660e01b8152600401610c76929190613a54565b60006040518083038186803b158015610c8e57600080fd5b505af4158015610ca2573d6000803e3d6000fd5b505050508073ffffffffffffffffffffffffffffffffffffffff167fa878b31040b2e6d0a9a3d3361209db3908ba62014b0dca52adbaee451d128b2560405160405180910390a250565b6000610d8e610cf9611fc5565b848460346000610d07611fc5565b73ffffffffffffffffffffffffffffffffffffffff1673ffffffffffffffffffffffffffffffffffffffff16815260200190815260200160002060008873ffffffffffffffffffffffffffffffffffffffff1673ffffffffffffffffffffffffffffffffffffffff16815260200190815260200160002054610d899190613c23565b611fcd565b6001905092915050565b60a16020528060005260406000206000915054906101000a900460ff1681565b600080600080600080600080609c73__$1c4d4a802bd1aa1875ee187131b4464523$__63deb3d89690916040518263ffffffff1660e01b8152600401610dfe9190613a39565b60206040518083038186803b158015610e1657600080fd5b505af4158015610e2a573d6000803e3d6000fd5b505050506040513d601f19601f82011682018060405250810190610e4e91906134a0565b8910610e955760007fffffffffffffffffffffffffffffffffffffffffffffffffffffffffffffffff80600080600080600097509750975097509750975097509750610f40565b6000609c73__$1c4d4a802bd1aa1875ee187131b4464523$__63d1aa9e7e90918c6040518363ffffffff1660e01b8152600401610ed3929190613add565b60206040518083038186803b158015610eeb57600080fd5b505af4158015610eff573d6000803e3d6000fd5b505050506040513d601f19601f82011682018060405250810190610f2391906132bd565b9050610f2e81611c1f565b98509850985098509850985098509850505b919395975091939597565b6000610f8c576040517f08c379a0000000000000000000000000000000000000000000000000000000008152600401610f83906138d9565b60405180910390fd5b565b60a35481565b6000603360008373ffffffffffffffffffffffffffffffffffffffff1673ffffffffffffffffffffffffffffffffffffffff168152602001908152602001600020549050919050565b610fe5611fc5565b73ffffffffffffffffffffffffffffffffffffffff1661100361106b565b73ffffffffffffffffffffffffffffffffffffffff1614611059576040517f08c379a000000000000000000000000000000000000000000000000000000000815260040161105090613959565b60405180910390fd5b61106360006122e0565b565b609b5481565b6000606560009054906101000a900473ffffffffffffffffffffffffffffffffffffffff16905090565b60006110a082611224565b9050919050565b6060603780546110b690613ea6565b80601f01602080910402602001604051908101604052809291908181526020018280546110e290613ea6565b801561112f5780601f106111045761010080835404028352916020019161112f565b820191906000526020600020905b81548152906001019060200180831161111257829003601f168201915b5050505050905090565b60008060346000611148611fc5565b73ffffffffffffffffffffffffffffffffffffffff1673ffffffffffffffffffffffffffffffffffffffff16815260200190815260200160002060008573ffffffffffffffffffffffffffffffffffffffff1673ffffffffffffffffffffffffffffffffffffffff16815260200190815260200160002054905082811015611205576040517f08c379a00000000000000000000000000000000000000000000000000000000081526004016111fc906139f9565b60405180910390fd5b611219611210611fc5565b85858403611fcd565b600191505092915050565b6000611280609a60008473ffffffffffffffffffffffffffffffffffffffff1673ffffffffffffffffffffffffffffffffffffffff1681526020019081526020016000205461127284610a52565b6123a690919063ffffffff16565b9050919050565b600061129b611294611fc5565b8484612198565b6001905092915050565b6000609a60008373ffffffffffffffffffffffffffffffffffffffff1673ffffffffffffffffffffffffffffffffffffffff168152602001908152602001600020549050919050565b6112f6611fc5565b73ffffffffffffffffffffffffffffffffffffffff1661131461106b565b73ffffffffffffffffffffffffffffffffffffffff161461136a576040517f08c379a000000000000000000000000000000000000000000000000000000000815260040161136190613959565b60405180910390fd5b6000611374610938565b1161137e57600080fd5b6000811115611441576113d1611392610938565b6113b6700100000000000000000000000000000000846121de90919063ffffffff16565b6113c09190613c79565b6098546123bc90919063ffffffff16565b6098819055503373ffffffffffffffffffffffffffffffffffffffff167fa493a9229478c3fcd73f66d2cdeb7f94fd0f341da924d1054236d784541165118260405161141d9190613b06565b60405180910390a261143a81609b546123bc90919063ffffffff16565b609b819055505b50565b600061144e611fc5565b73ffffffffffffffffffffffffffffffffffffffff1661146c61106b565b73ffffffffffffffffffffffffffffffffffffffff16146114c2576040517f08c379a00000000000000000000000000000000000000000000000000000000081526004016114b990613959565b60405180910390fd5b60006114cd846123d2565b90506000811115611577574260a260008673ffffffffffffffffffffffffffffffffffffffff1673ffffffffffffffffffffffffffffffffffffffff168152602001908152602001600020819055508215158473ffffffffffffffffffffffffffffffffffffffff167fa2c38e2d2fb7e3e1912d937fd1ca11ed6d51864dee4cfa7a7bf02becd7acf092836040516115659190613b06565b60405180910390a3600191505061157d565b60009150505b92915050565b60a45481565b600060a160008373ffffffffffffffffffffffffffffffffffffffff1673ffffffffffffffffffffffffffffffffffffffff16815260200190815260200160002060009054906101000a900460ff169050919050565b600060019054906101000a900460ff1680611605575060008054906101000a900460ff16155b611644576040517f08c379a000000000000000000000000000000000000000000000000000000000815260040161163b906138f9565b60405180910390fd5b60008060019054906101000a900460ff161590508015611694576001600060016101000a81548160ff02191690831515021790555060016000806101000a81548160ff0219169083151502179055505b611709836040518060400160405280601081526020017f4449564944454e445f545241434b4552000000000000000000000000000000008152506040518060400160405280601081526020017f4449564944454e445f545241434b455200000000000000000000000000000000815250612639565b610e1060a3819055508160a481905550801561173a5760008060016101000a81548160ff0219169083151502179055505b505050565b6000603460008473ffffffffffffffffffffffffffffffffffffffff1673ffffffffffffffffffffffffffffffffffffffff16815260200190815260200160002060008373ffffffffffffffffffffffffffffffffffffffff1673ffffffffffffffffffffffffffffffffffffffff16815260200190815260200160002054905092915050565b6117ce611fc5565b73ffffffffffffffffffffffffffffffffffffffff166117ec61106b565b73ffffffffffffffffffffffffffffffffffffffff1614611842576040517f08c379a000000000000000000000000000000000000000000000000000000000815260040161183990613959565b60405180910390fd5b60a160008373ffffffffffffffffffffffffffffffffffffffff1673ffffffffffffffffffffffffffffffffffffffff16815260200190815260200160002060009054906101000a900460ff1615611899576119a4565b60a454811061191f576118ac8282612273565b609c73__$1c4d4a802bd1aa1875ee187131b4464523$__63bc2b405c909184846040518463ffffffff1660e01b81526004016118ea93929190613aa6565b60006040518083038186803b15801561190257600080fd5b505af4158015611916573d6000803e3d6000fd5b50505050611997565b61192a826000612273565b609c73__$1c4d4a802bd1aa1875ee187131b4464523$__634c60db9c9091846040518363ffffffff1660e01b8152600401611966929190613a7d565b60006040518083038186803b15801561197e57600080fd5b505af4158015611992573d6000803e3d6000fd5b505050505b6119a2826001611444565b505b5050565b600060a054905090565b6119ba611fc5565b73ffffffffffffffffffffffffffffffffffffffff166119d861106b565b73ffffffffffffffffffffffffffffffffffffffff1614611a2e576040517f08c379a0000000000000000000000000000000000000000000000000000000008152600401611a2590613959565b60405180910390fd5b610e108110158015611a435750620151808111155b611a82576040517f08c379a0000000000000000000000000000000000000000000000000000000008152600401611a7990613919565b60405180910390fd5b60a354811415611ac7576040517f08c379a0000000000000000000000000000000000000000000000000000000008152600401611abe906139d9565b60405180910390fd5b60a354817f474ea64804364a1e29a4487ddb63c3342a2dd826ccd8acf48825e680a0e6f20f60405160405180910390a38060a38190555050565b611b09611fc5565b73ffffffffffffffffffffffffffffffffffffffff16611b2761106b565b73ffffffffffffffffffffffffffffffffffffffff1614611b7d576040517f08c379a0000000000000000000000000000000000000000000000000000000008152600401611b7490613959565b60405180910390fd5b600073ffffffffffffffffffffffffffffffffffffffff168173ffffffffffffffffffffffffffffffffffffffff161415611bed576040517f08c379a0000000000000000000000000000000000000000000000000000000008152600401611be490613899565b60405180910390fd5b611bf6816122e0565b50565b609760009054906101000a900473ffffffffffffffffffffffffffffffffffffffff1681565b600080600080600080600080889750609c73__$1c4d4a802bd1aa1875ee187131b4464523$__6317e142d190918a6040518363ffffffff1660e01b8152600401611c6a929190613a54565b60206040518083038186803b158015611c8257600080fd5b505af4158015611c96573d6000803e3d6000fd5b505050506040513d601f19601f82011682018060405250810190611cba919061344e565b96507fffffffffffffffffffffffffffffffffffffffffffffffffffffffffffffffff955060008712611d5f5760a054871115611d0d57611d0660a0548861276890919063ffffffff16565b9550611d5e565b600060a054609c6000018054905011611d27576000611d45565b611d4460a054609c600001805490506123a690919063ffffffff16565b5b9050611d5a818961221190919063ffffffff16565b9650505b5b611d6888611224565b9450611d7388610a52565b935060a260008973ffffffffffffffffffffffffffffffffffffffff1673ffffffffffffffffffffffffffffffffffffffff16815260200190815260200160002054925060008311611dc6576000611ddc565b611ddb60a354846123bc90919063ffffffff16565b5b9150428211611dec576000611e00565b611dff42836123a690919063ffffffff16565b5b9050919395975091939597565b600080600080609c6000018054905090506000811415611e395760008060a05493509350935050611fbe565b600060a05490506000805a90506000805b8984108015611e5857508582105b15611fa5578480611e6890613ed8565b955050609c600001805490508510611e7f57600094505b6000609c6000018681548110611ebe577f4e487b7100000000000000000000000000000000000000000000000000000000600052603260045260246000fd5b9060005260206000200160009054906101000a900473ffffffffffffffffffffffffffffffffffffffff169050611f3360a260008373ffffffffffffffffffffffffffffffffffffffff1673ffffffffffffffffffffffffffffffffffffffff168152602001908152602001600020546127b3565b15611f5857611f43816001611444565b15611f57578180611f5390613ed8565b9250505b5b8280611f6390613ed8565b93505060005a905080851115611f9b57611f98611f8982876123a690919063ffffffff16565b876123bc90919063ffffffff16565b95505b8094505050611e4a565b8460a081905550818160a0549850985098505050505050505b9193909250565b600033905090565b600073ffffffffffffffffffffffffffffffffffffffff168373ffffffffffffffffffffffffffffffffffffffff16141561203d576040517f08c379a0000000000000000000000000000000000000000000000000000000008152600401612034906139b9565b60405180910390fd5b600073ffffffffffffffffffffffffffffffffffffffff168273ffffffffffffffffffffffffffffffffffffffff1614156120ad576040517f08c379a00000000000000000000000000000000000000000000000000000000081526004016120a4906138b9565b60405180910390fd5b80603460008573ffffffffffffffffffffffffffffffffffffffff1673ffffffffffffffffffffffffffffffffffffffff16815260200190815260200160002060008473ffffffffffffffffffffffffffffffffffffffff1673ffffffffffffffffffffffffffffffffffffffff168152602001908152602001600020819055508173ffffffffffffffffffffffffffffffffffffffff168373ffffffffffffffffffffffffffffffffffffffff167f8c5be1e5ebec7d5bd14f71427d1e84f3dd0314c0f7b2291e5b200ac8c7c3b9258360405161218b9190613b06565b60405180910390a3505050565b60006121d9576040517f08c379a00000000000000000000000000000000000000000000000000000000081526004016121d090613979565b60405180910390fd5b505050565b600081836121ec9190613caa565b905092915050565b600080829050600081121561220857600080fd5b80915050919050565b60008082846122209190613b8f565b9050600083121580156122335750838112155b80612249575060008312801561224857508381125b5b61225257600080fd5b8091505092915050565b60008082121561226b57600080fd5b819050919050565b600061227e83610f94565b9050808211156122af57600061229d82846123a690919063ffffffff16565b90506122a984826127e6565b506122db565b808210156122da5760006122cc83836123a690919063ffffffff16565b90506122d884826128a5565b505b5b505050565b6000606560009054906101000a900473ffffffffffffffffffffffffffffffffffffffff16905081606560006101000a81548173ffffffffffffffffffffffffffffffffffffffff021916908373ffffffffffffffffffffffffffffffffffffffff1602179055508173ffffffffffffffffffffffffffffffffffffffff168173ffffffffffffffffffffffffffffffffffffffff167f8be0079c531659141344cd1fd0a4f28419497f9722a3daafe3b4186f6b6457e060405160405180910390a35050565b600081836123b49190613d98565b905092915050565b600081836123ca9190613c23565b905092915050565b6000806123de83611224565b9050600081111561262e5761243b81609a60008673ffffffffffffffffffffffffffffffffffffffff1673ffffffffffffffffffffffffffffffffffffffff168152602001908152602001600020546123bc90919063ffffffff16565b609a60008573ffffffffffffffffffffffffffffffffffffffff1673ffffffffffffffffffffffffffffffffffffffff168152602001908152602001600020819055508273ffffffffffffffffffffffffffffffffffffffff167fee503bee2bb6a87e57bc57db795f98137327401a0e7b7ce42e37926cc1a9ca4d826040516124c49190613b06565b60405180910390a26000609760009054906101000a900473ffffffffffffffffffffffffffffffffffffffff1673ffffffffffffffffffffffffffffffffffffffff1663a9059cbb85846040518363ffffffff1660e01b815260040161252b929190613795565b602060405180830381600087803b15801561254557600080fd5b505af1158015612559573d6000803e3d6000fd5b505050506040513d601f19601f8201168201806040525081019061257d9190613425565b905080612624576125d682609a60008773ffffffffffffffffffffffffffffffffffffffff1673ffffffffffffffffffffffffffffffffffffffff168152602001908152602001600020546123a690919063ffffffff16565b609a60008673ffffffffffffffffffffffffffffffffffffffff1673ffffffffffffffffffffffffffffffffffffffff16815260200190815260200160002081905550600092505050612634565b8192505050612634565b60009150505b919050565b600060019054906101000a900460ff168061265f575060008054906101000a900460ff16155b61269e576040517f08c379a0000000000000000000000000000000000000000000000000000000008152600401612695906138f9565b60405180910390fd5b60008060019054906101000a900460ff1615905080156126ee576001600060016101000a81548160ff02191690831515021790555060016000806101000a81548160ff0219169083151502179055505b6126f6612964565b6127008383612a4d565b83609760006101000a81548173ffffffffffffffffffffffffffffffffffffffff021916908373ffffffffffffffffffffffffffffffffffffffff16021790555080156127625760008060016101000a81548160ff0219169083151502179055505b50505050565b60008082846127779190613d04565b90506000831215801561278a5750838113155b806127a0575060008312801561279f57508381135b5b6127a957600080fd5b8091505092915050565b6000428211156127c657600090506127e1565b60a3546127dc83426123a690919063ffffffff16565b101590505b919050565b6127f08282612b3a565b61285e61281061280b836098546121de90919063ffffffff16565b6121f4565b609960008573ffffffffffffffffffffffffffffffffffffffff1673ffffffffffffffffffffffffffffffffffffffff1681526020019081526020016000205461276890919063ffffffff16565b609960008473ffffffffffffffffffffffffffffffffffffffff1673ffffffffffffffffffffffffffffffffffffffff168152602001908152602001600020819055505050565b6128af8282612c9b565b61291d6128cf6128ca836098546121de90919063ffffffff16565b6121f4565b609960008573ffffffffffffffffffffffffffffffffffffffff1673ffffffffffffffffffffffffffffffffffffffff1681526020019081526020016000205461221190919063ffffffff16565b609960008473ffffffffffffffffffffffffffffffffffffffff1673ffffffffffffffffffffffffffffffffffffffff168152602001908152602001600020819055505050565b600060019054906101000a900460ff168061298a575060008054906101000a900460ff16155b6129c9576040517f08c379a00000000000000000000000000000000000000000000000000000000081526004016129c0906138f9565b60405180910390fd5b60008060019054906101000a900460ff161590508015612a19576001600060016101000a81548160ff02191690831515021790555060016000806101000a81548160ff0219169083151502179055505b612a21612e74565b612a29612f4d565b8015612a4a5760008060016101000a81548160ff0219169083151502179055505b50565b600060019054906101000a900460ff1680612a73575060008054906101000a900460ff16155b612ab2576040517f08c379a0000000000000000000000000000000000000000000000000000000008152600401612aa9906138f9565b60405180910390fd5b60008060019054906101000a900460ff161590508015612b02576001600060016101000a81548160ff02191690831515021790555060016000806101000a81548160ff0219169083151502179055505b612b0a612e74565b612b148383613036565b8015612b355760008060016101000a81548160ff0219169083151502179055505b505050565b600073ffffffffffffffffffffffffffffffffffffffff168273ffffffffffffffffffffffffffffffffffffffff161415612baa576040517f08c379a0000000000000000000000000000000000000000000000000000000008152600401612ba190613a19565b60405180910390fd5b612bb66000838361313f565b8060356000828254612bc89190613c23565b9250508190555080603360008473ffffffffffffffffffffffffffffffffffffffff1673ffffffffffffffffffffffffffffffffffffffff1681526020019081526020016000206000828254612c1e9190613c23565b925050819055508173ffffffffffffffffffffffffffffffffffffffff16600073ffffffffffffffffffffffffffffffffffffffff167fddf252ad1be2c89b69c2b068fc378daa952ba7f163c4a11628f55a4df523b3ef83604051612c839190613b06565b60405180910390a3612c9760008383613144565b5050565b600073ffffffffffffffffffffffffffffffffffffffff168273ffffffffffffffffffffffffffffffffffffffff161415612d0b576040517f08c379a0000000000000000000000000000000000000000000000000000000008152600401612d0290613999565b60405180910390fd5b612d178260008361313f565b6000603360008473ffffffffffffffffffffffffffffffffffffffff1673ffffffffffffffffffffffffffffffffffffffff16815260200190815260200160002054905081811015612d9e576040517f08c379a0000000000000000000000000000000000000000000000000000000008152600401612d9590613879565b60405180910390fd5b818103603360008573ffffffffffffffffffffffffffffffffffffffff1673ffffffffffffffffffffffffffffffffffffffff168152602001908152602001600020819055508160356000828254612df69190613d98565b92505081905550600073ffffffffffffffffffffffffffffffffffffffff168373ffffffffffffffffffffffffffffffffffffffff167fddf252ad1be2c89b69c2b068fc378daa952ba7f163c4a11628f55a4df523b3ef84604051612e5b9190613b06565b60405180910390a3612e6f83600084613144565b505050565b600060019054906101000a900460ff1680612e9a575060008054906101000a900460ff16155b612ed9576040517f08c379a0000000000000000000000000000000000000000000000000000000008152600401612ed0906138f9565b60405180910390fd5b60008060019054906101000a900460ff161590508015612f29576001600060016101000a81548160ff02191690831515021790555060016000806101000a81548160ff0219169083151502179055505b8015612f4a5760008060016101000a81548160ff0219169083151502179055505b50565b600060019054906101000a900460ff1680612f73575060008054906101000a900460ff16155b612fb2576040517f08c379a0000000000000000000000000000000000000000000000000000000008152600401612fa9906138f9565b60405180910390fd5b60008060019054906101000a900460ff161590508015613002576001600060016101000a81548160ff02191690831515021790555060016000806101000a81548160ff0219169083151502179055505b61301261300d611fc5565b6122e0565b80156130335760008060016101000a81548160ff0219169083151502179055505b50565b600060019054906101000a900460ff168061305c575060008054906101000a900460ff16155b61309b576040517f08c379a0000000000000000000000000000000000000000000000000000000008152600401613092906138f9565b60405180910390fd5b60008060019054906101000a900460ff1615905080156130eb576001600060016101000a81548160ff02191690831515021790555060016000806101000a81548160ff0219169083151502179055505b8260369080519060200190613101929190613149565b508160379080519060200190613118929190613149565b50801561313a5760008060016101000a81548160ff0219169083151502179055505b505050565b505050565b505050565b82805461315590613ea6565b90600052602060002090601f01602090048101928261317757600085556131be565b82601f1061319057805160ff19168380011785556131be565b828001600101855582156131be579182015b828111156131bd5782518255916020019190600101906131a2565b5b5090506131cb91906131cf565b5090565b5b808211156131e85760008160009055506001016131d0565b5090565b6000813590506131fb81614437565b92915050565b60008151905061321081614437565b92915050565b6000813590506132258161444e565b92915050565b60008135905061323a81614465565b92915050565b60008151905061324f81614465565b92915050565b6000815190506132648161447c565b92915050565b60008135905061327981614493565b92915050565b60008151905061328e81614493565b92915050565b6000602082840312156132a657600080fd5b60006132b4848285016131ec565b91505092915050565b6000602082840312156132cf57600080fd5b60006132dd84828501613201565b91505092915050565b600080604083850312156132f957600080fd5b600061330785828601613216565b92505060206133188582860161322b565b9150509250929050565b6000806040838503121561333557600080fd5b600061334385828601613216565b92505060206133548582860161326a565b9150509250929050565b6000806040838503121561337157600080fd5b600061337f858286016131ec565b9250506020613390858286016131ec565b9150509250929050565b6000806000606084860312156133af57600080fd5b60006133bd868287016131ec565b93505060206133ce868287016131ec565b92505060406133df8682870161326a565b9150509250925092565b600080604083850312156133fc57600080fd5b600061340a858286016131ec565b925050602061341b8582860161326a565b9150509250929050565b60006020828403121561343757600080fd5b600061344584828501613240565b91505092915050565b60006020828403121561346057600080fd5b600061346e84828501613255565b91505092915050565b60006020828403121561348957600080fd5b60006134978482850161326a565b91505092915050565b6000602082840312156134b257600080fd5b60006134c08482850161327f565b91505092915050565b6134d281613e3d565b82525050565b6134e181613e3d565b82525050565b6134f081613dcc565b82525050565b6134ff81613dcc565b82525050565b61350e81613df0565b82525050565b61351d81613dfc565b82525050565b600061352e82613b73565b6135388185613b7e565b9350613548818560208601613e73565b61355181613fae565b840191505092915050565b6000613569602283613b7e565b915061357482613fbf565b604082019050919050565b600061358c602683613b7e565b91506135978261400e565b604082019050919050565b60006135af602283613b7e565b91506135ba8261405d565b604082019050919050565b60006135d2606583613b7e565b91506135dd826140ac565b608082019050919050565b60006135f5602e83613b7e565b915061360082614147565b604082019050919050565b6000613618604583613b7e565b915061362382614196565b606082019050919050565b600061363b602883613b7e565b91506136468261420b565b604082019050919050565b600061365e602083613b7e565b91506136698261425a565b602082019050919050565b6000613681602683613b7e565b915061368c82614283565b604082019050919050565b60006136a4602183613b7e565b91506136af826142d2565b604082019050919050565b60006136c7602483613b7e565b91506136d282614321565b604082019050919050565b60006136ea603783613b7e565b91506136f582614370565b604082019050919050565b600061370d602583613b7e565b9150613718826143bf565b604082019050919050565b6000613730601f83613b7e565b915061373b8261440e565b602082019050919050565b8082525050565b61375681613e26565b82525050565b61376581613e26565b82525050565b61377481613e30565b82525050565b600060208201905061378f60008301846134e7565b92915050565b60006040820190506137aa60008301856134c9565b6137b7602083018461374d565b9392505050565b6000610100820190506137d4600083018b6134e7565b6137e1602083018a613514565b6137ee6040830189613514565b6137fb606083018861374d565b613808608083018761374d565b61381560a083018661374d565b61382260c083018561374d565b61382f60e083018461374d565b9998505050505050505050565b60006020820190506138516000830184613505565b92915050565b600060208201905081810360008301526138718184613523565b905092915050565b600060208201905081810360008301526138928161355c565b9050919050565b600060208201905081810360008301526138b28161357f565b9050919050565b600060208201905081810360008301526138d2816135a2565b9050919050565b600060208201905081810360008301526138f2816135c5565b9050919050565b60006020820190508181036000830152613912816135e8565b9050919050565b600060208201905081810360008301526139328161360b565b9050919050565b600060208201905081810360008301526139528161362e565b9050919050565b6000602082019050818103600083015261397281613651565b9050919050565b6000602082019050818103600083015261399281613674565b9050919050565b600060208201905081810360008301526139b281613697565b9050919050565b600060208201905081810360008301526139d2816136ba565b9050919050565b600060208201905081810360008301526139f2816136dd565b9050919050565b60006020820190508181036000830152613a1281613700565b9050919050565b60006020820190508181036000830152613a3281613723565b9050919050565b6000602082019050613a4e6000830184613746565b92915050565b6000604082019050613a696000830185613746565b613a7660208301846134f6565b9392505050565b6000604082019050613a926000830185613746565b613a9f60208301846134d8565b9392505050565b6000606082019050613abb6000830186613746565b613ac860208301856134d8565b613ad5604083018461375c565b949350505050565b6000604082019050613af26000830185613746565b613aff602083018461375c565b9392505050565b6000602082019050613b1b600083018461374d565b92915050565b6000606082019050613b36600083018661374d565b613b43602083018561374d565b613b50604083018461374d565b949350505050565b6000602082019050613b6d600083018461376b565b92915050565b600081519050919050565b600082825260208201905092915050565b6000613b9a82613dfc565b9150613ba583613dfc565b9250817f7fffffffffffffffffffffffffffffffffffffffffffffffffffffffffffffff03831360008312151615613be057613bdf613f21565b5b817f8000000000000000000000000000000000000000000000000000000000000000038312600083121615613c1857613c17613f21565b5b828201905092915050565b6000613c2e82613e26565b9150613c3983613e26565b9250827fffffffffffffffffffffffffffffffffffffffffffffffffffffffffffffffff03821115613c6e57613c6d613f21565b5b828201905092915050565b6000613c8482613e26565b9150613c8f83613e26565b925082613c9f57613c9e613f50565b5b828204905092915050565b6000613cb582613e26565b9150613cc083613e26565b9250817fffffffffffffffffffffffffffffffffffffffffffffffffffffffffffffffff0483118215151615613cf957613cf8613f21565b5b828202905092915050565b6000613d0f82613dfc565b9150613d1a83613dfc565b9250827f800000000000000000000000000000000000000000000000000000000000000001821260008412151615613d5557613d54613f21565b5b827f7fffffffffffffffffffffffffffffffffffffffffffffffffffffffffffffff018213600084121615613d8d57613d8c613f21565b5b828203905092915050565b6000613da382613e26565b9150613dae83613e26565b925082821015613dc157613dc0613f21565b5b828203905092915050565b6000613dd782613e06565b9050919050565b6000613de982613e06565b9050919050565b60008115159050919050565b6000819050919050565b600073ffffffffffffffffffffffffffffffffffffffff82169050919050565b6000819050919050565b600060ff82169050919050565b6000613e4882613e4f565b9050919050565b6000613e5a82613e61565b9050919050565b6000613e6c82613e06565b9050919050565b60005b83811015613e91578082015181840152602081019050613e76565b83811115613ea0576000848401525b50505050565b60006002820490506001821680613ebe57607f821691505b60208210811415613ed257613ed1613f7f565b5b50919050565b6000613ee382613e26565b91507fffffffffffffffffffffffffffffffffffffffffffffffffffffffffffffffff821415613f1657613f15613f21565b5b600182019050919050565b7f4e487b7100000000000000000000000000000000000000000000000000000000600052601160045260246000fd5b7f4e487b7100000000000000000000000000000000000000000000000000000000600052601260045260246000fd5b7f4e487b7100000000000000000000000000000000000000000000000000000000600052602260045260246000fd5b6000601f19601f8301169050919050565b7f45524332303a206275726e20616d6f756e7420657863656564732062616c616e60008201527f6365000000000000000000000000000000000000000000000000000000000000602082015250565b7f4f776e61626c653a206e6577206f776e657220697320746865207a65726f206160008201527f6464726573730000000000000000000000000000000000000000000000000000602082015250565b7f45524332303a20617070726f766520746f20746865207a65726f20616464726560008201527f7373000000000000000000000000000000000000000000000000000000000000602082015250565b7f4469766964656e645f547261636b65723a20776974686472617744697669646560008201527f6e642064697361626c65642e20557365207468652027636c61696d272066756e60208201527f6374696f6e206f6e20746865206d61696e2042414259544f4b454e20636f6e7460408201527f726163742e000000000000000000000000000000000000000000000000000000606082015250565b7f496e697469616c697a61626c653a20636f6e747261637420697320616c72656160008201527f647920696e697469616c697a6564000000000000000000000000000000000000602082015250565b7f4469766964656e645f547261636b65723a20636c61696d57616974206d75737460008201527f206265207570646174656420746f206265747765656e203120616e642032342060208201527f686f757273000000000000000000000000000000000000000000000000000000604082015250565b7f45524332303a207472616e7366657220616d6f756e742065786365656473206160008201527f6c6c6f77616e6365000000000000000000000000000000000000000000000000602082015250565b7f4f776e61626c653a2063616c6c6572206973206e6f7420746865206f776e6572600082015250565b7f4469766964656e645f547261636b65723a204e6f207472616e7366657273206160008201527f6c6c6f7765640000000000000000000000000000000000000000000000000000602082015250565b7f45524332303a206275726e2066726f6d20746865207a65726f2061646472657360008201527f7300000000000000000000000000000000000000000000000000000000000000602082015250565b7f45524332303a20617070726f76652066726f6d20746865207a65726f2061646460008201527f7265737300000000000000000000000000000000000000000000000000000000602082015250565b7f4469766964656e645f547261636b65723a2043616e6e6f74207570646174652060008201527f636c61696d5761697420746f2073616d652076616c7565000000000000000000602082015250565b7f45524332303a2064656372656173656420616c6c6f77616e63652062656c6f7760008201527f207a65726f000000000000000000000000000000000000000000000000000000602082015250565b7f45524332303a206d696e7420746f20746865207a65726f206164647265737300600082015250565b61444081613dcc565b811461444b57600080fd5b50565b61445781613dde565b811461446257600080fd5b50565b61446e81613df0565b811461447957600080fd5b50565b61448581613dfc565b811461449057600080fd5b50565b61449c81613e26565b81146144a757600080fd5b5056fea2646970667358221220dcaba0d893a339d51fc72a2b392796e70e72f1d10069c88013b608369d6c2b5a64736f6c63430008040033",
			"opcodes": "PUSH1 0x80 PUSH1 0x40 MSTORE CALLVALUE DUP1 ISZERO PUSH2 0x10 JUMPI PUSH1 0x0 DUP1 REVERT JUMPDEST POP PUSH2 0x44E0 DUP1 PUSH2 0x20 PUSH1 0x0 CODECOPY PUSH1 0x0 RETURN INVALID PUSH1 0x80 PUSH1 0x40 MSTORE CALLVALUE DUP1 ISZERO PUSH2 0x10 JUMPI PUSH1 0x0 DUP1 REVERT JUMPDEST POP PUSH1 0x4 CALLDATASIZE LT PUSH2 0x23D JUMPI PUSH1 0x0 CALLDATALOAD PUSH1 0xE0 SHR DUP1 PUSH4 0x8DA5CB5B GT PUSH2 0x13B JUMPI DUP1 PUSH4 0xC705C569 GT PUSH2 0xB8 JUMPI DUP1 PUSH4 0xE98030C7 GT PUSH2 0x7C JUMPI DUP1 PUSH4 0xE98030C7 EQ PUSH2 0x733 JUMPI DUP1 PUSH4 0xF2FDE38B EQ PUSH2 0x74F JUMPI DUP1 PUSH4 0xF7C618C1 EQ PUSH2 0x76B JUMPI DUP1 PUSH4 0xFBCBC0F1 EQ PUSH2 0x789 JUMPI DUP1 PUSH4 0xFFB2C479 EQ PUSH2 0x7C0 JUMPI PUSH2 0x23D JUMP JUMPDEST DUP1 PUSH4 0xC705C569 EQ PUSH2 0x67D JUMPI DUP1 PUSH4 0xCD6DC687 EQ PUSH2 0x6AD JUMPI DUP1 PUSH4 0xDD62ED3E EQ PUSH2 0x6C9 JUMPI DUP1 PUSH4 0xE30443BC EQ PUSH2 0x6F9 JUMPI DUP1 PUSH4 0xE7841EC0 EQ PUSH2 0x715 JUMPI PUSH2 0x23D JUMP JUMPDEST DUP1 PUSH4 0xA9059CBB GT PUSH2 0xFF JUMPI DUP1 PUSH4 0xA9059CBB EQ PUSH2 0x5B3 JUMPI DUP1 PUSH4 0xAAFD847A EQ PUSH2 0x5E3 JUMPI DUP1 PUSH4 0xBA72A955 EQ PUSH2 0x613 JUMPI DUP1 PUSH4 0xBC4C4B37 EQ PUSH2 0x62F JUMPI DUP1 PUSH4 0xBE10B614 EQ PUSH2 0x65F JUMPI PUSH2 0x23D JUMP JUMPDEST DUP1 PUSH4 0x8DA5CB5B EQ PUSH2 0x4E7 JUMPI DUP1 PUSH4 0x91B89FBA EQ PUSH2 0x505 JUMPI DUP1 PUSH4 0x95D89B41 EQ PUSH2 0x535 JUMPI DUP1 PUSH4 0xA457C2D7 EQ PUSH2 0x553 JUMPI DUP1 PUSH4 0xA8B9D240 EQ PUSH2 0x583 JUMPI PUSH2 0x23D JUMP JUMPDEST DUP1 PUSH4 0x313CE567 GT PUSH2 0x1C9 JUMPI DUP1 PUSH4 0x6A474002 GT PUSH2 0x18D JUMPI DUP1 PUSH4 0x6A474002 EQ PUSH2 0x467 JUMPI DUP1 PUSH4 0x6F2789EC EQ PUSH2 0x471 JUMPI DUP1 PUSH4 0x70A08231 EQ PUSH2 0x48F JUMPI DUP1 PUSH4 0x715018A6 EQ PUSH2 0x4BF JUMPI DUP1 PUSH4 0x85A6B3AE EQ PUSH2 0x4C9 JUMPI PUSH2 0x23D JUMP JUMPDEST DUP1 PUSH4 0x313CE567 EQ PUSH2 0x396 JUMPI DUP1 PUSH4 0x31E79DB0 EQ PUSH2 0x3B4 JUMPI DUP1 PUSH4 0x39509351 EQ PUSH2 0x3D0 JUMPI DUP1 PUSH4 0x4E7B827F EQ PUSH2 0x400 JUMPI DUP1 PUSH4 0x5183D6FD EQ PUSH2 0x430 JUMPI PUSH2 0x23D JUMP JUMPDEST DUP1 PUSH4 0x18160DDD GT PUSH2 0x210 JUMPI DUP1 PUSH4 0x18160DDD EQ PUSH2 0x2CA JUMPI DUP1 PUSH4 0x226CFA3D EQ PUSH2 0x2E8 JUMPI DUP1 PUSH4 0x23B872DD EQ PUSH2 0x318 JUMPI DUP1 PUSH4 0x27CE0147 EQ PUSH2 0x348 JUMPI DUP1 PUSH4 0x3009A609 EQ PUSH2 0x378 JUMPI PUSH2 0x23D JUMP JUMPDEST DUP1 PUSH4 0x6FDDE03 EQ PUSH2 0x242 JUMPI DUP1 PUSH4 0x95EA7B3 EQ PUSH2 0x260 JUMPI DUP1 PUSH4 0x9BBEDDE EQ PUSH2 0x290 JUMPI DUP1 PUSH4 0xDCB2E89 EQ PUSH2 0x2AE JUMPI JUMPDEST PUSH1 0x0 DUP1 REVERT JUMPDEST PUSH2 0x24A PUSH2 0x7F2 JUMP JUMPDEST PUSH1 0x40 MLOAD PUSH2 0x257 SWAP2 SWAP1 PUSH2 0x3857 JUMP JUMPDEST PUSH1 0x40 MLOAD DUP1 SWAP2 SUB SWAP1 RETURN JUMPDEST PUSH2 0x27A PUSH1 0x4 DUP1 CALLDATASIZE SUB DUP2 ADD SWAP1 PUSH2 0x275 SWAP2 SWAP1 PUSH2 0x33E9 JUMP JUMPDEST PUSH2 0x884 JUMP JUMPDEST PUSH1 0x40 MLOAD PUSH2 0x287 SWAP2 SWAP1 PUSH2 0x383C JUMP JUMPDEST PUSH1 0x40 MLOAD DUP1 SWAP2 SUB SWAP1 RETURN JUMPDEST PUSH2 0x298 PUSH2 0x8A2 JUMP JUMPDEST PUSH1 0x40 MLOAD PUSH2 0x2A5 SWAP2 SWAP1 PUSH2 0x3B06 JUMP JUMPDEST PUSH1 0x40 MLOAD DUP1 SWAP2 SUB SWAP1 RETURN JUMPDEST PUSH2 0x2C8 PUSH1 0x4 DUP1 CALLDATASIZE SUB DUP2 ADD SWAP1 PUSH2 0x2C3 SWAP2 SWAP1 PUSH2 0x3477 JUMP JUMPDEST PUSH2 0x8B2 JUMP JUMPDEST STOP JUMPDEST PUSH2 0x2D2 PUSH2 0x938 JUMP JUMPDEST PUSH1 0x40 MLOAD PUSH2 0x2DF SWAP2 SWAP1 PUSH2 0x3B06 JUMP JUMPDEST PUSH1 0x40 MLOAD DUP1 SWAP2 SUB SWAP1 RETURN JUMPDEST PUSH2 0x302 PUSH1 0x4 DUP1 CALLDATASIZE SUB DUP2 ADD SWAP1 PUSH2 0x2FD SWAP2 SWAP1 PUSH2 0x3294 JUMP JUMPDEST PUSH2 0x942 JUMP JUMPDEST PUSH1 0x40 MLOAD PUSH2 0x30F SWAP2 SWAP1 PUSH2 0x3B06 JUMP JUMPDEST PUSH1 0x40 MLOAD DUP1 SWAP2 SUB SWAP1 RETURN JUMPDEST PUSH2 0x332 PUSH1 0x4 DUP1 CALLDATASIZE SUB DUP2 ADD SWAP1 PUSH2 0x32D SWAP2 SWAP1 PUSH2 0x339A JUMP JUMPDEST PUSH2 0x95A JUMP JUMPDEST PUSH1 0x40 MLOAD PUSH2 0x33F SWAP2 SWAP1 PUSH2 0x383C JUMP JUMPDEST PUSH1 0x40 MLOAD DUP1 SWAP2 SUB SWAP1 RETURN JUMPDEST PUSH2 0x362 PUSH1 0x4 DUP1 CALLDATASIZE SUB DUP2 ADD SWAP1 PUSH2 0x35D SWAP2 SWAP1 PUSH2 0x3294 JUMP JUMPDEST PUSH2 0xA52 JUMP JUMPDEST PUSH1 0x40 MLOAD PUSH2 0x36F SWAP2 SWAP1 PUSH2 0x3B06 JUMP JUMPDEST PUSH1 0x40 MLOAD DUP1 SWAP2 SUB SWAP1 RETURN JUMPDEST PUSH2 0x380 PUSH2 0xAF5 JUMP JUMPDEST PUSH1 0x40 MLOAD PUSH2 0x38D SWAP2 SWAP1 PUSH2 0x3B06 JUMP JUMPDEST PUSH1 0x40 MLOAD DUP1 SWAP2 SUB SWAP1 RETURN JUMPDEST PUSH2 0x39E PUSH2 0xAFB JUMP JUMPDEST PUSH1 0x40 MLOAD PUSH2 0x3AB SWAP2 SWAP1 PUSH2 0x3B58 JUMP JUMPDEST PUSH1 0x40 MLOAD DUP1 SWAP2 SUB SWAP1 RETURN JUMPDEST PUSH2 0x3CE PUSH1 0x4 DUP1 CALLDATASIZE SUB DUP2 ADD SWAP1 PUSH2 0x3C9 SWAP2 SWAP1 PUSH2 0x3294 JUMP JUMPDEST PUSH2 0xB04 JUMP JUMPDEST STOP JUMPDEST PUSH2 0x3EA PUSH1 0x4 DUP1 CALLDATASIZE SUB DUP2 ADD SWAP1 PUSH2 0x3E5 SWAP2 SWAP1 PUSH2 0x33E9 JUMP JUMPDEST PUSH2 0xCEC JUMP JUMPDEST PUSH1 0x40 MLOAD PUSH2 0x3F7 SWAP2 SWAP1 PUSH2 0x383C JUMP JUMPDEST PUSH1 0x40 MLOAD DUP1 SWAP2 SUB SWAP1 RETURN JUMPDEST PUSH2 0x41A PUSH1 0x4 DUP1 CALLDATASIZE SUB DUP2 ADD SWAP1 PUSH2 0x415 SWAP2 SWAP1 PUSH2 0x3294 JUMP JUMPDEST PUSH2 0xD98 JUMP JUMPDEST PUSH1 0x40 MLOAD PUSH2 0x427 SWAP2 SWAP1 PUSH2 0x383C JUMP JUMPDEST PUSH1 0x40 MLOAD DUP1 SWAP2 SUB SWAP1 RETURN JUMPDEST PUSH2 0x44A PUSH1 0x4 DUP1 CALLDATASIZE SUB DUP2 ADD SWAP1 PUSH2 0x445 SWAP2 SWAP1 PUSH2 0x3477 JUMP JUMPDEST PUSH2 0xDB8 JUMP JUMPDEST PUSH1 0x40 MLOAD PUSH2 0x45E SWAP9 SWAP8 SWAP7 SWAP6 SWAP5 SWAP4 SWAP3 SWAP2 SWAP1 PUSH2 0x37BE JUMP JUMPDEST PUSH1 0x40 MLOAD DUP1 SWAP2 SUB SWAP1 RETURN JUMPDEST PUSH2 0x46F PUSH2 0xF4B JUMP JUMPDEST STOP JUMPDEST PUSH2 0x479 PUSH2 0xF8E JUMP JUMPDEST PUSH1 0x40 MLOAD PUSH2 0x486 SWAP2 SWAP1 PUSH2 0x3B06 JUMP JUMPDEST PUSH1 0x40 MLOAD DUP1 SWAP2 SUB SWAP1 RETURN JUMPDEST PUSH2 0x4A9 PUSH1 0x4 DUP1 CALLDATASIZE SUB DUP2 ADD SWAP1 PUSH2 0x4A4 SWAP2 SWAP1 PUSH2 0x3294 JUMP JUMPDEST PUSH2 0xF94 JUMP JUMPDEST PUSH1 0x40 MLOAD PUSH2 0x4B6 SWAP2 SWAP1 PUSH2 0x3B06 JUMP JUMPDEST PUSH1 0x40 MLOAD DUP1 SWAP2 SUB SWAP1 RETURN JUMPDEST PUSH2 0x4C7 PUSH2 0xFDD JUMP JUMPDEST STOP JUMPDEST PUSH2 0x4D1 PUSH2 0x1065 JUMP JUMPDEST PUSH1 0x40 MLOAD PUSH2 0x4DE SWAP2 SWAP1 PUSH2 0x3B06 JUMP JUMPDEST PUSH1 0x40 MLOAD DUP1 SWAP2 SUB SWAP1 RETURN JUMPDEST PUSH2 0x4EF PUSH2 0x106B JUMP JUMPDEST PUSH1 0x40 MLOAD PUSH2 0x4FC SWAP2 SWAP1 PUSH2 0x377A JUMP JUMPDEST PUSH1 0x40 MLOAD DUP1 SWAP2 SUB SWAP1 RETURN JUMPDEST PUSH2 0x51F PUSH1 0x4 DUP1 CALLDATASIZE SUB DUP2 ADD SWAP1 PUSH2 0x51A SWAP2 SWAP1 PUSH2 0x3294 JUMP JUMPDEST PUSH2 0x1095 JUMP JUMPDEST PUSH1 0x40 MLOAD PUSH2 0x52C SWAP2 SWAP1 PUSH2 0x3B06 JUMP JUMPDEST PUSH1 0x40 MLOAD DUP1 SWAP2 SUB SWAP1 RETURN JUMPDEST PUSH2 0x53D PUSH2 0x10A7 JUMP JUMPDEST PUSH1 0x40 MLOAD PUSH2 0x54A SWAP2 SWAP1 PUSH2 0x3857 JUMP JUMPDEST PUSH1 0x40 MLOAD DUP1 SWAP2 SUB SWAP1 RETURN JUMPDEST PUSH2 0x56D PUSH1 0x4 DUP1 CALLDATASIZE SUB DUP2 ADD SWAP1 PUSH2 0x568 SWAP2 SWAP1 PUSH2 0x33E9 JUMP JUMPDEST PUSH2 0x1139 JUMP JUMPDEST PUSH1 0x40 MLOAD PUSH2 0x57A SWAP2 SWAP1 PUSH2 0x383C JUMP JUMPDEST PUSH1 0x40 MLOAD DUP1 SWAP2 SUB SWAP1 RETURN JUMPDEST PUSH2 0x59D PUSH1 0x4 DUP1 CALLDATASIZE SUB DUP2 ADD SWAP1 PUSH2 0x598 SWAP2 SWAP1 PUSH2 0x3294 JUMP JUMPDEST PUSH2 0x1224 JUMP JUMPDEST PUSH1 0x40 MLOAD PUSH2 0x5AA SWAP2 SWAP1 PUSH2 0x3B06 JUMP JUMPDEST PUSH1 0x40 MLOAD DUP1 SWAP2 SUB SWAP1 RETURN JUMPDEST PUSH2 0x5CD PUSH1 0x4 DUP1 CALLDATASIZE SUB DUP2 ADD SWAP1 PUSH2 0x5C8 SWAP2 SWAP1 PUSH2 0x33E9 JUMP JUMPDEST PUSH2 0x1287 JUMP JUMPDEST PUSH1 0x40 MLOAD PUSH2 0x5DA SWAP2 SWAP1 PUSH2 0x383C JUMP JUMPDEST PUSH1 0x40 MLOAD DUP1 SWAP2 SUB SWAP1 RETURN JUMPDEST PUSH2 0x5FD PUSH1 0x4 DUP1 CALLDATASIZE SUB DUP2 ADD SWAP1 PUSH2 0x5F8 SWAP2 SWAP1 PUSH2 0x3294 JUMP JUMPDEST PUSH2 0x12A5 JUMP JUMPDEST PUSH1 0x40 MLOAD PUSH2 0x60A SWAP2 SWAP1 PUSH2 0x3B06 JUMP JUMPDEST PUSH1 0x40 MLOAD DUP1 SWAP2 SUB SWAP1 RETURN JUMPDEST PUSH2 0x62D PUSH1 0x4 DUP1 CALLDATASIZE SUB DUP2 ADD SWAP1 PUSH2 0x628 SWAP2 SWAP1 PUSH2 0x3477 JUMP JUMPDEST PUSH2 0x12EE JUMP JUMPDEST STOP JUMPDEST PUSH2 0x649 PUSH1 0x4 DUP1 CALLDATASIZE SUB DUP2 ADD SWAP1 PUSH2 0x644 SWAP2 SWAP1 PUSH2 0x32E6 JUMP JUMPDEST PUSH2 0x1444 JUMP JUMPDEST PUSH1 0x40 MLOAD PUSH2 0x656 SWAP2 SWAP1 PUSH2 0x383C JUMP JUMPDEST PUSH1 0x40 MLOAD DUP1 SWAP2 SUB SWAP1 RETURN JUMPDEST PUSH2 0x667 PUSH2 0x1583 JUMP JUMPDEST PUSH1 0x40 MLOAD PUSH2 0x674 SWAP2 SWAP1 PUSH2 0x3B06 JUMP JUMPDEST PUSH1 0x40 MLOAD DUP1 SWAP2 SUB SWAP1 RETURN JUMPDEST PUSH2 0x697 PUSH1 0x4 DUP1 CALLDATASIZE SUB DUP2 ADD SWAP1 PUSH2 0x692 SWAP2 SWAP1 PUSH2 0x3294 JUMP JUMPDEST PUSH2 0x1589 JUMP JUMPDEST PUSH1 0x40 MLOAD PUSH2 0x6A4 SWAP2 SWAP1 PUSH2 0x383C JUMP JUMPDEST PUSH1 0x40 MLOAD DUP1 SWAP2 SUB SWAP1 RETURN JUMPDEST PUSH2 0x6C7 PUSH1 0x4 DUP1 CALLDATASIZE SUB DUP2 ADD SWAP1 PUSH2 0x6C2 SWAP2 SWAP1 PUSH2 0x33E9 JUMP JUMPDEST PUSH2 0x15DF JUMP JUMPDEST STOP JUMPDEST PUSH2 0x6E3 PUSH1 0x4 DUP1 CALLDATASIZE SUB DUP2 ADD SWAP1 PUSH2 0x6DE SWAP2 SWAP1 PUSH2 0x335E JUMP JUMPDEST PUSH2 0x173F JUMP JUMPDEST PUSH1 0x40 MLOAD PUSH2 0x6F0 SWAP2 SWAP1 PUSH2 0x3B06 JUMP JUMPDEST PUSH1 0x40 MLOAD DUP1 SWAP2 SUB SWAP1 RETURN JUMPDEST PUSH2 0x713 PUSH1 0x4 DUP1 CALLDATASIZE SUB DUP2 ADD SWAP1 PUSH2 0x70E SWAP2 SWAP1 PUSH2 0x3322 JUMP JUMPDEST PUSH2 0x17C6 JUMP JUMPDEST STOP JUMPDEST PUSH2 0x71D PUSH2 0x19A8 JUMP JUMPDEST PUSH1 0x40 MLOAD PUSH2 0x72A SWAP2 SWAP1 PUSH2 0x3B06 JUMP JUMPDEST PUSH1 0x40 MLOAD DUP1 SWAP2 SUB SWAP1 RETURN JUMPDEST PUSH2 0x74D PUSH1 0x4 DUP1 CALLDATASIZE SUB DUP2 ADD SWAP1 PUSH2 0x748 SWAP2 SWAP1 PUSH2 0x3477 JUMP JUMPDEST PUSH2 0x19B2 JUMP JUMPDEST STOP JUMPDEST PUSH2 0x769 PUSH1 0x4 DUP1 CALLDATASIZE SUB DUP2 ADD SWAP1 PUSH2 0x764 SWAP2 SWAP1 PUSH2 0x3294 JUMP JUMPDEST PUSH2 0x1B01 JUMP JUMPDEST STOP JUMPDEST PUSH2 0x773 PUSH2 0x1BF9 JUMP JUMPDEST PUSH1 0x40 MLOAD PUSH2 0x780 SWAP2 SWAP1 PUSH2 0x377A JUMP JUMPDEST PUSH1 0x40 MLOAD DUP1 SWAP2 SUB SWAP1 RETURN JUMPDEST PUSH2 0x7A3 PUSH1 0x4 DUP1 CALLDATASIZE SUB DUP2 ADD SWAP1 PUSH2 0x79E SWAP2 SWAP1 PUSH2 0x3294 JUMP JUMPDEST PUSH2 0x1C1F JUMP JUMPDEST PUSH1 0x40 MLOAD PUSH2 0x7B7 SWAP9 SWAP8 SWAP7 SWAP6 SWAP5 SWAP4 SWAP3 SWAP2 SWAP1 PUSH2 0x37BE JUMP JUMPDEST PUSH1 0x40 MLOAD DUP1 SWAP2 SUB SWAP1 RETURN JUMPDEST PUSH2 0x7DA PUSH1 0x4 DUP1 CALLDATASIZE SUB DUP2 ADD SWAP1 PUSH2 0x7D5 SWAP2 SWAP1 PUSH2 0x3477 JUMP JUMPDEST PUSH2 0x1E0D JUMP JUMPDEST PUSH1 0x40 MLOAD PUSH2 0x7E9 SWAP4 SWAP3 SWAP2 SWAP1 PUSH2 0x3B21 JUMP JUMPDEST PUSH1 0x40 MLOAD DUP1 SWAP2 SUB SWAP1 RETURN JUMPDEST PUSH1 0x60 PUSH1 0x36 DUP1 SLOAD PUSH2 0x801 SWAP1 PUSH2 0x3EA6 JUMP JUMPDEST DUP1 PUSH1 0x1F ADD PUSH1 0x20 DUP1 SWAP2 DIV MUL PUSH1 0x20 ADD PUSH1 0x40 MLOAD SWAP1 DUP2 ADD PUSH1 0x40 MSTORE DUP1 SWAP3 SWAP2 SWAP1 DUP2 DUP2 MSTORE PUSH1 0x20 ADD DUP3 DUP1 SLOAD PUSH2 0x82D SWAP1 PUSH2 0x3EA6 JUMP JUMPDEST DUP1 ISZERO PUSH2 0x87A JUMPI DUP1 PUSH1 0x1F LT PUSH2 0x84F JUMPI PUSH2 0x100 DUP1 DUP4 SLOAD DIV MUL DUP4 MSTORE SWAP2 PUSH1 0x20 ADD SWAP2 PUSH2 0x87A JUMP JUMPDEST DUP3 ADD SWAP2 SWAP1 PUSH1 0x0 MSTORE PUSH1 0x20 PUSH1 0x0 KECCAK256 SWAP1 JUMPDEST DUP2 SLOAD DUP2 MSTORE SWAP1 PUSH1 0x1 ADD SWAP1 PUSH1 0x20 ADD DUP1 DUP4 GT PUSH2 0x85D JUMPI DUP3 SWAP1 SUB PUSH1 0x1F AND DUP3 ADD SWAP2 JUMPDEST POP POP POP POP POP SWAP1 POP SWAP1 JUMP JUMPDEST PUSH1 0x0 PUSH2 0x898 PUSH2 0x891 PUSH2 0x1FC5 JUMP JUMPDEST DUP5 DUP5 PUSH2 0x1FCD JUMP JUMPDEST PUSH1 0x1 SWAP1 POP SWAP3 SWAP2 POP POP JUMP JUMPDEST PUSH1 0x0 PUSH1 0x9C PUSH1 0x0 ADD DUP1 SLOAD SWAP1 POP SWAP1 POP SWAP1 JUMP JUMPDEST PUSH2 0x8BA PUSH2 0x1FC5 JUMP JUMPDEST PUSH20 0xFFFFFFFFFFFFFFFFFFFFFFFFFFFFFFFFFFFFFFFF AND PUSH2 0x8D8 PUSH2 0x106B JUMP JUMPDEST PUSH20 0xFFFFFFFFFFFFFFFFFFFFFFFFFFFFFFFFFFFFFFFF AND EQ PUSH2 0x92E JUMPI PUSH1 0x40 MLOAD PUSH32 0x8C379A000000000000000000000000000000000000000000000000000000000 DUP2 MSTORE PUSH1 0x4 ADD PUSH2 0x925 SWAP1 PUSH2 0x3959 JUMP JUMPDEST PUSH1 0x40 MLOAD DUP1 SWAP2 SUB SWAP1 REVERT JUMPDEST DUP1 PUSH1 0xA4 DUP2 SWAP1 SSTORE POP POP JUMP JUMPDEST PUSH1 0x0 PUSH1 0x35 SLOAD SWAP1 POP SWAP1 JUMP JUMPDEST PUSH1 0xA2 PUSH1 0x20 MSTORE DUP1 PUSH1 0x0 MSTORE PUSH1 0x40 PUSH1 0x0 KECCAK256 PUSH1 0x0 SWAP2 POP SWAP1 POP SLOAD DUP2 JUMP JUMPDEST PUSH1 0x0 PUSH2 0x967 DUP5 DUP5 DUP5 PUSH2 0x2198 JUMP JUMPDEST PUSH1 0x0 PUSH1 0x34 PUSH1 0x0 DUP7 PUSH20 0xFFFFFFFFFFFFFFFFFFFFFFFFFFFFFFFFFFFFFFFF AND PUSH20 0xFFFFFFFFFFFFFFFFFFFFFFFFFFFFFFFFFFFFFFFF AND DUP2 MSTORE PUSH1 0x20 ADD SWAP1 DUP2 MSTORE PUSH1 0x20 ADD PUSH1 0x0 KECCAK256 PUSH1 0x0 PUSH2 0x9B2 PUSH2 0x1FC5 JUMP JUMPDEST PUSH20 0xFFFFFFFFFFFFFFFFFFFFFFFFFFFFFFFFFFFFFFFF AND PUSH20 0xFFFFFFFFFFFFFFFFFFFFFFFFFFFFFFFFFFFFFFFF AND DUP2 MSTORE PUSH1 0x20 ADD SWAP1 DUP2 MSTORE PUSH1 0x20 ADD PUSH1 0x0 KECCAK256 SLOAD SWAP1 POP DUP3 DUP2 LT ISZERO PUSH2 0xA32 JUMPI PUSH1 0x40 MLOAD PUSH32 0x8C379A000000000000000000000000000000000000000000000000000000000 DUP2 MSTORE PUSH1 0x4 ADD PUSH2 0xA29 SWAP1 PUSH2 0x3939 JUMP JUMPDEST PUSH1 0x40 MLOAD DUP1 SWAP2 SUB SWAP1 REVERT JUMPDEST PUSH2 0xA46 DUP6 PUSH2 0xA3E PUSH2 0x1FC5 JUMP JUMPDEST DUP6 DUP5 SUB PUSH2 0x1FCD JUMP JUMPDEST PUSH1 0x1 SWAP2 POP POP SWAP4 SWAP3 POP POP POP JUMP JUMPDEST PUSH1 0x0 PUSH17 0x100000000000000000000000000000000 PUSH2 0xAE4 PUSH2 0xADF PUSH1 0x99 PUSH1 0x0 DUP7 PUSH20 0xFFFFFFFFFFFFFFFFFFFFFFFFFFFFFFFFFFFFFFFF AND PUSH20 0xFFFFFFFFFFFFFFFFFFFFFFFFFFFFFFFFFFFFFFFF AND DUP2 MSTORE PUSH1 0x20 ADD SWAP1 DUP2 MSTORE PUSH1 0x20 ADD PUSH1 0x0 KECCAK256 SLOAD PUSH2 0xAD1 PUSH2 0xACC PUSH2 0xABB DUP9 PUSH2 0xF94 JUMP JUMPDEST PUSH1 0x98 SLOAD PUSH2 0x21DE SWAP1 SWAP2 SWAP1 PUSH4 0xFFFFFFFF AND JUMP JUMPDEST PUSH2 0x21F4 JUMP JUMPDEST PUSH2 0x2211 SWAP1 SWAP2 SWAP1 PUSH4 0xFFFFFFFF AND JUMP JUMPDEST PUSH2 0x225C JUMP JUMPDEST PUSH2 0xAEE SWAP2 SWAP1 PUSH2 0x3C79 JUMP JUMPDEST SWAP1 POP SWAP2 SWAP1 POP JUMP JUMPDEST PUSH1 0xA0 SLOAD DUP2 JUMP JUMPDEST PUSH1 0x0 PUSH1 0x12 SWAP1 POP SWAP1 JUMP JUMPDEST PUSH2 0xB0C PUSH2 0x1FC5 JUMP JUMPDEST PUSH20 0xFFFFFFFFFFFFFFFFFFFFFFFFFFFFFFFFFFFFFFFF AND PUSH2 0xB2A PUSH2 0x106B JUMP JUMPDEST PUSH20 0xFFFFFFFFFFFFFFFFFFFFFFFFFFFFFFFFFFFFFFFF AND EQ PUSH2 0xB80 JUMPI PUSH1 0x40 MLOAD PUSH32 0x8C379A000000000000000000000000000000000000000000000000000000000 DUP2 MSTORE PUSH1 0x4 ADD PUSH2 0xB77 SWAP1 PUSH2 0x3959 JUMP JUMPDEST PUSH1 0x40 MLOAD DUP1 SWAP2 SUB SWAP1 REVERT JUMPDEST PUSH1 0xA1 PUSH1 0x0 DUP3 PUSH20 0xFFFFFFFFFFFFFFFFFFFFFFFFFFFFFFFFFFFFFFFF AND PUSH20 0xFFFFFFFFFFFFFFFFFFFFFFFFFFFFFFFFFFFFFFFF AND DUP2 MSTORE PUSH1 0x20 ADD SWAP1 DUP2 MSTORE PUSH1 0x20 ADD PUSH1 0x0 KECCAK256 PUSH1 0x0 SWAP1 SLOAD SWAP1 PUSH2 0x100 EXP SWAP1 DIV PUSH1 0xFF AND ISZERO PUSH2 0xBD7 JUMPI PUSH1 0x0 DUP1 REVERT JUMPDEST PUSH1 0x1 PUSH1 0xA1 PUSH1 0x0 DUP4 PUSH20 0xFFFFFFFFFFFFFFFFFFFFFFFFFFFFFFFFFFFFFFFF AND PUSH20 0xFFFFFFFFFFFFFFFFFFFFFFFFFFFFFFFFFFFFFFFF AND DUP2 MSTORE PUSH1 0x20 ADD SWAP1 DUP2 MSTORE PUSH1 0x20 ADD PUSH1 0x0 KECCAK256 PUSH1 0x0 PUSH2 0x100 EXP DUP2 SLOAD DUP2 PUSH1 0xFF MUL NOT AND SWAP1 DUP4 ISZERO ISZERO MUL OR SWAP1 SSTORE POP PUSH2 0xC3A DUP2 PUSH1 0x0 PUSH2 0x2273 JUMP JUMPDEST PUSH1 0x9C PUSH20 0x0 PUSH4 0x4C60DB9C SWAP1 SWAP2 DUP4 PUSH1 0x40 MLOAD DUP4 PUSH4 0xFFFFFFFF AND PUSH1 0xE0 SHL DUP2 MSTORE PUSH1 0x4 ADD PUSH2 0xC76 SWAP3 SWAP2 SWAP1 PUSH2 0x3A54 JUMP JUMPDEST PUSH1 0x0 PUSH1 0x40 MLOAD DUP1 DUP4 SUB DUP2 DUP7 DUP1 EXTCODESIZE ISZERO DUP1 ISZERO PUSH2 0xC8E JUMPI PUSH1 0x0 DUP1 REVERT JUMPDEST POP GAS DELEGATECALL ISZERO DUP1 ISZERO PUSH2 0xCA2 JUMPI RETURNDATASIZE PUSH1 0x0 DUP1 RETURNDATACOPY RETURNDATASIZE PUSH1 0x0 REVERT JUMPDEST POP POP POP POP DUP1 PUSH20 0xFFFFFFFFFFFFFFFFFFFFFFFFFFFFFFFFFFFFFFFF AND PUSH32 0xA878B31040B2E6D0A9A3D3361209DB3908BA62014B0DCA52ADBAEE451D128B25 PUSH1 0x40 MLOAD PUSH1 0x40 MLOAD DUP1 SWAP2 SUB SWAP1 LOG2 POP JUMP JUMPDEST PUSH1 0x0 PUSH2 0xD8E PUSH2 0xCF9 PUSH2 0x1FC5 JUMP JUMPDEST DUP5 DUP5 PUSH1 0x34 PUSH1 0x0 PUSH2 0xD07 PUSH2 0x1FC5 JUMP JUMPDEST PUSH20 0xFFFFFFFFFFFFFFFFFFFFFFFFFFFFFFFFFFFFFFFF AND PUSH20 0xFFFFFFFFFFFFFFFFFFFFFFFFFFFFFFFFFFFFFFFF AND DUP2 MSTORE PUSH1 0x20 ADD SWAP1 DUP2 MSTORE PUSH1 0x20 ADD PUSH1 0x0 KECCAK256 PUSH1 0x0 DUP9 PUSH20 0xFFFFFFFFFFFFFFFFFFFFFFFFFFFFFFFFFFFFFFFF AND PUSH20 0xFFFFFFFFFFFFFFFFFFFFFFFFFFFFFFFFFFFFFFFF AND DUP2 MSTORE PUSH1 0x20 ADD SWAP1 DUP2 MSTORE PUSH1 0x20 ADD PUSH1 0x0 KECCAK256 SLOAD PUSH2 0xD89 SWAP2 SWAP1 PUSH2 0x3C23 JUMP JUMPDEST PUSH2 0x1FCD JUMP JUMPDEST PUSH1 0x1 SWAP1 POP SWAP3 SWAP2 POP POP JUMP JUMPDEST PUSH1 0xA1 PUSH1 0x20 MSTORE DUP1 PUSH1 0x0 MSTORE PUSH1 0x40 PUSH1 0x0 KECCAK256 PUSH1 0x0 SWAP2 POP SLOAD SWAP1 PUSH2 0x100 EXP SWAP1 DIV PUSH1 0xFF AND DUP2 JUMP JUMPDEST PUSH1 0x0 DUP1 PUSH1 0x0 DUP1 PUSH1 0x0 DUP1 PUSH1 0x0 DUP1 PUSH1 0x9C PUSH20 0x0 PUSH4 0xDEB3D896 SWAP1 SWAP2 PUSH1 0x40 MLOAD DUP3 PUSH4 0xFFFFFFFF AND PUSH1 0xE0 SHL DUP2 MSTORE PUSH1 0x4 ADD PUSH2 0xDFE SWAP2 SWAP1 PUSH2 0x3A39 JUMP JUMPDEST PUSH1 0x20 PUSH1 0x40 MLOAD DUP1 DUP4 SUB DUP2 DUP7 DUP1 EXTCODESIZE ISZERO DUP1 ISZERO PUSH2 0xE16 JUMPI PUSH1 0x0 DUP1 REVERT JUMPDEST POP GAS DELEGATECALL ISZERO DUP1 ISZERO PUSH2 0xE2A JUMPI RETURNDATASIZE PUSH1 0x0 DUP1 RETURNDATACOPY RETURNDATASIZE PUSH1 0x0 REVERT JUMPDEST POP POP POP POP PUSH1 0x40 MLOAD RETURNDATASIZE PUSH1 0x1F NOT PUSH1 0x1F DUP3 ADD AND DUP3 ADD DUP1 PUSH1 0x40 MSTORE POP DUP2 ADD SWAP1 PUSH2 0xE4E SWAP2 SWAP1 PUSH2 0x34A0 JUMP JUMPDEST DUP10 LT PUSH2 0xE95 JUMPI PUSH1 0x0 PUSH32 0xFFFFFFFFFFFFFFFFFFFFFFFFFFFFFFFFFFFFFFFFFFFFFFFFFFFFFFFFFFFFFFFF DUP1 PUSH1 0x0 DUP1 PUSH1 0x0 DUP1 PUSH1 0x0 SWAP8 POP SWAP8 POP SWAP8 POP SWAP8 POP SWAP8 POP SWAP8 POP SWAP8 POP SWAP8 POP PUSH2 0xF40 JUMP JUMPDEST PUSH1 0x0 PUSH1 0x9C PUSH20 0x0 PUSH4 0xD1AA9E7E SWAP1 SWAP2 DUP13 PUSH1 0x40 MLOAD DUP4 PUSH4 0xFFFFFFFF AND PUSH1 0xE0 SHL DUP2 MSTORE PUSH1 0x4 ADD PUSH2 0xED3 SWAP3 SWAP2 SWAP1 PUSH2 0x3ADD JUMP JUMPDEST PUSH1 0x20 PUSH1 0x40 MLOAD DUP1 DUP4 SUB DUP2 DUP7 DUP1 EXTCODESIZE ISZERO DUP1 ISZERO PUSH2 0xEEB JUMPI PUSH1 0x0 DUP1 REVERT JUMPDEST POP GAS DELEGATECALL ISZERO DUP1 ISZERO PUSH2 0xEFF JUMPI RETURNDATASIZE PUSH1 0x0 DUP1 RETURNDATACOPY RETURNDATASIZE PUSH1 0x0 REVERT JUMPDEST POP POP POP POP PUSH1 0x40 MLOAD RETURNDATASIZE PUSH1 0x1F NOT PUSH1 0x1F DUP3 ADD AND DUP3 ADD DUP1 PUSH1 0x40 MSTORE POP DUP2 ADD SWAP1 PUSH2 0xF23 SWAP2 SWAP1 PUSH2 0x32BD JUMP JUMPDEST SWAP1 POP PUSH2 0xF2E DUP2 PUSH2 0x1C1F JUMP JUMPDEST SWAP9 POP SWAP9 POP SWAP9 POP SWAP9 POP SWAP9 POP SWAP9 POP SWAP9 POP SWAP9 POP POP JUMPDEST SWAP2 SWAP4 SWAP6 SWAP8 POP SWAP2 SWAP4 SWAP6 SWAP8 JUMP JUMPDEST PUSH1 0x0 PUSH2 0xF8C JUMPI PUSH1 0x40 MLOAD PUSH32 0x8C379A000000000000000000000000000000000000000000000000000000000 DUP2 MSTORE PUSH1 0x4 ADD PUSH2 0xF83 SWAP1 PUSH2 0x38D9 JUMP JUMPDEST PUSH1 0x40 MLOAD DUP1 SWAP2 SUB SWAP1 REVERT JUMPDEST JUMP JUMPDEST PUSH1 0xA3 SLOAD DUP2 JUMP JUMPDEST PUSH1 0x0 PUSH1 0x33 PUSH1 0x0 DUP4 PUSH20 0xFFFFFFFFFFFFFFFFFFFFFFFFFFFFFFFFFFFFFFFF AND PUSH20 0xFFFFFFFFFFFFFFFFFFFFFFFFFFFFFFFFFFFFFFFF AND DUP2 MSTORE PUSH1 0x20 ADD SWAP1 DUP2 MSTORE PUSH1 0x20 ADD PUSH1 0x0 KECCAK256 SLOAD SWAP1 POP SWAP2 SWAP1 POP JUMP JUMPDEST PUSH2 0xFE5 PUSH2 0x1FC5 JUMP JUMPDEST PUSH20 0xFFFFFFFFFFFFFFFFFFFFFFFFFFFFFFFFFFFFFFFF AND PUSH2 0x1003 PUSH2 0x106B JUMP JUMPDEST PUSH20 0xFFFFFFFFFFFFFFFFFFFFFFFFFFFFFFFFFFFFFFFF AND EQ PUSH2 0x1059 JUMPI PUSH1 0x40 MLOAD PUSH32 0x8C379A000000000000000000000000000000000000000000000000000000000 DUP2 MSTORE PUSH1 0x4 ADD PUSH2 0x1050 SWAP1 PUSH2 0x3959 JUMP JUMPDEST PUSH1 0x40 MLOAD DUP1 SWAP2 SUB SWAP1 REVERT JUMPDEST PUSH2 0x1063 PUSH1 0x0 PUSH2 0x22E0 JUMP JUMPDEST JUMP JUMPDEST PUSH1 0x9B SLOAD DUP2 JUMP JUMPDEST PUSH1 0x0 PUSH1 0x65 PUSH1 0x0 SWAP1 SLOAD SWAP1 PUSH2 0x100 EXP SWAP1 DIV PUSH20 0xFFFFFFFFFFFFFFFFFFFFFFFFFFFFFFFFFFFFFFFF AND SWAP1 POP SWAP1 JUMP JUMPDEST PUSH1 0x0 PUSH2 0x10A0 DUP3 PUSH2 0x1224 JUMP JUMPDEST SWAP1 POP SWAP2 SWAP1 POP JUMP JUMPDEST PUSH1 0x60 PUSH1 0x37 DUP1 SLOAD PUSH2 0x10B6 SWAP1 PUSH2 0x3EA6 JUMP JUMPDEST DUP1 PUSH1 0x1F ADD PUSH1 0x20 DUP1 SWAP2 DIV MUL PUSH1 0x20 ADD PUSH1 0x40 MLOAD SWAP1 DUP2 ADD PUSH1 0x40 MSTORE DUP1 SWAP3 SWAP2 SWAP1 DUP2 DUP2 MSTORE PUSH1 0x20 ADD DUP3 DUP1 SLOAD PUSH2 0x10E2 SWAP1 PUSH2 0x3EA6 JUMP JUMPDEST DUP1 ISZERO PUSH2 0x112F JUMPI DUP1 PUSH1 0x1F LT PUSH2 0x1104 JUMPI PUSH2 0x100 DUP1 DUP4 SLOAD DIV MUL DUP4 MSTORE SWAP2 PUSH1 0x20 ADD SWAP2 PUSH2 0x112F JUMP JUMPDEST DUP3 ADD SWAP2 SWAP1 PUSH1 0x0 MSTORE PUSH1 0x20 PUSH1 0x0 KECCAK256 SWAP1 JUMPDEST DUP2 SLOAD DUP2 MSTORE SWAP1 PUSH1 0x1 ADD SWAP1 PUSH1 0x20 ADD DUP1 DUP4 GT PUSH2 0x1112 JUMPI DUP3 SWAP1 SUB PUSH1 0x1F AND DUP3 ADD SWAP2 JUMPDEST POP POP POP POP POP SWAP1 POP SWAP1 JUMP JUMPDEST PUSH1 0x0 DUP1 PUSH1 0x34 PUSH1 0x0 PUSH2 0x1148 PUSH2 0x1FC5 JUMP JUMPDEST PUSH20 0xFFFFFFFFFFFFFFFFFFFFFFFFFFFFFFFFFFFFFFFF AND PUSH20 0xFFFFFFFFFFFFFFFFFFFFFFFFFFFFFFFFFFFFFFFF AND DUP2 MSTORE PUSH1 0x20 ADD SWAP1 DUP2 MSTORE PUSH1 0x20 ADD PUSH1 0x0 KECCAK256 PUSH1 0x0 DUP6 PUSH20 0xFFFFFFFFFFFFFFFFFFFFFFFFFFFFFFFFFFFFFFFF AND PUSH20 0xFFFFFFFFFFFFFFFFFFFFFFFFFFFFFFFFFFFFFFFF AND DUP2 MSTORE PUSH1 0x20 ADD SWAP1 DUP2 MSTORE PUSH1 0x20 ADD PUSH1 0x0 KECCAK256 SLOAD SWAP1 POP DUP3 DUP2 LT ISZERO PUSH2 0x1205 JUMPI PUSH1 0x40 MLOAD PUSH32 0x8C379A000000000000000000000000000000000000000000000000000000000 DUP2 MSTORE PUSH1 0x4 ADD PUSH2 0x11FC SWAP1 PUSH2 0x39F9 JUMP JUMPDEST PUSH1 0x40 MLOAD DUP1 SWAP2 SUB SWAP1 REVERT JUMPDEST PUSH2 0x1219 PUSH2 0x1210 PUSH2 0x1FC5 JUMP JUMPDEST DUP6 DUP6 DUP5 SUB PUSH2 0x1FCD JUMP JUMPDEST PUSH1 0x1 SWAP2 POP POP SWAP3 SWAP2 POP POP JUMP JUMPDEST PUSH1 0x0 PUSH2 0x1280 PUSH1 0x9A PUSH1 0x0 DUP5 PUSH20 0xFFFFFFFFFFFFFFFFFFFFFFFFFFFFFFFFFFFFFFFF AND PUSH20 0xFFFFFFFFFFFFFFFFFFFFFFFFFFFFFFFFFFFFFFFF AND DUP2 MSTORE PUSH1 0x20 ADD SWAP1 DUP2 MSTORE PUSH1 0x20 ADD PUSH1 0x0 KECCAK256 SLOAD PUSH2 0x1272 DUP5 PUSH2 0xA52 JUMP JUMPDEST PUSH2 0x23A6 SWAP1 SWAP2 SWAP1 PUSH4 0xFFFFFFFF AND JUMP JUMPDEST SWAP1 POP SWAP2 SWAP1 POP JUMP JUMPDEST PUSH1 0x0 PUSH2 0x129B PUSH2 0x1294 PUSH2 0x1FC5 JUMP JUMPDEST DUP5 DUP5 PUSH2 0x2198 JUMP JUMPDEST PUSH1 0x1 SWAP1 POP SWAP3 SWAP2 POP POP JUMP JUMPDEST PUSH1 0x0 PUSH1 0x9A PUSH1 0x0 DUP4 PUSH20 0xFFFFFFFFFFFFFFFFFFFFFFFFFFFFFFFFFFFFFFFF AND PUSH20 0xFFFFFFFFFFFFFFFFFFFFFFFFFFFFFFFFFFFFFFFF AND DUP2 MSTORE PUSH1 0x20 ADD SWAP1 DUP2 MSTORE PUSH1 0x20 ADD PUSH1 0x0 KECCAK256 SLOAD SWAP1 POP SWAP2 SWAP1 POP JUMP JUMPDEST PUSH2 0x12F6 PUSH2 0x1FC5 JUMP JUMPDEST PUSH20 0xFFFFFFFFFFFFFFFFFFFFFFFFFFFFFFFFFFFFFFFF AND PUSH2 0x1314 PUSH2 0x106B JUMP JUMPDEST PUSH20 0xFFFFFFFFFFFFFFFFFFFFFFFFFFFFFFFFFFFFFFFF AND EQ PUSH2 0x136A JUMPI PUSH1 0x40 MLOAD PUSH32 0x8C379A000000000000000000000000000000000000000000000000000000000 DUP2 MSTORE PUSH1 0x4 ADD PUSH2 0x1361 SWAP1 PUSH2 0x3959 JUMP JUMPDEST PUSH1 0x40 MLOAD DUP1 SWAP2 SUB SWAP1 REVERT JUMPDEST PUSH1 0x0 PUSH2 0x1374 PUSH2 0x938 JUMP JUMPDEST GT PUSH2 0x137E JUMPI PUSH1 0x0 DUP1 REVERT JUMPDEST PUSH1 0x0 DUP2 GT ISZERO PUSH2 0x1441 JUMPI PUSH2 0x13D1 PUSH2 0x1392 PUSH2 0x938 JUMP JUMPDEST PUSH2 0x13B6 PUSH17 0x100000000000000000000000000000000 DUP5 PUSH2 0x21DE SWAP1 SWAP2 SWAP1 PUSH4 0xFFFFFFFF AND JUMP JUMPDEST PUSH2 0x13C0 SWAP2 SWAP1 PUSH2 0x3C79 JUMP JUMPDEST PUSH1 0x98 SLOAD PUSH2 0x23BC SWAP1 SWAP2 SWAP1 PUSH4 0xFFFFFFFF AND JUMP JUMPDEST PUSH1 0x98 DUP2 SWAP1 SSTORE POP CALLER PUSH20 0xFFFFFFFFFFFFFFFFFFFFFFFFFFFFFFFFFFFFFFFF AND PUSH32 0xA493A9229478C3FCD73F66D2CDEB7F94FD0F341DA924D1054236D78454116511 DUP3 PUSH1 0x40 MLOAD PUSH2 0x141D SWAP2 SWAP1 PUSH2 0x3B06 JUMP JUMPDEST PUSH1 0x40 MLOAD DUP1 SWAP2 SUB SWAP1 LOG2 PUSH2 0x143A DUP2 PUSH1 0x9B SLOAD PUSH2 0x23BC SWAP1 SWAP2 SWAP1 PUSH4 0xFFFFFFFF AND JUMP JUMPDEST PUSH1 0x9B DUP2 SWAP1 SSTORE POP JUMPDEST POP JUMP JUMPDEST PUSH1 0x0 PUSH2 0x144E PUSH2 0x1FC5 JUMP JUMPDEST PUSH20 0xFFFFFFFFFFFFFFFFFFFFFFFFFFFFFFFFFFFFFFFF AND PUSH2 0x146C PUSH2 0x106B JUMP JUMPDEST PUSH20 0xFFFFFFFFFFFFFFFFFFFFFFFFFFFFFFFFFFFFFFFF AND EQ PUSH2 0x14C2 JUMPI PUSH1 0x40 MLOAD PUSH32 0x8C379A000000000000000000000000000000000000000000000000000000000 DUP2 MSTORE PUSH1 0x4 ADD PUSH2 0x14B9 SWAP1 PUSH2 0x3959 JUMP JUMPDEST PUSH1 0x40 MLOAD DUP1 SWAP2 SUB SWAP1 REVERT JUMPDEST PUSH1 0x0 PUSH2 0x14CD DUP5 PUSH2 0x23D2 JUMP JUMPDEST SWAP1 POP PUSH1 0x0 DUP2 GT ISZERO PUSH2 0x1577 JUMPI TIMESTAMP PUSH1 0xA2 PUSH1 0x0 DUP7 PUSH20 0xFFFFFFFFFFFFFFFFFFFFFFFFFFFFFFFFFFFFFFFF AND PUSH20 0xFFFFFFFFFFFFFFFFFFFFFFFFFFFFFFFFFFFFFFFF AND DUP2 MSTORE PUSH1 0x20 ADD SWAP1 DUP2 MSTORE PUSH1 0x20 ADD PUSH1 0x0 KECCAK256 DUP2 SWAP1 SSTORE POP DUP3 ISZERO ISZERO DUP5 PUSH20 0xFFFFFFFFFFFFFFFFFFFFFFFFFFFFFFFFFFFFFFFF AND PUSH32 0xA2C38E2D2FB7E3E1912D937FD1CA11ED6D51864DEE4CFA7A7BF02BECD7ACF092 DUP4 PUSH1 0x40 MLOAD PUSH2 0x1565 SWAP2 SWAP1 PUSH2 0x3B06 JUMP JUMPDEST PUSH1 0x40 MLOAD DUP1 SWAP2 SUB SWAP1 LOG3 PUSH1 0x1 SWAP2 POP POP PUSH2 0x157D JUMP JUMPDEST PUSH1 0x0 SWAP2 POP POP JUMPDEST SWAP3 SWAP2 POP POP JUMP JUMPDEST PUSH1 0xA4 SLOAD DUP2 JUMP JUMPDEST PUSH1 0x0 PUSH1 0xA1 PUSH1 0x0 DUP4 PUSH20 0xFFFFFFFFFFFFFFFFFFFFFFFFFFFFFFFFFFFFFFFF AND PUSH20 0xFFFFFFFFFFFFFFFFFFFFFFFFFFFFFFFFFFFFFFFF AND DUP2 MSTORE PUSH1 0x20 ADD SWAP1 DUP2 MSTORE PUSH1 0x20 ADD PUSH1 0x0 KECCAK256 PUSH1 0x0 SWAP1 SLOAD SWAP1 PUSH2 0x100 EXP SWAP1 DIV PUSH1 0xFF AND SWAP1 POP SWAP2 SWAP1 POP JUMP JUMPDEST PUSH1 0x0 PUSH1 0x1 SWAP1 SLOAD SWAP1 PUSH2 0x100 EXP SWAP1 DIV PUSH1 0xFF AND DUP1 PUSH2 0x1605 JUMPI POP PUSH1 0x0 DUP1 SLOAD SWAP1 PUSH2 0x100 EXP SWAP1 DIV PUSH1 0xFF AND ISZERO JUMPDEST PUSH2 0x1644 JUMPI PUSH1 0x40 MLOAD PUSH32 0x8C379A000000000000000000000000000000000000000000000000000000000 DUP2 MSTORE PUSH1 0x4 ADD PUSH2 0x163B SWAP1 PUSH2 0x38F9 JUMP JUMPDEST PUSH1 0x40 MLOAD DUP1 SWAP2 SUB SWAP1 REVERT JUMPDEST PUSH1 0x0 DUP1 PUSH1 0x1 SWAP1 SLOAD SWAP1 PUSH2 0x100 EXP SWAP1 DIV PUSH1 0xFF AND ISZERO SWAP1 POP DUP1 ISZERO PUSH2 0x1694 JUMPI PUSH1 0x1 PUSH1 0x0 PUSH1 0x1 PUSH2 0x100 EXP DUP2 SLOAD DUP2 PUSH1 0xFF MUL NOT AND SWAP1 DUP4 ISZERO ISZERO MUL OR SWAP1 SSTORE POP PUSH1 0x1 PUSH1 0x0 DUP1 PUSH2 0x100 EXP DUP2 SLOAD DUP2 PUSH1 0xFF MUL NOT AND SWAP1 DUP4 ISZERO ISZERO MUL OR SWAP1 SSTORE POP JUMPDEST PUSH2 0x1709 DUP4 PUSH1 0x40 MLOAD DUP1 PUSH1 0x40 ADD PUSH1 0x40 MSTORE DUP1 PUSH1 0x10 DUP2 MSTORE PUSH1 0x20 ADD PUSH32 0x4449564944454E445F545241434B455200000000000000000000000000000000 DUP2 MSTORE POP PUSH1 0x40 MLOAD DUP1 PUSH1 0x40 ADD PUSH1 0x40 MSTORE DUP1 PUSH1 0x10 DUP2 MSTORE PUSH1 0x20 ADD PUSH32 0x4449564944454E445F545241434B455200000000000000000000000000000000 DUP2 MSTORE POP PUSH2 0x2639 JUMP JUMPDEST PUSH2 0xE10 PUSH1 0xA3 DUP2 SWAP1 SSTORE POP DUP2 PUSH1 0xA4 DUP2 SWAP1 SSTORE POP DUP1 ISZERO PUSH2 0x173A JUMPI PUSH1 0x0 DUP1 PUSH1 0x1 PUSH2 0x100 EXP DUP2 SLOAD DUP2 PUSH1 0xFF MUL NOT AND SWAP1 DUP4 ISZERO ISZERO MUL OR SWAP1 SSTORE POP JUMPDEST POP POP POP JUMP JUMPDEST PUSH1 0x0 PUSH1 0x34 PUSH1 0x0 DUP5 PUSH20 0xFFFFFFFFFFFFFFFFFFFFFFFFFFFFFFFFFFFFFFFF AND PUSH20 0xFFFFFFFFFFFFFFFFFFFFFFFFFFFFFFFFFFFFFFFF AND DUP2 MSTORE PUSH1 0x20 ADD SWAP1 DUP2 MSTORE PUSH1 0x20 ADD PUSH1 0x0 KECCAK256 PUSH1 0x0 DUP4 PUSH20 0xFFFFFFFFFFFFFFFFFFFFFFFFFFFFFFFFFFFFFFFF AND PUSH20 0xFFFFFFFFFFFFFFFFFFFFFFFFFFFFFFFFFFFFFFFF AND DUP2 MSTORE PUSH1 0x20 ADD SWAP1 DUP2 MSTORE PUSH1 0x20 ADD PUSH1 0x0 KECCAK256 SLOAD SWAP1 POP SWAP3 SWAP2 POP POP JUMP JUMPDEST PUSH2 0x17CE PUSH2 0x1FC5 JUMP JUMPDEST PUSH20 0xFFFFFFFFFFFFFFFFFFFFFFFFFFFFFFFFFFFFFFFF AND PUSH2 0x17EC PUSH2 0x106B JUMP JUMPDEST PUSH20 0xFFFFFFFFFFFFFFFFFFFFFFFFFFFFFFFFFFFFFFFF AND EQ PUSH2 0x1842 JUMPI PUSH1 0x40 MLOAD PUSH32 0x8C379A000000000000000000000000000000000000000000000000000000000 DUP2 MSTORE PUSH1 0x4 ADD PUSH2 0x1839 SWAP1 PUSH2 0x3959 JUMP JUMPDEST PUSH1 0x40 MLOAD DUP1 SWAP2 SUB SWAP1 REVERT JUMPDEST PUSH1 0xA1 PUSH1 0x0 DUP4 PUSH20 0xFFFFFFFFFFFFFFFFFFFFFFFFFFFFFFFFFFFFFFFF AND PUSH20 0xFFFFFFFFFFFFFFFFFFFFFFFFFFFFFFFFFFFFFFFF AND DUP2 MSTORE PUSH1 0x20 ADD SWAP1 DUP2 MSTORE PUSH1 0x20 ADD PUSH1 0x0 KECCAK256 PUSH1 0x0 SWAP1 SLOAD SWAP1 PUSH2 0x100 EXP SWAP1 DIV PUSH1 0xFF AND ISZERO PUSH2 0x1899 JUMPI PUSH2 0x19A4 JUMP JUMPDEST PUSH1 0xA4 SLOAD DUP2 LT PUSH2 0x191F JUMPI PUSH2 0x18AC DUP3 DUP3 PUSH2 0x2273 JUMP JUMPDEST PUSH1 0x9C PUSH20 0x0 PUSH4 0xBC2B405C SWAP1 SWAP2 DUP5 DUP5 PUSH1 0x40 MLOAD DUP5 PUSH4 0xFFFFFFFF AND PUSH1 0xE0 SHL DUP2 MSTORE PUSH1 0x4 ADD PUSH2 0x18EA SWAP4 SWAP3 SWAP2 SWAP1 PUSH2 0x3AA6 JUMP JUMPDEST PUSH1 0x0 PUSH1 0x40 MLOAD DUP1 DUP4 SUB DUP2 DUP7 DUP1 EXTCODESIZE ISZERO DUP1 ISZERO PUSH2 0x1902 JUMPI PUSH1 0x0 DUP1 REVERT JUMPDEST POP GAS DELEGATECALL ISZERO DUP1 ISZERO PUSH2 0x1916 JUMPI RETURNDATASIZE PUSH1 0x0 DUP1 RETURNDATACOPY RETURNDATASIZE PUSH1 0x0 REVERT JUMPDEST POP POP POP POP PUSH2 0x1997 JUMP JUMPDEST PUSH2 0x192A DUP3 PUSH1 0x0 PUSH2 0x2273 JUMP JUMPDEST PUSH1 0x9C PUSH20 0x0 PUSH4 0x4C60DB9C SWAP1 SWAP2 DUP5 PUSH1 0x40 MLOAD DUP4 PUSH4 0xFFFFFFFF AND PUSH1 0xE0 SHL DUP2 MSTORE PUSH1 0x4 ADD PUSH2 0x1966 SWAP3 SWAP2 SWAP1 PUSH2 0x3A7D JUMP JUMPDEST PUSH1 0x0 PUSH1 0x40 MLOAD DUP1 DUP4 SUB DUP2 DUP7 DUP1 EXTCODESIZE ISZERO DUP1 ISZERO PUSH2 0x197E JUMPI PUSH1 0x0 DUP1 REVERT JUMPDEST POP GAS DELEGATECALL ISZERO DUP1 ISZERO PUSH2 0x1992 JUMPI RETURNDATASIZE PUSH1 0x0 DUP1 RETURNDATACOPY RETURNDATASIZE PUSH1 0x0 REVERT JUMPDEST POP POP POP POP JUMPDEST PUSH2 0x19A2 DUP3 PUSH1 0x1 PUSH2 0x1444 JUMP JUMPDEST POP JUMPDEST POP POP JUMP JUMPDEST PUSH1 0x0 PUSH1 0xA0 SLOAD SWAP1 POP SWAP1 JUMP JUMPDEST PUSH2 0x19BA PUSH2 0x1FC5 JUMP JUMPDEST PUSH20 0xFFFFFFFFFFFFFFFFFFFFFFFFFFFFFFFFFFFFFFFF AND PUSH2 0x19D8 PUSH2 0x106B JUMP JUMPDEST PUSH20 0xFFFFFFFFFFFFFFFFFFFFFFFFFFFFFFFFFFFFFFFF AND EQ PUSH2 0x1A2E JUMPI PUSH1 0x40 MLOAD PUSH32 0x8C379A000000000000000000000000000000000000000000000000000000000 DUP2 MSTORE PUSH1 0x4 ADD PUSH2 0x1A25 SWAP1 PUSH2 0x3959 JUMP JUMPDEST PUSH1 0x40 MLOAD DUP1 SWAP2 SUB SWAP1 REVERT JUMPDEST PUSH2 0xE10 DUP2 LT ISZERO DUP1 ISZERO PUSH2 0x1A43 JUMPI POP PUSH3 0x15180 DUP2 GT ISZERO JUMPDEST PUSH2 0x1A82 JUMPI PUSH1 0x40 MLOAD PUSH32 0x8C379A000000000000000000000000000000000000000000000000000000000 DUP2 MSTORE PUSH1 0x4 ADD PUSH2 0x1A79 SWAP1 PUSH2 0x3919 JUMP JUMPDEST PUSH1 0x40 MLOAD DUP1 SWAP2 SUB SWAP1 REVERT JUMPDEST PUSH1 0xA3 SLOAD DUP2 EQ ISZERO PUSH2 0x1AC7 JUMPI PUSH1 0x40 MLOAD PUSH32 0x8C379A000000000000000000000000000000000000000000000000000000000 DUP2 MSTORE PUSH1 0x4 ADD PUSH2 0x1ABE SWAP1 PUSH2 0x39D9 JUMP JUMPDEST PUSH1 0x40 MLOAD DUP1 SWAP2 SUB SWAP1 REVERT JUMPDEST PUSH1 0xA3 SLOAD DUP2 PUSH32 0x474EA64804364A1E29A4487DDB63C3342A2DD826CCD8ACF48825E680A0E6F20F PUSH1 0x40 MLOAD PUSH1 0x40 MLOAD DUP1 SWAP2 SUB SWAP1 LOG3 DUP1 PUSH1 0xA3 DUP2 SWAP1 SSTORE POP POP JUMP JUMPDEST PUSH2 0x1B09 PUSH2 0x1FC5 JUMP JUMPDEST PUSH20 0xFFFFFFFFFFFFFFFFFFFFFFFFFFFFFFFFFFFFFFFF AND PUSH2 0x1B27 PUSH2 0x106B JUMP JUMPDEST PUSH20 0xFFFFFFFFFFFFFFFFFFFFFFFFFFFFFFFFFFFFFFFF AND EQ PUSH2 0x1B7D JUMPI PUSH1 0x40 MLOAD PUSH32 0x8C379A000000000000000000000000000000000000000000000000000000000 DUP2 MSTORE PUSH1 0x4 ADD PUSH2 0x1B74 SWAP1 PUSH2 0x3959 JUMP JUMPDEST PUSH1 0x40 MLOAD DUP1 SWAP2 SUB SWAP1 REVERT JUMPDEST PUSH1 0x0 PUSH20 0xFFFFFFFFFFFFFFFFFFFFFFFFFFFFFFFFFFFFFFFF AND DUP2 PUSH20 0xFFFFFFFFFFFFFFFFFFFFFFFFFFFFFFFFFFFFFFFF AND EQ ISZERO PUSH2 0x1BED JUMPI PUSH1 0x40 MLOAD PUSH32 0x8C379A000000000000000000000000000000000000000000000000000000000 DUP2 MSTORE PUSH1 0x4 ADD PUSH2 0x1BE4 SWAP1 PUSH2 0x3899 JUMP JUMPDEST PUSH1 0x40 MLOAD DUP1 SWAP2 SUB SWAP1 REVERT JUMPDEST PUSH2 0x1BF6 DUP2 PUSH2 0x22E0 JUMP JUMPDEST POP JUMP JUMPDEST PUSH1 0x97 PUSH1 0x0 SWAP1 SLOAD SWAP1 PUSH2 0x100 EXP SWAP1 DIV PUSH20 0xFFFFFFFFFFFFFFFFFFFFFFFFFFFFFFFFFFFFFFFF AND DUP2 JUMP JUMPDEST PUSH1 0x0 DUP1 PUSH1 0x0 DUP1 PUSH1 0x0 DUP1 PUSH1 0x0 DUP1 DUP9 SWAP8 POP PUSH1 0x9C PUSH20 0x0 PUSH4 0x17E142D1 SWAP1 SWAP2 DUP11 PUSH1 0x40 MLOAD DUP4 PUSH4 0xFFFFFFFF AND PUSH1 0xE0 SHL DUP2 MSTORE PUSH1 0x4 ADD PUSH2 0x1C6A SWAP3 SWAP2 SWAP1 PUSH2 0x3A54 JUMP JUMPDEST PUSH1 0x20 PUSH1 0x40 MLOAD DUP1 DUP4 SUB DUP2 DUP7 DUP1 EXTCODESIZE ISZERO DUP1 ISZERO PUSH2 0x1C82 JUMPI PUSH1 0x0 DUP1 REVERT JUMPDEST POP GAS DELEGATECALL ISZERO DUP1 ISZERO PUSH2 0x1C96 JUMPI RETURNDATASIZE PUSH1 0x0 DUP1 RETURNDATACOPY RETURNDATASIZE PUSH1 0x0 REVERT JUMPDEST POP POP POP POP PUSH1 0x40 MLOAD RETURNDATASIZE PUSH1 0x1F NOT PUSH1 0x1F DUP3 ADD AND DUP3 ADD DUP1 PUSH1 0x40 MSTORE POP DUP2 ADD SWAP1 PUSH2 0x1CBA SWAP2 SWAP1 PUSH2 0x344E JUMP JUMPDEST SWAP7 POP PUSH32 0xFFFFFFFFFFFFFFFFFFFFFFFFFFFFFFFFFFFFFFFFFFFFFFFFFFFFFFFFFFFFFFFF SWAP6 POP PUSH1 0x0 DUP8 SLT PUSH2 0x1D5F JUMPI PUSH1 0xA0 SLOAD DUP8 GT ISZERO PUSH2 0x1D0D JUMPI PUSH2 0x1D06 PUSH1 0xA0 SLOAD DUP9 PUSH2 0x2768 SWAP1 SWAP2 SWAP1 PUSH4 0xFFFFFFFF AND JUMP JUMPDEST SWAP6 POP PUSH2 0x1D5E JUMP JUMPDEST PUSH1 0x0 PUSH1 0xA0 SLOAD PUSH1 0x9C PUSH1 0x0 ADD DUP1 SLOAD SWAP1 POP GT PUSH2 0x1D27 JUMPI PUSH1 0x0 PUSH2 0x1D45 JUMP JUMPDEST PUSH2 0x1D44 PUSH1 0xA0 SLOAD PUSH1 0x9C PUSH1 0x0 ADD DUP1 SLOAD SWAP1 POP PUSH2 0x23A6 SWAP1 SWAP2 SWAP1 PUSH4 0xFFFFFFFF AND JUMP JUMPDEST JUMPDEST SWAP1 POP PUSH2 0x1D5A DUP2 DUP10 PUSH2 0x2211 SWAP1 SWAP2 SWAP1 PUSH4 0xFFFFFFFF AND JUMP JUMPDEST SWAP7 POP POP JUMPDEST JUMPDEST PUSH2 0x1D68 DUP9 PUSH2 0x1224 JUMP JUMPDEST SWAP5 POP PUSH2 0x1D73 DUP9 PUSH2 0xA52 JUMP JUMPDEST SWAP4 POP PUSH1 0xA2 PUSH1 0x0 DUP10 PUSH20 0xFFFFFFFFFFFFFFFFFFFFFFFFFFFFFFFFFFFFFFFF AND PUSH20 0xFFFFFFFFFFFFFFFFFFFFFFFFFFFFFFFFFFFFFFFF AND DUP2 MSTORE PUSH1 0x20 ADD SWAP1 DUP2 MSTORE PUSH1 0x20 ADD PUSH1 0x0 KECCAK256 SLOAD SWAP3 POP PUSH1 0x0 DUP4 GT PUSH2 0x1DC6 JUMPI PUSH1 0x0 PUSH2 0x1DDC JUMP JUMPDEST PUSH2 0x1DDB PUSH1 0xA3 SLOAD DUP5 PUSH2 0x23BC SWAP1 SWAP2 SWAP1 PUSH4 0xFFFFFFFF AND JUMP JUMPDEST JUMPDEST SWAP2 POP TIMESTAMP DUP3 GT PUSH2 0x1DEC JUMPI PUSH1 0x0 PUSH2 0x1E00 JUMP JUMPDEST PUSH2 0x1DFF TIMESTAMP DUP4 PUSH2 0x23A6 SWAP1 SWAP2 SWAP1 PUSH4 0xFFFFFFFF AND JUMP JUMPDEST JUMPDEST SWAP1 POP SWAP2 SWAP4 SWAP6 SWAP8 POP SWAP2 SWAP4 SWAP6 SWAP8 JUMP JUMPDEST PUSH1 0x0 DUP1 PUSH1 0x0 DUP1 PUSH1 0x9C PUSH1 0x0 ADD DUP1 SLOAD SWAP1 POP SWAP1 POP PUSH1 0x0 DUP2 EQ ISZERO PUSH2 0x1E39 JUMPI PUSH1 0x0 DUP1 PUSH1 0xA0 SLOAD SWAP4 POP SWAP4 POP SWAP4 POP POP PUSH2 0x1FBE JUMP JUMPDEST PUSH1 0x0 PUSH1 0xA0 SLOAD SWAP1 POP PUSH1 0x0 DUP1 GAS SWAP1 POP PUSH1 0x0 DUP1 JUMPDEST DUP10 DUP5 LT DUP1 ISZERO PUSH2 0x1E58 JUMPI POP DUP6 DUP3 LT JUMPDEST ISZERO PUSH2 0x1FA5 JUMPI DUP5 DUP1 PUSH2 0x1E68 SWAP1 PUSH2 0x3ED8 JUMP JUMPDEST SWAP6 POP POP PUSH1 0x9C PUSH1 0x0 ADD DUP1 SLOAD SWAP1 POP DUP6 LT PUSH2 0x1E7F JUMPI PUSH1 0x0 SWAP5 POP JUMPDEST PUSH1 0x0 PUSH1 0x9C PUSH1 0x0 ADD DUP7 DUP2 SLOAD DUP2 LT PUSH2 0x1EBE JUMPI PUSH32 0x4E487B7100000000000000000000000000000000000000000000000000000000 PUSH1 0x0 MSTORE PUSH1 0x32 PUSH1 0x4 MSTORE PUSH1 0x24 PUSH1 0x0 REVERT JUMPDEST SWAP1 PUSH1 0x0 MSTORE PUSH1 0x20 PUSH1 0x0 KECCAK256 ADD PUSH1 0x0 SWAP1 SLOAD SWAP1 PUSH2 0x100 EXP SWAP1 DIV PUSH20 0xFFFFFFFFFFFFFFFFFFFFFFFFFFFFFFFFFFFFFFFF AND SWAP1 POP PUSH2 0x1F33 PUSH1 0xA2 PUSH1 0x0 DUP4 PUSH20 0xFFFFFFFFFFFFFFFFFFFFFFFFFFFFFFFFFFFFFFFF AND PUSH20 0xFFFFFFFFFFFFFFFFFFFFFFFFFFFFFFFFFFFFFFFF AND DUP2 MSTORE PUSH1 0x20 ADD SWAP1 DUP2 MSTORE PUSH1 0x20 ADD PUSH1 0x0 KECCAK256 SLOAD PUSH2 0x27B3 JUMP JUMPDEST ISZERO PUSH2 0x1F58 JUMPI PUSH2 0x1F43 DUP2 PUSH1 0x1 PUSH2 0x1444 JUMP JUMPDEST ISZERO PUSH2 0x1F57 JUMPI DUP2 DUP1 PUSH2 0x1F53 SWAP1 PUSH2 0x3ED8 JUMP JUMPDEST SWAP3 POP POP JUMPDEST JUMPDEST DUP3 DUP1 PUSH2 0x1F63 SWAP1 PUSH2 0x3ED8 JUMP JUMPDEST SWAP4 POP POP PUSH1 0x0 GAS SWAP1 POP DUP1 DUP6 GT ISZERO PUSH2 0x1F9B JUMPI PUSH2 0x1F98 PUSH2 0x1F89 DUP3 DUP8 PUSH2 0x23A6 SWAP1 SWAP2 SWAP1 PUSH4 0xFFFFFFFF AND JUMP JUMPDEST DUP8 PUSH2 0x23BC SWAP1 SWAP2 SWAP1 PUSH4 0xFFFFFFFF AND JUMP JUMPDEST SWAP6 POP JUMPDEST DUP1 SWAP5 POP POP POP PUSH2 0x1E4A JUMP JUMPDEST DUP5 PUSH1 0xA0 DUP2 SWAP1 SSTORE POP DUP2 DUP2 PUSH1 0xA0 SLOAD SWAP9 POP SWAP9 POP SWAP9 POP POP POP POP POP POP POP JUMPDEST SWAP2 SWAP4 SWAP1 SWAP3 POP JUMP JUMPDEST PUSH1 0x0 CALLER SWAP1 POP SWAP1 JUMP JUMPDEST PUSH1 0x0 PUSH20 0xFFFFFFFFFFFFFFFFFFFFFFFFFFFFFFFFFFFFFFFF AND DUP4 PUSH20 0xFFFFFFFFFFFFFFFFFFFFFFFFFFFFFFFFFFFFFFFF AND EQ ISZERO PUSH2 0x203D JUMPI PUSH1 0x40 MLOAD PUSH32 0x8C379A000000000000000000000000000000000000000000000000000000000 DUP2 MSTORE PUSH1 0x4 ADD PUSH2 0x2034 SWAP1 PUSH2 0x39B9 JUMP JUMPDEST PUSH1 0x40 MLOAD DUP1 SWAP2 SUB SWAP1 REVERT JUMPDEST PUSH1 0x0 PUSH20 0xFFFFFFFFFFFFFFFFFFFFFFFFFFFFFFFFFFFFFFFF AND DUP3 PUSH20 0xFFFFFFFFFFFFFFFFFFFFFFFFFFFFFFFFFFFFFFFF AND EQ ISZERO PUSH2 0x20AD JUMPI PUSH1 0x40 MLOAD PUSH32 0x8C379A000000000000000000000000000000000000000000000000000000000 DUP2 MSTORE PUSH1 0x4 ADD PUSH2 0x20A4 SWAP1 PUSH2 0x38B9 JUMP JUMPDEST PUSH1 0x40 MLOAD DUP1 SWAP2 SUB SWAP1 REVERT JUMPDEST DUP1 PUSH1 0x34 PUSH1 0x0 DUP6 PUSH20 0xFFFFFFFFFFFFFFFFFFFFFFFFFFFFFFFFFFFFFFFF AND PUSH20 0xFFFFFFFFFFFFFFFFFFFFFFFFFFFFFFFFFFFFFFFF AND DUP2 MSTORE PUSH1 0x20 ADD SWAP1 DUP2 MSTORE PUSH1 0x20 ADD PUSH1 0x0 KECCAK256 PUSH1 0x0 DUP5 PUSH20 0xFFFFFFFFFFFFFFFFFFFFFFFFFFFFFFFFFFFFFFFF AND PUSH20 0xFFFFFFFFFFFFFFFFFFFFFFFFFFFFFFFFFFFFFFFF AND DUP2 MSTORE PUSH1 0x20 ADD SWAP1 DUP2 MSTORE PUSH1 0x20 ADD PUSH1 0x0 KECCAK256 DUP2 SWAP1 SSTORE POP DUP2 PUSH20 0xFFFFFFFFFFFFFFFFFFFFFFFFFFFFFFFFFFFFFFFF AND DUP4 PUSH20 0xFFFFFFFFFFFFFFFFFFFFFFFFFFFFFFFFFFFFFFFF AND PUSH32 0x8C5BE1E5EBEC7D5BD14F71427D1E84F3DD0314C0F7B2291E5B200AC8C7C3B925 DUP4 PUSH1 0x40 MLOAD PUSH2 0x218B SWAP2 SWAP1 PUSH2 0x3B06 JUMP JUMPDEST PUSH1 0x40 MLOAD DUP1 SWAP2 SUB SWAP1 LOG3 POP POP POP JUMP JUMPDEST PUSH1 0x0 PUSH2 0x21D9 JUMPI PUSH1 0x40 MLOAD PUSH32 0x8C379A000000000000000000000000000000000000000000000000000000000 DUP2 MSTORE PUSH1 0x4 ADD PUSH2 0x21D0 SWAP1 PUSH2 0x3979 JUMP JUMPDEST PUSH1 0x40 MLOAD DUP1 SWAP2 SUB SWAP1 REVERT JUMPDEST POP POP POP JUMP JUMPDEST PUSH1 0x0 DUP2 DUP4 PUSH2 0x21EC SWAP2 SWAP1 PUSH2 0x3CAA JUMP JUMPDEST SWAP1 POP SWAP3 SWAP2 POP POP JUMP JUMPDEST PUSH1 0x0 DUP1 DUP3 SWAP1 POP PUSH1 0x0 DUP2 SLT ISZERO PUSH2 0x2208 JUMPI PUSH1 0x0 DUP1 REVERT JUMPDEST DUP1 SWAP2 POP POP SWAP2 SWAP1 POP JUMP JUMPDEST PUSH1 0x0 DUP1 DUP3 DUP5 PUSH2 0x2220 SWAP2 SWAP1 PUSH2 0x3B8F JUMP JUMPDEST SWAP1 POP PUSH1 0x0 DUP4 SLT ISZERO DUP1 ISZERO PUSH2 0x2233 JUMPI POP DUP4 DUP2 SLT ISZERO JUMPDEST DUP1 PUSH2 0x2249 JUMPI POP PUSH1 0x0 DUP4 SLT DUP1 ISZERO PUSH2 0x2248 JUMPI POP DUP4 DUP2 SLT JUMPDEST JUMPDEST PUSH2 0x2252 JUMPI PUSH1 0x0 DUP1 REVERT JUMPDEST DUP1 SWAP2 POP POP SWAP3 SWAP2 POP POP JUMP JUMPDEST PUSH1 0x0 DUP1 DUP3 SLT ISZERO PUSH2 0x226B JUMPI PUSH1 0x0 DUP1 REVERT JUMPDEST DUP2 SWAP1 POP SWAP2 SWAP1 POP JUMP JUMPDEST PUSH1 0x0 PUSH2 0x227E DUP4 PUSH2 0xF94 JUMP JUMPDEST SWAP1 POP DUP1 DUP3 GT ISZERO PUSH2 0x22AF JUMPI PUSH1 0x0 PUSH2 0x229D DUP3 DUP5 PUSH2 0x23A6 SWAP1 SWAP2 SWAP1 PUSH4 0xFFFFFFFF AND JUMP JUMPDEST SWAP1 POP PUSH2 0x22A9 DUP5 DUP3 PUSH2 0x27E6 JUMP JUMPDEST POP PUSH2 0x22DB JUMP JUMPDEST DUP1 DUP3 LT ISZERO PUSH2 0x22DA JUMPI PUSH1 0x0 PUSH2 0x22CC DUP4 DUP4 PUSH2 0x23A6 SWAP1 SWAP2 SWAP1 PUSH4 0xFFFFFFFF AND JUMP JUMPDEST SWAP1 POP PUSH2 0x22D8 DUP5 DUP3 PUSH2 0x28A5 JUMP JUMPDEST POP JUMPDEST JUMPDEST POP POP POP JUMP JUMPDEST PUSH1 0x0 PUSH1 0x65 PUSH1 0x0 SWAP1 SLOAD SWAP1 PUSH2 0x100 EXP SWAP1 DIV PUSH20 0xFFFFFFFFFFFFFFFFFFFFFFFFFFFFFFFFFFFFFFFF AND SWAP1 POP DUP2 PUSH1 0x65 PUSH1 0x0 PUSH2 0x100 EXP DUP2 SLOAD DUP2 PUSH20 0xFFFFFFFFFFFFFFFFFFFFFFFFFFFFFFFFFFFFFFFF MUL NOT AND SWAP1 DUP4 PUSH20 0xFFFFFFFFFFFFFFFFFFFFFFFFFFFFFFFFFFFFFFFF AND MUL OR SWAP1 SSTORE POP DUP2 PUSH20 0xFFFFFFFFFFFFFFFFFFFFFFFFFFFFFFFFFFFFFFFF AND DUP2 PUSH20 0xFFFFFFFFFFFFFFFFFFFFFFFFFFFFFFFFFFFFFFFF AND PUSH32 0x8BE0079C531659141344CD1FD0A4F28419497F9722A3DAAFE3B4186F6B6457E0 PUSH1 0x40 MLOAD PUSH1 0x40 MLOAD DUP1 SWAP2 SUB SWAP1 LOG3 POP POP JUMP JUMPDEST PUSH1 0x0 DUP2 DUP4 PUSH2 0x23B4 SWAP2 SWAP1 PUSH2 0x3D98 JUMP JUMPDEST SWAP1 POP SWAP3 SWAP2 POP POP JUMP JUMPDEST PUSH1 0x0 DUP2 DUP4 PUSH2 0x23CA SWAP2 SWAP1 PUSH2 0x3C23 JUMP JUMPDEST SWAP1 POP SWAP3 SWAP2 POP POP JUMP JUMPDEST PUSH1 0x0 DUP1 PUSH2 0x23DE DUP4 PUSH2 0x1224 JUMP JUMPDEST SWAP1 POP PUSH1 0x0 DUP2 GT ISZERO PUSH2 0x262E JUMPI PUSH2 0x243B DUP2 PUSH1 0x9A PUSH1 0x0 DUP7 PUSH20 0xFFFFFFFFFFFFFFFFFFFFFFFFFFFFFFFFFFFFFFFF AND PUSH20 0xFFFFFFFFFFFFFFFFFFFFFFFFFFFFFFFFFFFFFFFF AND DUP2 MSTORE PUSH1 0x20 ADD SWAP1 DUP2 MSTORE PUSH1 0x20 ADD PUSH1 0x0 KECCAK256 SLOAD PUSH2 0x23BC SWAP1 SWAP2 SWAP1 PUSH4 0xFFFFFFFF AND JUMP JUMPDEST PUSH1 0x9A PUSH1 0x0 DUP6 PUSH20 0xFFFFFFFFFFFFFFFFFFFFFFFFFFFFFFFFFFFFFFFF AND PUSH20 0xFFFFFFFFFFFFFFFFFFFFFFFFFFFFFFFFFFFFFFFF AND DUP2 MSTORE PUSH1 0x20 ADD SWAP1 DUP2 MSTORE PUSH1 0x20 ADD PUSH1 0x0 KECCAK256 DUP2 SWAP1 SSTORE POP DUP3 PUSH20 0xFFFFFFFFFFFFFFFFFFFFFFFFFFFFFFFFFFFFFFFF AND PUSH32 0xEE503BEE2BB6A87E57BC57DB795F98137327401A0E7B7CE42E37926CC1A9CA4D DUP3 PUSH1 0x40 MLOAD PUSH2 0x24C4 SWAP2 SWAP1 PUSH2 0x3B06 JUMP JUMPDEST PUSH1 0x40 MLOAD DUP1 SWAP2 SUB SWAP1 LOG2 PUSH1 0x0 PUSH1 0x97 PUSH1 0x0 SWAP1 SLOAD SWAP1 PUSH2 0x100 EXP SWAP1 DIV PUSH20 0xFFFFFFFFFFFFFFFFFFFFFFFFFFFFFFFFFFFFFFFF AND PUSH20 0xFFFFFFFFFFFFFFFFFFFFFFFFFFFFFFFFFFFFFFFF AND PUSH4 0xA9059CBB DUP6 DUP5 PUSH1 0x40 MLOAD DUP4 PUSH4 0xFFFFFFFF AND PUSH1 0xE0 SHL DUP2 MSTORE PUSH1 0x4 ADD PUSH2 0x252B SWAP3 SWAP2 SWAP1 PUSH2 0x3795 JUMP JUMPDEST PUSH1 0x20 PUSH1 0x40 MLOAD DUP1 DUP4 SUB DUP2 PUSH1 0x0 DUP8 DUP1 EXTCODESIZE ISZERO DUP1 ISZERO PUSH2 0x2545 JUMPI PUSH1 0x0 DUP1 REVERT JUMPDEST POP GAS CALL ISZERO DUP1 ISZERO PUSH2 0x2559 JUMPI RETURNDATASIZE PUSH1 0x0 DUP1 RETURNDATACOPY RETURNDATASIZE PUSH1 0x0 REVERT JUMPDEST POP POP POP POP PUSH1 0x40 MLOAD RETURNDATASIZE PUSH1 0x1F NOT PUSH1 0x1F DUP3 ADD AND DUP3 ADD DUP1 PUSH1 0x40 MSTORE POP DUP2 ADD SWAP1 PUSH2 0x257D SWAP2 SWAP1 PUSH2 0x3425 JUMP JUMPDEST SWAP1 POP DUP1 PUSH2 0x2624 JUMPI PUSH2 0x25D6 DUP3 PUSH1 0x9A PUSH1 0x0 DUP8 PUSH20 0xFFFFFFFFFFFFFFFFFFFFFFFFFFFFFFFFFFFFFFFF AND PUSH20 0xFFFFFFFFFFFFFFFFFFFFFFFFFFFFFFFFFFFFFFFF AND DUP2 MSTORE PUSH1 0x20 ADD SWAP1 DUP2 MSTORE PUSH1 0x20 ADD PUSH1 0x0 KECCAK256 SLOAD PUSH2 0x23A6 SWAP1 SWAP2 SWAP1 PUSH4 0xFFFFFFFF AND JUMP JUMPDEST PUSH1 0x9A PUSH1 0x0 DUP7 PUSH20 0xFFFFFFFFFFFFFFFFFFFFFFFFFFFFFFFFFFFFFFFF AND PUSH20 0xFFFFFFFFFFFFFFFFFFFFFFFFFFFFFFFFFFFFFFFF AND DUP2 MSTORE PUSH1 0x20 ADD SWAP1 DUP2 MSTORE PUSH1 0x20 ADD PUSH1 0x0 KECCAK256 DUP2 SWAP1 SSTORE POP PUSH1 0x0 SWAP3 POP POP POP PUSH2 0x2634 JUMP JUMPDEST DUP2 SWAP3 POP POP POP PUSH2 0x2634 JUMP JUMPDEST PUSH1 0x0 SWAP2 POP POP JUMPDEST SWAP2 SWAP1 POP JUMP JUMPDEST PUSH1 0x0 PUSH1 0x1 SWAP1 SLOAD SWAP1 PUSH2 0x100 EXP SWAP1 DIV PUSH1 0xFF AND DUP1 PUSH2 0x265F JUMPI POP PUSH1 0x0 DUP1 SLOAD SWAP1 PUSH2 0x100 EXP SWAP1 DIV PUSH1 0xFF AND ISZERO JUMPDEST PUSH2 0x269E JUMPI PUSH1 0x40 MLOAD PUSH32 0x8C379A000000000000000000000000000000000000000000000000000000000 DUP2 MSTORE PUSH1 0x4 ADD PUSH2 0x2695 SWAP1 PUSH2 0x38F9 JUMP JUMPDEST PUSH1 0x40 MLOAD DUP1 SWAP2 SUB SWAP1 REVERT JUMPDEST PUSH1 0x0 DUP1 PUSH1 0x1 SWAP1 SLOAD SWAP1 PUSH2 0x100 EXP SWAP1 DIV PUSH1 0xFF AND ISZERO SWAP1 POP DUP1 ISZERO PUSH2 0x26EE JUMPI PUSH1 0x1 PUSH1 0x0 PUSH1 0x1 PUSH2 0x100 EXP DUP2 SLOAD DUP2 PUSH1 0xFF MUL NOT AND SWAP1 DUP4 ISZERO ISZERO MUL OR SWAP1 SSTORE POP PUSH1 0x1 PUSH1 0x0 DUP1 PUSH2 0x100 EXP DUP2 SLOAD DUP2 PUSH1 0xFF MUL NOT AND SWAP1 DUP4 ISZERO ISZERO MUL OR SWAP1 SSTORE POP JUMPDEST PUSH2 0x26F6 PUSH2 0x2964 JUMP JUMPDEST PUSH2 0x2700 DUP4 DUP4 PUSH2 0x2A4D JUMP JUMPDEST DUP4 PUSH1 0x97 PUSH1 0x0 PUSH2 0x100 EXP DUP2 SLOAD DUP2 PUSH20 0xFFFFFFFFFFFFFFFFFFFFFFFFFFFFFFFFFFFFFFFF MUL NOT AND SWAP1 DUP4 PUSH20 0xFFFFFFFFFFFFFFFFFFFFFFFFFFFFFFFFFFFFFFFF AND MUL OR SWAP1 SSTORE POP DUP1 ISZERO PUSH2 0x2762 JUMPI PUSH1 0x0 DUP1 PUSH1 0x1 PUSH2 0x100 EXP DUP2 SLOAD DUP2 PUSH1 0xFF MUL NOT AND SWAP1 DUP4 ISZERO ISZERO MUL OR SWAP1 SSTORE POP JUMPDEST POP POP POP POP JUMP JUMPDEST PUSH1 0x0 DUP1 DUP3 DUP5 PUSH2 0x2777 SWAP2 SWAP1 PUSH2 0x3D04 JUMP JUMPDEST SWAP1 POP PUSH1 0x0 DUP4 SLT ISZERO DUP1 ISZERO PUSH2 0x278A JUMPI POP DUP4 DUP2 SGT ISZERO JUMPDEST DUP1 PUSH2 0x27A0 JUMPI POP PUSH1 0x0 DUP4 SLT DUP1 ISZERO PUSH2 0x279F JUMPI POP DUP4 DUP2 SGT JUMPDEST JUMPDEST PUSH2 0x27A9 JUMPI PUSH1 0x0 DUP1 REVERT JUMPDEST DUP1 SWAP2 POP POP SWAP3 SWAP2 POP POP JUMP JUMPDEST PUSH1 0x0 TIMESTAMP DUP3 GT ISZERO PUSH2 0x27C6 JUMPI PUSH1 0x0 SWAP1 POP PUSH2 0x27E1 JUMP JUMPDEST PUSH1 0xA3 SLOAD PUSH2 0x27DC DUP4 TIMESTAMP PUSH2 0x23A6 SWAP1 SWAP2 SWAP1 PUSH4 0xFFFFFFFF AND JUMP JUMPDEST LT ISZERO SWAP1 POP JUMPDEST SWAP2 SWAP1 POP JUMP JUMPDEST PUSH2 0x27F0 DUP3 DUP3 PUSH2 0x2B3A JUMP JUMPDEST PUSH2 0x285E PUSH2 0x2810 PUSH2 0x280B DUP4 PUSH1 0x98 SLOAD PUSH2 0x21DE SWAP1 SWAP2 SWAP1 PUSH4 0xFFFFFFFF AND JUMP JUMPDEST PUSH2 0x21F4 JUMP JUMPDEST PUSH1 0x99 PUSH1 0x0 DUP6 PUSH20 0xFFFFFFFFFFFFFFFFFFFFFFFFFFFFFFFFFFFFFFFF AND PUSH20 0xFFFFFFFFFFFFFFFFFFFFFFFFFFFFFFFFFFFFFFFF AND DUP2 MSTORE PUSH1 0x20 ADD SWAP1 DUP2 MSTORE PUSH1 0x20 ADD PUSH1 0x0 KECCAK256 SLOAD PUSH2 0x2768 SWAP1 SWAP2 SWAP1 PUSH4 0xFFFFFFFF AND JUMP JUMPDEST PUSH1 0x99 PUSH1 0x0 DUP5 PUSH20 0xFFFFFFFFFFFFFFFFFFFFFFFFFFFFFFFFFFFFFFFF AND PUSH20 0xFFFFFFFFFFFFFFFFFFFFFFFFFFFFFFFFFFFFFFFF AND DUP2 MSTORE PUSH1 0x20 ADD SWAP1 DUP2 MSTORE PUSH1 0x20 ADD PUSH1 0x0 KECCAK256 DUP2 SWAP1 SSTORE POP POP POP JUMP JUMPDEST PUSH2 0x28AF DUP3 DUP3 PUSH2 0x2C9B JUMP JUMPDEST PUSH2 0x291D PUSH2 0x28CF PUSH2 0x28CA DUP4 PUSH1 0x98 SLOAD PUSH2 0x21DE SWAP1 SWAP2 SWAP1 PUSH4 0xFFFFFFFF AND JUMP JUMPDEST PUSH2 0x21F4 JUMP JUMPDEST PUSH1 0x99 PUSH1 0x0 DUP6 PUSH20 0xFFFFFFFFFFFFFFFFFFFFFFFFFFFFFFFFFFFFFFFF AND PUSH20 0xFFFFFFFFFFFFFFFFFFFFFFFFFFFFFFFFFFFFFFFF AND DUP2 MSTORE PUSH1 0x20 ADD SWAP1 DUP2 MSTORE PUSH1 0x20 ADD PUSH1 0x0 KECCAK256 SLOAD PUSH2 0x2211 SWAP1 SWAP2 SWAP1 PUSH4 0xFFFFFFFF AND JUMP JUMPDEST PUSH1 0x99 PUSH1 0x0 DUP5 PUSH20 0xFFFFFFFFFFFFFFFFFFFFFFFFFFFFFFFFFFFFFFFF AND PUSH20 0xFFFFFFFFFFFFFFFFFFFFFFFFFFFFFFFFFFFFFFFF AND DUP2 MSTORE PUSH1 0x20 ADD SWAP1 DUP2 MSTORE PUSH1 0x20 ADD PUSH1 0x0 KECCAK256 DUP2 SWAP1 SSTORE POP POP POP JUMP JUMPDEST PUSH1 0x0 PUSH1 0x1 SWAP1 SLOAD SWAP1 PUSH2 0x100 EXP SWAP1 DIV PUSH1 0xFF AND DUP1 PUSH2 0x298A JUMPI POP PUSH1 0x0 DUP1 SLOAD SWAP1 PUSH2 0x100 EXP SWAP1 DIV PUSH1 0xFF AND ISZERO JUMPDEST PUSH2 0x29C9 JUMPI PUSH1 0x40 MLOAD PUSH32 0x8C379A000000000000000000000000000000000000000000000000000000000 DUP2 MSTORE PUSH1 0x4 ADD PUSH2 0x29C0 SWAP1 PUSH2 0x38F9 JUMP JUMPDEST PUSH1 0x40 MLOAD DUP1 SWAP2 SUB SWAP1 REVERT JUMPDEST PUSH1 0x0 DUP1 PUSH1 0x1 SWAP1 SLOAD SWAP1 PUSH2 0x100 EXP SWAP1 DIV PUSH1 0xFF AND ISZERO SWAP1 POP DUP1 ISZERO PUSH2 0x2A19 JUMPI PUSH1 0x1 PUSH1 0x0 PUSH1 0x1 PUSH2 0x100 EXP DUP2 SLOAD DUP2 PUSH1 0xFF MUL NOT AND SWAP1 DUP4 ISZERO ISZERO MUL OR SWAP1 SSTORE POP PUSH1 0x1 PUSH1 0x0 DUP1 PUSH2 0x100 EXP DUP2 SLOAD DUP2 PUSH1 0xFF MUL NOT AND SWAP1 DUP4 ISZERO ISZERO MUL OR SWAP1 SSTORE POP JUMPDEST PUSH2 0x2A21 PUSH2 0x2E74 JUMP JUMPDEST PUSH2 0x2A29 PUSH2 0x2F4D JUMP JUMPDEST DUP1 ISZERO PUSH2 0x2A4A JUMPI PUSH1 0x0 DUP1 PUSH1 0x1 PUSH2 0x100 EXP DUP2 SLOAD DUP2 PUSH1 0xFF MUL NOT AND SWAP1 DUP4 ISZERO ISZERO MUL OR SWAP1 SSTORE POP JUMPDEST POP JUMP JUMPDEST PUSH1 0x0 PUSH1 0x1 SWAP1 SLOAD SWAP1 PUSH2 0x100 EXP SWAP1 DIV PUSH1 0xFF AND DUP1 PUSH2 0x2A73 JUMPI POP PUSH1 0x0 DUP1 SLOAD SWAP1 PUSH2 0x100 EXP SWAP1 DIV PUSH1 0xFF AND ISZERO JUMPDEST PUSH2 0x2AB2 JUMPI PUSH1 0x40 MLOAD PUSH32 0x8C379A000000000000000000000000000000000000000000000000000000000 DUP2 MSTORE PUSH1 0x4 ADD PUSH2 0x2AA9 SWAP1 PUSH2 0x38F9 JUMP JUMPDEST PUSH1 0x40 MLOAD DUP1 SWAP2 SUB SWAP1 REVERT JUMPDEST PUSH1 0x0 DUP1 PUSH1 0x1 SWAP1 SLOAD SWAP1 PUSH2 0x100 EXP SWAP1 DIV PUSH1 0xFF AND ISZERO SWAP1 POP DUP1 ISZERO PUSH2 0x2B02 JUMPI PUSH1 0x1 PUSH1 0x0 PUSH1 0x1 PUSH2 0x100 EXP DUP2 SLOAD DUP2 PUSH1 0xFF MUL NOT AND SWAP1 DUP4 ISZERO ISZERO MUL OR SWAP1 SSTORE POP PUSH1 0x1 PUSH1 0x0 DUP1 PUSH2 0x100 EXP DUP2 SLOAD DUP2 PUSH1 0xFF MUL NOT AND SWAP1 DUP4 ISZERO ISZERO MUL OR SWAP1 SSTORE POP JUMPDEST PUSH2 0x2B0A PUSH2 0x2E74 JUMP JUMPDEST PUSH2 0x2B14 DUP4 DUP4 PUSH2 0x3036 JUMP JUMPDEST DUP1 ISZERO PUSH2 0x2B35 JUMPI PUSH1 0x0 DUP1 PUSH1 0x1 PUSH2 0x100 EXP DUP2 SLOAD DUP2 PUSH1 0xFF MUL NOT AND SWAP1 DUP4 ISZERO ISZERO MUL OR SWAP1 SSTORE POP JUMPDEST POP POP POP JUMP JUMPDEST PUSH1 0x0 PUSH20 0xFFFFFFFFFFFFFFFFFFFFFFFFFFFFFFFFFFFFFFFF AND DUP3 PUSH20 0xFFFFFFFFFFFFFFFFFFFFFFFFFFFFFFFFFFFFFFFF AND EQ ISZERO PUSH2 0x2BAA JUMPI PUSH1 0x40 MLOAD PUSH32 0x8C379A000000000000000000000000000000000000000000000000000000000 DUP2 MSTORE PUSH1 0x4 ADD PUSH2 0x2BA1 SWAP1 PUSH2 0x3A19 JUMP JUMPDEST PUSH1 0x40 MLOAD DUP1 SWAP2 SUB SWAP1 REVERT JUMPDEST PUSH2 0x2BB6 PUSH1 0x0 DUP4 DUP4 PUSH2 0x313F JUMP JUMPDEST DUP1 PUSH1 0x35 PUSH1 0x0 DUP3 DUP3 SLOAD PUSH2 0x2BC8 SWAP2 SWAP1 PUSH2 0x3C23 JUMP JUMPDEST SWAP3 POP POP DUP2 SWAP1 SSTORE POP DUP1 PUSH1 0x33 PUSH1 0x0 DUP5 PUSH20 0xFFFFFFFFFFFFFFFFFFFFFFFFFFFFFFFFFFFFFFFF AND PUSH20 0xFFFFFFFFFFFFFFFFFFFFFFFFFFFFFFFFFFFFFFFF AND DUP2 MSTORE PUSH1 0x20 ADD SWAP1 DUP2 MSTORE PUSH1 0x20 ADD PUSH1 0x0 KECCAK256 PUSH1 0x0 DUP3 DUP3 SLOAD PUSH2 0x2C1E SWAP2 SWAP1 PUSH2 0x3C23 JUMP JUMPDEST SWAP3 POP POP DUP2 SWAP1 SSTORE POP DUP2 PUSH20 0xFFFFFFFFFFFFFFFFFFFFFFFFFFFFFFFFFFFFFFFF AND PUSH1 0x0 PUSH20 0xFFFFFFFFFFFFFFFFFFFFFFFFFFFFFFFFFFFFFFFF AND PUSH32 0xDDF252AD1BE2C89B69C2B068FC378DAA952BA7F163C4A11628F55A4DF523B3EF DUP4 PUSH1 0x40 MLOAD PUSH2 0x2C83 SWAP2 SWAP1 PUSH2 0x3B06 JUMP JUMPDEST PUSH1 0x40 MLOAD DUP1 SWAP2 SUB SWAP1 LOG3 PUSH2 0x2C97 PUSH1 0x0 DUP4 DUP4 PUSH2 0x3144 JUMP JUMPDEST POP POP JUMP JUMPDEST PUSH1 0x0 PUSH20 0xFFFFFFFFFFFFFFFFFFFFFFFFFFFFFFFFFFFFFFFF AND DUP3 PUSH20 0xFFFFFFFFFFFFFFFFFFFFFFFFFFFFFFFFFFFFFFFF AND EQ ISZERO PUSH2 0x2D0B JUMPI PUSH1 0x40 MLOAD PUSH32 0x8C379A000000000000000000000000000000000000000000000000000000000 DUP2 MSTORE PUSH1 0x4 ADD PUSH2 0x2D02 SWAP1 PUSH2 0x3999 JUMP JUMPDEST PUSH1 0x40 MLOAD DUP1 SWAP2 SUB SWAP1 REVERT JUMPDEST PUSH2 0x2D17 DUP3 PUSH1 0x0 DUP4 PUSH2 0x313F JUMP JUMPDEST PUSH1 0x0 PUSH1 0x33 PUSH1 0x0 DUP5 PUSH20 0xFFFFFFFFFFFFFFFFFFFFFFFFFFFFFFFFFFFFFFFF AND PUSH20 0xFFFFFFFFFFFFFFFFFFFFFFFFFFFFFFFFFFFFFFFF AND DUP2 MSTORE PUSH1 0x20 ADD SWAP1 DUP2 MSTORE PUSH1 0x20 ADD PUSH1 0x0 KECCAK256 SLOAD SWAP1 POP DUP2 DUP2 LT ISZERO PUSH2 0x2D9E JUMPI PUSH1 0x40 MLOAD PUSH32 0x8C379A000000000000000000000000000000000000000000000000000000000 DUP2 MSTORE PUSH1 0x4 ADD PUSH2 0x2D95 SWAP1 PUSH2 0x3879 JUMP JUMPDEST PUSH1 0x40 MLOAD DUP1 SWAP2 SUB SWAP1 REVERT JUMPDEST DUP2 DUP2 SUB PUSH1 0x33 PUSH1 0x0 DUP6 PUSH20 0xFFFFFFFFFFFFFFFFFFFFFFFFFFFFFFFFFFFFFFFF AND PUSH20 0xFFFFFFFFFFFFFFFFFFFFFFFFFFFFFFFFFFFFFFFF AND DUP2 MSTORE PUSH1 0x20 ADD SWAP1 DUP2 MSTORE PUSH1 0x20 ADD PUSH1 0x0 KECCAK256 DUP2 SWAP1 SSTORE POP DUP2 PUSH1 0x35 PUSH1 0x0 DUP3 DUP3 SLOAD PUSH2 0x2DF6 SWAP2 SWAP1 PUSH2 0x3D98 JUMP JUMPDEST SWAP3 POP POP DUP2 SWAP1 SSTORE POP PUSH1 0x0 PUSH20 0xFFFFFFFFFFFFFFFFFFFFFFFFFFFFFFFFFFFFFFFF AND DUP4 PUSH20 0xFFFFFFFFFFFFFFFFFFFFFFFFFFFFFFFFFFFFFFFF AND PUSH32 0xDDF252AD1BE2C89B69C2B068FC378DAA952BA7F163C4A11628F55A4DF523B3EF DUP5 PUSH1 0x40 MLOAD PUSH2 0x2E5B SWAP2 SWAP1 PUSH2 0x3B06 JUMP JUMPDEST PUSH1 0x40 MLOAD DUP1 SWAP2 SUB SWAP1 LOG3 PUSH2 0x2E6F DUP4 PUSH1 0x0 DUP5 PUSH2 0x3144 JUMP JUMPDEST POP POP POP JUMP JUMPDEST PUSH1 0x0 PUSH1 0x1 SWAP1 SLOAD SWAP1 PUSH2 0x100 EXP SWAP1 DIV PUSH1 0xFF AND DUP1 PUSH2 0x2E9A JUMPI POP PUSH1 0x0 DUP1 SLOAD SWAP1 PUSH2 0x100 EXP SWAP1 DIV PUSH1 0xFF AND ISZERO JUMPDEST PUSH2 0x2ED9 JUMPI PUSH1 0x40 MLOAD PUSH32 0x8C379A000000000000000000000000000000000000000000000000000000000 DUP2 MSTORE PUSH1 0x4 ADD PUSH2 0x2ED0 SWAP1 PUSH2 0x38F9 JUMP JUMPDEST PUSH1 0x40 MLOAD DUP1 SWAP2 SUB SWAP1 REVERT JUMPDEST PUSH1 0x0 DUP1 PUSH1 0x1 SWAP1 SLOAD SWAP1 PUSH2 0x100 EXP SWAP1 DIV PUSH1 0xFF AND ISZERO SWAP1 POP DUP1 ISZERO PUSH2 0x2F29 JUMPI PUSH1 0x1 PUSH1 0x0 PUSH1 0x1 PUSH2 0x100 EXP DUP2 SLOAD DUP2 PUSH1 0xFF MUL NOT AND SWAP1 DUP4 ISZERO ISZERO MUL OR SWAP1 SSTORE POP PUSH1 0x1 PUSH1 0x0 DUP1 PUSH2 0x100 EXP DUP2 SLOAD DUP2 PUSH1 0xFF MUL NOT AND SWAP1 DUP4 ISZERO ISZERO MUL OR SWAP1 SSTORE POP JUMPDEST DUP1 ISZERO PUSH2 0x2F4A JUMPI PUSH1 0x0 DUP1 PUSH1 0x1 PUSH2 0x100 EXP DUP2 SLOAD DUP2 PUSH1 0xFF MUL NOT AND SWAP1 DUP4 ISZERO ISZERO MUL OR SWAP1 SSTORE POP JUMPDEST POP JUMP JUMPDEST PUSH1 0x0 PUSH1 0x1 SWAP1 SLOAD SWAP1 PUSH2 0x100 EXP SWAP1 DIV PUSH1 0xFF AND DUP1 PUSH2 0x2F73 JUMPI POP PUSH1 0x0 DUP1 SLOAD SWAP1 PUSH2 0x100 EXP SWAP1 DIV PUSH1 0xFF AND ISZERO JUMPDEST PUSH2 0x2FB2 JUMPI PUSH1 0x40 MLOAD PUSH32 0x8C379A000000000000000000000000000000000000000000000000000000000 DUP2 MSTORE PUSH1 0x4 ADD PUSH2 0x2FA9 SWAP1 PUSH2 0x38F9 JUMP JUMPDEST PUSH1 0x40 MLOAD DUP1 SWAP2 SUB SWAP1 REVERT JUMPDEST PUSH1 0x0 DUP1 PUSH1 0x1 SWAP1 SLOAD SWAP1 PUSH2 0x100 EXP SWAP1 DIV PUSH1 0xFF AND ISZERO SWAP1 POP DUP1 ISZERO PUSH2 0x3002 JUMPI PUSH1 0x1 PUSH1 0x0 PUSH1 0x1 PUSH2 0x100 EXP DUP2 SLOAD DUP2 PUSH1 0xFF MUL NOT AND SWAP1 DUP4 ISZERO ISZERO MUL OR SWAP1 SSTORE POP PUSH1 0x1 PUSH1 0x0 DUP1 PUSH2 0x100 EXP DUP2 SLOAD DUP2 PUSH1 0xFF MUL NOT AND SWAP1 DUP4 ISZERO ISZERO MUL OR SWAP1 SSTORE POP JUMPDEST PUSH2 0x3012 PUSH2 0x300D PUSH2 0x1FC5 JUMP JUMPDEST PUSH2 0x22E0 JUMP JUMPDEST DUP1 ISZERO PUSH2 0x3033 JUMPI PUSH1 0x0 DUP1 PUSH1 0x1 PUSH2 0x100 EXP DUP2 SLOAD DUP2 PUSH1 0xFF MUL NOT AND SWAP1 DUP4 ISZERO ISZERO MUL OR SWAP1 SSTORE POP JUMPDEST POP JUMP JUMPDEST PUSH1 0x0 PUSH1 0x1 SWAP1 SLOAD SWAP1 PUSH2 0x100 EXP SWAP1 DIV PUSH1 0xFF AND DUP1 PUSH2 0x305C JUMPI POP PUSH1 0x0 DUP1 SLOAD SWAP1 PUSH2 0x100 EXP SWAP1 DIV PUSH1 0xFF AND ISZERO JUMPDEST PUSH2 0x309B JUMPI PUSH1 0x40 MLOAD PUSH32 0x8C379A000000000000000000000000000000000000000000000000000000000 DUP2 MSTORE PUSH1 0x4 ADD PUSH2 0x3092 SWAP1 PUSH2 0x38F9 JUMP JUMPDEST PUSH1 0x40 MLOAD DUP1 SWAP2 SUB SWAP1 REVERT JUMPDEST PUSH1 0x0 DUP1 PUSH1 0x1 SWAP1 SLOAD SWAP1 PUSH2 0x100 EXP SWAP1 DIV PUSH1 0xFF AND ISZERO SWAP1 POP DUP1 ISZERO PUSH2 0x30EB JUMPI PUSH1 0x1 PUSH1 0x0 PUSH1 0x1 PUSH2 0x100 EXP DUP2 SLOAD DUP2 PUSH1 0xFF MUL NOT AND SWAP1 DUP4 ISZERO ISZERO MUL OR SWAP1 SSTORE POP PUSH1 0x1 PUSH1 0x0 DUP1 PUSH2 0x100 EXP DUP2 SLOAD DUP2 PUSH1 0xFF MUL NOT AND SWAP1 DUP4 ISZERO ISZERO MUL OR SWAP1 SSTORE POP JUMPDEST DUP3 PUSH1 0x36 SWAP1 DUP1 MLOAD SWAP1 PUSH1 0x20 ADD SWAP1 PUSH2 0x3101 SWAP3 SWAP2 SWAP1 PUSH2 0x3149 JUMP JUMPDEST POP DUP2 PUSH1 0x37 SWAP1 DUP1 MLOAD SWAP1 PUSH1 0x20 ADD SWAP1 PUSH2 0x3118 SWAP3 SWAP2 SWAP1 PUSH2 0x3149 JUMP JUMPDEST POP DUP1 ISZERO PUSH2 0x313A JUMPI PUSH1 0x0 DUP1 PUSH1 0x1 PUSH2 0x100 EXP DUP2 SLOAD DUP2 PUSH1 0xFF MUL NOT AND SWAP1 DUP4 ISZERO ISZERO MUL OR SWAP1 SSTORE POP JUMPDEST POP POP POP JUMP JUMPDEST POP POP POP JUMP JUMPDEST POP POP POP JUMP JUMPDEST DUP3 DUP1 SLOAD PUSH2 0x3155 SWAP1 PUSH2 0x3EA6 JUMP JUMPDEST SWAP1 PUSH1 0x0 MSTORE PUSH1 0x20 PUSH1 0x0 KECCAK256 SWAP1 PUSH1 0x1F ADD PUSH1 0x20 SWAP1 DIV DUP2 ADD SWAP3 DUP3 PUSH2 0x3177 JUMPI PUSH1 0x0 DUP6 SSTORE PUSH2 0x31BE JUMP JUMPDEST DUP3 PUSH1 0x1F LT PUSH2 0x3190 JUMPI DUP1 MLOAD PUSH1 0xFF NOT AND DUP4 DUP1 ADD OR DUP6 SSTORE PUSH2 0x31BE JUMP JUMPDEST DUP3 DUP1 ADD PUSH1 0x1 ADD DUP6 SSTORE DUP3 ISZERO PUSH2 0x31BE JUMPI SWAP2 DUP3 ADD JUMPDEST DUP3 DUP2 GT ISZERO PUSH2 0x31BD JUMPI DUP3 MLOAD DUP3 SSTORE SWAP2 PUSH1 0x20 ADD SWAP2 SWAP1 PUSH1 0x1 ADD SWAP1 PUSH2 0x31A2 JUMP JUMPDEST JUMPDEST POP SWAP1 POP PUSH2 0x31CB SWAP2 SWAP1 PUSH2 0x31CF JUMP JUMPDEST POP SWAP1 JUMP JUMPDEST JUMPDEST DUP1 DUP3 GT ISZERO PUSH2 0x31E8 JUMPI PUSH1 0x0 DUP2 PUSH1 0x0 SWAP1 SSTORE POP PUSH1 0x1 ADD PUSH2 0x31D0 JUMP JUMPDEST POP SWAP1 JUMP JUMPDEST PUSH1 0x0 DUP2 CALLDATALOAD SWAP1 POP PUSH2 0x31FB DUP2 PUSH2 0x4437 JUMP JUMPDEST SWAP3 SWAP2 POP POP JUMP JUMPDEST PUSH1 0x0 DUP2 MLOAD SWAP1 POP PUSH2 0x3210 DUP2 PUSH2 0x4437 JUMP JUMPDEST SWAP3 SWAP2 POP POP JUMP JUMPDEST PUSH1 0x0 DUP2 CALLDATALOAD SWAP1 POP PUSH2 0x3225 DUP2 PUSH2 0x444E JUMP JUMPDEST SWAP3 SWAP2 POP POP JUMP JUMPDEST PUSH1 0x0 DUP2 CALLDATALOAD SWAP1 POP PUSH2 0x323A DUP2 PUSH2 0x4465 JUMP JUMPDEST SWAP3 SWAP2 POP POP JUMP JUMPDEST PUSH1 0x0 DUP2 MLOAD SWAP1 POP PUSH2 0x324F DUP2 PUSH2 0x4465 JUMP JUMPDEST SWAP3 SWAP2 POP POP JUMP JUMPDEST PUSH1 0x0 DUP2 MLOAD SWAP1 POP PUSH2 0x3264 DUP2 PUSH2 0x447C JUMP JUMPDEST SWAP3 SWAP2 POP POP JUMP JUMPDEST PUSH1 0x0 DUP2 CALLDATALOAD SWAP1 POP PUSH2 0x3279 DUP2 PUSH2 0x4493 JUMP JUMPDEST SWAP3 SWAP2 POP POP JUMP JUMPDEST PUSH1 0x0 DUP2 MLOAD SWAP1 POP PUSH2 0x328E DUP2 PUSH2 0x4493 JUMP JUMPDEST SWAP3 SWAP2 POP POP JUMP JUMPDEST PUSH1 0x0 PUSH1 0x20 DUP3 DUP5 SUB SLT ISZERO PUSH2 0x32A6 JUMPI PUSH1 0x0 DUP1 REVERT JUMPDEST PUSH1 0x0 PUSH2 0x32B4 DUP5 DUP3 DUP6 ADD PUSH2 0x31EC JUMP JUMPDEST SWAP2 POP POP SWAP3 SWAP2 POP POP JUMP JUMPDEST PUSH1 0x0 PUSH1 0x20 DUP3 DUP5 SUB SLT ISZERO PUSH2 0x32CF JUMPI PUSH1 0x0 DUP1 REVERT JUMPDEST PUSH1 0x0 PUSH2 0x32DD DUP5 DUP3 DUP6 ADD PUSH2 0x3201 JUMP JUMPDEST SWAP2 POP POP SWAP3 SWAP2 POP POP JUMP JUMPDEST PUSH1 0x0 DUP1 PUSH1 0x40 DUP4 DUP6 SUB SLT ISZERO PUSH2 0x32F9 JUMPI PUSH1 0x0 DUP1 REVERT JUMPDEST PUSH1 0x0 PUSH2 0x3307 DUP6 DUP3 DUP7 ADD PUSH2 0x3216 JUMP JUMPDEST SWAP3 POP POP PUSH1 0x20 PUSH2 0x3318 DUP6 DUP3 DUP7 ADD PUSH2 0x322B JUMP JUMPDEST SWAP2 POP POP SWAP3 POP SWAP3 SWAP1 POP JUMP JUMPDEST PUSH1 0x0 DUP1 PUSH1 0x40 DUP4 DUP6 SUB SLT ISZERO PUSH2 0x3335 JUMPI PUSH1 0x0 DUP1 REVERT JUMPDEST PUSH1 0x0 PUSH2 0x3343 DUP6 DUP3 DUP7 ADD PUSH2 0x3216 JUMP JUMPDEST SWAP3 POP POP PUSH1 0x20 PUSH2 0x3354 DUP6 DUP3 DUP7 ADD PUSH2 0x326A JUMP JUMPDEST SWAP2 POP POP SWAP3 POP SWAP3 SWAP1 POP JUMP JUMPDEST PUSH1 0x0 DUP1 PUSH1 0x40 DUP4 DUP6 SUB SLT ISZERO PUSH2 0x3371 JUMPI PUSH1 0x0 DUP1 REVERT JUMPDEST PUSH1 0x0 PUSH2 0x337F DUP6 DUP3 DUP7 ADD PUSH2 0x31EC JUMP JUMPDEST SWAP3 POP POP PUSH1 0x20 PUSH2 0x3390 DUP6 DUP3 DUP7 ADD PUSH2 0x31EC JUMP JUMPDEST SWAP2 POP POP SWAP3 POP SWAP3 SWAP1 POP JUMP JUMPDEST PUSH1 0x0 DUP1 PUSH1 0x0 PUSH1 0x60 DUP5 DUP7 SUB SLT ISZERO PUSH2 0x33AF JUMPI PUSH1 0x0 DUP1 REVERT JUMPDEST PUSH1 0x0 PUSH2 0x33BD DUP7 DUP3 DUP8 ADD PUSH2 0x31EC JUMP JUMPDEST SWAP4 POP POP PUSH1 0x20 PUSH2 0x33CE DUP7 DUP3 DUP8 ADD PUSH2 0x31EC JUMP JUMPDEST SWAP3 POP POP PUSH1 0x40 PUSH2 0x33DF DUP7 DUP3 DUP8 ADD PUSH2 0x326A JUMP JUMPDEST SWAP2 POP POP SWAP3 POP SWAP3 POP SWAP3 JUMP JUMPDEST PUSH1 0x0 DUP1 PUSH1 0x40 DUP4 DUP6 SUB SLT ISZERO PUSH2 0x33FC JUMPI PUSH1 0x0 DUP1 REVERT JUMPDEST PUSH1 0x0 PUSH2 0x340A DUP6 DUP3 DUP7 ADD PUSH2 0x31EC JUMP JUMPDEST SWAP3 POP POP PUSH1 0x20 PUSH2 0x341B DUP6 DUP3 DUP7 ADD PUSH2 0x326A JUMP JUMPDEST SWAP2 POP POP SWAP3 POP SWAP3 SWAP1 POP JUMP JUMPDEST PUSH1 0x0 PUSH1 0x20 DUP3 DUP5 SUB SLT ISZERO PUSH2 0x3437 JUMPI PUSH1 0x0 DUP1 REVERT JUMPDEST PUSH1 0x0 PUSH2 0x3445 DUP5 DUP3 DUP6 ADD PUSH2 0x3240 JUMP JUMPDEST SWAP2 POP POP SWAP3 SWAP2 POP POP JUMP JUMPDEST PUSH1 0x0 PUSH1 0x20 DUP3 DUP5 SUB SLT ISZERO PUSH2 0x3460 JUMPI PUSH1 0x0 DUP1 REVERT JUMPDEST PUSH1 0x0 PUSH2 0x346E DUP5 DUP3 DUP6 ADD PUSH2 0x3255 JUMP JUMPDEST SWAP2 POP POP SWAP3 SWAP2 POP POP JUMP JUMPDEST PUSH1 0x0 PUSH1 0x20 DUP3 DUP5 SUB SLT ISZERO PUSH2 0x3489 JUMPI PUSH1 0x0 DUP1 REVERT JUMPDEST PUSH1 0x0 PUSH2 0x3497 DUP5 DUP3 DUP6 ADD PUSH2 0x326A JUMP JUMPDEST SWAP2 POP POP SWAP3 SWAP2 POP POP JUMP JUMPDEST PUSH1 0x0 PUSH1 0x20 DUP3 DUP5 SUB SLT ISZERO PUSH2 0x34B2 JUMPI PUSH1 0x0 DUP1 REVERT JUMPDEST PUSH1 0x0 PUSH2 0x34C0 DUP5 DUP3 DUP6 ADD PUSH2 0x327F JUMP JUMPDEST SWAP2 POP POP SWAP3 SWAP2 POP POP JUMP JUMPDEST PUSH2 0x34D2 DUP2 PUSH2 0x3E3D JUMP JUMPDEST DUP3 MSTORE POP POP JUMP JUMPDEST PUSH2 0x34E1 DUP2 PUSH2 0x3E3D JUMP JUMPDEST DUP3 MSTORE POP POP JUMP JUMPDEST PUSH2 0x34F0 DUP2 PUSH2 0x3DCC JUMP JUMPDEST DUP3 MSTORE POP POP JUMP JUMPDEST PUSH2 0x34FF DUP2 PUSH2 0x3DCC JUMP JUMPDEST DUP3 MSTORE POP POP JUMP JUMPDEST PUSH2 0x350E DUP2 PUSH2 0x3DF0 JUMP JUMPDEST DUP3 MSTORE POP POP JUMP JUMPDEST PUSH2 0x351D DUP2 PUSH2 0x3DFC JUMP JUMPDEST DUP3 MSTORE POP POP JUMP JUMPDEST PUSH1 0x0 PUSH2 0x352E DUP3 PUSH2 0x3B73 JUMP JUMPDEST PUSH2 0x3538 DUP2 DUP6 PUSH2 0x3B7E JUMP JUMPDEST SWAP4 POP PUSH2 0x3548 DUP2 DUP6 PUSH1 0x20 DUP7 ADD PUSH2 0x3E73 JUMP JUMPDEST PUSH2 0x3551 DUP2 PUSH2 0x3FAE JUMP JUMPDEST DUP5 ADD SWAP2 POP POP SWAP3 SWAP2 POP POP JUMP JUMPDEST PUSH1 0x0 PUSH2 0x3569 PUSH1 0x22 DUP4 PUSH2 0x3B7E JUMP JUMPDEST SWAP2 POP PUSH2 0x3574 DUP3 PUSH2 0x3FBF JUMP JUMPDEST PUSH1 0x40 DUP3 ADD SWAP1 POP SWAP2 SWAP1 POP JUMP JUMPDEST PUSH1 0x0 PUSH2 0x358C PUSH1 0x26 DUP4 PUSH2 0x3B7E JUMP JUMPDEST SWAP2 POP PUSH2 0x3597 DUP3 PUSH2 0x400E JUMP JUMPDEST PUSH1 0x40 DUP3 ADD SWAP1 POP SWAP2 SWAP1 POP JUMP JUMPDEST PUSH1 0x0 PUSH2 0x35AF PUSH1 0x22 DUP4 PUSH2 0x3B7E JUMP JUMPDEST SWAP2 POP PUSH2 0x35BA DUP3 PUSH2 0x405D JUMP JUMPDEST PUSH1 0x40 DUP3 ADD SWAP1 POP SWAP2 SWAP1 POP JUMP JUMPDEST PUSH1 0x0 PUSH2 0x35D2 PUSH1 0x65 DUP4 PUSH2 0x3B7E JUMP JUMPDEST SWAP2 POP PUSH2 0x35DD DUP3 PUSH2 0x40AC JUMP JUMPDEST PUSH1 0x80 DUP3 ADD SWAP1 POP SWAP2 SWAP1 POP JUMP JUMPDEST PUSH1 0x0 PUSH2 0x35F5 PUSH1 0x2E DUP4 PUSH2 0x3B7E JUMP JUMPDEST SWAP2 POP PUSH2 0x3600 DUP3 PUSH2 0x4147 JUMP JUMPDEST PUSH1 0x40 DUP3 ADD SWAP1 POP SWAP2 SWAP1 POP JUMP JUMPDEST PUSH1 0x0 PUSH2 0x3618 PUSH1 0x45 DUP4 PUSH2 0x3B7E JUMP JUMPDEST SWAP2 POP PUSH2 0x3623 DUP3 PUSH2 0x4196 JUMP JUMPDEST PUSH1 0x60 DUP3 ADD SWAP1 POP SWAP2 SWAP1 POP JUMP JUMPDEST PUSH1 0x0 PUSH2 0x363B PUSH1 0x28 DUP4 PUSH2 0x3B7E JUMP JUMPDEST SWAP2 POP PUSH2 0x3646 DUP3 PUSH2 0x420B JUMP JUMPDEST PUSH1 0x40 DUP3 ADD SWAP1 POP SWAP2 SWAP1 POP JUMP JUMPDEST PUSH1 0x0 PUSH2 0x365E PUSH1 0x20 DUP4 PUSH2 0x3B7E JUMP JUMPDEST SWAP2 POP PUSH2 0x3669 DUP3 PUSH2 0x425A JUMP JUMPDEST PUSH1 0x20 DUP3 ADD SWAP1 POP SWAP2 SWAP1 POP JUMP JUMPDEST PUSH1 0x0 PUSH2 0x3681 PUSH1 0x26 DUP4 PUSH2 0x3B7E JUMP JUMPDEST SWAP2 POP PUSH2 0x368C DUP3 PUSH2 0x4283 JUMP JUMPDEST PUSH1 0x40 DUP3 ADD SWAP1 POP SWAP2 SWAP1 POP JUMP JUMPDEST PUSH1 0x0 PUSH2 0x36A4 PUSH1 0x21 DUP4 PUSH2 0x3B7E JUMP JUMPDEST SWAP2 POP PUSH2 0x36AF DUP3 PUSH2 0x42D2 JUMP JUMPDEST PUSH1 0x40 DUP3 ADD SWAP1 POP SWAP2 SWAP1 POP JUMP JUMPDEST PUSH1 0x0 PUSH2 0x36C7 PUSH1 0x24 DUP4 PUSH2 0x3B7E JUMP JUMPDEST SWAP2 POP PUSH2 0x36D2 DUP3 PUSH2 0x4321 JUMP JUMPDEST PUSH1 0x40 DUP3 ADD SWAP1 POP SWAP2 SWAP1 POP JUMP JUMPDEST PUSH1 0x0 PUSH2 0x36EA PUSH1 0x37 DUP4 PUSH2 0x3B7E JUMP JUMPDEST SWAP2 POP PUSH2 0x36F5 DUP3 PUSH2 0x4370 JUMP JUMPDEST PUSH1 0x40 DUP3 ADD SWAP1 POP SWAP2 SWAP1 POP JUMP JUMPDEST PUSH1 0x0 PUSH2 0x370D PUSH1 0x25 DUP4 PUSH2 0x3B7E JUMP JUMPDEST SWAP2 POP PUSH2 0x3718 DUP3 PUSH2 0x43BF JUMP JUMPDEST PUSH1 0x40 DUP3 ADD SWAP1 POP SWAP2 SWAP1 POP JUMP JUMPDEST PUSH1 0x0 PUSH2 0x3730 PUSH1 0x1F DUP4 PUSH2 0x3B7E JUMP JUMPDEST SWAP2 POP PUSH2 0x373B DUP3 PUSH2 0x440E JUMP JUMPDEST PUSH1 0x20 DUP3 ADD SWAP1 POP SWAP2 SWAP1 POP JUMP JUMPDEST DUP1 DUP3 MSTORE POP POP JUMP JUMPDEST PUSH2 0x3756 DUP2 PUSH2 0x3E26 JUMP JUMPDEST DUP3 MSTORE POP POP JUMP JUMPDEST PUSH2 0x3765 DUP2 PUSH2 0x3E26 JUMP JUMPDEST DUP3 MSTORE POP POP JUMP JUMPDEST PUSH2 0x3774 DUP2 PUSH2 0x3E30 JUMP JUMPDEST DUP3 MSTORE POP POP JUMP JUMPDEST PUSH1 0x0 PUSH1 0x20 DUP3 ADD SWAP1 POP PUSH2 0x378F PUSH1 0x0 DUP4 ADD DUP5 PUSH2 0x34E7 JUMP JUMPDEST SWAP3 SWAP2 POP POP JUMP JUMPDEST PUSH1 0x0 PUSH1 0x40 DUP3 ADD SWAP1 POP PUSH2 0x37AA PUSH1 0x0 DUP4 ADD DUP6 PUSH2 0x34C9 JUMP JUMPDEST PUSH2 0x37B7 PUSH1 0x20 DUP4 ADD DUP5 PUSH2 0x374D JUMP JUMPDEST SWAP4 SWAP3 POP POP POP JUMP JUMPDEST PUSH1 0x0 PUSH2 0x100 DUP3 ADD SWAP1 POP PUSH2 0x37D4 PUSH1 0x0 DUP4 ADD DUP12 PUSH2 0x34E7 JUMP JUMPDEST PUSH2 0x37E1 PUSH1 0x20 DUP4 ADD DUP11 PUSH2 0x3514 JUMP JUMPDEST PUSH2 0x37EE PUSH1 0x40 DUP4 ADD DUP10 PUSH2 0x3514 JUMP JUMPDEST PUSH2 0x37FB PUSH1 0x60 DUP4 ADD DUP9 PUSH2 0x374D JUMP JUMPDEST PUSH2 0x3808 PUSH1 0x80 DUP4 ADD DUP8 PUSH2 0x374D JUMP JUMPDEST PUSH2 0x3815 PUSH1 0xA0 DUP4 ADD DUP7 PUSH2 0x374D JUMP JUMPDEST PUSH2 0x3822 PUSH1 0xC0 DUP4 ADD DUP6 PUSH2 0x374D JUMP JUMPDEST PUSH2 0x382F PUSH1 0xE0 DUP4 ADD DUP5 PUSH2 0x374D JUMP JUMPDEST SWAP10 SWAP9 POP POP POP POP POP POP POP POP POP JUMP JUMPDEST PUSH1 0x0 PUSH1 0x20 DUP3 ADD SWAP1 POP PUSH2 0x3851 PUSH1 0x0 DUP4 ADD DUP5 PUSH2 0x3505 JUMP JUMPDEST SWAP3 SWAP2 POP POP JUMP JUMPDEST PUSH1 0x0 PUSH1 0x20 DUP3 ADD SWAP1 POP DUP2 DUP2 SUB PUSH1 0x0 DUP4 ADD MSTORE PUSH2 0x3871 DUP2 DUP5 PUSH2 0x3523 JUMP JUMPDEST SWAP1 POP SWAP3 SWAP2 POP POP JUMP JUMPDEST PUSH1 0x0 PUSH1 0x20 DUP3 ADD SWAP1 POP DUP2 DUP2 SUB PUSH1 0x0 DUP4 ADD MSTORE PUSH2 0x3892 DUP2 PUSH2 0x355C JUMP JUMPDEST SWAP1 POP SWAP2 SWAP1 POP JUMP JUMPDEST PUSH1 0x0 PUSH1 0x20 DUP3 ADD SWAP1 POP DUP2 DUP2 SUB PUSH1 0x0 DUP4 ADD MSTORE PUSH2 0x38B2 DUP2 PUSH2 0x357F JUMP JUMPDEST SWAP1 POP SWAP2 SWAP1 POP JUMP JUMPDEST PUSH1 0x0 PUSH1 0x20 DUP3 ADD SWAP1 POP DUP2 DUP2 SUB PUSH1 0x0 DUP4 ADD MSTORE PUSH2 0x38D2 DUP2 PUSH2 0x35A2 JUMP JUMPDEST SWAP1 POP SWAP2 SWAP1 POP JUMP JUMPDEST PUSH1 0x0 PUSH1 0x20 DUP3 ADD SWAP1 POP DUP2 DUP2 SUB PUSH1 0x0 DUP4 ADD MSTORE PUSH2 0x38F2 DUP2 PUSH2 0x35C5 JUMP JUMPDEST SWAP1 POP SWAP2 SWAP1 POP JUMP JUMPDEST PUSH1 0x0 PUSH1 0x20 DUP3 ADD SWAP1 POP DUP2 DUP2 SUB PUSH1 0x0 DUP4 ADD MSTORE PUSH2 0x3912 DUP2 PUSH2 0x35E8 JUMP JUMPDEST SWAP1 POP SWAP2 SWAP1 POP JUMP JUMPDEST PUSH1 0x0 PUSH1 0x20 DUP3 ADD SWAP1 POP DUP2 DUP2 SUB PUSH1 0x0 DUP4 ADD MSTORE PUSH2 0x3932 DUP2 PUSH2 0x360B JUMP JUMPDEST SWAP1 POP SWAP2 SWAP1 POP JUMP JUMPDEST PUSH1 0x0 PUSH1 0x20 DUP3 ADD SWAP1 POP DUP2 DUP2 SUB PUSH1 0x0 DUP4 ADD MSTORE PUSH2 0x3952 DUP2 PUSH2 0x362E JUMP JUMPDEST SWAP1 POP SWAP2 SWAP1 POP JUMP JUMPDEST PUSH1 0x0 PUSH1 0x20 DUP3 ADD SWAP1 POP DUP2 DUP2 SUB PUSH1 0x0 DUP4 ADD MSTORE PUSH2 0x3972 DUP2 PUSH2 0x3651 JUMP JUMPDEST SWAP1 POP SWAP2 SWAP1 POP JUMP JUMPDEST PUSH1 0x0 PUSH1 0x20 DUP3 ADD SWAP1 POP DUP2 DUP2 SUB PUSH1 0x0 DUP4 ADD MSTORE PUSH2 0x3992 DUP2 PUSH2 0x3674 JUMP JUMPDEST SWAP1 POP SWAP2 SWAP1 POP JUMP JUMPDEST PUSH1 0x0 PUSH1 0x20 DUP3 ADD SWAP1 POP DUP2 DUP2 SUB PUSH1 0x0 DUP4 ADD MSTORE PUSH2 0x39B2 DUP2 PUSH2 0x3697 JUMP JUMPDEST SWAP1 POP SWAP2 SWAP1 POP JUMP JUMPDEST PUSH1 0x0 PUSH1 0x20 DUP3 ADD SWAP1 POP DUP2 DUP2 SUB PUSH1 0x0 DUP4 ADD MSTORE PUSH2 0x39D2 DUP2 PUSH2 0x36BA JUMP JUMPDEST SWAP1 POP SWAP2 SWAP1 POP JUMP JUMPDEST PUSH1 0x0 PUSH1 0x20 DUP3 ADD SWAP1 POP DUP2 DUP2 SUB PUSH1 0x0 DUP4 ADD MSTORE PUSH2 0x39F2 DUP2 PUSH2 0x36DD JUMP JUMPDEST SWAP1 POP SWAP2 SWAP1 POP JUMP JUMPDEST PUSH1 0x0 PUSH1 0x20 DUP3 ADD SWAP1 POP DUP2 DUP2 SUB PUSH1 0x0 DUP4 ADD MSTORE PUSH2 0x3A12 DUP2 PUSH2 0x3700 JUMP JUMPDEST SWAP1 POP SWAP2 SWAP1 POP JUMP JUMPDEST PUSH1 0x0 PUSH1 0x20 DUP3 ADD SWAP1 POP DUP2 DUP2 SUB PUSH1 0x0 DUP4 ADD MSTORE PUSH2 0x3A32 DUP2 PUSH2 0x3723 JUMP JUMPDEST SWAP1 POP SWAP2 SWAP1 POP JUMP JUMPDEST PUSH1 0x0 PUSH1 0x20 DUP3 ADD SWAP1 POP PUSH2 0x3A4E PUSH1 0x0 DUP4 ADD DUP5 PUSH2 0x3746 JUMP JUMPDEST SWAP3 SWAP2 POP POP JUMP JUMPDEST PUSH1 0x0 PUSH1 0x40 DUP3 ADD SWAP1 POP PUSH2 0x3A69 PUSH1 0x0 DUP4 ADD DUP6 PUSH2 0x3746 JUMP JUMPDEST PUSH2 0x3A76 PUSH1 0x20 DUP4 ADD DUP5 PUSH2 0x34F6 JUMP JUMPDEST SWAP4 SWAP3 POP POP POP JUMP JUMPDEST PUSH1 0x0 PUSH1 0x40 DUP3 ADD SWAP1 POP PUSH2 0x3A92 PUSH1 0x0 DUP4 ADD DUP6 PUSH2 0x3746 JUMP JUMPDEST PUSH2 0x3A9F PUSH1 0x20 DUP4 ADD DUP5 PUSH2 0x34D8 JUMP JUMPDEST SWAP4 SWAP3 POP POP POP JUMP JUMPDEST PUSH1 0x0 PUSH1 0x60 DUP3 ADD SWAP1 POP PUSH2 0x3ABB PUSH1 0x0 DUP4 ADD DUP7 PUSH2 0x3746 JUMP JUMPDEST PUSH2 0x3AC8 PUSH1 0x20 DUP4 ADD DUP6 PUSH2 0x34D8 JUMP JUMPDEST PUSH2 0x3AD5 PUSH1 0x40 DUP4 ADD DUP5 PUSH2 0x375C JUMP JUMPDEST SWAP5 SWAP4 POP POP POP POP JUMP JUMPDEST PUSH1 0x0 PUSH1 0x40 DUP3 ADD SWAP1 POP PUSH2 0x3AF2 PUSH1 0x0 DUP4 ADD DUP6 PUSH2 0x3746 JUMP JUMPDEST PUSH2 0x3AFF PUSH1 0x20 DUP4 ADD DUP5 PUSH2 0x375C JUMP JUMPDEST SWAP4 SWAP3 POP POP POP JUMP JUMPDEST PUSH1 0x0 PUSH1 0x20 DUP3 ADD SWAP1 POP PUSH2 0x3B1B PUSH1 0x0 DUP4 ADD DUP5 PUSH2 0x374D JUMP JUMPDEST SWAP3 SWAP2 POP POP JUMP JUMPDEST PUSH1 0x0 PUSH1 0x60 DUP3 ADD SWAP1 POP PUSH2 0x3B36 PUSH1 0x0 DUP4 ADD DUP7 PUSH2 0x374D JUMP JUMPDEST PUSH2 0x3B43 PUSH1 0x20 DUP4 ADD DUP6 PUSH2 0x374D JUMP JUMPDEST PUSH2 0x3B50 PUSH1 0x40 DUP4 ADD DUP5 PUSH2 0x374D JUMP JUMPDEST SWAP5 SWAP4 POP POP POP POP JUMP JUMPDEST PUSH1 0x0 PUSH1 0x20 DUP3 ADD SWAP1 POP PUSH2 0x3B6D PUSH1 0x0 DUP4 ADD DUP5 PUSH2 0x376B JUMP JUMPDEST SWAP3 SWAP2 POP POP JUMP JUMPDEST PUSH1 0x0 DUP2 MLOAD SWAP1 POP SWAP2 SWAP1 POP JUMP JUMPDEST PUSH1 0x0 DUP3 DUP3 MSTORE PUSH1 0x20 DUP3 ADD SWAP1 POP SWAP3 SWAP2 POP POP JUMP JUMPDEST PUSH1 0x0 PUSH2 0x3B9A DUP3 PUSH2 0x3DFC JUMP JUMPDEST SWAP2 POP PUSH2 0x3BA5 DUP4 PUSH2 0x3DFC JUMP JUMPDEST SWAP3 POP DUP2 PUSH32 0x7FFFFFFFFFFFFFFFFFFFFFFFFFFFFFFFFFFFFFFFFFFFFFFFFFFFFFFFFFFFFFFF SUB DUP4 SGT PUSH1 0x0 DUP4 SLT ISZERO AND ISZERO PUSH2 0x3BE0 JUMPI PUSH2 0x3BDF PUSH2 0x3F21 JUMP JUMPDEST JUMPDEST DUP2 PUSH32 0x8000000000000000000000000000000000000000000000000000000000000000 SUB DUP4 SLT PUSH1 0x0 DUP4 SLT AND ISZERO PUSH2 0x3C18 JUMPI PUSH2 0x3C17 PUSH2 0x3F21 JUMP JUMPDEST JUMPDEST DUP3 DUP3 ADD SWAP1 POP SWAP3 SWAP2 POP POP JUMP JUMPDEST PUSH1 0x0 PUSH2 0x3C2E DUP3 PUSH2 0x3E26 JUMP JUMPDEST SWAP2 POP PUSH2 0x3C39 DUP4 PUSH2 0x3E26 JUMP JUMPDEST SWAP3 POP DUP3 PUSH32 0xFFFFFFFFFFFFFFFFFFFFFFFFFFFFFFFFFFFFFFFFFFFFFFFFFFFFFFFFFFFFFFFF SUB DUP3 GT ISZERO PUSH2 0x3C6E JUMPI PUSH2 0x3C6D PUSH2 0x3F21 JUMP JUMPDEST JUMPDEST DUP3 DUP3 ADD SWAP1 POP SWAP3 SWAP2 POP POP JUMP JUMPDEST PUSH1 0x0 PUSH2 0x3C84 DUP3 PUSH2 0x3E26 JUMP JUMPDEST SWAP2 POP PUSH2 0x3C8F DUP4 PUSH2 0x3E26 JUMP JUMPDEST SWAP3 POP DUP3 PUSH2 0x3C9F JUMPI PUSH2 0x3C9E PUSH2 0x3F50 JUMP JUMPDEST JUMPDEST DUP3 DUP3 DIV SWAP1 POP SWAP3 SWAP2 POP POP JUMP JUMPDEST PUSH1 0x0 PUSH2 0x3CB5 DUP3 PUSH2 0x3E26 JUMP JUMPDEST SWAP2 POP PUSH2 0x3CC0 DUP4 PUSH2 0x3E26 JUMP JUMPDEST SWAP3 POP DUP2 PUSH32 0xFFFFFFFFFFFFFFFFFFFFFFFFFFFFFFFFFFFFFFFFFFFFFFFFFFFFFFFFFFFFFFFF DIV DUP4 GT DUP3 ISZERO ISZERO AND ISZERO PUSH2 0x3CF9 JUMPI PUSH2 0x3CF8 PUSH2 0x3F21 JUMP JUMPDEST JUMPDEST DUP3 DUP3 MUL SWAP1 POP SWAP3 SWAP2 POP POP JUMP JUMPDEST PUSH1 0x0 PUSH2 0x3D0F DUP3 PUSH2 0x3DFC JUMP JUMPDEST SWAP2 POP PUSH2 0x3D1A DUP4 PUSH2 0x3DFC JUMP JUMPDEST SWAP3 POP DUP3 PUSH32 0x8000000000000000000000000000000000000000000000000000000000000000 ADD DUP3 SLT PUSH1 0x0 DUP5 SLT ISZERO AND ISZERO PUSH2 0x3D55 JUMPI PUSH2 0x3D54 PUSH2 0x3F21 JUMP JUMPDEST JUMPDEST DUP3 PUSH32 0x7FFFFFFFFFFFFFFFFFFFFFFFFFFFFFFFFFFFFFFFFFFFFFFFFFFFFFFFFFFFFFFF ADD DUP3 SGT PUSH1 0x0 DUP5 SLT AND ISZERO PUSH2 0x3D8D JUMPI PUSH2 0x3D8C PUSH2 0x3F21 JUMP JUMPDEST JUMPDEST DUP3 DUP3 SUB SWAP1 POP SWAP3 SWAP2 POP POP JUMP JUMPDEST PUSH1 0x0 PUSH2 0x3DA3 DUP3 PUSH2 0x3E26 JUMP JUMPDEST SWAP2 POP PUSH2 0x3DAE DUP4 PUSH2 0x3E26 JUMP JUMPDEST SWAP3 POP DUP3 DUP3 LT ISZERO PUSH2 0x3DC1 JUMPI PUSH2 0x3DC0 PUSH2 0x3F21 JUMP JUMPDEST JUMPDEST DUP3 DUP3 SUB SWAP1 POP SWAP3 SWAP2 POP POP JUMP JUMPDEST PUSH1 0x0 PUSH2 0x3DD7 DUP3 PUSH2 0x3E06 JUMP JUMPDEST SWAP1 POP SWAP2 SWAP1 POP JUMP JUMPDEST PUSH1 0x0 PUSH2 0x3DE9 DUP3 PUSH2 0x3E06 JUMP JUMPDEST SWAP1 POP SWAP2 SWAP1 POP JUMP JUMPDEST PUSH1 0x0 DUP2 ISZERO ISZERO SWAP1 POP SWAP2 SWAP1 POP JUMP JUMPDEST PUSH1 0x0 DUP2 SWAP1 POP SWAP2 SWAP1 POP JUMP JUMPDEST PUSH1 0x0 PUSH20 0xFFFFFFFFFFFFFFFFFFFFFFFFFFFFFFFFFFFFFFFF DUP3 AND SWAP1 POP SWAP2 SWAP1 POP JUMP JUMPDEST PUSH1 0x0 DUP2 SWAP1 POP SWAP2 SWAP1 POP JUMP JUMPDEST PUSH1 0x0 PUSH1 0xFF DUP3 AND SWAP1 POP SWAP2 SWAP1 POP JUMP JUMPDEST PUSH1 0x0 PUSH2 0x3E48 DUP3 PUSH2 0x3E4F JUMP JUMPDEST SWAP1 POP SWAP2 SWAP1 POP JUMP JUMPDEST PUSH1 0x0 PUSH2 0x3E5A DUP3 PUSH2 0x3E61 JUMP JUMPDEST SWAP1 POP SWAP2 SWAP1 POP JUMP JUMPDEST PUSH1 0x0 PUSH2 0x3E6C DUP3 PUSH2 0x3E06 JUMP JUMPDEST SWAP1 POP SWAP2 SWAP1 POP JUMP JUMPDEST PUSH1 0x0 JUMPDEST DUP4 DUP2 LT ISZERO PUSH2 0x3E91 JUMPI DUP1 DUP3 ADD MLOAD DUP2 DUP5 ADD MSTORE PUSH1 0x20 DUP2 ADD SWAP1 POP PUSH2 0x3E76 JUMP JUMPDEST DUP4 DUP2 GT ISZERO PUSH2 0x3EA0 JUMPI PUSH1 0x0 DUP5 DUP5 ADD MSTORE JUMPDEST POP POP POP POP JUMP JUMPDEST PUSH1 0x0 PUSH1 0x2 DUP3 DIV SWAP1 POP PUSH1 0x1 DUP3 AND DUP1 PUSH2 0x3EBE JUMPI PUSH1 0x7F DUP3 AND SWAP2 POP JUMPDEST PUSH1 0x20 DUP3 LT DUP2 EQ ISZERO PUSH2 0x3ED2 JUMPI PUSH2 0x3ED1 PUSH2 0x3F7F JUMP JUMPDEST JUMPDEST POP SWAP2 SWAP1 POP JUMP JUMPDEST PUSH1 0x0 PUSH2 0x3EE3 DUP3 PUSH2 0x3E26 JUMP JUMPDEST SWAP2 POP PUSH32 0xFFFFFFFFFFFFFFFFFFFFFFFFFFFFFFFFFFFFFFFFFFFFFFFFFFFFFFFFFFFFFFFF DUP3 EQ ISZERO PUSH2 0x3F16 JUMPI PUSH2 0x3F15 PUSH2 0x3F21 JUMP JUMPDEST JUMPDEST PUSH1 0x1 DUP3 ADD SWAP1 POP SWAP2 SWAP1 POP JUMP JUMPDEST PUSH32 0x4E487B7100000000000000000000000000000000000000000000000000000000 PUSH1 0x0 MSTORE PUSH1 0x11 PUSH1 0x4 MSTORE PUSH1 0x24 PUSH1 0x0 REVERT JUMPDEST PUSH32 0x4E487B7100000000000000000000000000000000000000000000000000000000 PUSH1 0x0 MSTORE PUSH1 0x12 PUSH1 0x4 MSTORE PUSH1 0x24 PUSH1 0x0 REVERT JUMPDEST PUSH32 0x4E487B7100000000000000000000000000000000000000000000000000000000 PUSH1 0x0 MSTORE PUSH1 0x22 PUSH1 0x4 MSTORE PUSH1 0x24 PUSH1 0x0 REVERT JUMPDEST PUSH1 0x0 PUSH1 0x1F NOT PUSH1 0x1F DUP4 ADD AND SWAP1 POP SWAP2 SWAP1 POP JUMP JUMPDEST PUSH32 0x45524332303A206275726E20616D6F756E7420657863656564732062616C616E PUSH1 0x0 DUP3 ADD MSTORE PUSH32 0x6365000000000000000000000000000000000000000000000000000000000000 PUSH1 0x20 DUP3 ADD MSTORE POP JUMP JUMPDEST PUSH32 0x4F776E61626C653A206E6577206F776E657220697320746865207A65726F2061 PUSH1 0x0 DUP3 ADD MSTORE PUSH32 0x6464726573730000000000000000000000000000000000000000000000000000 PUSH1 0x20 DUP3 ADD MSTORE POP JUMP JUMPDEST PUSH32 0x45524332303A20617070726F766520746F20746865207A65726F206164647265 PUSH1 0x0 DUP3 ADD MSTORE PUSH32 0x7373000000000000000000000000000000000000000000000000000000000000 PUSH1 0x20 DUP3 ADD MSTORE POP JUMP JUMPDEST PUSH32 0x4469766964656E645F547261636B65723A207769746864726177446976696465 PUSH1 0x0 DUP3 ADD MSTORE PUSH32 0x6E642064697361626C65642E20557365207468652027636C61696D272066756E PUSH1 0x20 DUP3 ADD MSTORE PUSH32 0x6374696F6E206F6E20746865206D61696E2042414259544F4B454E20636F6E74 PUSH1 0x40 DUP3 ADD MSTORE PUSH32 0x726163742E000000000000000000000000000000000000000000000000000000 PUSH1 0x60 DUP3 ADD MSTORE POP JUMP JUMPDEST PUSH32 0x496E697469616C697A61626C653A20636F6E747261637420697320616C726561 PUSH1 0x0 DUP3 ADD MSTORE PUSH32 0x647920696E697469616C697A6564000000000000000000000000000000000000 PUSH1 0x20 DUP3 ADD MSTORE POP JUMP JUMPDEST PUSH32 0x4469766964656E645F547261636B65723A20636C61696D57616974206D757374 PUSH1 0x0 DUP3 ADD MSTORE PUSH32 0x206265207570646174656420746F206265747765656E203120616E6420323420 PUSH1 0x20 DUP3 ADD MSTORE PUSH32 0x686F757273000000000000000000000000000000000000000000000000000000 PUSH1 0x40 DUP3 ADD MSTORE POP JUMP JUMPDEST PUSH32 0x45524332303A207472616E7366657220616D6F756E7420657863656564732061 PUSH1 0x0 DUP3 ADD MSTORE PUSH32 0x6C6C6F77616E6365000000000000000000000000000000000000000000000000 PUSH1 0x20 DUP3 ADD MSTORE POP JUMP JUMPDEST PUSH32 0x4F776E61626C653A2063616C6C6572206973206E6F7420746865206F776E6572 PUSH1 0x0 DUP3 ADD MSTORE POP JUMP JUMPDEST PUSH32 0x4469766964656E645F547261636B65723A204E6F207472616E73666572732061 PUSH1 0x0 DUP3 ADD MSTORE PUSH32 0x6C6C6F7765640000000000000000000000000000000000000000000000000000 PUSH1 0x20 DUP3 ADD MSTORE POP JUMP JUMPDEST PUSH32 0x45524332303A206275726E2066726F6D20746865207A65726F20616464726573 PUSH1 0x0 DUP3 ADD MSTORE PUSH32 0x7300000000000000000000000000000000000000000000000000000000000000 PUSH1 0x20 DUP3 ADD MSTORE POP JUMP JUMPDEST PUSH32 0x45524332303A20617070726F76652066726F6D20746865207A65726F20616464 PUSH1 0x0 DUP3 ADD MSTORE PUSH32 0x7265737300000000000000000000000000000000000000000000000000000000 PUSH1 0x20 DUP3 ADD MSTORE POP JUMP JUMPDEST PUSH32 0x4469766964656E645F547261636B65723A2043616E6E6F742075706461746520 PUSH1 0x0 DUP3 ADD MSTORE PUSH32 0x636C61696D5761697420746F2073616D652076616C7565000000000000000000 PUSH1 0x20 DUP3 ADD MSTORE POP JUMP JUMPDEST PUSH32 0x45524332303A2064656372656173656420616C6C6F77616E63652062656C6F77 PUSH1 0x0 DUP3 ADD MSTORE PUSH32 0x207A65726F000000000000000000000000000000000000000000000000000000 PUSH1 0x20 DUP3 ADD MSTORE POP JUMP JUMPDEST PUSH32 0x45524332303A206D696E7420746F20746865207A65726F206164647265737300 PUSH1 0x0 DUP3 ADD MSTORE POP JUMP JUMPDEST PUSH2 0x4440 DUP2 PUSH2 0x3DCC JUMP JUMPDEST DUP2 EQ PUSH2 0x444B JUMPI PUSH1 0x0 DUP1 REVERT JUMPDEST POP JUMP JUMPDEST PUSH2 0x4457 DUP2 PUSH2 0x3DDE JUMP JUMPDEST DUP2 EQ PUSH2 0x4462 JUMPI PUSH1 0x0 DUP1 REVERT JUMPDEST POP JUMP JUMPDEST PUSH2 0x446E DUP2 PUSH2 0x3DF0 JUMP JUMPDEST DUP2 EQ PUSH2 0x4479 JUMPI PUSH1 0x0 DUP1 REVERT JUMPDEST POP JUMP JUMPDEST PUSH2 0x4485 DUP2 PUSH2 0x3DFC JUMP JUMPDEST DUP2 EQ PUSH2 0x4490 JUMPI PUSH1 0x0 DUP1 REVERT JUMPDEST POP JUMP JUMPDEST PUSH2 0x449C DUP2 PUSH2 0x3E26 JUMP JUMPDEST DUP2 EQ PUSH2 0x44A7 JUMPI PUSH1 0x0 DUP1 REVERT JUMPDEST POP JUMP INVALID LOG2 PUSH5 0x6970667358 0x22 SLT KECCAK256 0xDC 0xAB LOG0 0xD8 SWAP4 LOG3 CODECOPY 0xD5 0x1F 0xC7 0x2A 0x2B CODECOPY 0x27 SWAP7 0xE7 0xE PUSH19 0xF1D10069C88013B608369D6C2B5A64736F6C63 NUMBER STOP ADDMOD DIV STOP CALLER "
		},
		"gasEstimates": {
			"creation": {
				"codeDepositCost": "3526400",
				"executionCost": "3949",
				"totalCost": "3530349"
			},
			"external": {
				"accumulativeDividendOf(address)": "infinite",
				"allowance(address,address)": "infinite",
				"approve(address,uint256)": "infinite",
				"balanceOf(address)": "1630",
				"claimWait()": "1196",
				"decimals()": "389",
				"decreaseAllowance(address,uint256)": "infinite",
				"distributeCAKEDividends(uint256)": "infinite",
				"dividendOf(address)": "infinite",
				"excludeFromDividends(address)": "infinite",
				"excludedFromDividends(address)": "1657",
				"getAccount(address)": "infinite",
				"getAccountAtIndex(uint256)": "infinite",
				"getLastProcessedIndex()": "1270",
				"getNumberOfTokenHolders()": "1242",
				"increaseAllowance(address,uint256)": "infinite",
				"initialize(address,uint256)": "infinite",
				"isExcludedFromDividends(address)": "1628",
				"lastClaimTimes(address)": "1582",
				"lastProcessedIndex()": "1263",
				"minimumTokenBalanceForDividends()": "1262",
				"name()": "infinite",
				"owner()": "1268",
				"process(uint256)": "infinite",
				"processAccount(address,bool)": "infinite",
				"renounceOwnership()": "24485",
				"rewardToken()": "1302",
				"setBalance(address,uint256)": "infinite",
				"symbol()": "infinite",
				"totalDividendsDistributed()": "1262",
				"totalSupply()": "1183",
				"transfer(address,uint256)": "1054",
				"transferFrom(address,address,uint256)": "infinite",
				"transferOwnership(address)": "24789",
				"updateClaimWait(uint256)": "24623",
				"updateMinimumTokenBalanceForDividends(uint256)": "21473",
				"withdrawDividend()": "549",
				"withdrawableDividendOf(address)": "infinite",
				"withdrawnDividendOf(address)": "1608"
			},
			"internal": {
				"_transfer(address,address,uint256)": "infinite",
				"canAutoClaim(uint256)": "infinite"
			}
		},
		"methodIdentifiers": {
			"accumulativeDividendOf(address)": "27ce0147",
			"allowance(address,address)": "dd62ed3e",
			"approve(address,uint256)": "095ea7b3",
			"balanceOf(address)": "70a08231",
			"claimWait()": "6f2789ec",
			"decimals()": "313ce567",
			"decreaseAllowance(address,uint256)": "a457c2d7",
			"distributeCAKEDividends(uint256)": "ba72a955",
			"dividendOf(address)": "91b89fba",
			"excludeFromDividends(address)": "31e79db0",
			"excludedFromDividends(address)": "4e7b827f",
			"getAccount(address)": "fbcbc0f1",
			"getAccountAtIndex(uint256)": "5183d6fd",
			"getLastProcessedIndex()": "e7841ec0",
			"getNumberOfTokenHolders()": "09bbedde",
			"increaseAllowance(address,uint256)": "39509351",
			"initialize(address,uint256)": "cd6dc687",
			"isExcludedFromDividends(address)": "c705c569",
			"lastClaimTimes(address)": "226cfa3d",
			"lastProcessedIndex()": "3009a609",
			"minimumTokenBalanceForDividends()": "be10b614",
			"name()": "06fdde03",
			"owner()": "8da5cb5b",
			"process(uint256)": "ffb2c479",
			"processAccount(address,bool)": "bc4c4b37",
			"renounceOwnership()": "715018a6",
			"rewardToken()": "f7c618c1",
			"setBalance(address,uint256)": "e30443bc",
			"symbol()": "95d89b41",
			"totalDividendsDistributed()": "85a6b3ae",
			"totalSupply()": "18160ddd",
			"transfer(address,uint256)": "a9059cbb",
			"transferFrom(address,address,uint256)": "23b872dd",
			"transferOwnership(address)": "f2fde38b",
			"updateClaimWait(uint256)": "e98030c7",
			"updateMinimumTokenBalanceForDividends(uint256)": "0dcb2e89",
			"withdrawDividend()": "6a474002",
			"withdrawableDividendOf(address)": "a8b9d240",
			"withdrawnDividendOf(address)": "aafd847a"
		}
	},
	"abi": [
		{
			"anonymous": false,
			"inputs": [
				{
					"indexed": true,
					"internalType": "address",
					"name": "owner",
					"type": "address"
				},
				{
					"indexed": true,
					"internalType": "address",
					"name": "spender",
					"type": "address"
				},
				{
					"indexed": false,
					"internalType": "uint256",
					"name": "value",
					"type": "uint256"
				}
			],
			"name": "Approval",
			"type": "event"
		},
		{
			"anonymous": false,
			"inputs": [
				{
					"indexed": true,
					"internalType": "address",
					"name": "account",
					"type": "address"
				},
				{
					"indexed": false,
					"internalType": "uint256",
					"name": "amount",
					"type": "uint256"
				},
				{
					"indexed": true,
					"internalType": "bool",
					"name": "automatic",
					"type": "bool"
				}
			],
			"name": "Claim",
			"type": "event"
		},
		{
			"anonymous": false,
			"inputs": [
				{
					"indexed": true,
					"internalType": "uint256",
					"name": "newValue",
					"type": "uint256"
				},
				{
					"indexed": true,
					"internalType": "uint256",
					"name": "oldValue",
					"type": "uint256"
				}
			],
			"name": "ClaimWaitUpdated",
			"type": "event"
		},
		{
			"anonymous": false,
			"inputs": [
				{
					"indexed": true,
					"internalType": "address",
					"name": "to",
					"type": "address"
				},
				{
					"indexed": false,
					"internalType": "uint256",
					"name": "weiAmount",
					"type": "uint256"
				}
			],
			"name": "DividendWithdrawn",
			"type": "event"
		},
		{
			"anonymous": false,
			"inputs": [
				{
					"indexed": true,
					"internalType": "address",
					"name": "from",
					"type": "address"
				},
				{
					"indexed": false,
					"internalType": "uint256",
					"name": "weiAmount",
					"type": "uint256"
				}
			],
			"name": "DividendsDistributed",
			"type": "event"
		},
		{
			"anonymous": false,
			"inputs": [
				{
					"indexed": true,
					"internalType": "address",
					"name": "account",
					"type": "address"
				}
			],
			"name": "ExcludeFromDividends",
			"type": "event"
		},
		{
			"anonymous": false,
			"inputs": [
				{
					"indexed": true,
					"internalType": "address",
					"name": "previousOwner",
					"type": "address"
				},
				{
					"indexed": true,
					"internalType": "address",
					"name": "newOwner",
					"type": "address"
				}
			],
			"name": "OwnershipTransferred",
			"type": "event"
		},
		{
			"anonymous": false,
			"inputs": [
				{
					"indexed": true,
					"internalType": "address",
					"name": "from",
					"type": "address"
				},
				{
					"indexed": true,
					"internalType": "address",
					"name": "to",
					"type": "address"
				},
				{
					"indexed": false,
					"internalType": "uint256",
					"name": "value",
					"type": "uint256"
				}
			],
			"name": "Transfer",
			"type": "event"
		},
		{
			"inputs": [
				{
					"internalType": "address",
					"name": "_owner",
					"type": "address"
				}
			],
			"name": "accumulativeDividendOf",
			"outputs": [
				{
					"internalType": "uint256",
					"name": "",
					"type": "uint256"
				}
			],
			"stateMutability": "view",
			"type": "function"
		},
		{
			"inputs": [
				{
					"internalType": "address",
					"name": "owner",
					"type": "address"
				},
				{
					"internalType": "address",
					"name": "spender",
					"type": "address"
				}
			],
			"name": "allowance",
			"outputs": [
				{
					"internalType": "uint256",
					"name": "",
					"type": "uint256"
				}
			],
			"stateMutability": "view",
			"type": "function"
		},
		{
			"inputs": [
				{
					"internalType": "address",
					"name": "spender",
					"type": "address"
				},
				{
					"internalType": "uint256",
					"name": "amount",
					"type": "uint256"
				}
			],
			"name": "approve",
			"outputs": [
				{
					"internalType": "bool",
					"name": "",
					"type": "bool"
				}
			],
			"stateMutability": "nonpayable",
			"type": "function"
		},
		{
			"inputs": [
				{
					"internalType": "address",
					"name": "account",
					"type": "address"
				}
			],
			"name": "balanceOf",
			"outputs": [
				{
					"internalType": "uint256",
					"name": "",
					"type": "uint256"
				}
			],
			"stateMutability": "view",
			"type": "function"
		},
		{
			"inputs": [],
			"name": "claimWait",
			"outputs": [
				{
					"internalType": "uint256",
					"name": "",
					"type": "uint256"
				}
			],
			"stateMutability": "view",
			"type": "function"
		},
		{
			"inputs": [],
			"name": "decimals",
			"outputs": [
				{
					"internalType": "uint8",
					"name": "",
					"type": "uint8"
				}
			],
			"stateMutability": "view",
			"type": "function"
		},
		{
			"inputs": [
				{
					"internalType": "address",
					"name": "spender",
					"type": "address"
				},
				{
					"internalType": "uint256",
					"name": "subtractedValue",
					"type": "uint256"
				}
			],
			"name": "decreaseAllowance",
			"outputs": [
				{
					"internalType": "bool",
					"name": "",
					"type": "bool"
				}
			],
			"stateMutability": "nonpayable",
			"type": "function"
		},
		{
			"inputs": [
				{
					"internalType": "uint256",
					"name": "amount",
					"type": "uint256"
				}
			],
			"name": "distributeCAKEDividends",
			"outputs": [],
			"stateMutability": "nonpayable",
			"type": "function"
		},
		{
			"inputs": [
				{
					"internalType": "address",
					"name": "_owner",
					"type": "address"
				}
			],
			"name": "dividendOf",
			"outputs": [
				{
					"internalType": "uint256",
					"name": "",
					"type": "uint256"
				}
			],
			"stateMutability": "view",
			"type": "function"
		},
		{
			"inputs": [
				{
					"internalType": "address",
					"name": "account",
					"type": "address"
				}
			],
			"name": "excludeFromDividends",
			"outputs": [],
			"stateMutability": "nonpayable",
			"type": "function"
		},
		{
			"inputs": [
				{
					"internalType": "address",
					"name": "",
					"type": "address"
				}
			],
			"name": "excludedFromDividends",
			"outputs": [
				{
					"internalType": "bool",
					"name": "",
					"type": "bool"
				}
			],
			"stateMutability": "view",
			"type": "function"
		},
		{
			"inputs": [
				{
					"internalType": "address",
					"name": "_account",
					"type": "address"
				}
			],
			"name": "getAccount",
			"outputs": [
				{
					"internalType": "address",
					"name": "account",
					"type": "address"
				},
				{
					"internalType": "int256",
					"name": "index",
					"type": "int256"
				},
				{
					"internalType": "int256",
					"name": "iterationsUntilProcessed",
					"type": "int256"
				},
				{
					"internalType": "uint256",
					"name": "withdrawableDividends",
					"type": "uint256"
				},
				{
					"internalType": "uint256",
					"name": "totalDividends",
					"type": "uint256"
				},
				{
					"internalType": "uint256",
					"name": "lastClaimTime",
					"type": "uint256"
				},
				{
					"internalType": "uint256",
					"name": "nextClaimTime",
					"type": "uint256"
				},
				{
					"internalType": "uint256",
					"name": "secondsUntilAutoClaimAvailable",
					"type": "uint256"
				}
			],
			"stateMutability": "view",
			"type": "function"
		},
		{
			"inputs": [
				{
					"internalType": "uint256",
					"name": "index",
					"type": "uint256"
				}
			],
			"name": "getAccountAtIndex",
			"outputs": [
				{
					"internalType": "address",
					"name": "",
					"type": "address"
				},
				{
					"internalType": "int256",
					"name": "",
					"type": "int256"
				},
				{
					"internalType": "int256",
					"name": "",
					"type": "int256"
				},
				{
					"internalType": "uint256",
					"name": "",
					"type": "uint256"
				},
				{
					"internalType": "uint256",
					"name": "",
					"type": "uint256"
				},
				{
					"internalType": "uint256",
					"name": "",
					"type": "uint256"
				},
				{
					"internalType": "uint256",
					"name": "",
					"type": "uint256"
				},
				{
					"internalType": "uint256",
					"name": "",
					"type": "uint256"
				}
			],
			"stateMutability": "view",
			"type": "function"
		},
		{
			"inputs": [],
			"name": "getLastProcessedIndex",
			"outputs": [
				{
					"internalType": "uint256",
					"name": "",
					"type": "uint256"
				}
			],
			"stateMutability": "view",
			"type": "function"
		},
		{
			"inputs": [],
			"name": "getNumberOfTokenHolders",
			"outputs": [
				{
					"internalType": "uint256",
					"name": "",
					"type": "uint256"
				}
			],
			"stateMutability": "view",
			"type": "function"
		},
		{
			"inputs": [
				{
					"internalType": "address",
					"name": "spender",
					"type": "address"
				},
				{
					"internalType": "uint256",
					"name": "addedValue",
					"type": "uint256"
				}
			],
			"name": "increaseAllowance",
			"outputs": [
				{
					"internalType": "bool",
					"name": "",
					"type": "bool"
				}
			],
			"stateMutability": "nonpayable",
			"type": "function"
		},
		{
			"inputs": [
				{
					"internalType": "address",
					"name": "rewardToken_",
					"type": "address"
				},
				{
					"internalType": "uint256",
					"name": "minimumTokenBalanceForDividends_",
					"type": "uint256"
				}
			],
			"name": "initialize",
			"outputs": [],
			"stateMutability": "nonpayable",
			"type": "function"
		},
		{
			"inputs": [
				{
					"internalType": "address",
					"name": "account",
					"type": "address"
				}
			],
			"name": "isExcludedFromDividends",
			"outputs": [
				{
					"internalType": "bool",
					"name": "",
					"type": "bool"
				}
			],
			"stateMutability": "view",
			"type": "function"
		},
		{
			"inputs": [
				{
					"internalType": "address",
					"name": "",
					"type": "address"
				}
			],
			"name": "lastClaimTimes",
			"outputs": [
				{
					"internalType": "uint256",
					"name": "",
					"type": "uint256"
				}
			],
			"stateMutability": "view",
			"type": "function"
		},
		{
			"inputs": [],
			"name": "lastProcessedIndex",
			"outputs": [
				{
					"internalType": "uint256",
					"name": "",
					"type": "uint256"
				}
			],
			"stateMutability": "view",
			"type": "function"
		},
		{
			"inputs": [],
			"name": "minimumTokenBalanceForDividends",
			"outputs": [
				{
					"internalType": "uint256",
					"name": "",
					"type": "uint256"
				}
			],
			"stateMutability": "view",
			"type": "function"
		},
		{
			"inputs": [],
			"name": "name",
			"outputs": [
				{
					"internalType": "string",
					"name": "",
					"type": "string"
				}
			],
			"stateMutability": "view",
			"type": "function"
		},
		{
			"inputs": [],
			"name": "owner",
			"outputs": [
				{
					"internalType": "address",
					"name": "",
					"type": "address"
				}
			],
			"stateMutability": "view",
			"type": "function"
		},
		{
			"inputs": [
				{
					"internalType": "uint256",
					"name": "gas",
					"type": "uint256"
				}
			],
			"name": "process",
			"outputs": [
				{
					"internalType": "uint256",
					"name": "",
					"type": "uint256"
				},
				{
					"internalType": "uint256",
					"name": "",
					"type": "uint256"
				},
				{
					"internalType": "uint256",
					"name": "",
					"type": "uint256"
				}
			],
			"stateMutability": "nonpayable",
			"type": "function"
		},
		{
			"inputs": [
				{
					"internalType": "address payable",
					"name": "account",
					"type": "address"
				},
				{
					"internalType": "bool",
					"name": "automatic",
					"type": "bool"
				}
			],
			"name": "processAccount",
			"outputs": [
				{
					"internalType": "bool",
					"name": "",
					"type": "bool"
				}
			],
			"stateMutability": "nonpayable",
			"type": "function"
		},
		{
			"inputs": [],
			"name": "renounceOwnership",
			"outputs": [],
			"stateMutability": "nonpayable",
			"type": "function"
		},
		{
			"inputs": [],
			"name": "rewardToken",
			"outputs": [
				{
					"internalType": "address",
					"name": "",
					"type": "address"
				}
			],
			"stateMutability": "view",
			"type": "function"
		},
		{
			"inputs": [
				{
					"internalType": "address payable",
					"name": "account",
					"type": "address"
				},
				{
					"internalType": "uint256",
					"name": "newBalance",
					"type": "uint256"
				}
			],
			"name": "setBalance",
			"outputs": [],
			"stateMutability": "nonpayable",
			"type": "function"
		},
		{
			"inputs": [],
			"name": "symbol",
			"outputs": [
				{
					"internalType": "string",
					"name": "",
					"type": "string"
				}
			],
			"stateMutability": "view",
			"type": "function"
		},
		{
			"inputs": [],
			"name": "totalDividendsDistributed",
			"outputs": [
				{
					"internalType": "uint256",
					"name": "",
					"type": "uint256"
				}
			],
			"stateMutability": "view",
			"type": "function"
		},
		{
			"inputs": [],
			"name": "totalSupply",
			"outputs": [
				{
					"internalType": "uint256",
					"name": "",
					"type": "uint256"
				}
			],
			"stateMutability": "view",
			"type": "function"
		},
		{
			"inputs": [
				{
					"internalType": "address",
					"name": "recipient",
					"type": "address"
				},
				{
					"internalType": "uint256",
					"name": "amount",
					"type": "uint256"
				}
			],
			"name": "transfer",
			"outputs": [
				{
					"internalType": "bool",
					"name": "",
					"type": "bool"
				}
			],
			"stateMutability": "nonpayable",
			"type": "function"
		},
		{
			"inputs": [
				{
					"internalType": "address",
					"name": "sender",
					"type": "address"
				},
				{
					"internalType": "address",
					"name": "recipient",
					"type": "address"
				},
				{
					"internalType": "uint256",
					"name": "amount",
					"type": "uint256"
				}
			],
			"name": "transferFrom",
			"outputs": [
				{
					"internalType": "bool",
					"name": "",
					"type": "bool"
				}
			],
			"stateMutability": "nonpayable",
			"type": "function"
		},
		{
			"inputs": [
				{
					"internalType": "address",
					"name": "newOwner",
					"type": "address"
				}
			],
			"name": "transferOwnership",
			"outputs": [],
			"stateMutability": "nonpayable",
			"type": "function"
		},
		{
			"inputs": [
				{
					"internalType": "uint256",
					"name": "newClaimWait",
					"type": "uint256"
				}
			],
			"name": "updateClaimWait",
			"outputs": [],
			"stateMutability": "nonpayable",
			"type": "function"
		},
		{
			"inputs": [
				{
					"internalType": "uint256",
					"name": "amount",
					"type": "uint256"
				}
			],
			"name": "updateMinimumTokenBalanceForDividends",
			"outputs": [],
			"stateMutability": "nonpayable",
			"type": "function"
		},
		{
			"inputs": [],
			"name": "withdrawDividend",
			"outputs": [],
			"stateMutability": "pure",
			"type": "function"
		},
		{
			"inputs": [
				{
					"internalType": "address",
					"name": "_owner",
					"type": "address"
				}
			],
			"name": "withdrawableDividendOf",
			"outputs": [
				{
					"internalType": "uint256",
					"name": "",
					"type": "uint256"
				}
			],
			"stateMutability": "view",
			"type": "function"
		},
		{
			"inputs": [
				{
					"internalType": "address",
					"name": "_owner",
					"type": "address"
				}
			],
			"name": "withdrawnDividendOf",
			"outputs": [
				{
					"internalType": "uint256",
					"name": "",
					"type": "uint256"
				}
			],
			"stateMutability": "view",
			"type": "function"
		}
	]
}