{
	"contract/examples/temp.sol": {
		"Instance": {
			"abi": [
				{
					"inputs": [
						{
							"internalType": "string",
							"name": "_password",
							"type": "string"
						}
					],
					"stateMutability": "nonpayable",
					"type": "constructor"
				},
				{
					"inputs": [
						{
							"internalType": "string",
							"name": "passkey",
							"type": "string"
						}
					],
					"name": "authenticate",
					"outputs": [],
					"stateMutability": "nonpayable",
					"type": "function"
				},
				{
					"inputs": [],
					"name": "getCleared",
					"outputs": [
						{
							"internalType": "bool",
							"name": "",
							"type": "bool"
						}
					],
					"stateMutability": "view",
					"type": "function"
				},
				{
					"inputs": [],
					"name": "info",
					"outputs": [
						{
							"internalType": "string",
							"name": "",
							"type": "string"
						}
					],
					"stateMutability": "pure",
					"type": "function"
				},
				{
					"inputs": [],
					"name": "info1",
					"outputs": [
						{
							"internalType": "string",
							"name": "",
							"type": "string"
						}
					],
					"stateMutability": "pure",
					"type": "function"
				},
				{
					"inputs": [
						{
							"internalType": "string",
							"name": "param",
							"type": "string"
						}
					],
					"name": "info2",
					"outputs": [
						{
							"internalType": "string",
							"name": "",
							"type": "string"
						}
					],
					"stateMutability": "pure",
					"type": "function"
				},
				{
					"inputs": [],
					"name": "info42",
					"outputs": [
						{
							"internalType": "string",
							"name": "",
							"type": "string"
						}
					],
					"stateMutability": "pure",
					"type": "function"
				},
				{
					"inputs": [],
					"name": "infoNum",
					"outputs": [
						{
							"internalType": "uint8",
							"name": "",
							"type": "uint8"
						}
					],
					"stateMutability": "view",
					"type": "function"
				},
				{
					"inputs": [],
					"name": "method7123949",
					"outputs": [
						{
							"internalType": "string",
							"name": "",
							"type": "string"
						}
					],
					"stateMutability": "pure",
					"type": "function"
				},
				{
					"inputs": [],
					"name": "password",
					"outputs": [
						{
							"internalType": "string",
							"name": "",
							"type": "string"
						}
					],
					"stateMutability": "view",
					"type": "function"
				},
				{
					"inputs": [
						{
							"internalType": "address",
							"name": "mine",
							"type": "address"
						}
					],
					"name": "test",
					"outputs": [
						{
							"internalType": "string",
							"name": "",
							"type": "string"
						}
					],
					"stateMutability": "pure",
					"type": "function"
				},
				{
					"inputs": [],
					"name": "theMethodName",
					"outputs": [
						{
							"internalType": "string",
							"name": "",
							"type": "string"
						}
					],
					"stateMutability": "view",
					"type": "function"
				}
			],
			"devdoc": {
				"kind": "dev",
				"methods": {},
				"version": 1
			},
			"evm": {
				"assembly": "    /* \"contract/examples/temp.sol\":60:1518  contract Instance {\r... */\n  mstore(0x40, 0x80)\n    /* \"contract/examples/temp.sol\":135:137  42 */\n  0x2a\n    /* \"contract/examples/temp.sol\":112:137  uint8 public infoNum = 42 */\n  0x01\n  exp(0x0100, 0x00)\n  dup2\n  sload\n  dup2\n  0xff\n  mul\n  not\n  and\n  swap1\n  dup4\n  0xff\n  and\n  mul\n  or\n  swap1\n  sstore\n  pop\n    /* \"contract/examples/temp.sol\":142:207  string public theMethodName = 'The method name is method7123949.' */\n  mload(0x40)\n  dup1\n  0x60\n  add\n  0x40\n  mstore\n  dup1\n  0x21\n  dup2\n  mstore\n  0x20\n  add\n  data_2503729b55249c4b028e6f2096d6b89f944fb9a85cc43b0282b5f35806c55069\n  0x21\n  swap2\n  codecopy\n  0x02\n  swap1\n  dup1\n  mload\n  swap1\n  0x20\n  add\n  swap1\n  tag_1\n  swap3\n  swap2\n  swap1\n  tag_2\n  jump\t// in\ntag_1:\n  pop\n    /* \"contract/examples/temp.sol\":235:240  false */\n  0x00\n    /* \"contract/examples/temp.sol\":212:240  bool private cleared = false */\n  0x03\n  exp(0x0100, 0x00)\n  dup2\n  sload\n  dup2\n  0xff\n  mul\n  not\n  and\n  swap1\n  dup4\n  iszero\n  iszero\n  mul\n  or\n  swap1\n  sstore\n  pop\n    /* \"contract/examples/temp.sol\":265:335  constructor(string memory _password) {\r... */\n  callvalue\n  dup1\n  iszero\n  tag_3\n  jumpi\n  0x00\n  dup1\n  revert\ntag_3:\n  pop\n  mload(0x40)\n  sub(codesize, bytecodeSize)\n  dup1\n  bytecodeSize\n  dup4\n  codecopy\n  dup2\n  dup2\n  add\n  0x40\n  mstore\n  dup2\n  add\n  swap1\n  tag_4\n  swap2\n  swap1\n  tag_5\n  jump\t// in\ntag_4:\n    /* \"contract/examples/temp.sol\":320:329  _password */\n  dup1\n    /* \"contract/examples/temp.sol\":309:317  password */\n  0x00\n    /* \"contract/examples/temp.sol\":309:329  password = _password */\n  swap1\n  dup1\n  mload\n  swap1\n  0x20\n  add\n  swap1\n  tag_8\n  swap3\n  swap2\n  swap1\n  tag_2\n  jump\t// in\ntag_8:\n  pop\n    /* \"contract/examples/temp.sol\":265:335  constructor(string memory _password) {\r... */\n  pop\n    /* \"contract/examples/temp.sol\":60:1518  contract Instance {\r... */\n  jump(tag_9)\ntag_2:\n  dup3\n  dup1\n  sload\n  tag_10\n  swap1\n  tag_11\n  jump\t// in\ntag_10:\n  swap1\n  0x00\n  mstore\n  keccak256(0x00, 0x20)\n  swap1\n  0x1f\n  add\n  0x20\n  swap1\n  div\n  dup2\n  add\n  swap3\n  dup3\n  tag_13\n  jumpi\n  0x00\n  dup6\n  sstore\n  jump(tag_12)\ntag_13:\n  dup3\n  0x1f\n  lt\n  tag_14\n  jumpi\n  dup1\n  mload\n  not(0xff)\n  and\n  dup4\n  dup1\n  add\n  or\n  dup6\n  sstore\n  jump(tag_12)\ntag_14:\n  dup3\n  dup1\n  add\n  0x01\n  add\n  dup6\n  sstore\n  dup3\n  iszero\n  tag_12\n  jumpi\n  swap2\n  dup3\n  add\ntag_15:\n  dup3\n  dup2\n  gt\n  iszero\n  tag_16\n  jumpi\n  dup3\n  mload\n  dup3\n  sstore\n  swap2\n  0x20\n  add\n  swap2\n  swap1\n  0x01\n  add\n  swap1\n  jump(tag_15)\ntag_16:\ntag_12:\n  pop\n  swap1\n  pop\n  tag_17\n  swap2\n  swap1\n  tag_18\n  jump\t// in\ntag_17:\n  pop\n  swap1\n  jump\t// out\ntag_18:\ntag_19:\n  dup1\n  dup3\n  gt\n  iszero\n  tag_20\n  jumpi\n  0x00\n  dup2\n  0x00\n  swap1\n  sstore\n  pop\n  0x01\n  add\n  jump(tag_19)\ntag_20:\n  pop\n  swap1\n  jump\t// out\n    /* \"#utility.yul\":7:428   */\ntag_22:\n    /* \"#utility.yul\":96:101   */\n  0x00\n    /* \"#utility.yul\":121:187   */\n  tag_24\n    /* \"#utility.yul\":137:186   */\n  tag_25\n    /* \"#utility.yul\":179:185   */\n  dup5\n    /* \"#utility.yul\":137:186   */\n  tag_26\n  jump\t// in\ntag_25:\n    /* \"#utility.yul\":121:187   */\n  tag_27\n  jump\t// in\ntag_24:\n    /* \"#utility.yul\":112:187   */\n  swap1\n  pop\n    /* \"#utility.yul\":210:216   */\n  dup3\n    /* \"#utility.yul\":203:208   */\n  dup2\n    /* \"#utility.yul\":196:217   */\n  mstore\n    /* \"#utility.yul\":248:252   */\n  0x20\n    /* \"#utility.yul\":241:246   */\n  dup2\n    /* \"#utility.yul\":237:253   */\n  add\n    /* \"#utility.yul\":286:289   */\n  dup5\n    /* \"#utility.yul\":277:283   */\n  dup5\n    /* \"#utility.yul\":272:275   */\n  dup5\n    /* \"#utility.yul\":268:284   */\n  add\n    /* \"#utility.yul\":265:290   */\n  gt\n    /* \"#utility.yul\":262:374   */\n  iszero\n  tag_28\n  jumpi\n    /* \"#utility.yul\":293:372   */\n  tag_29\n  tag_30\n  jump\t// in\ntag_29:\n    /* \"#utility.yul\":262:374   */\ntag_28:\n    /* \"#utility.yul\":383:422   */\n  tag_31\n    /* \"#utility.yul\":415:421   */\n  dup5\n    /* \"#utility.yul\":410:413   */\n  dup3\n    /* \"#utility.yul\":405:408   */\n  dup6\n    /* \"#utility.yul\":383:422   */\n  tag_32\n  jump\t// in\ntag_31:\n    /* \"#utility.yul\":102:428   */\n  pop\n    /* \"#utility.yul\":7:428   */\n  swap4\n  swap3\n  pop\n  pop\n  pop\n  jump\t// out\n    /* \"#utility.yul\":448:803   */\ntag_33:\n    /* \"#utility.yul\":515:520   */\n  0x00\n    /* \"#utility.yul\":564:567   */\n  dup3\n    /* \"#utility.yul\":557:561   */\n  0x1f\n    /* \"#utility.yul\":549:555   */\n  dup4\n    /* \"#utility.yul\":545:562   */\n  add\n    /* \"#utility.yul\":541:568   */\n  slt\n    /* \"#utility.yul\":531:653   */\n  tag_35\n  jumpi\n    /* \"#utility.yul\":572:651   */\n  tag_36\n  tag_37\n  jump\t// in\ntag_36:\n    /* \"#utility.yul\":531:653   */\ntag_35:\n    /* \"#utility.yul\":682:688   */\n  dup2\n    /* \"#utility.yul\":676:689   */\n  mload\n    /* \"#utility.yul\":707:797   */\n  tag_38\n    /* \"#utility.yul\":793:796   */\n  dup5\n    /* \"#utility.yul\":785:791   */\n  dup3\n    /* \"#utility.yul\":778:782   */\n  0x20\n    /* \"#utility.yul\":770:776   */\n  dup7\n    /* \"#utility.yul\":766:783   */\n  add\n    /* \"#utility.yul\":707:797   */\n  tag_22\n  jump\t// in\ntag_38:\n    /* \"#utility.yul\":698:797   */\n  swap2\n  pop\n    /* \"#utility.yul\":521:803   */\n  pop\n    /* \"#utility.yul\":448:803   */\n  swap3\n  swap2\n  pop\n  pop\n  jump\t// out\n    /* \"#utility.yul\":809:1333   */\ntag_5:\n    /* \"#utility.yul\":889:895   */\n  0x00\n    /* \"#utility.yul\":938:940   */\n  0x20\n    /* \"#utility.yul\":926:935   */\n  dup3\n    /* \"#utility.yul\":917:924   */\n  dup5\n    /* \"#utility.yul\":913:936   */\n  sub\n    /* \"#utility.yul\":909:941   */\n  slt\n    /* \"#utility.yul\":906:1025   */\n  iszero\n  tag_40\n  jumpi\n    /* \"#utility.yul\":944:1023   */\n  tag_41\n  tag_42\n  jump\t// in\ntag_41:\n    /* \"#utility.yul\":906:1025   */\ntag_40:\n    /* \"#utility.yul\":1085:1086   */\n  0x00\n    /* \"#utility.yul\":1074:1083   */\n  dup3\n    /* \"#utility.yul\":1070:1087   */\n  add\n    /* \"#utility.yul\":1064:1088   */\n  mload\n    /* \"#utility.yul\":1115:1133   */\n  0xffffffffffffffff\n    /* \"#utility.yul\":1107:1113   */\n  dup2\n    /* \"#utility.yul\":1104:1134   */\n  gt\n    /* \"#utility.yul\":1101:1218   */\n  iszero\n  tag_43\n  jumpi\n    /* \"#utility.yul\":1137:1216   */\n  tag_44\n  tag_45\n  jump\t// in\ntag_44:\n    /* \"#utility.yul\":1101:1218   */\ntag_43:\n    /* \"#utility.yul\":1242:1316   */\n  tag_46\n    /* \"#utility.yul\":1308:1315   */\n  dup5\n    /* \"#utility.yul\":1299:1305   */\n  dup3\n    /* \"#utility.yul\":1288:1297   */\n  dup6\n    /* \"#utility.yul\":1284:1306   */\n  add\n    /* \"#utility.yul\":1242:1316   */\n  tag_33\n  jump\t// in\ntag_46:\n    /* \"#utility.yul\":1232:1316   */\n  swap2\n  pop\n    /* \"#utility.yul\":1035:1326   */\n  pop\n    /* \"#utility.yul\":809:1333   */\n  swap3\n  swap2\n  pop\n  pop\n  jump\t// out\n    /* \"#utility.yul\":1339:1468   */\ntag_27:\n    /* \"#utility.yul\":1373:1379   */\n  0x00\n    /* \"#utility.yul\":1400:1420   */\n  tag_48\n  tag_49\n  jump\t// in\ntag_48:\n    /* \"#utility.yul\":1390:1420   */\n  swap1\n  pop\n    /* \"#utility.yul\":1429:1462   */\n  tag_50\n    /* \"#utility.yul\":1457:1461   */\n  dup3\n    /* \"#utility.yul\":1449:1455   */\n  dup3\n    /* \"#utility.yul\":1429:1462   */\n  tag_51\n  jump\t// in\ntag_50:\n    /* \"#utility.yul\":1339:1468   */\n  swap2\n  swap1\n  pop\n  jump\t// out\n    /* \"#utility.yul\":1474:1549   */\ntag_49:\n    /* \"#utility.yul\":1507:1513   */\n  0x00\n    /* \"#utility.yul\":1540:1542   */\n  0x40\n    /* \"#utility.yul\":1534:1543   */\n  mload\n    /* \"#utility.yul\":1524:1543   */\n  swap1\n  pop\n    /* \"#utility.yul\":1474:1549   */\n  swap1\n  jump\t// out\n    /* \"#utility.yul\":1555:1863   */\ntag_26:\n    /* \"#utility.yul\":1617:1621   */\n  0x00\n    /* \"#utility.yul\":1707:1725   */\n  0xffffffffffffffff\n    /* \"#utility.yul\":1699:1705   */\n  dup3\n    /* \"#utility.yul\":1696:1726   */\n  gt\n    /* \"#utility.yul\":1693:1749   */\n  iszero\n  tag_54\n  jumpi\n    /* \"#utility.yul\":1729:1747   */\n  tag_55\n  tag_56\n  jump\t// in\ntag_55:\n    /* \"#utility.yul\":1693:1749   */\ntag_54:\n    /* \"#utility.yul\":1767:1796   */\n  tag_57\n    /* \"#utility.yul\":1789:1795   */\n  dup3\n    /* \"#utility.yul\":1767:1796   */\n  tag_58\n  jump\t// in\ntag_57:\n    /* \"#utility.yul\":1759:1796   */\n  swap1\n  pop\n    /* \"#utility.yul\":1851:1855   */\n  0x20\n    /* \"#utility.yul\":1845:1849   */\n  dup2\n    /* \"#utility.yul\":1841:1856   */\n  add\n    /* \"#utility.yul\":1833:1856   */\n  swap1\n  pop\n    /* \"#utility.yul\":1555:1863   */\n  swap2\n  swap1\n  pop\n  jump\t// out\n    /* \"#utility.yul\":1869:2176   */\ntag_32:\n    /* \"#utility.yul\":1937:1938   */\n  0x00\n    /* \"#utility.yul\":1947:2060   */\ntag_60:\n    /* \"#utility.yul\":1961:1967   */\n  dup4\n    /* \"#utility.yul\":1958:1959   */\n  dup2\n    /* \"#utility.yul\":1955:1968   */\n  lt\n    /* \"#utility.yul\":1947:2060   */\n  iszero\n  tag_62\n  jumpi\n    /* \"#utility.yul\":2046:2047   */\n  dup1\n    /* \"#utility.yul\":2041:2044   */\n  dup3\n    /* \"#utility.yul\":2037:2048   */\n  add\n    /* \"#utility.yul\":2031:2049   */\n  mload\n    /* \"#utility.yul\":2027:2028   */\n  dup2\n    /* \"#utility.yul\":2022:2025   */\n  dup5\n    /* \"#utility.yul\":2018:2029   */\n  add\n    /* \"#utility.yul\":2011:2050   */\n  mstore\n    /* \"#utility.yul\":1983:1985   */\n  0x20\n    /* \"#utility.yul\":1980:1981   */\n  dup2\n    /* \"#utility.yul\":1976:1986   */\n  add\n    /* \"#utility.yul\":1971:1986   */\n  swap1\n  pop\n    /* \"#utility.yul\":1947:2060   */\n  jump(tag_60)\ntag_62:\n    /* \"#utility.yul\":2078:2084   */\n  dup4\n    /* \"#utility.yul\":2075:2076   */\n  dup2\n    /* \"#utility.yul\":2072:2085   */\n  gt\n    /* \"#utility.yul\":2069:2170   */\n  iszero\n  tag_63\n  jumpi\n    /* \"#utility.yul\":2158:2159   */\n  0x00\n    /* \"#utility.yul\":2149:2155   */\n  dup5\n    /* \"#utility.yul\":2144:2147   */\n  dup5\n    /* \"#utility.yul\":2140:2156   */\n  add\n    /* \"#utility.yul\":2133:2160   */\n  mstore\n    /* \"#utility.yul\":2069:2170   */\ntag_63:\n    /* \"#utility.yul\":1918:2176   */\n  pop\n    /* \"#utility.yul\":1869:2176   */\n  pop\n  pop\n  pop\n  jump\t// out\n    /* \"#utility.yul\":2182:2502   */\ntag_11:\n    /* \"#utility.yul\":2226:2232   */\n  0x00\n    /* \"#utility.yul\":2263:2264   */\n  0x02\n    /* \"#utility.yul\":2257:2261   */\n  dup3\n    /* \"#utility.yul\":2253:2265   */\n  div\n    /* \"#utility.yul\":2243:2265   */\n  swap1\n  pop\n    /* \"#utility.yul\":2310:2311   */\n  0x01\n    /* \"#utility.yul\":2304:2308   */\n  dup3\n    /* \"#utility.yul\":2300:2312   */\n  and\n    /* \"#utility.yul\":2331:2349   */\n  dup1\n    /* \"#utility.yul\":2321:2402   */\n  tag_65\n  jumpi\n    /* \"#utility.yul\":2387:2391   */\n  0x7f\n    /* \"#utility.yul\":2379:2385   */\n  dup3\n    /* \"#utility.yul\":2375:2392   */\n  and\n    /* \"#utility.yul\":2365:2392   */\n  swap2\n  pop\n    /* \"#utility.yul\":2321:2402   */\ntag_65:\n    /* \"#utility.yul\":2449:2451   */\n  0x20\n    /* \"#utility.yul\":2441:2447   */\n  dup3\n    /* \"#utility.yul\":2438:2452   */\n  lt\n    /* \"#utility.yul\":2418:2436   */\n  dup2\n    /* \"#utility.yul\":2415:2453   */\n  eq\n    /* \"#utility.yul\":2412:2496   */\n  iszero\n  tag_66\n  jumpi\n    /* \"#utility.yul\":2468:2486   */\n  tag_67\n  tag_68\n  jump\t// in\ntag_67:\n    /* \"#utility.yul\":2412:2496   */\ntag_66:\n    /* \"#utility.yul\":2233:2502   */\n  pop\n    /* \"#utility.yul\":2182:2502   */\n  swap2\n  swap1\n  pop\n  jump\t// out\n    /* \"#utility.yul\":2508:2789   */\ntag_51:\n    /* \"#utility.yul\":2591:2618   */\n  tag_70\n    /* \"#utility.yul\":2613:2617   */\n  dup3\n    /* \"#utility.yul\":2591:2618   */\n  tag_58\n  jump\t// in\ntag_70:\n    /* \"#utility.yul\":2583:2589   */\n  dup2\n    /* \"#utility.yul\":2579:2619   */\n  add\n    /* \"#utility.yul\":2721:2727   */\n  dup2\n    /* \"#utility.yul\":2709:2719   */\n  dup2\n    /* \"#utility.yul\":2706:2728   */\n  lt\n    /* \"#utility.yul\":2685:2703   */\n  0xffffffffffffffff\n    /* \"#utility.yul\":2673:2683   */\n  dup3\n    /* \"#utility.yul\":2670:2704   */\n  gt\n    /* \"#utility.yul\":2667:2729   */\n  or\n    /* \"#utility.yul\":2664:2752   */\n  iszero\n  tag_71\n  jumpi\n    /* \"#utility.yul\":2732:2750   */\n  tag_72\n  tag_56\n  jump\t// in\ntag_72:\n    /* \"#utility.yul\":2664:2752   */\ntag_71:\n    /* \"#utility.yul\":2772:2782   */\n  dup1\n    /* \"#utility.yul\":2768:2770   */\n  0x40\n    /* \"#utility.yul\":2761:2783   */\n  mstore\n    /* \"#utility.yul\":2551:2789   */\n  pop\n    /* \"#utility.yul\":2508:2789   */\n  pop\n  pop\n  jump\t// out\n    /* \"#utility.yul\":2795:2975   */\ntag_68:\n    /* \"#utility.yul\":2843:2920   */\n  0x4e487b7100000000000000000000000000000000000000000000000000000000\n    /* \"#utility.yul\":2840:2841   */\n  0x00\n    /* \"#utility.yul\":2833:2921   */\n  mstore\n    /* \"#utility.yul\":2940:2944   */\n  0x22\n    /* \"#utility.yul\":2937:2938   */\n  0x04\n    /* \"#utility.yul\":2930:2945   */\n  mstore\n    /* \"#utility.yul\":2964:2968   */\n  0x24\n    /* \"#utility.yul\":2961:2962   */\n  0x00\n    /* \"#utility.yul\":2954:2969   */\n  revert\n    /* \"#utility.yul\":2981:3161   */\ntag_56:\n    /* \"#utility.yul\":3029:3106   */\n  0x4e487b7100000000000000000000000000000000000000000000000000000000\n    /* \"#utility.yul\":3026:3027   */\n  0x00\n    /* \"#utility.yul\":3019:3107   */\n  mstore\n    /* \"#utility.yul\":3126:3130   */\n  0x41\n    /* \"#utility.yul\":3123:3124   */\n  0x04\n    /* \"#utility.yul\":3116:3131   */\n  mstore\n    /* \"#utility.yul\":3150:3154   */\n  0x24\n    /* \"#utility.yul\":3147:3148   */\n  0x00\n    /* \"#utility.yul\":3140:3155   */\n  revert\n    /* \"#utility.yul\":3167:3284   */\ntag_37:\n    /* \"#utility.yul\":3276:3277   */\n  0x00\n    /* \"#utility.yul\":3273:3274   */\n  dup1\n    /* \"#utility.yul\":3266:3278   */\n  revert\n    /* \"#utility.yul\":3290:3407   */\ntag_30:\n    /* \"#utility.yul\":3399:3400   */\n  0x00\n    /* \"#utility.yul\":3396:3397   */\n  dup1\n    /* \"#utility.yul\":3389:3401   */\n  revert\n    /* \"#utility.yul\":3413:3530   */\ntag_45:\n    /* \"#utility.yul\":3522:3523   */\n  0x00\n    /* \"#utility.yul\":3519:3520   */\n  dup1\n    /* \"#utility.yul\":3512:3524   */\n  revert\n    /* \"#utility.yul\":3536:3653   */\ntag_42:\n    /* \"#utility.yul\":3645:3646   */\n  0x00\n    /* \"#utility.yul\":3642:3643   */\n  dup1\n    /* \"#utility.yul\":3635:3647   */\n  revert\n    /* \"#utility.yul\":3659:3761   */\ntag_58:\n    /* \"#utility.yul\":3700:3706   */\n  0x00\n    /* \"#utility.yul\":3751:3753   */\n  0x1f\n    /* \"#utility.yul\":3747:3754   */\n  not\n    /* \"#utility.yul\":3742:3744   */\n  0x1f\n    /* \"#utility.yul\":3735:3740   */\n  dup4\n    /* \"#utility.yul\":3731:3745   */\n  add\n    /* \"#utility.yul\":3727:3755   */\n  and\n    /* \"#utility.yul\":3717:3755   */\n  swap1\n  pop\n    /* \"#utility.yul\":3659:3761   */\n  swap2\n  swap1\n  pop\n  jump\t// out\n    /* \"contract/examples/temp.sol\":60:1518  contract Instance {\r... */\ntag_9:\n  dataSize(sub_0)\n  dup1\n  dataOffset(sub_0)\n  0x00\n  codecopy\n  0x00\n  return\nstop\ndata_2503729b55249c4b028e6f2096d6b89f944fb9a85cc43b0282b5f35806c55069 546865206d6574686f64206e616d65206973206d6574686f64373132333934392e\n\nsub_0: assembly {\n        /* \"contract/examples/temp.sol\":60:1518  contract Instance {\r... */\n      mstore(0x40, 0x80)\n      callvalue\n      dup1\n      iszero\n      tag_1\n      jumpi\n      0x00\n      dup1\n      revert\n    tag_1:\n      pop\n      jumpi(tag_2, lt(calldatasize, 0x04))\n      shr(0xe0, calldataload(0x00))\n      dup1\n      0xaa613b29\n      gt\n      tag_14\n      jumpi\n      dup1\n      0xaa613b29\n      eq\n      tag_8\n      jumpi\n      dup1\n      0xbb29998e\n      eq\n      tag_9\n      jumpi\n      dup1\n      0xc253aebe\n      eq\n      tag_10\n      jumpi\n      dup1\n      0xd4c3cf44\n      eq\n      tag_11\n      jumpi\n      dup1\n      0xf0bc7081\n      eq\n      tag_12\n      jumpi\n      dup1\n      0xf157a1e3\n      eq\n      tag_13\n      jumpi\n      jump(tag_2)\n    tag_14:\n      dup1\n      0x2133b6a9\n      eq\n      tag_3\n      jumpi\n      dup1\n      0x224b610b\n      eq\n      tag_4\n      jumpi\n      dup1\n      0x2cbd79a5\n      eq\n      tag_5\n      jumpi\n      dup1\n      0x370158ea\n      eq\n      tag_6\n      jumpi\n      dup1\n      0x3c848d78\n      eq\n      tag_7\n      jumpi\n    tag_2:\n      0x00\n      dup1\n      revert\n        /* \"contract/examples/temp.sol\":689:980  function info2(string memory param) public pure returns (string memory) {\r... */\n    tag_3:\n      tag_15\n      0x04\n      dup1\n      calldatasize\n      sub\n      dup2\n      add\n      swap1\n      tag_16\n      swap2\n      swap1\n      tag_17\n      jump\t// in\n    tag_16:\n      tag_18\n      jump\t// in\n    tag_15:\n      mload(0x40)\n      tag_19\n      swap2\n      swap1\n      tag_20\n      jump\t// in\n    tag_19:\n      mload(0x40)\n      dup1\n      swap2\n      sub\n      swap1\n      return\n        /* \"contract/examples/temp.sol\":85:107  string public password */\n    tag_4:\n      tag_21\n      tag_22\n      jump\t// in\n    tag_21:\n      mload(0x40)\n      tag_23\n      swap2\n      swap1\n      tag_20\n      jump\t// in\n    tag_23:\n      mload(0x40)\n      dup1\n      swap2\n      sub\n      swap1\n      return\n        /* \"contract/examples/temp.sol\":986:1107  function info42() public pure returns (string memory) {\r... */\n    tag_5:\n      tag_24\n      tag_25\n      jump\t// in\n    tag_24:\n      mload(0x40)\n      tag_26\n      swap2\n      swap1\n      tag_20\n      jump\t// in\n    tag_26:\n      mload(0x40)\n      dup1\n      swap2\n      sub\n      swap1\n      return\n        /* \"contract/examples/temp.sol\":341:454  function info() public pure returns (string memory) {\r... */\n    tag_6:\n      tag_27\n      tag_28\n      jump\t// in\n    tag_27:\n      mload(0x40)\n      tag_29\n      swap2\n      swap1\n      tag_20\n      jump\t// in\n    tag_29:\n      mload(0x40)\n      dup1\n      swap2\n      sub\n      swap1\n      return\n        /* \"contract/examples/temp.sol\":1439:1515  function getCleared() public view returns (bool) {\r... */\n    tag_7:\n      tag_30\n      tag_31\n      jump\t// in\n    tag_30:\n      mload(0x40)\n      tag_32\n      swap2\n      swap1\n      tag_33\n      jump\t// in\n    tag_32:\n      mload(0x40)\n      dup1\n      swap2\n      sub\n      swap1\n      return\n        /* \"contract/examples/temp.sol\":1256:1433  function authenticate(string memory passkey) public {\r... */\n    tag_8:\n      tag_34\n      0x04\n      dup1\n      calldatasize\n      sub\n      dup2\n      add\n      swap1\n      tag_35\n      swap2\n      swap1\n      tag_17\n      jump\t// in\n    tag_35:\n      tag_36\n      jump\t// in\n    tag_34:\n      stop\n        /* \"contract/examples/temp.sol\":586:683  function test(address mine) public pure returns (string memory){\r... */\n    tag_9:\n      tag_37\n      0x04\n      dup1\n      calldatasize\n      sub\n      dup2\n      add\n      swap1\n      tag_38\n      swap2\n      swap1\n      tag_39\n      jump\t// in\n    tag_38:\n      tag_40\n      jump\t// in\n    tag_37:\n      mload(0x40)\n      tag_41\n      swap2\n      swap1\n      tag_20\n      jump\t// in\n    tag_41:\n      mload(0x40)\n      dup1\n      swap2\n      sub\n      swap1\n      return\n        /* \"contract/examples/temp.sol\":112:137  uint8 public infoNum = 42 */\n    tag_10:\n      tag_42\n      tag_43\n      jump\t// in\n    tag_42:\n      mload(0x40)\n      tag_44\n      swap2\n      swap1\n      tag_45\n      jump\t// in\n    tag_44:\n      mload(0x40)\n      dup1\n      swap2\n      sub\n      swap1\n      return\n        /* \"contract/examples/temp.sol\":460:580  function info1() public pure returns (string memory) {\r... */\n    tag_11:\n      tag_46\n      tag_47\n      jump\t// in\n    tag_46:\n      mload(0x40)\n      tag_48\n      swap2\n      swap1\n      tag_20\n      jump\t// in\n    tag_48:\n      mload(0x40)\n      dup1\n      swap2\n      sub\n      swap1\n      return\n        /* \"contract/examples/temp.sol\":1113:1250  function method7123949() public pure returns (string memory) {\r... */\n    tag_12:\n      tag_49\n      tag_50\n      jump\t// in\n    tag_49:\n      mload(0x40)\n      tag_51\n      swap2\n      swap1\n      tag_20\n      jump\t// in\n    tag_51:\n      mload(0x40)\n      dup1\n      swap2\n      sub\n      swap1\n      return\n        /* \"contract/examples/temp.sol\":142:207  string public theMethodName = 'The method name is method7123949.' */\n    tag_13:\n      tag_52\n      tag_53\n      jump\t// in\n    tag_52:\n      mload(0x40)\n      tag_54\n      swap2\n      swap1\n      tag_20\n      jump\t// in\n    tag_54:\n      mload(0x40)\n      dup1\n      swap2\n      sub\n      swap1\n      return\n        /* \"contract/examples/temp.sol\":689:980  function info2(string memory param) public pure returns (string memory) {\r... */\n    tag_18:\n        /* \"contract/examples/temp.sol\":746:759  string memory */\n      0x60\n        /* \"contract/examples/temp.sol\":819:844  abi.encodePacked('hello') */\n      add(0x20, mload(0x40))\n      tag_56\n      swap1\n      tag_57\n      jump\t// in\n    tag_56:\n      mload(0x40)\n      0x20\n      dup2\n      dup4\n      sub\n      sub\n      dup2\n      mstore\n      swap1\n      0x40\n      mstore\n        /* \"contract/examples/temp.sol\":809:845  keccak256(abi.encodePacked('hello')) */\n      dup1\n      mload\n      swap1\n      0x20\n      add\n      keccak256\n        /* \"contract/examples/temp.sol\":798:803  param */\n      dup3\n        /* \"contract/examples/temp.sol\":781:804  abi.encodePacked(param) */\n      add(0x20, mload(0x40))\n      tag_58\n      swap2\n      swap1\n      tag_59\n      jump\t// in\n    tag_58:\n      mload(0x40)\n      0x20\n      dup2\n      dup4\n      sub\n      sub\n      dup2\n      mstore\n      swap1\n      0x40\n      mstore\n        /* \"contract/examples/temp.sol\":771:805  keccak256(abi.encodePacked(param)) */\n      dup1\n      mload\n      swap1\n      0x20\n      add\n      keccak256\n        /* \"contract/examples/temp.sol\":771:845  keccak256(abi.encodePacked(param)) == keccak256(abi.encodePacked('hello')) */\n      eq\n        /* \"contract/examples/temp.sol\":768:943  if(keccak256(abi.encodePacked(param)) == keccak256(abi.encodePacked('hello'))) {\r... */\n      iszero\n      tag_60\n      jumpi\n        /* \"contract/examples/temp.sol\":856:935  return 'The property infoNum holds the number of the next info method to call.' */\n      mload(0x40)\n      dup1\n      0x80\n      add\n      0x40\n      mstore\n      dup1\n      0x46\n      dup2\n      mstore\n      0x20\n      add\n      data_a26c21bc8ea9f1905c121a3e7c63d5faa421793a4139df3ccd3efa57db938b49\n      0x46\n      swap2\n      codecopy\n      swap1\n      pop\n      jump(tag_55)\n        /* \"contract/examples/temp.sol\":768:943  if(keccak256(abi.encodePacked(param)) == keccak256(abi.encodePacked('hello'))) {\r... */\n    tag_60:\n        /* \"contract/examples/temp.sol\":949:974  return 'Wrong parameter.' */\n      mload(0x40)\n      dup1\n      0x40\n      add\n      0x40\n      mstore\n      dup1\n      0x10\n      dup2\n      mstore\n      0x20\n      add\n      0x57726f6e6720706172616d657465722e00000000000000000000000000000000\n      dup2\n      mstore\n      pop\n      swap1\n      pop\n        /* \"contract/examples/temp.sol\":689:980  function info2(string memory param) public pure returns (string memory) {\r... */\n    tag_55:\n      swap2\n      swap1\n      pop\n      jump\t// out\n        /* \"contract/examples/temp.sol\":85:107  string public password */\n    tag_22:\n      0x00\n      dup1\n      sload\n      tag_61\n      swap1\n      tag_62\n      jump\t// in\n    tag_61:\n      dup1\n      0x1f\n      add\n      0x20\n      dup1\n      swap2\n      div\n      mul\n      0x20\n      add\n      mload(0x40)\n      swap1\n      dup2\n      add\n      0x40\n      mstore\n      dup1\n      swap3\n      swap2\n      swap1\n      dup2\n      dup2\n      mstore\n      0x20\n      add\n      dup3\n      dup1\n      sload\n      tag_63\n      swap1\n      tag_62\n      jump\t// in\n    tag_63:\n      dup1\n      iszero\n      tag_64\n      jumpi\n      dup1\n      0x1f\n      lt\n      tag_65\n      jumpi\n      0x0100\n      dup1\n      dup4\n      sload\n      div\n      mul\n      dup4\n      mstore\n      swap2\n      0x20\n      add\n      swap2\n      jump(tag_64)\n    tag_65:\n      dup3\n      add\n      swap2\n      swap1\n      0x00\n      mstore\n      keccak256(0x00, 0x20)\n      swap1\n    tag_66:\n      dup2\n      sload\n      dup2\n      mstore\n      swap1\n      0x01\n      add\n      swap1\n      0x20\n      add\n      dup1\n      dup4\n      gt\n      tag_66\n      jumpi\n      dup3\n      swap1\n      sub\n      0x1f\n      and\n      dup3\n      add\n      swap2\n    tag_64:\n      pop\n      pop\n      pop\n      pop\n      pop\n      dup2\n      jump\t// out\n        /* \"contract/examples/temp.sol\":986:1107  function info42() public pure returns (string memory) {\r... */\n    tag_25:\n        /* \"contract/examples/temp.sol\":1025:1038  string memory */\n      0x60\n        /* \"contract/examples/temp.sol\":1047:1101  return 'theMethodName is the name of the next method.' */\n      mload(0x40)\n      dup1\n      0x60\n      add\n      0x40\n      mstore\n      dup1\n      0x2d\n      dup2\n      mstore\n      0x20\n      add\n      data_d3c61225f9e7dd0de370751940991ab402a99f7bbcaf9201287a0b5252a87460\n      0x2d\n      swap2\n      codecopy\n      swap1\n      pop\n        /* \"contract/examples/temp.sol\":986:1107  function info42() public pure returns (string memory) {\r... */\n      swap1\n      jump\t// out\n        /* \"contract/examples/temp.sol\":341:454  function info() public pure returns (string memory) {\r... */\n    tag_28:\n        /* \"contract/examples/temp.sol\":378:391  string memory */\n      0x60\n        /* \"contract/examples/temp.sol\":400:448  return 'You will find what you need in info1().' */\n      mload(0x40)\n      dup1\n      0x60\n      add\n      0x40\n      mstore\n      dup1\n      0x27\n      dup2\n      mstore\n      0x20\n      add\n      data_18d33c94a1f5bb5701ef5da354369b4581c035d41d6a326f82d98a41ea642808\n      0x27\n      swap2\n      codecopy\n      swap1\n      pop\n        /* \"contract/examples/temp.sol\":341:454  function info() public pure returns (string memory) {\r... */\n      swap1\n      jump\t// out\n        /* \"contract/examples/temp.sol\":1439:1515  function getCleared() public view returns (bool) {\r... */\n    tag_31:\n        /* \"contract/examples/temp.sol\":1482:1486  bool */\n      0x00\n        /* \"contract/examples/temp.sol\":1502:1509  cleared */\n      0x03\n      0x00\n      swap1\n      sload\n      swap1\n      0x0100\n      exp\n      swap1\n      div\n      0xff\n      and\n        /* \"contract/examples/temp.sol\":1495:1509  return cleared */\n      swap1\n      pop\n        /* \"contract/examples/temp.sol\":1439:1515  function getCleared() public view returns (bool) {\r... */\n      swap1\n      jump\t// out\n        /* \"contract/examples/temp.sol\":1256:1433  function authenticate(string memory passkey) public {\r... */\n    tag_36:\n        /* \"contract/examples/temp.sol\":1385:1393  password */\n      0x00\n        /* \"contract/examples/temp.sol\":1368:1394  abi.encodePacked(password) */\n      add(0x20, mload(0x40))\n      tag_71\n      swap2\n      swap1\n      tag_72\n      jump\t// in\n    tag_71:\n      mload(0x40)\n      0x20\n      dup2\n      dup4\n      sub\n      sub\n      dup2\n      mstore\n      swap1\n      0x40\n      mstore\n        /* \"contract/examples/temp.sol\":1358:1395  keccak256(abi.encodePacked(password)) */\n      dup1\n      mload\n      swap1\n      0x20\n      add\n      keccak256\n        /* \"contract/examples/temp.sol\":1345:1352  passkey */\n      dup2\n        /* \"contract/examples/temp.sol\":1328:1353  abi.encodePacked(passkey) */\n      add(0x20, mload(0x40))\n      tag_73\n      swap2\n      swap1\n      tag_59\n      jump\t// in\n    tag_73:\n      mload(0x40)\n      0x20\n      dup2\n      dup4\n      sub\n      sub\n      dup2\n      mstore\n      swap1\n      0x40\n      mstore\n        /* \"contract/examples/temp.sol\":1318:1354  keccak256(abi.encodePacked(passkey)) */\n      dup1\n      mload\n      swap1\n      0x20\n      add\n      keccak256\n        /* \"contract/examples/temp.sol\":1318:1395  keccak256(abi.encodePacked(passkey)) == keccak256(abi.encodePacked(password)) */\n      eq\n        /* \"contract/examples/temp.sol\":1315:1428  if(keccak256(abi.encodePacked(passkey)) == keccak256(abi.encodePacked(password))) {\r... */\n      iszero\n      tag_74\n      jumpi\n        /* \"contract/examples/temp.sol\":1416:1420  true */\n      0x01\n        /* \"contract/examples/temp.sol\":1406:1413  cleared */\n      0x03\n      0x00\n        /* \"contract/examples/temp.sol\":1406:1420  cleared = true */\n      0x0100\n      exp\n      dup2\n      sload\n      dup2\n      0xff\n      mul\n      not\n      and\n      swap1\n      dup4\n      iszero\n      iszero\n      mul\n      or\n      swap1\n      sstore\n      pop\n        /* \"contract/examples/temp.sol\":1315:1428  if(keccak256(abi.encodePacked(passkey)) == keccak256(abi.encodePacked(password))) {\r... */\n    tag_74:\n        /* \"contract/examples/temp.sol\":1256:1433  function authenticate(string memory passkey) public {\r... */\n      pop\n      jump\t// out\n        /* \"contract/examples/temp.sol\":586:683  function test(address mine) public pure returns (string memory){\r... */\n    tag_40:\n        /* \"contract/examples/temp.sol\":635:648  string memory */\n      0x60\n        /* \"contract/examples/temp.sol\":657:677  return 'hello world' */\n      mload(0x40)\n      dup1\n      0x40\n      add\n      0x40\n      mstore\n      dup1\n      0x0b\n      dup2\n      mstore\n      0x20\n      add\n      0x68656c6c6f20776f726c64000000000000000000000000000000000000000000\n      dup2\n      mstore\n      pop\n      swap1\n      pop\n        /* \"contract/examples/temp.sol\":586:683  function test(address mine) public pure returns (string memory){\r... */\n      swap2\n      swap1\n      pop\n      jump\t// out\n        /* \"contract/examples/temp.sol\":112:137  uint8 public infoNum = 42 */\n    tag_43:\n      0x01\n      0x00\n      swap1\n      sload\n      swap1\n      0x0100\n      exp\n      swap1\n      div\n      0xff\n      and\n      dup2\n      jump\t// out\n        /* \"contract/examples/temp.sol\":460:580  function info1() public pure returns (string memory) {\r... */\n    tag_47:\n        /* \"contract/examples/temp.sol\":498:511  string memory */\n      0x60\n        /* \"contract/examples/temp.sol\":520:574  return 'Try info2(), but with \"hello\" as a parameter.' */\n      mload(0x40)\n      dup1\n      0x60\n      add\n      0x40\n      mstore\n      dup1\n      0x2d\n      dup2\n      mstore\n      0x20\n      add\n      data_51dac7487e2d0ffee8bbada3222ae17c9f840227ebf43e11e3b82307a719b75b\n      0x2d\n      swap2\n      codecopy\n      swap1\n      pop\n        /* \"contract/examples/temp.sol\":460:580  function info1() public pure returns (string memory) {\r... */\n      swap1\n      jump\t// out\n        /* \"contract/examples/temp.sol\":1113:1250  function method7123949() public pure returns (string memory) {\r... */\n    tag_50:\n        /* \"contract/examples/temp.sol\":1159:1172  string memory */\n      0x60\n        /* \"contract/examples/temp.sol\":1181:1244  return 'If you know the password, submit it to authenticate().' */\n      mload(0x40)\n      dup1\n      0x60\n      add\n      0x40\n      mstore\n      dup1\n      0x36\n      dup2\n      mstore\n      0x20\n      add\n      data_a43a77889820039a1512b30dd7e1f8d4a6e69caa9b58da067871b4225bd2ef4d\n      0x36\n      swap2\n      codecopy\n      swap1\n      pop\n        /* \"contract/examples/temp.sol\":1113:1250  function method7123949() public pure returns (string memory) {\r... */\n      swap1\n      jump\t// out\n        /* \"contract/examples/temp.sol\":142:207  string public theMethodName = 'The method name is method7123949.' */\n    tag_53:\n      0x02\n      dup1\n      sload\n      tag_78\n      swap1\n      tag_62\n      jump\t// in\n    tag_78:\n      dup1\n      0x1f\n      add\n      0x20\n      dup1\n      swap2\n      div\n      mul\n      0x20\n      add\n      mload(0x40)\n      swap1\n      dup2\n      add\n      0x40\n      mstore\n      dup1\n      swap3\n      swap2\n      swap1\n      dup2\n      dup2\n      mstore\n      0x20\n      add\n      dup3\n      dup1\n      sload\n      tag_79\n      swap1\n      tag_62\n      jump\t// in\n    tag_79:\n      dup1\n      iszero\n      tag_80\n      jumpi\n      dup1\n      0x1f\n      lt\n      tag_81\n      jumpi\n      0x0100\n      dup1\n      dup4\n      sload\n      div\n      mul\n      dup4\n      mstore\n      swap2\n      0x20\n      add\n      swap2\n      jump(tag_80)\n    tag_81:\n      dup3\n      add\n      swap2\n      swap1\n      0x00\n      mstore\n      keccak256(0x00, 0x20)\n      swap1\n    tag_82:\n      dup2\n      sload\n      dup2\n      mstore\n      swap1\n      0x01\n      add\n      swap1\n      0x20\n      add\n      dup1\n      dup4\n      gt\n      tag_82\n      jumpi\n      dup3\n      swap1\n      sub\n      0x1f\n      and\n      dup3\n      add\n      swap2\n    tag_80:\n      pop\n      pop\n      pop\n      pop\n      pop\n      dup2\n      jump\t// out\n        /* \"#utility.yul\":7:419   */\n    tag_84:\n        /* \"#utility.yul\":85:90   */\n      0x00\n        /* \"#utility.yul\":110:176   */\n      tag_86\n        /* \"#utility.yul\":126:175   */\n      tag_87\n        /* \"#utility.yul\":168:174   */\n      dup5\n        /* \"#utility.yul\":126:175   */\n      tag_88\n      jump\t// in\n    tag_87:\n        /* \"#utility.yul\":110:176   */\n      tag_89\n      jump\t// in\n    tag_86:\n        /* \"#utility.yul\":101:176   */\n      swap1\n      pop\n        /* \"#utility.yul\":199:205   */\n      dup3\n        /* \"#utility.yul\":192:197   */\n      dup2\n        /* \"#utility.yul\":185:206   */\n      mstore\n        /* \"#utility.yul\":237:241   */\n      0x20\n        /* \"#utility.yul\":230:235   */\n      dup2\n        /* \"#utility.yul\":226:242   */\n      add\n        /* \"#utility.yul\":275:278   */\n      dup5\n        /* \"#utility.yul\":266:272   */\n      dup5\n        /* \"#utility.yul\":261:264   */\n      dup5\n        /* \"#utility.yul\":257:273   */\n      add\n        /* \"#utility.yul\":254:279   */\n      gt\n        /* \"#utility.yul\":251:363   */\n      iszero\n      tag_90\n      jumpi\n        /* \"#utility.yul\":282:361   */\n      tag_91\n      tag_92\n      jump\t// in\n    tag_91:\n        /* \"#utility.yul\":251:363   */\n    tag_90:\n        /* \"#utility.yul\":372:413   */\n      tag_93\n        /* \"#utility.yul\":406:412   */\n      dup5\n        /* \"#utility.yul\":401:404   */\n      dup3\n        /* \"#utility.yul\":396:399   */\n      dup6\n        /* \"#utility.yul\":372:413   */\n      tag_94\n      jump\t// in\n    tag_93:\n        /* \"#utility.yul\":91:419   */\n      pop\n        /* \"#utility.yul\":7:419   */\n      swap4\n      swap3\n      pop\n      pop\n      pop\n      jump\t// out\n        /* \"#utility.yul\":425:564   */\n    tag_95:\n        /* \"#utility.yul\":471:476   */\n      0x00\n        /* \"#utility.yul\":509:515   */\n      dup2\n        /* \"#utility.yul\":496:516   */\n      calldataload\n        /* \"#utility.yul\":487:516   */\n      swap1\n      pop\n        /* \"#utility.yul\":525:558   */\n      tag_97\n        /* \"#utility.yul\":552:557   */\n      dup2\n        /* \"#utility.yul\":525:558   */\n      tag_98\n      jump\t// in\n    tag_97:\n        /* \"#utility.yul\":425:564   */\n      swap3\n      swap2\n      pop\n      pop\n      jump\t// out\n        /* \"#utility.yul\":584:924   */\n    tag_99:\n        /* \"#utility.yul\":640:645   */\n      0x00\n        /* \"#utility.yul\":689:692   */\n      dup3\n        /* \"#utility.yul\":682:686   */\n      0x1f\n        /* \"#utility.yul\":674:680   */\n      dup4\n        /* \"#utility.yul\":670:687   */\n      add\n        /* \"#utility.yul\":666:693   */\n      slt\n        /* \"#utility.yul\":656:778   */\n      tag_101\n      jumpi\n        /* \"#utility.yul\":697:776   */\n      tag_102\n      tag_103\n      jump\t// in\n    tag_102:\n        /* \"#utility.yul\":656:778   */\n    tag_101:\n        /* \"#utility.yul\":814:820   */\n      dup2\n        /* \"#utility.yul\":801:821   */\n      calldataload\n        /* \"#utility.yul\":839:918   */\n      tag_104\n        /* \"#utility.yul\":914:917   */\n      dup5\n        /* \"#utility.yul\":906:912   */\n      dup3\n        /* \"#utility.yul\":899:903   */\n      0x20\n        /* \"#utility.yul\":891:897   */\n      dup7\n        /* \"#utility.yul\":887:904   */\n      add\n        /* \"#utility.yul\":839:918   */\n      tag_84\n      jump\t// in\n    tag_104:\n        /* \"#utility.yul\":830:918   */\n      swap2\n      pop\n        /* \"#utility.yul\":646:924   */\n      pop\n        /* \"#utility.yul\":584:924   */\n      swap3\n      swap2\n      pop\n      pop\n      jump\t// out\n        /* \"#utility.yul\":930:1259   */\n    tag_39:\n        /* \"#utility.yul\":989:995   */\n      0x00\n        /* \"#utility.yul\":1038:1040   */\n      0x20\n        /* \"#utility.yul\":1026:1035   */\n      dup3\n        /* \"#utility.yul\":1017:1024   */\n      dup5\n        /* \"#utility.yul\":1013:1036   */\n      sub\n        /* \"#utility.yul\":1009:1041   */\n      slt\n        /* \"#utility.yul\":1006:1125   */\n      iszero\n      tag_106\n      jumpi\n        /* \"#utility.yul\":1044:1123   */\n      tag_107\n      tag_108\n      jump\t// in\n    tag_107:\n        /* \"#utility.yul\":1006:1125   */\n    tag_106:\n        /* \"#utility.yul\":1164:1165   */\n      0x00\n        /* \"#utility.yul\":1189:1242   */\n      tag_109\n        /* \"#utility.yul\":1234:1241   */\n      dup5\n        /* \"#utility.yul\":1225:1231   */\n      dup3\n        /* \"#utility.yul\":1214:1223   */\n      dup6\n        /* \"#utility.yul\":1210:1232   */\n      add\n        /* \"#utility.yul\":1189:1242   */\n      tag_95\n      jump\t// in\n    tag_109:\n        /* \"#utility.yul\":1179:1242   */\n      swap2\n      pop\n        /* \"#utility.yul\":1135:1252   */\n      pop\n        /* \"#utility.yul\":930:1259   */\n      swap3\n      swap2\n      pop\n      pop\n      jump\t// out\n        /* \"#utility.yul\":1265:1774   */\n    tag_17:\n        /* \"#utility.yul\":1334:1340   */\n      0x00\n        /* \"#utility.yul\":1383:1385   */\n      0x20\n        /* \"#utility.yul\":1371:1380   */\n      dup3\n        /* \"#utility.yul\":1362:1369   */\n      dup5\n        /* \"#utility.yul\":1358:1381   */\n      sub\n        /* \"#utility.yul\":1354:1386   */\n      slt\n        /* \"#utility.yul\":1351:1470   */\n      iszero\n      tag_111\n      jumpi\n        /* \"#utility.yul\":1389:1468   */\n      tag_112\n      tag_108\n      jump\t// in\n    tag_112:\n        /* \"#utility.yul\":1351:1470   */\n    tag_111:\n        /* \"#utility.yul\":1537:1538   */\n      0x00\n        /* \"#utility.yul\":1526:1535   */\n      dup3\n        /* \"#utility.yul\":1522:1539   */\n      add\n        /* \"#utility.yul\":1509:1540   */\n      calldataload\n        /* \"#utility.yul\":1567:1585   */\n      0xffffffffffffffff\n        /* \"#utility.yul\":1559:1565   */\n      dup2\n        /* \"#utility.yul\":1556:1586   */\n      gt\n        /* \"#utility.yul\":1553:1670   */\n      iszero\n      tag_113\n      jumpi\n        /* \"#utility.yul\":1589:1668   */\n      tag_114\n      tag_115\n      jump\t// in\n    tag_114:\n        /* \"#utility.yul\":1553:1670   */\n    tag_113:\n        /* \"#utility.yul\":1694:1757   */\n      tag_116\n        /* \"#utility.yul\":1749:1756   */\n      dup5\n        /* \"#utility.yul\":1740:1746   */\n      dup3\n        /* \"#utility.yul\":1729:1738   */\n      dup6\n        /* \"#utility.yul\":1725:1747   */\n      add\n        /* \"#utility.yul\":1694:1757   */\n      tag_99\n      jump\t// in\n    tag_116:\n        /* \"#utility.yul\":1684:1757   */\n      swap2\n      pop\n        /* \"#utility.yul\":1480:1767   */\n      pop\n        /* \"#utility.yul\":1265:1774   */\n      swap3\n      swap2\n      pop\n      pop\n      jump\t// out\n        /* \"#utility.yul\":1780:1889   */\n    tag_117:\n        /* \"#utility.yul\":1861:1882   */\n      tag_119\n        /* \"#utility.yul\":1876:1881   */\n      dup2\n        /* \"#utility.yul\":1861:1882   */\n      tag_120\n      jump\t// in\n    tag_119:\n        /* \"#utility.yul\":1856:1859   */\n      dup3\n        /* \"#utility.yul\":1849:1883   */\n      mstore\n        /* \"#utility.yul\":1780:1889   */\n      pop\n      pop\n      jump\t// out\n        /* \"#utility.yul\":1895:2259   */\n    tag_121:\n        /* \"#utility.yul\":1983:1986   */\n      0x00\n        /* \"#utility.yul\":2011:2050   */\n      tag_123\n        /* \"#utility.yul\":2044:2049   */\n      dup3\n        /* \"#utility.yul\":2011:2050   */\n      tag_124\n      jump\t// in\n    tag_123:\n        /* \"#utility.yul\":2066:2137   */\n      tag_125\n        /* \"#utility.yul\":2130:2136   */\n      dup2\n        /* \"#utility.yul\":2125:2128   */\n      dup6\n        /* \"#utility.yul\":2066:2137   */\n      tag_126\n      jump\t// in\n    tag_125:\n        /* \"#utility.yul\":2059:2137   */\n      swap4\n      pop\n        /* \"#utility.yul\":2146:2198   */\n      tag_127\n        /* \"#utility.yul\":2191:2197   */\n      dup2\n        /* \"#utility.yul\":2186:2189   */\n      dup6\n        /* \"#utility.yul\":2179:2183   */\n      0x20\n        /* \"#utility.yul\":2172:2177   */\n      dup7\n        /* \"#utility.yul\":2168:2184   */\n      add\n        /* \"#utility.yul\":2146:2198   */\n      tag_128\n      jump\t// in\n    tag_127:\n        /* \"#utility.yul\":2223:2252   */\n      tag_129\n        /* \"#utility.yul\":2245:2251   */\n      dup2\n        /* \"#utility.yul\":2223:2252   */\n      tag_130\n      jump\t// in\n    tag_129:\n        /* \"#utility.yul\":2218:2221   */\n      dup5\n        /* \"#utility.yul\":2214:2253   */\n      add\n        /* \"#utility.yul\":2207:2253   */\n      swap2\n      pop\n        /* \"#utility.yul\":1987:2259   */\n      pop\n        /* \"#utility.yul\":1895:2259   */\n      swap3\n      swap2\n      pop\n      pop\n      jump\t// out\n        /* \"#utility.yul\":2265:2642   */\n    tag_131:\n        /* \"#utility.yul\":2371:2374   */\n      0x00\n        /* \"#utility.yul\":2399:2438   */\n      tag_133\n        /* \"#utility.yul\":2432:2437   */\n      dup3\n        /* \"#utility.yul\":2399:2438   */\n      tag_124\n      jump\t// in\n    tag_133:\n        /* \"#utility.yul\":2454:2543   */\n      tag_134\n        /* \"#utility.yul\":2536:2542   */\n      dup2\n        /* \"#utility.yul\":2531:2534   */\n      dup6\n        /* \"#utility.yul\":2454:2543   */\n      tag_135\n      jump\t// in\n    tag_134:\n        /* \"#utility.yul\":2447:2543   */\n      swap4\n      pop\n        /* \"#utility.yul\":2552:2604   */\n      tag_136\n        /* \"#utility.yul\":2597:2603   */\n      dup2\n        /* \"#utility.yul\":2592:2595   */\n      dup6\n        /* \"#utility.yul\":2585:2589   */\n      0x20\n        /* \"#utility.yul\":2578:2583   */\n      dup7\n        /* \"#utility.yul\":2574:2590   */\n      add\n        /* \"#utility.yul\":2552:2604   */\n      tag_128\n      jump\t// in\n    tag_136:\n        /* \"#utility.yul\":2629:2635   */\n      dup1\n        /* \"#utility.yul\":2624:2627   */\n      dup5\n        /* \"#utility.yul\":2620:2636   */\n      add\n        /* \"#utility.yul\":2613:2636   */\n      swap2\n      pop\n        /* \"#utility.yul\":2375:2642   */\n      pop\n        /* \"#utility.yul\":2265:2642   */\n      swap3\n      swap2\n      pop\n      pop\n      jump\t// out\n        /* \"#utility.yul\":2672:3517   */\n    tag_137:\n        /* \"#utility.yul\":2775:2778   */\n      0x00\n        /* \"#utility.yul\":2812:2817   */\n      dup2\n        /* \"#utility.yul\":2806:2818   */\n      sload\n        /* \"#utility.yul\":2841:2877   */\n      tag_139\n        /* \"#utility.yul\":2867:2876   */\n      dup2\n        /* \"#utility.yul\":2841:2877   */\n      tag_62\n      jump\t// in\n    tag_139:\n        /* \"#utility.yul\":2893:2982   */\n      tag_140\n        /* \"#utility.yul\":2975:2981   */\n      dup2\n        /* \"#utility.yul\":2970:2973   */\n      dup7\n        /* \"#utility.yul\":2893:2982   */\n      tag_135\n      jump\t// in\n    tag_140:\n        /* \"#utility.yul\":2886:2982   */\n      swap5\n      pop\n        /* \"#utility.yul\":3013:3014   */\n      0x01\n        /* \"#utility.yul\":3002:3011   */\n      dup3\n        /* \"#utility.yul\":2998:3015   */\n      and\n        /* \"#utility.yul\":3029:3030   */\n      0x00\n        /* \"#utility.yul\":3024:3161   */\n      dup2\n      eq\n      tag_142\n      jumpi\n        /* \"#utility.yul\":3175:3176   */\n      0x01\n        /* \"#utility.yul\":3170:3511   */\n      dup2\n      eq\n      tag_143\n      jumpi\n        /* \"#utility.yul\":2991:3511   */\n      jump(tag_141)\n        /* \"#utility.yul\":3024:3161   */\n    tag_142:\n        /* \"#utility.yul\":3108:3112   */\n      0xff\n        /* \"#utility.yul\":3104:3113   */\n      not\n        /* \"#utility.yul\":3093:3102   */\n      dup4\n        /* \"#utility.yul\":3089:3114   */\n      and\n        /* \"#utility.yul\":3084:3087   */\n      dup7\n        /* \"#utility.yul\":3077:3115   */\n      mstore\n        /* \"#utility.yul\":3144:3150   */\n      dup2\n        /* \"#utility.yul\":3139:3142   */\n      dup7\n        /* \"#utility.yul\":3135:3151   */\n      add\n        /* \"#utility.yul\":3128:3151   */\n      swap4\n      pop\n        /* \"#utility.yul\":3024:3161   */\n      jump(tag_141)\n        /* \"#utility.yul\":3170:3511   */\n    tag_143:\n        /* \"#utility.yul\":3237:3275   */\n      tag_144\n        /* \"#utility.yul\":3269:3274   */\n      dup6\n        /* \"#utility.yul\":3237:3275   */\n      tag_145\n      jump\t// in\n    tag_144:\n        /* \"#utility.yul\":3297:3298   */\n      0x00\n        /* \"#utility.yul\":3311:3465   */\n    tag_146:\n        /* \"#utility.yul\":3325:3331   */\n      dup4\n        /* \"#utility.yul\":3322:3323   */\n      dup2\n        /* \"#utility.yul\":3319:3332   */\n      lt\n        /* \"#utility.yul\":3311:3465   */\n      iszero\n      tag_148\n      jumpi\n        /* \"#utility.yul\":3399:3406   */\n      dup2\n        /* \"#utility.yul\":3393:3407   */\n      sload\n        /* \"#utility.yul\":3389:3390   */\n      dup2\n        /* \"#utility.yul\":3384:3387   */\n      dup10\n        /* \"#utility.yul\":3380:3391   */\n      add\n        /* \"#utility.yul\":3373:3408   */\n      mstore\n        /* \"#utility.yul\":3449:3450   */\n      0x01\n        /* \"#utility.yul\":3440:3447   */\n      dup3\n        /* \"#utility.yul\":3436:3451   */\n      add\n        /* \"#utility.yul\":3425:3451   */\n      swap2\n      pop\n        /* \"#utility.yul\":3347:3351   */\n      0x20\n        /* \"#utility.yul\":3344:3345   */\n      dup2\n        /* \"#utility.yul\":3340:3352   */\n      add\n        /* \"#utility.yul\":3335:3352   */\n      swap1\n      pop\n        /* \"#utility.yul\":3311:3465   */\n      jump(tag_146)\n    tag_148:\n        /* \"#utility.yul\":3494:3500   */\n      dup4\n        /* \"#utility.yul\":3489:3492   */\n      dup9\n        /* \"#utility.yul\":3485:3501   */\n      add\n        /* \"#utility.yul\":3478:3501   */\n      swap6\n      pop\n        /* \"#utility.yul\":3177:3511   */\n      pop\n      pop\n        /* \"#utility.yul\":2991:3511   */\n    tag_141:\n      pop\n        /* \"#utility.yul\":2779:3517   */\n      pop\n      pop\n        /* \"#utility.yul\":2672:3517   */\n      swap3\n      swap2\n      pop\n      pop\n      jump\t// out\n        /* \"#utility.yul\":3523:3923   */\n    tag_149:\n        /* \"#utility.yul\":3683:3686   */\n      0x00\n        /* \"#utility.yul\":3704:3788   */\n      tag_151\n        /* \"#utility.yul\":3786:3787   */\n      0x05\n        /* \"#utility.yul\":3781:3784   */\n      dup4\n        /* \"#utility.yul\":3704:3788   */\n      tag_135\n      jump\t// in\n    tag_151:\n        /* \"#utility.yul\":3697:3788   */\n      swap2\n      pop\n        /* \"#utility.yul\":3797:3890   */\n      tag_152\n        /* \"#utility.yul\":3886:3889   */\n      dup3\n        /* \"#utility.yul\":3797:3890   */\n      tag_153\n      jump\t// in\n    tag_152:\n        /* \"#utility.yul\":3915:3916   */\n      0x05\n        /* \"#utility.yul\":3910:3913   */\n      dup3\n        /* \"#utility.yul\":3906:3917   */\n      add\n        /* \"#utility.yul\":3899:3917   */\n      swap1\n      pop\n        /* \"#utility.yul\":3523:3923   */\n      swap2\n      swap1\n      pop\n      jump\t// out\n        /* \"#utility.yul\":3929:4041   */\n    tag_154:\n        /* \"#utility.yul\":4012:4034   */\n      tag_156\n        /* \"#utility.yul\":4028:4033   */\n      dup2\n        /* \"#utility.yul\":4012:4034   */\n      tag_157\n      jump\t// in\n    tag_156:\n        /* \"#utility.yul\":4007:4010   */\n      dup3\n        /* \"#utility.yul\":4000:4035   */\n      mstore\n        /* \"#utility.yul\":3929:4041   */\n      pop\n      pop\n      jump\t// out\n        /* \"#utility.yul\":4047:4322   */\n    tag_59:\n        /* \"#utility.yul\":4179:4182   */\n      0x00\n        /* \"#utility.yul\":4201:4296   */\n      tag_159\n        /* \"#utility.yul\":4292:4295   */\n      dup3\n        /* \"#utility.yul\":4283:4289   */\n      dup5\n        /* \"#utility.yul\":4201:4296   */\n      tag_131\n      jump\t// in\n    tag_159:\n        /* \"#utility.yul\":4194:4296   */\n      swap2\n      pop\n        /* \"#utility.yul\":4313:4316   */\n      dup2\n        /* \"#utility.yul\":4306:4316   */\n      swap1\n      pop\n        /* \"#utility.yul\":4047:4322   */\n      swap3\n      swap2\n      pop\n      pop\n      jump\t// out\n        /* \"#utility.yul\":4328:4597   */\n    tag_72:\n        /* \"#utility.yul\":4457:4460   */\n      0x00\n        /* \"#utility.yul\":4479:4571   */\n      tag_161\n        /* \"#utility.yul\":4567:4570   */\n      dup3\n        /* \"#utility.yul\":4558:4564   */\n      dup5\n        /* \"#utility.yul\":4479:4571   */\n      tag_137\n      jump\t// in\n    tag_161:\n        /* \"#utility.yul\":4472:4571   */\n      swap2\n      pop\n        /* \"#utility.yul\":4588:4591   */\n      dup2\n        /* \"#utility.yul\":4581:4591   */\n      swap1\n      pop\n        /* \"#utility.yul\":4328:4597   */\n      swap3\n      swap2\n      pop\n      pop\n      jump\t// out\n        /* \"#utility.yul\":4603:4984   */\n    tag_57:\n        /* \"#utility.yul\":4788:4791   */\n      0x00\n        /* \"#utility.yul\":4810:4958   */\n      tag_163\n        /* \"#utility.yul\":4954:4957   */\n      dup3\n        /* \"#utility.yul\":4810:4958   */\n      tag_149\n      jump\t// in\n    tag_163:\n        /* \"#utility.yul\":4803:4958   */\n      swap2\n      pop\n        /* \"#utility.yul\":4975:4978   */\n      dup2\n        /* \"#utility.yul\":4968:4978   */\n      swap1\n      pop\n        /* \"#utility.yul\":4603:4984   */\n      swap2\n      swap1\n      pop\n      jump\t// out\n        /* \"#utility.yul\":4990:5200   */\n    tag_33:\n        /* \"#utility.yul\":5077:5081   */\n      0x00\n        /* \"#utility.yul\":5115:5117   */\n      0x20\n        /* \"#utility.yul\":5104:5113   */\n      dup3\n        /* \"#utility.yul\":5100:5118   */\n      add\n        /* \"#utility.yul\":5092:5118   */\n      swap1\n      pop\n        /* \"#utility.yul\":5128:5193   */\n      tag_165\n        /* \"#utility.yul\":5190:5191   */\n      0x00\n        /* \"#utility.yul\":5179:5188   */\n      dup4\n        /* \"#utility.yul\":5175:5192   */\n      add\n        /* \"#utility.yul\":5166:5172   */\n      dup5\n        /* \"#utility.yul\":5128:5193   */\n      tag_117\n      jump\t// in\n    tag_165:\n        /* \"#utility.yul\":4990:5200   */\n      swap3\n      swap2\n      pop\n      pop\n      jump\t// out\n        /* \"#utility.yul\":5206:5519   */\n    tag_20:\n        /* \"#utility.yul\":5319:5323   */\n      0x00\n        /* \"#utility.yul\":5357:5359   */\n      0x20\n        /* \"#utility.yul\":5346:5355   */\n      dup3\n        /* \"#utility.yul\":5342:5360   */\n      add\n        /* \"#utility.yul\":5334:5360   */\n      swap1\n      pop\n        /* \"#utility.yul\":5406:5415   */\n      dup2\n        /* \"#utility.yul\":5400:5404   */\n      dup2\n        /* \"#utility.yul\":5396:5416   */\n      sub\n        /* \"#utility.yul\":5392:5393   */\n      0x00\n        /* \"#utility.yul\":5381:5390   */\n      dup4\n        /* \"#utility.yul\":5377:5394   */\n      add\n        /* \"#utility.yul\":5370:5417   */\n      mstore\n        /* \"#utility.yul\":5434:5512   */\n      tag_167\n        /* \"#utility.yul\":5507:5511   */\n      dup2\n        /* \"#utility.yul\":5498:5504   */\n      dup5\n        /* \"#utility.yul\":5434:5512   */\n      tag_121\n      jump\t// in\n    tag_167:\n        /* \"#utility.yul\":5426:5512   */\n      swap1\n      pop\n        /* \"#utility.yul\":5206:5519   */\n      swap3\n      swap2\n      pop\n      pop\n      jump\t// out\n        /* \"#utility.yul\":5525:5739   */\n    tag_45:\n        /* \"#utility.yul\":5614:5618   */\n      0x00\n        /* \"#utility.yul\":5652:5654   */\n      0x20\n        /* \"#utility.yul\":5641:5650   */\n      dup3\n        /* \"#utility.yul\":5637:5655   */\n      add\n        /* \"#utility.yul\":5629:5655   */\n      swap1\n      pop\n        /* \"#utility.yul\":5665:5732   */\n      tag_169\n        /* \"#utility.yul\":5729:5730   */\n      0x00\n        /* \"#utility.yul\":5718:5727   */\n      dup4\n        /* \"#utility.yul\":5714:5731   */\n      add\n        /* \"#utility.yul\":5705:5711   */\n      dup5\n        /* \"#utility.yul\":5665:5732   */\n      tag_154\n      jump\t// in\n    tag_169:\n        /* \"#utility.yul\":5525:5739   */\n      swap3\n      swap2\n      pop\n      pop\n      jump\t// out\n        /* \"#utility.yul\":5745:5874   */\n    tag_89:\n        /* \"#utility.yul\":5779:5785   */\n      0x00\n        /* \"#utility.yul\":5806:5826   */\n      tag_171\n      tag_172\n      jump\t// in\n    tag_171:\n        /* \"#utility.yul\":5796:5826   */\n      swap1\n      pop\n        /* \"#utility.yul\":5835:5868   */\n      tag_173\n        /* \"#utility.yul\":5863:5867   */\n      dup3\n        /* \"#utility.yul\":5855:5861   */\n      dup3\n        /* \"#utility.yul\":5835:5868   */\n      tag_174\n      jump\t// in\n    tag_173:\n        /* \"#utility.yul\":5745:5874   */\n      swap2\n      swap1\n      pop\n      jump\t// out\n        /* \"#utility.yul\":5880:5955   */\n    tag_172:\n        /* \"#utility.yul\":5913:5919   */\n      0x00\n        /* \"#utility.yul\":5946:5948   */\n      0x40\n        /* \"#utility.yul\":5940:5949   */\n      mload\n        /* \"#utility.yul\":5930:5949   */\n      swap1\n      pop\n        /* \"#utility.yul\":5880:5955   */\n      swap1\n      jump\t// out\n        /* \"#utility.yul\":5961:6269   */\n    tag_88:\n        /* \"#utility.yul\":6023:6027   */\n      0x00\n        /* \"#utility.yul\":6113:6131   */\n      0xffffffffffffffff\n        /* \"#utility.yul\":6105:6111   */\n      dup3\n        /* \"#utility.yul\":6102:6132   */\n      gt\n        /* \"#utility.yul\":6099:6155   */\n      iszero\n      tag_177\n      jumpi\n        /* \"#utility.yul\":6135:6153   */\n      tag_178\n      tag_179\n      jump\t// in\n    tag_178:\n        /* \"#utility.yul\":6099:6155   */\n    tag_177:\n        /* \"#utility.yul\":6173:6202   */\n      tag_180\n        /* \"#utility.yul\":6195:6201   */\n      dup3\n        /* \"#utility.yul\":6173:6202   */\n      tag_130\n      jump\t// in\n    tag_180:\n        /* \"#utility.yul\":6165:6202   */\n      swap1\n      pop\n        /* \"#utility.yul\":6257:6261   */\n      0x20\n        /* \"#utility.yul\":6251:6255   */\n      dup2\n        /* \"#utility.yul\":6247:6262   */\n      add\n        /* \"#utility.yul\":6239:6262   */\n      swap1\n      pop\n        /* \"#utility.yul\":5961:6269   */\n      swap2\n      swap1\n      pop\n      jump\t// out\n        /* \"#utility.yul\":6275:6416   */\n    tag_145:\n        /* \"#utility.yul\":6324:6328   */\n      0x00\n        /* \"#utility.yul\":6347:6350   */\n      dup2\n        /* \"#utility.yul\":6339:6350   */\n      swap1\n      pop\n        /* \"#utility.yul\":6370:6373   */\n      dup2\n        /* \"#utility.yul\":6367:6368   */\n      0x00\n        /* \"#utility.yul\":6360:6374   */\n      mstore\n        /* \"#utility.yul\":6404:6408   */\n      0x20\n        /* \"#utility.yul\":6401:6402   */\n      0x00\n        /* \"#utility.yul\":6391:6409   */\n      keccak256\n        /* \"#utility.yul\":6383:6409   */\n      swap1\n      pop\n        /* \"#utility.yul\":6275:6416   */\n      swap2\n      swap1\n      pop\n      jump\t// out\n        /* \"#utility.yul\":6422:6521   */\n    tag_124:\n        /* \"#utility.yul\":6474:6480   */\n      0x00\n        /* \"#utility.yul\":6508:6513   */\n      dup2\n        /* \"#utility.yul\":6502:6514   */\n      mload\n        /* \"#utility.yul\":6492:6514   */\n      swap1\n      pop\n        /* \"#utility.yul\":6422:6521   */\n      swap2\n      swap1\n      pop\n      jump\t// out\n        /* \"#utility.yul\":6527:6696   */\n    tag_126:\n        /* \"#utility.yul\":6611:6622   */\n      0x00\n        /* \"#utility.yul\":6645:6651   */\n      dup3\n        /* \"#utility.yul\":6640:6643   */\n      dup3\n        /* \"#utility.yul\":6633:6652   */\n      mstore\n        /* \"#utility.yul\":6685:6689   */\n      0x20\n        /* \"#utility.yul\":6680:6683   */\n      dup3\n        /* \"#utility.yul\":6676:6690   */\n      add\n        /* \"#utility.yul\":6661:6690   */\n      swap1\n      pop\n        /* \"#utility.yul\":6527:6696   */\n      swap3\n      swap2\n      pop\n      pop\n      jump\t// out\n        /* \"#utility.yul\":6702:6850   */\n    tag_135:\n        /* \"#utility.yul\":6804:6815   */\n      0x00\n        /* \"#utility.yul\":6841:6844   */\n      dup2\n        /* \"#utility.yul\":6826:6844   */\n      swap1\n      pop\n        /* \"#utility.yul\":6702:6850   */\n      swap3\n      swap2\n      pop\n      pop\n      jump\t// out\n        /* \"#utility.yul\":6856:6952   */\n    tag_185:\n        /* \"#utility.yul\":6893:6900   */\n      0x00\n        /* \"#utility.yul\":6922:6946   */\n      tag_187\n        /* \"#utility.yul\":6940:6945   */\n      dup3\n        /* \"#utility.yul\":6922:6946   */\n      tag_188\n      jump\t// in\n    tag_187:\n        /* \"#utility.yul\":6911:6946   */\n      swap1\n      pop\n        /* \"#utility.yul\":6856:6952   */\n      swap2\n      swap1\n      pop\n      jump\t// out\n        /* \"#utility.yul\":6958:7048   */\n    tag_120:\n        /* \"#utility.yul\":6992:6999   */\n      0x00\n        /* \"#utility.yul\":7035:7040   */\n      dup2\n        /* \"#utility.yul\":7028:7041   */\n      iszero\n        /* \"#utility.yul\":7021:7042   */\n      iszero\n        /* \"#utility.yul\":7010:7042   */\n      swap1\n      pop\n        /* \"#utility.yul\":6958:7048   */\n      swap2\n      swap1\n      pop\n      jump\t// out\n        /* \"#utility.yul\":7054:7180   */\n    tag_188:\n        /* \"#utility.yul\":7091:7098   */\n      0x00\n        /* \"#utility.yul\":7131:7173   */\n      0xffffffffffffffffffffffffffffffffffffffff\n        /* \"#utility.yul\":7124:7129   */\n      dup3\n        /* \"#utility.yul\":7120:7174   */\n      and\n        /* \"#utility.yul\":7109:7174   */\n      swap1\n      pop\n        /* \"#utility.yul\":7054:7180   */\n      swap2\n      swap1\n      pop\n      jump\t// out\n        /* \"#utility.yul\":7186:7272   */\n    tag_157:\n        /* \"#utility.yul\":7221:7228   */\n      0x00\n        /* \"#utility.yul\":7261:7265   */\n      0xff\n        /* \"#utility.yul\":7254:7259   */\n      dup3\n        /* \"#utility.yul\":7250:7266   */\n      and\n        /* \"#utility.yul\":7239:7266   */\n      swap1\n      pop\n        /* \"#utility.yul\":7186:7272   */\n      swap2\n      swap1\n      pop\n      jump\t// out\n        /* \"#utility.yul\":7278:7432   */\n    tag_94:\n        /* \"#utility.yul\":7362:7368   */\n      dup3\n        /* \"#utility.yul\":7357:7360   */\n      dup2\n        /* \"#utility.yul\":7352:7355   */\n      dup4\n        /* \"#utility.yul\":7339:7369   */\n      calldatacopy\n        /* \"#utility.yul\":7424:7425   */\n      0x00\n        /* \"#utility.yul\":7415:7421   */\n      dup4\n        /* \"#utility.yul\":7410:7413   */\n      dup4\n        /* \"#utility.yul\":7406:7422   */\n      add\n        /* \"#utility.yul\":7399:7426   */\n      mstore\n        /* \"#utility.yul\":7278:7432   */\n      pop\n      pop\n      pop\n      jump\t// out\n        /* \"#utility.yul\":7438:7745   */\n    tag_128:\n        /* \"#utility.yul\":7506:7507   */\n      0x00\n        /* \"#utility.yul\":7516:7629   */\n    tag_194:\n        /* \"#utility.yul\":7530:7536   */\n      dup4\n        /* \"#utility.yul\":7527:7528   */\n      dup2\n        /* \"#utility.yul\":7524:7537   */\n      lt\n        /* \"#utility.yul\":7516:7629   */\n      iszero\n      tag_196\n      jumpi\n        /* \"#utility.yul\":7615:7616   */\n      dup1\n        /* \"#utility.yul\":7610:7613   */\n      dup3\n        /* \"#utility.yul\":7606:7617   */\n      add\n        /* \"#utility.yul\":7600:7618   */\n      mload\n        /* \"#utility.yul\":7596:7597   */\n      dup2\n        /* \"#utility.yul\":7591:7594   */\n      dup5\n        /* \"#utility.yul\":7587:7598   */\n      add\n        /* \"#utility.yul\":7580:7619   */\n      mstore\n        /* \"#utility.yul\":7552:7554   */\n      0x20\n        /* \"#utility.yul\":7549:7550   */\n      dup2\n        /* \"#utility.yul\":7545:7555   */\n      add\n        /* \"#utility.yul\":7540:7555   */\n      swap1\n      pop\n        /* \"#utility.yul\":7516:7629   */\n      jump(tag_194)\n    tag_196:\n        /* \"#utility.yul\":7647:7653   */\n      dup4\n        /* \"#utility.yul\":7644:7645   */\n      dup2\n        /* \"#utility.yul\":7641:7654   */\n      gt\n        /* \"#utility.yul\":7638:7739   */\n      iszero\n      tag_197\n      jumpi\n        /* \"#utility.yul\":7727:7728   */\n      0x00\n        /* \"#utility.yul\":7718:7724   */\n      dup5\n        /* \"#utility.yul\":7713:7716   */\n      dup5\n        /* \"#utility.yul\":7709:7725   */\n      add\n        /* \"#utility.yul\":7702:7729   */\n      mstore\n        /* \"#utility.yul\":7638:7739   */\n    tag_197:\n        /* \"#utility.yul\":7487:7745   */\n      pop\n        /* \"#utility.yul\":7438:7745   */\n      pop\n      pop\n      pop\n      jump\t// out\n        /* \"#utility.yul\":7751:8071   */\n    tag_62:\n        /* \"#utility.yul\":7795:7801   */\n      0x00\n        /* \"#utility.yul\":7832:7833   */\n      0x02\n        /* \"#utility.yul\":7826:7830   */\n      dup3\n        /* \"#utility.yul\":7822:7834   */\n      div\n        /* \"#utility.yul\":7812:7834   */\n      swap1\n      pop\n        /* \"#utility.yul\":7879:7880   */\n      0x01\n        /* \"#utility.yul\":7873:7877   */\n      dup3\n        /* \"#utility.yul\":7869:7881   */\n      and\n        /* \"#utility.yul\":7900:7918   */\n      dup1\n        /* \"#utility.yul\":7890:7971   */\n      tag_199\n      jumpi\n        /* \"#utility.yul\":7956:7960   */\n      0x7f\n        /* \"#utility.yul\":7948:7954   */\n      dup3\n        /* \"#utility.yul\":7944:7961   */\n      and\n        /* \"#utility.yul\":7934:7961   */\n      swap2\n      pop\n        /* \"#utility.yul\":7890:7971   */\n    tag_199:\n        /* \"#utility.yul\":8018:8020   */\n      0x20\n        /* \"#utility.yul\":8010:8016   */\n      dup3\n        /* \"#utility.yul\":8007:8021   */\n      lt\n        /* \"#utility.yul\":7987:8005   */\n      dup2\n        /* \"#utility.yul\":7984:8022   */\n      eq\n        /* \"#utility.yul\":7981:8065   */\n      iszero\n      tag_200\n      jumpi\n        /* \"#utility.yul\":8037:8055   */\n      tag_201\n      tag_202\n      jump\t// in\n    tag_201:\n        /* \"#utility.yul\":7981:8065   */\n    tag_200:\n        /* \"#utility.yul\":7802:8071   */\n      pop\n        /* \"#utility.yul\":7751:8071   */\n      swap2\n      swap1\n      pop\n      jump\t// out\n        /* \"#utility.yul\":8077:8358   */\n    tag_174:\n        /* \"#utility.yul\":8160:8187   */\n      tag_204\n        /* \"#utility.yul\":8182:8186   */\n      dup3\n        /* \"#utility.yul\":8160:8187   */\n      tag_130\n      jump\t// in\n    tag_204:\n        /* \"#utility.yul\":8152:8158   */\n      dup2\n        /* \"#utility.yul\":8148:8188   */\n      add\n        /* \"#utility.yul\":8290:8296   */\n      dup2\n        /* \"#utility.yul\":8278:8288   */\n      dup2\n        /* \"#utility.yul\":8275:8297   */\n      lt\n        /* \"#utility.yul\":8254:8272   */\n      0xffffffffffffffff\n        /* \"#utility.yul\":8242:8252   */\n      dup3\n        /* \"#utility.yul\":8239:8273   */\n      gt\n        /* \"#utility.yul\":8236:8298   */\n      or\n        /* \"#utility.yul\":8233:8321   */\n      iszero\n      tag_205\n      jumpi\n        /* \"#utility.yul\":8301:8319   */\n      tag_206\n      tag_179\n      jump\t// in\n    tag_206:\n        /* \"#utility.yul\":8233:8321   */\n    tag_205:\n        /* \"#utility.yul\":8341:8351   */\n      dup1\n        /* \"#utility.yul\":8337:8339   */\n      0x40\n        /* \"#utility.yul\":8330:8352   */\n      mstore\n        /* \"#utility.yul\":8120:8358   */\n      pop\n        /* \"#utility.yul\":8077:8358   */\n      pop\n      pop\n      jump\t// out\n        /* \"#utility.yul\":8364:8544   */\n    tag_202:\n        /* \"#utility.yul\":8412:8489   */\n      0x4e487b7100000000000000000000000000000000000000000000000000000000\n        /* \"#utility.yul\":8409:8410   */\n      0x00\n        /* \"#utility.yul\":8402:8490   */\n      mstore\n        /* \"#utility.yul\":8509:8513   */\n      0x22\n        /* \"#utility.yul\":8506:8507   */\n      0x04\n        /* \"#utility.yul\":8499:8514   */\n      mstore\n        /* \"#utility.yul\":8533:8537   */\n      0x24\n        /* \"#utility.yul\":8530:8531   */\n      0x00\n        /* \"#utility.yul\":8523:8538   */\n      revert\n        /* \"#utility.yul\":8550:8730   */\n    tag_179:\n        /* \"#utility.yul\":8598:8675   */\n      0x4e487b7100000000000000000000000000000000000000000000000000000000\n        /* \"#utility.yul\":8595:8596   */\n      0x00\n        /* \"#utility.yul\":8588:8676   */\n      mstore\n        /* \"#utility.yul\":8695:8699   */\n      0x41\n        /* \"#utility.yul\":8692:8693   */\n      0x04\n        /* \"#utility.yul\":8685:8700   */\n      mstore\n        /* \"#utility.yul\":8719:8723   */\n      0x24\n        /* \"#utility.yul\":8716:8717   */\n      0x00\n        /* \"#utility.yul\":8709:8724   */\n      revert\n        /* \"#utility.yul\":8736:8853   */\n    tag_103:\n        /* \"#utility.yul\":8845:8846   */\n      0x00\n        /* \"#utility.yul\":8842:8843   */\n      dup1\n        /* \"#utility.yul\":8835:8847   */\n      revert\n        /* \"#utility.yul\":8859:8976   */\n    tag_92:\n        /* \"#utility.yul\":8968:8969   */\n      0x00\n        /* \"#utility.yul\":8965:8966   */\n      dup1\n        /* \"#utility.yul\":8958:8970   */\n      revert\n        /* \"#utility.yul\":8982:9099   */\n    tag_115:\n        /* \"#utility.yul\":9091:9092   */\n      0x00\n        /* \"#utility.yul\":9088:9089   */\n      dup1\n        /* \"#utility.yul\":9081:9093   */\n      revert\n        /* \"#utility.yul\":9105:9222   */\n    tag_108:\n        /* \"#utility.yul\":9214:9215   */\n      0x00\n        /* \"#utility.yul\":9211:9212   */\n      dup1\n        /* \"#utility.yul\":9204:9216   */\n      revert\n        /* \"#utility.yul\":9228:9330   */\n    tag_130:\n        /* \"#utility.yul\":9269:9275   */\n      0x00\n        /* \"#utility.yul\":9320:9322   */\n      0x1f\n        /* \"#utility.yul\":9316:9323   */\n      not\n        /* \"#utility.yul\":9311:9313   */\n      0x1f\n        /* \"#utility.yul\":9304:9309   */\n      dup4\n        /* \"#utility.yul\":9300:9314   */\n      add\n        /* \"#utility.yul\":9296:9324   */\n      and\n        /* \"#utility.yul\":9286:9324   */\n      swap1\n      pop\n        /* \"#utility.yul\":9228:9330   */\n      swap2\n      swap1\n      pop\n      jump\t// out\n        /* \"#utility.yul\":9336:9491   */\n    tag_153:\n        /* \"#utility.yul\":9476:9483   */\n      0x68656c6c6f000000000000000000000000000000000000000000000000000000\n        /* \"#utility.yul\":9472:9473   */\n      0x00\n        /* \"#utility.yul\":9464:9470   */\n      dup3\n        /* \"#utility.yul\":9460:9474   */\n      add\n        /* \"#utility.yul\":9453:9484   */\n      mstore\n        /* \"#utility.yul\":9336:9491   */\n      pop\n      jump\t// out\n        /* \"#utility.yul\":9497:9619   */\n    tag_98:\n        /* \"#utility.yul\":9570:9594   */\n      tag_216\n        /* \"#utility.yul\":9588:9593   */\n      dup2\n        /* \"#utility.yul\":9570:9594   */\n      tag_185\n      jump\t// in\n    tag_216:\n        /* \"#utility.yul\":9563:9568   */\n      dup2\n        /* \"#utility.yul\":9560:9595   */\n      eq\n        /* \"#utility.yul\":9550:9613   */\n      tag_217\n      jumpi\n        /* \"#utility.yul\":9609:9610   */\n      0x00\n        /* \"#utility.yul\":9606:9607   */\n      dup1\n        /* \"#utility.yul\":9599:9611   */\n      revert\n        /* \"#utility.yul\":9550:9613   */\n    tag_217:\n        /* \"#utility.yul\":9497:9619   */\n      pop\n      jump\t// out\n    stop\n    data_18d33c94a1f5bb5701ef5da354369b4581c035d41d6a326f82d98a41ea642808 596f752077696c6c2066696e64207768617420796f75206e65656420696e20696e666f3128292e\n    data_51dac7487e2d0ffee8bbada3222ae17c9f840227ebf43e11e3b82307a719b75b 54727920696e666f3228292c206275742077697468202268656c6c6f22206173206120706172616d657465722e\n    data_a26c21bc8ea9f1905c121a3e7c63d5faa421793a4139df3ccd3efa57db938b49 5468652070726f706572747920696e666f4e756d20686f6c647320746865206e756d626572206f6620746865206e65787420696e666f206d6574686f6420746f2063616c6c2e\n    data_a43a77889820039a1512b30dd7e1f8d4a6e69caa9b58da067871b4225bd2ef4d 496620796f75206b6e6f77207468652070617373776f72642c207375626d697420697420746f2061757468656e74696361746528292e\n    data_d3c61225f9e7dd0de370751940991ab402a99f7bbcaf9201287a0b5252a87460 7468654d6574686f644e616d6520697320746865206e616d65206f6620746865206e657874206d6574686f642e\n\n    auxdata: 0xa2646970667358221220cef3a16d945a864c04b3651677c53154f4bc22dd12520e60bb941d0adf27904d64736f6c63430008070033\n}\n",
				"bytecode": {
					"linkReferences": {},
					"object": "6080604052602a600160006101000a81548160ff021916908360ff16021790555060405180606001604052806021815260200162000f50602191396002908051906020019062000051929190620000c0565b506000600360006101000a81548160ff0219169083151502179055503480156200007a57600080fd5b5060405162000f7138038062000f718339818101604052810190620000a09190620001ee565b8060009080519060200190620000b8929190620000c0565b5050620003c3565b828054620000ce90620002d4565b90600052602060002090601f016020900481019282620000f257600085556200013e565b82601f106200010d57805160ff19168380011785556200013e565b828001600101855582156200013e579182015b828111156200013d57825182559160200191906001019062000120565b5b5090506200014d919062000151565b5090565b5b808211156200016c57600081600090555060010162000152565b5090565b600062000187620001818462000268565b6200023f565b905082815260208101848484011115620001a657620001a5620003a3565b5b620001b38482856200029e565b509392505050565b600082601f830112620001d357620001d26200039e565b5b8151620001e584826020860162000170565b91505092915050565b600060208284031215620002075762000206620003ad565b5b600082015167ffffffffffffffff811115620002285762000227620003a8565b5b6200023684828501620001bb565b91505092915050565b60006200024b6200025e565b90506200025982826200030a565b919050565b6000604051905090565b600067ffffffffffffffff8211156200028657620002856200036f565b5b6200029182620003b2565b9050602081019050919050565b60005b83811015620002be578082015181840152602081019050620002a1565b83811115620002ce576000848401525b50505050565b60006002820490506001821680620002ed57607f821691505b6020821081141562000304576200030362000340565b5b50919050565b6200031582620003b2565b810181811067ffffffffffffffff821117156200033757620003366200036f565b5b80604052505050565b7f4e487b7100000000000000000000000000000000000000000000000000000000600052602260045260246000fd5b7f4e487b7100000000000000000000000000000000000000000000000000000000600052604160045260246000fd5b600080fd5b600080fd5b600080fd5b600080fd5b6000601f19601f8301169050919050565b610b7d80620003d36000396000f3fe608060405234801561001057600080fd5b50600436106100a95760003560e01c8063aa613b2911610071578063aa613b2914610156578063bb29998e14610172578063c253aebe146101a2578063d4c3cf44146101c0578063f0bc7081146101de578063f157a1e3146101fc576100a9565b80632133b6a9146100ae578063224b610b146100de5780632cbd79a5146100fc578063370158ea1461011a5780633c848d7814610138575b600080fd5b6100c860048036038101906100c391906105f7565b61021a565b6040516100d591906107c8565b60405180910390f35b6100e66102cc565b6040516100f391906107c8565b60405180910390f35b61010461035a565b60405161011191906107c8565b60405180910390f35b61012261037a565b60405161012f91906107c8565b60405180910390f35b61014061039a565b60405161014d91906107ad565b60405180910390f35b610170600480360381019061016b91906105f7565b6103b1565b005b61018c600480360381019061018791906105ca565b610425565b60405161019991906107c8565b60405180910390f35b6101aa610464565b6040516101b791906107ea565b60405180910390f35b6101c8610477565b6040516101d591906107c8565b60405180910390f35b6101e6610497565b6040516101f391906107c8565b60405180910390f35b6102046104b7565b60405161021191906107c8565b60405180910390f35b606060405160200161022b90610798565b6040516020818303038152906040528051906020012082604051602001610252919061076a565b60405160208183030381529060405280519060200120141561028e57604051806080016040528060468152602001610a9f6046913990506102c7565b6040518060400160405280601081526020017f57726f6e6720706172616d657465722e0000000000000000000000000000000081525090505b919050565b600080546102d990610924565b80601f016020809104026020016040519081016040528092919081815260200182805461030590610924565b80156103525780601f1061032757610100808354040283529160200191610352565b820191906000526020600020905b81548152906001019060200180831161033557829003601f168201915b505050505081565b60606040518060600160405280602d8152602001610b1b602d9139905090565b6060604051806060016040528060278152602001610a4b60279139905090565b6000600360009054906101000a900460ff16905090565b60006040516020016103c39190610781565b60405160208183030381529060405280519060200120816040516020016103ea919061076a565b604051602081830303815290604052805190602001201415610422576001600360006101000a81548160ff0219169083151502179055505b50565b60606040518060400160405280600b81526020017f68656c6c6f20776f726c640000000000000000000000000000000000000000008152509050919050565b600160009054906101000a900460ff1681565b60606040518060600160405280602d8152602001610a72602d9139905090565b6060604051806060016040528060368152602001610ae560369139905090565b600280546104c490610924565b80601f01602080910402602001604051908101604052809291908181526020018280546104f090610924565b801561053d5780601f106105125761010080835404028352916020019161053d565b820191906000526020600020905b81548152906001019060200180831161052057829003601f168201915b505050505081565b60006105586105538461082a565b610805565b905082815260208101848484011115610574576105736109ea565b5b61057f8482856108e2565b509392505050565b60008135905061059681610a33565b92915050565b600082601f8301126105b1576105b06109e5565b5b81356105c1848260208601610545565b91505092915050565b6000602082840312156105e0576105df6109f4565b5b60006105ee84828501610587565b91505092915050565b60006020828403121561060d5761060c6109f4565b5b600082013567ffffffffffffffff81111561062b5761062a6109ef565b5b6106378482850161059c565b91505092915050565b610649816108a9565b82525050565b600061065a82610870565b610664818561087b565b93506106748185602086016108f1565b61067d816109f9565b840191505092915050565b600061069382610870565b61069d818561088c565b93506106ad8185602086016108f1565b80840191505092915050565b600081546106c681610924565b6106d0818661088c565b945060018216600081146106eb57600181146106fc5761072f565b60ff1983168652818601935061072f565b6107058561085b565b60005b8381101561072757815481890152600182019150602081019050610708565b838801955050505b50505092915050565b600061074560058361088c565b915061075082610a0a565b600582019050919050565b610764816108d5565b82525050565b60006107768284610688565b915081905092915050565b600061078d82846106b9565b915081905092915050565b60006107a382610738565b9150819050919050565b60006020820190506107c26000830184610640565b92915050565b600060208201905081810360008301526107e2818461064f565b905092915050565b60006020820190506107ff600083018461075b565b92915050565b600061080f610820565b905061081b8282610956565b919050565b6000604051905090565b600067ffffffffffffffff821115610845576108446109b6565b5b61084e826109f9565b9050602081019050919050565b60008190508160005260206000209050919050565b600081519050919050565b600082825260208201905092915050565b600081905092915050565b60006108a2826108b5565b9050919050565b60008115159050919050565b600073ffffffffffffffffffffffffffffffffffffffff82169050919050565b600060ff82169050919050565b82818337600083830152505050565b60005b8381101561090f5780820151818401526020810190506108f4565b8381111561091e576000848401525b50505050565b6000600282049050600182168061093c57607f821691505b602082108114156109505761094f610987565b5b50919050565b61095f826109f9565b810181811067ffffffffffffffff8211171561097e5761097d6109b6565b5b80604052505050565b7f4e487b7100000000000000000000000000000000000000000000000000000000600052602260045260246000fd5b7f4e487b7100000000000000000000000000000000000000000000000000000000600052604160045260246000fd5b600080fd5b600080fd5b600080fd5b600080fd5b6000601f19601f8301169050919050565b7f68656c6c6f000000000000000000000000000000000000000000000000000000600082015250565b610a3c81610897565b8114610a4757600080fd5b5056fe596f752077696c6c2066696e64207768617420796f75206e65656420696e20696e666f3128292e54727920696e666f3228292c206275742077697468202268656c6c6f22206173206120706172616d657465722e5468652070726f706572747920696e666f4e756d20686f6c647320746865206e756d626572206f6620746865206e65787420696e666f206d6574686f6420746f2063616c6c2e496620796f75206b6e6f77207468652070617373776f72642c207375626d697420697420746f2061757468656e74696361746528292e7468654d6574686f644e616d6520697320746865206e616d65206f6620746865206e657874206d6574686f642ea2646970667358221220cef3a16d945a864c04b3651677c53154f4bc22dd12520e60bb941d0adf27904d64736f6c63430008070033546865206d6574686f64206e616d65206973206d6574686f64373132333934392e",
					"opcodes": "PUSH1 0x80 PUSH1 0x40 MSTORE PUSH1 0x2A PUSH1 0x1 PUSH1 0x0 PUSH2 0x100 EXP DUP2 SLOAD DUP2 PUSH1 0xFF MUL NOT AND SWAP1 DUP4 PUSH1 0xFF AND MUL OR SWAP1 SSTORE POP PUSH1 0x40 MLOAD DUP1 PUSH1 0x60 ADD PUSH1 0x40 MSTORE DUP1 PUSH1 0x21 DUP2 MSTORE PUSH1 0x20 ADD PUSH3 0xF50 PUSH1 0x21 SWAP2 CODECOPY PUSH1 0x2 SWAP1 DUP1 MLOAD SWAP1 PUSH1 0x20 ADD SWAP1 PUSH3 0x51 SWAP3 SWAP2 SWAP1 PUSH3 0xC0 JUMP JUMPDEST POP PUSH1 0x0 PUSH1 0x3 PUSH1 0x0 PUSH2 0x100 EXP DUP2 SLOAD DUP2 PUSH1 0xFF MUL NOT AND SWAP1 DUP4 ISZERO ISZERO MUL OR SWAP1 SSTORE POP CALLVALUE DUP1 ISZERO PUSH3 0x7A JUMPI PUSH1 0x0 DUP1 REVERT JUMPDEST POP PUSH1 0x40 MLOAD PUSH3 0xF71 CODESIZE SUB DUP1 PUSH3 0xF71 DUP4 CODECOPY DUP2 DUP2 ADD PUSH1 0x40 MSTORE DUP2 ADD SWAP1 PUSH3 0xA0 SWAP2 SWAP1 PUSH3 0x1EE JUMP JUMPDEST DUP1 PUSH1 0x0 SWAP1 DUP1 MLOAD SWAP1 PUSH1 0x20 ADD SWAP1 PUSH3 0xB8 SWAP3 SWAP2 SWAP1 PUSH3 0xC0 JUMP JUMPDEST POP POP PUSH3 0x3C3 JUMP JUMPDEST DUP3 DUP1 SLOAD PUSH3 0xCE SWAP1 PUSH3 0x2D4 JUMP JUMPDEST SWAP1 PUSH1 0x0 MSTORE PUSH1 0x20 PUSH1 0x0 KECCAK256 SWAP1 PUSH1 0x1F ADD PUSH1 0x20 SWAP1 DIV DUP2 ADD SWAP3 DUP3 PUSH3 0xF2 JUMPI PUSH1 0x0 DUP6 SSTORE PUSH3 0x13E JUMP JUMPDEST DUP3 PUSH1 0x1F LT PUSH3 0x10D JUMPI DUP1 MLOAD PUSH1 0xFF NOT AND DUP4 DUP1 ADD OR DUP6 SSTORE PUSH3 0x13E JUMP JUMPDEST DUP3 DUP1 ADD PUSH1 0x1 ADD DUP6 SSTORE DUP3 ISZERO PUSH3 0x13E JUMPI SWAP2 DUP3 ADD JUMPDEST DUP3 DUP2 GT ISZERO PUSH3 0x13D JUMPI DUP3 MLOAD DUP3 SSTORE SWAP2 PUSH1 0x20 ADD SWAP2 SWAP1 PUSH1 0x1 ADD SWAP1 PUSH3 0x120 JUMP JUMPDEST JUMPDEST POP SWAP1 POP PUSH3 0x14D SWAP2 SWAP1 PUSH3 0x151 JUMP JUMPDEST POP SWAP1 JUMP JUMPDEST JUMPDEST DUP1 DUP3 GT ISZERO PUSH3 0x16C JUMPI PUSH1 0x0 DUP2 PUSH1 0x0 SWAP1 SSTORE POP PUSH1 0x1 ADD PUSH3 0x152 JUMP JUMPDEST POP SWAP1 JUMP JUMPDEST PUSH1 0x0 PUSH3 0x187 PUSH3 0x181 DUP5 PUSH3 0x268 JUMP JUMPDEST PUSH3 0x23F JUMP JUMPDEST SWAP1 POP DUP3 DUP2 MSTORE PUSH1 0x20 DUP2 ADD DUP5 DUP5 DUP5 ADD GT ISZERO PUSH3 0x1A6 JUMPI PUSH3 0x1A5 PUSH3 0x3A3 JUMP JUMPDEST JUMPDEST PUSH3 0x1B3 DUP5 DUP3 DUP6 PUSH3 0x29E JUMP JUMPDEST POP SWAP4 SWAP3 POP POP POP JUMP JUMPDEST PUSH1 0x0 DUP3 PUSH1 0x1F DUP4 ADD SLT PUSH3 0x1D3 JUMPI PUSH3 0x1D2 PUSH3 0x39E JUMP JUMPDEST JUMPDEST DUP2 MLOAD PUSH3 0x1E5 DUP5 DUP3 PUSH1 0x20 DUP7 ADD PUSH3 0x170 JUMP JUMPDEST SWAP2 POP POP SWAP3 SWAP2 POP POP JUMP JUMPDEST PUSH1 0x0 PUSH1 0x20 DUP3 DUP5 SUB SLT ISZERO PUSH3 0x207 JUMPI PUSH3 0x206 PUSH3 0x3AD JUMP JUMPDEST JUMPDEST PUSH1 0x0 DUP3 ADD MLOAD PUSH8 0xFFFFFFFFFFFFFFFF DUP2 GT ISZERO PUSH3 0x228 JUMPI PUSH3 0x227 PUSH3 0x3A8 JUMP JUMPDEST JUMPDEST PUSH3 0x236 DUP5 DUP3 DUP6 ADD PUSH3 0x1BB JUMP JUMPDEST SWAP2 POP POP SWAP3 SWAP2 POP POP JUMP JUMPDEST PUSH1 0x0 PUSH3 0x24B PUSH3 0x25E JUMP JUMPDEST SWAP1 POP PUSH3 0x259 DUP3 DUP3 PUSH3 0x30A JUMP JUMPDEST SWAP2 SWAP1 POP JUMP JUMPDEST PUSH1 0x0 PUSH1 0x40 MLOAD SWAP1 POP SWAP1 JUMP JUMPDEST PUSH1 0x0 PUSH8 0xFFFFFFFFFFFFFFFF DUP3 GT ISZERO PUSH3 0x286 JUMPI PUSH3 0x285 PUSH3 0x36F JUMP JUMPDEST JUMPDEST PUSH3 0x291 DUP3 PUSH3 0x3B2 JUMP JUMPDEST SWAP1 POP PUSH1 0x20 DUP2 ADD SWAP1 POP SWAP2 SWAP1 POP JUMP JUMPDEST PUSH1 0x0 JUMPDEST DUP4 DUP2 LT ISZERO PUSH3 0x2BE JUMPI DUP1 DUP3 ADD MLOAD DUP2 DUP5 ADD MSTORE PUSH1 0x20 DUP2 ADD SWAP1 POP PUSH3 0x2A1 JUMP JUMPDEST DUP4 DUP2 GT ISZERO PUSH3 0x2CE JUMPI PUSH1 0x0 DUP5 DUP5 ADD MSTORE JUMPDEST POP POP POP POP JUMP JUMPDEST PUSH1 0x0 PUSH1 0x2 DUP3 DIV SWAP1 POP PUSH1 0x1 DUP3 AND DUP1 PUSH3 0x2ED JUMPI PUSH1 0x7F DUP3 AND SWAP2 POP JUMPDEST PUSH1 0x20 DUP3 LT DUP2 EQ ISZERO PUSH3 0x304 JUMPI PUSH3 0x303 PUSH3 0x340 JUMP JUMPDEST JUMPDEST POP SWAP2 SWAP1 POP JUMP JUMPDEST PUSH3 0x315 DUP3 PUSH3 0x3B2 JUMP JUMPDEST DUP2 ADD DUP2 DUP2 LT PUSH8 0xFFFFFFFFFFFFFFFF DUP3 GT OR ISZERO PUSH3 0x337 JUMPI PUSH3 0x336 PUSH3 0x36F JUMP JUMPDEST JUMPDEST DUP1 PUSH1 0x40 MSTORE POP POP POP JUMP JUMPDEST PUSH32 0x4E487B7100000000000000000000000000000000000000000000000000000000 PUSH1 0x0 MSTORE PUSH1 0x22 PUSH1 0x4 MSTORE PUSH1 0x24 PUSH1 0x0 REVERT JUMPDEST PUSH32 0x4E487B7100000000000000000000000000000000000000000000000000000000 PUSH1 0x0 MSTORE PUSH1 0x41 PUSH1 0x4 MSTORE PUSH1 0x24 PUSH1 0x0 REVERT JUMPDEST PUSH1 0x0 DUP1 REVERT JUMPDEST PUSH1 0x0 DUP1 REVERT JUMPDEST PUSH1 0x0 DUP1 REVERT JUMPDEST PUSH1 0x0 DUP1 REVERT JUMPDEST PUSH1 0x0 PUSH1 0x1F NOT PUSH1 0x1F DUP4 ADD AND SWAP1 POP SWAP2 SWAP1 POP JUMP JUMPDEST PUSH2 0xB7D DUP1 PUSH3 0x3D3 PUSH1 0x0 CODECOPY PUSH1 0x0 RETURN INVALID PUSH1 0x80 PUSH1 0x40 MSTORE CALLVALUE DUP1 ISZERO PUSH2 0x10 JUMPI PUSH1 0x0 DUP1 REVERT JUMPDEST POP PUSH1 0x4 CALLDATASIZE LT PUSH2 0xA9 JUMPI PUSH1 0x0 CALLDATALOAD PUSH1 0xE0 SHR DUP1 PUSH4 0xAA613B29 GT PUSH2 0x71 JUMPI DUP1 PUSH4 0xAA613B29 EQ PUSH2 0x156 JUMPI DUP1 PUSH4 0xBB29998E EQ PUSH2 0x172 JUMPI DUP1 PUSH4 0xC253AEBE EQ PUSH2 0x1A2 JUMPI DUP1 PUSH4 0xD4C3CF44 EQ PUSH2 0x1C0 JUMPI DUP1 PUSH4 0xF0BC7081 EQ PUSH2 0x1DE JUMPI DUP1 PUSH4 0xF157A1E3 EQ PUSH2 0x1FC JUMPI PUSH2 0xA9 JUMP JUMPDEST DUP1 PUSH4 0x2133B6A9 EQ PUSH2 0xAE JUMPI DUP1 PUSH4 0x224B610B EQ PUSH2 0xDE JUMPI DUP1 PUSH4 0x2CBD79A5 EQ PUSH2 0xFC JUMPI DUP1 PUSH4 0x370158EA EQ PUSH2 0x11A JUMPI DUP1 PUSH4 0x3C848D78 EQ PUSH2 0x138 JUMPI JUMPDEST PUSH1 0x0 DUP1 REVERT JUMPDEST PUSH2 0xC8 PUSH1 0x4 DUP1 CALLDATASIZE SUB DUP2 ADD SWAP1 PUSH2 0xC3 SWAP2 SWAP1 PUSH2 0x5F7 JUMP JUMPDEST PUSH2 0x21A JUMP JUMPDEST PUSH1 0x40 MLOAD PUSH2 0xD5 SWAP2 SWAP1 PUSH2 0x7C8 JUMP JUMPDEST PUSH1 0x40 MLOAD DUP1 SWAP2 SUB SWAP1 RETURN JUMPDEST PUSH2 0xE6 PUSH2 0x2CC JUMP JUMPDEST PUSH1 0x40 MLOAD PUSH2 0xF3 SWAP2 SWAP1 PUSH2 0x7C8 JUMP JUMPDEST PUSH1 0x40 MLOAD DUP1 SWAP2 SUB SWAP1 RETURN JUMPDEST PUSH2 0x104 PUSH2 0x35A JUMP JUMPDEST PUSH1 0x40 MLOAD PUSH2 0x111 SWAP2 SWAP1 PUSH2 0x7C8 JUMP JUMPDEST PUSH1 0x40 MLOAD DUP1 SWAP2 SUB SWAP1 RETURN JUMPDEST PUSH2 0x122 PUSH2 0x37A JUMP JUMPDEST PUSH1 0x40 MLOAD PUSH2 0x12F SWAP2 SWAP1 PUSH2 0x7C8 JUMP JUMPDEST PUSH1 0x40 MLOAD DUP1 SWAP2 SUB SWAP1 RETURN JUMPDEST PUSH2 0x140 PUSH2 0x39A JUMP JUMPDEST PUSH1 0x40 MLOAD PUSH2 0x14D SWAP2 SWAP1 PUSH2 0x7AD JUMP JUMPDEST PUSH1 0x40 MLOAD DUP1 SWAP2 SUB SWAP1 RETURN JUMPDEST PUSH2 0x170 PUSH1 0x4 DUP1 CALLDATASIZE SUB DUP2 ADD SWAP1 PUSH2 0x16B SWAP2 SWAP1 PUSH2 0x5F7 JUMP JUMPDEST PUSH2 0x3B1 JUMP JUMPDEST STOP JUMPDEST PUSH2 0x18C PUSH1 0x4 DUP1 CALLDATASIZE SUB DUP2 ADD SWAP1 PUSH2 0x187 SWAP2 SWAP1 PUSH2 0x5CA JUMP JUMPDEST PUSH2 0x425 JUMP JUMPDEST PUSH1 0x40 MLOAD PUSH2 0x199 SWAP2 SWAP1 PUSH2 0x7C8 JUMP JUMPDEST PUSH1 0x40 MLOAD DUP1 SWAP2 SUB SWAP1 RETURN JUMPDEST PUSH2 0x1AA PUSH2 0x464 JUMP JUMPDEST PUSH1 0x40 MLOAD PUSH2 0x1B7 SWAP2 SWAP1 PUSH2 0x7EA JUMP JUMPDEST PUSH1 0x40 MLOAD DUP1 SWAP2 SUB SWAP1 RETURN JUMPDEST PUSH2 0x1C8 PUSH2 0x477 JUMP JUMPDEST PUSH1 0x40 MLOAD PUSH2 0x1D5 SWAP2 SWAP1 PUSH2 0x7C8 JUMP JUMPDEST PUSH1 0x40 MLOAD DUP1 SWAP2 SUB SWAP1 RETURN JUMPDEST PUSH2 0x1E6 PUSH2 0x497 JUMP JUMPDEST PUSH1 0x40 MLOAD PUSH2 0x1F3 SWAP2 SWAP1 PUSH2 0x7C8 JUMP JUMPDEST PUSH1 0x40 MLOAD DUP1 SWAP2 SUB SWAP1 RETURN JUMPDEST PUSH2 0x204 PUSH2 0x4B7 JUMP JUMPDEST PUSH1 0x40 MLOAD PUSH2 0x211 SWAP2 SWAP1 PUSH2 0x7C8 JUMP JUMPDEST PUSH1 0x40 MLOAD DUP1 SWAP2 SUB SWAP1 RETURN JUMPDEST PUSH1 0x60 PUSH1 0x40 MLOAD PUSH1 0x20 ADD PUSH2 0x22B SWAP1 PUSH2 0x798 JUMP JUMPDEST PUSH1 0x40 MLOAD PUSH1 0x20 DUP2 DUP4 SUB SUB DUP2 MSTORE SWAP1 PUSH1 0x40 MSTORE DUP1 MLOAD SWAP1 PUSH1 0x20 ADD KECCAK256 DUP3 PUSH1 0x40 MLOAD PUSH1 0x20 ADD PUSH2 0x252 SWAP2 SWAP1 PUSH2 0x76A JUMP JUMPDEST PUSH1 0x40 MLOAD PUSH1 0x20 DUP2 DUP4 SUB SUB DUP2 MSTORE SWAP1 PUSH1 0x40 MSTORE DUP1 MLOAD SWAP1 PUSH1 0x20 ADD KECCAK256 EQ ISZERO PUSH2 0x28E JUMPI PUSH1 0x40 MLOAD DUP1 PUSH1 0x80 ADD PUSH1 0x40 MSTORE DUP1 PUSH1 0x46 DUP2 MSTORE PUSH1 0x20 ADD PUSH2 0xA9F PUSH1 0x46 SWAP2 CODECOPY SWAP1 POP PUSH2 0x2C7 JUMP JUMPDEST PUSH1 0x40 MLOAD DUP1 PUSH1 0x40 ADD PUSH1 0x40 MSTORE DUP1 PUSH1 0x10 DUP2 MSTORE PUSH1 0x20 ADD PUSH32 0x57726F6E6720706172616D657465722E00000000000000000000000000000000 DUP2 MSTORE POP SWAP1 POP JUMPDEST SWAP2 SWAP1 POP JUMP JUMPDEST PUSH1 0x0 DUP1 SLOAD PUSH2 0x2D9 SWAP1 PUSH2 0x924 JUMP JUMPDEST DUP1 PUSH1 0x1F ADD PUSH1 0x20 DUP1 SWAP2 DIV MUL PUSH1 0x20 ADD PUSH1 0x40 MLOAD SWAP1 DUP2 ADD PUSH1 0x40 MSTORE DUP1 SWAP3 SWAP2 SWAP1 DUP2 DUP2 MSTORE PUSH1 0x20 ADD DUP3 DUP1 SLOAD PUSH2 0x305 SWAP1 PUSH2 0x924 JUMP JUMPDEST DUP1 ISZERO PUSH2 0x352 JUMPI DUP1 PUSH1 0x1F LT PUSH2 0x327 JUMPI PUSH2 0x100 DUP1 DUP4 SLOAD DIV MUL DUP4 MSTORE SWAP2 PUSH1 0x20 ADD SWAP2 PUSH2 0x352 JUMP JUMPDEST DUP3 ADD SWAP2 SWAP1 PUSH1 0x0 MSTORE PUSH1 0x20 PUSH1 0x0 KECCAK256 SWAP1 JUMPDEST DUP2 SLOAD DUP2 MSTORE SWAP1 PUSH1 0x1 ADD SWAP1 PUSH1 0x20 ADD DUP1 DUP4 GT PUSH2 0x335 JUMPI DUP3 SWAP1 SUB PUSH1 0x1F AND DUP3 ADD SWAP2 JUMPDEST POP POP POP POP POP DUP2 JUMP JUMPDEST PUSH1 0x60 PUSH1 0x40 MLOAD DUP1 PUSH1 0x60 ADD PUSH1 0x40 MSTORE DUP1 PUSH1 0x2D DUP2 MSTORE PUSH1 0x20 ADD PUSH2 0xB1B PUSH1 0x2D SWAP2 CODECOPY SWAP1 POP SWAP1 JUMP JUMPDEST PUSH1 0x60 PUSH1 0x40 MLOAD DUP1 PUSH1 0x60 ADD PUSH1 0x40 MSTORE DUP1 PUSH1 0x27 DUP2 MSTORE PUSH1 0x20 ADD PUSH2 0xA4B PUSH1 0x27 SWAP2 CODECOPY SWAP1 POP SWAP1 JUMP JUMPDEST PUSH1 0x0 PUSH1 0x3 PUSH1 0x0 SWAP1 SLOAD SWAP1 PUSH2 0x100 EXP SWAP1 DIV PUSH1 0xFF AND SWAP1 POP SWAP1 JUMP JUMPDEST PUSH1 0x0 PUSH1 0x40 MLOAD PUSH1 0x20 ADD PUSH2 0x3C3 SWAP2 SWAP1 PUSH2 0x781 JUMP JUMPDEST PUSH1 0x40 MLOAD PUSH1 0x20 DUP2 DUP4 SUB SUB DUP2 MSTORE SWAP1 PUSH1 0x40 MSTORE DUP1 MLOAD SWAP1 PUSH1 0x20 ADD KECCAK256 DUP2 PUSH1 0x40 MLOAD PUSH1 0x20 ADD PUSH2 0x3EA SWAP2 SWAP1 PUSH2 0x76A JUMP JUMPDEST PUSH1 0x40 MLOAD PUSH1 0x20 DUP2 DUP4 SUB SUB DUP2 MSTORE SWAP1 PUSH1 0x40 MSTORE DUP1 MLOAD SWAP1 PUSH1 0x20 ADD KECCAK256 EQ ISZERO PUSH2 0x422 JUMPI PUSH1 0x1 PUSH1 0x3 PUSH1 0x0 PUSH2 0x100 EXP DUP2 SLOAD DUP2 PUSH1 0xFF MUL NOT AND SWAP1 DUP4 ISZERO ISZERO MUL OR SWAP1 SSTORE POP JUMPDEST POP JUMP JUMPDEST PUSH1 0x60 PUSH1 0x40 MLOAD DUP1 PUSH1 0x40 ADD PUSH1 0x40 MSTORE DUP1 PUSH1 0xB DUP2 MSTORE PUSH1 0x20 ADD PUSH32 0x68656C6C6F20776F726C64000000000000000000000000000000000000000000 DUP2 MSTORE POP SWAP1 POP SWAP2 SWAP1 POP JUMP JUMPDEST PUSH1 0x1 PUSH1 0x0 SWAP1 SLOAD SWAP1 PUSH2 0x100 EXP SWAP1 DIV PUSH1 0xFF AND DUP2 JUMP JUMPDEST PUSH1 0x60 PUSH1 0x40 MLOAD DUP1 PUSH1 0x60 ADD PUSH1 0x40 MSTORE DUP1 PUSH1 0x2D DUP2 MSTORE PUSH1 0x20 ADD PUSH2 0xA72 PUSH1 0x2D SWAP2 CODECOPY SWAP1 POP SWAP1 JUMP JUMPDEST PUSH1 0x60 PUSH1 0x40 MLOAD DUP1 PUSH1 0x60 ADD PUSH1 0x40 MSTORE DUP1 PUSH1 0x36 DUP2 MSTORE PUSH1 0x20 ADD PUSH2 0xAE5 PUSH1 0x36 SWAP2 CODECOPY SWAP1 POP SWAP1 JUMP JUMPDEST PUSH1 0x2 DUP1 SLOAD PUSH2 0x4C4 SWAP1 PUSH2 0x924 JUMP JUMPDEST DUP1 PUSH1 0x1F ADD PUSH1 0x20 DUP1 SWAP2 DIV MUL PUSH1 0x20 ADD PUSH1 0x40 MLOAD SWAP1 DUP2 ADD PUSH1 0x40 MSTORE DUP1 SWAP3 SWAP2 SWAP1 DUP2 DUP2 MSTORE PUSH1 0x20 ADD DUP3 DUP1 SLOAD PUSH2 0x4F0 SWAP1 PUSH2 0x924 JUMP JUMPDEST DUP1 ISZERO PUSH2 0x53D JUMPI DUP1 PUSH1 0x1F LT PUSH2 0x512 JUMPI PUSH2 0x100 DUP1 DUP4 SLOAD DIV MUL DUP4 MSTORE SWAP2 PUSH1 0x20 ADD SWAP2 PUSH2 0x53D JUMP JUMPDEST DUP3 ADD SWAP2 SWAP1 PUSH1 0x0 MSTORE PUSH1 0x20 PUSH1 0x0 KECCAK256 SWAP1 JUMPDEST DUP2 SLOAD DUP2 MSTORE SWAP1 PUSH1 0x1 ADD SWAP1 PUSH1 0x20 ADD DUP1 DUP4 GT PUSH2 0x520 JUMPI DUP3 SWAP1 SUB PUSH1 0x1F AND DUP3 ADD SWAP2 JUMPDEST POP POP POP POP POP DUP2 JUMP JUMPDEST PUSH1 0x0 PUSH2 0x558 PUSH2 0x553 DUP5 PUSH2 0x82A JUMP JUMPDEST PUSH2 0x805 JUMP JUMPDEST SWAP1 POP DUP3 DUP2 MSTORE PUSH1 0x20 DUP2 ADD DUP5 DUP5 DUP5 ADD GT ISZERO PUSH2 0x574 JUMPI PUSH2 0x573 PUSH2 0x9EA JUMP JUMPDEST JUMPDEST PUSH2 0x57F DUP5 DUP3 DUP6 PUSH2 0x8E2 JUMP JUMPDEST POP SWAP4 SWAP3 POP POP POP JUMP JUMPDEST PUSH1 0x0 DUP2 CALLDATALOAD SWAP1 POP PUSH2 0x596 DUP2 PUSH2 0xA33 JUMP JUMPDEST SWAP3 SWAP2 POP POP JUMP JUMPDEST PUSH1 0x0 DUP3 PUSH1 0x1F DUP4 ADD SLT PUSH2 0x5B1 JUMPI PUSH2 0x5B0 PUSH2 0x9E5 JUMP JUMPDEST JUMPDEST DUP2 CALLDATALOAD PUSH2 0x5C1 DUP5 DUP3 PUSH1 0x20 DUP7 ADD PUSH2 0x545 JUMP JUMPDEST SWAP2 POP POP SWAP3 SWAP2 POP POP JUMP JUMPDEST PUSH1 0x0 PUSH1 0x20 DUP3 DUP5 SUB SLT ISZERO PUSH2 0x5E0 JUMPI PUSH2 0x5DF PUSH2 0x9F4 JUMP JUMPDEST JUMPDEST PUSH1 0x0 PUSH2 0x5EE DUP5 DUP3 DUP6 ADD PUSH2 0x587 JUMP JUMPDEST SWAP2 POP POP SWAP3 SWAP2 POP POP JUMP JUMPDEST PUSH1 0x0 PUSH1 0x20 DUP3 DUP5 SUB SLT ISZERO PUSH2 0x60D JUMPI PUSH2 0x60C PUSH2 0x9F4 JUMP JUMPDEST JUMPDEST PUSH1 0x0 DUP3 ADD CALLDATALOAD PUSH8 0xFFFFFFFFFFFFFFFF DUP2 GT ISZERO PUSH2 0x62B JUMPI PUSH2 0x62A PUSH2 0x9EF JUMP JUMPDEST JUMPDEST PUSH2 0x637 DUP5 DUP3 DUP6 ADD PUSH2 0x59C JUMP JUMPDEST SWAP2 POP POP SWAP3 SWAP2 POP POP JUMP JUMPDEST PUSH2 0x649 DUP2 PUSH2 0x8A9 JUMP JUMPDEST DUP3 MSTORE POP POP JUMP JUMPDEST PUSH1 0x0 PUSH2 0x65A DUP3 PUSH2 0x870 JUMP JUMPDEST PUSH2 0x664 DUP2 DUP6 PUSH2 0x87B JUMP JUMPDEST SWAP4 POP PUSH2 0x674 DUP2 DUP6 PUSH1 0x20 DUP7 ADD PUSH2 0x8F1 JUMP JUMPDEST PUSH2 0x67D DUP2 PUSH2 0x9F9 JUMP JUMPDEST DUP5 ADD SWAP2 POP POP SWAP3 SWAP2 POP POP JUMP JUMPDEST PUSH1 0x0 PUSH2 0x693 DUP3 PUSH2 0x870 JUMP JUMPDEST PUSH2 0x69D DUP2 DUP6 PUSH2 0x88C JUMP JUMPDEST SWAP4 POP PUSH2 0x6AD DUP2 DUP6 PUSH1 0x20 DUP7 ADD PUSH2 0x8F1 JUMP JUMPDEST DUP1 DUP5 ADD SWAP2 POP POP SWAP3 SWAP2 POP POP JUMP JUMPDEST PUSH1 0x0 DUP2 SLOAD PUSH2 0x6C6 DUP2 PUSH2 0x924 JUMP JUMPDEST PUSH2 0x6D0 DUP2 DUP7 PUSH2 0x88C JUMP JUMPDEST SWAP5 POP PUSH1 0x1 DUP3 AND PUSH1 0x0 DUP2 EQ PUSH2 0x6EB JUMPI PUSH1 0x1 DUP2 EQ PUSH2 0x6FC JUMPI PUSH2 0x72F JUMP JUMPDEST PUSH1 0xFF NOT DUP4 AND DUP7 MSTORE DUP2 DUP7 ADD SWAP4 POP PUSH2 0x72F JUMP JUMPDEST PUSH2 0x705 DUP6 PUSH2 0x85B JUMP JUMPDEST PUSH1 0x0 JUMPDEST DUP4 DUP2 LT ISZERO PUSH2 0x727 JUMPI DUP2 SLOAD DUP2 DUP10 ADD MSTORE PUSH1 0x1 DUP3 ADD SWAP2 POP PUSH1 0x20 DUP2 ADD SWAP1 POP PUSH2 0x708 JUMP JUMPDEST DUP4 DUP9 ADD SWAP6 POP POP POP JUMPDEST POP POP POP SWAP3 SWAP2 POP POP JUMP JUMPDEST PUSH1 0x0 PUSH2 0x745 PUSH1 0x5 DUP4 PUSH2 0x88C JUMP JUMPDEST SWAP2 POP PUSH2 0x750 DUP3 PUSH2 0xA0A JUMP JUMPDEST PUSH1 0x5 DUP3 ADD SWAP1 POP SWAP2 SWAP1 POP JUMP JUMPDEST PUSH2 0x764 DUP2 PUSH2 0x8D5 JUMP JUMPDEST DUP3 MSTORE POP POP JUMP JUMPDEST PUSH1 0x0 PUSH2 0x776 DUP3 DUP5 PUSH2 0x688 JUMP JUMPDEST SWAP2 POP DUP2 SWAP1 POP SWAP3 SWAP2 POP POP JUMP JUMPDEST PUSH1 0x0 PUSH2 0x78D DUP3 DUP5 PUSH2 0x6B9 JUMP JUMPDEST SWAP2 POP DUP2 SWAP1 POP SWAP3 SWAP2 POP POP JUMP JUMPDEST PUSH1 0x0 PUSH2 0x7A3 DUP3 PUSH2 0x738 JUMP JUMPDEST SWAP2 POP DUP2 SWAP1 POP SWAP2 SWAP1 POP JUMP JUMPDEST PUSH1 0x0 PUSH1 0x20 DUP3 ADD SWAP1 POP PUSH2 0x7C2 PUSH1 0x0 DUP4 ADD DUP5 PUSH2 0x640 JUMP JUMPDEST SWAP3 SWAP2 POP POP JUMP JUMPDEST PUSH1 0x0 PUSH1 0x20 DUP3 ADD SWAP1 POP DUP2 DUP2 SUB PUSH1 0x0 DUP4 ADD MSTORE PUSH2 0x7E2 DUP2 DUP5 PUSH2 0x64F JUMP JUMPDEST SWAP1 POP SWAP3 SWAP2 POP POP JUMP JUMPDEST PUSH1 0x0 PUSH1 0x20 DUP3 ADD SWAP1 POP PUSH2 0x7FF PUSH1 0x0 DUP4 ADD DUP5 PUSH2 0x75B JUMP JUMPDEST SWAP3 SWAP2 POP POP JUMP JUMPDEST PUSH1 0x0 PUSH2 0x80F PUSH2 0x820 JUMP JUMPDEST SWAP1 POP PUSH2 0x81B DUP3 DUP3 PUSH2 0x956 JUMP JUMPDEST SWAP2 SWAP1 POP JUMP JUMPDEST PUSH1 0x0 PUSH1 0x40 MLOAD SWAP1 POP SWAP1 JUMP JUMPDEST PUSH1 0x0 PUSH8 0xFFFFFFFFFFFFFFFF DUP3 GT ISZERO PUSH2 0x845 JUMPI PUSH2 0x844 PUSH2 0x9B6 JUMP JUMPDEST JUMPDEST PUSH2 0x84E DUP3 PUSH2 0x9F9 JUMP JUMPDEST SWAP1 POP PUSH1 0x20 DUP2 ADD SWAP1 POP SWAP2 SWAP1 POP JUMP JUMPDEST PUSH1 0x0 DUP2 SWAP1 POP DUP2 PUSH1 0x0 MSTORE PUSH1 0x20 PUSH1 0x0 KECCAK256 SWAP1 POP SWAP2 SWAP1 POP JUMP JUMPDEST PUSH1 0x0 DUP2 MLOAD SWAP1 POP SWAP2 SWAP1 POP JUMP JUMPDEST PUSH1 0x0 DUP3 DUP3 MSTORE PUSH1 0x20 DUP3 ADD SWAP1 POP SWAP3 SWAP2 POP POP JUMP JUMPDEST PUSH1 0x0 DUP2 SWAP1 POP SWAP3 SWAP2 POP POP JUMP JUMPDEST PUSH1 0x0 PUSH2 0x8A2 DUP3 PUSH2 0x8B5 JUMP JUMPDEST SWAP1 POP SWAP2 SWAP1 POP JUMP JUMPDEST PUSH1 0x0 DUP2 ISZERO ISZERO SWAP1 POP SWAP2 SWAP1 POP JUMP JUMPDEST PUSH1 0x0 PUSH20 0xFFFFFFFFFFFFFFFFFFFFFFFFFFFFFFFFFFFFFFFF DUP3 AND SWAP1 POP SWAP2 SWAP1 POP JUMP JUMPDEST PUSH1 0x0 PUSH1 0xFF DUP3 AND SWAP1 POP SWAP2 SWAP1 POP JUMP JUMPDEST DUP3 DUP2 DUP4 CALLDATACOPY PUSH1 0x0 DUP4 DUP4 ADD MSTORE POP POP POP JUMP JUMPDEST PUSH1 0x0 JUMPDEST DUP4 DUP2 LT ISZERO PUSH2 0x90F JUMPI DUP1 DUP3 ADD MLOAD DUP2 DUP5 ADD MSTORE PUSH1 0x20 DUP2 ADD SWAP1 POP PUSH2 0x8F4 JUMP JUMPDEST DUP4 DUP2 GT ISZERO PUSH2 0x91E JUMPI PUSH1 0x0 DUP5 DUP5 ADD MSTORE JUMPDEST POP POP POP POP JUMP JUMPDEST PUSH1 0x0 PUSH1 0x2 DUP3 DIV SWAP1 POP PUSH1 0x1 DUP3 AND DUP1 PUSH2 0x93C JUMPI PUSH1 0x7F DUP3 AND SWAP2 POP JUMPDEST PUSH1 0x20 DUP3 LT DUP2 EQ ISZERO PUSH2 0x950 JUMPI PUSH2 0x94F PUSH2 0x987 JUMP JUMPDEST JUMPDEST POP SWAP2 SWAP1 POP JUMP JUMPDEST PUSH2 0x95F DUP3 PUSH2 0x9F9 JUMP JUMPDEST DUP2 ADD DUP2 DUP2 LT PUSH8 0xFFFFFFFFFFFFFFFF DUP3 GT OR ISZERO PUSH2 0x97E JUMPI PUSH2 0x97D PUSH2 0x9B6 JUMP JUMPDEST JUMPDEST DUP1 PUSH1 0x40 MSTORE POP POP POP JUMP JUMPDEST PUSH32 0x4E487B7100000000000000000000000000000000000000000000000000000000 PUSH1 0x0 MSTORE PUSH1 0x22 PUSH1 0x4 MSTORE PUSH1 0x24 PUSH1 0x0 REVERT JUMPDEST PUSH32 0x4E487B7100000000000000000000000000000000000000000000000000000000 PUSH1 0x0 MSTORE PUSH1 0x41 PUSH1 0x4 MSTORE PUSH1 0x24 PUSH1 0x0 REVERT JUMPDEST PUSH1 0x0 DUP1 REVERT JUMPDEST PUSH1 0x0 DUP1 REVERT JUMPDEST PUSH1 0x0 DUP1 REVERT JUMPDEST PUSH1 0x0 DUP1 REVERT JUMPDEST PUSH1 0x0 PUSH1 0x1F NOT PUSH1 0x1F DUP4 ADD AND SWAP1 POP SWAP2 SWAP1 POP JUMP JUMPDEST PUSH32 0x68656C6C6F000000000000000000000000000000000000000000000000000000 PUSH1 0x0 DUP3 ADD MSTORE POP JUMP JUMPDEST PUSH2 0xA3C DUP2 PUSH2 0x897 JUMP JUMPDEST DUP2 EQ PUSH2 0xA47 JUMPI PUSH1 0x0 DUP1 REVERT JUMPDEST POP JUMP INVALID MSIZE PUSH16 0x752077696C6C2066696E642077686174 KECCAK256 PUSH26 0x6F75206E65656420696E20696E666F3128292E54727920696E66 PUSH16 0x3228292C206275742077697468202268 PUSH6 0x6C6C6F222061 PUSH20 0x206120706172616D657465722E5468652070726F PUSH17 0x6572747920696E666F4E756D20686F6C64 PUSH20 0x20746865206E756D626572206F6620746865206E PUSH6 0x787420696E66 PUSH16 0x206D6574686F6420746F2063616C6C2E 0x49 PUSH7 0x20796F75206B6E PUSH16 0x77207468652070617373776F72642C20 PUSH20 0x75626D697420697420746F2061757468656E7469 PUSH4 0x61746528 0x29 0x2E PUSH21 0x68654D6574686F644E616D6520697320746865206E PUSH2 0x6D65 KECCAK256 PUSH16 0x6620746865206E657874206D6574686F PUSH5 0x2EA2646970 PUSH7 0x7358221220CEF3 LOG1 PUSH14 0x945A864C04B3651677C53154F4BC 0x22 0xDD SLT MSTORE 0xE PUSH1 0xBB SWAP5 SAR EXP 0xDF 0x27 SWAP1 0x4D PUSH5 0x736F6C6343 STOP ADDMOD SMOD STOP CALLER SLOAD PUSH9 0x65206D6574686F6420 PUSH15 0x616D65206973206D6574686F643731 ORIGIN CALLER CODECOPY CALLVALUE CODECOPY 0x2E "
				},
				"gasEstimates": {
					"creation": {
						"codeDepositCost": "588200",
						"executionCost": "infinite",
						"totalCost": "infinite"
					},
					"external": {
						"authenticate(string)": "infinite",
						"getCleared()": "2568",
						"info()": "infinite",
						"info1()": "infinite",
						"info2(string)": "infinite",
						"info42()": "infinite",
						"infoNum()": "2515",
						"method7123949()": "infinite",
						"password()": "infinite",
						"test(address)": "infinite",
						"theMethodName()": "infinite"
					}
				},
				"methodIdentifiers": {
					"authenticate(string)": "aa613b29",
					"getCleared()": "3c848d78",
					"info()": "370158ea",
					"info1()": "d4c3cf44",
					"info2(string)": "2133b6a9",
					"info42()": "2cbd79a5",
					"infoNum()": "c253aebe",
					"method7123949()": "f0bc7081",
					"password()": "224b610b",
					"test(address)": "bb29998e",
					"theMethodName()": "f157a1e3"
				}
			},
			"storageLayout": {
				"storage": [
					{
						"astId": 3,
						"contract": "contract/examples/temp.sol:Instance",
						"label": "password",
						"offset": 0,
						"slot": "0",
						"type": "t_string_storage"
					},
					{
						"astId": 6,
						"contract": "contract/examples/temp.sol:Instance",
						"label": "infoNum",
						"offset": 0,
						"slot": "1",
						"type": "t_uint8"
					},
					{
						"astId": 9,
						"contract": "contract/examples/temp.sol:Instance",
						"label": "theMethodName",
						"offset": 0,
						"slot": "2",
						"type": "t_string_storage"
					},
					{
						"astId": 12,
						"contract": "contract/examples/temp.sol:Instance",
						"label": "cleared",
						"offset": 0,
						"slot": "3",
						"type": "t_bool"
					}
				],
				"types": {
					"t_bool": {
						"encoding": "inplace",
						"label": "bool",
						"numberOfBytes": "1"
					},
					"t_string_storage": {
						"encoding": "bytes",
						"label": "string",
						"numberOfBytes": "32"
					},
					"t_uint8": {
						"encoding": "inplace",
						"label": "uint8",
						"numberOfBytes": "1"
					}
				}
			},
			"userdoc": {
				"kind": "user",
				"methods": {},
				"version": 1
			}
		}
	}
}