{
	"data": {
		"bytecode": {
			"linkReferences": {},
			"object": "608060405234801561001057600080fd5b50610448806100206000396000f3fe608060405234801561001057600080fd5b50600436106100365760003560e01c80634e678e801461003b578063cd4fe8cd1461006b575b600080fd5b610055600480360381019061005091906101a7565b610087565b60405161006291906102a3565b60405180910390f35b610085600480360381019061008091906101f0565b6100ae565b005b60008082604051610098919061028c565b9081526020016040518091039020549050919050565b806000836040516100bf919061028c565b908152602001604051809103902081905550816040516100df919061028c565b60405180910390207ffb95a454fb88a8138042f1b612100fff4b0a6159ea05e9b136eb293075809edf8260405161011691906102a3565b60405180910390a25050565b6000610135610130846102e3565b6102be565b905082815260208101848484011115610151576101506103db565b5b61015c848285610334565b509392505050565b600082601f830112610179576101786103d6565b5b8135610189848260208601610122565b91505092915050565b6000813590506101a1816103fb565b92915050565b6000602082840312156101bd576101bc6103e5565b5b600082013567ffffffffffffffff8111156101db576101da6103e0565b5b6101e784828501610164565b91505092915050565b60008060408385031215610207576102066103e5565b5b600083013567ffffffffffffffff811115610225576102246103e0565b5b61023185828601610164565b925050602061024285828601610192565b9150509250929050565b600061025782610314565b610261818561031f565b9350610271818560208601610343565b80840191505092915050565b6102868161032a565b82525050565b6000610298828461024c565b915081905092915050565b60006020820190506102b8600083018461027d565b92915050565b60006102c86102d9565b90506102d48282610376565b919050565b6000604051905090565b600067ffffffffffffffff8211156102fe576102fd6103a7565b5b610307826103ea565b9050602081019050919050565b600081519050919050565b600081905092915050565b6000819050919050565b82818337600083830152505050565b60005b83811015610361578082015181840152602081019050610346565b83811115610370576000848401525b50505050565b61037f826103ea565b810181811067ffffffffffffffff8211171561039e5761039d6103a7565b5b80604052505050565b7f4e487b7100000000000000000000000000000000000000000000000000000000600052604160045260246000fd5b600080fd5b600080fd5b600080fd5b600080fd5b6000601f19601f8301169050919050565b6104048161032a565b811461040f57600080fd5b5056fea26469706673582212204c81e037492b80431c2836db13632db9bea1ad562eb09a0a5951aec47c1039b964736f6c63430008070033",
			"opcodes": "PUSH1 0x80 PUSH1 0x40 MSTORE CALLVALUE DUP1 ISZERO PUSH2 0x10 JUMPI PUSH1 0x0 DUP1 REVERT JUMPDEST POP PUSH2 0x448 DUP1 PUSH2 0x20 PUSH1 0x0 CODECOPY PUSH1 0x0 RETURN INVALID PUSH1 0x80 PUSH1 0x40 MSTORE CALLVALUE DUP1 ISZERO PUSH2 0x10 JUMPI PUSH1 0x0 DUP1 REVERT JUMPDEST POP PUSH1 0x4 CALLDATASIZE LT PUSH2 0x36 JUMPI PUSH1 0x0 CALLDATALOAD PUSH1 0xE0 SHR DUP1 PUSH4 0x4E678E80 EQ PUSH2 0x3B JUMPI DUP1 PUSH4 0xCD4FE8CD EQ PUSH2 0x6B JUMPI JUMPDEST PUSH1 0x0 DUP1 REVERT JUMPDEST PUSH2 0x55 PUSH1 0x4 DUP1 CALLDATASIZE SUB DUP2 ADD SWAP1 PUSH2 0x50 SWAP2 SWAP1 PUSH2 0x1A7 JUMP JUMPDEST PUSH2 0x87 JUMP JUMPDEST PUSH1 0x40 MLOAD PUSH2 0x62 SWAP2 SWAP1 PUSH2 0x2A3 JUMP JUMPDEST PUSH1 0x40 MLOAD DUP1 SWAP2 SUB SWAP1 RETURN JUMPDEST PUSH2 0x85 PUSH1 0x4 DUP1 CALLDATASIZE SUB DUP2 ADD SWAP1 PUSH2 0x80 SWAP2 SWAP1 PUSH2 0x1F0 JUMP JUMPDEST PUSH2 0xAE JUMP JUMPDEST STOP JUMPDEST PUSH1 0x0 DUP1 DUP3 PUSH1 0x40 MLOAD PUSH2 0x98 SWAP2 SWAP1 PUSH2 0x28C JUMP JUMPDEST SWAP1 DUP2 MSTORE PUSH1 0x20 ADD PUSH1 0x40 MLOAD DUP1 SWAP2 SUB SWAP1 KECCAK256 SLOAD SWAP1 POP SWAP2 SWAP1 POP JUMP JUMPDEST DUP1 PUSH1 0x0 DUP4 PUSH1 0x40 MLOAD PUSH2 0xBF SWAP2 SWAP1 PUSH2 0x28C JUMP JUMPDEST SWAP1 DUP2 MSTORE PUSH1 0x20 ADD PUSH1 0x40 MLOAD DUP1 SWAP2 SUB SWAP1 KECCAK256 DUP2 SWAP1 SSTORE POP DUP2 PUSH1 0x40 MLOAD PUSH2 0xDF SWAP2 SWAP1 PUSH2 0x28C JUMP JUMPDEST PUSH1 0x40 MLOAD DUP1 SWAP2 SUB SWAP1 KECCAK256 PUSH32 0xFB95A454FB88A8138042F1B612100FFF4B0A6159EA05E9B136EB293075809EDF DUP3 PUSH1 0x40 MLOAD PUSH2 0x116 SWAP2 SWAP1 PUSH2 0x2A3 JUMP JUMPDEST PUSH1 0x40 MLOAD DUP1 SWAP2 SUB SWAP1 LOG2 POP POP JUMP JUMPDEST PUSH1 0x0 PUSH2 0x135 PUSH2 0x130 DUP5 PUSH2 0x2E3 JUMP JUMPDEST PUSH2 0x2BE JUMP JUMPDEST SWAP1 POP DUP3 DUP2 MSTORE PUSH1 0x20 DUP2 ADD DUP5 DUP5 DUP5 ADD GT ISZERO PUSH2 0x151 JUMPI PUSH2 0x150 PUSH2 0x3DB JUMP JUMPDEST JUMPDEST PUSH2 0x15C DUP5 DUP3 DUP6 PUSH2 0x334 JUMP JUMPDEST POP SWAP4 SWAP3 POP POP POP JUMP JUMPDEST PUSH1 0x0 DUP3 PUSH1 0x1F DUP4 ADD SLT PUSH2 0x179 JUMPI PUSH2 0x178 PUSH2 0x3D6 JUMP JUMPDEST JUMPDEST DUP2 CALLDATALOAD PUSH2 0x189 DUP5 DUP3 PUSH1 0x20 DUP7 ADD PUSH2 0x122 JUMP JUMPDEST SWAP2 POP POP SWAP3 SWAP2 POP POP JUMP JUMPDEST PUSH1 0x0 DUP2 CALLDATALOAD SWAP1 POP PUSH2 0x1A1 DUP2 PUSH2 0x3FB JUMP JUMPDEST SWAP3 SWAP2 POP POP JUMP JUMPDEST PUSH1 0x0 PUSH1 0x20 DUP3 DUP5 SUB SLT ISZERO PUSH2 0x1BD JUMPI PUSH2 0x1BC PUSH2 0x3E5 JUMP JUMPDEST JUMPDEST PUSH1 0x0 DUP3 ADD CALLDATALOAD PUSH8 0xFFFFFFFFFFFFFFFF DUP2 GT ISZERO PUSH2 0x1DB JUMPI PUSH2 0x1DA PUSH2 0x3E0 JUMP JUMPDEST JUMPDEST PUSH2 0x1E7 DUP5 DUP3 DUP6 ADD PUSH2 0x164 JUMP JUMPDEST SWAP2 POP POP SWAP3 SWAP2 POP POP JUMP JUMPDEST PUSH1 0x0 DUP1 PUSH1 0x40 DUP4 DUP6 SUB SLT ISZERO PUSH2 0x207 JUMPI PUSH2 0x206 PUSH2 0x3E5 JUMP JUMPDEST JUMPDEST PUSH1 0x0 DUP4 ADD CALLDATALOAD PUSH8 0xFFFFFFFFFFFFFFFF DUP2 GT ISZERO PUSH2 0x225 JUMPI PUSH2 0x224 PUSH2 0x3E0 JUMP JUMPDEST JUMPDEST PUSH2 0x231 DUP6 DUP3 DUP7 ADD PUSH2 0x164 JUMP JUMPDEST SWAP3 POP POP PUSH1 0x20 PUSH2 0x242 DUP6 DUP3 DUP7 ADD PUSH2 0x192 JUMP JUMPDEST SWAP2 POP POP SWAP3 POP SWAP3 SWAP1 POP JUMP JUMPDEST PUSH1 0x0 PUSH2 0x257 DUP3 PUSH2 0x314 JUMP JUMPDEST PUSH2 0x261 DUP2 DUP6 PUSH2 0x31F JUMP JUMPDEST SWAP4 POP PUSH2 0x271 DUP2 DUP6 PUSH1 0x20 DUP7 ADD PUSH2 0x343 JUMP JUMPDEST DUP1 DUP5 ADD SWAP2 POP POP SWAP3 SWAP2 POP POP JUMP JUMPDEST PUSH2 0x286 DUP2 PUSH2 0x32A JUMP JUMPDEST DUP3 MSTORE POP POP JUMP JUMPDEST PUSH1 0x0 PUSH2 0x298 DUP3 DUP5 PUSH2 0x24C JUMP JUMPDEST SWAP2 POP DUP2 SWAP1 POP SWAP3 SWAP2 POP POP JUMP JUMPDEST PUSH1 0x0 PUSH1 0x20 DUP3 ADD SWAP1 POP PUSH2 0x2B8 PUSH1 0x0 DUP4 ADD DUP5 PUSH2 0x27D JUMP JUMPDEST SWAP3 SWAP2 POP POP JUMP JUMPDEST PUSH1 0x0 PUSH2 0x2C8 PUSH2 0x2D9 JUMP JUMPDEST SWAP1 POP PUSH2 0x2D4 DUP3 DUP3 PUSH2 0x376 JUMP JUMPDEST SWAP2 SWAP1 POP JUMP JUMPDEST PUSH1 0x0 PUSH1 0x40 MLOAD SWAP1 POP SWAP1 JUMP JUMPDEST PUSH1 0x0 PUSH8 0xFFFFFFFFFFFFFFFF DUP3 GT ISZERO PUSH2 0x2FE JUMPI PUSH2 0x2FD PUSH2 0x3A7 JUMP JUMPDEST JUMPDEST PUSH2 0x307 DUP3 PUSH2 0x3EA JUMP JUMPDEST SWAP1 POP PUSH1 0x20 DUP2 ADD SWAP1 POP SWAP2 SWAP1 POP JUMP JUMPDEST PUSH1 0x0 DUP2 MLOAD SWAP1 POP SWAP2 SWAP1 POP JUMP JUMPDEST PUSH1 0x0 DUP2 SWAP1 POP SWAP3 SWAP2 POP POP JUMP JUMPDEST PUSH1 0x0 DUP2 SWAP1 POP SWAP2 SWAP1 POP JUMP JUMPDEST DUP3 DUP2 DUP4 CALLDATACOPY PUSH1 0x0 DUP4 DUP4 ADD MSTORE POP POP POP JUMP JUMPDEST PUSH1 0x0 JUMPDEST DUP4 DUP2 LT ISZERO PUSH2 0x361 JUMPI DUP1 DUP3 ADD MLOAD DUP2 DUP5 ADD MSTORE PUSH1 0x20 DUP2 ADD SWAP1 POP PUSH2 0x346 JUMP JUMPDEST DUP4 DUP2 GT ISZERO PUSH2 0x370 JUMPI PUSH1 0x0 DUP5 DUP5 ADD MSTORE JUMPDEST POP POP POP POP JUMP JUMPDEST PUSH2 0x37F DUP3 PUSH2 0x3EA JUMP JUMPDEST DUP2 ADD DUP2 DUP2 LT PUSH8 0xFFFFFFFFFFFFFFFF DUP3 GT OR ISZERO PUSH2 0x39E JUMPI PUSH2 0x39D PUSH2 0x3A7 JUMP JUMPDEST JUMPDEST DUP1 PUSH1 0x40 MSTORE POP POP POP JUMP JUMPDEST PUSH32 0x4E487B7100000000000000000000000000000000000000000000000000000000 PUSH1 0x0 MSTORE PUSH1 0x41 PUSH1 0x4 MSTORE PUSH1 0x24 PUSH1 0x0 REVERT JUMPDEST PUSH1 0x0 DUP1 REVERT JUMPDEST PUSH1 0x0 DUP1 REVERT JUMPDEST PUSH1 0x0 DUP1 REVERT JUMPDEST PUSH1 0x0 DUP1 REVERT JUMPDEST PUSH1 0x0 PUSH1 0x1F NOT PUSH1 0x1F DUP4 ADD AND SWAP1 POP SWAP2 SWAP1 POP JUMP JUMPDEST PUSH2 0x404 DUP2 PUSH2 0x32A JUMP JUMPDEST DUP2 EQ PUSH2 0x40F JUMPI PUSH1 0x0 DUP1 REVERT JUMPDEST POP JUMP INVALID LOG2 PUSH5 0x6970667358 0x22 SLT KECCAK256 0x4C DUP2 0xE0 CALLDATACOPY 0x49 0x2B DUP1 NUMBER SHR 0x28 CALLDATASIZE 0xDB SGT PUSH4 0x2DB9BEA1 0xAD JUMP 0x2E 0xB0 SWAP11 EXP MSIZE MLOAD 0xAE 0xC4 PUSH29 0x1039B964736F6C63430008070033000000000000000000000000000000 "
		},
		"gasEstimates": {
			"creation": {
				"codeDepositCost": "219200",
				"executionCost": "263",
				"totalCost": "219463"
			},
			"external": {
				"GetUint256Param(string)": "infinite",
				"SetUint256Param(string,uint256)": "infinite"
			}
		},
		"methodIdentifiers": {
			"GetUint256Param(string)": "4e678e80",
			"SetUint256Param(string,uint256)": "cd4fe8cd"
		}
	},
	"abi": [
		{
			"anonymous": false,
			"inputs": [
				{
					"indexed": true,
					"internalType": "string",
					"name": "_key",
					"type": "string"
				},
				{
					"indexed": false,
					"internalType": "uint256",
					"name": "_value",
					"type": "uint256"
				}
			],
			"name": "Uint256ParamSetted",
			"type": "event"
		},
		{
			"inputs": [
				{
					"internalType": "string",
					"name": "_key",
					"type": "string"
				}
			],
			"name": "GetUint256Param",
			"outputs": [
				{
					"internalType": "uint256",
					"name": "",
					"type": "uint256"
				}
			],
			"stateMutability": "view",
			"type": "function"
		},
		{
			"inputs": [
				{
					"internalType": "string",
					"name": "_key",
					"type": "string"
				},
				{
					"internalType": "uint256",
					"name": "_value",
					"type": "uint256"
				}
			],
			"name": "SetUint256Param",
			"outputs": [],
			"stateMutability": "nonpayable",
			"type": "function"
		}
	]
}