{
	"contract/myProject/CNRC_V2/V2_CNRedCross.sol": {
		"Params": {
			"abi": [
				{
					"anonymous": false,
					"inputs": [
						{
							"indexed": false,
							"internalType": "uint8",
							"name": "version",
							"type": "uint8"
						}
					],
					"name": "Initialized",
					"type": "event"
				},
				{
					"anonymous": false,
					"inputs": [
						{
							"indexed": true,
							"internalType": "address",
							"name": "previousOwner",
							"type": "address"
						},
						{
							"indexed": true,
							"internalType": "address",
							"name": "newOwner",
							"type": "address"
						}
					],
					"name": "OwnershipTransferred",
					"type": "event"
				},
				{
					"anonymous": false,
					"inputs": [
						{
							"indexed": true,
							"internalType": "string",
							"name": "_key",
							"type": "string"
						},
						{
							"indexed": false,
							"internalType": "uint256",
							"name": "_value",
							"type": "uint256"
						}
					],
					"name": "Uint256ParamSetted",
					"type": "event"
				},
				{
					"inputs": [
						{
							"internalType": "string",
							"name": "_key",
							"type": "string"
						}
					],
					"name": "GetUint256Param",
					"outputs": [
						{
							"internalType": "uint256",
							"name": "",
							"type": "uint256"
						}
					],
					"stateMutability": "view",
					"type": "function"
				},
				{
					"inputs": [
						{
							"internalType": "string",
							"name": "_key",
							"type": "string"
						},
						{
							"internalType": "uint256",
							"name": "_value",
							"type": "uint256"
						}
					],
					"name": "SetUint256Param",
					"outputs": [],
					"stateMutability": "nonpayable",
					"type": "function"
				},
				{
					"inputs": [],
					"name": "initialize",
					"outputs": [],
					"stateMutability": "nonpayable",
					"type": "function"
				},
				{
					"inputs": [],
					"name": "owner",
					"outputs": [
						{
							"internalType": "address",
							"name": "",
							"type": "address"
						}
					],
					"stateMutability": "view",
					"type": "function"
				},
				{
					"inputs": [
						{
							"internalType": "uint256",
							"name": "_idx",
							"type": "uint256"
						}
					],
					"name": "readSlot",
					"outputs": [
						{
							"internalType": "bytes32",
							"name": "result",
							"type": "bytes32"
						}
					],
					"stateMutability": "view",
					"type": "function"
				},
				{
					"inputs": [],
					"name": "renounceOwnership",
					"outputs": [],
					"stateMutability": "nonpayable",
					"type": "function"
				},
				{
					"inputs": [
						{
							"internalType": "address",
							"name": "newOwner",
							"type": "address"
						}
					],
					"name": "transferOwnership",
					"outputs": [],
					"stateMutability": "nonpayable",
					"type": "function"
				},
				{
					"inputs": [
						{
							"internalType": "uint256",
							"name": "_idx",
							"type": "uint256"
						}
					],
					"name": "writeSlot",
					"outputs": [],
					"stateMutability": "nonpayable",
					"type": "function"
				}
			],
			"devdoc": {
				"kind": "dev",
				"methods": {
					"owner()": {
						"details": "Returns the address of the current owner."
					},
					"renounceOwnership()": {
						"details": "Leaves the contract without owner. It will not be possible to call `onlyOwner` functions anymore. Can only be called by the current owner. NOTE: Renouncing ownership will leave the contract without an owner, thereby removing any functionality that is only available to the owner."
					},
					"transferOwnership(address)": {
						"details": "Transfers ownership of the contract to a new account (`newOwner`). Can only be called by the current owner."
					}
				},
				"version": 1
			},
			"evm": {
				"assembly": "    /* \"contract/myProject/CNRC_V2/V2_CNRedCross.sol\":38308:38961  contract Params is Initializable, OwnableUpgradeable {\r... */\n  mstore(0x40, 0x80)\n  callvalue\n  dup1\n  iszero\n  tag_1\n  jumpi\n  0x00\n  dup1\n  revert\ntag_1:\n  pop\n  dataSize(sub_0)\n  dup1\n  dataOffset(sub_0)\n  0x00\n  codecopy\n  0x00\n  return\nstop\n\nsub_0: assembly {\n        /* \"contract/myProject/CNRC_V2/V2_CNRedCross.sol\":38308:38961  contract Params is Initializable, OwnableUpgradeable {\r... */\n      mstore(0x40, 0x80)\n      callvalue\n      dup1\n      iszero\n      tag_1\n      jumpi\n      0x00\n      dup1\n      revert\n    tag_1:\n      pop\n      jumpi(tag_2, lt(calldatasize, 0x04))\n      shr(0xe0, calldataload(0x00))\n      dup1\n      0x8da5cb5b\n      gt\n      tag_11\n      jumpi\n      dup1\n      0x8da5cb5b\n      eq\n      tag_7\n      jumpi\n      dup1\n      0xcd4fe8cd\n      eq\n      tag_8\n      jumpi\n      dup1\n      0xec16f087\n      eq\n      tag_9\n      jumpi\n      dup1\n      0xf2fde38b\n      eq\n      tag_10\n      jumpi\n      jump(tag_2)\n    tag_11:\n      dup1\n      0x02ce8af3\n      eq\n      tag_3\n      jumpi\n      dup1\n      0x4e678e80\n      eq\n      tag_4\n      jumpi\n      dup1\n      0x715018a6\n      eq\n      tag_5\n      jumpi\n      dup1\n      0x8129fc1c\n      eq\n      tag_6\n      jumpi\n    tag_2:\n      0x00\n      dup1\n      revert\n        /* \"contract/myProject/CNRC_V2/V2_CNRedCross.sol\":20826:20969  function readSlot(uint256 _idx) public view returns (bytes32 result) {\r... */\n    tag_3:\n      tag_12\n      0x04\n      dup1\n      calldatasize\n      sub\n      dup2\n      add\n      swap1\n      tag_13\n      swap2\n      swap1\n      tag_14\n      jump\t// in\n    tag_13:\n      tag_15\n      jump\t// in\n    tag_12:\n      mload(0x40)\n      tag_16\n      swap2\n      swap1\n      tag_17\n      jump\t// in\n    tag_16:\n      mload(0x40)\n      dup1\n      swap2\n      sub\n      swap1\n      return\n        /* \"contract/myProject/CNRC_V2/V2_CNRedCross.sol\":38838:38958  function GetUint256Param(string memory _key) public view returns (uint256) {\r... */\n    tag_4:\n      tag_18\n      0x04\n      dup1\n      calldatasize\n      sub\n      dup2\n      add\n      swap1\n      tag_19\n      swap2\n      swap1\n      tag_20\n      jump\t// in\n    tag_19:\n      tag_21\n      jump\t// in\n    tag_18:\n      mload(0x40)\n      tag_22\n      swap2\n      swap1\n      tag_23\n      jump\t// in\n    tag_22:\n      mload(0x40)\n      dup1\n      swap2\n      sub\n      swap1\n      return\n        /* \"contract/myProject/CNRC_V2/V2_CNRedCross.sol\":19673:19776  function renounceOwnership() public virtual onlyOwner {\r... */\n    tag_5:\n      tag_24\n      tag_25\n      jump\t// in\n    tag_24:\n      stop\n        /* \"contract/myProject/CNRC_V2/V2_CNRedCross.sol\":38374:38497  function initialize() public initializer {\r... */\n    tag_6:\n      tag_26\n      tag_27\n      jump\t// in\n    tag_26:\n      stop\n        /* \"contract/myProject/CNRC_V2/V2_CNRedCross.sol\":19025:19112  function owner() public view virtual returns (address) {\r... */\n    tag_7:\n      tag_28\n      tag_29\n      jump\t// in\n    tag_28:\n      mload(0x40)\n      tag_30\n      swap2\n      swap1\n      tag_31\n      jump\t// in\n    tag_30:\n      mload(0x40)\n      dup1\n      swap2\n      sub\n      swap1\n      return\n        /* \"contract/myProject/CNRC_V2/V2_CNRedCross.sol\":38632:38830  function SetUint256Param(string memory _key, uint256 _value)\r... */\n    tag_8:\n      tag_32\n      0x04\n      dup1\n      calldatasize\n      sub\n      dup2\n      add\n      swap1\n      tag_33\n      swap2\n      swap1\n      tag_34\n      jump\t// in\n    tag_33:\n      tag_35\n      jump\t// in\n    tag_32:\n      stop\n        /* \"contract/myProject/CNRC_V2/V2_CNRedCross.sol\":20977:21138  function writeSlot(uint256 _idx) public {\r... */\n    tag_9:\n      tag_36\n      0x04\n      dup1\n      calldatasize\n      sub\n      dup2\n      add\n      swap1\n      tag_37\n      swap2\n      swap1\n      tag_14\n      jump\t// in\n    tag_37:\n      tag_38\n      jump\t// in\n    tag_36:\n      stop\n        /* \"contract/myProject/CNRC_V2/V2_CNRedCross.sol\":19931:20169  function transferOwnership(address newOwner) public virtual onlyOwner {\r... */\n    tag_10:\n      tag_39\n      0x04\n      dup1\n      calldatasize\n      sub\n      dup2\n      add\n      swap1\n      tag_40\n      swap2\n      swap1\n      tag_41\n      jump\t// in\n    tag_40:\n      tag_42\n      jump\t// in\n    tag_39:\n      stop\n        /* \"contract/myProject/CNRC_V2/V2_CNRedCross.sol\":20826:20969  function readSlot(uint256 _idx) public view returns (bytes32 result) {\r... */\n    tag_15:\n        /* \"contract/myProject/CNRC_V2/V2_CNRedCross.sol\":20879:20893  bytes32 result */\n      0x00\n        /* \"contract/myProject/CNRC_V2/V2_CNRedCross.sol\":20946:20950  _idx */\n      dup2\n        /* \"contract/myProject/CNRC_V2/V2_CNRedCross.sol\":20940:20951  sload(_idx) */\n      sload\n        /* \"contract/myProject/CNRC_V2/V2_CNRedCross.sol\":20930:20951  result := sload(_idx) */\n      swap1\n      pop\n        /* \"contract/myProject/CNRC_V2/V2_CNRedCross.sol\":20826:20969  function readSlot(uint256 _idx) public view returns (bytes32 result) {\r... */\n      swap2\n      swap1\n      pop\n      jump\t// out\n        /* \"contract/myProject/CNRC_V2/V2_CNRedCross.sol\":38838:38958  function GetUint256Param(string memory _key) public view returns (uint256) {\r... */\n    tag_21:\n        /* \"contract/myProject/CNRC_V2/V2_CNRedCross.sol\":38904:38911  uint256 */\n      0x00\n        /* \"contract/myProject/CNRC_V2/V2_CNRedCross.sol\":38931:38944  uint256Params */\n      0x65\n        /* \"contract/myProject/CNRC_V2/V2_CNRedCross.sol\":38945:38949  _key */\n      dup3\n        /* \"contract/myProject/CNRC_V2/V2_CNRedCross.sol\":38931:38950  uint256Params[_key] */\n      mload(0x40)\n      tag_45\n      swap2\n      swap1\n      tag_46\n      jump\t// in\n    tag_45:\n      swap1\n      dup2\n      mstore\n      0x20\n      add\n      mload(0x40)\n      dup1\n      swap2\n      sub\n      swap1\n      keccak256\n      sload\n        /* \"contract/myProject/CNRC_V2/V2_CNRedCross.sol\":38924:38950  return uint256Params[_key] */\n      swap1\n      pop\n        /* \"contract/myProject/CNRC_V2/V2_CNRedCross.sol\":38838:38958  function GetUint256Param(string memory _key) public view returns (uint256) {\r... */\n      swap2\n      swap1\n      pop\n      jump\t// out\n        /* \"contract/myProject/CNRC_V2/V2_CNRedCross.sol\":19673:19776  function renounceOwnership() public virtual onlyOwner {\r... */\n    tag_25:\n        /* \"contract/myProject/CNRC_V2/V2_CNRedCross.sol\":18911:18924  _checkOwner() */\n      tag_48\n        /* \"contract/myProject/CNRC_V2/V2_CNRedCross.sol\":18911:18922  _checkOwner */\n      tag_49\n        /* \"contract/myProject/CNRC_V2/V2_CNRedCross.sol\":18911:18924  _checkOwner() */\n      jump\t// in\n    tag_48:\n        /* \"contract/myProject/CNRC_V2/V2_CNRedCross.sol\":19738:19768  _transferOwnership(address(0)) */\n      tag_51\n        /* \"contract/myProject/CNRC_V2/V2_CNRedCross.sol\":19765:19766  0 */\n      0x00\n        /* \"contract/myProject/CNRC_V2/V2_CNRedCross.sol\":19738:19756  _transferOwnership */\n      tag_52\n        /* \"contract/myProject/CNRC_V2/V2_CNRedCross.sol\":19738:19768  _transferOwnership(address(0)) */\n      jump\t// in\n    tag_51:\n        /* \"contract/myProject/CNRC_V2/V2_CNRedCross.sol\":19673:19776  function renounceOwnership() public virtual onlyOwner {\r... */\n      jump\t// out\n        /* \"contract/myProject/CNRC_V2/V2_CNRedCross.sol\":38374:38497  function initialize() public initializer {\r... */\n    tag_27:\n        /* \"contract/myProject/CNRC_V2/V2_CNRedCross.sol\":12525:12544  bool isTopLevelCall */\n      0x00\n        /* \"contract/myProject/CNRC_V2/V2_CNRedCross.sol\":12548:12561  _initializing */\n      dup1\n      0x01\n      swap1\n      sload\n      swap1\n      0x0100\n      exp\n      swap1\n      div\n      0xff\n      and\n        /* \"contract/myProject/CNRC_V2/V2_CNRedCross.sol\":12547:12561  !_initializing */\n      iszero\n        /* \"contract/myProject/CNRC_V2/V2_CNRedCross.sol\":12525:12561  bool isTopLevelCall = !_initializing */\n      swap1\n      pop\n        /* \"contract/myProject/CNRC_V2/V2_CNRedCross.sol\":12595:12609  isTopLevelCall */\n      dup1\n        /* \"contract/myProject/CNRC_V2/V2_CNRedCross.sol\":12595:12629  isTopLevelCall && _initialized < 1 */\n      dup1\n      iszero\n      tag_54\n      jumpi\n      pop\n        /* \"contract/myProject/CNRC_V2/V2_CNRedCross.sol\":12628:12629  1 */\n      0x01\n        /* \"contract/myProject/CNRC_V2/V2_CNRedCross.sol\":12613:12625  _initialized */\n      0x00\n      dup1\n      sload\n      swap1\n      0x0100\n      exp\n      swap1\n      div\n      0xff\n      and\n        /* \"contract/myProject/CNRC_V2/V2_CNRedCross.sol\":12613:12629  _initialized < 1 */\n      0xff\n      and\n      lt\n        /* \"contract/myProject/CNRC_V2/V2_CNRedCross.sol\":12595:12629  isTopLevelCall && _initialized < 1 */\n    tag_54:\n        /* \"contract/myProject/CNRC_V2/V2_CNRedCross.sol\":12594:12708  (isTopLevelCall && _initialized < 1) ||\r... */\n      dup1\n      tag_55\n      jumpi\n      pop\n        /* \"contract/myProject/CNRC_V2/V2_CNRedCross.sol\":12653:12686  Address.isContract(address(this)) */\n      tag_56\n        /* \"contract/myProject/CNRC_V2/V2_CNRedCross.sol\":12680:12684  this */\n      address\n        /* \"contract/myProject/CNRC_V2/V2_CNRedCross.sol\":12653:12671  Address.isContract */\n      tag_57\n        /* \"contract/myProject/CNRC_V2/V2_CNRedCross.sol\":12653:12686  Address.isContract(address(this)) */\n      jump\t// in\n    tag_56:\n        /* \"contract/myProject/CNRC_V2/V2_CNRedCross.sol\":12652:12686  !Address.isContract(address(this)) */\n      iszero\n        /* \"contract/myProject/CNRC_V2/V2_CNRedCross.sol\":12652:12707  !Address.isContract(address(this)) && _initialized == 1 */\n      dup1\n      iszero\n      tag_58\n      jumpi\n      pop\n        /* \"contract/myProject/CNRC_V2/V2_CNRedCross.sol\":12706:12707  1 */\n      0x01\n        /* \"contract/myProject/CNRC_V2/V2_CNRedCross.sol\":12690:12702  _initialized */\n      0x00\n      dup1\n      sload\n      swap1\n      0x0100\n      exp\n      swap1\n      div\n      0xff\n      and\n        /* \"contract/myProject/CNRC_V2/V2_CNRedCross.sol\":12690:12707  _initialized == 1 */\n      0xff\n      and\n      eq\n        /* \"contract/myProject/CNRC_V2/V2_CNRedCross.sol\":12652:12707  !Address.isContract(address(this)) && _initialized == 1 */\n    tag_58:\n        /* \"contract/myProject/CNRC_V2/V2_CNRedCross.sol\":12594:12708  (isTopLevelCall && _initialized < 1) ||\r... */\n    tag_55:\n        /* \"contract/myProject/CNRC_V2/V2_CNRedCross.sol\":12572:12782  require(\r... */\n      tag_59\n      jumpi\n      mload(0x40)\n      0x08c379a000000000000000000000000000000000000000000000000000000000\n      dup2\n      mstore\n      0x04\n      add\n      tag_60\n      swap1\n      tag_61\n      jump\t// in\n    tag_60:\n      mload(0x40)\n      dup1\n      swap2\n      sub\n      swap1\n      revert\n    tag_59:\n        /* \"contract/myProject/CNRC_V2/V2_CNRedCross.sol\":12808:12809  1 */\n      0x01\n        /* \"contract/myProject/CNRC_V2/V2_CNRedCross.sol\":12793:12805  _initialized */\n      0x00\n      dup1\n        /* \"contract/myProject/CNRC_V2/V2_CNRedCross.sol\":12793:12809  _initialized = 1 */\n      0x0100\n      exp\n      dup2\n      sload\n      dup2\n      0xff\n      mul\n      not\n      and\n      swap1\n      dup4\n      0xff\n      and\n      mul\n      or\n      swap1\n      sstore\n      pop\n        /* \"contract/myProject/CNRC_V2/V2_CNRedCross.sol\":12824:12838  isTopLevelCall */\n      dup1\n        /* \"contract/myProject/CNRC_V2/V2_CNRedCross.sol\":12820:12887  if (isTopLevelCall) {\r... */\n      iszero\n      tag_62\n      jumpi\n        /* \"contract/myProject/CNRC_V2/V2_CNRedCross.sol\":12871:12875  true */\n      0x01\n        /* \"contract/myProject/CNRC_V2/V2_CNRedCross.sol\":12855:12868  _initializing */\n      0x00\n      0x01\n        /* \"contract/myProject/CNRC_V2/V2_CNRedCross.sol\":12855:12875  _initializing = true */\n      0x0100\n      exp\n      dup2\n      sload\n      dup2\n      0xff\n      mul\n      not\n      and\n      swap1\n      dup4\n      iszero\n      iszero\n      mul\n      or\n      swap1\n      sstore\n      pop\n        /* \"contract/myProject/CNRC_V2/V2_CNRedCross.sol\":12820:12887  if (isTopLevelCall) {\r... */\n    tag_62:\n        /* \"contract/myProject/CNRC_V2/V2_CNRedCross.sol\":38426:38452  __Context_init_unchained() */\n      tag_64\n        /* \"contract/myProject/CNRC_V2/V2_CNRedCross.sol\":38426:38450  __Context_init_unchained */\n      tag_65\n        /* \"contract/myProject/CNRC_V2/V2_CNRedCross.sol\":38426:38452  __Context_init_unchained() */\n      jump\t// in\n    tag_64:\n        /* \"contract/myProject/CNRC_V2/V2_CNRedCross.sol\":38463:38489  __Ownable_init_unchained() */\n      tag_66\n        /* \"contract/myProject/CNRC_V2/V2_CNRedCross.sol\":38463:38487  __Ownable_init_unchained */\n      tag_67\n        /* \"contract/myProject/CNRC_V2/V2_CNRedCross.sol\":38463:38489  __Ownable_init_unchained() */\n      jump\t// in\n    tag_66:\n        /* \"contract/myProject/CNRC_V2/V2_CNRedCross.sol\":12913:12927  isTopLevelCall */\n      dup1\n        /* \"contract/myProject/CNRC_V2/V2_CNRedCross.sol\":12909:13011  if (isTopLevelCall) {\r... */\n      iszero\n      tag_68\n      jumpi\n        /* \"contract/myProject/CNRC_V2/V2_CNRedCross.sol\":12960:12965  false */\n      0x00\n        /* \"contract/myProject/CNRC_V2/V2_CNRedCross.sol\":12944:12957  _initializing */\n      dup1\n      0x01\n        /* \"contract/myProject/CNRC_V2/V2_CNRedCross.sol\":12944:12965  _initializing = false */\n      0x0100\n      exp\n      dup2\n      sload\n      dup2\n      0xff\n      mul\n      not\n      and\n      swap1\n      dup4\n      iszero\n      iszero\n      mul\n      or\n      swap1\n      sstore\n      pop\n        /* \"contract/myProject/CNRC_V2/V2_CNRedCross.sol\":12985:12999  Initialized(1) */\n      0x7f26b83ff96e1f2b6a682f133852f6798a09c465da95921460cefb3847402498\n        /* \"contract/myProject/CNRC_V2/V2_CNRedCross.sol\":12997:12998  1 */\n      0x01\n        /* \"contract/myProject/CNRC_V2/V2_CNRedCross.sol\":12985:12999  Initialized(1) */\n      mload(0x40)\n      tag_69\n      swap2\n      swap1\n      tag_70\n      jump\t// in\n    tag_69:\n      mload(0x40)\n      dup1\n      swap2\n      sub\n      swap1\n      log1\n        /* \"contract/myProject/CNRC_V2/V2_CNRedCross.sol\":12909:13011  if (isTopLevelCall) {\r... */\n    tag_68:\n        /* \"contract/myProject/CNRC_V2/V2_CNRedCross.sol\":12514:13018  {\r... */\n      pop\n        /* \"contract/myProject/CNRC_V2/V2_CNRedCross.sol\":38374:38497  function initialize() public initializer {\r... */\n      jump\t// out\n        /* \"contract/myProject/CNRC_V2/V2_CNRedCross.sol\":19025:19112  function owner() public view virtual returns (address) {\r... */\n    tag_29:\n        /* \"contract/myProject/CNRC_V2/V2_CNRedCross.sol\":19071:19078  address */\n      0x00\n        /* \"contract/myProject/CNRC_V2/V2_CNRedCross.sol\":19098:19104  _owner */\n      0x33\n      0x00\n      swap1\n      sload\n      swap1\n      0x0100\n      exp\n      swap1\n      div\n      0xffffffffffffffffffffffffffffffffffffffff\n      and\n        /* \"contract/myProject/CNRC_V2/V2_CNRedCross.sol\":19091:19104  return _owner */\n      swap1\n      pop\n        /* \"contract/myProject/CNRC_V2/V2_CNRedCross.sol\":19025:19112  function owner() public view virtual returns (address) {\r... */\n      swap1\n      jump\t// out\n        /* \"contract/myProject/CNRC_V2/V2_CNRedCross.sol\":38632:38830  function SetUint256Param(string memory _key, uint256 _value)\r... */\n    tag_35:\n        /* \"contract/myProject/CNRC_V2/V2_CNRedCross.sol\":18911:18924  _checkOwner() */\n      tag_73\n        /* \"contract/myProject/CNRC_V2/V2_CNRedCross.sol\":18911:18922  _checkOwner */\n      tag_49\n        /* \"contract/myProject/CNRC_V2/V2_CNRedCross.sol\":18911:18924  _checkOwner() */\n      jump\t// in\n    tag_73:\n        /* \"contract/myProject/CNRC_V2/V2_CNRedCross.sol\":38768:38774  _value */\n      dup1\n        /* \"contract/myProject/CNRC_V2/V2_CNRedCross.sol\":38746:38759  uint256Params */\n      0x65\n        /* \"contract/myProject/CNRC_V2/V2_CNRedCross.sol\":38760:38764  _key */\n      dup4\n        /* \"contract/myProject/CNRC_V2/V2_CNRedCross.sol\":38746:38765  uint256Params[_key] */\n      mload(0x40)\n      tag_75\n      swap2\n      swap1\n      tag_46\n      jump\t// in\n    tag_75:\n      swap1\n      dup2\n      mstore\n      0x20\n      add\n      mload(0x40)\n      dup1\n      swap2\n      sub\n      swap1\n      keccak256\n        /* \"contract/myProject/CNRC_V2/V2_CNRedCross.sol\":38746:38774  uint256Params[_key] = _value */\n      dup2\n      swap1\n      sstore\n      pop\n        /* \"contract/myProject/CNRC_V2/V2_CNRedCross.sol\":38809:38813  _key */\n      dup2\n        /* \"contract/myProject/CNRC_V2/V2_CNRedCross.sol\":38790:38822  Uint256ParamSetted(_key, _value) */\n      mload(0x40)\n      tag_76\n      swap2\n      swap1\n      tag_46\n      jump\t// in\n    tag_76:\n      mload(0x40)\n      dup1\n      swap2\n      sub\n      swap1\n      keccak256\n      0xfb95a454fb88a8138042f1b612100fff4b0a6159ea05e9b136eb293075809edf\n        /* \"contract/myProject/CNRC_V2/V2_CNRedCross.sol\":38815:38821  _value */\n      dup3\n        /* \"contract/myProject/CNRC_V2/V2_CNRedCross.sol\":38790:38822  Uint256ParamSetted(_key, _value) */\n      mload(0x40)\n      tag_77\n      swap2\n      swap1\n      tag_23\n      jump\t// in\n    tag_77:\n      mload(0x40)\n      dup1\n      swap2\n      sub\n      swap1\n      log2\n        /* \"contract/myProject/CNRC_V2/V2_CNRedCross.sol\":38632:38830  function SetUint256Param(string memory _key, uint256 _value)\r... */\n      pop\n      pop\n      jump\t// out\n        /* \"contract/myProject/CNRC_V2/V2_CNRedCross.sol\":20977:21138  function writeSlot(uint256 _idx) public {\r... */\n    tag_38:\n        /* \"contract/myProject/CNRC_V2/V2_CNRedCross.sol\":21028:21047  string memory value */\n      0x00\n        /* \"contract/myProject/CNRC_V2/V2_CNRedCross.sol\":21028:21066  string memory value = \"all about love\" */\n      mload(0x40)\n      dup1\n      0x40\n      add\n      0x40\n      mstore\n      dup1\n      0x0e\n      dup2\n      mstore\n      0x20\n      add\n      0x616c6c2061626f7574206c6f7665000000000000000000000000000000000000\n      dup2\n      mstore\n      pop\n      swap1\n      pop\n        /* \"contract/myProject/CNRC_V2/V2_CNRedCross.sol\":21114:21119  value */\n      dup1\n        /* \"contract/myProject/CNRC_V2/V2_CNRedCross.sol\":21108:21112  _idx */\n      dup3\n        /* \"contract/myProject/CNRC_V2/V2_CNRedCross.sol\":21101:21120  sstore(_idx, value) */\n      sstore\n        /* \"contract/myProject/CNRC_V2/V2_CNRedCross.sol\":21086:21131  {\r... */\n      pop\n        /* \"contract/myProject/CNRC_V2/V2_CNRedCross.sol\":20977:21138  function writeSlot(uint256 _idx) public {\r... */\n      pop\n      jump\t// out\n        /* \"contract/myProject/CNRC_V2/V2_CNRedCross.sol\":19931:20169  function transferOwnership(address newOwner) public virtual onlyOwner {\r... */\n    tag_42:\n        /* \"contract/myProject/CNRC_V2/V2_CNRedCross.sol\":18911:18924  _checkOwner() */\n      tag_80\n        /* \"contract/myProject/CNRC_V2/V2_CNRedCross.sol\":18911:18922  _checkOwner */\n      tag_49\n        /* \"contract/myProject/CNRC_V2/V2_CNRedCross.sol\":18911:18924  _checkOwner() */\n      jump\t// in\n    tag_80:\n        /* \"contract/myProject/CNRC_V2/V2_CNRedCross.sol\":20054:20055  0 */\n      0x00\n        /* \"contract/myProject/CNRC_V2/V2_CNRedCross.sol\":20034:20056  newOwner != address(0) */\n      0xffffffffffffffffffffffffffffffffffffffff\n      and\n        /* \"contract/myProject/CNRC_V2/V2_CNRedCross.sol\":20034:20042  newOwner */\n      dup2\n        /* \"contract/myProject/CNRC_V2/V2_CNRedCross.sol\":20034:20056  newOwner != address(0) */\n      0xffffffffffffffffffffffffffffffffffffffff\n      and\n      eq\n      iszero\n        /* \"contract/myProject/CNRC_V2/V2_CNRedCross.sol\":20012:20122  require(\r... */\n      tag_82\n      jumpi\n      mload(0x40)\n      0x08c379a000000000000000000000000000000000000000000000000000000000\n      dup2\n      mstore\n      0x04\n      add\n      tag_83\n      swap1\n      tag_84\n      jump\t// in\n    tag_83:\n      mload(0x40)\n      dup1\n      swap2\n      sub\n      swap1\n      revert\n    tag_82:\n        /* \"contract/myProject/CNRC_V2/V2_CNRedCross.sol\":20133:20161  _transferOwnership(newOwner) */\n      tag_85\n        /* \"contract/myProject/CNRC_V2/V2_CNRedCross.sol\":20152:20160  newOwner */\n      dup2\n        /* \"contract/myProject/CNRC_V2/V2_CNRedCross.sol\":20133:20151  _transferOwnership */\n      tag_52\n        /* \"contract/myProject/CNRC_V2/V2_CNRedCross.sol\":20133:20161  _transferOwnership(newOwner) */\n      jump\t// in\n    tag_85:\n        /* \"contract/myProject/CNRC_V2/V2_CNRedCross.sol\":19931:20169  function transferOwnership(address newOwner) public virtual onlyOwner {\r... */\n      pop\n      jump\t// out\n        /* \"contract/myProject/CNRC_V2/V2_CNRedCross.sol\":19190:19322  function _checkOwner() internal view virtual {\r... */\n    tag_49:\n        /* \"contract/myProject/CNRC_V2/V2_CNRedCross.sol\":19265:19277  _msgSender() */\n      tag_87\n        /* \"contract/myProject/CNRC_V2/V2_CNRedCross.sol\":19265:19275  _msgSender */\n      tag_88\n        /* \"contract/myProject/CNRC_V2/V2_CNRedCross.sol\":19265:19277  _msgSender() */\n      jump\t// in\n    tag_87:\n        /* \"contract/myProject/CNRC_V2/V2_CNRedCross.sol\":19254:19277  owner() == _msgSender() */\n      0xffffffffffffffffffffffffffffffffffffffff\n      and\n        /* \"contract/myProject/CNRC_V2/V2_CNRedCross.sol\":19254:19261  owner() */\n      tag_89\n        /* \"contract/myProject/CNRC_V2/V2_CNRedCross.sol\":19254:19259  owner */\n      tag_29\n        /* \"contract/myProject/CNRC_V2/V2_CNRedCross.sol\":19254:19261  owner() */\n      jump\t// in\n    tag_89:\n        /* \"contract/myProject/CNRC_V2/V2_CNRedCross.sol\":19254:19277  owner() == _msgSender() */\n      0xffffffffffffffffffffffffffffffffffffffff\n      and\n      eq\n        /* \"contract/myProject/CNRC_V2/V2_CNRedCross.sol\":19246:19314  require(owner() == _msgSender(), \"Ownable: caller is not the owner\") */\n      tag_90\n      jumpi\n      mload(0x40)\n      0x08c379a000000000000000000000000000000000000000000000000000000000\n      dup2\n      mstore\n      0x04\n      add\n      tag_91\n      swap1\n      tag_92\n      jump\t// in\n    tag_91:\n      mload(0x40)\n      dup1\n      swap2\n      sub\n      swap1\n      revert\n    tag_90:\n        /* \"contract/myProject/CNRC_V2/V2_CNRedCross.sol\":19190:19322  function _checkOwner() internal view virtual {\r... */\n      jump\t// out\n        /* \"contract/myProject/CNRC_V2/V2_CNRedCross.sol\":20329:20520  function _transferOwnership(address newOwner) internal virtual {\r... */\n    tag_52:\n        /* \"contract/myProject/CNRC_V2/V2_CNRedCross.sol\":20403:20419  address oldOwner */\n      0x00\n        /* \"contract/myProject/CNRC_V2/V2_CNRedCross.sol\":20422:20428  _owner */\n      0x33\n      0x00\n      swap1\n      sload\n      swap1\n      0x0100\n      exp\n      swap1\n      div\n      0xffffffffffffffffffffffffffffffffffffffff\n      and\n        /* \"contract/myProject/CNRC_V2/V2_CNRedCross.sol\":20403:20428  address oldOwner = _owner */\n      swap1\n      pop\n        /* \"contract/myProject/CNRC_V2/V2_CNRedCross.sol\":20448:20456  newOwner */\n      dup2\n        /* \"contract/myProject/CNRC_V2/V2_CNRedCross.sol\":20439:20445  _owner */\n      0x33\n      0x00\n        /* \"contract/myProject/CNRC_V2/V2_CNRedCross.sol\":20439:20456  _owner = newOwner */\n      0x0100\n      exp\n      dup2\n      sload\n      dup2\n      0xffffffffffffffffffffffffffffffffffffffff\n      mul\n      not\n      and\n      swap1\n      dup4\n      0xffffffffffffffffffffffffffffffffffffffff\n      and\n      mul\n      or\n      swap1\n      sstore\n      pop\n        /* \"contract/myProject/CNRC_V2/V2_CNRedCross.sol\":20503:20511  newOwner */\n      dup2\n        /* \"contract/myProject/CNRC_V2/V2_CNRedCross.sol\":20472:20512  OwnershipTransferred(oldOwner, newOwner) */\n      0xffffffffffffffffffffffffffffffffffffffff\n      and\n        /* \"contract/myProject/CNRC_V2/V2_CNRedCross.sol\":20493:20501  oldOwner */\n      dup2\n        /* \"contract/myProject/CNRC_V2/V2_CNRedCross.sol\":20472:20512  OwnershipTransferred(oldOwner, newOwner) */\n      0xffffffffffffffffffffffffffffffffffffffff\n      and\n      0x8be0079c531659141344cd1fd0a4f28419497f9722a3daafe3b4186f6b6457e0\n      mload(0x40)\n      mload(0x40)\n      dup1\n      swap2\n      sub\n      swap1\n      log3\n        /* \"contract/myProject/CNRC_V2/V2_CNRedCross.sol\":20392:20520  {\r... */\n      pop\n        /* \"contract/myProject/CNRC_V2/V2_CNRedCross.sol\":20329:20520  function _transferOwnership(address newOwner) internal virtual {\r... */\n      pop\n      jump\t// out\n        /* \"contract/myProject/CNRC_V2/V2_CNRedCross.sol\":2706:3032  function isContract(address account) internal view returns (bool) {\r... */\n    tag_57:\n        /* \"contract/myProject/CNRC_V2/V2_CNRedCross.sol\":2766:2770  bool */\n      0x00\n        /* \"contract/myProject/CNRC_V2/V2_CNRedCross.sol\":3023:3024  0 */\n      dup1\n        /* \"contract/myProject/CNRC_V2/V2_CNRedCross.sol\":3001:3008  account */\n      dup3\n        /* \"contract/myProject/CNRC_V2/V2_CNRedCross.sol\":3001:3020  account.code.length */\n      0xffffffffffffffffffffffffffffffffffffffff\n      and\n      extcodesize\n        /* \"contract/myProject/CNRC_V2/V2_CNRedCross.sol\":3001:3024  account.code.length > 0 */\n      gt\n        /* \"contract/myProject/CNRC_V2/V2_CNRedCross.sol\":2994:3024  return account.code.length > 0 */\n      swap1\n      pop\n        /* \"contract/myProject/CNRC_V2/V2_CNRedCross.sol\":2706:3032  function isContract(address account) internal view returns (bool) {\r... */\n      swap2\n      swap1\n      pop\n      jump\t// out\n        /* \"contract/myProject/CNRC_V2/V2_CNRedCross.sol\":15559:15623  function __Context_init_unchained() internal onlyInitializing {} */\n    tag_65:\n        /* \"contract/myProject/CNRC_V2/V2_CNRedCross.sol\":14409:14422  _initializing */\n      0x00\n      0x01\n      swap1\n      sload\n      swap1\n      0x0100\n      exp\n      swap1\n      div\n      0xff\n      and\n        /* \"contract/myProject/CNRC_V2/V2_CNRedCross.sol\":14401:14470  require(_initializing, \"Initializable: contract is not initializing\") */\n      tag_96\n      jumpi\n      mload(0x40)\n      0x08c379a000000000000000000000000000000000000000000000000000000000\n      dup2\n      mstore\n      0x04\n      add\n      tag_97\n      swap1\n      tag_98\n      jump\t// in\n    tag_97:\n      mload(0x40)\n      dup1\n      swap2\n      sub\n      swap1\n      revert\n    tag_96:\n        /* \"contract/myProject/CNRC_V2/V2_CNRedCross.sol\":15559:15623  function __Context_init_unchained() internal onlyInitializing {} */\n      jump\t// out\n        /* \"contract/myProject/CNRC_V2/V2_CNRedCross.sol\":18673:18786  function __Ownable_init_unchained() internal onlyInitializing {\r... */\n    tag_67:\n        /* \"contract/myProject/CNRC_V2/V2_CNRedCross.sol\":14409:14422  _initializing */\n      0x00\n      0x01\n      swap1\n      sload\n      swap1\n      0x0100\n      exp\n      swap1\n      div\n      0xff\n      and\n        /* \"contract/myProject/CNRC_V2/V2_CNRedCross.sol\":14401:14470  require(_initializing, \"Initializable: contract is not initializing\") */\n      tag_101\n      jumpi\n      mload(0x40)\n      0x08c379a000000000000000000000000000000000000000000000000000000000\n      dup2\n      mstore\n      0x04\n      add\n      tag_102\n      swap1\n      tag_98\n      jump\t// in\n    tag_102:\n      mload(0x40)\n      dup1\n      swap2\n      sub\n      swap1\n      revert\n    tag_101:\n        /* \"contract/myProject/CNRC_V2/V2_CNRedCross.sol\":18746:18778  _transferOwnership(_msgSender()) */\n      tag_104\n        /* \"contract/myProject/CNRC_V2/V2_CNRedCross.sol\":18765:18777  _msgSender() */\n      tag_105\n        /* \"contract/myProject/CNRC_V2/V2_CNRedCross.sol\":18765:18775  _msgSender */\n      tag_88\n        /* \"contract/myProject/CNRC_V2/V2_CNRedCross.sol\":18765:18777  _msgSender() */\n      jump\t// in\n    tag_105:\n        /* \"contract/myProject/CNRC_V2/V2_CNRedCross.sol\":18746:18764  _transferOwnership */\n      tag_52\n        /* \"contract/myProject/CNRC_V2/V2_CNRedCross.sol\":18746:18778  _transferOwnership(_msgSender()) */\n      jump\t// in\n    tag_104:\n        /* \"contract/myProject/CNRC_V2/V2_CNRedCross.sol\":18673:18786  function __Ownable_init_unchained() internal onlyInitializing {\r... */\n      jump\t// out\n        /* \"contract/myProject/CNRC_V2/V2_CNRedCross.sol\":15631:15729  function _msgSender() internal view virtual returns (address) {\r... */\n    tag_88:\n        /* \"contract/myProject/CNRC_V2/V2_CNRedCross.sol\":15684:15691  address */\n      0x00\n        /* \"contract/myProject/CNRC_V2/V2_CNRedCross.sol\":15711:15721  msg.sender */\n      caller\n        /* \"contract/myProject/CNRC_V2/V2_CNRedCross.sol\":15704:15721  return msg.sender */\n      swap1\n      pop\n        /* \"contract/myProject/CNRC_V2/V2_CNRedCross.sol\":15631:15729  function _msgSender() internal view virtual returns (address) {\r... */\n      swap1\n      jump\t// out\n        /* \"#utility.yul\":7:419   */\n    tag_108:\n        /* \"#utility.yul\":85:90   */\n      0x00\n        /* \"#utility.yul\":110:176   */\n      tag_110\n        /* \"#utility.yul\":126:175   */\n      tag_111\n        /* \"#utility.yul\":168:174   */\n      dup5\n        /* \"#utility.yul\":126:175   */\n      tag_112\n      jump\t// in\n    tag_111:\n        /* \"#utility.yul\":110:176   */\n      tag_113\n      jump\t// in\n    tag_110:\n        /* \"#utility.yul\":101:176   */\n      swap1\n      pop\n        /* \"#utility.yul\":199:205   */\n      dup3\n        /* \"#utility.yul\":192:197   */\n      dup2\n        /* \"#utility.yul\":185:206   */\n      mstore\n        /* \"#utility.yul\":237:241   */\n      0x20\n        /* \"#utility.yul\":230:235   */\n      dup2\n        /* \"#utility.yul\":226:242   */\n      add\n        /* \"#utility.yul\":275:278   */\n      dup5\n        /* \"#utility.yul\":266:272   */\n      dup5\n        /* \"#utility.yul\":261:264   */\n      dup5\n        /* \"#utility.yul\":257:273   */\n      add\n        /* \"#utility.yul\":254:279   */\n      gt\n        /* \"#utility.yul\":251:363   */\n      iszero\n      tag_114\n      jumpi\n        /* \"#utility.yul\":282:361   */\n      tag_115\n      tag_116\n      jump\t// in\n    tag_115:\n        /* \"#utility.yul\":251:363   */\n    tag_114:\n        /* \"#utility.yul\":372:413   */\n      tag_117\n        /* \"#utility.yul\":406:412   */\n      dup5\n        /* \"#utility.yul\":401:404   */\n      dup3\n        /* \"#utility.yul\":396:399   */\n      dup6\n        /* \"#utility.yul\":372:413   */\n      tag_118\n      jump\t// in\n    tag_117:\n        /* \"#utility.yul\":91:419   */\n      pop\n        /* \"#utility.yul\":7:419   */\n      swap4\n      swap3\n      pop\n      pop\n      pop\n      jump\t// out\n        /* \"#utility.yul\":425:564   */\n    tag_119:\n        /* \"#utility.yul\":471:476   */\n      0x00\n        /* \"#utility.yul\":509:515   */\n      dup2\n        /* \"#utility.yul\":496:516   */\n      calldataload\n        /* \"#utility.yul\":487:516   */\n      swap1\n      pop\n        /* \"#utility.yul\":525:558   */\n      tag_121\n        /* \"#utility.yul\":552:557   */\n      dup2\n        /* \"#utility.yul\":525:558   */\n      tag_122\n      jump\t// in\n    tag_121:\n        /* \"#utility.yul\":425:564   */\n      swap3\n      swap2\n      pop\n      pop\n      jump\t// out\n        /* \"#utility.yul\":584:924   */\n    tag_123:\n        /* \"#utility.yul\":640:645   */\n      0x00\n        /* \"#utility.yul\":689:692   */\n      dup3\n        /* \"#utility.yul\":682:686   */\n      0x1f\n        /* \"#utility.yul\":674:680   */\n      dup4\n        /* \"#utility.yul\":670:687   */\n      add\n        /* \"#utility.yul\":666:693   */\n      slt\n        /* \"#utility.yul\":656:778   */\n      tag_125\n      jumpi\n        /* \"#utility.yul\":697:776   */\n      tag_126\n      tag_127\n      jump\t// in\n    tag_126:\n        /* \"#utility.yul\":656:778   */\n    tag_125:\n        /* \"#utility.yul\":814:820   */\n      dup2\n        /* \"#utility.yul\":801:821   */\n      calldataload\n        /* \"#utility.yul\":839:918   */\n      tag_128\n        /* \"#utility.yul\":914:917   */\n      dup5\n        /* \"#utility.yul\":906:912   */\n      dup3\n        /* \"#utility.yul\":899:903   */\n      0x20\n        /* \"#utility.yul\":891:897   */\n      dup7\n        /* \"#utility.yul\":887:904   */\n      add\n        /* \"#utility.yul\":839:918   */\n      tag_108\n      jump\t// in\n    tag_128:\n        /* \"#utility.yul\":830:918   */\n      swap2\n      pop\n        /* \"#utility.yul\":646:924   */\n      pop\n        /* \"#utility.yul\":584:924   */\n      swap3\n      swap2\n      pop\n      pop\n      jump\t// out\n        /* \"#utility.yul\":930:1069   */\n    tag_129:\n        /* \"#utility.yul\":976:981   */\n      0x00\n        /* \"#utility.yul\":1014:1020   */\n      dup2\n        /* \"#utility.yul\":1001:1021   */\n      calldataload\n        /* \"#utility.yul\":992:1021   */\n      swap1\n      pop\n        /* \"#utility.yul\":1030:1063   */\n      tag_131\n        /* \"#utility.yul\":1057:1062   */\n      dup2\n        /* \"#utility.yul\":1030:1063   */\n      tag_132\n      jump\t// in\n    tag_131:\n        /* \"#utility.yul\":930:1069   */\n      swap3\n      swap2\n      pop\n      pop\n      jump\t// out\n        /* \"#utility.yul\":1075:1404   */\n    tag_41:\n        /* \"#utility.yul\":1134:1140   */\n      0x00\n        /* \"#utility.yul\":1183:1185   */\n      0x20\n        /* \"#utility.yul\":1171:1180   */\n      dup3\n        /* \"#utility.yul\":1162:1169   */\n      dup5\n        /* \"#utility.yul\":1158:1181   */\n      sub\n        /* \"#utility.yul\":1154:1186   */\n      slt\n        /* \"#utility.yul\":1151:1270   */\n      iszero\n      tag_134\n      jumpi\n        /* \"#utility.yul\":1189:1268   */\n      tag_135\n      tag_136\n      jump\t// in\n    tag_135:\n        /* \"#utility.yul\":1151:1270   */\n    tag_134:\n        /* \"#utility.yul\":1309:1310   */\n      0x00\n        /* \"#utility.yul\":1334:1387   */\n      tag_137\n        /* \"#utility.yul\":1379:1386   */\n      dup5\n        /* \"#utility.yul\":1370:1376   */\n      dup3\n        /* \"#utility.yul\":1359:1368   */\n      dup6\n        /* \"#utility.yul\":1355:1377   */\n      add\n        /* \"#utility.yul\":1334:1387   */\n      tag_119\n      jump\t// in\n    tag_137:\n        /* \"#utility.yul\":1324:1387   */\n      swap2\n      pop\n        /* \"#utility.yul\":1280:1397   */\n      pop\n        /* \"#utility.yul\":1075:1404   */\n      swap3\n      swap2\n      pop\n      pop\n      jump\t// out\n        /* \"#utility.yul\":1410:1919   */\n    tag_20:\n        /* \"#utility.yul\":1479:1485   */\n      0x00\n        /* \"#utility.yul\":1528:1530   */\n      0x20\n        /* \"#utility.yul\":1516:1525   */\n      dup3\n        /* \"#utility.yul\":1507:1514   */\n      dup5\n        /* \"#utility.yul\":1503:1526   */\n      sub\n        /* \"#utility.yul\":1499:1531   */\n      slt\n        /* \"#utility.yul\":1496:1615   */\n      iszero\n      tag_139\n      jumpi\n        /* \"#utility.yul\":1534:1613   */\n      tag_140\n      tag_136\n      jump\t// in\n    tag_140:\n        /* \"#utility.yul\":1496:1615   */\n    tag_139:\n        /* \"#utility.yul\":1682:1683   */\n      0x00\n        /* \"#utility.yul\":1671:1680   */\n      dup3\n        /* \"#utility.yul\":1667:1684   */\n      add\n        /* \"#utility.yul\":1654:1685   */\n      calldataload\n        /* \"#utility.yul\":1712:1730   */\n      0xffffffffffffffff\n        /* \"#utility.yul\":1704:1710   */\n      dup2\n        /* \"#utility.yul\":1701:1731   */\n      gt\n        /* \"#utility.yul\":1698:1815   */\n      iszero\n      tag_141\n      jumpi\n        /* \"#utility.yul\":1734:1813   */\n      tag_142\n      tag_143\n      jump\t// in\n    tag_142:\n        /* \"#utility.yul\":1698:1815   */\n    tag_141:\n        /* \"#utility.yul\":1839:1902   */\n      tag_144\n        /* \"#utility.yul\":1894:1901   */\n      dup5\n        /* \"#utility.yul\":1885:1891   */\n      dup3\n        /* \"#utility.yul\":1874:1883   */\n      dup6\n        /* \"#utility.yul\":1870:1892   */\n      add\n        /* \"#utility.yul\":1839:1902   */\n      tag_123\n      jump\t// in\n    tag_144:\n        /* \"#utility.yul\":1829:1902   */\n      swap2\n      pop\n        /* \"#utility.yul\":1625:1912   */\n      pop\n        /* \"#utility.yul\":1410:1919   */\n      swap3\n      swap2\n      pop\n      pop\n      jump\t// out\n        /* \"#utility.yul\":1925:2579   */\n    tag_34:\n        /* \"#utility.yul\":2003:2009   */\n      0x00\n        /* \"#utility.yul\":2011:2017   */\n      dup1\n        /* \"#utility.yul\":2060:2062   */\n      0x40\n        /* \"#utility.yul\":2048:2057   */\n      dup4\n        /* \"#utility.yul\":2039:2046   */\n      dup6\n        /* \"#utility.yul\":2035:2058   */\n      sub\n        /* \"#utility.yul\":2031:2063   */\n      slt\n        /* \"#utility.yul\":2028:2147   */\n      iszero\n      tag_146\n      jumpi\n        /* \"#utility.yul\":2066:2145   */\n      tag_147\n      tag_136\n      jump\t// in\n    tag_147:\n        /* \"#utility.yul\":2028:2147   */\n    tag_146:\n        /* \"#utility.yul\":2214:2215   */\n      0x00\n        /* \"#utility.yul\":2203:2212   */\n      dup4\n        /* \"#utility.yul\":2199:2216   */\n      add\n        /* \"#utility.yul\":2186:2217   */\n      calldataload\n        /* \"#utility.yul\":2244:2262   */\n      0xffffffffffffffff\n        /* \"#utility.yul\":2236:2242   */\n      dup2\n        /* \"#utility.yul\":2233:2263   */\n      gt\n        /* \"#utility.yul\":2230:2347   */\n      iszero\n      tag_148\n      jumpi\n        /* \"#utility.yul\":2266:2345   */\n      tag_149\n      tag_143\n      jump\t// in\n    tag_149:\n        /* \"#utility.yul\":2230:2347   */\n    tag_148:\n        /* \"#utility.yul\":2371:2434   */\n      tag_150\n        /* \"#utility.yul\":2426:2433   */\n      dup6\n        /* \"#utility.yul\":2417:2423   */\n      dup3\n        /* \"#utility.yul\":2406:2415   */\n      dup7\n        /* \"#utility.yul\":2402:2424   */\n      add\n        /* \"#utility.yul\":2371:2434   */\n      tag_123\n      jump\t// in\n    tag_150:\n        /* \"#utility.yul\":2361:2434   */\n      swap3\n      pop\n        /* \"#utility.yul\":2157:2444   */\n      pop\n        /* \"#utility.yul\":2483:2485   */\n      0x20\n        /* \"#utility.yul\":2509:2562   */\n      tag_151\n        /* \"#utility.yul\":2554:2561   */\n      dup6\n        /* \"#utility.yul\":2545:2551   */\n      dup3\n        /* \"#utility.yul\":2534:2543   */\n      dup7\n        /* \"#utility.yul\":2530:2552   */\n      add\n        /* \"#utility.yul\":2509:2562   */\n      tag_129\n      jump\t// in\n    tag_151:\n        /* \"#utility.yul\":2499:2562   */\n      swap2\n      pop\n        /* \"#utility.yul\":2454:2572   */\n      pop\n        /* \"#utility.yul\":1925:2579   */\n      swap3\n      pop\n      swap3\n      swap1\n      pop\n      jump\t// out\n        /* \"#utility.yul\":2585:2914   */\n    tag_14:\n        /* \"#utility.yul\":2644:2650   */\n      0x00\n        /* \"#utility.yul\":2693:2695   */\n      0x20\n        /* \"#utility.yul\":2681:2690   */\n      dup3\n        /* \"#utility.yul\":2672:2679   */\n      dup5\n        /* \"#utility.yul\":2668:2691   */\n      sub\n        /* \"#utility.yul\":2664:2696   */\n      slt\n        /* \"#utility.yul\":2661:2780   */\n      iszero\n      tag_153\n      jumpi\n        /* \"#utility.yul\":2699:2778   */\n      tag_154\n      tag_136\n      jump\t// in\n    tag_154:\n        /* \"#utility.yul\":2661:2780   */\n    tag_153:\n        /* \"#utility.yul\":2819:2820   */\n      0x00\n        /* \"#utility.yul\":2844:2897   */\n      tag_155\n        /* \"#utility.yul\":2889:2896   */\n      dup5\n        /* \"#utility.yul\":2880:2886   */\n      dup3\n        /* \"#utility.yul\":2869:2878   */\n      dup6\n        /* \"#utility.yul\":2865:2887   */\n      add\n        /* \"#utility.yul\":2844:2897   */\n      tag_129\n      jump\t// in\n    tag_155:\n        /* \"#utility.yul\":2834:2897   */\n      swap2\n      pop\n        /* \"#utility.yul\":2790:2907   */\n      pop\n        /* \"#utility.yul\":2585:2914   */\n      swap3\n      swap2\n      pop\n      pop\n      jump\t// out\n        /* \"#utility.yul\":2920:3038   */\n    tag_156:\n        /* \"#utility.yul\":3007:3031   */\n      tag_158\n        /* \"#utility.yul\":3025:3030   */\n      dup2\n        /* \"#utility.yul\":3007:3031   */\n      tag_159\n      jump\t// in\n    tag_158:\n        /* \"#utility.yul\":3002:3005   */\n      dup3\n        /* \"#utility.yul\":2995:3032   */\n      mstore\n        /* \"#utility.yul\":2920:3038   */\n      pop\n      pop\n      jump\t// out\n        /* \"#utility.yul\":3044:3162   */\n    tag_160:\n        /* \"#utility.yul\":3131:3155   */\n      tag_162\n        /* \"#utility.yul\":3149:3154   */\n      dup2\n        /* \"#utility.yul\":3131:3155   */\n      tag_163\n      jump\t// in\n    tag_162:\n        /* \"#utility.yul\":3126:3129   */\n      dup3\n        /* \"#utility.yul\":3119:3156   */\n      mstore\n        /* \"#utility.yul\":3044:3162   */\n      pop\n      pop\n      jump\t// out\n        /* \"#utility.yul\":3168:3311   */\n    tag_164:\n        /* \"#utility.yul\":3261:3304   */\n      tag_166\n        /* \"#utility.yul\":3298:3303   */\n      dup2\n        /* \"#utility.yul\":3261:3304   */\n      tag_167\n      jump\t// in\n    tag_166:\n        /* \"#utility.yul\":3256:3259   */\n      dup3\n        /* \"#utility.yul\":3249:3305   */\n      mstore\n        /* \"#utility.yul\":3168:3311   */\n      pop\n      pop\n      jump\t// out\n        /* \"#utility.yul\":3317:3694   */\n    tag_168:\n        /* \"#utility.yul\":3423:3426   */\n      0x00\n        /* \"#utility.yul\":3451:3490   */\n      tag_170\n        /* \"#utility.yul\":3484:3489   */\n      dup3\n        /* \"#utility.yul\":3451:3490   */\n      tag_171\n      jump\t// in\n    tag_170:\n        /* \"#utility.yul\":3506:3595   */\n      tag_172\n        /* \"#utility.yul\":3588:3594   */\n      dup2\n        /* \"#utility.yul\":3583:3586   */\n      dup6\n        /* \"#utility.yul\":3506:3595   */\n      tag_173\n      jump\t// in\n    tag_172:\n        /* \"#utility.yul\":3499:3595   */\n      swap4\n      pop\n        /* \"#utility.yul\":3604:3656   */\n      tag_174\n        /* \"#utility.yul\":3649:3655   */\n      dup2\n        /* \"#utility.yul\":3644:3647   */\n      dup6\n        /* \"#utility.yul\":3637:3641   */\n      0x20\n        /* \"#utility.yul\":3630:3635   */\n      dup7\n        /* \"#utility.yul\":3626:3642   */\n      add\n        /* \"#utility.yul\":3604:3656   */\n      tag_175\n      jump\t// in\n    tag_174:\n        /* \"#utility.yul\":3681:3687   */\n      dup1\n        /* \"#utility.yul\":3676:3679   */\n      dup5\n        /* \"#utility.yul\":3672:3688   */\n      add\n        /* \"#utility.yul\":3665:3688   */\n      swap2\n      pop\n        /* \"#utility.yul\":3427:3694   */\n      pop\n        /* \"#utility.yul\":3317:3694   */\n      swap3\n      swap2\n      pop\n      pop\n      jump\t// out\n        /* \"#utility.yul\":3700:4066   */\n    tag_176:\n        /* \"#utility.yul\":3842:3845   */\n      0x00\n        /* \"#utility.yul\":3863:3930   */\n      tag_178\n        /* \"#utility.yul\":3927:3929   */\n      0x26\n        /* \"#utility.yul\":3922:3925   */\n      dup4\n        /* \"#utility.yul\":3863:3930   */\n      tag_179\n      jump\t// in\n    tag_178:\n        /* \"#utility.yul\":3856:3930   */\n      swap2\n      pop\n        /* \"#utility.yul\":3939:4032   */\n      tag_180\n        /* \"#utility.yul\":4028:4031   */\n      dup3\n        /* \"#utility.yul\":3939:4032   */\n      tag_181\n      jump\t// in\n    tag_180:\n        /* \"#utility.yul\":4057:4059   */\n      0x40\n        /* \"#utility.yul\":4052:4055   */\n      dup3\n        /* \"#utility.yul\":4048:4060   */\n      add\n        /* \"#utility.yul\":4041:4060   */\n      swap1\n      pop\n        /* \"#utility.yul\":3700:4066   */\n      swap2\n      swap1\n      pop\n      jump\t// out\n        /* \"#utility.yul\":4072:4438   */\n    tag_182:\n        /* \"#utility.yul\":4214:4217   */\n      0x00\n        /* \"#utility.yul\":4235:4302   */\n      tag_184\n        /* \"#utility.yul\":4299:4301   */\n      0x2e\n        /* \"#utility.yul\":4294:4297   */\n      dup4\n        /* \"#utility.yul\":4235:4302   */\n      tag_179\n      jump\t// in\n    tag_184:\n        /* \"#utility.yul\":4228:4302   */\n      swap2\n      pop\n        /* \"#utility.yul\":4311:4404   */\n      tag_185\n        /* \"#utility.yul\":4400:4403   */\n      dup3\n        /* \"#utility.yul\":4311:4404   */\n      tag_186\n      jump\t// in\n    tag_185:\n        /* \"#utility.yul\":4429:4431   */\n      0x40\n        /* \"#utility.yul\":4424:4427   */\n      dup3\n        /* \"#utility.yul\":4420:4432   */\n      add\n        /* \"#utility.yul\":4413:4432   */\n      swap1\n      pop\n        /* \"#utility.yul\":4072:4438   */\n      swap2\n      swap1\n      pop\n      jump\t// out\n        /* \"#utility.yul\":4444:4810   */\n    tag_187:\n        /* \"#utility.yul\":4586:4589   */\n      0x00\n        /* \"#utility.yul\":4607:4674   */\n      tag_189\n        /* \"#utility.yul\":4671:4673   */\n      0x20\n        /* \"#utility.yul\":4666:4669   */\n      dup4\n        /* \"#utility.yul\":4607:4674   */\n      tag_179\n      jump\t// in\n    tag_189:\n        /* \"#utility.yul\":4600:4674   */\n      swap2\n      pop\n        /* \"#utility.yul\":4683:4776   */\n      tag_190\n        /* \"#utility.yul\":4772:4775   */\n      dup3\n        /* \"#utility.yul\":4683:4776   */\n      tag_191\n      jump\t// in\n    tag_190:\n        /* \"#utility.yul\":4801:4803   */\n      0x20\n        /* \"#utility.yul\":4796:4799   */\n      dup3\n        /* \"#utility.yul\":4792:4804   */\n      add\n        /* \"#utility.yul\":4785:4804   */\n      swap1\n      pop\n        /* \"#utility.yul\":4444:4810   */\n      swap2\n      swap1\n      pop\n      jump\t// out\n        /* \"#utility.yul\":4816:5182   */\n    tag_192:\n        /* \"#utility.yul\":4958:4961   */\n      0x00\n        /* \"#utility.yul\":4979:5046   */\n      tag_194\n        /* \"#utility.yul\":5043:5045   */\n      0x2b\n        /* \"#utility.yul\":5038:5041   */\n      dup4\n        /* \"#utility.yul\":4979:5046   */\n      tag_179\n      jump\t// in\n    tag_194:\n        /* \"#utility.yul\":4972:5046   */\n      swap2\n      pop\n        /* \"#utility.yul\":5055:5148   */\n      tag_195\n        /* \"#utility.yul\":5144:5147   */\n      dup3\n        /* \"#utility.yul\":5055:5148   */\n      tag_196\n      jump\t// in\n    tag_195:\n        /* \"#utility.yul\":5173:5175   */\n      0x40\n        /* \"#utility.yul\":5168:5171   */\n      dup3\n        /* \"#utility.yul\":5164:5176   */\n      add\n        /* \"#utility.yul\":5157:5176   */\n      swap1\n      pop\n        /* \"#utility.yul\":4816:5182   */\n      swap2\n      swap1\n      pop\n      jump\t// out\n        /* \"#utility.yul\":5188:5306   */\n    tag_197:\n        /* \"#utility.yul\":5275:5299   */\n      tag_199\n        /* \"#utility.yul\":5293:5298   */\n      dup2\n        /* \"#utility.yul\":5275:5299   */\n      tag_200\n      jump\t// in\n    tag_199:\n        /* \"#utility.yul\":5270:5273   */\n      dup3\n        /* \"#utility.yul\":5263:5300   */\n      mstore\n        /* \"#utility.yul\":5188:5306   */\n      pop\n      pop\n      jump\t// out\n        /* \"#utility.yul\":5312:5587   */\n    tag_46:\n        /* \"#utility.yul\":5444:5447   */\n      0x00\n        /* \"#utility.yul\":5466:5561   */\n      tag_202\n        /* \"#utility.yul\":5557:5560   */\n      dup3\n        /* \"#utility.yul\":5548:5554   */\n      dup5\n        /* \"#utility.yul\":5466:5561   */\n      tag_168\n      jump\t// in\n    tag_202:\n        /* \"#utility.yul\":5459:5561   */\n      swap2\n      pop\n        /* \"#utility.yul\":5578:5581   */\n      dup2\n        /* \"#utility.yul\":5571:5581   */\n      swap1\n      pop\n        /* \"#utility.yul\":5312:5587   */\n      swap3\n      swap2\n      pop\n      pop\n      jump\t// out\n        /* \"#utility.yul\":5593:5815   */\n    tag_31:\n        /* \"#utility.yul\":5686:5690   */\n      0x00\n        /* \"#utility.yul\":5724:5726   */\n      0x20\n        /* \"#utility.yul\":5713:5722   */\n      dup3\n        /* \"#utility.yul\":5709:5727   */\n      add\n        /* \"#utility.yul\":5701:5727   */\n      swap1\n      pop\n        /* \"#utility.yul\":5737:5808   */\n      tag_204\n        /* \"#utility.yul\":5805:5806   */\n      0x00\n        /* \"#utility.yul\":5794:5803   */\n      dup4\n        /* \"#utility.yul\":5790:5807   */\n      add\n        /* \"#utility.yul\":5781:5787   */\n      dup5\n        /* \"#utility.yul\":5737:5808   */\n      tag_156\n      jump\t// in\n    tag_204:\n        /* \"#utility.yul\":5593:5815   */\n      swap3\n      swap2\n      pop\n      pop\n      jump\t// out\n        /* \"#utility.yul\":5821:6043   */\n    tag_17:\n        /* \"#utility.yul\":5914:5918   */\n      0x00\n        /* \"#utility.yul\":5952:5954   */\n      0x20\n        /* \"#utility.yul\":5941:5950   */\n      dup3\n        /* \"#utility.yul\":5937:5955   */\n      add\n        /* \"#utility.yul\":5929:5955   */\n      swap1\n      pop\n        /* \"#utility.yul\":5965:6036   */\n      tag_206\n        /* \"#utility.yul\":6033:6034   */\n      0x00\n        /* \"#utility.yul\":6022:6031   */\n      dup4\n        /* \"#utility.yul\":6018:6035   */\n      add\n        /* \"#utility.yul\":6009:6015   */\n      dup5\n        /* \"#utility.yul\":5965:6036   */\n      tag_160\n      jump\t// in\n    tag_206:\n        /* \"#utility.yul\":5821:6043   */\n      swap3\n      swap2\n      pop\n      pop\n      jump\t// out\n        /* \"#utility.yul\":6049:6283   */\n    tag_70:\n        /* \"#utility.yul\":6148:6152   */\n      0x00\n        /* \"#utility.yul\":6186:6188   */\n      0x20\n        /* \"#utility.yul\":6175:6184   */\n      dup3\n        /* \"#utility.yul\":6171:6189   */\n      add\n        /* \"#utility.yul\":6163:6189   */\n      swap1\n      pop\n        /* \"#utility.yul\":6199:6276   */\n      tag_208\n        /* \"#utility.yul\":6273:6274   */\n      0x00\n        /* \"#utility.yul\":6262:6271   */\n      dup4\n        /* \"#utility.yul\":6258:6275   */\n      add\n        /* \"#utility.yul\":6249:6255   */\n      dup5\n        /* \"#utility.yul\":6199:6276   */\n      tag_164\n      jump\t// in\n    tag_208:\n        /* \"#utility.yul\":6049:6283   */\n      swap3\n      swap2\n      pop\n      pop\n      jump\t// out\n        /* \"#utility.yul\":6289:6708   */\n    tag_84:\n        /* \"#utility.yul\":6455:6459   */\n      0x00\n        /* \"#utility.yul\":6493:6495   */\n      0x20\n        /* \"#utility.yul\":6482:6491   */\n      dup3\n        /* \"#utility.yul\":6478:6496   */\n      add\n        /* \"#utility.yul\":6470:6496   */\n      swap1\n      pop\n        /* \"#utility.yul\":6542:6551   */\n      dup2\n        /* \"#utility.yul\":6536:6540   */\n      dup2\n        /* \"#utility.yul\":6532:6552   */\n      sub\n        /* \"#utility.yul\":6528:6529   */\n      0x00\n        /* \"#utility.yul\":6517:6526   */\n      dup4\n        /* \"#utility.yul\":6513:6530   */\n      add\n        /* \"#utility.yul\":6506:6553   */\n      mstore\n        /* \"#utility.yul\":6570:6701   */\n      tag_210\n        /* \"#utility.yul\":6696:6700   */\n      dup2\n        /* \"#utility.yul\":6570:6701   */\n      tag_176\n      jump\t// in\n    tag_210:\n        /* \"#utility.yul\":6562:6701   */\n      swap1\n      pop\n        /* \"#utility.yul\":6289:6708   */\n      swap2\n      swap1\n      pop\n      jump\t// out\n        /* \"#utility.yul\":6714:7133   */\n    tag_61:\n        /* \"#utility.yul\":6880:6884   */\n      0x00\n        /* \"#utility.yul\":6918:6920   */\n      0x20\n        /* \"#utility.yul\":6907:6916   */\n      dup3\n        /* \"#utility.yul\":6903:6921   */\n      add\n        /* \"#utility.yul\":6895:6921   */\n      swap1\n      pop\n        /* \"#utility.yul\":6967:6976   */\n      dup2\n        /* \"#utility.yul\":6961:6965   */\n      dup2\n        /* \"#utility.yul\":6957:6977   */\n      sub\n        /* \"#utility.yul\":6953:6954   */\n      0x00\n        /* \"#utility.yul\":6942:6951   */\n      dup4\n        /* \"#utility.yul\":6938:6955   */\n      add\n        /* \"#utility.yul\":6931:6978   */\n      mstore\n        /* \"#utility.yul\":6995:7126   */\n      tag_212\n        /* \"#utility.yul\":7121:7125   */\n      dup2\n        /* \"#utility.yul\":6995:7126   */\n      tag_182\n      jump\t// in\n    tag_212:\n        /* \"#utility.yul\":6987:7126   */\n      swap1\n      pop\n        /* \"#utility.yul\":6714:7133   */\n      swap2\n      swap1\n      pop\n      jump\t// out\n        /* \"#utility.yul\":7139:7558   */\n    tag_92:\n        /* \"#utility.yul\":7305:7309   */\n      0x00\n        /* \"#utility.yul\":7343:7345   */\n      0x20\n        /* \"#utility.yul\":7332:7341   */\n      dup3\n        /* \"#utility.yul\":7328:7346   */\n      add\n        /* \"#utility.yul\":7320:7346   */\n      swap1\n      pop\n        /* \"#utility.yul\":7392:7401   */\n      dup2\n        /* \"#utility.yul\":7386:7390   */\n      dup2\n        /* \"#utility.yul\":7382:7402   */\n      sub\n        /* \"#utility.yul\":7378:7379   */\n      0x00\n        /* \"#utility.yul\":7367:7376   */\n      dup4\n        /* \"#utility.yul\":7363:7380   */\n      add\n        /* \"#utility.yul\":7356:7403   */\n      mstore\n        /* \"#utility.yul\":7420:7551   */\n      tag_214\n        /* \"#utility.yul\":7546:7550   */\n      dup2\n        /* \"#utility.yul\":7420:7551   */\n      tag_187\n      jump\t// in\n    tag_214:\n        /* \"#utility.yul\":7412:7551   */\n      swap1\n      pop\n        /* \"#utility.yul\":7139:7558   */\n      swap2\n      swap1\n      pop\n      jump\t// out\n        /* \"#utility.yul\":7564:7983   */\n    tag_98:\n        /* \"#utility.yul\":7730:7734   */\n      0x00\n        /* \"#utility.yul\":7768:7770   */\n      0x20\n        /* \"#utility.yul\":7757:7766   */\n      dup3\n        /* \"#utility.yul\":7753:7771   */\n      add\n        /* \"#utility.yul\":7745:7771   */\n      swap1\n      pop\n        /* \"#utility.yul\":7817:7826   */\n      dup2\n        /* \"#utility.yul\":7811:7815   */\n      dup2\n        /* \"#utility.yul\":7807:7827   */\n      sub\n        /* \"#utility.yul\":7803:7804   */\n      0x00\n        /* \"#utility.yul\":7792:7801   */\n      dup4\n        /* \"#utility.yul\":7788:7805   */\n      add\n        /* \"#utility.yul\":7781:7828   */\n      mstore\n        /* \"#utility.yul\":7845:7976   */\n      tag_216\n        /* \"#utility.yul\":7971:7975   */\n      dup2\n        /* \"#utility.yul\":7845:7976   */\n      tag_192\n      jump\t// in\n    tag_216:\n        /* \"#utility.yul\":7837:7976   */\n      swap1\n      pop\n        /* \"#utility.yul\":7564:7983   */\n      swap2\n      swap1\n      pop\n      jump\t// out\n        /* \"#utility.yul\":7989:8211   */\n    tag_23:\n        /* \"#utility.yul\":8082:8086   */\n      0x00\n        /* \"#utility.yul\":8120:8122   */\n      0x20\n        /* \"#utility.yul\":8109:8118   */\n      dup3\n        /* \"#utility.yul\":8105:8123   */\n      add\n        /* \"#utility.yul\":8097:8123   */\n      swap1\n      pop\n        /* \"#utility.yul\":8133:8204   */\n      tag_218\n        /* \"#utility.yul\":8201:8202   */\n      0x00\n        /* \"#utility.yul\":8190:8199   */\n      dup4\n        /* \"#utility.yul\":8186:8203   */\n      add\n        /* \"#utility.yul\":8177:8183   */\n      dup5\n        /* \"#utility.yul\":8133:8204   */\n      tag_197\n      jump\t// in\n    tag_218:\n        /* \"#utility.yul\":7989:8211   */\n      swap3\n      swap2\n      pop\n      pop\n      jump\t// out\n        /* \"#utility.yul\":8217:8346   */\n    tag_113:\n        /* \"#utility.yul\":8251:8257   */\n      0x00\n        /* \"#utility.yul\":8278:8298   */\n      tag_220\n      tag_221\n      jump\t// in\n    tag_220:\n        /* \"#utility.yul\":8268:8298   */\n      swap1\n      pop\n        /* \"#utility.yul\":8307:8340   */\n      tag_222\n        /* \"#utility.yul\":8335:8339   */\n      dup3\n        /* \"#utility.yul\":8327:8333   */\n      dup3\n        /* \"#utility.yul\":8307:8340   */\n      tag_223\n      jump\t// in\n    tag_222:\n        /* \"#utility.yul\":8217:8346   */\n      swap2\n      swap1\n      pop\n      jump\t// out\n        /* \"#utility.yul\":8352:8427   */\n    tag_221:\n        /* \"#utility.yul\":8385:8391   */\n      0x00\n        /* \"#utility.yul\":8418:8420   */\n      0x40\n        /* \"#utility.yul\":8412:8421   */\n      mload\n        /* \"#utility.yul\":8402:8421   */\n      swap1\n      pop\n        /* \"#utility.yul\":8352:8427   */\n      swap1\n      jump\t// out\n        /* \"#utility.yul\":8433:8741   */\n    tag_112:\n        /* \"#utility.yul\":8495:8499   */\n      0x00\n        /* \"#utility.yul\":8585:8603   */\n      0xffffffffffffffff\n        /* \"#utility.yul\":8577:8583   */\n      dup3\n        /* \"#utility.yul\":8574:8604   */\n      gt\n        /* \"#utility.yul\":8571:8627   */\n      iszero\n      tag_226\n      jumpi\n        /* \"#utility.yul\":8607:8625   */\n      tag_227\n      tag_228\n      jump\t// in\n    tag_227:\n        /* \"#utility.yul\":8571:8627   */\n    tag_226:\n        /* \"#utility.yul\":8645:8674   */\n      tag_229\n        /* \"#utility.yul\":8667:8673   */\n      dup3\n        /* \"#utility.yul\":8645:8674   */\n      tag_230\n      jump\t// in\n    tag_229:\n        /* \"#utility.yul\":8637:8674   */\n      swap1\n      pop\n        /* \"#utility.yul\":8729:8733   */\n      0x20\n        /* \"#utility.yul\":8723:8727   */\n      dup2\n        /* \"#utility.yul\":8719:8734   */\n      add\n        /* \"#utility.yul\":8711:8734   */\n      swap1\n      pop\n        /* \"#utility.yul\":8433:8741   */\n      swap2\n      swap1\n      pop\n      jump\t// out\n        /* \"#utility.yul\":8747:8846   */\n    tag_171:\n        /* \"#utility.yul\":8799:8805   */\n      0x00\n        /* \"#utility.yul\":8833:8838   */\n      dup2\n        /* \"#utility.yul\":8827:8839   */\n      mload\n        /* \"#utility.yul\":8817:8839   */\n      swap1\n      pop\n        /* \"#utility.yul\":8747:8846   */\n      swap2\n      swap1\n      pop\n      jump\t// out\n        /* \"#utility.yul\":8852:9021   */\n    tag_179:\n        /* \"#utility.yul\":8936:8947   */\n      0x00\n        /* \"#utility.yul\":8970:8976   */\n      dup3\n        /* \"#utility.yul\":8965:8968   */\n      dup3\n        /* \"#utility.yul\":8958:8977   */\n      mstore\n        /* \"#utility.yul\":9010:9014   */\n      0x20\n        /* \"#utility.yul\":9005:9008   */\n      dup3\n        /* \"#utility.yul\":9001:9015   */\n      add\n        /* \"#utility.yul\":8986:9015   */\n      swap1\n      pop\n        /* \"#utility.yul\":8852:9021   */\n      swap3\n      swap2\n      pop\n      pop\n      jump\t// out\n        /* \"#utility.yul\":9027:9175   */\n    tag_173:\n        /* \"#utility.yul\":9129:9140   */\n      0x00\n        /* \"#utility.yul\":9166:9169   */\n      dup2\n        /* \"#utility.yul\":9151:9169   */\n      swap1\n      pop\n        /* \"#utility.yul\":9027:9175   */\n      swap3\n      swap2\n      pop\n      pop\n      jump\t// out\n        /* \"#utility.yul\":9181:9277   */\n    tag_159:\n        /* \"#utility.yul\":9218:9225   */\n      0x00\n        /* \"#utility.yul\":9247:9271   */\n      tag_235\n        /* \"#utility.yul\":9265:9270   */\n      dup3\n        /* \"#utility.yul\":9247:9271   */\n      tag_236\n      jump\t// in\n    tag_235:\n        /* \"#utility.yul\":9236:9271   */\n      swap1\n      pop\n        /* \"#utility.yul\":9181:9277   */\n      swap2\n      swap1\n      pop\n      jump\t// out\n        /* \"#utility.yul\":9283:9360   */\n    tag_163:\n        /* \"#utility.yul\":9320:9327   */\n      0x00\n        /* \"#utility.yul\":9349:9354   */\n      dup2\n        /* \"#utility.yul\":9338:9354   */\n      swap1\n      pop\n        /* \"#utility.yul\":9283:9360   */\n      swap2\n      swap1\n      pop\n      jump\t// out\n        /* \"#utility.yul\":9366:9492   */\n    tag_236:\n        /* \"#utility.yul\":9403:9410   */\n      0x00\n        /* \"#utility.yul\":9443:9485   */\n      0xffffffffffffffffffffffffffffffffffffffff\n        /* \"#utility.yul\":9436:9441   */\n      dup3\n        /* \"#utility.yul\":9432:9486   */\n      and\n        /* \"#utility.yul\":9421:9486   */\n      swap1\n      pop\n        /* \"#utility.yul\":9366:9492   */\n      swap2\n      swap1\n      pop\n      jump\t// out\n        /* \"#utility.yul\":9498:9575   */\n    tag_200:\n        /* \"#utility.yul\":9535:9542   */\n      0x00\n        /* \"#utility.yul\":9564:9569   */\n      dup2\n        /* \"#utility.yul\":9553:9569   */\n      swap1\n      pop\n        /* \"#utility.yul\":9498:9575   */\n      swap2\n      swap1\n      pop\n      jump\t// out\n        /* \"#utility.yul\":9581:9667   */\n    tag_240:\n        /* \"#utility.yul\":9616:9623   */\n      0x00\n        /* \"#utility.yul\":9656:9660   */\n      0xff\n        /* \"#utility.yul\":9649:9654   */\n      dup3\n        /* \"#utility.yul\":9645:9661   */\n      and\n        /* \"#utility.yul\":9634:9661   */\n      swap1\n      pop\n        /* \"#utility.yul\":9581:9667   */\n      swap2\n      swap1\n      pop\n      jump\t// out\n        /* \"#utility.yul\":9673:9790   */\n    tag_167:\n        /* \"#utility.yul\":9729:9738   */\n      0x00\n        /* \"#utility.yul\":9762:9784   */\n      tag_243\n        /* \"#utility.yul\":9778:9783   */\n      dup3\n        /* \"#utility.yul\":9762:9784   */\n      tag_240\n      jump\t// in\n    tag_243:\n        /* \"#utility.yul\":9749:9784   */\n      swap1\n      pop\n        /* \"#utility.yul\":9673:9790   */\n      swap2\n      swap1\n      pop\n      jump\t// out\n        /* \"#utility.yul\":9796:9950   */\n    tag_118:\n        /* \"#utility.yul\":9880:9886   */\n      dup3\n        /* \"#utility.yul\":9875:9878   */\n      dup2\n        /* \"#utility.yul\":9870:9873   */\n      dup4\n        /* \"#utility.yul\":9857:9887   */\n      calldatacopy\n        /* \"#utility.yul\":9942:9943   */\n      0x00\n        /* \"#utility.yul\":9933:9939   */\n      dup4\n        /* \"#utility.yul\":9928:9931   */\n      dup4\n        /* \"#utility.yul\":9924:9940   */\n      add\n        /* \"#utility.yul\":9917:9944   */\n      mstore\n        /* \"#utility.yul\":9796:9950   */\n      pop\n      pop\n      pop\n      jump\t// out\n        /* \"#utility.yul\":9956:10263   */\n    tag_175:\n        /* \"#utility.yul\":10024:10025   */\n      0x00\n        /* \"#utility.yul\":10034:10147   */\n    tag_246:\n        /* \"#utility.yul\":10048:10054   */\n      dup4\n        /* \"#utility.yul\":10045:10046   */\n      dup2\n        /* \"#utility.yul\":10042:10055   */\n      lt\n        /* \"#utility.yul\":10034:10147   */\n      iszero\n      tag_248\n      jumpi\n        /* \"#utility.yul\":10133:10134   */\n      dup1\n        /* \"#utility.yul\":10128:10131   */\n      dup3\n        /* \"#utility.yul\":10124:10135   */\n      add\n        /* \"#utility.yul\":10118:10136   */\n      mload\n        /* \"#utility.yul\":10114:10115   */\n      dup2\n        /* \"#utility.yul\":10109:10112   */\n      dup5\n        /* \"#utility.yul\":10105:10116   */\n      add\n        /* \"#utility.yul\":10098:10137   */\n      mstore\n        /* \"#utility.yul\":10070:10072   */\n      0x20\n        /* \"#utility.yul\":10067:10068   */\n      dup2\n        /* \"#utility.yul\":10063:10073   */\n      add\n        /* \"#utility.yul\":10058:10073   */\n      swap1\n      pop\n        /* \"#utility.yul\":10034:10147   */\n      jump(tag_246)\n    tag_248:\n        /* \"#utility.yul\":10165:10171   */\n      dup4\n        /* \"#utility.yul\":10162:10163   */\n      dup2\n        /* \"#utility.yul\":10159:10172   */\n      gt\n        /* \"#utility.yul\":10156:10257   */\n      iszero\n      tag_249\n      jumpi\n        /* \"#utility.yul\":10245:10246   */\n      0x00\n        /* \"#utility.yul\":10236:10242   */\n      dup5\n        /* \"#utility.yul\":10231:10234   */\n      dup5\n        /* \"#utility.yul\":10227:10243   */\n      add\n        /* \"#utility.yul\":10220:10247   */\n      mstore\n        /* \"#utility.yul\":10156:10257   */\n    tag_249:\n        /* \"#utility.yul\":10005:10263   */\n      pop\n        /* \"#utility.yul\":9956:10263   */\n      pop\n      pop\n      pop\n      jump\t// out\n        /* \"#utility.yul\":10269:10550   */\n    tag_223:\n        /* \"#utility.yul\":10352:10379   */\n      tag_251\n        /* \"#utility.yul\":10374:10378   */\n      dup3\n        /* \"#utility.yul\":10352:10379   */\n      tag_230\n      jump\t// in\n    tag_251:\n        /* \"#utility.yul\":10344:10350   */\n      dup2\n        /* \"#utility.yul\":10340:10380   */\n      add\n        /* \"#utility.yul\":10482:10488   */\n      dup2\n        /* \"#utility.yul\":10470:10480   */\n      dup2\n        /* \"#utility.yul\":10467:10489   */\n      lt\n        /* \"#utility.yul\":10446:10464   */\n      0xffffffffffffffff\n        /* \"#utility.yul\":10434:10444   */\n      dup3\n        /* \"#utility.yul\":10431:10465   */\n      gt\n        /* \"#utility.yul\":10428:10490   */\n      or\n        /* \"#utility.yul\":10425:10513   */\n      iszero\n      tag_252\n      jumpi\n        /* \"#utility.yul\":10493:10511   */\n      tag_253\n      tag_228\n      jump\t// in\n    tag_253:\n        /* \"#utility.yul\":10425:10513   */\n    tag_252:\n        /* \"#utility.yul\":10533:10543   */\n      dup1\n        /* \"#utility.yul\":10529:10531   */\n      0x40\n        /* \"#utility.yul\":10522:10544   */\n      mstore\n        /* \"#utility.yul\":10312:10550   */\n      pop\n        /* \"#utility.yul\":10269:10550   */\n      pop\n      pop\n      jump\t// out\n        /* \"#utility.yul\":10556:10736   */\n    tag_228:\n        /* \"#utility.yul\":10604:10681   */\n      0x4e487b7100000000000000000000000000000000000000000000000000000000\n        /* \"#utility.yul\":10601:10602   */\n      0x00\n        /* \"#utility.yul\":10594:10682   */\n      mstore\n        /* \"#utility.yul\":10701:10705   */\n      0x41\n        /* \"#utility.yul\":10698:10699   */\n      0x04\n        /* \"#utility.yul\":10691:10706   */\n      mstore\n        /* \"#utility.yul\":10725:10729   */\n      0x24\n        /* \"#utility.yul\":10722:10723   */\n      0x00\n        /* \"#utility.yul\":10715:10730   */\n      revert\n        /* \"#utility.yul\":10742:10859   */\n    tag_127:\n        /* \"#utility.yul\":10851:10852   */\n      0x00\n        /* \"#utility.yul\":10848:10849   */\n      dup1\n        /* \"#utility.yul\":10841:10853   */\n      revert\n        /* \"#utility.yul\":10865:10982   */\n    tag_116:\n        /* \"#utility.yul\":10974:10975   */\n      0x00\n        /* \"#utility.yul\":10971:10972   */\n      dup1\n        /* \"#utility.yul\":10964:10976   */\n      revert\n        /* \"#utility.yul\":10988:11105   */\n    tag_143:\n        /* \"#utility.yul\":11097:11098   */\n      0x00\n        /* \"#utility.yul\":11094:11095   */\n      dup1\n        /* \"#utility.yul\":11087:11099   */\n      revert\n        /* \"#utility.yul\":11111:11228   */\n    tag_136:\n        /* \"#utility.yul\":11220:11221   */\n      0x00\n        /* \"#utility.yul\":11217:11218   */\n      dup1\n        /* \"#utility.yul\":11210:11222   */\n      revert\n        /* \"#utility.yul\":11234:11336   */\n    tag_230:\n        /* \"#utility.yul\":11275:11281   */\n      0x00\n        /* \"#utility.yul\":11326:11328   */\n      0x1f\n        /* \"#utility.yul\":11322:11329   */\n      not\n        /* \"#utility.yul\":11317:11319   */\n      0x1f\n        /* \"#utility.yul\":11310:11315   */\n      dup4\n        /* \"#utility.yul\":11306:11320   */\n      add\n        /* \"#utility.yul\":11302:11330   */\n      and\n        /* \"#utility.yul\":11292:11330   */\n      swap1\n      pop\n        /* \"#utility.yul\":11234:11336   */\n      swap2\n      swap1\n      pop\n      jump\t// out\n        /* \"#utility.yul\":11342:11567   */\n    tag_181:\n        /* \"#utility.yul\":11482:11516   */\n      0x4f776e61626c653a206e6577206f776e657220697320746865207a65726f2061\n        /* \"#utility.yul\":11478:11479   */\n      0x00\n        /* \"#utility.yul\":11470:11476   */\n      dup3\n        /* \"#utility.yul\":11466:11480   */\n      add\n        /* \"#utility.yul\":11459:11517   */\n      mstore\n        /* \"#utility.yul\":11551:11559   */\n      0x6464726573730000000000000000000000000000000000000000000000000000\n        /* \"#utility.yul\":11546:11548   */\n      0x20\n        /* \"#utility.yul\":11538:11544   */\n      dup3\n        /* \"#utility.yul\":11534:11549   */\n      add\n        /* \"#utility.yul\":11527:11560   */\n      mstore\n        /* \"#utility.yul\":11342:11567   */\n      pop\n      jump\t// out\n        /* \"#utility.yul\":11573:11806   */\n    tag_186:\n        /* \"#utility.yul\":11713:11747   */\n      0x496e697469616c697a61626c653a20636f6e747261637420697320616c726561\n        /* \"#utility.yul\":11709:11710   */\n      0x00\n        /* \"#utility.yul\":11701:11707   */\n      dup3\n        /* \"#utility.yul\":11697:11711   */\n      add\n        /* \"#utility.yul\":11690:11748   */\n      mstore\n        /* \"#utility.yul\":11782:11798   */\n      0x647920696e697469616c697a6564000000000000000000000000000000000000\n        /* \"#utility.yul\":11777:11779   */\n      0x20\n        /* \"#utility.yul\":11769:11775   */\n      dup3\n        /* \"#utility.yul\":11765:11780   */\n      add\n        /* \"#utility.yul\":11758:11799   */\n      mstore\n        /* \"#utility.yul\":11573:11806   */\n      pop\n      jump\t// out\n        /* \"#utility.yul\":11812:11994   */\n    tag_191:\n        /* \"#utility.yul\":11952:11986   */\n      0x4f776e61626c653a2063616c6c6572206973206e6f7420746865206f776e6572\n        /* \"#utility.yul\":11948:11949   */\n      0x00\n        /* \"#utility.yul\":11940:11946   */\n      dup3\n        /* \"#utility.yul\":11936:11950   */\n      add\n        /* \"#utility.yul\":11929:11987   */\n      mstore\n        /* \"#utility.yul\":11812:11994   */\n      pop\n      jump\t// out\n        /* \"#utility.yul\":12000:12230   */\n    tag_196:\n        /* \"#utility.yul\":12140:12174   */\n      0x496e697469616c697a61626c653a20636f6e7472616374206973206e6f742069\n        /* \"#utility.yul\":12136:12137   */\n      0x00\n        /* \"#utility.yul\":12128:12134   */\n      dup3\n        /* \"#utility.yul\":12124:12138   */\n      add\n        /* \"#utility.yul\":12117:12175   */\n      mstore\n        /* \"#utility.yul\":12209:12222   */\n      0x6e697469616c697a696e67000000000000000000000000000000000000000000\n        /* \"#utility.yul\":12204:12206   */\n      0x20\n        /* \"#utility.yul\":12196:12202   */\n      dup3\n        /* \"#utility.yul\":12192:12207   */\n      add\n        /* \"#utility.yul\":12185:12223   */\n      mstore\n        /* \"#utility.yul\":12000:12230   */\n      pop\n      jump\t// out\n        /* \"#utility.yul\":12236:12358   */\n    tag_122:\n        /* \"#utility.yul\":12309:12333   */\n      tag_265\n        /* \"#utility.yul\":12327:12332   */\n      dup2\n        /* \"#utility.yul\":12309:12333   */\n      tag_159\n      jump\t// in\n    tag_265:\n        /* \"#utility.yul\":12302:12307   */\n      dup2\n        /* \"#utility.yul\":12299:12334   */\n      eq\n        /* \"#utility.yul\":12289:12352   */\n      tag_266\n      jumpi\n        /* \"#utility.yul\":12348:12349   */\n      0x00\n        /* \"#utility.yul\":12345:12346   */\n      dup1\n        /* \"#utility.yul\":12338:12350   */\n      revert\n        /* \"#utility.yul\":12289:12352   */\n    tag_266:\n        /* \"#utility.yul\":12236:12358   */\n      pop\n      jump\t// out\n        /* \"#utility.yul\":12364:12486   */\n    tag_132:\n        /* \"#utility.yul\":12437:12461   */\n      tag_268\n        /* \"#utility.yul\":12455:12460   */\n      dup2\n        /* \"#utility.yul\":12437:12461   */\n      tag_200\n      jump\t// in\n    tag_268:\n        /* \"#utility.yul\":12430:12435   */\n      dup2\n        /* \"#utility.yul\":12427:12462   */\n      eq\n        /* \"#utility.yul\":12417:12480   */\n      tag_269\n      jumpi\n        /* \"#utility.yul\":12476:12477   */\n      0x00\n        /* \"#utility.yul\":12473:12474   */\n      dup1\n        /* \"#utility.yul\":12466:12478   */\n      revert\n        /* \"#utility.yul\":12417:12480   */\n    tag_269:\n        /* \"#utility.yul\":12364:12486   */\n      pop\n      jump\t// out\n\n    auxdata: 0xa26469706673582212209c174c5f247e2027d02096e97225a5da88842fa21453a1d1531fa90adca3f46464736f6c63430008070033\n}\n",
				"bytecode": {
					"linkReferences": {},
					"object": "608060405234801561001057600080fd5b50610d44806100206000396000f3fe608060405234801561001057600080fd5b50600436106100885760003560e01c80638da5cb5b1161005b5780638da5cb5b14610101578063cd4fe8cd1461011f578063ec16f0871461013b578063f2fde38b1461015757610088565b806302ce8af31461008d5780634e678e80146100bd578063715018a6146100ed5780638129fc1c146100f7575b600080fd5b6100a760048036038101906100a291906107f8565b610173565b6040516100b49190610950565b60405180910390f35b6100d760048036038101906100d29190610753565b61017e565b6040516100e49190610a06565b60405180910390f35b6100f56101a6565b005b6100ff6101ba565b005b610109610300565b6040516101169190610935565b60405180910390f35b6101396004803603810190610134919061079c565b61032a565b005b610155600480360381019061015091906107f8565b6103a6565b005b610171600480360381019061016c9190610726565b6103e7565b005b600081549050919050565b6000606582604051610190919061091e565b9081526020016040518091039020549050919050565b6101ae61046b565b6101b860006104e9565b565b60008060019054906101000a900460ff161590508080156101eb5750600160008054906101000a900460ff1660ff16105b8061021857506101fa306105af565b1580156102175750600160008054906101000a900460ff1660ff16145b5b610257576040517f08c379a000000000000000000000000000000000000000000000000000000000815260040161024e906109a6565b60405180910390fd5b60016000806101000a81548160ff021916908360ff1602179055508015610294576001600060016101000a81548160ff0219169083151502179055505b61029c6105d2565b6102a4610623565b80156102fd5760008060016101000a81548160ff0219169083151502179055507f7f26b83ff96e1f2b6a682f133852f6798a09c465da95921460cefb384740249860016040516102f4919061096b565b60405180910390a15b50565b6000603360009054906101000a900473ffffffffffffffffffffffffffffffffffffffff16905090565b61033261046b565b80606583604051610343919061091e565b90815260200160405180910390208190555081604051610363919061091e565b60405180910390207ffb95a454fb88a8138042f1b612100fff4b0a6159ea05e9b136eb293075809edf8260405161039a9190610a06565b60405180910390a25050565b60006040518060400160405280600e81526020017f616c6c2061626f7574206c6f766500000000000000000000000000000000000081525090508082555050565b6103ef61046b565b600073ffffffffffffffffffffffffffffffffffffffff168173ffffffffffffffffffffffffffffffffffffffff16141561045f576040517f08c379a000000000000000000000000000000000000000000000000000000000815260040161045690610986565b60405180910390fd5b610468816104e9565b50565b610473610684565b73ffffffffffffffffffffffffffffffffffffffff16610491610300565b73ffffffffffffffffffffffffffffffffffffffff16146104e7576040517f08c379a00000000000000000000000000000000000000000000000000000000081526004016104de906109c6565b60405180910390fd5b565b6000603360009054906101000a900473ffffffffffffffffffffffffffffffffffffffff16905081603360006101000a81548173ffffffffffffffffffffffffffffffffffffffff021916908373ffffffffffffffffffffffffffffffffffffffff1602179055508173ffffffffffffffffffffffffffffffffffffffff168173ffffffffffffffffffffffffffffffffffffffff167f8be0079c531659141344cd1fd0a4f28419497f9722a3daafe3b4186f6b6457e060405160405180910390a35050565b6000808273ffffffffffffffffffffffffffffffffffffffff163b119050919050565b600060019054906101000a900460ff16610621576040517f08c379a0000000000000000000000000000000000000000000000000000000008152600401610618906109e6565b60405180910390fd5b565b600060019054906101000a900460ff16610672576040517f08c379a0000000000000000000000000000000000000000000000000000000008152600401610669906109e6565b60405180910390fd5b61068261067d610684565b6104e9565b565b600033905090565b600061069f61069a84610a46565b610a21565b9050828152602081018484840111156106bb576106ba610baa565b5b6106c6848285610b03565b509392505050565b6000813590506106dd81610ce0565b92915050565b600082601f8301126106f8576106f7610ba5565b5b813561070884826020860161068c565b91505092915050565b60008135905061072081610cf7565b92915050565b60006020828403121561073c5761073b610bb4565b5b600061074a848285016106ce565b91505092915050565b60006020828403121561076957610768610bb4565b5b600082013567ffffffffffffffff81111561078757610786610baf565b5b610793848285016106e3565b91505092915050565b600080604083850312156107b3576107b2610bb4565b5b600083013567ffffffffffffffff8111156107d1576107d0610baf565b5b6107dd858286016106e3565b92505060206107ee85828601610711565b9150509250929050565b60006020828403121561080e5761080d610bb4565b5b600061081c84828501610711565b91505092915050565b61082e81610a9e565b82525050565b61083d81610ab0565b82525050565b61084c81610af1565b82525050565b600061085d82610a77565b6108678185610a93565b9350610877818560208601610b12565b80840191505092915050565b6000610890602683610a82565b915061089b82610bca565b604082019050919050565b60006108b3602e83610a82565b91506108be82610c19565b604082019050919050565b60006108d6602083610a82565b91506108e182610c68565b602082019050919050565b60006108f9602b83610a82565b915061090482610c91565b604082019050919050565b61091881610ada565b82525050565b600061092a8284610852565b915081905092915050565b600060208201905061094a6000830184610825565b92915050565b60006020820190506109656000830184610834565b92915050565b60006020820190506109806000830184610843565b92915050565b6000602082019050818103600083015261099f81610883565b9050919050565b600060208201905081810360008301526109bf816108a6565b9050919050565b600060208201905081810360008301526109df816108c9565b9050919050565b600060208201905081810360008301526109ff816108ec565b9050919050565b6000602082019050610a1b600083018461090f565b92915050565b6000610a2b610a3c565b9050610a378282610b45565b919050565b6000604051905090565b600067ffffffffffffffff821115610a6157610a60610b76565b5b610a6a82610bb9565b9050602081019050919050565b600081519050919050565b600082825260208201905092915050565b600081905092915050565b6000610aa982610aba565b9050919050565b6000819050919050565b600073ffffffffffffffffffffffffffffffffffffffff82169050919050565b6000819050919050565b600060ff82169050919050565b6000610afc82610ae4565b9050919050565b82818337600083830152505050565b60005b83811015610b30578082015181840152602081019050610b15565b83811115610b3f576000848401525b50505050565b610b4e82610bb9565b810181811067ffffffffffffffff82111715610b6d57610b6c610b76565b5b80604052505050565b7f4e487b7100000000000000000000000000000000000000000000000000000000600052604160045260246000fd5b600080fd5b600080fd5b600080fd5b600080fd5b6000601f19601f8301169050919050565b7f4f776e61626c653a206e6577206f776e657220697320746865207a65726f206160008201527f6464726573730000000000000000000000000000000000000000000000000000602082015250565b7f496e697469616c697a61626c653a20636f6e747261637420697320616c72656160008201527f647920696e697469616c697a6564000000000000000000000000000000000000602082015250565b7f4f776e61626c653a2063616c6c6572206973206e6f7420746865206f776e6572600082015250565b7f496e697469616c697a61626c653a20636f6e7472616374206973206e6f74206960008201527f6e697469616c697a696e67000000000000000000000000000000000000000000602082015250565b610ce981610a9e565b8114610cf457600080fd5b50565b610d0081610ada565b8114610d0b57600080fd5b5056fea26469706673582212209c174c5f247e2027d02096e97225a5da88842fa21453a1d1531fa90adca3f46464736f6c63430008070033",
					"opcodes": "PUSH1 0x80 PUSH1 0x40 MSTORE CALLVALUE DUP1 ISZERO PUSH2 0x10 JUMPI PUSH1 0x0 DUP1 REVERT JUMPDEST POP PUSH2 0xD44 DUP1 PUSH2 0x20 PUSH1 0x0 CODECOPY PUSH1 0x0 RETURN INVALID PUSH1 0x80 PUSH1 0x40 MSTORE CALLVALUE DUP1 ISZERO PUSH2 0x10 JUMPI PUSH1 0x0 DUP1 REVERT JUMPDEST POP PUSH1 0x4 CALLDATASIZE LT PUSH2 0x88 JUMPI PUSH1 0x0 CALLDATALOAD PUSH1 0xE0 SHR DUP1 PUSH4 0x8DA5CB5B GT PUSH2 0x5B JUMPI DUP1 PUSH4 0x8DA5CB5B EQ PUSH2 0x101 JUMPI DUP1 PUSH4 0xCD4FE8CD EQ PUSH2 0x11F JUMPI DUP1 PUSH4 0xEC16F087 EQ PUSH2 0x13B JUMPI DUP1 PUSH4 0xF2FDE38B EQ PUSH2 0x157 JUMPI PUSH2 0x88 JUMP JUMPDEST DUP1 PUSH4 0x2CE8AF3 EQ PUSH2 0x8D JUMPI DUP1 PUSH4 0x4E678E80 EQ PUSH2 0xBD JUMPI DUP1 PUSH4 0x715018A6 EQ PUSH2 0xED JUMPI DUP1 PUSH4 0x8129FC1C EQ PUSH2 0xF7 JUMPI JUMPDEST PUSH1 0x0 DUP1 REVERT JUMPDEST PUSH2 0xA7 PUSH1 0x4 DUP1 CALLDATASIZE SUB DUP2 ADD SWAP1 PUSH2 0xA2 SWAP2 SWAP1 PUSH2 0x7F8 JUMP JUMPDEST PUSH2 0x173 JUMP JUMPDEST PUSH1 0x40 MLOAD PUSH2 0xB4 SWAP2 SWAP1 PUSH2 0x950 JUMP JUMPDEST PUSH1 0x40 MLOAD DUP1 SWAP2 SUB SWAP1 RETURN JUMPDEST PUSH2 0xD7 PUSH1 0x4 DUP1 CALLDATASIZE SUB DUP2 ADD SWAP1 PUSH2 0xD2 SWAP2 SWAP1 PUSH2 0x753 JUMP JUMPDEST PUSH2 0x17E JUMP JUMPDEST PUSH1 0x40 MLOAD PUSH2 0xE4 SWAP2 SWAP1 PUSH2 0xA06 JUMP JUMPDEST PUSH1 0x40 MLOAD DUP1 SWAP2 SUB SWAP1 RETURN JUMPDEST PUSH2 0xF5 PUSH2 0x1A6 JUMP JUMPDEST STOP JUMPDEST PUSH2 0xFF PUSH2 0x1BA JUMP JUMPDEST STOP JUMPDEST PUSH2 0x109 PUSH2 0x300 JUMP JUMPDEST PUSH1 0x40 MLOAD PUSH2 0x116 SWAP2 SWAP1 PUSH2 0x935 JUMP JUMPDEST PUSH1 0x40 MLOAD DUP1 SWAP2 SUB SWAP1 RETURN JUMPDEST PUSH2 0x139 PUSH1 0x4 DUP1 CALLDATASIZE SUB DUP2 ADD SWAP1 PUSH2 0x134 SWAP2 SWAP1 PUSH2 0x79C JUMP JUMPDEST PUSH2 0x32A JUMP JUMPDEST STOP JUMPDEST PUSH2 0x155 PUSH1 0x4 DUP1 CALLDATASIZE SUB DUP2 ADD SWAP1 PUSH2 0x150 SWAP2 SWAP1 PUSH2 0x7F8 JUMP JUMPDEST PUSH2 0x3A6 JUMP JUMPDEST STOP JUMPDEST PUSH2 0x171 PUSH1 0x4 DUP1 CALLDATASIZE SUB DUP2 ADD SWAP1 PUSH2 0x16C SWAP2 SWAP1 PUSH2 0x726 JUMP JUMPDEST PUSH2 0x3E7 JUMP JUMPDEST STOP JUMPDEST PUSH1 0x0 DUP2 SLOAD SWAP1 POP SWAP2 SWAP1 POP JUMP JUMPDEST PUSH1 0x0 PUSH1 0x65 DUP3 PUSH1 0x40 MLOAD PUSH2 0x190 SWAP2 SWAP1 PUSH2 0x91E JUMP JUMPDEST SWAP1 DUP2 MSTORE PUSH1 0x20 ADD PUSH1 0x40 MLOAD DUP1 SWAP2 SUB SWAP1 KECCAK256 SLOAD SWAP1 POP SWAP2 SWAP1 POP JUMP JUMPDEST PUSH2 0x1AE PUSH2 0x46B JUMP JUMPDEST PUSH2 0x1B8 PUSH1 0x0 PUSH2 0x4E9 JUMP JUMPDEST JUMP JUMPDEST PUSH1 0x0 DUP1 PUSH1 0x1 SWAP1 SLOAD SWAP1 PUSH2 0x100 EXP SWAP1 DIV PUSH1 0xFF AND ISZERO SWAP1 POP DUP1 DUP1 ISZERO PUSH2 0x1EB JUMPI POP PUSH1 0x1 PUSH1 0x0 DUP1 SLOAD SWAP1 PUSH2 0x100 EXP SWAP1 DIV PUSH1 0xFF AND PUSH1 0xFF AND LT JUMPDEST DUP1 PUSH2 0x218 JUMPI POP PUSH2 0x1FA ADDRESS PUSH2 0x5AF JUMP JUMPDEST ISZERO DUP1 ISZERO PUSH2 0x217 JUMPI POP PUSH1 0x1 PUSH1 0x0 DUP1 SLOAD SWAP1 PUSH2 0x100 EXP SWAP1 DIV PUSH1 0xFF AND PUSH1 0xFF AND EQ JUMPDEST JUMPDEST PUSH2 0x257 JUMPI PUSH1 0x40 MLOAD PUSH32 0x8C379A000000000000000000000000000000000000000000000000000000000 DUP2 MSTORE PUSH1 0x4 ADD PUSH2 0x24E SWAP1 PUSH2 0x9A6 JUMP JUMPDEST PUSH1 0x40 MLOAD DUP1 SWAP2 SUB SWAP1 REVERT JUMPDEST PUSH1 0x1 PUSH1 0x0 DUP1 PUSH2 0x100 EXP DUP2 SLOAD DUP2 PUSH1 0xFF MUL NOT AND SWAP1 DUP4 PUSH1 0xFF AND MUL OR SWAP1 SSTORE POP DUP1 ISZERO PUSH2 0x294 JUMPI PUSH1 0x1 PUSH1 0x0 PUSH1 0x1 PUSH2 0x100 EXP DUP2 SLOAD DUP2 PUSH1 0xFF MUL NOT AND SWAP1 DUP4 ISZERO ISZERO MUL OR SWAP1 SSTORE POP JUMPDEST PUSH2 0x29C PUSH2 0x5D2 JUMP JUMPDEST PUSH2 0x2A4 PUSH2 0x623 JUMP JUMPDEST DUP1 ISZERO PUSH2 0x2FD JUMPI PUSH1 0x0 DUP1 PUSH1 0x1 PUSH2 0x100 EXP DUP2 SLOAD DUP2 PUSH1 0xFF MUL NOT AND SWAP1 DUP4 ISZERO ISZERO MUL OR SWAP1 SSTORE POP PUSH32 0x7F26B83FF96E1F2B6A682F133852F6798A09C465DA95921460CEFB3847402498 PUSH1 0x1 PUSH1 0x40 MLOAD PUSH2 0x2F4 SWAP2 SWAP1 PUSH2 0x96B JUMP JUMPDEST PUSH1 0x40 MLOAD DUP1 SWAP2 SUB SWAP1 LOG1 JUMPDEST POP JUMP JUMPDEST PUSH1 0x0 PUSH1 0x33 PUSH1 0x0 SWAP1 SLOAD SWAP1 PUSH2 0x100 EXP SWAP1 DIV PUSH20 0xFFFFFFFFFFFFFFFFFFFFFFFFFFFFFFFFFFFFFFFF AND SWAP1 POP SWAP1 JUMP JUMPDEST PUSH2 0x332 PUSH2 0x46B JUMP JUMPDEST DUP1 PUSH1 0x65 DUP4 PUSH1 0x40 MLOAD PUSH2 0x343 SWAP2 SWAP1 PUSH2 0x91E JUMP JUMPDEST SWAP1 DUP2 MSTORE PUSH1 0x20 ADD PUSH1 0x40 MLOAD DUP1 SWAP2 SUB SWAP1 KECCAK256 DUP2 SWAP1 SSTORE POP DUP2 PUSH1 0x40 MLOAD PUSH2 0x363 SWAP2 SWAP1 PUSH2 0x91E JUMP JUMPDEST PUSH1 0x40 MLOAD DUP1 SWAP2 SUB SWAP1 KECCAK256 PUSH32 0xFB95A454FB88A8138042F1B612100FFF4B0A6159EA05E9B136EB293075809EDF DUP3 PUSH1 0x40 MLOAD PUSH2 0x39A SWAP2 SWAP1 PUSH2 0xA06 JUMP JUMPDEST PUSH1 0x40 MLOAD DUP1 SWAP2 SUB SWAP1 LOG2 POP POP JUMP JUMPDEST PUSH1 0x0 PUSH1 0x40 MLOAD DUP1 PUSH1 0x40 ADD PUSH1 0x40 MSTORE DUP1 PUSH1 0xE DUP2 MSTORE PUSH1 0x20 ADD PUSH32 0x616C6C2061626F7574206C6F7665000000000000000000000000000000000000 DUP2 MSTORE POP SWAP1 POP DUP1 DUP3 SSTORE POP POP JUMP JUMPDEST PUSH2 0x3EF PUSH2 0x46B JUMP JUMPDEST PUSH1 0x0 PUSH20 0xFFFFFFFFFFFFFFFFFFFFFFFFFFFFFFFFFFFFFFFF AND DUP2 PUSH20 0xFFFFFFFFFFFFFFFFFFFFFFFFFFFFFFFFFFFFFFFF AND EQ ISZERO PUSH2 0x45F JUMPI PUSH1 0x40 MLOAD PUSH32 0x8C379A000000000000000000000000000000000000000000000000000000000 DUP2 MSTORE PUSH1 0x4 ADD PUSH2 0x456 SWAP1 PUSH2 0x986 JUMP JUMPDEST PUSH1 0x40 MLOAD DUP1 SWAP2 SUB SWAP1 REVERT JUMPDEST PUSH2 0x468 DUP2 PUSH2 0x4E9 JUMP JUMPDEST POP JUMP JUMPDEST PUSH2 0x473 PUSH2 0x684 JUMP JUMPDEST PUSH20 0xFFFFFFFFFFFFFFFFFFFFFFFFFFFFFFFFFFFFFFFF AND PUSH2 0x491 PUSH2 0x300 JUMP JUMPDEST PUSH20 0xFFFFFFFFFFFFFFFFFFFFFFFFFFFFFFFFFFFFFFFF AND EQ PUSH2 0x4E7 JUMPI PUSH1 0x40 MLOAD PUSH32 0x8C379A000000000000000000000000000000000000000000000000000000000 DUP2 MSTORE PUSH1 0x4 ADD PUSH2 0x4DE SWAP1 PUSH2 0x9C6 JUMP JUMPDEST PUSH1 0x40 MLOAD DUP1 SWAP2 SUB SWAP1 REVERT JUMPDEST JUMP JUMPDEST PUSH1 0x0 PUSH1 0x33 PUSH1 0x0 SWAP1 SLOAD SWAP1 PUSH2 0x100 EXP SWAP1 DIV PUSH20 0xFFFFFFFFFFFFFFFFFFFFFFFFFFFFFFFFFFFFFFFF AND SWAP1 POP DUP2 PUSH1 0x33 PUSH1 0x0 PUSH2 0x100 EXP DUP2 SLOAD DUP2 PUSH20 0xFFFFFFFFFFFFFFFFFFFFFFFFFFFFFFFFFFFFFFFF MUL NOT AND SWAP1 DUP4 PUSH20 0xFFFFFFFFFFFFFFFFFFFFFFFFFFFFFFFFFFFFFFFF AND MUL OR SWAP1 SSTORE POP DUP2 PUSH20 0xFFFFFFFFFFFFFFFFFFFFFFFFFFFFFFFFFFFFFFFF AND DUP2 PUSH20 0xFFFFFFFFFFFFFFFFFFFFFFFFFFFFFFFFFFFFFFFF AND PUSH32 0x8BE0079C531659141344CD1FD0A4F28419497F9722A3DAAFE3B4186F6B6457E0 PUSH1 0x40 MLOAD PUSH1 0x40 MLOAD DUP1 SWAP2 SUB SWAP1 LOG3 POP POP JUMP JUMPDEST PUSH1 0x0 DUP1 DUP3 PUSH20 0xFFFFFFFFFFFFFFFFFFFFFFFFFFFFFFFFFFFFFFFF AND EXTCODESIZE GT SWAP1 POP SWAP2 SWAP1 POP JUMP JUMPDEST PUSH1 0x0 PUSH1 0x1 SWAP1 SLOAD SWAP1 PUSH2 0x100 EXP SWAP1 DIV PUSH1 0xFF AND PUSH2 0x621 JUMPI PUSH1 0x40 MLOAD PUSH32 0x8C379A000000000000000000000000000000000000000000000000000000000 DUP2 MSTORE PUSH1 0x4 ADD PUSH2 0x618 SWAP1 PUSH2 0x9E6 JUMP JUMPDEST PUSH1 0x40 MLOAD DUP1 SWAP2 SUB SWAP1 REVERT JUMPDEST JUMP JUMPDEST PUSH1 0x0 PUSH1 0x1 SWAP1 SLOAD SWAP1 PUSH2 0x100 EXP SWAP1 DIV PUSH1 0xFF AND PUSH2 0x672 JUMPI PUSH1 0x40 MLOAD PUSH32 0x8C379A000000000000000000000000000000000000000000000000000000000 DUP2 MSTORE PUSH1 0x4 ADD PUSH2 0x669 SWAP1 PUSH2 0x9E6 JUMP JUMPDEST PUSH1 0x40 MLOAD DUP1 SWAP2 SUB SWAP1 REVERT JUMPDEST PUSH2 0x682 PUSH2 0x67D PUSH2 0x684 JUMP JUMPDEST PUSH2 0x4E9 JUMP JUMPDEST JUMP JUMPDEST PUSH1 0x0 CALLER SWAP1 POP SWAP1 JUMP JUMPDEST PUSH1 0x0 PUSH2 0x69F PUSH2 0x69A DUP5 PUSH2 0xA46 JUMP JUMPDEST PUSH2 0xA21 JUMP JUMPDEST SWAP1 POP DUP3 DUP2 MSTORE PUSH1 0x20 DUP2 ADD DUP5 DUP5 DUP5 ADD GT ISZERO PUSH2 0x6BB JUMPI PUSH2 0x6BA PUSH2 0xBAA JUMP JUMPDEST JUMPDEST PUSH2 0x6C6 DUP5 DUP3 DUP6 PUSH2 0xB03 JUMP JUMPDEST POP SWAP4 SWAP3 POP POP POP JUMP JUMPDEST PUSH1 0x0 DUP2 CALLDATALOAD SWAP1 POP PUSH2 0x6DD DUP2 PUSH2 0xCE0 JUMP JUMPDEST SWAP3 SWAP2 POP POP JUMP JUMPDEST PUSH1 0x0 DUP3 PUSH1 0x1F DUP4 ADD SLT PUSH2 0x6F8 JUMPI PUSH2 0x6F7 PUSH2 0xBA5 JUMP JUMPDEST JUMPDEST DUP2 CALLDATALOAD PUSH2 0x708 DUP5 DUP3 PUSH1 0x20 DUP7 ADD PUSH2 0x68C JUMP JUMPDEST SWAP2 POP POP SWAP3 SWAP2 POP POP JUMP JUMPDEST PUSH1 0x0 DUP2 CALLDATALOAD SWAP1 POP PUSH2 0x720 DUP2 PUSH2 0xCF7 JUMP JUMPDEST SWAP3 SWAP2 POP POP JUMP JUMPDEST PUSH1 0x0 PUSH1 0x20 DUP3 DUP5 SUB SLT ISZERO PUSH2 0x73C JUMPI PUSH2 0x73B PUSH2 0xBB4 JUMP JUMPDEST JUMPDEST PUSH1 0x0 PUSH2 0x74A DUP5 DUP3 DUP6 ADD PUSH2 0x6CE JUMP JUMPDEST SWAP2 POP POP SWAP3 SWAP2 POP POP JUMP JUMPDEST PUSH1 0x0 PUSH1 0x20 DUP3 DUP5 SUB SLT ISZERO PUSH2 0x769 JUMPI PUSH2 0x768 PUSH2 0xBB4 JUMP JUMPDEST JUMPDEST PUSH1 0x0 DUP3 ADD CALLDATALOAD PUSH8 0xFFFFFFFFFFFFFFFF DUP2 GT ISZERO PUSH2 0x787 JUMPI PUSH2 0x786 PUSH2 0xBAF JUMP JUMPDEST JUMPDEST PUSH2 0x793 DUP5 DUP3 DUP6 ADD PUSH2 0x6E3 JUMP JUMPDEST SWAP2 POP POP SWAP3 SWAP2 POP POP JUMP JUMPDEST PUSH1 0x0 DUP1 PUSH1 0x40 DUP4 DUP6 SUB SLT ISZERO PUSH2 0x7B3 JUMPI PUSH2 0x7B2 PUSH2 0xBB4 JUMP JUMPDEST JUMPDEST PUSH1 0x0 DUP4 ADD CALLDATALOAD PUSH8 0xFFFFFFFFFFFFFFFF DUP2 GT ISZERO PUSH2 0x7D1 JUMPI PUSH2 0x7D0 PUSH2 0xBAF JUMP JUMPDEST JUMPDEST PUSH2 0x7DD DUP6 DUP3 DUP7 ADD PUSH2 0x6E3 JUMP JUMPDEST SWAP3 POP POP PUSH1 0x20 PUSH2 0x7EE DUP6 DUP3 DUP7 ADD PUSH2 0x711 JUMP JUMPDEST SWAP2 POP POP SWAP3 POP SWAP3 SWAP1 POP JUMP JUMPDEST PUSH1 0x0 PUSH1 0x20 DUP3 DUP5 SUB SLT ISZERO PUSH2 0x80E JUMPI PUSH2 0x80D PUSH2 0xBB4 JUMP JUMPDEST JUMPDEST PUSH1 0x0 PUSH2 0x81C DUP5 DUP3 DUP6 ADD PUSH2 0x711 JUMP JUMPDEST SWAP2 POP POP SWAP3 SWAP2 POP POP JUMP JUMPDEST PUSH2 0x82E DUP2 PUSH2 0xA9E JUMP JUMPDEST DUP3 MSTORE POP POP JUMP JUMPDEST PUSH2 0x83D DUP2 PUSH2 0xAB0 JUMP JUMPDEST DUP3 MSTORE POP POP JUMP JUMPDEST PUSH2 0x84C DUP2 PUSH2 0xAF1 JUMP JUMPDEST DUP3 MSTORE POP POP JUMP JUMPDEST PUSH1 0x0 PUSH2 0x85D DUP3 PUSH2 0xA77 JUMP JUMPDEST PUSH2 0x867 DUP2 DUP6 PUSH2 0xA93 JUMP JUMPDEST SWAP4 POP PUSH2 0x877 DUP2 DUP6 PUSH1 0x20 DUP7 ADD PUSH2 0xB12 JUMP JUMPDEST DUP1 DUP5 ADD SWAP2 POP POP SWAP3 SWAP2 POP POP JUMP JUMPDEST PUSH1 0x0 PUSH2 0x890 PUSH1 0x26 DUP4 PUSH2 0xA82 JUMP JUMPDEST SWAP2 POP PUSH2 0x89B DUP3 PUSH2 0xBCA JUMP JUMPDEST PUSH1 0x40 DUP3 ADD SWAP1 POP SWAP2 SWAP1 POP JUMP JUMPDEST PUSH1 0x0 PUSH2 0x8B3 PUSH1 0x2E DUP4 PUSH2 0xA82 JUMP JUMPDEST SWAP2 POP PUSH2 0x8BE DUP3 PUSH2 0xC19 JUMP JUMPDEST PUSH1 0x40 DUP3 ADD SWAP1 POP SWAP2 SWAP1 POP JUMP JUMPDEST PUSH1 0x0 PUSH2 0x8D6 PUSH1 0x20 DUP4 PUSH2 0xA82 JUMP JUMPDEST SWAP2 POP PUSH2 0x8E1 DUP3 PUSH2 0xC68 JUMP JUMPDEST PUSH1 0x20 DUP3 ADD SWAP1 POP SWAP2 SWAP1 POP JUMP JUMPDEST PUSH1 0x0 PUSH2 0x8F9 PUSH1 0x2B DUP4 PUSH2 0xA82 JUMP JUMPDEST SWAP2 POP PUSH2 0x904 DUP3 PUSH2 0xC91 JUMP JUMPDEST PUSH1 0x40 DUP3 ADD SWAP1 POP SWAP2 SWAP1 POP JUMP JUMPDEST PUSH2 0x918 DUP2 PUSH2 0xADA JUMP JUMPDEST DUP3 MSTORE POP POP JUMP JUMPDEST PUSH1 0x0 PUSH2 0x92A DUP3 DUP5 PUSH2 0x852 JUMP JUMPDEST SWAP2 POP DUP2 SWAP1 POP SWAP3 SWAP2 POP POP JUMP JUMPDEST PUSH1 0x0 PUSH1 0x20 DUP3 ADD SWAP1 POP PUSH2 0x94A PUSH1 0x0 DUP4 ADD DUP5 PUSH2 0x825 JUMP JUMPDEST SWAP3 SWAP2 POP POP JUMP JUMPDEST PUSH1 0x0 PUSH1 0x20 DUP3 ADD SWAP1 POP PUSH2 0x965 PUSH1 0x0 DUP4 ADD DUP5 PUSH2 0x834 JUMP JUMPDEST SWAP3 SWAP2 POP POP JUMP JUMPDEST PUSH1 0x0 PUSH1 0x20 DUP3 ADD SWAP1 POP PUSH2 0x980 PUSH1 0x0 DUP4 ADD DUP5 PUSH2 0x843 JUMP JUMPDEST SWAP3 SWAP2 POP POP JUMP JUMPDEST PUSH1 0x0 PUSH1 0x20 DUP3 ADD SWAP1 POP DUP2 DUP2 SUB PUSH1 0x0 DUP4 ADD MSTORE PUSH2 0x99F DUP2 PUSH2 0x883 JUMP JUMPDEST SWAP1 POP SWAP2 SWAP1 POP JUMP JUMPDEST PUSH1 0x0 PUSH1 0x20 DUP3 ADD SWAP1 POP DUP2 DUP2 SUB PUSH1 0x0 DUP4 ADD MSTORE PUSH2 0x9BF DUP2 PUSH2 0x8A6 JUMP JUMPDEST SWAP1 POP SWAP2 SWAP1 POP JUMP JUMPDEST PUSH1 0x0 PUSH1 0x20 DUP3 ADD SWAP1 POP DUP2 DUP2 SUB PUSH1 0x0 DUP4 ADD MSTORE PUSH2 0x9DF DUP2 PUSH2 0x8C9 JUMP JUMPDEST SWAP1 POP SWAP2 SWAP1 POP JUMP JUMPDEST PUSH1 0x0 PUSH1 0x20 DUP3 ADD SWAP1 POP DUP2 DUP2 SUB PUSH1 0x0 DUP4 ADD MSTORE PUSH2 0x9FF DUP2 PUSH2 0x8EC JUMP JUMPDEST SWAP1 POP SWAP2 SWAP1 POP JUMP JUMPDEST PUSH1 0x0 PUSH1 0x20 DUP3 ADD SWAP1 POP PUSH2 0xA1B PUSH1 0x0 DUP4 ADD DUP5 PUSH2 0x90F JUMP JUMPDEST SWAP3 SWAP2 POP POP JUMP JUMPDEST PUSH1 0x0 PUSH2 0xA2B PUSH2 0xA3C JUMP JUMPDEST SWAP1 POP PUSH2 0xA37 DUP3 DUP3 PUSH2 0xB45 JUMP JUMPDEST SWAP2 SWAP1 POP JUMP JUMPDEST PUSH1 0x0 PUSH1 0x40 MLOAD SWAP1 POP SWAP1 JUMP JUMPDEST PUSH1 0x0 PUSH8 0xFFFFFFFFFFFFFFFF DUP3 GT ISZERO PUSH2 0xA61 JUMPI PUSH2 0xA60 PUSH2 0xB76 JUMP JUMPDEST JUMPDEST PUSH2 0xA6A DUP3 PUSH2 0xBB9 JUMP JUMPDEST SWAP1 POP PUSH1 0x20 DUP2 ADD SWAP1 POP SWAP2 SWAP1 POP JUMP JUMPDEST PUSH1 0x0 DUP2 MLOAD SWAP1 POP SWAP2 SWAP1 POP JUMP JUMPDEST PUSH1 0x0 DUP3 DUP3 MSTORE PUSH1 0x20 DUP3 ADD SWAP1 POP SWAP3 SWAP2 POP POP JUMP JUMPDEST PUSH1 0x0 DUP2 SWAP1 POP SWAP3 SWAP2 POP POP JUMP JUMPDEST PUSH1 0x0 PUSH2 0xAA9 DUP3 PUSH2 0xABA JUMP JUMPDEST SWAP1 POP SWAP2 SWAP1 POP JUMP JUMPDEST PUSH1 0x0 DUP2 SWAP1 POP SWAP2 SWAP1 POP JUMP JUMPDEST PUSH1 0x0 PUSH20 0xFFFFFFFFFFFFFFFFFFFFFFFFFFFFFFFFFFFFFFFF DUP3 AND SWAP1 POP SWAP2 SWAP1 POP JUMP JUMPDEST PUSH1 0x0 DUP2 SWAP1 POP SWAP2 SWAP1 POP JUMP JUMPDEST PUSH1 0x0 PUSH1 0xFF DUP3 AND SWAP1 POP SWAP2 SWAP1 POP JUMP JUMPDEST PUSH1 0x0 PUSH2 0xAFC DUP3 PUSH2 0xAE4 JUMP JUMPDEST SWAP1 POP SWAP2 SWAP1 POP JUMP JUMPDEST DUP3 DUP2 DUP4 CALLDATACOPY PUSH1 0x0 DUP4 DUP4 ADD MSTORE POP POP POP JUMP JUMPDEST PUSH1 0x0 JUMPDEST DUP4 DUP2 LT ISZERO PUSH2 0xB30 JUMPI DUP1 DUP3 ADD MLOAD DUP2 DUP5 ADD MSTORE PUSH1 0x20 DUP2 ADD SWAP1 POP PUSH2 0xB15 JUMP JUMPDEST DUP4 DUP2 GT ISZERO PUSH2 0xB3F JUMPI PUSH1 0x0 DUP5 DUP5 ADD MSTORE JUMPDEST POP POP POP POP JUMP JUMPDEST PUSH2 0xB4E DUP3 PUSH2 0xBB9 JUMP JUMPDEST DUP2 ADD DUP2 DUP2 LT PUSH8 0xFFFFFFFFFFFFFFFF DUP3 GT OR ISZERO PUSH2 0xB6D JUMPI PUSH2 0xB6C PUSH2 0xB76 JUMP JUMPDEST JUMPDEST DUP1 PUSH1 0x40 MSTORE POP POP POP JUMP JUMPDEST PUSH32 0x4E487B7100000000000000000000000000000000000000000000000000000000 PUSH1 0x0 MSTORE PUSH1 0x41 PUSH1 0x4 MSTORE PUSH1 0x24 PUSH1 0x0 REVERT JUMPDEST PUSH1 0x0 DUP1 REVERT JUMPDEST PUSH1 0x0 DUP1 REVERT JUMPDEST PUSH1 0x0 DUP1 REVERT JUMPDEST PUSH1 0x0 DUP1 REVERT JUMPDEST PUSH1 0x0 PUSH1 0x1F NOT PUSH1 0x1F DUP4 ADD AND SWAP1 POP SWAP2 SWAP1 POP JUMP JUMPDEST PUSH32 0x4F776E61626C653A206E6577206F776E657220697320746865207A65726F2061 PUSH1 0x0 DUP3 ADD MSTORE PUSH32 0x6464726573730000000000000000000000000000000000000000000000000000 PUSH1 0x20 DUP3 ADD MSTORE POP JUMP JUMPDEST PUSH32 0x496E697469616C697A61626C653A20636F6E747261637420697320616C726561 PUSH1 0x0 DUP3 ADD MSTORE PUSH32 0x647920696E697469616C697A6564000000000000000000000000000000000000 PUSH1 0x20 DUP3 ADD MSTORE POP JUMP JUMPDEST PUSH32 0x4F776E61626C653A2063616C6C6572206973206E6F7420746865206F776E6572 PUSH1 0x0 DUP3 ADD MSTORE POP JUMP JUMPDEST PUSH32 0x496E697469616C697A61626C653A20636F6E7472616374206973206E6F742069 PUSH1 0x0 DUP3 ADD MSTORE PUSH32 0x6E697469616C697A696E67000000000000000000000000000000000000000000 PUSH1 0x20 DUP3 ADD MSTORE POP JUMP JUMPDEST PUSH2 0xCE9 DUP2 PUSH2 0xA9E JUMP JUMPDEST DUP2 EQ PUSH2 0xCF4 JUMPI PUSH1 0x0 DUP1 REVERT JUMPDEST POP JUMP JUMPDEST PUSH2 0xD00 DUP2 PUSH2 0xADA JUMP JUMPDEST DUP2 EQ PUSH2 0xD0B JUMPI PUSH1 0x0 DUP1 REVERT JUMPDEST POP JUMP INVALID LOG2 PUSH5 0x6970667358 0x22 SLT KECCAK256 SWAP13 OR 0x4C 0x5F 0x24 PUSH31 0x2027D02096E97225A5DA88842FA21453A1D1531FA90ADCA3F46464736F6C63 NUMBER STOP ADDMOD SMOD STOP CALLER "
				},
				"gasEstimates": {
					"creation": {
						"codeDepositCost": "679200",
						"executionCost": "715",
						"totalCost": "679915"
					},
					"external": {
						"GetUint256Param(string)": "infinite",
						"SetUint256Param(string,uint256)": "infinite",
						"initialize()": "116108",
						"owner()": "2522",
						"readSlot(uint256)": "2703",
						"renounceOwnership()": "30443",
						"transferOwnership(address)": "30813",
						"writeSlot(uint256)": "22625"
					}
				},
				"methodIdentifiers": {
					"GetUint256Param(string)": "4e678e80",
					"SetUint256Param(string,uint256)": "cd4fe8cd",
					"initialize()": "8129fc1c",
					"owner()": "8da5cb5b",
					"readSlot(uint256)": "02ce8af3",
					"renounceOwnership()": "715018a6",
					"transferOwnership(address)": "f2fde38b",
					"writeSlot(uint256)": "ec16f087"
				}
			},
			"storageLayout": {
				"storage": [
					{
						"astId": 388,
						"contract": "contract/myProject/CNRC_V2/V2_CNRedCross.sol:Params",
						"label": "_initialized",
						"offset": 0,
						"slot": "0",
						"type": "t_uint8"
					},
					{
						"astId": 391,
						"contract": "contract/myProject/CNRC_V2/V2_CNRedCross.sol:Params",
						"label": "_initializing",
						"offset": 1,
						"slot": "0",
						"type": "t_bool"
					},
					{
						"astId": 588,
						"contract": "contract/myProject/CNRC_V2/V2_CNRedCross.sol:Params",
						"label": "__gap",
						"offset": 0,
						"slot": "1",
						"type": "t_array(t_uint256)50_storage"
					},
					{
						"astId": 704,
						"contract": "contract/myProject/CNRC_V2/V2_CNRedCross.sol:Params",
						"label": "_owner",
						"offset": 0,
						"slot": "51",
						"type": "t_address"
					},
					{
						"astId": 824,
						"contract": "contract/myProject/CNRC_V2/V2_CNRedCross.sol:Params",
						"label": "__gap",
						"offset": 0,
						"slot": "52",
						"type": "t_array(t_uint256)49_storage"
					},
					{
						"astId": 1546,
						"contract": "contract/myProject/CNRC_V2/V2_CNRedCross.sol:Params",
						"label": "uint256Params",
						"offset": 0,
						"slot": "101",
						"type": "t_mapping(t_string_memory_ptr,t_uint256)"
					}
				],
				"types": {
					"t_address": {
						"encoding": "inplace",
						"label": "address",
						"numberOfBytes": "20"
					},
					"t_array(t_uint256)49_storage": {
						"base": "t_uint256",
						"encoding": "inplace",
						"label": "uint256[49]",
						"numberOfBytes": "1568"
					},
					"t_array(t_uint256)50_storage": {
						"base": "t_uint256",
						"encoding": "inplace",
						"label": "uint256[50]",
						"numberOfBytes": "1600"
					},
					"t_bool": {
						"encoding": "inplace",
						"label": "bool",
						"numberOfBytes": "1"
					},
					"t_mapping(t_string_memory_ptr,t_uint256)": {
						"encoding": "mapping",
						"key": "t_string_memory_ptr",
						"label": "mapping(string => uint256)",
						"numberOfBytes": "32",
						"value": "t_uint256"
					},
					"t_string_memory_ptr": {
						"encoding": "bytes",
						"label": "string",
						"numberOfBytes": "32"
					},
					"t_uint256": {
						"encoding": "inplace",
						"label": "uint256",
						"numberOfBytes": "32"
					},
					"t_uint8": {
						"encoding": "inplace",
						"label": "uint8",
						"numberOfBytes": "1"
					}
				}
			},
			"userdoc": {
				"kind": "user",
				"methods": {},
				"version": 1
			}
		}
	}
}