{
	"contract/myProject/CNRC_V2/V2_CNRedCross.sol": {
		"Params": {
			"abi": [
				{
					"anonymous": false,
					"inputs": [
						{
							"indexed": false,
							"internalType": "uint8",
							"name": "version",
							"type": "uint8"
						}
					],
					"name": "Initialized",
					"type": "event"
				},
				{
					"anonymous": false,
					"inputs": [
						{
							"indexed": true,
							"internalType": "address",
							"name": "previousOwner",
							"type": "address"
						},
						{
							"indexed": true,
							"internalType": "address",
							"name": "newOwner",
							"type": "address"
						}
					],
					"name": "OwnershipTransferred",
					"type": "event"
				},
				{
					"anonymous": false,
					"inputs": [
						{
							"indexed": true,
							"internalType": "string",
							"name": "_key",
							"type": "string"
						},
						{
							"indexed": false,
							"internalType": "uint256",
							"name": "_value",
							"type": "uint256"
						}
					],
					"name": "Uint256ParamSetted",
					"type": "event"
				},
				{
					"inputs": [
						{
							"internalType": "string",
							"name": "_key",
							"type": "string"
						}
					],
					"name": "GetUint256Param",
					"outputs": [
						{
							"internalType": "uint256",
							"name": "",
							"type": "uint256"
						}
					],
					"stateMutability": "view",
					"type": "function"
				},
				{
					"inputs": [
						{
							"internalType": "string",
							"name": "_key",
							"type": "string"
						},
						{
							"internalType": "uint256",
							"name": "_value",
							"type": "uint256"
						}
					],
					"name": "SetUint256Param",
					"outputs": [],
					"stateMutability": "nonpayable",
					"type": "function"
				},
				{
					"inputs": [],
					"name": "initialize",
					"outputs": [],
					"stateMutability": "nonpayable",
					"type": "function"
				},
				{
					"inputs": [],
					"name": "owner",
					"outputs": [
						{
							"internalType": "address",
							"name": "",
							"type": "address"
						}
					],
					"stateMutability": "view",
					"type": "function"
				},
				{
					"inputs": [],
					"name": "renounceOwnership",
					"outputs": [],
					"stateMutability": "nonpayable",
					"type": "function"
				},
				{
					"inputs": [
						{
							"internalType": "address",
							"name": "newOwner",
							"type": "address"
						}
					],
					"name": "transferOwnership",
					"outputs": [],
					"stateMutability": "nonpayable",
					"type": "function"
				}
			],
			"devdoc": {
				"kind": "dev",
				"methods": {
					"owner()": {
						"details": "Returns the address of the current owner."
					},
					"renounceOwnership()": {
						"details": "Leaves the contract without owner. It will not be possible to call `onlyOwner` functions anymore. Can only be called by the current owner. NOTE: Renouncing ownership will leave the contract without an owner, thereby removing any functionality that is only available to the owner."
					},
					"transferOwnership(address)": {
						"details": "Transfers ownership of the contract to a new account (`newOwner`). Can only be called by the current owner."
					}
				},
				"version": 1
			},
			"evm": {
				"assembly": "    /* \"contract/myProject/CNRC_V2/V2_CNRedCross.sol\":397:994  contract Params is Initializable,OwnableUpgradeable {\r... */\n  mstore(0x40, 0x80)\n  callvalue\n  dup1\n  iszero\n  tag_1\n  jumpi\n  0x00\n  dup1\n  revert\ntag_1:\n  pop\n  dataSize(sub_0)\n  dup1\n  dataOffset(sub_0)\n  0x00\n  codecopy\n  0x00\n  return\nstop\n\nsub_0: assembly {\n        /* \"contract/myProject/CNRC_V2/V2_CNRedCross.sol\":397:994  contract Params is Initializable,OwnableUpgradeable {\r... */\n      mstore(0x40, 0x80)\n      callvalue\n      dup1\n      iszero\n      tag_1\n      jumpi\n      0x00\n      dup1\n      revert\n    tag_1:\n      pop\n      jumpi(tag_2, lt(calldatasize, 0x04))\n      shr(0xe0, calldataload(0x00))\n      dup1\n      0x4e678e80\n      eq\n      tag_3\n      jumpi\n      dup1\n      0x715018a6\n      eq\n      tag_4\n      jumpi\n      dup1\n      0x8129fc1c\n      eq\n      tag_5\n      jumpi\n      dup1\n      0x8da5cb5b\n      eq\n      tag_6\n      jumpi\n      dup1\n      0xcd4fe8cd\n      eq\n      tag_7\n      jumpi\n      dup1\n      0xf2fde38b\n      eq\n      tag_8\n      jumpi\n    tag_2:\n      0x00\n      dup1\n      revert\n        /* \"contract/myProject/CNRC_V2/V2_CNRedCross.sol\":874:991  function GetUint256Param(string memory _key)public view returns(uint256){\r... */\n    tag_3:\n      tag_9\n      0x04\n      dup1\n      calldatasize\n      sub\n      dup2\n      add\n      swap1\n      tag_10\n      swap2\n      swap1\n      tag_11\n      jump\t// in\n    tag_10:\n      tag_12\n      jump\t// in\n    tag_9:\n      mload(0x40)\n      tag_13\n      swap2\n      swap1\n      tag_14\n      jump\t// in\n    tag_13:\n      mload(0x40)\n      dup1\n      swap2\n      sub\n      swap1\n      return\n        /* \"@openzeppelin/contracts-upgradeable/access/OwnableUpgradeable.sol\":2071:2172  function renounceOwnership() public virtual onlyOwner {... */\n    tag_4:\n      tag_15\n      tag_16\n      jump\t// in\n    tag_15:\n      stop\n        /* \"contract/myProject/CNRC_V2/V2_CNRedCross.sol\":453:559  function initialize()public initializer{\r... */\n    tag_5:\n      tag_17\n      tag_18\n      jump\t// in\n    tag_17:\n      stop\n        /* \"@openzeppelin/contracts-upgradeable/access/OwnableUpgradeable.sol\":1441:1526  function owner() public view virtual returns (address) {... */\n    tag_6:\n      tag_19\n      tag_20\n      jump\t// in\n    tag_19:\n      mload(0x40)\n      tag_21\n      swap2\n      swap1\n      tag_22\n      jump\t// in\n    tag_21:\n      mload(0x40)\n      dup1\n      swap2\n      sub\n      swap1\n      return\n        /* \"contract/myProject/CNRC_V2/V2_CNRedCross.sol\":693:865  function SetUint256Param(string memory _key,uint256 _value) external onlyOwner{\r... */\n    tag_7:\n      tag_23\n      0x04\n      dup1\n      calldatasize\n      sub\n      dup2\n      add\n      swap1\n      tag_24\n      swap2\n      swap1\n      tag_25\n      jump\t// in\n    tag_24:\n      tag_26\n      jump\t// in\n    tag_23:\n      stop\n        /* \"@openzeppelin/contracts-upgradeable/access/OwnableUpgradeable.sol\":2321:2519  function transferOwnership(address newOwner) public virtual onlyOwner {... */\n    tag_8:\n      tag_27\n      0x04\n      dup1\n      calldatasize\n      sub\n      dup2\n      add\n      swap1\n      tag_28\n      swap2\n      swap1\n      tag_29\n      jump\t// in\n    tag_28:\n      tag_30\n      jump\t// in\n    tag_27:\n      stop\n        /* \"contract/myProject/CNRC_V2/V2_CNRedCross.sol\":874:991  function GetUint256Param(string memory _key)public view returns(uint256){\r... */\n    tag_12:\n        /* \"contract/myProject/CNRC_V2/V2_CNRedCross.sol\":938:945  uint256 */\n      0x00\n        /* \"contract/myProject/CNRC_V2/V2_CNRedCross.sol\":964:977  uint256Params */\n      0x65\n        /* \"contract/myProject/CNRC_V2/V2_CNRedCross.sol\":978:982  _key */\n      dup3\n        /* \"contract/myProject/CNRC_V2/V2_CNRedCross.sol\":964:983  uint256Params[_key] */\n      mload(0x40)\n      tag_32\n      swap2\n      swap1\n      tag_33\n      jump\t// in\n    tag_32:\n      swap1\n      dup2\n      mstore\n      0x20\n      add\n      mload(0x40)\n      dup1\n      swap2\n      sub\n      swap1\n      keccak256\n      sload\n        /* \"contract/myProject/CNRC_V2/V2_CNRedCross.sol\":957:983  return uint256Params[_key] */\n      swap1\n      pop\n        /* \"contract/myProject/CNRC_V2/V2_CNRedCross.sol\":874:991  function GetUint256Param(string memory _key)public view returns(uint256){\r... */\n      swap2\n      swap1\n      pop\n      jump\t// out\n        /* \"@openzeppelin/contracts-upgradeable/access/OwnableUpgradeable.sol\":2071:2172  function renounceOwnership() public virtual onlyOwner {... */\n    tag_16:\n        /* \"@openzeppelin/contracts-upgradeable/access/OwnableUpgradeable.sol\":1334:1347  _checkOwner() */\n      tag_35\n        /* \"@openzeppelin/contracts-upgradeable/access/OwnableUpgradeable.sol\":1334:1345  _checkOwner */\n      tag_36\n        /* \"@openzeppelin/contracts-upgradeable/access/OwnableUpgradeable.sol\":1334:1347  _checkOwner() */\n      jump\t// in\n    tag_35:\n        /* \"@openzeppelin/contracts-upgradeable/access/OwnableUpgradeable.sol\":2135:2165  _transferOwnership(address(0)) */\n      tag_38\n        /* \"@openzeppelin/contracts-upgradeable/access/OwnableUpgradeable.sol\":2162:2163  0 */\n      0x00\n        /* \"@openzeppelin/contracts-upgradeable/access/OwnableUpgradeable.sol\":2135:2153  _transferOwnership */\n      tag_39\n        /* \"@openzeppelin/contracts-upgradeable/access/OwnableUpgradeable.sol\":2135:2165  _transferOwnership(address(0)) */\n      jump\t// in\n    tag_38:\n        /* \"@openzeppelin/contracts-upgradeable/access/OwnableUpgradeable.sol\":2071:2172  function renounceOwnership() public virtual onlyOwner {... */\n      jump\t// out\n        /* \"contract/myProject/CNRC_V2/V2_CNRedCross.sol\":453:559  function initialize()public initializer{\r... */\n    tag_18:\n        /* \"@openzeppelin/contracts-upgradeable/proxy/utils/Initializable.sol\":3111:3130  bool isTopLevelCall */\n      0x00\n        /* \"@openzeppelin/contracts-upgradeable/proxy/utils/Initializable.sol\":3134:3147  _initializing */\n      dup1\n      0x01\n      swap1\n      sload\n      swap1\n      0x0100\n      exp\n      swap1\n      div\n      0xff\n      and\n        /* \"@openzeppelin/contracts-upgradeable/proxy/utils/Initializable.sol\":3133:3147  !_initializing */\n      iszero\n        /* \"@openzeppelin/contracts-upgradeable/proxy/utils/Initializable.sol\":3111:3147  bool isTopLevelCall = !_initializing */\n      swap1\n      pop\n        /* \"@openzeppelin/contracts-upgradeable/proxy/utils/Initializable.sol\":3179:3193  isTopLevelCall */\n      dup1\n        /* \"@openzeppelin/contracts-upgradeable/proxy/utils/Initializable.sol\":3179:3213  isTopLevelCall && _initialized < 1 */\n      dup1\n      iszero\n      tag_41\n      jumpi\n      pop\n        /* \"@openzeppelin/contracts-upgradeable/proxy/utils/Initializable.sol\":3212:3213  1 */\n      0x01\n        /* \"@openzeppelin/contracts-upgradeable/proxy/utils/Initializable.sol\":3197:3209  _initialized */\n      0x00\n      dup1\n      sload\n      swap1\n      0x0100\n      exp\n      swap1\n      div\n      0xff\n      and\n        /* \"@openzeppelin/contracts-upgradeable/proxy/utils/Initializable.sol\":3197:3213  _initialized < 1 */\n      0xff\n      and\n      lt\n        /* \"@openzeppelin/contracts-upgradeable/proxy/utils/Initializable.sol\":3179:3213  isTopLevelCall && _initialized < 1 */\n    tag_41:\n        /* \"@openzeppelin/contracts-upgradeable/proxy/utils/Initializable.sol\":3178:3286  (isTopLevelCall && _initialized < 1) || (!AddressUpgradeable.isContract(address(this)) && _initialized == 1) */\n      dup1\n      tag_42\n      jumpi\n      pop\n        /* \"@openzeppelin/contracts-upgradeable/proxy/utils/Initializable.sol\":3220:3264  AddressUpgradeable.isContract(address(this)) */\n      tag_43\n        /* \"@openzeppelin/contracts-upgradeable/proxy/utils/Initializable.sol\":3258:3262  this */\n      address\n        /* \"@openzeppelin/contracts-upgradeable/proxy/utils/Initializable.sol\":3220:3249  AddressUpgradeable.isContract */\n      tag_44\n        /* \"@openzeppelin/contracts-upgradeable/proxy/utils/Initializable.sol\":3220:3264  AddressUpgradeable.isContract(address(this)) */\n      jump\t// in\n    tag_43:\n        /* \"@openzeppelin/contracts-upgradeable/proxy/utils/Initializable.sol\":3219:3264  !AddressUpgradeable.isContract(address(this)) */\n      iszero\n        /* \"@openzeppelin/contracts-upgradeable/proxy/utils/Initializable.sol\":3219:3285  !AddressUpgradeable.isContract(address(this)) && _initialized == 1 */\n      dup1\n      iszero\n      tag_45\n      jumpi\n      pop\n        /* \"@openzeppelin/contracts-upgradeable/proxy/utils/Initializable.sol\":3284:3285  1 */\n      0x01\n        /* \"@openzeppelin/contracts-upgradeable/proxy/utils/Initializable.sol\":3268:3280  _initialized */\n      0x00\n      dup1\n      sload\n      swap1\n      0x0100\n      exp\n      swap1\n      div\n      0xff\n      and\n        /* \"@openzeppelin/contracts-upgradeable/proxy/utils/Initializable.sol\":3268:3285  _initialized == 1 */\n      0xff\n      and\n      eq\n        /* \"@openzeppelin/contracts-upgradeable/proxy/utils/Initializable.sol\":3219:3285  !AddressUpgradeable.isContract(address(this)) && _initialized == 1 */\n    tag_45:\n        /* \"@openzeppelin/contracts-upgradeable/proxy/utils/Initializable.sol\":3178:3286  (isTopLevelCall && _initialized < 1) || (!AddressUpgradeable.isContract(address(this)) && _initialized == 1) */\n    tag_42:\n        /* \"@openzeppelin/contracts-upgradeable/proxy/utils/Initializable.sol\":3157:3358  require(... */\n      tag_46\n      jumpi\n      mload(0x40)\n      0x08c379a000000000000000000000000000000000000000000000000000000000\n      dup2\n      mstore\n      0x04\n      add\n      tag_47\n      swap1\n      tag_48\n      jump\t// in\n    tag_47:\n      mload(0x40)\n      dup1\n      swap2\n      sub\n      swap1\n      revert\n    tag_46:\n        /* \"@openzeppelin/contracts-upgradeable/proxy/utils/Initializable.sol\":3383:3384  1 */\n      0x01\n        /* \"@openzeppelin/contracts-upgradeable/proxy/utils/Initializable.sol\":3368:3380  _initialized */\n      0x00\n      dup1\n        /* \"@openzeppelin/contracts-upgradeable/proxy/utils/Initializable.sol\":3368:3384  _initialized = 1 */\n      0x0100\n      exp\n      dup2\n      sload\n      dup2\n      0xff\n      mul\n      not\n      and\n      swap1\n      dup4\n      0xff\n      and\n      mul\n      or\n      swap1\n      sstore\n      pop\n        /* \"@openzeppelin/contracts-upgradeable/proxy/utils/Initializable.sol\":3398:3412  isTopLevelCall */\n      dup1\n        /* \"@openzeppelin/contracts-upgradeable/proxy/utils/Initializable.sol\":3394:3459  if (isTopLevelCall) {... */\n      iszero\n      tag_49\n      jumpi\n        /* \"@openzeppelin/contracts-upgradeable/proxy/utils/Initializable.sol\":3444:3448  true */\n      0x01\n        /* \"@openzeppelin/contracts-upgradeable/proxy/utils/Initializable.sol\":3428:3441  _initializing */\n      0x00\n      0x01\n        /* \"@openzeppelin/contracts-upgradeable/proxy/utils/Initializable.sol\":3428:3448  _initializing = true */\n      0x0100\n      exp\n      dup2\n      sload\n      dup2\n      0xff\n      mul\n      not\n      and\n      swap1\n      dup4\n      iszero\n      iszero\n      mul\n      or\n      swap1\n      sstore\n      pop\n        /* \"@openzeppelin/contracts-upgradeable/proxy/utils/Initializable.sol\":3394:3459  if (isTopLevelCall) {... */\n    tag_49:\n        /* \"contract/myProject/CNRC_V2/V2_CNRedCross.sol\":497:523  __Context_init_unchained() */\n      tag_51\n        /* \"contract/myProject/CNRC_V2/V2_CNRedCross.sol\":497:521  __Context_init_unchained */\n      tag_52\n        /* \"contract/myProject/CNRC_V2/V2_CNRedCross.sol\":497:523  __Context_init_unchained() */\n      jump\t// in\n    tag_51:\n        /* \"contract/myProject/CNRC_V2/V2_CNRedCross.sol\":528:554  __Ownable_init_unchained() */\n      tag_53\n        /* \"contract/myProject/CNRC_V2/V2_CNRedCross.sol\":528:552  __Ownable_init_unchained */\n      tag_54\n        /* \"contract/myProject/CNRC_V2/V2_CNRedCross.sol\":528:554  __Ownable_init_unchained() */\n      jump\t// in\n    tag_53:\n        /* \"@openzeppelin/contracts-upgradeable/proxy/utils/Initializable.sol\":3483:3497  isTopLevelCall */\n      dup1\n        /* \"@openzeppelin/contracts-upgradeable/proxy/utils/Initializable.sol\":3479:3578  if (isTopLevelCall) {... */\n      iszero\n      tag_55\n      jumpi\n        /* \"@openzeppelin/contracts-upgradeable/proxy/utils/Initializable.sol\":3529:3534  false */\n      0x00\n        /* \"@openzeppelin/contracts-upgradeable/proxy/utils/Initializable.sol\":3513:3526  _initializing */\n      dup1\n      0x01\n        /* \"@openzeppelin/contracts-upgradeable/proxy/utils/Initializable.sol\":3513:3534  _initializing = false */\n      0x0100\n      exp\n      dup2\n      sload\n      dup2\n      0xff\n      mul\n      not\n      and\n      swap1\n      dup4\n      iszero\n      iszero\n      mul\n      or\n      swap1\n      sstore\n      pop\n        /* \"@openzeppelin/contracts-upgradeable/proxy/utils/Initializable.sol\":3553:3567  Initialized(1) */\n      0x7f26b83ff96e1f2b6a682f133852f6798a09c465da95921460cefb3847402498\n        /* \"@openzeppelin/contracts-upgradeable/proxy/utils/Initializable.sol\":3565:3566  1 */\n      0x01\n        /* \"@openzeppelin/contracts-upgradeable/proxy/utils/Initializable.sol\":3553:3567  Initialized(1) */\n      mload(0x40)\n      tag_56\n      swap2\n      swap1\n      tag_57\n      jump\t// in\n    tag_56:\n      mload(0x40)\n      dup1\n      swap2\n      sub\n      swap1\n      log1\n        /* \"@openzeppelin/contracts-upgradeable/proxy/utils/Initializable.sol\":3479:3578  if (isTopLevelCall) {... */\n    tag_55:\n        /* \"@openzeppelin/contracts-upgradeable/proxy/utils/Initializable.sol\":3101:3584  {... */\n      pop\n        /* \"contract/myProject/CNRC_V2/V2_CNRedCross.sol\":453:559  function initialize()public initializer{\r... */\n      jump\t// out\n        /* \"@openzeppelin/contracts-upgradeable/access/OwnableUpgradeable.sol\":1441:1526  function owner() public view virtual returns (address) {... */\n    tag_20:\n        /* \"@openzeppelin/contracts-upgradeable/access/OwnableUpgradeable.sol\":1487:1494  address */\n      0x00\n        /* \"@openzeppelin/contracts-upgradeable/access/OwnableUpgradeable.sol\":1513:1519  _owner */\n      0x33\n      0x00\n      swap1\n      sload\n      swap1\n      0x0100\n      exp\n      swap1\n      div\n      0xffffffffffffffffffffffffffffffffffffffff\n      and\n        /* \"@openzeppelin/contracts-upgradeable/access/OwnableUpgradeable.sol\":1506:1519  return _owner */\n      swap1\n      pop\n        /* \"@openzeppelin/contracts-upgradeable/access/OwnableUpgradeable.sol\":1441:1526  function owner() public view virtual returns (address) {... */\n      swap1\n      jump\t// out\n        /* \"contract/myProject/CNRC_V2/V2_CNRedCross.sol\":693:865  function SetUint256Param(string memory _key,uint256 _value) external onlyOwner{\r... */\n    tag_26:\n        /* \"@openzeppelin/contracts-upgradeable/access/OwnableUpgradeable.sol\":1334:1347  _checkOwner() */\n      tag_60\n        /* \"@openzeppelin/contracts-upgradeable/access/OwnableUpgradeable.sol\":1334:1345  _checkOwner */\n      tag_36\n        /* \"@openzeppelin/contracts-upgradeable/access/OwnableUpgradeable.sol\":1334:1347  _checkOwner() */\n      jump\t// in\n    tag_60:\n        /* \"contract/myProject/CNRC_V2/V2_CNRedCross.sol\":804:810  _value */\n      dup1\n        /* \"contract/myProject/CNRC_V2/V2_CNRedCross.sol\":782:795  uint256Params */\n      0x65\n        /* \"contract/myProject/CNRC_V2/V2_CNRedCross.sol\":796:800  _key */\n      dup4\n        /* \"contract/myProject/CNRC_V2/V2_CNRedCross.sol\":782:801  uint256Params[_key] */\n      mload(0x40)\n      tag_62\n      swap2\n      swap1\n      tag_33\n      jump\t// in\n    tag_62:\n      swap1\n      dup2\n      mstore\n      0x20\n      add\n      mload(0x40)\n      dup1\n      swap2\n      sub\n      swap1\n      keccak256\n        /* \"contract/myProject/CNRC_V2/V2_CNRedCross.sol\":782:810  uint256Params[_key] = _value */\n      dup2\n      swap1\n      sstore\n      pop\n        /* \"contract/myProject/CNRC_V2/V2_CNRedCross.sol\":845:849  _key */\n      dup2\n        /* \"contract/myProject/CNRC_V2/V2_CNRedCross.sol\":826:857  Uint256ParamSetted(_key,_value) */\n      mload(0x40)\n      tag_63\n      swap2\n      swap1\n      tag_33\n      jump\t// in\n    tag_63:\n      mload(0x40)\n      dup1\n      swap2\n      sub\n      swap1\n      keccak256\n      0xfb95a454fb88a8138042f1b612100fff4b0a6159ea05e9b136eb293075809edf\n        /* \"contract/myProject/CNRC_V2/V2_CNRedCross.sol\":850:856  _value */\n      dup3\n        /* \"contract/myProject/CNRC_V2/V2_CNRedCross.sol\":826:857  Uint256ParamSetted(_key,_value) */\n      mload(0x40)\n      tag_64\n      swap2\n      swap1\n      tag_14\n      jump\t// in\n    tag_64:\n      mload(0x40)\n      dup1\n      swap2\n      sub\n      swap1\n      log2\n        /* \"contract/myProject/CNRC_V2/V2_CNRedCross.sol\":693:865  function SetUint256Param(string memory _key,uint256 _value) external onlyOwner{\r... */\n      pop\n      pop\n      jump\t// out\n        /* \"@openzeppelin/contracts-upgradeable/access/OwnableUpgradeable.sol\":2321:2519  function transferOwnership(address newOwner) public virtual onlyOwner {... */\n    tag_30:\n        /* \"@openzeppelin/contracts-upgradeable/access/OwnableUpgradeable.sol\":1334:1347  _checkOwner() */\n      tag_66\n        /* \"@openzeppelin/contracts-upgradeable/access/OwnableUpgradeable.sol\":1334:1345  _checkOwner */\n      tag_36\n        /* \"@openzeppelin/contracts-upgradeable/access/OwnableUpgradeable.sol\":1334:1347  _checkOwner() */\n      jump\t// in\n    tag_66:\n        /* \"@openzeppelin/contracts-upgradeable/access/OwnableUpgradeable.sol\":2429:2430  0 */\n      0x00\n        /* \"@openzeppelin/contracts-upgradeable/access/OwnableUpgradeable.sol\":2409:2431  newOwner != address(0) */\n      0xffffffffffffffffffffffffffffffffffffffff\n      and\n        /* \"@openzeppelin/contracts-upgradeable/access/OwnableUpgradeable.sol\":2409:2417  newOwner */\n      dup2\n        /* \"@openzeppelin/contracts-upgradeable/access/OwnableUpgradeable.sol\":2409:2431  newOwner != address(0) */\n      0xffffffffffffffffffffffffffffffffffffffff\n      and\n      eq\n      iszero\n        /* \"@openzeppelin/contracts-upgradeable/access/OwnableUpgradeable.sol\":2401:2474  require(newOwner != address(0), \"Ownable: new owner is the zero address\") */\n      tag_68\n      jumpi\n      mload(0x40)\n      0x08c379a000000000000000000000000000000000000000000000000000000000\n      dup2\n      mstore\n      0x04\n      add\n      tag_69\n      swap1\n      tag_70\n      jump\t// in\n    tag_69:\n      mload(0x40)\n      dup1\n      swap2\n      sub\n      swap1\n      revert\n    tag_68:\n        /* \"@openzeppelin/contracts-upgradeable/access/OwnableUpgradeable.sol\":2484:2512  _transferOwnership(newOwner) */\n      tag_71\n        /* \"@openzeppelin/contracts-upgradeable/access/OwnableUpgradeable.sol\":2503:2511  newOwner */\n      dup2\n        /* \"@openzeppelin/contracts-upgradeable/access/OwnableUpgradeable.sol\":2484:2502  _transferOwnership */\n      tag_39\n        /* \"@openzeppelin/contracts-upgradeable/access/OwnableUpgradeable.sol\":2484:2512  _transferOwnership(newOwner) */\n      jump\t// in\n    tag_71:\n        /* \"@openzeppelin/contracts-upgradeable/access/OwnableUpgradeable.sol\":2321:2519  function transferOwnership(address newOwner) public virtual onlyOwner {... */\n      pop\n      jump\t// out\n        /* \"@openzeppelin/contracts-upgradeable/access/OwnableUpgradeable.sol\":1599:1729  function _checkOwner() internal view virtual {... */\n    tag_36:\n        /* \"@openzeppelin/contracts-upgradeable/access/OwnableUpgradeable.sol\":1673:1685  _msgSender() */\n      tag_73\n        /* \"@openzeppelin/contracts-upgradeable/access/OwnableUpgradeable.sol\":1673:1683  _msgSender */\n      tag_74\n        /* \"@openzeppelin/contracts-upgradeable/access/OwnableUpgradeable.sol\":1673:1685  _msgSender() */\n      jump\t// in\n    tag_73:\n        /* \"@openzeppelin/contracts-upgradeable/access/OwnableUpgradeable.sol\":1662:1685  owner() == _msgSender() */\n      0xffffffffffffffffffffffffffffffffffffffff\n      and\n        /* \"@openzeppelin/contracts-upgradeable/access/OwnableUpgradeable.sol\":1662:1669  owner() */\n      tag_75\n        /* \"@openzeppelin/contracts-upgradeable/access/OwnableUpgradeable.sol\":1662:1667  owner */\n      tag_20\n        /* \"@openzeppelin/contracts-upgradeable/access/OwnableUpgradeable.sol\":1662:1669  owner() */\n      jump\t// in\n    tag_75:\n        /* \"@openzeppelin/contracts-upgradeable/access/OwnableUpgradeable.sol\":1662:1685  owner() == _msgSender() */\n      0xffffffffffffffffffffffffffffffffffffffff\n      and\n      eq\n        /* \"@openzeppelin/contracts-upgradeable/access/OwnableUpgradeable.sol\":1654:1722  require(owner() == _msgSender(), \"Ownable: caller is not the owner\") */\n      tag_76\n      jumpi\n      mload(0x40)\n      0x08c379a000000000000000000000000000000000000000000000000000000000\n      dup2\n      mstore\n      0x04\n      add\n      tag_77\n      swap1\n      tag_78\n      jump\t// in\n    tag_77:\n      mload(0x40)\n      dup1\n      swap2\n      sub\n      swap1\n      revert\n    tag_76:\n        /* \"@openzeppelin/contracts-upgradeable/access/OwnableUpgradeable.sol\":1599:1729  function _checkOwner() internal view virtual {... */\n      jump\t// out\n        /* \"@openzeppelin/contracts-upgradeable/access/OwnableUpgradeable.sol\":2673:2860  function _transferOwnership(address newOwner) internal virtual {... */\n    tag_39:\n        /* \"@openzeppelin/contracts-upgradeable/access/OwnableUpgradeable.sol\":2746:2762  address oldOwner */\n      0x00\n        /* \"@openzeppelin/contracts-upgradeable/access/OwnableUpgradeable.sol\":2765:2771  _owner */\n      0x33\n      0x00\n      swap1\n      sload\n      swap1\n      0x0100\n      exp\n      swap1\n      div\n      0xffffffffffffffffffffffffffffffffffffffff\n      and\n        /* \"@openzeppelin/contracts-upgradeable/access/OwnableUpgradeable.sol\":2746:2771  address oldOwner = _owner */\n      swap1\n      pop\n        /* \"@openzeppelin/contracts-upgradeable/access/OwnableUpgradeable.sol\":2790:2798  newOwner */\n      dup2\n        /* \"@openzeppelin/contracts-upgradeable/access/OwnableUpgradeable.sol\":2781:2787  _owner */\n      0x33\n      0x00\n        /* \"@openzeppelin/contracts-upgradeable/access/OwnableUpgradeable.sol\":2781:2798  _owner = newOwner */\n      0x0100\n      exp\n      dup2\n      sload\n      dup2\n      0xffffffffffffffffffffffffffffffffffffffff\n      mul\n      not\n      and\n      swap1\n      dup4\n      0xffffffffffffffffffffffffffffffffffffffff\n      and\n      mul\n      or\n      swap1\n      sstore\n      pop\n        /* \"@openzeppelin/contracts-upgradeable/access/OwnableUpgradeable.sol\":2844:2852  newOwner */\n      dup2\n        /* \"@openzeppelin/contracts-upgradeable/access/OwnableUpgradeable.sol\":2813:2853  OwnershipTransferred(oldOwner, newOwner) */\n      0xffffffffffffffffffffffffffffffffffffffff\n      and\n        /* \"@openzeppelin/contracts-upgradeable/access/OwnableUpgradeable.sol\":2834:2842  oldOwner */\n      dup2\n        /* \"@openzeppelin/contracts-upgradeable/access/OwnableUpgradeable.sol\":2813:2853  OwnershipTransferred(oldOwner, newOwner) */\n      0xffffffffffffffffffffffffffffffffffffffff\n      and\n      0x8be0079c531659141344cd1fd0a4f28419497f9722a3daafe3b4186f6b6457e0\n      mload(0x40)\n      mload(0x40)\n      dup1\n      swap2\n      sub\n      swap1\n      log3\n        /* \"@openzeppelin/contracts-upgradeable/access/OwnableUpgradeable.sol\":2736:2860  {... */\n      pop\n        /* \"@openzeppelin/contracts-upgradeable/access/OwnableUpgradeable.sol\":2673:2860  function _transferOwnership(address newOwner) internal virtual {... */\n      pop\n      jump\t// out\n        /* \"@openzeppelin/contracts-upgradeable/utils/AddressUpgradeable.sol\":1186:1506  function isContract(address account) internal view returns (bool) {... */\n    tag_44:\n        /* \"@openzeppelin/contracts-upgradeable/utils/AddressUpgradeable.sol\":1246:1250  bool */\n      0x00\n        /* \"@openzeppelin/contracts-upgradeable/utils/AddressUpgradeable.sol\":1498:1499  0 */\n      dup1\n        /* \"@openzeppelin/contracts-upgradeable/utils/AddressUpgradeable.sol\":1476:1483  account */\n      dup3\n        /* \"@openzeppelin/contracts-upgradeable/utils/AddressUpgradeable.sol\":1476:1495  account.code.length */\n      0xffffffffffffffffffffffffffffffffffffffff\n      and\n      extcodesize\n        /* \"@openzeppelin/contracts-upgradeable/utils/AddressUpgradeable.sol\":1476:1499  account.code.length > 0 */\n      gt\n        /* \"@openzeppelin/contracts-upgradeable/utils/AddressUpgradeable.sol\":1469:1499  return account.code.length > 0 */\n      swap1\n      pop\n        /* \"@openzeppelin/contracts-upgradeable/utils/AddressUpgradeable.sol\":1186:1506  function isContract(address account) internal view returns (bool) {... */\n      swap2\n      swap1\n      pop\n      jump\t// out\n        /* \"@openzeppelin/contracts-upgradeable/utils/ContextUpgradeable.sol\":776:845  function __Context_init_unchained() internal onlyInitializing {... */\n    tag_52:\n        /* \"@openzeppelin/contracts-upgradeable/proxy/utils/Initializable.sol\":4910:4923  _initializing */\n      0x00\n      0x01\n      swap1\n      sload\n      swap1\n      0x0100\n      exp\n      swap1\n      div\n      0xff\n      and\n        /* \"@openzeppelin/contracts-upgradeable/proxy/utils/Initializable.sol\":4902:4971  require(_initializing, \"Initializable: contract is not initializing\") */\n      tag_82\n      jumpi\n      mload(0x40)\n      0x08c379a000000000000000000000000000000000000000000000000000000000\n      dup2\n      mstore\n      0x04\n      add\n      tag_83\n      swap1\n      tag_84\n      jump\t// in\n    tag_83:\n      mload(0x40)\n      dup1\n      swap2\n      sub\n      swap1\n      revert\n    tag_82:\n        /* \"@openzeppelin/contracts-upgradeable/utils/ContextUpgradeable.sol\":776:845  function __Context_init_unchained() internal onlyInitializing {... */\n      jump\t// out\n        /* \"@openzeppelin/contracts-upgradeable/access/OwnableUpgradeable.sol\":1104:1215  function __Ownable_init_unchained() internal onlyInitializing {... */\n    tag_54:\n        /* \"@openzeppelin/contracts-upgradeable/proxy/utils/Initializable.sol\":4910:4923  _initializing */\n      0x00\n      0x01\n      swap1\n      sload\n      swap1\n      0x0100\n      exp\n      swap1\n      div\n      0xff\n      and\n        /* \"@openzeppelin/contracts-upgradeable/proxy/utils/Initializable.sol\":4902:4971  require(_initializing, \"Initializable: contract is not initializing\") */\n      tag_87\n      jumpi\n      mload(0x40)\n      0x08c379a000000000000000000000000000000000000000000000000000000000\n      dup2\n      mstore\n      0x04\n      add\n      tag_88\n      swap1\n      tag_84\n      jump\t// in\n    tag_88:\n      mload(0x40)\n      dup1\n      swap2\n      sub\n      swap1\n      revert\n    tag_87:\n        /* \"@openzeppelin/contracts-upgradeable/access/OwnableUpgradeable.sol\":1176:1208  _transferOwnership(_msgSender()) */\n      tag_90\n        /* \"@openzeppelin/contracts-upgradeable/access/OwnableUpgradeable.sol\":1195:1207  _msgSender() */\n      tag_91\n        /* \"@openzeppelin/contracts-upgradeable/access/OwnableUpgradeable.sol\":1195:1205  _msgSender */\n      tag_74\n        /* \"@openzeppelin/contracts-upgradeable/access/OwnableUpgradeable.sol\":1195:1207  _msgSender() */\n      jump\t// in\n    tag_91:\n        /* \"@openzeppelin/contracts-upgradeable/access/OwnableUpgradeable.sol\":1176:1194  _transferOwnership */\n      tag_39\n        /* \"@openzeppelin/contracts-upgradeable/access/OwnableUpgradeable.sol\":1176:1208  _transferOwnership(_msgSender()) */\n      jump\t// in\n    tag_90:\n        /* \"@openzeppelin/contracts-upgradeable/access/OwnableUpgradeable.sol\":1104:1215  function __Ownable_init_unchained() internal onlyInitializing {... */\n      jump\t// out\n        /* \"@openzeppelin/contracts-upgradeable/utils/ContextUpgradeable.sol\":850:946  function _msgSender() internal view virtual returns (address) {... */\n    tag_74:\n        /* \"@openzeppelin/contracts-upgradeable/utils/ContextUpgradeable.sol\":903:910  address */\n      0x00\n        /* \"@openzeppelin/contracts-upgradeable/utils/ContextUpgradeable.sol\":929:939  msg.sender */\n      caller\n        /* \"@openzeppelin/contracts-upgradeable/utils/ContextUpgradeable.sol\":922:939  return msg.sender */\n      swap1\n      pop\n        /* \"@openzeppelin/contracts-upgradeable/utils/ContextUpgradeable.sol\":850:946  function _msgSender() internal view virtual returns (address) {... */\n      swap1\n      jump\t// out\n        /* \"#utility.yul\":7:419   */\n    tag_94:\n        /* \"#utility.yul\":85:90   */\n      0x00\n        /* \"#utility.yul\":110:176   */\n      tag_96\n        /* \"#utility.yul\":126:175   */\n      tag_97\n        /* \"#utility.yul\":168:174   */\n      dup5\n        /* \"#utility.yul\":126:175   */\n      tag_98\n      jump\t// in\n    tag_97:\n        /* \"#utility.yul\":110:176   */\n      tag_99\n      jump\t// in\n    tag_96:\n        /* \"#utility.yul\":101:176   */\n      swap1\n      pop\n        /* \"#utility.yul\":199:205   */\n      dup3\n        /* \"#utility.yul\":192:197   */\n      dup2\n        /* \"#utility.yul\":185:206   */\n      mstore\n        /* \"#utility.yul\":237:241   */\n      0x20\n        /* \"#utility.yul\":230:235   */\n      dup2\n        /* \"#utility.yul\":226:242   */\n      add\n        /* \"#utility.yul\":275:278   */\n      dup5\n        /* \"#utility.yul\":266:272   */\n      dup5\n        /* \"#utility.yul\":261:264   */\n      dup5\n        /* \"#utility.yul\":257:273   */\n      add\n        /* \"#utility.yul\":254:279   */\n      gt\n        /* \"#utility.yul\":251:363   */\n      iszero\n      tag_100\n      jumpi\n        /* \"#utility.yul\":282:361   */\n      tag_101\n      tag_102\n      jump\t// in\n    tag_101:\n        /* \"#utility.yul\":251:363   */\n    tag_100:\n        /* \"#utility.yul\":372:413   */\n      tag_103\n        /* \"#utility.yul\":406:412   */\n      dup5\n        /* \"#utility.yul\":401:404   */\n      dup3\n        /* \"#utility.yul\":396:399   */\n      dup6\n        /* \"#utility.yul\":372:413   */\n      tag_104\n      jump\t// in\n    tag_103:\n        /* \"#utility.yul\":91:419   */\n      pop\n        /* \"#utility.yul\":7:419   */\n      swap4\n      swap3\n      pop\n      pop\n      pop\n      jump\t// out\n        /* \"#utility.yul\":425:564   */\n    tag_105:\n        /* \"#utility.yul\":471:476   */\n      0x00\n        /* \"#utility.yul\":509:515   */\n      dup2\n        /* \"#utility.yul\":496:516   */\n      calldataload\n        /* \"#utility.yul\":487:516   */\n      swap1\n      pop\n        /* \"#utility.yul\":525:558   */\n      tag_107\n        /* \"#utility.yul\":552:557   */\n      dup2\n        /* \"#utility.yul\":525:558   */\n      tag_108\n      jump\t// in\n    tag_107:\n        /* \"#utility.yul\":425:564   */\n      swap3\n      swap2\n      pop\n      pop\n      jump\t// out\n        /* \"#utility.yul\":584:924   */\n    tag_109:\n        /* \"#utility.yul\":640:645   */\n      0x00\n        /* \"#utility.yul\":689:692   */\n      dup3\n        /* \"#utility.yul\":682:686   */\n      0x1f\n        /* \"#utility.yul\":674:680   */\n      dup4\n        /* \"#utility.yul\":670:687   */\n      add\n        /* \"#utility.yul\":666:693   */\n      slt\n        /* \"#utility.yul\":656:778   */\n      tag_111\n      jumpi\n        /* \"#utility.yul\":697:776   */\n      tag_112\n      tag_113\n      jump\t// in\n    tag_112:\n        /* \"#utility.yul\":656:778   */\n    tag_111:\n        /* \"#utility.yul\":814:820   */\n      dup2\n        /* \"#utility.yul\":801:821   */\n      calldataload\n        /* \"#utility.yul\":839:918   */\n      tag_114\n        /* \"#utility.yul\":914:917   */\n      dup5\n        /* \"#utility.yul\":906:912   */\n      dup3\n        /* \"#utility.yul\":899:903   */\n      0x20\n        /* \"#utility.yul\":891:897   */\n      dup7\n        /* \"#utility.yul\":887:904   */\n      add\n        /* \"#utility.yul\":839:918   */\n      tag_94\n      jump\t// in\n    tag_114:\n        /* \"#utility.yul\":830:918   */\n      swap2\n      pop\n        /* \"#utility.yul\":646:924   */\n      pop\n        /* \"#utility.yul\":584:924   */\n      swap3\n      swap2\n      pop\n      pop\n      jump\t// out\n        /* \"#utility.yul\":930:1069   */\n    tag_115:\n        /* \"#utility.yul\":976:981   */\n      0x00\n        /* \"#utility.yul\":1014:1020   */\n      dup2\n        /* \"#utility.yul\":1001:1021   */\n      calldataload\n        /* \"#utility.yul\":992:1021   */\n      swap1\n      pop\n        /* \"#utility.yul\":1030:1063   */\n      tag_117\n        /* \"#utility.yul\":1057:1062   */\n      dup2\n        /* \"#utility.yul\":1030:1063   */\n      tag_118\n      jump\t// in\n    tag_117:\n        /* \"#utility.yul\":930:1069   */\n      swap3\n      swap2\n      pop\n      pop\n      jump\t// out\n        /* \"#utility.yul\":1075:1404   */\n    tag_29:\n        /* \"#utility.yul\":1134:1140   */\n      0x00\n        /* \"#utility.yul\":1183:1185   */\n      0x20\n        /* \"#utility.yul\":1171:1180   */\n      dup3\n        /* \"#utility.yul\":1162:1169   */\n      dup5\n        /* \"#utility.yul\":1158:1181   */\n      sub\n        /* \"#utility.yul\":1154:1186   */\n      slt\n        /* \"#utility.yul\":1151:1270   */\n      iszero\n      tag_120\n      jumpi\n        /* \"#utility.yul\":1189:1268   */\n      tag_121\n      tag_122\n      jump\t// in\n    tag_121:\n        /* \"#utility.yul\":1151:1270   */\n    tag_120:\n        /* \"#utility.yul\":1309:1310   */\n      0x00\n        /* \"#utility.yul\":1334:1387   */\n      tag_123\n        /* \"#utility.yul\":1379:1386   */\n      dup5\n        /* \"#utility.yul\":1370:1376   */\n      dup3\n        /* \"#utility.yul\":1359:1368   */\n      dup6\n        /* \"#utility.yul\":1355:1377   */\n      add\n        /* \"#utility.yul\":1334:1387   */\n      tag_105\n      jump\t// in\n    tag_123:\n        /* \"#utility.yul\":1324:1387   */\n      swap2\n      pop\n        /* \"#utility.yul\":1280:1397   */\n      pop\n        /* \"#utility.yul\":1075:1404   */\n      swap3\n      swap2\n      pop\n      pop\n      jump\t// out\n        /* \"#utility.yul\":1410:1919   */\n    tag_11:\n        /* \"#utility.yul\":1479:1485   */\n      0x00\n        /* \"#utility.yul\":1528:1530   */\n      0x20\n        /* \"#utility.yul\":1516:1525   */\n      dup3\n        /* \"#utility.yul\":1507:1514   */\n      dup5\n        /* \"#utility.yul\":1503:1526   */\n      sub\n        /* \"#utility.yul\":1499:1531   */\n      slt\n        /* \"#utility.yul\":1496:1615   */\n      iszero\n      tag_125\n      jumpi\n        /* \"#utility.yul\":1534:1613   */\n      tag_126\n      tag_122\n      jump\t// in\n    tag_126:\n        /* \"#utility.yul\":1496:1615   */\n    tag_125:\n        /* \"#utility.yul\":1682:1683   */\n      0x00\n        /* \"#utility.yul\":1671:1680   */\n      dup3\n        /* \"#utility.yul\":1667:1684   */\n      add\n        /* \"#utility.yul\":1654:1685   */\n      calldataload\n        /* \"#utility.yul\":1712:1730   */\n      0xffffffffffffffff\n        /* \"#utility.yul\":1704:1710   */\n      dup2\n        /* \"#utility.yul\":1701:1731   */\n      gt\n        /* \"#utility.yul\":1698:1815   */\n      iszero\n      tag_127\n      jumpi\n        /* \"#utility.yul\":1734:1813   */\n      tag_128\n      tag_129\n      jump\t// in\n    tag_128:\n        /* \"#utility.yul\":1698:1815   */\n    tag_127:\n        /* \"#utility.yul\":1839:1902   */\n      tag_130\n        /* \"#utility.yul\":1894:1901   */\n      dup5\n        /* \"#utility.yul\":1885:1891   */\n      dup3\n        /* \"#utility.yul\":1874:1883   */\n      dup6\n        /* \"#utility.yul\":1870:1892   */\n      add\n        /* \"#utility.yul\":1839:1902   */\n      tag_109\n      jump\t// in\n    tag_130:\n        /* \"#utility.yul\":1829:1902   */\n      swap2\n      pop\n        /* \"#utility.yul\":1625:1912   */\n      pop\n        /* \"#utility.yul\":1410:1919   */\n      swap3\n      swap2\n      pop\n      pop\n      jump\t// out\n        /* \"#utility.yul\":1925:2579   */\n    tag_25:\n        /* \"#utility.yul\":2003:2009   */\n      0x00\n        /* \"#utility.yul\":2011:2017   */\n      dup1\n        /* \"#utility.yul\":2060:2062   */\n      0x40\n        /* \"#utility.yul\":2048:2057   */\n      dup4\n        /* \"#utility.yul\":2039:2046   */\n      dup6\n        /* \"#utility.yul\":2035:2058   */\n      sub\n        /* \"#utility.yul\":2031:2063   */\n      slt\n        /* \"#utility.yul\":2028:2147   */\n      iszero\n      tag_132\n      jumpi\n        /* \"#utility.yul\":2066:2145   */\n      tag_133\n      tag_122\n      jump\t// in\n    tag_133:\n        /* \"#utility.yul\":2028:2147   */\n    tag_132:\n        /* \"#utility.yul\":2214:2215   */\n      0x00\n        /* \"#utility.yul\":2203:2212   */\n      dup4\n        /* \"#utility.yul\":2199:2216   */\n      add\n        /* \"#utility.yul\":2186:2217   */\n      calldataload\n        /* \"#utility.yul\":2244:2262   */\n      0xffffffffffffffff\n        /* \"#utility.yul\":2236:2242   */\n      dup2\n        /* \"#utility.yul\":2233:2263   */\n      gt\n        /* \"#utility.yul\":2230:2347   */\n      iszero\n      tag_134\n      jumpi\n        /* \"#utility.yul\":2266:2345   */\n      tag_135\n      tag_129\n      jump\t// in\n    tag_135:\n        /* \"#utility.yul\":2230:2347   */\n    tag_134:\n        /* \"#utility.yul\":2371:2434   */\n      tag_136\n        /* \"#utility.yul\":2426:2433   */\n      dup6\n        /* \"#utility.yul\":2417:2423   */\n      dup3\n        /* \"#utility.yul\":2406:2415   */\n      dup7\n        /* \"#utility.yul\":2402:2424   */\n      add\n        /* \"#utility.yul\":2371:2434   */\n      tag_109\n      jump\t// in\n    tag_136:\n        /* \"#utility.yul\":2361:2434   */\n      swap3\n      pop\n        /* \"#utility.yul\":2157:2444   */\n      pop\n        /* \"#utility.yul\":2483:2485   */\n      0x20\n        /* \"#utility.yul\":2509:2562   */\n      tag_137\n        /* \"#utility.yul\":2554:2561   */\n      dup6\n        /* \"#utility.yul\":2545:2551   */\n      dup3\n        /* \"#utility.yul\":2534:2543   */\n      dup7\n        /* \"#utility.yul\":2530:2552   */\n      add\n        /* \"#utility.yul\":2509:2562   */\n      tag_115\n      jump\t// in\n    tag_137:\n        /* \"#utility.yul\":2499:2562   */\n      swap2\n      pop\n        /* \"#utility.yul\":2454:2572   */\n      pop\n        /* \"#utility.yul\":1925:2579   */\n      swap3\n      pop\n      swap3\n      swap1\n      pop\n      jump\t// out\n        /* \"#utility.yul\":2585:2703   */\n    tag_138:\n        /* \"#utility.yul\":2672:2696   */\n      tag_140\n        /* \"#utility.yul\":2690:2695   */\n      dup2\n        /* \"#utility.yul\":2672:2696   */\n      tag_141\n      jump\t// in\n    tag_140:\n        /* \"#utility.yul\":2667:2670   */\n      dup3\n        /* \"#utility.yul\":2660:2697   */\n      mstore\n        /* \"#utility.yul\":2585:2703   */\n      pop\n      pop\n      jump\t// out\n        /* \"#utility.yul\":2709:2852   */\n    tag_142:\n        /* \"#utility.yul\":2802:2845   */\n      tag_144\n        /* \"#utility.yul\":2839:2844   */\n      dup2\n        /* \"#utility.yul\":2802:2845   */\n      tag_145\n      jump\t// in\n    tag_144:\n        /* \"#utility.yul\":2797:2800   */\n      dup3\n        /* \"#utility.yul\":2790:2846   */\n      mstore\n        /* \"#utility.yul\":2709:2852   */\n      pop\n      pop\n      jump\t// out\n        /* \"#utility.yul\":2858:3235   */\n    tag_146:\n        /* \"#utility.yul\":2964:2967   */\n      0x00\n        /* \"#utility.yul\":2992:3031   */\n      tag_148\n        /* \"#utility.yul\":3025:3030   */\n      dup3\n        /* \"#utility.yul\":2992:3031   */\n      tag_149\n      jump\t// in\n    tag_148:\n        /* \"#utility.yul\":3047:3136   */\n      tag_150\n        /* \"#utility.yul\":3129:3135   */\n      dup2\n        /* \"#utility.yul\":3124:3127   */\n      dup6\n        /* \"#utility.yul\":3047:3136   */\n      tag_151\n      jump\t// in\n    tag_150:\n        /* \"#utility.yul\":3040:3136   */\n      swap4\n      pop\n        /* \"#utility.yul\":3145:3197   */\n      tag_152\n        /* \"#utility.yul\":3190:3196   */\n      dup2\n        /* \"#utility.yul\":3185:3188   */\n      dup6\n        /* \"#utility.yul\":3178:3182   */\n      0x20\n        /* \"#utility.yul\":3171:3176   */\n      dup7\n        /* \"#utility.yul\":3167:3183   */\n      add\n        /* \"#utility.yul\":3145:3197   */\n      tag_153\n      jump\t// in\n    tag_152:\n        /* \"#utility.yul\":3222:3228   */\n      dup1\n        /* \"#utility.yul\":3217:3220   */\n      dup5\n        /* \"#utility.yul\":3213:3229   */\n      add\n        /* \"#utility.yul\":3206:3229   */\n      swap2\n      pop\n        /* \"#utility.yul\":2968:3235   */\n      pop\n        /* \"#utility.yul\":2858:3235   */\n      swap3\n      swap2\n      pop\n      pop\n      jump\t// out\n        /* \"#utility.yul\":3241:3607   */\n    tag_154:\n        /* \"#utility.yul\":3383:3386   */\n      0x00\n        /* \"#utility.yul\":3404:3471   */\n      tag_156\n        /* \"#utility.yul\":3468:3470   */\n      0x26\n        /* \"#utility.yul\":3463:3466   */\n      dup4\n        /* \"#utility.yul\":3404:3471   */\n      tag_157\n      jump\t// in\n    tag_156:\n        /* \"#utility.yul\":3397:3471   */\n      swap2\n      pop\n        /* \"#utility.yul\":3480:3573   */\n      tag_158\n        /* \"#utility.yul\":3569:3572   */\n      dup3\n        /* \"#utility.yul\":3480:3573   */\n      tag_159\n      jump\t// in\n    tag_158:\n        /* \"#utility.yul\":3598:3600   */\n      0x40\n        /* \"#utility.yul\":3593:3596   */\n      dup3\n        /* \"#utility.yul\":3589:3601   */\n      add\n        /* \"#utility.yul\":3582:3601   */\n      swap1\n      pop\n        /* \"#utility.yul\":3241:3607   */\n      swap2\n      swap1\n      pop\n      jump\t// out\n        /* \"#utility.yul\":3613:3979   */\n    tag_160:\n        /* \"#utility.yul\":3755:3758   */\n      0x00\n        /* \"#utility.yul\":3776:3843   */\n      tag_162\n        /* \"#utility.yul\":3840:3842   */\n      0x2e\n        /* \"#utility.yul\":3835:3838   */\n      dup4\n        /* \"#utility.yul\":3776:3843   */\n      tag_157\n      jump\t// in\n    tag_162:\n        /* \"#utility.yul\":3769:3843   */\n      swap2\n      pop\n        /* \"#utility.yul\":3852:3945   */\n      tag_163\n        /* \"#utility.yul\":3941:3944   */\n      dup3\n        /* \"#utility.yul\":3852:3945   */\n      tag_164\n      jump\t// in\n    tag_163:\n        /* \"#utility.yul\":3970:3972   */\n      0x40\n        /* \"#utility.yul\":3965:3968   */\n      dup3\n        /* \"#utility.yul\":3961:3973   */\n      add\n        /* \"#utility.yul\":3954:3973   */\n      swap1\n      pop\n        /* \"#utility.yul\":3613:3979   */\n      swap2\n      swap1\n      pop\n      jump\t// out\n        /* \"#utility.yul\":3985:4351   */\n    tag_165:\n        /* \"#utility.yul\":4127:4130   */\n      0x00\n        /* \"#utility.yul\":4148:4215   */\n      tag_167\n        /* \"#utility.yul\":4212:4214   */\n      0x20\n        /* \"#utility.yul\":4207:4210   */\n      dup4\n        /* \"#utility.yul\":4148:4215   */\n      tag_157\n      jump\t// in\n    tag_167:\n        /* \"#utility.yul\":4141:4215   */\n      swap2\n      pop\n        /* \"#utility.yul\":4224:4317   */\n      tag_168\n        /* \"#utility.yul\":4313:4316   */\n      dup3\n        /* \"#utility.yul\":4224:4317   */\n      tag_169\n      jump\t// in\n    tag_168:\n        /* \"#utility.yul\":4342:4344   */\n      0x20\n        /* \"#utility.yul\":4337:4340   */\n      dup3\n        /* \"#utility.yul\":4333:4345   */\n      add\n        /* \"#utility.yul\":4326:4345   */\n      swap1\n      pop\n        /* \"#utility.yul\":3985:4351   */\n      swap2\n      swap1\n      pop\n      jump\t// out\n        /* \"#utility.yul\":4357:4723   */\n    tag_170:\n        /* \"#utility.yul\":4499:4502   */\n      0x00\n        /* \"#utility.yul\":4520:4587   */\n      tag_172\n        /* \"#utility.yul\":4584:4586   */\n      0x2b\n        /* \"#utility.yul\":4579:4582   */\n      dup4\n        /* \"#utility.yul\":4520:4587   */\n      tag_157\n      jump\t// in\n    tag_172:\n        /* \"#utility.yul\":4513:4587   */\n      swap2\n      pop\n        /* \"#utility.yul\":4596:4689   */\n      tag_173\n        /* \"#utility.yul\":4685:4688   */\n      dup3\n        /* \"#utility.yul\":4596:4689   */\n      tag_174\n      jump\t// in\n    tag_173:\n        /* \"#utility.yul\":4714:4716   */\n      0x40\n        /* \"#utility.yul\":4709:4712   */\n      dup3\n        /* \"#utility.yul\":4705:4717   */\n      add\n        /* \"#utility.yul\":4698:4717   */\n      swap1\n      pop\n        /* \"#utility.yul\":4357:4723   */\n      swap2\n      swap1\n      pop\n      jump\t// out\n        /* \"#utility.yul\":4729:4847   */\n    tag_175:\n        /* \"#utility.yul\":4816:4840   */\n      tag_177\n        /* \"#utility.yul\":4834:4839   */\n      dup2\n        /* \"#utility.yul\":4816:4840   */\n      tag_178\n      jump\t// in\n    tag_177:\n        /* \"#utility.yul\":4811:4814   */\n      dup3\n        /* \"#utility.yul\":4804:4841   */\n      mstore\n        /* \"#utility.yul\":4729:4847   */\n      pop\n      pop\n      jump\t// out\n        /* \"#utility.yul\":4853:5128   */\n    tag_33:\n        /* \"#utility.yul\":4985:4988   */\n      0x00\n        /* \"#utility.yul\":5007:5102   */\n      tag_180\n        /* \"#utility.yul\":5098:5101   */\n      dup3\n        /* \"#utility.yul\":5089:5095   */\n      dup5\n        /* \"#utility.yul\":5007:5102   */\n      tag_146\n      jump\t// in\n    tag_180:\n        /* \"#utility.yul\":5000:5102   */\n      swap2\n      pop\n        /* \"#utility.yul\":5119:5122   */\n      dup2\n        /* \"#utility.yul\":5112:5122   */\n      swap1\n      pop\n        /* \"#utility.yul\":4853:5128   */\n      swap3\n      swap2\n      pop\n      pop\n      jump\t// out\n        /* \"#utility.yul\":5134:5356   */\n    tag_22:\n        /* \"#utility.yul\":5227:5231   */\n      0x00\n        /* \"#utility.yul\":5265:5267   */\n      0x20\n        /* \"#utility.yul\":5254:5263   */\n      dup3\n        /* \"#utility.yul\":5250:5268   */\n      add\n        /* \"#utility.yul\":5242:5268   */\n      swap1\n      pop\n        /* \"#utility.yul\":5278:5349   */\n      tag_182\n        /* \"#utility.yul\":5346:5347   */\n      0x00\n        /* \"#utility.yul\":5335:5344   */\n      dup4\n        /* \"#utility.yul\":5331:5348   */\n      add\n        /* \"#utility.yul\":5322:5328   */\n      dup5\n        /* \"#utility.yul\":5278:5349   */\n      tag_138\n      jump\t// in\n    tag_182:\n        /* \"#utility.yul\":5134:5356   */\n      swap3\n      swap2\n      pop\n      pop\n      jump\t// out\n        /* \"#utility.yul\":5362:5596   */\n    tag_57:\n        /* \"#utility.yul\":5461:5465   */\n      0x00\n        /* \"#utility.yul\":5499:5501   */\n      0x20\n        /* \"#utility.yul\":5488:5497   */\n      dup3\n        /* \"#utility.yul\":5484:5502   */\n      add\n        /* \"#utility.yul\":5476:5502   */\n      swap1\n      pop\n        /* \"#utility.yul\":5512:5589   */\n      tag_184\n        /* \"#utility.yul\":5586:5587   */\n      0x00\n        /* \"#utility.yul\":5575:5584   */\n      dup4\n        /* \"#utility.yul\":5571:5588   */\n      add\n        /* \"#utility.yul\":5562:5568   */\n      dup5\n        /* \"#utility.yul\":5512:5589   */\n      tag_142\n      jump\t// in\n    tag_184:\n        /* \"#utility.yul\":5362:5596   */\n      swap3\n      swap2\n      pop\n      pop\n      jump\t// out\n        /* \"#utility.yul\":5602:6021   */\n    tag_70:\n        /* \"#utility.yul\":5768:5772   */\n      0x00\n        /* \"#utility.yul\":5806:5808   */\n      0x20\n        /* \"#utility.yul\":5795:5804   */\n      dup3\n        /* \"#utility.yul\":5791:5809   */\n      add\n        /* \"#utility.yul\":5783:5809   */\n      swap1\n      pop\n        /* \"#utility.yul\":5855:5864   */\n      dup2\n        /* \"#utility.yul\":5849:5853   */\n      dup2\n        /* \"#utility.yul\":5845:5865   */\n      sub\n        /* \"#utility.yul\":5841:5842   */\n      0x00\n        /* \"#utility.yul\":5830:5839   */\n      dup4\n        /* \"#utility.yul\":5826:5843   */\n      add\n        /* \"#utility.yul\":5819:5866   */\n      mstore\n        /* \"#utility.yul\":5883:6014   */\n      tag_186\n        /* \"#utility.yul\":6009:6013   */\n      dup2\n        /* \"#utility.yul\":5883:6014   */\n      tag_154\n      jump\t// in\n    tag_186:\n        /* \"#utility.yul\":5875:6014   */\n      swap1\n      pop\n        /* \"#utility.yul\":5602:6021   */\n      swap2\n      swap1\n      pop\n      jump\t// out\n        /* \"#utility.yul\":6027:6446   */\n    tag_48:\n        /* \"#utility.yul\":6193:6197   */\n      0x00\n        /* \"#utility.yul\":6231:6233   */\n      0x20\n        /* \"#utility.yul\":6220:6229   */\n      dup3\n        /* \"#utility.yul\":6216:6234   */\n      add\n        /* \"#utility.yul\":6208:6234   */\n      swap1\n      pop\n        /* \"#utility.yul\":6280:6289   */\n      dup2\n        /* \"#utility.yul\":6274:6278   */\n      dup2\n        /* \"#utility.yul\":6270:6290   */\n      sub\n        /* \"#utility.yul\":6266:6267   */\n      0x00\n        /* \"#utility.yul\":6255:6264   */\n      dup4\n        /* \"#utility.yul\":6251:6268   */\n      add\n        /* \"#utility.yul\":6244:6291   */\n      mstore\n        /* \"#utility.yul\":6308:6439   */\n      tag_188\n        /* \"#utility.yul\":6434:6438   */\n      dup2\n        /* \"#utility.yul\":6308:6439   */\n      tag_160\n      jump\t// in\n    tag_188:\n        /* \"#utility.yul\":6300:6439   */\n      swap1\n      pop\n        /* \"#utility.yul\":6027:6446   */\n      swap2\n      swap1\n      pop\n      jump\t// out\n        /* \"#utility.yul\":6452:6871   */\n    tag_78:\n        /* \"#utility.yul\":6618:6622   */\n      0x00\n        /* \"#utility.yul\":6656:6658   */\n      0x20\n        /* \"#utility.yul\":6645:6654   */\n      dup3\n        /* \"#utility.yul\":6641:6659   */\n      add\n        /* \"#utility.yul\":6633:6659   */\n      swap1\n      pop\n        /* \"#utility.yul\":6705:6714   */\n      dup2\n        /* \"#utility.yul\":6699:6703   */\n      dup2\n        /* \"#utility.yul\":6695:6715   */\n      sub\n        /* \"#utility.yul\":6691:6692   */\n      0x00\n        /* \"#utility.yul\":6680:6689   */\n      dup4\n        /* \"#utility.yul\":6676:6693   */\n      add\n        /* \"#utility.yul\":6669:6716   */\n      mstore\n        /* \"#utility.yul\":6733:6864   */\n      tag_190\n        /* \"#utility.yul\":6859:6863   */\n      dup2\n        /* \"#utility.yul\":6733:6864   */\n      tag_165\n      jump\t// in\n    tag_190:\n        /* \"#utility.yul\":6725:6864   */\n      swap1\n      pop\n        /* \"#utility.yul\":6452:6871   */\n      swap2\n      swap1\n      pop\n      jump\t// out\n        /* \"#utility.yul\":6877:7296   */\n    tag_84:\n        /* \"#utility.yul\":7043:7047   */\n      0x00\n        /* \"#utility.yul\":7081:7083   */\n      0x20\n        /* \"#utility.yul\":7070:7079   */\n      dup3\n        /* \"#utility.yul\":7066:7084   */\n      add\n        /* \"#utility.yul\":7058:7084   */\n      swap1\n      pop\n        /* \"#utility.yul\":7130:7139   */\n      dup2\n        /* \"#utility.yul\":7124:7128   */\n      dup2\n        /* \"#utility.yul\":7120:7140   */\n      sub\n        /* \"#utility.yul\":7116:7117   */\n      0x00\n        /* \"#utility.yul\":7105:7114   */\n      dup4\n        /* \"#utility.yul\":7101:7118   */\n      add\n        /* \"#utility.yul\":7094:7141   */\n      mstore\n        /* \"#utility.yul\":7158:7289   */\n      tag_192\n        /* \"#utility.yul\":7284:7288   */\n      dup2\n        /* \"#utility.yul\":7158:7289   */\n      tag_170\n      jump\t// in\n    tag_192:\n        /* \"#utility.yul\":7150:7289   */\n      swap1\n      pop\n        /* \"#utility.yul\":6877:7296   */\n      swap2\n      swap1\n      pop\n      jump\t// out\n        /* \"#utility.yul\":7302:7524   */\n    tag_14:\n        /* \"#utility.yul\":7395:7399   */\n      0x00\n        /* \"#utility.yul\":7433:7435   */\n      0x20\n        /* \"#utility.yul\":7422:7431   */\n      dup3\n        /* \"#utility.yul\":7418:7436   */\n      add\n        /* \"#utility.yul\":7410:7436   */\n      swap1\n      pop\n        /* \"#utility.yul\":7446:7517   */\n      tag_194\n        /* \"#utility.yul\":7514:7515   */\n      0x00\n        /* \"#utility.yul\":7503:7512   */\n      dup4\n        /* \"#utility.yul\":7499:7516   */\n      add\n        /* \"#utility.yul\":7490:7496   */\n      dup5\n        /* \"#utility.yul\":7446:7517   */\n      tag_175\n      jump\t// in\n    tag_194:\n        /* \"#utility.yul\":7302:7524   */\n      swap3\n      swap2\n      pop\n      pop\n      jump\t// out\n        /* \"#utility.yul\":7530:7659   */\n    tag_99:\n        /* \"#utility.yul\":7564:7570   */\n      0x00\n        /* \"#utility.yul\":7591:7611   */\n      tag_196\n      tag_197\n      jump\t// in\n    tag_196:\n        /* \"#utility.yul\":7581:7611   */\n      swap1\n      pop\n        /* \"#utility.yul\":7620:7653   */\n      tag_198\n        /* \"#utility.yul\":7648:7652   */\n      dup3\n        /* \"#utility.yul\":7640:7646   */\n      dup3\n        /* \"#utility.yul\":7620:7653   */\n      tag_199\n      jump\t// in\n    tag_198:\n        /* \"#utility.yul\":7530:7659   */\n      swap2\n      swap1\n      pop\n      jump\t// out\n        /* \"#utility.yul\":7665:7740   */\n    tag_197:\n        /* \"#utility.yul\":7698:7704   */\n      0x00\n        /* \"#utility.yul\":7731:7733   */\n      0x40\n        /* \"#utility.yul\":7725:7734   */\n      mload\n        /* \"#utility.yul\":7715:7734   */\n      swap1\n      pop\n        /* \"#utility.yul\":7665:7740   */\n      swap1\n      jump\t// out\n        /* \"#utility.yul\":7746:8054   */\n    tag_98:\n        /* \"#utility.yul\":7808:7812   */\n      0x00\n        /* \"#utility.yul\":7898:7916   */\n      0xffffffffffffffff\n        /* \"#utility.yul\":7890:7896   */\n      dup3\n        /* \"#utility.yul\":7887:7917   */\n      gt\n        /* \"#utility.yul\":7884:7940   */\n      iszero\n      tag_202\n      jumpi\n        /* \"#utility.yul\":7920:7938   */\n      tag_203\n      tag_204\n      jump\t// in\n    tag_203:\n        /* \"#utility.yul\":7884:7940   */\n    tag_202:\n        /* \"#utility.yul\":7958:7987   */\n      tag_205\n        /* \"#utility.yul\":7980:7986   */\n      dup3\n        /* \"#utility.yul\":7958:7987   */\n      tag_206\n      jump\t// in\n    tag_205:\n        /* \"#utility.yul\":7950:7987   */\n      swap1\n      pop\n        /* \"#utility.yul\":8042:8046   */\n      0x20\n        /* \"#utility.yul\":8036:8040   */\n      dup2\n        /* \"#utility.yul\":8032:8047   */\n      add\n        /* \"#utility.yul\":8024:8047   */\n      swap1\n      pop\n        /* \"#utility.yul\":7746:8054   */\n      swap2\n      swap1\n      pop\n      jump\t// out\n        /* \"#utility.yul\":8060:8159   */\n    tag_149:\n        /* \"#utility.yul\":8112:8118   */\n      0x00\n        /* \"#utility.yul\":8146:8151   */\n      dup2\n        /* \"#utility.yul\":8140:8152   */\n      mload\n        /* \"#utility.yul\":8130:8152   */\n      swap1\n      pop\n        /* \"#utility.yul\":8060:8159   */\n      swap2\n      swap1\n      pop\n      jump\t// out\n        /* \"#utility.yul\":8165:8334   */\n    tag_157:\n        /* \"#utility.yul\":8249:8260   */\n      0x00\n        /* \"#utility.yul\":8283:8289   */\n      dup3\n        /* \"#utility.yul\":8278:8281   */\n      dup3\n        /* \"#utility.yul\":8271:8290   */\n      mstore\n        /* \"#utility.yul\":8323:8327   */\n      0x20\n        /* \"#utility.yul\":8318:8321   */\n      dup3\n        /* \"#utility.yul\":8314:8328   */\n      add\n        /* \"#utility.yul\":8299:8328   */\n      swap1\n      pop\n        /* \"#utility.yul\":8165:8334   */\n      swap3\n      swap2\n      pop\n      pop\n      jump\t// out\n        /* \"#utility.yul\":8340:8488   */\n    tag_151:\n        /* \"#utility.yul\":8442:8453   */\n      0x00\n        /* \"#utility.yul\":8479:8482   */\n      dup2\n        /* \"#utility.yul\":8464:8482   */\n      swap1\n      pop\n        /* \"#utility.yul\":8340:8488   */\n      swap3\n      swap2\n      pop\n      pop\n      jump\t// out\n        /* \"#utility.yul\":8494:8590   */\n    tag_141:\n        /* \"#utility.yul\":8531:8538   */\n      0x00\n        /* \"#utility.yul\":8560:8584   */\n      tag_211\n        /* \"#utility.yul\":8578:8583   */\n      dup3\n        /* \"#utility.yul\":8560:8584   */\n      tag_212\n      jump\t// in\n    tag_211:\n        /* \"#utility.yul\":8549:8584   */\n      swap1\n      pop\n        /* \"#utility.yul\":8494:8590   */\n      swap2\n      swap1\n      pop\n      jump\t// out\n        /* \"#utility.yul\":8596:8722   */\n    tag_212:\n        /* \"#utility.yul\":8633:8640   */\n      0x00\n        /* \"#utility.yul\":8673:8715   */\n      0xffffffffffffffffffffffffffffffffffffffff\n        /* \"#utility.yul\":8666:8671   */\n      dup3\n        /* \"#utility.yul\":8662:8716   */\n      and\n        /* \"#utility.yul\":8651:8716   */\n      swap1\n      pop\n        /* \"#utility.yul\":8596:8722   */\n      swap2\n      swap1\n      pop\n      jump\t// out\n        /* \"#utility.yul\":8728:8805   */\n    tag_178:\n        /* \"#utility.yul\":8765:8772   */\n      0x00\n        /* \"#utility.yul\":8794:8799   */\n      dup2\n        /* \"#utility.yul\":8783:8799   */\n      swap1\n      pop\n        /* \"#utility.yul\":8728:8805   */\n      swap2\n      swap1\n      pop\n      jump\t// out\n        /* \"#utility.yul\":8811:8897   */\n    tag_215:\n        /* \"#utility.yul\":8846:8853   */\n      0x00\n        /* \"#utility.yul\":8886:8890   */\n      0xff\n        /* \"#utility.yul\":8879:8884   */\n      dup3\n        /* \"#utility.yul\":8875:8891   */\n      and\n        /* \"#utility.yul\":8864:8891   */\n      swap1\n      pop\n        /* \"#utility.yul\":8811:8897   */\n      swap2\n      swap1\n      pop\n      jump\t// out\n        /* \"#utility.yul\":8903:9020   */\n    tag_145:\n        /* \"#utility.yul\":8959:8968   */\n      0x00\n        /* \"#utility.yul\":8992:9014   */\n      tag_218\n        /* \"#utility.yul\":9008:9013   */\n      dup3\n        /* \"#utility.yul\":8992:9014   */\n      tag_215\n      jump\t// in\n    tag_218:\n        /* \"#utility.yul\":8979:9014   */\n      swap1\n      pop\n        /* \"#utility.yul\":8903:9020   */\n      swap2\n      swap1\n      pop\n      jump\t// out\n        /* \"#utility.yul\":9026:9180   */\n    tag_104:\n        /* \"#utility.yul\":9110:9116   */\n      dup3\n        /* \"#utility.yul\":9105:9108   */\n      dup2\n        /* \"#utility.yul\":9100:9103   */\n      dup4\n        /* \"#utility.yul\":9087:9117   */\n      calldatacopy\n        /* \"#utility.yul\":9172:9173   */\n      0x00\n        /* \"#utility.yul\":9163:9169   */\n      dup4\n        /* \"#utility.yul\":9158:9161   */\n      dup4\n        /* \"#utility.yul\":9154:9170   */\n      add\n        /* \"#utility.yul\":9147:9174   */\n      mstore\n        /* \"#utility.yul\":9026:9180   */\n      pop\n      pop\n      pop\n      jump\t// out\n        /* \"#utility.yul\":9186:9493   */\n    tag_153:\n        /* \"#utility.yul\":9254:9255   */\n      0x00\n        /* \"#utility.yul\":9264:9377   */\n    tag_221:\n        /* \"#utility.yul\":9278:9284   */\n      dup4\n        /* \"#utility.yul\":9275:9276   */\n      dup2\n        /* \"#utility.yul\":9272:9285   */\n      lt\n        /* \"#utility.yul\":9264:9377   */\n      iszero\n      tag_223\n      jumpi\n        /* \"#utility.yul\":9363:9364   */\n      dup1\n        /* \"#utility.yul\":9358:9361   */\n      dup3\n        /* \"#utility.yul\":9354:9365   */\n      add\n        /* \"#utility.yul\":9348:9366   */\n      mload\n        /* \"#utility.yul\":9344:9345   */\n      dup2\n        /* \"#utility.yul\":9339:9342   */\n      dup5\n        /* \"#utility.yul\":9335:9346   */\n      add\n        /* \"#utility.yul\":9328:9367   */\n      mstore\n        /* \"#utility.yul\":9300:9302   */\n      0x20\n        /* \"#utility.yul\":9297:9298   */\n      dup2\n        /* \"#utility.yul\":9293:9303   */\n      add\n        /* \"#utility.yul\":9288:9303   */\n      swap1\n      pop\n        /* \"#utility.yul\":9264:9377   */\n      jump(tag_221)\n    tag_223:\n        /* \"#utility.yul\":9395:9401   */\n      dup4\n        /* \"#utility.yul\":9392:9393   */\n      dup2\n        /* \"#utility.yul\":9389:9402   */\n      gt\n        /* \"#utility.yul\":9386:9487   */\n      iszero\n      tag_224\n      jumpi\n        /* \"#utility.yul\":9475:9476   */\n      0x00\n        /* \"#utility.yul\":9466:9472   */\n      dup5\n        /* \"#utility.yul\":9461:9464   */\n      dup5\n        /* \"#utility.yul\":9457:9473   */\n      add\n        /* \"#utility.yul\":9450:9477   */\n      mstore\n        /* \"#utility.yul\":9386:9487   */\n    tag_224:\n        /* \"#utility.yul\":9235:9493   */\n      pop\n        /* \"#utility.yul\":9186:9493   */\n      pop\n      pop\n      pop\n      jump\t// out\n        /* \"#utility.yul\":9499:9780   */\n    tag_199:\n        /* \"#utility.yul\":9582:9609   */\n      tag_226\n        /* \"#utility.yul\":9604:9608   */\n      dup3\n        /* \"#utility.yul\":9582:9609   */\n      tag_206\n      jump\t// in\n    tag_226:\n        /* \"#utility.yul\":9574:9580   */\n      dup2\n        /* \"#utility.yul\":9570:9610   */\n      add\n        /* \"#utility.yul\":9712:9718   */\n      dup2\n        /* \"#utility.yul\":9700:9710   */\n      dup2\n        /* \"#utility.yul\":9697:9719   */\n      lt\n        /* \"#utility.yul\":9676:9694   */\n      0xffffffffffffffff\n        /* \"#utility.yul\":9664:9674   */\n      dup3\n        /* \"#utility.yul\":9661:9695   */\n      gt\n        /* \"#utility.yul\":9658:9720   */\n      or\n        /* \"#utility.yul\":9655:9743   */\n      iszero\n      tag_227\n      jumpi\n        /* \"#utility.yul\":9723:9741   */\n      tag_228\n      tag_204\n      jump\t// in\n    tag_228:\n        /* \"#utility.yul\":9655:9743   */\n    tag_227:\n        /* \"#utility.yul\":9763:9773   */\n      dup1\n        /* \"#utility.yul\":9759:9761   */\n      0x40\n        /* \"#utility.yul\":9752:9774   */\n      mstore\n        /* \"#utility.yul\":9542:9780   */\n      pop\n        /* \"#utility.yul\":9499:9780   */\n      pop\n      pop\n      jump\t// out\n        /* \"#utility.yul\":9786:9966   */\n    tag_204:\n        /* \"#utility.yul\":9834:9911   */\n      0x4e487b7100000000000000000000000000000000000000000000000000000000\n        /* \"#utility.yul\":9831:9832   */\n      0x00\n        /* \"#utility.yul\":9824:9912   */\n      mstore\n        /* \"#utility.yul\":9931:9935   */\n      0x41\n        /* \"#utility.yul\":9928:9929   */\n      0x04\n        /* \"#utility.yul\":9921:9936   */\n      mstore\n        /* \"#utility.yul\":9955:9959   */\n      0x24\n        /* \"#utility.yul\":9952:9953   */\n      0x00\n        /* \"#utility.yul\":9945:9960   */\n      revert\n        /* \"#utility.yul\":9972:10089   */\n    tag_113:\n        /* \"#utility.yul\":10081:10082   */\n      0x00\n        /* \"#utility.yul\":10078:10079   */\n      dup1\n        /* \"#utility.yul\":10071:10083   */\n      revert\n        /* \"#utility.yul\":10095:10212   */\n    tag_102:\n        /* \"#utility.yul\":10204:10205   */\n      0x00\n        /* \"#utility.yul\":10201:10202   */\n      dup1\n        /* \"#utility.yul\":10194:10206   */\n      revert\n        /* \"#utility.yul\":10218:10335   */\n    tag_129:\n        /* \"#utility.yul\":10327:10328   */\n      0x00\n        /* \"#utility.yul\":10324:10325   */\n      dup1\n        /* \"#utility.yul\":10317:10329   */\n      revert\n        /* \"#utility.yul\":10341:10458   */\n    tag_122:\n        /* \"#utility.yul\":10450:10451   */\n      0x00\n        /* \"#utility.yul\":10447:10448   */\n      dup1\n        /* \"#utility.yul\":10440:10452   */\n      revert\n        /* \"#utility.yul\":10464:10566   */\n    tag_206:\n        /* \"#utility.yul\":10505:10511   */\n      0x00\n        /* \"#utility.yul\":10556:10558   */\n      0x1f\n        /* \"#utility.yul\":10552:10559   */\n      not\n        /* \"#utility.yul\":10547:10549   */\n      0x1f\n        /* \"#utility.yul\":10540:10545   */\n      dup4\n        /* \"#utility.yul\":10536:10550   */\n      add\n        /* \"#utility.yul\":10532:10560   */\n      and\n        /* \"#utility.yul\":10522:10560   */\n      swap1\n      pop\n        /* \"#utility.yul\":10464:10566   */\n      swap2\n      swap1\n      pop\n      jump\t// out\n        /* \"#utility.yul\":10572:10797   */\n    tag_159:\n        /* \"#utility.yul\":10712:10746   */\n      0x4f776e61626c653a206e6577206f776e657220697320746865207a65726f2061\n        /* \"#utility.yul\":10708:10709   */\n      0x00\n        /* \"#utility.yul\":10700:10706   */\n      dup3\n        /* \"#utility.yul\":10696:10710   */\n      add\n        /* \"#utility.yul\":10689:10747   */\n      mstore\n        /* \"#utility.yul\":10781:10789   */\n      0x6464726573730000000000000000000000000000000000000000000000000000\n        /* \"#utility.yul\":10776:10778   */\n      0x20\n        /* \"#utility.yul\":10768:10774   */\n      dup3\n        /* \"#utility.yul\":10764:10779   */\n      add\n        /* \"#utility.yul\":10757:10790   */\n      mstore\n        /* \"#utility.yul\":10572:10797   */\n      pop\n      jump\t// out\n        /* \"#utility.yul\":10803:11036   */\n    tag_164:\n        /* \"#utility.yul\":10943:10977   */\n      0x496e697469616c697a61626c653a20636f6e747261637420697320616c726561\n        /* \"#utility.yul\":10939:10940   */\n      0x00\n        /* \"#utility.yul\":10931:10937   */\n      dup3\n        /* \"#utility.yul\":10927:10941   */\n      add\n        /* \"#utility.yul\":10920:10978   */\n      mstore\n        /* \"#utility.yul\":11012:11028   */\n      0x647920696e697469616c697a6564000000000000000000000000000000000000\n        /* \"#utility.yul\":11007:11009   */\n      0x20\n        /* \"#utility.yul\":10999:11005   */\n      dup3\n        /* \"#utility.yul\":10995:11010   */\n      add\n        /* \"#utility.yul\":10988:11029   */\n      mstore\n        /* \"#utility.yul\":10803:11036   */\n      pop\n      jump\t// out\n        /* \"#utility.yul\":11042:11224   */\n    tag_169:\n        /* \"#utility.yul\":11182:11216   */\n      0x4f776e61626c653a2063616c6c6572206973206e6f7420746865206f776e6572\n        /* \"#utility.yul\":11178:11179   */\n      0x00\n        /* \"#utility.yul\":11170:11176   */\n      dup3\n        /* \"#utility.yul\":11166:11180   */\n      add\n        /* \"#utility.yul\":11159:11217   */\n      mstore\n        /* \"#utility.yul\":11042:11224   */\n      pop\n      jump\t// out\n        /* \"#utility.yul\":11230:11460   */\n    tag_174:\n        /* \"#utility.yul\":11370:11404   */\n      0x496e697469616c697a61626c653a20636f6e7472616374206973206e6f742069\n        /* \"#utility.yul\":11366:11367   */\n      0x00\n        /* \"#utility.yul\":11358:11364   */\n      dup3\n        /* \"#utility.yul\":11354:11368   */\n      add\n        /* \"#utility.yul\":11347:11405   */\n      mstore\n        /* \"#utility.yul\":11439:11452   */\n      0x6e697469616c697a696e67000000000000000000000000000000000000000000\n        /* \"#utility.yul\":11434:11436   */\n      0x20\n        /* \"#utility.yul\":11426:11432   */\n      dup3\n        /* \"#utility.yul\":11422:11437   */\n      add\n        /* \"#utility.yul\":11415:11453   */\n      mstore\n        /* \"#utility.yul\":11230:11460   */\n      pop\n      jump\t// out\n        /* \"#utility.yul\":11466:11588   */\n    tag_108:\n        /* \"#utility.yul\":11539:11563   */\n      tag_240\n        /* \"#utility.yul\":11557:11562   */\n      dup2\n        /* \"#utility.yul\":11539:11563   */\n      tag_141\n      jump\t// in\n    tag_240:\n        /* \"#utility.yul\":11532:11537   */\n      dup2\n        /* \"#utility.yul\":11529:11564   */\n      eq\n        /* \"#utility.yul\":11519:11582   */\n      tag_241\n      jumpi\n        /* \"#utility.yul\":11578:11579   */\n      0x00\n        /* \"#utility.yul\":11575:11576   */\n      dup1\n        /* \"#utility.yul\":11568:11580   */\n      revert\n        /* \"#utility.yul\":11519:11582   */\n    tag_241:\n        /* \"#utility.yul\":11466:11588   */\n      pop\n      jump\t// out\n        /* \"#utility.yul\":11594:11716   */\n    tag_118:\n        /* \"#utility.yul\":11667:11691   */\n      tag_243\n        /* \"#utility.yul\":11685:11690   */\n      dup2\n        /* \"#utility.yul\":11667:11691   */\n      tag_178\n      jump\t// in\n    tag_243:\n        /* \"#utility.yul\":11660:11665   */\n      dup2\n        /* \"#utility.yul\":11657:11692   */\n      eq\n        /* \"#utility.yul\":11647:11710   */\n      tag_244\n      jumpi\n        /* \"#utility.yul\":11706:11707   */\n      0x00\n        /* \"#utility.yul\":11703:11704   */\n      dup1\n        /* \"#utility.yul\":11696:11708   */\n      revert\n        /* \"#utility.yul\":11647:11710   */\n    tag_244:\n        /* \"#utility.yul\":11594:11716   */\n      pop\n      jump\t// out\n\n    auxdata: 0xa2646970667358221220b68f3ad34e638d545661b9ea2baffedebd657908744de88c2088b09869dc491e64736f6c63430008070033\n}\n",
				"bytecode": {
					"linkReferences": {},
					"object": "608060405234801561001057600080fd5b50610c25806100206000396000f3fe608060405234801561001057600080fd5b50600436106100625760003560e01c80634e678e8014610067578063715018a6146100975780638129fc1c146100a15780638da5cb5b146100ab578063cd4fe8cd146100c9578063f2fde38b146100e5575b600080fd5b610081600480360381019061007c9190610695565b610101565b60405161008e91906108f1565b60405180910390f35b61009f610129565b005b6100a961013d565b005b6100b3610283565b6040516100c0919061083b565b60405180910390f35b6100e360048036038101906100de91906106de565b6102ad565b005b6100ff60048036038101906100fa9190610668565b610329565b005b60006065826040516101139190610824565b9081526020016040518091039020549050919050565b6101316103ad565b61013b600061042b565b565b60008060019054906101000a900460ff1615905080801561016e5750600160008054906101000a900460ff1660ff16105b8061019b575061017d306104f1565b15801561019a5750600160008054906101000a900460ff1660ff16145b5b6101da576040517f08c379a00000000000000000000000000000000000000000000000000000000081526004016101d190610891565b60405180910390fd5b60016000806101000a81548160ff021916908360ff1602179055508015610217576001600060016101000a81548160ff0219169083151502179055505b61021f610514565b610227610565565b80156102805760008060016101000a81548160ff0219169083151502179055507f7f26b83ff96e1f2b6a682f133852f6798a09c465da95921460cefb384740249860016040516102779190610856565b60405180910390a15b50565b6000603360009054906101000a900473ffffffffffffffffffffffffffffffffffffffff16905090565b6102b56103ad565b806065836040516102c69190610824565b908152602001604051809103902081905550816040516102e69190610824565b60405180910390207ffb95a454fb88a8138042f1b612100fff4b0a6159ea05e9b136eb293075809edf8260405161031d91906108f1565b60405180910390a25050565b6103316103ad565b600073ffffffffffffffffffffffffffffffffffffffff168173ffffffffffffffffffffffffffffffffffffffff1614156103a1576040517f08c379a000000000000000000000000000000000000000000000000000000000815260040161039890610871565b60405180910390fd5b6103aa8161042b565b50565b6103b56105c6565b73ffffffffffffffffffffffffffffffffffffffff166103d3610283565b73ffffffffffffffffffffffffffffffffffffffff1614610429576040517f08c379a0000000000000000000000000000000000000000000000000000000008152600401610420906108b1565b60405180910390fd5b565b6000603360009054906101000a900473ffffffffffffffffffffffffffffffffffffffff16905081603360006101000a81548173ffffffffffffffffffffffffffffffffffffffff021916908373ffffffffffffffffffffffffffffffffffffffff1602179055508173ffffffffffffffffffffffffffffffffffffffff168173ffffffffffffffffffffffffffffffffffffffff167f8be0079c531659141344cd1fd0a4f28419497f9722a3daafe3b4186f6b6457e060405160405180910390a35050565b6000808273ffffffffffffffffffffffffffffffffffffffff163b119050919050565b600060019054906101000a900460ff16610563576040517f08c379a000000000000000000000000000000000000000000000000000000000815260040161055a906108d1565b60405180910390fd5b565b600060019054906101000a900460ff166105b4576040517f08c379a00000000000000000000000000000000000000000000000000000000081526004016105ab906108d1565b60405180910390fd5b6105c46105bf6105c6565b61042b565b565b600033905090565b60006105e16105dc84610931565b61090c565b9050828152602081018484840111156105fd576105fc610a8b565b5b6106088482856109e4565b509392505050565b60008135905061061f81610bc1565b92915050565b600082601f83011261063a57610639610a86565b5b813561064a8482602086016105ce565b91505092915050565b60008135905061066281610bd8565b92915050565b60006020828403121561067e5761067d610a95565b5b600061068c84828501610610565b91505092915050565b6000602082840312156106ab576106aa610a95565b5b600082013567ffffffffffffffff8111156106c9576106c8610a90565b5b6106d584828501610625565b91505092915050565b600080604083850312156106f5576106f4610a95565b5b600083013567ffffffffffffffff81111561071357610712610a90565b5b61071f85828601610625565b925050602061073085828601610653565b9150509250929050565b61074381610989565b82525050565b610752816109d2565b82525050565b600061076382610962565b61076d818561097e565b935061077d8185602086016109f3565b80840191505092915050565b600061079660268361096d565b91506107a182610aab565b604082019050919050565b60006107b9602e8361096d565b91506107c482610afa565b604082019050919050565b60006107dc60208361096d565b91506107e782610b49565b602082019050919050565b60006107ff602b8361096d565b915061080a82610b72565b604082019050919050565b61081e816109bb565b82525050565b60006108308284610758565b915081905092915050565b6000602082019050610850600083018461073a565b92915050565b600060208201905061086b6000830184610749565b92915050565b6000602082019050818103600083015261088a81610789565b9050919050565b600060208201905081810360008301526108aa816107ac565b9050919050565b600060208201905081810360008301526108ca816107cf565b9050919050565b600060208201905081810360008301526108ea816107f2565b9050919050565b60006020820190506109066000830184610815565b92915050565b6000610916610927565b90506109228282610a26565b919050565b6000604051905090565b600067ffffffffffffffff82111561094c5761094b610a57565b5b61095582610a9a565b9050602081019050919050565b600081519050919050565b600082825260208201905092915050565b600081905092915050565b60006109948261099b565b9050919050565b600073ffffffffffffffffffffffffffffffffffffffff82169050919050565b6000819050919050565b600060ff82169050919050565b60006109dd826109c5565b9050919050565b82818337600083830152505050565b60005b83811015610a115780820151818401526020810190506109f6565b83811115610a20576000848401525b50505050565b610a2f82610a9a565b810181811067ffffffffffffffff82111715610a4e57610a4d610a57565b5b80604052505050565b7f4e487b7100000000000000000000000000000000000000000000000000000000600052604160045260246000fd5b600080fd5b600080fd5b600080fd5b600080fd5b6000601f19601f8301169050919050565b7f4f776e61626c653a206e6577206f776e657220697320746865207a65726f206160008201527f6464726573730000000000000000000000000000000000000000000000000000602082015250565b7f496e697469616c697a61626c653a20636f6e747261637420697320616c72656160008201527f647920696e697469616c697a6564000000000000000000000000000000000000602082015250565b7f4f776e61626c653a2063616c6c6572206973206e6f7420746865206f776e6572600082015250565b7f496e697469616c697a61626c653a20636f6e7472616374206973206e6f74206960008201527f6e697469616c697a696e67000000000000000000000000000000000000000000602082015250565b610bca81610989565b8114610bd557600080fd5b50565b610be1816109bb565b8114610bec57600080fd5b5056fea2646970667358221220b68f3ad34e638d545661b9ea2baffedebd657908744de88c2088b09869dc491e64736f6c63430008070033",
					"opcodes": "PUSH1 0x80 PUSH1 0x40 MSTORE CALLVALUE DUP1 ISZERO PUSH2 0x10 JUMPI PUSH1 0x0 DUP1 REVERT JUMPDEST POP PUSH2 0xC25 DUP1 PUSH2 0x20 PUSH1 0x0 CODECOPY PUSH1 0x0 RETURN INVALID PUSH1 0x80 PUSH1 0x40 MSTORE CALLVALUE DUP1 ISZERO PUSH2 0x10 JUMPI PUSH1 0x0 DUP1 REVERT JUMPDEST POP PUSH1 0x4 CALLDATASIZE LT PUSH2 0x62 JUMPI PUSH1 0x0 CALLDATALOAD PUSH1 0xE0 SHR DUP1 PUSH4 0x4E678E80 EQ PUSH2 0x67 JUMPI DUP1 PUSH4 0x715018A6 EQ PUSH2 0x97 JUMPI DUP1 PUSH4 0x8129FC1C EQ PUSH2 0xA1 JUMPI DUP1 PUSH4 0x8DA5CB5B EQ PUSH2 0xAB JUMPI DUP1 PUSH4 0xCD4FE8CD EQ PUSH2 0xC9 JUMPI DUP1 PUSH4 0xF2FDE38B EQ PUSH2 0xE5 JUMPI JUMPDEST PUSH1 0x0 DUP1 REVERT JUMPDEST PUSH2 0x81 PUSH1 0x4 DUP1 CALLDATASIZE SUB DUP2 ADD SWAP1 PUSH2 0x7C SWAP2 SWAP1 PUSH2 0x695 JUMP JUMPDEST PUSH2 0x101 JUMP JUMPDEST PUSH1 0x40 MLOAD PUSH2 0x8E SWAP2 SWAP1 PUSH2 0x8F1 JUMP JUMPDEST PUSH1 0x40 MLOAD DUP1 SWAP2 SUB SWAP1 RETURN JUMPDEST PUSH2 0x9F PUSH2 0x129 JUMP JUMPDEST STOP JUMPDEST PUSH2 0xA9 PUSH2 0x13D JUMP JUMPDEST STOP JUMPDEST PUSH2 0xB3 PUSH2 0x283 JUMP JUMPDEST PUSH1 0x40 MLOAD PUSH2 0xC0 SWAP2 SWAP1 PUSH2 0x83B JUMP JUMPDEST PUSH1 0x40 MLOAD DUP1 SWAP2 SUB SWAP1 RETURN JUMPDEST PUSH2 0xE3 PUSH1 0x4 DUP1 CALLDATASIZE SUB DUP2 ADD SWAP1 PUSH2 0xDE SWAP2 SWAP1 PUSH2 0x6DE JUMP JUMPDEST PUSH2 0x2AD JUMP JUMPDEST STOP JUMPDEST PUSH2 0xFF PUSH1 0x4 DUP1 CALLDATASIZE SUB DUP2 ADD SWAP1 PUSH2 0xFA SWAP2 SWAP1 PUSH2 0x668 JUMP JUMPDEST PUSH2 0x329 JUMP JUMPDEST STOP JUMPDEST PUSH1 0x0 PUSH1 0x65 DUP3 PUSH1 0x40 MLOAD PUSH2 0x113 SWAP2 SWAP1 PUSH2 0x824 JUMP JUMPDEST SWAP1 DUP2 MSTORE PUSH1 0x20 ADD PUSH1 0x40 MLOAD DUP1 SWAP2 SUB SWAP1 KECCAK256 SLOAD SWAP1 POP SWAP2 SWAP1 POP JUMP JUMPDEST PUSH2 0x131 PUSH2 0x3AD JUMP JUMPDEST PUSH2 0x13B PUSH1 0x0 PUSH2 0x42B JUMP JUMPDEST JUMP JUMPDEST PUSH1 0x0 DUP1 PUSH1 0x1 SWAP1 SLOAD SWAP1 PUSH2 0x100 EXP SWAP1 DIV PUSH1 0xFF AND ISZERO SWAP1 POP DUP1 DUP1 ISZERO PUSH2 0x16E JUMPI POP PUSH1 0x1 PUSH1 0x0 DUP1 SLOAD SWAP1 PUSH2 0x100 EXP SWAP1 DIV PUSH1 0xFF AND PUSH1 0xFF AND LT JUMPDEST DUP1 PUSH2 0x19B JUMPI POP PUSH2 0x17D ADDRESS PUSH2 0x4F1 JUMP JUMPDEST ISZERO DUP1 ISZERO PUSH2 0x19A JUMPI POP PUSH1 0x1 PUSH1 0x0 DUP1 SLOAD SWAP1 PUSH2 0x100 EXP SWAP1 DIV PUSH1 0xFF AND PUSH1 0xFF AND EQ JUMPDEST JUMPDEST PUSH2 0x1DA JUMPI PUSH1 0x40 MLOAD PUSH32 0x8C379A000000000000000000000000000000000000000000000000000000000 DUP2 MSTORE PUSH1 0x4 ADD PUSH2 0x1D1 SWAP1 PUSH2 0x891 JUMP JUMPDEST PUSH1 0x40 MLOAD DUP1 SWAP2 SUB SWAP1 REVERT JUMPDEST PUSH1 0x1 PUSH1 0x0 DUP1 PUSH2 0x100 EXP DUP2 SLOAD DUP2 PUSH1 0xFF MUL NOT AND SWAP1 DUP4 PUSH1 0xFF AND MUL OR SWAP1 SSTORE POP DUP1 ISZERO PUSH2 0x217 JUMPI PUSH1 0x1 PUSH1 0x0 PUSH1 0x1 PUSH2 0x100 EXP DUP2 SLOAD DUP2 PUSH1 0xFF MUL NOT AND SWAP1 DUP4 ISZERO ISZERO MUL OR SWAP1 SSTORE POP JUMPDEST PUSH2 0x21F PUSH2 0x514 JUMP JUMPDEST PUSH2 0x227 PUSH2 0x565 JUMP JUMPDEST DUP1 ISZERO PUSH2 0x280 JUMPI PUSH1 0x0 DUP1 PUSH1 0x1 PUSH2 0x100 EXP DUP2 SLOAD DUP2 PUSH1 0xFF MUL NOT AND SWAP1 DUP4 ISZERO ISZERO MUL OR SWAP1 SSTORE POP PUSH32 0x7F26B83FF96E1F2B6A682F133852F6798A09C465DA95921460CEFB3847402498 PUSH1 0x1 PUSH1 0x40 MLOAD PUSH2 0x277 SWAP2 SWAP1 PUSH2 0x856 JUMP JUMPDEST PUSH1 0x40 MLOAD DUP1 SWAP2 SUB SWAP1 LOG1 JUMPDEST POP JUMP JUMPDEST PUSH1 0x0 PUSH1 0x33 PUSH1 0x0 SWAP1 SLOAD SWAP1 PUSH2 0x100 EXP SWAP1 DIV PUSH20 0xFFFFFFFFFFFFFFFFFFFFFFFFFFFFFFFFFFFFFFFF AND SWAP1 POP SWAP1 JUMP JUMPDEST PUSH2 0x2B5 PUSH2 0x3AD JUMP JUMPDEST DUP1 PUSH1 0x65 DUP4 PUSH1 0x40 MLOAD PUSH2 0x2C6 SWAP2 SWAP1 PUSH2 0x824 JUMP JUMPDEST SWAP1 DUP2 MSTORE PUSH1 0x20 ADD PUSH1 0x40 MLOAD DUP1 SWAP2 SUB SWAP1 KECCAK256 DUP2 SWAP1 SSTORE POP DUP2 PUSH1 0x40 MLOAD PUSH2 0x2E6 SWAP2 SWAP1 PUSH2 0x824 JUMP JUMPDEST PUSH1 0x40 MLOAD DUP1 SWAP2 SUB SWAP1 KECCAK256 PUSH32 0xFB95A454FB88A8138042F1B612100FFF4B0A6159EA05E9B136EB293075809EDF DUP3 PUSH1 0x40 MLOAD PUSH2 0x31D SWAP2 SWAP1 PUSH2 0x8F1 JUMP JUMPDEST PUSH1 0x40 MLOAD DUP1 SWAP2 SUB SWAP1 LOG2 POP POP JUMP JUMPDEST PUSH2 0x331 PUSH2 0x3AD JUMP JUMPDEST PUSH1 0x0 PUSH20 0xFFFFFFFFFFFFFFFFFFFFFFFFFFFFFFFFFFFFFFFF AND DUP2 PUSH20 0xFFFFFFFFFFFFFFFFFFFFFFFFFFFFFFFFFFFFFFFF AND EQ ISZERO PUSH2 0x3A1 JUMPI PUSH1 0x40 MLOAD PUSH32 0x8C379A000000000000000000000000000000000000000000000000000000000 DUP2 MSTORE PUSH1 0x4 ADD PUSH2 0x398 SWAP1 PUSH2 0x871 JUMP JUMPDEST PUSH1 0x40 MLOAD DUP1 SWAP2 SUB SWAP1 REVERT JUMPDEST PUSH2 0x3AA DUP2 PUSH2 0x42B JUMP JUMPDEST POP JUMP JUMPDEST PUSH2 0x3B5 PUSH2 0x5C6 JUMP JUMPDEST PUSH20 0xFFFFFFFFFFFFFFFFFFFFFFFFFFFFFFFFFFFFFFFF AND PUSH2 0x3D3 PUSH2 0x283 JUMP JUMPDEST PUSH20 0xFFFFFFFFFFFFFFFFFFFFFFFFFFFFFFFFFFFFFFFF AND EQ PUSH2 0x429 JUMPI PUSH1 0x40 MLOAD PUSH32 0x8C379A000000000000000000000000000000000000000000000000000000000 DUP2 MSTORE PUSH1 0x4 ADD PUSH2 0x420 SWAP1 PUSH2 0x8B1 JUMP JUMPDEST PUSH1 0x40 MLOAD DUP1 SWAP2 SUB SWAP1 REVERT JUMPDEST JUMP JUMPDEST PUSH1 0x0 PUSH1 0x33 PUSH1 0x0 SWAP1 SLOAD SWAP1 PUSH2 0x100 EXP SWAP1 DIV PUSH20 0xFFFFFFFFFFFFFFFFFFFFFFFFFFFFFFFFFFFFFFFF AND SWAP1 POP DUP2 PUSH1 0x33 PUSH1 0x0 PUSH2 0x100 EXP DUP2 SLOAD DUP2 PUSH20 0xFFFFFFFFFFFFFFFFFFFFFFFFFFFFFFFFFFFFFFFF MUL NOT AND SWAP1 DUP4 PUSH20 0xFFFFFFFFFFFFFFFFFFFFFFFFFFFFFFFFFFFFFFFF AND MUL OR SWAP1 SSTORE POP DUP2 PUSH20 0xFFFFFFFFFFFFFFFFFFFFFFFFFFFFFFFFFFFFFFFF AND DUP2 PUSH20 0xFFFFFFFFFFFFFFFFFFFFFFFFFFFFFFFFFFFFFFFF AND PUSH32 0x8BE0079C531659141344CD1FD0A4F28419497F9722A3DAAFE3B4186F6B6457E0 PUSH1 0x40 MLOAD PUSH1 0x40 MLOAD DUP1 SWAP2 SUB SWAP1 LOG3 POP POP JUMP JUMPDEST PUSH1 0x0 DUP1 DUP3 PUSH20 0xFFFFFFFFFFFFFFFFFFFFFFFFFFFFFFFFFFFFFFFF AND EXTCODESIZE GT SWAP1 POP SWAP2 SWAP1 POP JUMP JUMPDEST PUSH1 0x0 PUSH1 0x1 SWAP1 SLOAD SWAP1 PUSH2 0x100 EXP SWAP1 DIV PUSH1 0xFF AND PUSH2 0x563 JUMPI PUSH1 0x40 MLOAD PUSH32 0x8C379A000000000000000000000000000000000000000000000000000000000 DUP2 MSTORE PUSH1 0x4 ADD PUSH2 0x55A SWAP1 PUSH2 0x8D1 JUMP JUMPDEST PUSH1 0x40 MLOAD DUP1 SWAP2 SUB SWAP1 REVERT JUMPDEST JUMP JUMPDEST PUSH1 0x0 PUSH1 0x1 SWAP1 SLOAD SWAP1 PUSH2 0x100 EXP SWAP1 DIV PUSH1 0xFF AND PUSH2 0x5B4 JUMPI PUSH1 0x40 MLOAD PUSH32 0x8C379A000000000000000000000000000000000000000000000000000000000 DUP2 MSTORE PUSH1 0x4 ADD PUSH2 0x5AB SWAP1 PUSH2 0x8D1 JUMP JUMPDEST PUSH1 0x40 MLOAD DUP1 SWAP2 SUB SWAP1 REVERT JUMPDEST PUSH2 0x5C4 PUSH2 0x5BF PUSH2 0x5C6 JUMP JUMPDEST PUSH2 0x42B JUMP JUMPDEST JUMP JUMPDEST PUSH1 0x0 CALLER SWAP1 POP SWAP1 JUMP JUMPDEST PUSH1 0x0 PUSH2 0x5E1 PUSH2 0x5DC DUP5 PUSH2 0x931 JUMP JUMPDEST PUSH2 0x90C JUMP JUMPDEST SWAP1 POP DUP3 DUP2 MSTORE PUSH1 0x20 DUP2 ADD DUP5 DUP5 DUP5 ADD GT ISZERO PUSH2 0x5FD JUMPI PUSH2 0x5FC PUSH2 0xA8B JUMP JUMPDEST JUMPDEST PUSH2 0x608 DUP5 DUP3 DUP6 PUSH2 0x9E4 JUMP JUMPDEST POP SWAP4 SWAP3 POP POP POP JUMP JUMPDEST PUSH1 0x0 DUP2 CALLDATALOAD SWAP1 POP PUSH2 0x61F DUP2 PUSH2 0xBC1 JUMP JUMPDEST SWAP3 SWAP2 POP POP JUMP JUMPDEST PUSH1 0x0 DUP3 PUSH1 0x1F DUP4 ADD SLT PUSH2 0x63A JUMPI PUSH2 0x639 PUSH2 0xA86 JUMP JUMPDEST JUMPDEST DUP2 CALLDATALOAD PUSH2 0x64A DUP5 DUP3 PUSH1 0x20 DUP7 ADD PUSH2 0x5CE JUMP JUMPDEST SWAP2 POP POP SWAP3 SWAP2 POP POP JUMP JUMPDEST PUSH1 0x0 DUP2 CALLDATALOAD SWAP1 POP PUSH2 0x662 DUP2 PUSH2 0xBD8 JUMP JUMPDEST SWAP3 SWAP2 POP POP JUMP JUMPDEST PUSH1 0x0 PUSH1 0x20 DUP3 DUP5 SUB SLT ISZERO PUSH2 0x67E JUMPI PUSH2 0x67D PUSH2 0xA95 JUMP JUMPDEST JUMPDEST PUSH1 0x0 PUSH2 0x68C DUP5 DUP3 DUP6 ADD PUSH2 0x610 JUMP JUMPDEST SWAP2 POP POP SWAP3 SWAP2 POP POP JUMP JUMPDEST PUSH1 0x0 PUSH1 0x20 DUP3 DUP5 SUB SLT ISZERO PUSH2 0x6AB JUMPI PUSH2 0x6AA PUSH2 0xA95 JUMP JUMPDEST JUMPDEST PUSH1 0x0 DUP3 ADD CALLDATALOAD PUSH8 0xFFFFFFFFFFFFFFFF DUP2 GT ISZERO PUSH2 0x6C9 JUMPI PUSH2 0x6C8 PUSH2 0xA90 JUMP JUMPDEST JUMPDEST PUSH2 0x6D5 DUP5 DUP3 DUP6 ADD PUSH2 0x625 JUMP JUMPDEST SWAP2 POP POP SWAP3 SWAP2 POP POP JUMP JUMPDEST PUSH1 0x0 DUP1 PUSH1 0x40 DUP4 DUP6 SUB SLT ISZERO PUSH2 0x6F5 JUMPI PUSH2 0x6F4 PUSH2 0xA95 JUMP JUMPDEST JUMPDEST PUSH1 0x0 DUP4 ADD CALLDATALOAD PUSH8 0xFFFFFFFFFFFFFFFF DUP2 GT ISZERO PUSH2 0x713 JUMPI PUSH2 0x712 PUSH2 0xA90 JUMP JUMPDEST JUMPDEST PUSH2 0x71F DUP6 DUP3 DUP7 ADD PUSH2 0x625 JUMP JUMPDEST SWAP3 POP POP PUSH1 0x20 PUSH2 0x730 DUP6 DUP3 DUP7 ADD PUSH2 0x653 JUMP JUMPDEST SWAP2 POP POP SWAP3 POP SWAP3 SWAP1 POP JUMP JUMPDEST PUSH2 0x743 DUP2 PUSH2 0x989 JUMP JUMPDEST DUP3 MSTORE POP POP JUMP JUMPDEST PUSH2 0x752 DUP2 PUSH2 0x9D2 JUMP JUMPDEST DUP3 MSTORE POP POP JUMP JUMPDEST PUSH1 0x0 PUSH2 0x763 DUP3 PUSH2 0x962 JUMP JUMPDEST PUSH2 0x76D DUP2 DUP6 PUSH2 0x97E JUMP JUMPDEST SWAP4 POP PUSH2 0x77D DUP2 DUP6 PUSH1 0x20 DUP7 ADD PUSH2 0x9F3 JUMP JUMPDEST DUP1 DUP5 ADD SWAP2 POP POP SWAP3 SWAP2 POP POP JUMP JUMPDEST PUSH1 0x0 PUSH2 0x796 PUSH1 0x26 DUP4 PUSH2 0x96D JUMP JUMPDEST SWAP2 POP PUSH2 0x7A1 DUP3 PUSH2 0xAAB JUMP JUMPDEST PUSH1 0x40 DUP3 ADD SWAP1 POP SWAP2 SWAP1 POP JUMP JUMPDEST PUSH1 0x0 PUSH2 0x7B9 PUSH1 0x2E DUP4 PUSH2 0x96D JUMP JUMPDEST SWAP2 POP PUSH2 0x7C4 DUP3 PUSH2 0xAFA JUMP JUMPDEST PUSH1 0x40 DUP3 ADD SWAP1 POP SWAP2 SWAP1 POP JUMP JUMPDEST PUSH1 0x0 PUSH2 0x7DC PUSH1 0x20 DUP4 PUSH2 0x96D JUMP JUMPDEST SWAP2 POP PUSH2 0x7E7 DUP3 PUSH2 0xB49 JUMP JUMPDEST PUSH1 0x20 DUP3 ADD SWAP1 POP SWAP2 SWAP1 POP JUMP JUMPDEST PUSH1 0x0 PUSH2 0x7FF PUSH1 0x2B DUP4 PUSH2 0x96D JUMP JUMPDEST SWAP2 POP PUSH2 0x80A DUP3 PUSH2 0xB72 JUMP JUMPDEST PUSH1 0x40 DUP3 ADD SWAP1 POP SWAP2 SWAP1 POP JUMP JUMPDEST PUSH2 0x81E DUP2 PUSH2 0x9BB JUMP JUMPDEST DUP3 MSTORE POP POP JUMP JUMPDEST PUSH1 0x0 PUSH2 0x830 DUP3 DUP5 PUSH2 0x758 JUMP JUMPDEST SWAP2 POP DUP2 SWAP1 POP SWAP3 SWAP2 POP POP JUMP JUMPDEST PUSH1 0x0 PUSH1 0x20 DUP3 ADD SWAP1 POP PUSH2 0x850 PUSH1 0x0 DUP4 ADD DUP5 PUSH2 0x73A JUMP JUMPDEST SWAP3 SWAP2 POP POP JUMP JUMPDEST PUSH1 0x0 PUSH1 0x20 DUP3 ADD SWAP1 POP PUSH2 0x86B PUSH1 0x0 DUP4 ADD DUP5 PUSH2 0x749 JUMP JUMPDEST SWAP3 SWAP2 POP POP JUMP JUMPDEST PUSH1 0x0 PUSH1 0x20 DUP3 ADD SWAP1 POP DUP2 DUP2 SUB PUSH1 0x0 DUP4 ADD MSTORE PUSH2 0x88A DUP2 PUSH2 0x789 JUMP JUMPDEST SWAP1 POP SWAP2 SWAP1 POP JUMP JUMPDEST PUSH1 0x0 PUSH1 0x20 DUP3 ADD SWAP1 POP DUP2 DUP2 SUB PUSH1 0x0 DUP4 ADD MSTORE PUSH2 0x8AA DUP2 PUSH2 0x7AC JUMP JUMPDEST SWAP1 POP SWAP2 SWAP1 POP JUMP JUMPDEST PUSH1 0x0 PUSH1 0x20 DUP3 ADD SWAP1 POP DUP2 DUP2 SUB PUSH1 0x0 DUP4 ADD MSTORE PUSH2 0x8CA DUP2 PUSH2 0x7CF JUMP JUMPDEST SWAP1 POP SWAP2 SWAP1 POP JUMP JUMPDEST PUSH1 0x0 PUSH1 0x20 DUP3 ADD SWAP1 POP DUP2 DUP2 SUB PUSH1 0x0 DUP4 ADD MSTORE PUSH2 0x8EA DUP2 PUSH2 0x7F2 JUMP JUMPDEST SWAP1 POP SWAP2 SWAP1 POP JUMP JUMPDEST PUSH1 0x0 PUSH1 0x20 DUP3 ADD SWAP1 POP PUSH2 0x906 PUSH1 0x0 DUP4 ADD DUP5 PUSH2 0x815 JUMP JUMPDEST SWAP3 SWAP2 POP POP JUMP JUMPDEST PUSH1 0x0 PUSH2 0x916 PUSH2 0x927 JUMP JUMPDEST SWAP1 POP PUSH2 0x922 DUP3 DUP3 PUSH2 0xA26 JUMP JUMPDEST SWAP2 SWAP1 POP JUMP JUMPDEST PUSH1 0x0 PUSH1 0x40 MLOAD SWAP1 POP SWAP1 JUMP JUMPDEST PUSH1 0x0 PUSH8 0xFFFFFFFFFFFFFFFF DUP3 GT ISZERO PUSH2 0x94C JUMPI PUSH2 0x94B PUSH2 0xA57 JUMP JUMPDEST JUMPDEST PUSH2 0x955 DUP3 PUSH2 0xA9A JUMP JUMPDEST SWAP1 POP PUSH1 0x20 DUP2 ADD SWAP1 POP SWAP2 SWAP1 POP JUMP JUMPDEST PUSH1 0x0 DUP2 MLOAD SWAP1 POP SWAP2 SWAP1 POP JUMP JUMPDEST PUSH1 0x0 DUP3 DUP3 MSTORE PUSH1 0x20 DUP3 ADD SWAP1 POP SWAP3 SWAP2 POP POP JUMP JUMPDEST PUSH1 0x0 DUP2 SWAP1 POP SWAP3 SWAP2 POP POP JUMP JUMPDEST PUSH1 0x0 PUSH2 0x994 DUP3 PUSH2 0x99B JUMP JUMPDEST SWAP1 POP SWAP2 SWAP1 POP JUMP JUMPDEST PUSH1 0x0 PUSH20 0xFFFFFFFFFFFFFFFFFFFFFFFFFFFFFFFFFFFFFFFF DUP3 AND SWAP1 POP SWAP2 SWAP1 POP JUMP JUMPDEST PUSH1 0x0 DUP2 SWAP1 POP SWAP2 SWAP1 POP JUMP JUMPDEST PUSH1 0x0 PUSH1 0xFF DUP3 AND SWAP1 POP SWAP2 SWAP1 POP JUMP JUMPDEST PUSH1 0x0 PUSH2 0x9DD DUP3 PUSH2 0x9C5 JUMP JUMPDEST SWAP1 POP SWAP2 SWAP1 POP JUMP JUMPDEST DUP3 DUP2 DUP4 CALLDATACOPY PUSH1 0x0 DUP4 DUP4 ADD MSTORE POP POP POP JUMP JUMPDEST PUSH1 0x0 JUMPDEST DUP4 DUP2 LT ISZERO PUSH2 0xA11 JUMPI DUP1 DUP3 ADD MLOAD DUP2 DUP5 ADD MSTORE PUSH1 0x20 DUP2 ADD SWAP1 POP PUSH2 0x9F6 JUMP JUMPDEST DUP4 DUP2 GT ISZERO PUSH2 0xA20 JUMPI PUSH1 0x0 DUP5 DUP5 ADD MSTORE JUMPDEST POP POP POP POP JUMP JUMPDEST PUSH2 0xA2F DUP3 PUSH2 0xA9A JUMP JUMPDEST DUP2 ADD DUP2 DUP2 LT PUSH8 0xFFFFFFFFFFFFFFFF DUP3 GT OR ISZERO PUSH2 0xA4E JUMPI PUSH2 0xA4D PUSH2 0xA57 JUMP JUMPDEST JUMPDEST DUP1 PUSH1 0x40 MSTORE POP POP POP JUMP JUMPDEST PUSH32 0x4E487B7100000000000000000000000000000000000000000000000000000000 PUSH1 0x0 MSTORE PUSH1 0x41 PUSH1 0x4 MSTORE PUSH1 0x24 PUSH1 0x0 REVERT JUMPDEST PUSH1 0x0 DUP1 REVERT JUMPDEST PUSH1 0x0 DUP1 REVERT JUMPDEST PUSH1 0x0 DUP1 REVERT JUMPDEST PUSH1 0x0 DUP1 REVERT JUMPDEST PUSH1 0x0 PUSH1 0x1F NOT PUSH1 0x1F DUP4 ADD AND SWAP1 POP SWAP2 SWAP1 POP JUMP JUMPDEST PUSH32 0x4F776E61626C653A206E6577206F776E657220697320746865207A65726F2061 PUSH1 0x0 DUP3 ADD MSTORE PUSH32 0x6464726573730000000000000000000000000000000000000000000000000000 PUSH1 0x20 DUP3 ADD MSTORE POP JUMP JUMPDEST PUSH32 0x496E697469616C697A61626C653A20636F6E747261637420697320616C726561 PUSH1 0x0 DUP3 ADD MSTORE PUSH32 0x647920696E697469616C697A6564000000000000000000000000000000000000 PUSH1 0x20 DUP3 ADD MSTORE POP JUMP JUMPDEST PUSH32 0x4F776E61626C653A2063616C6C6572206973206E6F7420746865206F776E6572 PUSH1 0x0 DUP3 ADD MSTORE POP JUMP JUMPDEST PUSH32 0x496E697469616C697A61626C653A20636F6E7472616374206973206E6F742069 PUSH1 0x0 DUP3 ADD MSTORE PUSH32 0x6E697469616C697A696E67000000000000000000000000000000000000000000 PUSH1 0x20 DUP3 ADD MSTORE POP JUMP JUMPDEST PUSH2 0xBCA DUP2 PUSH2 0x989 JUMP JUMPDEST DUP2 EQ PUSH2 0xBD5 JUMPI PUSH1 0x0 DUP1 REVERT JUMPDEST POP JUMP JUMPDEST PUSH2 0xBE1 DUP2 PUSH2 0x9BB JUMP JUMPDEST DUP2 EQ PUSH2 0xBEC JUMPI PUSH1 0x0 DUP1 REVERT JUMPDEST POP JUMP INVALID LOG2 PUSH5 0x6970667358 0x22 SLT KECCAK256 0xB6 DUP16 GASPRICE 0xD3 0x4E PUSH4 0x8D545661 0xB9 0xEA 0x2B 0xAF INVALID 0xDE 0xBD PUSH6 0x7908744DE88C KECCAK256 DUP9 0xB0 SWAP9 PUSH10 0xDC491E64736F6C634300 ADDMOD SMOD STOP CALLER "
				},
				"gasEstimates": {
					"creation": {
						"codeDepositCost": "621800",
						"executionCost": "657",
						"totalCost": "622457"
					},
					"external": {
						"GetUint256Param(string)": "infinite",
						"SetUint256Param(string,uint256)": "infinite",
						"initialize()": "116063",
						"owner()": "2566",
						"renounceOwnership()": "30398",
						"transferOwnership(address)": "30835"
					}
				},
				"methodIdentifiers": {
					"GetUint256Param(string)": "4e678e80",
					"SetUint256Param(string,uint256)": "cd4fe8cd",
					"initialize()": "8129fc1c",
					"owner()": "8da5cb5b",
					"renounceOwnership()": "715018a6",
					"transferOwnership(address)": "f2fde38b"
				}
			},
			"storageLayout": {
				"storage": [
					{
						"astId": 138,
						"contract": "contract/myProject/CNRC_V2/V2_CNRedCross.sol:Params",
						"label": "_initialized",
						"offset": 0,
						"slot": "0",
						"type": "t_uint8"
					},
					{
						"astId": 141,
						"contract": "contract/myProject/CNRC_V2/V2_CNRedCross.sol:Params",
						"label": "_initializing",
						"offset": 1,
						"slot": "0",
						"type": "t_bool"
					},
					{
						"astId": 566,
						"contract": "contract/myProject/CNRC_V2/V2_CNRedCross.sol:Params",
						"label": "__gap",
						"offset": 0,
						"slot": "1",
						"type": "t_array(t_uint256)50_storage"
					},
					{
						"astId": 10,
						"contract": "contract/myProject/CNRC_V2/V2_CNRedCross.sol:Params",
						"label": "_owner",
						"offset": 0,
						"slot": "51",
						"type": "t_address"
					},
					{
						"astId": 130,
						"contract": "contract/myProject/CNRC_V2/V2_CNRedCross.sol:Params",
						"label": "__gap",
						"offset": 0,
						"slot": "52",
						"type": "t_array(t_uint256)49_storage"
					},
					{
						"astId": 1510,
						"contract": "contract/myProject/CNRC_V2/V2_CNRedCross.sol:Params",
						"label": "uint256Params",
						"offset": 0,
						"slot": "101",
						"type": "t_mapping(t_string_memory_ptr,t_uint256)"
					}
				],
				"types": {
					"t_address": {
						"encoding": "inplace",
						"label": "address",
						"numberOfBytes": "20"
					},
					"t_array(t_uint256)49_storage": {
						"base": "t_uint256",
						"encoding": "inplace",
						"label": "uint256[49]",
						"numberOfBytes": "1568"
					},
					"t_array(t_uint256)50_storage": {
						"base": "t_uint256",
						"encoding": "inplace",
						"label": "uint256[50]",
						"numberOfBytes": "1600"
					},
					"t_bool": {
						"encoding": "inplace",
						"label": "bool",
						"numberOfBytes": "1"
					},
					"t_mapping(t_string_memory_ptr,t_uint256)": {
						"encoding": "mapping",
						"key": "t_string_memory_ptr",
						"label": "mapping(string => uint256)",
						"numberOfBytes": "32",
						"value": "t_uint256"
					},
					"t_string_memory_ptr": {
						"encoding": "bytes",
						"label": "string",
						"numberOfBytes": "32"
					},
					"t_uint256": {
						"encoding": "inplace",
						"label": "uint256",
						"numberOfBytes": "32"
					},
					"t_uint8": {
						"encoding": "inplace",
						"label": "uint8",
						"numberOfBytes": "1"
					}
				}
			},
			"userdoc": {
				"kind": "user",
				"methods": {},
				"version": 1
			}
		}
	}
}