{
	"contract/myProject/CNRC_V2/V2_CNRedCross.sol": {
		"CNRedCrossUpgradeable": {
			"abi": [
				{
					"inputs": [],
					"stateMutability": "nonpayable",
					"type": "constructor"
				},
				{
					"anonymous": false,
					"inputs": [
						{
							"indexed": false,
							"internalType": "address",
							"name": "previousAdmin",
							"type": "address"
						},
						{
							"indexed": false,
							"internalType": "address",
							"name": "newAdmin",
							"type": "address"
						}
					],
					"name": "AdminChanged",
					"type": "event"
				},
				{
					"anonymous": false,
					"inputs": [
						{
							"indexed": true,
							"internalType": "address",
							"name": "owner",
							"type": "address"
						},
						{
							"indexed": true,
							"internalType": "address",
							"name": "spender",
							"type": "address"
						},
						{
							"indexed": false,
							"internalType": "uint256",
							"name": "value",
							"type": "uint256"
						}
					],
					"name": "Approval",
					"type": "event"
				},
				{
					"anonymous": false,
					"inputs": [
						{
							"indexed": true,
							"internalType": "address",
							"name": "beacon",
							"type": "address"
						}
					],
					"name": "BeaconUpgraded",
					"type": "event"
				},
				{
					"anonymous": false,
					"inputs": [
						{
							"indexed": false,
							"internalType": "uint8",
							"name": "version",
							"type": "uint8"
						}
					],
					"name": "Initialized",
					"type": "event"
				},
				{
					"anonymous": false,
					"inputs": [
						{
							"indexed": true,
							"internalType": "address",
							"name": "previousOwner",
							"type": "address"
						},
						{
							"indexed": true,
							"internalType": "address",
							"name": "newOwner",
							"type": "address"
						}
					],
					"name": "OwnershipTransferred",
					"type": "event"
				},
				{
					"anonymous": false,
					"inputs": [
						{
							"indexed": true,
							"internalType": "address",
							"name": "from",
							"type": "address"
						},
						{
							"indexed": true,
							"internalType": "address",
							"name": "to",
							"type": "address"
						},
						{
							"indexed": false,
							"internalType": "uint256",
							"name": "value",
							"type": "uint256"
						}
					],
					"name": "Transfer",
					"type": "event"
				},
				{
					"anonymous": false,
					"inputs": [
						{
							"indexed": true,
							"internalType": "address",
							"name": "implementation",
							"type": "address"
						}
					],
					"name": "Upgraded",
					"type": "event"
				},
				{
					"inputs": [
						{
							"internalType": "address",
							"name": "owner",
							"type": "address"
						},
						{
							"internalType": "address",
							"name": "spender",
							"type": "address"
						}
					],
					"name": "allowance",
					"outputs": [
						{
							"internalType": "uint256",
							"name": "",
							"type": "uint256"
						}
					],
					"stateMutability": "view",
					"type": "function"
				},
				{
					"inputs": [
						{
							"internalType": "address",
							"name": "spender",
							"type": "address"
						},
						{
							"internalType": "uint256",
							"name": "amount",
							"type": "uint256"
						}
					],
					"name": "approve",
					"outputs": [
						{
							"internalType": "bool",
							"name": "",
							"type": "bool"
						}
					],
					"stateMutability": "nonpayable",
					"type": "function"
				},
				{
					"inputs": [
						{
							"internalType": "address",
							"name": "account",
							"type": "address"
						}
					],
					"name": "balanceOf",
					"outputs": [
						{
							"internalType": "uint256",
							"name": "",
							"type": "uint256"
						}
					],
					"stateMutability": "view",
					"type": "function"
				},
				{
					"inputs": [],
					"name": "decimals",
					"outputs": [
						{
							"internalType": "uint8",
							"name": "",
							"type": "uint8"
						}
					],
					"stateMutability": "view",
					"type": "function"
				},
				{
					"inputs": [
						{
							"internalType": "address",
							"name": "spender",
							"type": "address"
						},
						{
							"internalType": "uint256",
							"name": "subtractedValue",
							"type": "uint256"
						}
					],
					"name": "decreaseAllowance",
					"outputs": [
						{
							"internalType": "bool",
							"name": "",
							"type": "bool"
						}
					],
					"stateMutability": "nonpayable",
					"type": "function"
				},
				{
					"inputs": [
						{
							"internalType": "address",
							"name": "spender",
							"type": "address"
						},
						{
							"internalType": "uint256",
							"name": "addedValue",
							"type": "uint256"
						}
					],
					"name": "increaseAllowance",
					"outputs": [
						{
							"internalType": "bool",
							"name": "",
							"type": "bool"
						}
					],
					"stateMutability": "nonpayable",
					"type": "function"
				},
				{
					"inputs": [],
					"name": "initialize",
					"outputs": [],
					"stateMutability": "nonpayable",
					"type": "function"
				},
				{
					"inputs": [
						{
							"internalType": "address",
							"name": "to",
							"type": "address"
						},
						{
							"internalType": "uint256",
							"name": "amount",
							"type": "uint256"
						}
					],
					"name": "mint",
					"outputs": [],
					"stateMutability": "nonpayable",
					"type": "function"
				},
				{
					"inputs": [],
					"name": "name",
					"outputs": [
						{
							"internalType": "string",
							"name": "",
							"type": "string"
						}
					],
					"stateMutability": "view",
					"type": "function"
				},
				{
					"inputs": [],
					"name": "owner",
					"outputs": [
						{
							"internalType": "address",
							"name": "",
							"type": "address"
						}
					],
					"stateMutability": "view",
					"type": "function"
				},
				{
					"inputs": [],
					"name": "proxiableUUID",
					"outputs": [
						{
							"internalType": "bytes32",
							"name": "",
							"type": "bytes32"
						}
					],
					"stateMutability": "view",
					"type": "function"
				},
				{
					"inputs": [],
					"name": "renounceOwnership",
					"outputs": [],
					"stateMutability": "nonpayable",
					"type": "function"
				},
				{
					"inputs": [],
					"name": "symbol",
					"outputs": [
						{
							"internalType": "string",
							"name": "",
							"type": "string"
						}
					],
					"stateMutability": "view",
					"type": "function"
				},
				{
					"inputs": [],
					"name": "totalSupply",
					"outputs": [
						{
							"internalType": "uint256",
							"name": "",
							"type": "uint256"
						}
					],
					"stateMutability": "view",
					"type": "function"
				},
				{
					"inputs": [
						{
							"internalType": "address",
							"name": "to",
							"type": "address"
						},
						{
							"internalType": "uint256",
							"name": "amount",
							"type": "uint256"
						}
					],
					"name": "transfer",
					"outputs": [
						{
							"internalType": "bool",
							"name": "",
							"type": "bool"
						}
					],
					"stateMutability": "nonpayable",
					"type": "function"
				},
				{
					"inputs": [
						{
							"internalType": "address",
							"name": "from",
							"type": "address"
						},
						{
							"internalType": "address",
							"name": "to",
							"type": "address"
						},
						{
							"internalType": "uint256",
							"name": "amount",
							"type": "uint256"
						}
					],
					"name": "transferFrom",
					"outputs": [
						{
							"internalType": "bool",
							"name": "",
							"type": "bool"
						}
					],
					"stateMutability": "nonpayable",
					"type": "function"
				},
				{
					"inputs": [
						{
							"internalType": "address",
							"name": "newOwner",
							"type": "address"
						}
					],
					"name": "transferOwnership",
					"outputs": [],
					"stateMutability": "nonpayable",
					"type": "function"
				},
				{
					"inputs": [
						{
							"internalType": "address",
							"name": "newImplementation",
							"type": "address"
						}
					],
					"name": "upgradeTo",
					"outputs": [],
					"stateMutability": "nonpayable",
					"type": "function"
				},
				{
					"inputs": [
						{
							"internalType": "address",
							"name": "newImplementation",
							"type": "address"
						},
						{
							"internalType": "bytes",
							"name": "data",
							"type": "bytes"
						}
					],
					"name": "upgradeToAndCall",
					"outputs": [],
					"stateMutability": "payable",
					"type": "function"
				}
			],
			"devdoc": {
				"kind": "dev",
				"methods": {
					"proxiableUUID()": {
						"details": "Implementation of the ERC1822 {proxiableUUID} function. This returns the storage slot used by the implementation. It is used to validate that the this implementation remains valid after an upgrade. IMPORTANT: A proxy pointing at a proxiable contract should not be considered proxiable itself, because this risks bricking a proxy that upgrades to it, by delegating to itself until out of gas. Thus it is critical that this function revert if invoked through a proxy. This is guaranteed by the `notDelegated` modifier."
					},
					"upgradeTo(address)": {
						"details": "Upgrade the implementation of the proxy to `newImplementation`. Calls {_authorizeUpgrade}. Emits an {Upgraded} event."
					},
					"upgradeToAndCall(address,bytes)": {
						"details": "Upgrade the implementation of the proxy to `newImplementation`, and subsequently execute the function call encoded in `data`. Calls {_authorizeUpgrade}. Emits an {Upgraded} event."
					}
				},
				"version": 1
			},
			"evm": {
				"assembly": "    /* \"contract/myProject/CNRC_V2/V2_CNRedCross.sol\":35483:36036  contract CNRedCrossUpgradeable is Initializable, ERC20Upgradeable, OwnableUpgradeable, UUPSUpgradeable{\r... */\n  mstore(0x40, 0xa0)\n    /* \"contract/myProject/CNRC_V2/V2_CNRedCross.sol\":31586:31590  this */\n  address\n    /* \"contract/myProject/CNRC_V2/V2_CNRedCross.sol\":31543:31591  address private immutable __self = address(this) */\n  0xffffffffffffffffffffffffffffffffffffffff\n  and\n  0x80\n  swap1\n  0xffffffffffffffffffffffffffffffffffffffff\n  and\n  0x60\n  shl\n  dup2\n  mstore\n  pop\n    /* \"contract/myProject/CNRC_V2/V2_CNRedCross.sol\":35598:35652  constructor(){\r... */\n  callvalue\n  dup1\n  iszero\n  tag_1\n  jumpi\n  0x00\n  dup1\n  revert\ntag_1:\n  pop\n    /* \"contract/myProject/CNRC_V2/V2_CNRedCross.sol\":35622:35644  _disableInitializers() */\n  tag_4\n    /* \"contract/myProject/CNRC_V2/V2_CNRedCross.sol\":35622:35642  _disableInitializers */\n  shl(0x20, tag_5)\n    /* \"contract/myProject/CNRC_V2/V2_CNRedCross.sol\":35622:35644  _disableInitializers() */\n  0x20\n  shr\n  jump\t// in\ntag_4:\n    /* \"contract/myProject/CNRC_V2/V2_CNRedCross.sol\":35483:36036  contract CNRedCrossUpgradeable is Initializable, ERC20Upgradeable, OwnableUpgradeable, UUPSUpgradeable{\r... */\n  jump(tag_6)\n    /* \"contract/myProject/CNRC_V2/V2_CNRedCross.sol\":12961:13246  function _disableInitializers() internal virtual {\r... */\ntag_5:\n    /* \"contract/myProject/CNRC_V2/V2_CNRedCross.sol\":13030:13043  _initializing */\n  0x00\n  0x01\n  swap1\n  sload\n  swap1\n  0x0100\n  exp\n  swap1\n  div\n  0xff\n  and\n    /* \"contract/myProject/CNRC_V2/V2_CNRedCross.sol\":13029:13043  !_initializing */\n  iszero\n    /* \"contract/myProject/CNRC_V2/V2_CNRedCross.sol\":13021:13087  require(!_initializing, \"Initializable: contract is initializing\") */\n  tag_8\n  jumpi\n  mload(0x40)\n  0x08c379a000000000000000000000000000000000000000000000000000000000\n  dup2\n  mstore\n  0x04\n  add\n  tag_9\n  swap1\n  tag_10\n  jump\t// in\ntag_9:\n  mload(0x40)\n  dup1\n  swap2\n  sub\n  swap1\n  revert\ntag_8:\n    /* \"contract/myProject/CNRC_V2/V2_CNRedCross.sol\":13117:13132  type(uint8).max */\n  0xff\n    /* \"contract/myProject/CNRC_V2/V2_CNRedCross.sol\":13102:13132  _initialized < type(uint8).max */\n  dup1\n  and\n    /* \"contract/myProject/CNRC_V2/V2_CNRedCross.sol\":13102:13114  _initialized */\n  0x00\n  dup1\n  sload\n  swap1\n  0x0100\n  exp\n  swap1\n  div\n  0xff\n  and\n    /* \"contract/myProject/CNRC_V2/V2_CNRedCross.sol\":13102:13132  _initialized < type(uint8).max */\n  0xff\n  and\n  lt\n    /* \"contract/myProject/CNRC_V2/V2_CNRedCross.sol\":13098:13239  if (_initialized < type(uint8).max) {\r... */\n  iszero\n  tag_11\n  jumpi\n    /* \"contract/myProject/CNRC_V2/V2_CNRedCross.sol\":13164:13179  type(uint8).max */\n  0xff\n    /* \"contract/myProject/CNRC_V2/V2_CNRedCross.sol\":13149:13161  _initialized */\n  0x00\n  dup1\n    /* \"contract/myProject/CNRC_V2/V2_CNRedCross.sol\":13149:13179  _initialized = type(uint8).max */\n  0x0100\n  exp\n  dup2\n  sload\n  dup2\n  0xff\n  mul\n  not\n  and\n  swap1\n  dup4\n  0xff\n  and\n  mul\n  or\n  swap1\n  sstore\n  pop\n    /* \"contract/myProject/CNRC_V2/V2_CNRedCross.sol\":13199:13227  Initialized(type(uint8).max) */\n  0x7f26b83ff96e1f2b6a682f133852f6798a09c465da95921460cefb3847402498\n    /* \"contract/myProject/CNRC_V2/V2_CNRedCross.sol\":13211:13226  type(uint8).max */\n  0xff\n    /* \"contract/myProject/CNRC_V2/V2_CNRedCross.sol\":13199:13227  Initialized(type(uint8).max) */\n  mload(0x40)\n  tag_12\n  swap2\n  swap1\n  tag_13\n  jump\t// in\ntag_12:\n  mload(0x40)\n  dup1\n  swap2\n  sub\n  swap1\n  log1\n    /* \"contract/myProject/CNRC_V2/V2_CNRedCross.sol\":13098:13239  if (_initialized < type(uint8).max) {\r... */\ntag_11:\n    /* \"contract/myProject/CNRC_V2/V2_CNRedCross.sol\":12961:13246  function _disableInitializers() internal virtual {\r... */\n  jump\t// out\n    /* \"#utility.yul\":7:373   */\ntag_15:\n    /* \"#utility.yul\":149:152   */\n  0x00\n    /* \"#utility.yul\":170:237   */\n  tag_17\n    /* \"#utility.yul\":234:236   */\n  0x27\n    /* \"#utility.yul\":229:232   */\n  dup4\n    /* \"#utility.yul\":170:237   */\n  tag_18\n  jump\t// in\ntag_17:\n    /* \"#utility.yul\":163:237   */\n  swap2\n  pop\n    /* \"#utility.yul\":246:339   */\n  tag_19\n    /* \"#utility.yul\":335:338   */\n  dup3\n    /* \"#utility.yul\":246:339   */\n  tag_20\n  jump\t// in\ntag_19:\n    /* \"#utility.yul\":364:366   */\n  0x40\n    /* \"#utility.yul\":359:362   */\n  dup3\n    /* \"#utility.yul\":355:367   */\n  add\n    /* \"#utility.yul\":348:367   */\n  swap1\n  pop\n    /* \"#utility.yul\":7:373   */\n  swap2\n  swap1\n  pop\n  jump\t// out\n    /* \"#utility.yul\":379:491   */\ntag_21:\n    /* \"#utility.yul\":462:484   */\n  tag_23\n    /* \"#utility.yul\":478:483   */\n  dup2\n    /* \"#utility.yul\":462:484   */\n  tag_24\n  jump\t// in\ntag_23:\n    /* \"#utility.yul\":457:460   */\n  dup3\n    /* \"#utility.yul\":450:485   */\n  mstore\n    /* \"#utility.yul\":379:491   */\n  pop\n  pop\n  jump\t// out\n    /* \"#utility.yul\":497:916   */\ntag_10:\n    /* \"#utility.yul\":663:667   */\n  0x00\n    /* \"#utility.yul\":701:703   */\n  0x20\n    /* \"#utility.yul\":690:699   */\n  dup3\n    /* \"#utility.yul\":686:704   */\n  add\n    /* \"#utility.yul\":678:704   */\n  swap1\n  pop\n    /* \"#utility.yul\":750:759   */\n  dup2\n    /* \"#utility.yul\":744:748   */\n  dup2\n    /* \"#utility.yul\":740:760   */\n  sub\n    /* \"#utility.yul\":736:737   */\n  0x00\n    /* \"#utility.yul\":725:734   */\n  dup4\n    /* \"#utility.yul\":721:738   */\n  add\n    /* \"#utility.yul\":714:761   */\n  mstore\n    /* \"#utility.yul\":778:909   */\n  tag_26\n    /* \"#utility.yul\":904:908   */\n  dup2\n    /* \"#utility.yul\":778:909   */\n  tag_15\n  jump\t// in\ntag_26:\n    /* \"#utility.yul\":770:909   */\n  swap1\n  pop\n    /* \"#utility.yul\":497:916   */\n  swap2\n  swap1\n  pop\n  jump\t// out\n    /* \"#utility.yul\":922:1136   */\ntag_13:\n    /* \"#utility.yul\":1011:1015   */\n  0x00\n    /* \"#utility.yul\":1049:1051   */\n  0x20\n    /* \"#utility.yul\":1038:1047   */\n  dup3\n    /* \"#utility.yul\":1034:1052   */\n  add\n    /* \"#utility.yul\":1026:1052   */\n  swap1\n  pop\n    /* \"#utility.yul\":1062:1129   */\n  tag_28\n    /* \"#utility.yul\":1126:1127   */\n  0x00\n    /* \"#utility.yul\":1115:1124   */\n  dup4\n    /* \"#utility.yul\":1111:1128   */\n  add\n    /* \"#utility.yul\":1102:1108   */\n  dup5\n    /* \"#utility.yul\":1062:1129   */\n  tag_21\n  jump\t// in\ntag_28:\n    /* \"#utility.yul\":922:1136   */\n  swap3\n  swap2\n  pop\n  pop\n  jump\t// out\n    /* \"#utility.yul\":1142:1311   */\ntag_18:\n    /* \"#utility.yul\":1226:1237   */\n  0x00\n    /* \"#utility.yul\":1260:1266   */\n  dup3\n    /* \"#utility.yul\":1255:1258   */\n  dup3\n    /* \"#utility.yul\":1248:1267   */\n  mstore\n    /* \"#utility.yul\":1300:1304   */\n  0x20\n    /* \"#utility.yul\":1295:1298   */\n  dup3\n    /* \"#utility.yul\":1291:1305   */\n  add\n    /* \"#utility.yul\":1276:1305   */\n  swap1\n  pop\n    /* \"#utility.yul\":1142:1311   */\n  swap3\n  swap2\n  pop\n  pop\n  jump\t// out\n    /* \"#utility.yul\":1317:1403   */\ntag_24:\n    /* \"#utility.yul\":1352:1359   */\n  0x00\n    /* \"#utility.yul\":1392:1396   */\n  0xff\n    /* \"#utility.yul\":1385:1390   */\n  dup3\n    /* \"#utility.yul\":1381:1397   */\n  and\n    /* \"#utility.yul\":1370:1397   */\n  swap1\n  pop\n    /* \"#utility.yul\":1317:1403   */\n  swap2\n  swap1\n  pop\n  jump\t// out\n    /* \"#utility.yul\":1409:1635   */\ntag_20:\n    /* \"#utility.yul\":1549:1583   */\n  0x496e697469616c697a61626c653a20636f6e747261637420697320696e697469\n    /* \"#utility.yul\":1545:1546   */\n  0x00\n    /* \"#utility.yul\":1537:1543   */\n  dup3\n    /* \"#utility.yul\":1533:1547   */\n  add\n    /* \"#utility.yul\":1526:1584   */\n  mstore\n    /* \"#utility.yul\":1618:1627   */\n  0x616c697a696e6700000000000000000000000000000000000000000000000000\n    /* \"#utility.yul\":1613:1615   */\n  0x20\n    /* \"#utility.yul\":1605:1611   */\n  dup3\n    /* \"#utility.yul\":1601:1616   */\n  add\n    /* \"#utility.yul\":1594:1628   */\n  mstore\n    /* \"#utility.yul\":1409:1635   */\n  pop\n  jump\t// out\n    /* \"contract/myProject/CNRC_V2/V2_CNRedCross.sol\":35483:36036  contract CNRedCrossUpgradeable is Initializable, ERC20Upgradeable, OwnableUpgradeable, UUPSUpgradeable{\r... */\ntag_6:\n  shr(0x60, mload(0x80))\n  codecopy(0x00, dataOffset(sub_0), dataSize(sub_0))\n  0x00\n  assignImmutable(\"0x73c522618c20933f5fa3ae5b02e92f7378fc54c8e43b084b321268c5e5c99f05\")\n  return(0x00, dataSize(sub_0))\nstop\n\nsub_0: assembly {\n        /* \"contract/myProject/CNRC_V2/V2_CNRedCross.sol\":35483:36036  contract CNRedCrossUpgradeable is Initializable, ERC20Upgradeable, OwnableUpgradeable, UUPSUpgradeable{\r... */\n      mstore(0x40, 0x80)\n      jumpi(tag_1, lt(calldatasize, 0x04))\n      shr(0xe0, calldataload(0x00))\n      dup1\n      0x52d1902d\n      gt\n      tag_21\n      jumpi\n      dup1\n      0x95d89b41\n      gt\n      tag_22\n      jumpi\n      dup1\n      0x95d89b41\n      eq\n      tag_16\n      jumpi\n      dup1\n      0xa457c2d7\n      eq\n      tag_17\n      jumpi\n      dup1\n      0xa9059cbb\n      eq\n      tag_18\n      jumpi\n      dup1\n      0xdd62ed3e\n      eq\n      tag_19\n      jumpi\n      dup1\n      0xf2fde38b\n      eq\n      tag_20\n      jumpi\n      jump(tag_1)\n    tag_22:\n      dup1\n      0x52d1902d\n      eq\n      tag_11\n      jumpi\n      dup1\n      0x70a08231\n      eq\n      tag_12\n      jumpi\n      dup1\n      0x715018a6\n      eq\n      tag_13\n      jumpi\n      dup1\n      0x8129fc1c\n      eq\n      tag_14\n      jumpi\n      dup1\n      0x8da5cb5b\n      eq\n      tag_15\n      jumpi\n      jump(tag_1)\n    tag_21:\n      dup1\n      0x313ce567\n      gt\n      tag_23\n      jumpi\n      dup1\n      0x313ce567\n      eq\n      tag_6\n      jumpi\n      dup1\n      0x3659cfe6\n      eq\n      tag_7\n      jumpi\n      dup1\n      0x39509351\n      eq\n      tag_8\n      jumpi\n      dup1\n      0x40c10f19\n      eq\n      tag_9\n      jumpi\n      dup1\n      0x4f1ef286\n      eq\n      tag_10\n      jumpi\n      jump(tag_1)\n    tag_23:\n      dup1\n      0x06fdde03\n      eq\n      tag_2\n      jumpi\n      dup1\n      0x095ea7b3\n      eq\n      tag_3\n      jumpi\n      dup1\n      0x18160ddd\n      eq\n      tag_4\n      jumpi\n      dup1\n      0x23b872dd\n      eq\n      tag_5\n      jumpi\n    tag_1:\n      0x00\n      dup1\n      revert\n        /* \"contract/myProject/CNRC_V2/V2_CNRedCross.sol\":15349:15449  function name() public view virtual override returns (string memory) {\r... */\n    tag_2:\n      callvalue\n      dup1\n      iszero\n      tag_24\n      jumpi\n      0x00\n      dup1\n      revert\n    tag_24:\n      pop\n      tag_25\n      tag_26\n      jump\t// in\n    tag_25:\n      mload(0x40)\n      tag_27\n      swap2\n      swap1\n      tag_28\n      jump\t// in\n    tag_27:\n      mload(0x40)\n      dup1\n      swap2\n      sub\n      swap1\n      return\n        /* \"contract/myProject/CNRC_V2/V2_CNRedCross.sol\":16281:16482  function approve(address spender, uint256 amount) public virtual override returns (bool) {\r... */\n    tag_3:\n      callvalue\n      dup1\n      iszero\n      tag_29\n      jumpi\n      0x00\n      dup1\n      revert\n    tag_29:\n      pop\n      tag_30\n      0x04\n      dup1\n      calldatasize\n      sub\n      dup2\n      add\n      swap1\n      tag_31\n      swap2\n      swap1\n      tag_32\n      jump\t// in\n    tag_31:\n      tag_33\n      jump\t// in\n    tag_30:\n      mload(0x40)\n      tag_34\n      swap2\n      swap1\n      tag_35\n      jump\t// in\n    tag_34:\n      mload(0x40)\n      dup1\n      swap2\n      sub\n      swap1\n      return\n        /* \"contract/myProject/CNRC_V2/V2_CNRedCross.sol\":15670:15778  function totalSupply() public view virtual override returns (uint256) {\r... */\n    tag_4:\n      callvalue\n      dup1\n      iszero\n      tag_36\n      jumpi\n      0x00\n      dup1\n      revert\n    tag_36:\n      pop\n      tag_37\n      tag_38\n      jump\t// in\n    tag_37:\n      mload(0x40)\n      tag_39\n      swap2\n      swap1\n      tag_40\n      jump\t// in\n    tag_39:\n      mload(0x40)\n      dup1\n      swap2\n      sub\n      swap1\n      return\n        /* \"contract/myProject/CNRC_V2/V2_CNRedCross.sol\":16490:16785  function transferFrom(\r... */\n    tag_5:\n      callvalue\n      dup1\n      iszero\n      tag_41\n      jumpi\n      0x00\n      dup1\n      revert\n    tag_41:\n      pop\n      tag_42\n      0x04\n      dup1\n      calldatasize\n      sub\n      dup2\n      add\n      swap1\n      tag_43\n      swap2\n      swap1\n      tag_44\n      jump\t// in\n    tag_43:\n      tag_45\n      jump\t// in\n    tag_42:\n      mload(0x40)\n      tag_46\n      swap2\n      swap1\n      tag_35\n      jump\t// in\n    tag_46:\n      mload(0x40)\n      dup1\n      swap2\n      sub\n      swap1\n      return\n        /* \"contract/myProject/CNRC_V2/V2_CNRedCross.sol\":15569:15662  function decimals() public view virtual override returns (uint8) {\r... */\n    tag_6:\n      callvalue\n      dup1\n      iszero\n      tag_47\n      jumpi\n      0x00\n      dup1\n      revert\n    tag_47:\n      pop\n      tag_48\n      tag_49\n      jump\t// in\n    tag_48:\n      mload(0x40)\n      tag_50\n      swap2\n      swap1\n      tag_51\n      jump\t// in\n    tag_50:\n      mload(0x40)\n      dup1\n      swap2\n      sub\n      swap1\n      return\n        /* \"contract/myProject/CNRC_V2/V2_CNRedCross.sol\":33612:33812  function upgradeTo(address newImplementation) external virtual onlyProxy {\r... */\n    tag_7:\n      callvalue\n      dup1\n      iszero\n      tag_52\n      jumpi\n      0x00\n      dup1\n      revert\n    tag_52:\n      pop\n      tag_53\n      0x04\n      dup1\n      calldatasize\n      sub\n      dup2\n      add\n      swap1\n      tag_54\n      swap2\n      swap1\n      tag_55\n      jump\t// in\n    tag_54:\n      tag_56\n      jump\t// in\n    tag_53:\n      stop\n        /* \"contract/myProject/CNRC_V2/V2_CNRedCross.sol\":16793:17031  function increaseAllowance(address spender, uint256 addedValue) public virtual returns (bool) {\r... */\n    tag_8:\n      callvalue\n      dup1\n      iszero\n      tag_57\n      jumpi\n      0x00\n      dup1\n      revert\n    tag_57:\n      pop\n      tag_58\n      0x04\n      dup1\n      calldatasize\n      sub\n      dup2\n      add\n      swap1\n      tag_59\n      swap2\n      swap1\n      tag_32\n      jump\t// in\n    tag_59:\n      tag_60\n      jump\t// in\n    tag_58:\n      mload(0x40)\n      tag_61\n      swap2\n      swap1\n      tag_35\n      jump\t// in\n    tag_61:\n      mload(0x40)\n      dup1\n      swap2\n      sub\n      swap1\n      return\n        /* \"contract/myProject/CNRC_V2/V2_CNRedCross.sol\":35842:35936  function mint(address to, uint256 amount) public onlyOwner{\r... */\n    tag_9:\n      callvalue\n      dup1\n      iszero\n      tag_62\n      jumpi\n      0x00\n      dup1\n      revert\n    tag_62:\n      pop\n      tag_63\n      0x04\n      dup1\n      calldatasize\n      sub\n      dup2\n      add\n      swap1\n      tag_64\n      swap2\n      swap1\n      tag_32\n      jump\t// in\n    tag_64:\n      tag_65\n      jump\t// in\n    tag_63:\n      stop\n        /* \"contract/myProject/CNRC_V2/V2_CNRedCross.sol\":34071:34296  function upgradeToAndCall(address newImplementation, bytes memory data) external payable virtual onlyProxy {\r... */\n    tag_10:\n      tag_66\n      0x04\n      dup1\n      calldatasize\n      sub\n      dup2\n      add\n      swap1\n      tag_67\n      swap2\n      swap1\n      tag_68\n      jump\t// in\n    tag_67:\n      tag_69\n      jump\t// in\n    tag_66:\n      stop\n        /* \"contract/myProject/CNRC_V2/V2_CNRedCross.sol\":33290:33423  function proxiableUUID() external view virtual override notDelegated returns (bytes32) {\r... */\n    tag_11:\n      callvalue\n      dup1\n      iszero\n      tag_70\n      jumpi\n      0x00\n      dup1\n      revert\n    tag_70:\n      pop\n      tag_71\n      tag_72\n      jump\t// in\n    tag_71:\n      mload(0x40)\n      tag_73\n      swap2\n      swap1\n      tag_74\n      jump\t// in\n    tag_73:\n      mload(0x40)\n      dup1\n      swap2\n      sub\n      swap1\n      return\n        /* \"contract/myProject/CNRC_V2/V2_CNRedCross.sol\":15786:15913  function balanceOf(address account) public view virtual override returns (uint256) {\r... */\n    tag_12:\n      callvalue\n      dup1\n      iszero\n      tag_75\n      jumpi\n      0x00\n      dup1\n      revert\n    tag_75:\n      pop\n      tag_76\n      0x04\n      dup1\n      calldatasize\n      sub\n      dup2\n      add\n      swap1\n      tag_77\n      swap2\n      swap1\n      tag_55\n      jump\t// in\n    tag_77:\n      tag_78\n      jump\t// in\n    tag_76:\n      mload(0x40)\n      tag_79\n      swap2\n      swap1\n      tag_40\n      jump\t// in\n    tag_79:\n      mload(0x40)\n      dup1\n      swap2\n      sub\n      swap1\n      return\n        /* \"contract/myProject/CNRC_V2/V2_CNRedCross.sol\":21455:21558  function renounceOwnership() public virtual onlyOwner {\r... */\n    tag_13:\n      callvalue\n      dup1\n      iszero\n      tag_80\n      jumpi\n      0x00\n      dup1\n      revert\n    tag_80:\n      pop\n      tag_81\n      tag_82\n      jump\t// in\n    tag_81:\n      stop\n        /* \"contract/myProject/CNRC_V2/V2_CNRedCross.sol\":35660:35834  function initialize() initializer public{\r... */\n    tag_14:\n      callvalue\n      dup1\n      iszero\n      tag_83\n      jumpi\n      0x00\n      dup1\n      revert\n    tag_83:\n      pop\n      tag_84\n      tag_85\n      jump\t// in\n    tag_84:\n      stop\n        /* \"contract/myProject/CNRC_V2/V2_CNRedCross.sol\":21220:21307  function owner() public view virtual returns (address) {\r... */\n    tag_15:\n      callvalue\n      dup1\n      iszero\n      tag_86\n      jumpi\n      0x00\n      dup1\n      revert\n    tag_86:\n      pop\n      tag_87\n      tag_88\n      jump\t// in\n    tag_87:\n      mload(0x40)\n      tag_89\n      swap2\n      swap1\n      tag_90\n      jump\t// in\n    tag_89:\n      mload(0x40)\n      dup1\n      swap2\n      sub\n      swap1\n      return\n        /* \"contract/myProject/CNRC_V2/V2_CNRedCross.sol\":15457:15561  function symbol() public view virtual override returns (string memory) {\r... */\n    tag_16:\n      callvalue\n      dup1\n      iszero\n      tag_91\n      jumpi\n      0x00\n      dup1\n      revert\n    tag_91:\n      pop\n      tag_92\n      tag_93\n      jump\t// in\n    tag_92:\n      mload(0x40)\n      tag_94\n      swap2\n      swap1\n      tag_28\n      jump\t// in\n    tag_94:\n      mload(0x40)\n      dup1\n      swap2\n      sub\n      swap1\n      return\n        /* \"contract/myProject/CNRC_V2/V2_CNRedCross.sol\":17039:17475  function decreaseAllowance(address spender, uint256 subtractedValue) public virtual returns (bool) {\r... */\n    tag_17:\n      callvalue\n      dup1\n      iszero\n      tag_95\n      jumpi\n      0x00\n      dup1\n      revert\n    tag_95:\n      pop\n      tag_96\n      0x04\n      dup1\n      calldatasize\n      sub\n      dup2\n      add\n      swap1\n      tag_97\n      swap2\n      swap1\n      tag_32\n      jump\t// in\n    tag_97:\n      tag_98\n      jump\t// in\n    tag_96:\n      mload(0x40)\n      tag_99\n      swap2\n      swap1\n      tag_35\n      jump\t// in\n    tag_99:\n      mload(0x40)\n      dup1\n      swap2\n      sub\n      swap1\n      return\n        /* \"contract/myProject/CNRC_V2/V2_CNRedCross.sol\":15921:16114  function transfer(address to, uint256 amount) public virtual override returns (bool) {\r... */\n    tag_18:\n      callvalue\n      dup1\n      iszero\n      tag_100\n      jumpi\n      0x00\n      dup1\n      revert\n    tag_100:\n      pop\n      tag_101\n      0x04\n      dup1\n      calldatasize\n      sub\n      dup2\n      add\n      swap1\n      tag_102\n      swap2\n      swap1\n      tag_32\n      jump\t// in\n    tag_102:\n      tag_103\n      jump\t// in\n    tag_101:\n      mload(0x40)\n      tag_104\n      swap2\n      swap1\n      tag_35\n      jump\t// in\n    tag_104:\n      mload(0x40)\n      dup1\n      swap2\n      sub\n      swap1\n      return\n        /* \"contract/myProject/CNRC_V2/V2_CNRedCross.sol\":16122:16273  function allowance(address owner, address spender) public view virtual override returns (uint256) {\r... */\n    tag_19:\n      callvalue\n      dup1\n      iszero\n      tag_105\n      jumpi\n      0x00\n      dup1\n      revert\n    tag_105:\n      pop\n      tag_106\n      0x04\n      dup1\n      calldatasize\n      sub\n      dup2\n      add\n      swap1\n      tag_107\n      swap2\n      swap1\n      tag_108\n      jump\t// in\n    tag_107:\n      tag_109\n      jump\t// in\n    tag_106:\n      mload(0x40)\n      tag_110\n      swap2\n      swap1\n      tag_40\n      jump\t// in\n    tag_110:\n      mload(0x40)\n      dup1\n      swap2\n      sub\n      swap1\n      return\n        /* \"contract/myProject/CNRC_V2/V2_CNRedCross.sol\":21566:21767  function transferOwnership(address newOwner) public virtual onlyOwner {\r... */\n    tag_20:\n      callvalue\n      dup1\n      iszero\n      tag_111\n      jumpi\n      0x00\n      dup1\n      revert\n    tag_111:\n      pop\n      tag_112\n      0x04\n      dup1\n      calldatasize\n      sub\n      dup2\n      add\n      swap1\n      tag_113\n      swap2\n      swap1\n      tag_55\n      jump\t// in\n    tag_113:\n      tag_114\n      jump\t// in\n    tag_112:\n      stop\n        /* \"contract/myProject/CNRC_V2/V2_CNRedCross.sol\":15349:15449  function name() public view virtual override returns (string memory) {\r... */\n    tag_26:\n        /* \"contract/myProject/CNRC_V2/V2_CNRedCross.sol\":15403:15416  string memory */\n      0x60\n        /* \"contract/myProject/CNRC_V2/V2_CNRedCross.sol\":15436:15441  _name */\n      0x36\n        /* \"contract/myProject/CNRC_V2/V2_CNRedCross.sol\":15429:15441  return _name */\n      dup1\n      sload\n      tag_116\n      swap1\n      tag_117\n      jump\t// in\n    tag_116:\n      dup1\n      0x1f\n      add\n      0x20\n      dup1\n      swap2\n      div\n      mul\n      0x20\n      add\n      mload(0x40)\n      swap1\n      dup2\n      add\n      0x40\n      mstore\n      dup1\n      swap3\n      swap2\n      swap1\n      dup2\n      dup2\n      mstore\n      0x20\n      add\n      dup3\n      dup1\n      sload\n      tag_118\n      swap1\n      tag_117\n      jump\t// in\n    tag_118:\n      dup1\n      iszero\n      tag_119\n      jumpi\n      dup1\n      0x1f\n      lt\n      tag_120\n      jumpi\n      0x0100\n      dup1\n      dup4\n      sload\n      div\n      mul\n      dup4\n      mstore\n      swap2\n      0x20\n      add\n      swap2\n      jump(tag_119)\n    tag_120:\n      dup3\n      add\n      swap2\n      swap1\n      0x00\n      mstore\n      keccak256(0x00, 0x20)\n      swap1\n    tag_121:\n      dup2\n      sload\n      dup2\n      mstore\n      swap1\n      0x01\n      add\n      swap1\n      0x20\n      add\n      dup1\n      dup4\n      gt\n      tag_121\n      jumpi\n      dup3\n      swap1\n      sub\n      0x1f\n      and\n      dup3\n      add\n      swap2\n    tag_119:\n      pop\n      pop\n      pop\n      pop\n      pop\n      swap1\n      pop\n        /* \"contract/myProject/CNRC_V2/V2_CNRedCross.sol\":15349:15449  function name() public view virtual override returns (string memory) {\r... */\n      swap1\n      jump\t// out\n        /* \"contract/myProject/CNRC_V2/V2_CNRedCross.sol\":16281:16482  function approve(address spender, uint256 amount) public virtual override returns (bool) {\r... */\n    tag_33:\n        /* \"contract/myProject/CNRC_V2/V2_CNRedCross.sol\":16364:16368  bool */\n      0x00\n        /* \"contract/myProject/CNRC_V2/V2_CNRedCross.sol\":16381:16394  address owner */\n      dup1\n        /* \"contract/myProject/CNRC_V2/V2_CNRedCross.sol\":16397:16409  _msgSender() */\n      tag_123\n        /* \"contract/myProject/CNRC_V2/V2_CNRedCross.sol\":16397:16407  _msgSender */\n      tag_124\n        /* \"contract/myProject/CNRC_V2/V2_CNRedCross.sol\":16397:16409  _msgSender() */\n      jump\t// in\n    tag_123:\n        /* \"contract/myProject/CNRC_V2/V2_CNRedCross.sol\":16381:16409  address owner = _msgSender() */\n      swap1\n      pop\n        /* \"contract/myProject/CNRC_V2/V2_CNRedCross.sol\":16420:16452  _approve(owner, spender, amount) */\n      tag_125\n        /* \"contract/myProject/CNRC_V2/V2_CNRedCross.sol\":16429:16434  owner */\n      dup2\n        /* \"contract/myProject/CNRC_V2/V2_CNRedCross.sol\":16436:16443  spender */\n      dup6\n        /* \"contract/myProject/CNRC_V2/V2_CNRedCross.sol\":16445:16451  amount */\n      dup6\n        /* \"contract/myProject/CNRC_V2/V2_CNRedCross.sol\":16420:16428  _approve */\n      tag_126\n        /* \"contract/myProject/CNRC_V2/V2_CNRedCross.sol\":16420:16452  _approve(owner, spender, amount) */\n      jump\t// in\n    tag_125:\n        /* \"contract/myProject/CNRC_V2/V2_CNRedCross.sol\":16470:16474  true */\n      0x01\n        /* \"contract/myProject/CNRC_V2/V2_CNRedCross.sol\":16463:16474  return true */\n      swap2\n      pop\n      pop\n        /* \"contract/myProject/CNRC_V2/V2_CNRedCross.sol\":16281:16482  function approve(address spender, uint256 amount) public virtual override returns (bool) {\r... */\n      swap3\n      swap2\n      pop\n      pop\n      jump\t// out\n        /* \"contract/myProject/CNRC_V2/V2_CNRedCross.sol\":15670:15778  function totalSupply() public view virtual override returns (uint256) {\r... */\n    tag_38:\n        /* \"contract/myProject/CNRC_V2/V2_CNRedCross.sol\":15731:15738  uint256 */\n      0x00\n        /* \"contract/myProject/CNRC_V2/V2_CNRedCross.sol\":15758:15770  _totalSupply */\n      sload(0x35)\n        /* \"contract/myProject/CNRC_V2/V2_CNRedCross.sol\":15751:15770  return _totalSupply */\n      swap1\n      pop\n        /* \"contract/myProject/CNRC_V2/V2_CNRedCross.sol\":15670:15778  function totalSupply() public view virtual override returns (uint256) {\r... */\n      swap1\n      jump\t// out\n        /* \"contract/myProject/CNRC_V2/V2_CNRedCross.sol\":16490:16785  function transferFrom(\r... */\n    tag_45:\n        /* \"contract/myProject/CNRC_V2/V2_CNRedCross.sol\":16621:16625  bool */\n      0x00\n        /* \"contract/myProject/CNRC_V2/V2_CNRedCross.sol\":16638:16653  address spender */\n      dup1\n        /* \"contract/myProject/CNRC_V2/V2_CNRedCross.sol\":16656:16668  _msgSender() */\n      tag_129\n        /* \"contract/myProject/CNRC_V2/V2_CNRedCross.sol\":16656:16666  _msgSender */\n      tag_124\n        /* \"contract/myProject/CNRC_V2/V2_CNRedCross.sol\":16656:16668  _msgSender() */\n      jump\t// in\n    tag_129:\n        /* \"contract/myProject/CNRC_V2/V2_CNRedCross.sol\":16638:16668  address spender = _msgSender() */\n      swap1\n      pop\n        /* \"contract/myProject/CNRC_V2/V2_CNRedCross.sol\":16679:16717  _spendAllowance(from, spender, amount) */\n      tag_130\n        /* \"contract/myProject/CNRC_V2/V2_CNRedCross.sol\":16695:16699  from */\n      dup6\n        /* \"contract/myProject/CNRC_V2/V2_CNRedCross.sol\":16701:16708  spender */\n      dup3\n        /* \"contract/myProject/CNRC_V2/V2_CNRedCross.sol\":16710:16716  amount */\n      dup6\n        /* \"contract/myProject/CNRC_V2/V2_CNRedCross.sol\":16679:16694  _spendAllowance */\n      tag_131\n        /* \"contract/myProject/CNRC_V2/V2_CNRedCross.sol\":16679:16717  _spendAllowance(from, spender, amount) */\n      jump\t// in\n    tag_130:\n        /* \"contract/myProject/CNRC_V2/V2_CNRedCross.sol\":16728:16755  _transfer(from, to, amount) */\n      tag_132\n        /* \"contract/myProject/CNRC_V2/V2_CNRedCross.sol\":16738:16742  from */\n      dup6\n        /* \"contract/myProject/CNRC_V2/V2_CNRedCross.sol\":16744:16746  to */\n      dup6\n        /* \"contract/myProject/CNRC_V2/V2_CNRedCross.sol\":16748:16754  amount */\n      dup6\n        /* \"contract/myProject/CNRC_V2/V2_CNRedCross.sol\":16728:16737  _transfer */\n      tag_133\n        /* \"contract/myProject/CNRC_V2/V2_CNRedCross.sol\":16728:16755  _transfer(from, to, amount) */\n      jump\t// in\n    tag_132:\n        /* \"contract/myProject/CNRC_V2/V2_CNRedCross.sol\":16773:16777  true */\n      0x01\n        /* \"contract/myProject/CNRC_V2/V2_CNRedCross.sol\":16766:16777  return true */\n      swap2\n      pop\n      pop\n        /* \"contract/myProject/CNRC_V2/V2_CNRedCross.sol\":16490:16785  function transferFrom(\r... */\n      swap4\n      swap3\n      pop\n      pop\n      pop\n      jump\t// out\n        /* \"contract/myProject/CNRC_V2/V2_CNRedCross.sol\":15569:15662  function decimals() public view virtual override returns (uint8) {\r... */\n    tag_49:\n        /* \"contract/myProject/CNRC_V2/V2_CNRedCross.sol\":15627:15632  uint8 */\n      0x00\n        /* \"contract/myProject/CNRC_V2/V2_CNRedCross.sol\":15652:15654  18 */\n      0x12\n        /* \"contract/myProject/CNRC_V2/V2_CNRedCross.sol\":15645:15654  return 18 */\n      swap1\n      pop\n        /* \"contract/myProject/CNRC_V2/V2_CNRedCross.sol\":15569:15662  function decimals() public view virtual override returns (uint8) {\r... */\n      swap1\n      jump\t// out\n        /* \"contract/myProject/CNRC_V2/V2_CNRedCross.sol\":33612:33812  function upgradeTo(address newImplementation) external virtual onlyProxy {\r... */\n    tag_56:\n        /* \"contract/myProject/CNRC_V2/V2_CNRedCross.sol\":32162:32168  __self */\n      immutable(\"0x73c522618c20933f5fa3ae5b02e92f7378fc54c8e43b084b321268c5e5c99f05\")\n        /* \"contract/myProject/CNRC_V2/V2_CNRedCross.sol\":32145:32168  address(this) != __self */\n      0xffffffffffffffffffffffffffffffffffffffff\n      and\n        /* \"contract/myProject/CNRC_V2/V2_CNRedCross.sol\":32153:32157  this */\n      address\n        /* \"contract/myProject/CNRC_V2/V2_CNRedCross.sol\":32145:32168  address(this) != __self */\n      0xffffffffffffffffffffffffffffffffffffffff\n      and\n      eq\n      iszero\n        /* \"contract/myProject/CNRC_V2/V2_CNRedCross.sol\":32137:32217  require(address(this) != __self, \"Function must be called through delegatecall\") */\n      tag_136\n      jumpi\n      mload(0x40)\n      0x08c379a000000000000000000000000000000000000000000000000000000000\n      dup2\n      mstore\n      0x04\n      add\n      tag_137\n      swap1\n      tag_138\n      jump\t// in\n    tag_137:\n      mload(0x40)\n      dup1\n      swap2\n      sub\n      swap1\n      revert\n    tag_136:\n        /* \"contract/myProject/CNRC_V2/V2_CNRedCross.sol\":32260:32266  __self */\n      immutable(\"0x73c522618c20933f5fa3ae5b02e92f7378fc54c8e43b084b321268c5e5c99f05\")\n        /* \"contract/myProject/CNRC_V2/V2_CNRedCross.sol\":32236:32266  _getImplementation() == __self */\n      0xffffffffffffffffffffffffffffffffffffffff\n      and\n        /* \"contract/myProject/CNRC_V2/V2_CNRedCross.sol\":32236:32256  _getImplementation() */\n      tag_139\n        /* \"contract/myProject/CNRC_V2/V2_CNRedCross.sol\":32236:32254  _getImplementation */\n      tag_140\n        /* \"contract/myProject/CNRC_V2/V2_CNRedCross.sol\":32236:32256  _getImplementation() */\n      jump\t// in\n    tag_139:\n        /* \"contract/myProject/CNRC_V2/V2_CNRedCross.sol\":32236:32266  _getImplementation() == __self */\n      0xffffffffffffffffffffffffffffffffffffffff\n      and\n      eq\n        /* \"contract/myProject/CNRC_V2/V2_CNRedCross.sol\":32228:32315  require(_getImplementation() == __self, \"Function must be called through active proxy\") */\n      tag_141\n      jumpi\n      mload(0x40)\n      0x08c379a000000000000000000000000000000000000000000000000000000000\n      dup2\n      mstore\n      0x04\n      add\n      tag_142\n      swap1\n      tag_143\n      jump\t// in\n    tag_142:\n      mload(0x40)\n      dup1\n      swap2\n      sub\n      swap1\n      revert\n    tag_141:\n        /* \"contract/myProject/CNRC_V2/V2_CNRedCross.sol\":33696:33732  _authorizeUpgrade(newImplementation) */\n      tag_145\n        /* \"contract/myProject/CNRC_V2/V2_CNRedCross.sol\":33714:33731  newImplementation */\n      dup2\n        /* \"contract/myProject/CNRC_V2/V2_CNRedCross.sol\":33696:33713  _authorizeUpgrade */\n      tag_146\n        /* \"contract/myProject/CNRC_V2/V2_CNRedCross.sol\":33696:33732  _authorizeUpgrade(newImplementation) */\n      jump\t// in\n    tag_145:\n        /* \"contract/myProject/CNRC_V2/V2_CNRedCross.sol\":33743:33804  _upgradeToAndCallUUPS(newImplementation, new bytes(0), false) */\n      tag_147\n        /* \"contract/myProject/CNRC_V2/V2_CNRedCross.sol\":33765:33782  newImplementation */\n      dup2\n        /* \"contract/myProject/CNRC_V2/V2_CNRedCross.sol\":33794:33795  0 */\n      0x00\n        /* \"contract/myProject/CNRC_V2/V2_CNRedCross.sol\":33784:33796  new bytes(0) */\n      0xffffffffffffffff\n      dup2\n      gt\n      iszero\n      tag_148\n      jumpi\n      tag_149\n      tag_150\n      jump\t// in\n    tag_149:\n    tag_148:\n      mload(0x40)\n      swap1\n      dup1\n      dup3\n      mstore\n      dup1\n      0x1f\n      add\n      not(0x1f)\n      and\n      0x20\n      add\n      dup3\n      add\n      0x40\n      mstore\n      dup1\n      iszero\n      tag_151\n      jumpi\n      dup2\n      0x20\n      add\n      0x01\n      dup3\n      mul\n      dup1\n      calldatasize\n      dup4\n      calldatacopy\n      dup1\n      dup3\n      add\n      swap2\n      pop\n      pop\n      swap1\n      pop\n    tag_151:\n      pop\n        /* \"contract/myProject/CNRC_V2/V2_CNRedCross.sol\":33798:33803  false */\n      0x00\n        /* \"contract/myProject/CNRC_V2/V2_CNRedCross.sol\":33743:33764  _upgradeToAndCallUUPS */\n      tag_152\n        /* \"contract/myProject/CNRC_V2/V2_CNRedCross.sol\":33743:33804  _upgradeToAndCallUUPS(newImplementation, new bytes(0), false) */\n      jump\t// in\n    tag_147:\n        /* \"contract/myProject/CNRC_V2/V2_CNRedCross.sol\":33612:33812  function upgradeTo(address newImplementation) external virtual onlyProxy {\r... */\n      pop\n      jump\t// out\n        /* \"contract/myProject/CNRC_V2/V2_CNRedCross.sol\":16793:17031  function increaseAllowance(address spender, uint256 addedValue) public virtual returns (bool) {\r... */\n    tag_60:\n        /* \"contract/myProject/CNRC_V2/V2_CNRedCross.sol\":16881:16885  bool */\n      0x00\n        /* \"contract/myProject/CNRC_V2/V2_CNRedCross.sol\":16898:16911  address owner */\n      dup1\n        /* \"contract/myProject/CNRC_V2/V2_CNRedCross.sol\":16914:16926  _msgSender() */\n      tag_154\n        /* \"contract/myProject/CNRC_V2/V2_CNRedCross.sol\":16914:16924  _msgSender */\n      tag_124\n        /* \"contract/myProject/CNRC_V2/V2_CNRedCross.sol\":16914:16926  _msgSender() */\n      jump\t// in\n    tag_154:\n        /* \"contract/myProject/CNRC_V2/V2_CNRedCross.sol\":16898:16926  address owner = _msgSender() */\n      swap1\n      pop\n        /* \"contract/myProject/CNRC_V2/V2_CNRedCross.sol\":16937:17001  _approve(owner, spender, allowance(owner, spender) + addedValue) */\n      tag_155\n        /* \"contract/myProject/CNRC_V2/V2_CNRedCross.sol\":16946:16951  owner */\n      dup2\n        /* \"contract/myProject/CNRC_V2/V2_CNRedCross.sol\":16953:16960  spender */\n      dup6\n        /* \"contract/myProject/CNRC_V2/V2_CNRedCross.sol\":16990:17000  addedValue */\n      dup6\n        /* \"contract/myProject/CNRC_V2/V2_CNRedCross.sol\":16962:16987  allowance(owner, spender) */\n      tag_156\n        /* \"contract/myProject/CNRC_V2/V2_CNRedCross.sol\":16972:16977  owner */\n      dup6\n        /* \"contract/myProject/CNRC_V2/V2_CNRedCross.sol\":16979:16986  spender */\n      dup10\n        /* \"contract/myProject/CNRC_V2/V2_CNRedCross.sol\":16962:16971  allowance */\n      tag_109\n        /* \"contract/myProject/CNRC_V2/V2_CNRedCross.sol\":16962:16987  allowance(owner, spender) */\n      jump\t// in\n    tag_156:\n        /* \"contract/myProject/CNRC_V2/V2_CNRedCross.sol\":16962:17000  allowance(owner, spender) + addedValue */\n      tag_157\n      swap2\n      swap1\n      tag_158\n      jump\t// in\n    tag_157:\n        /* \"contract/myProject/CNRC_V2/V2_CNRedCross.sol\":16937:16945  _approve */\n      tag_126\n        /* \"contract/myProject/CNRC_V2/V2_CNRedCross.sol\":16937:17001  _approve(owner, spender, allowance(owner, spender) + addedValue) */\n      jump\t// in\n    tag_155:\n        /* \"contract/myProject/CNRC_V2/V2_CNRedCross.sol\":17019:17023  true */\n      0x01\n        /* \"contract/myProject/CNRC_V2/V2_CNRedCross.sol\":17012:17023  return true */\n      swap2\n      pop\n      pop\n        /* \"contract/myProject/CNRC_V2/V2_CNRedCross.sol\":16793:17031  function increaseAllowance(address spender, uint256 addedValue) public virtual returns (bool) {\r... */\n      swap3\n      swap2\n      pop\n      pop\n      jump\t// out\n        /* \"contract/myProject/CNRC_V2/V2_CNRedCross.sol\":35842:35936  function mint(address to, uint256 amount) public onlyOwner{\r... */\n    tag_65:\n        /* \"contract/myProject/CNRC_V2/V2_CNRedCross.sol\":21179:21192  _checkOwner() */\n      tag_160\n        /* \"contract/myProject/CNRC_V2/V2_CNRedCross.sol\":21179:21190  _checkOwner */\n      tag_161\n        /* \"contract/myProject/CNRC_V2/V2_CNRedCross.sol\":21179:21192  _checkOwner() */\n      jump\t// in\n    tag_160:\n        /* \"contract/myProject/CNRC_V2/V2_CNRedCross.sol\":35911:35928  _mint(to, amount) */\n      tag_163\n        /* \"contract/myProject/CNRC_V2/V2_CNRedCross.sol\":35917:35919  to */\n      dup3\n        /* \"contract/myProject/CNRC_V2/V2_CNRedCross.sol\":35921:35927  amount */\n      dup3\n        /* \"contract/myProject/CNRC_V2/V2_CNRedCross.sol\":35911:35916  _mint */\n      tag_164\n        /* \"contract/myProject/CNRC_V2/V2_CNRedCross.sol\":35911:35928  _mint(to, amount) */\n      jump\t// in\n    tag_163:\n        /* \"contract/myProject/CNRC_V2/V2_CNRedCross.sol\":35842:35936  function mint(address to, uint256 amount) public onlyOwner{\r... */\n      pop\n      pop\n      jump\t// out\n        /* \"contract/myProject/CNRC_V2/V2_CNRedCross.sol\":34071:34296  function upgradeToAndCall(address newImplementation, bytes memory data) external payable virtual onlyProxy {\r... */\n    tag_69:\n        /* \"contract/myProject/CNRC_V2/V2_CNRedCross.sol\":32162:32168  __self */\n      immutable(\"0x73c522618c20933f5fa3ae5b02e92f7378fc54c8e43b084b321268c5e5c99f05\")\n        /* \"contract/myProject/CNRC_V2/V2_CNRedCross.sol\":32145:32168  address(this) != __self */\n      0xffffffffffffffffffffffffffffffffffffffff\n      and\n        /* \"contract/myProject/CNRC_V2/V2_CNRedCross.sol\":32153:32157  this */\n      address\n        /* \"contract/myProject/CNRC_V2/V2_CNRedCross.sol\":32145:32168  address(this) != __self */\n      0xffffffffffffffffffffffffffffffffffffffff\n      and\n      eq\n      iszero\n        /* \"contract/myProject/CNRC_V2/V2_CNRedCross.sol\":32137:32217  require(address(this) != __self, \"Function must be called through delegatecall\") */\n      tag_166\n      jumpi\n      mload(0x40)\n      0x08c379a000000000000000000000000000000000000000000000000000000000\n      dup2\n      mstore\n      0x04\n      add\n      tag_167\n      swap1\n      tag_138\n      jump\t// in\n    tag_167:\n      mload(0x40)\n      dup1\n      swap2\n      sub\n      swap1\n      revert\n    tag_166:\n        /* \"contract/myProject/CNRC_V2/V2_CNRedCross.sol\":32260:32266  __self */\n      immutable(\"0x73c522618c20933f5fa3ae5b02e92f7378fc54c8e43b084b321268c5e5c99f05\")\n        /* \"contract/myProject/CNRC_V2/V2_CNRedCross.sol\":32236:32266  _getImplementation() == __self */\n      0xffffffffffffffffffffffffffffffffffffffff\n      and\n        /* \"contract/myProject/CNRC_V2/V2_CNRedCross.sol\":32236:32256  _getImplementation() */\n      tag_168\n        /* \"contract/myProject/CNRC_V2/V2_CNRedCross.sol\":32236:32254  _getImplementation */\n      tag_140\n        /* \"contract/myProject/CNRC_V2/V2_CNRedCross.sol\":32236:32256  _getImplementation() */\n      jump\t// in\n    tag_168:\n        /* \"contract/myProject/CNRC_V2/V2_CNRedCross.sol\":32236:32266  _getImplementation() == __self */\n      0xffffffffffffffffffffffffffffffffffffffff\n      and\n      eq\n        /* \"contract/myProject/CNRC_V2/V2_CNRedCross.sol\":32228:32315  require(_getImplementation() == __self, \"Function must be called through active proxy\") */\n      tag_169\n      jumpi\n      mload(0x40)\n      0x08c379a000000000000000000000000000000000000000000000000000000000\n      dup2\n      mstore\n      0x04\n      add\n      tag_170\n      swap1\n      tag_143\n      jump\t// in\n    tag_170:\n      mload(0x40)\n      dup1\n      swap2\n      sub\n      swap1\n      revert\n    tag_169:\n        /* \"contract/myProject/CNRC_V2/V2_CNRedCross.sol\":34189:34225  _authorizeUpgrade(newImplementation) */\n      tag_172\n        /* \"contract/myProject/CNRC_V2/V2_CNRedCross.sol\":34207:34224  newImplementation */\n      dup3\n        /* \"contract/myProject/CNRC_V2/V2_CNRedCross.sol\":34189:34206  _authorizeUpgrade */\n      tag_146\n        /* \"contract/myProject/CNRC_V2/V2_CNRedCross.sol\":34189:34225  _authorizeUpgrade(newImplementation) */\n      jump\t// in\n    tag_172:\n        /* \"contract/myProject/CNRC_V2/V2_CNRedCross.sol\":34236:34288  _upgradeToAndCallUUPS(newImplementation, data, true) */\n      tag_173\n        /* \"contract/myProject/CNRC_V2/V2_CNRedCross.sol\":34258:34275  newImplementation */\n      dup3\n        /* \"contract/myProject/CNRC_V2/V2_CNRedCross.sol\":34277:34281  data */\n      dup3\n        /* \"contract/myProject/CNRC_V2/V2_CNRedCross.sol\":34283:34287  true */\n      0x01\n        /* \"contract/myProject/CNRC_V2/V2_CNRedCross.sol\":34236:34257  _upgradeToAndCallUUPS */\n      tag_152\n        /* \"contract/myProject/CNRC_V2/V2_CNRedCross.sol\":34236:34288  _upgradeToAndCallUUPS(newImplementation, data, true) */\n      jump\t// in\n    tag_173:\n        /* \"contract/myProject/CNRC_V2/V2_CNRedCross.sol\":34071:34296  function upgradeToAndCall(address newImplementation, bytes memory data) external payable virtual onlyProxy {\r... */\n      pop\n      pop\n      jump\t// out\n        /* \"contract/myProject/CNRC_V2/V2_CNRedCross.sol\":33290:33423  function proxiableUUID() external view virtual override notDelegated returns (bytes32) {\r... */\n    tag_72:\n        /* \"contract/myProject/CNRC_V2/V2_CNRedCross.sol\":33368:33375  bytes32 */\n      0x00\n        /* \"contract/myProject/CNRC_V2/V2_CNRedCross.sol\":32607:32613  __self */\n      immutable(\"0x73c522618c20933f5fa3ae5b02e92f7378fc54c8e43b084b321268c5e5c99f05\")\n        /* \"contract/myProject/CNRC_V2/V2_CNRedCross.sol\":32590:32613  address(this) == __self */\n      0xffffffffffffffffffffffffffffffffffffffff\n      and\n        /* \"contract/myProject/CNRC_V2/V2_CNRedCross.sol\":32598:32602  this */\n      address\n        /* \"contract/myProject/CNRC_V2/V2_CNRedCross.sol\":32590:32613  address(this) == __self */\n      0xffffffffffffffffffffffffffffffffffffffff\n      and\n      eq\n        /* \"contract/myProject/CNRC_V2/V2_CNRedCross.sol\":32582:32674  require(address(this) == __self, \"UUPSUpgradeable: must not be called through delegatecall\") */\n      tag_175\n      jumpi\n      mload(0x40)\n      0x08c379a000000000000000000000000000000000000000000000000000000000\n      dup2\n      mstore\n      0x04\n      add\n      tag_176\n      swap1\n      tag_177\n      jump\t// in\n    tag_176:\n      mload(0x40)\n      dup1\n      swap2\n      sub\n      swap1\n      revert\n    tag_175:\n        /* \"contract/myProject/CNRC_V2/V2_CNRedCross.sol\":23788:23854  0x360894a13ba1a3210667c828492db98dca3e2076cc3735a920a3ca505d382bbc */\n      0x360894a13ba1a3210667c828492db98dca3e2076cc3735a920a3ca505d382bbc\n        /* \"contract/myProject/CNRC_V2/V2_CNRedCross.sol\":33395:33415  _IMPLEMENTATION_SLOT */\n      0x00\n      shl\n        /* \"contract/myProject/CNRC_V2/V2_CNRedCross.sol\":33388:33415  return _IMPLEMENTATION_SLOT */\n      swap1\n      pop\n        /* \"contract/myProject/CNRC_V2/V2_CNRedCross.sol\":33290:33423  function proxiableUUID() external view virtual override notDelegated returns (bytes32) {\r... */\n      swap1\n      jump\t// out\n        /* \"contract/myProject/CNRC_V2/V2_CNRedCross.sol\":15786:15913  function balanceOf(address account) public view virtual override returns (uint256) {\r... */\n    tag_78:\n        /* \"contract/myProject/CNRC_V2/V2_CNRedCross.sol\":15860:15867  uint256 */\n      0x00\n        /* \"contract/myProject/CNRC_V2/V2_CNRedCross.sol\":15887:15896  _balances */\n      0x33\n        /* \"contract/myProject/CNRC_V2/V2_CNRedCross.sol\":15887:15905  _balances[account] */\n      0x00\n        /* \"contract/myProject/CNRC_V2/V2_CNRedCross.sol\":15897:15904  account */\n      dup4\n        /* \"contract/myProject/CNRC_V2/V2_CNRedCross.sol\":15887:15905  _balances[account] */\n      0xffffffffffffffffffffffffffffffffffffffff\n      and\n      0xffffffffffffffffffffffffffffffffffffffff\n      and\n      dup2\n      mstore\n      0x20\n      add\n      swap1\n      dup2\n      mstore\n      0x20\n      add\n      0x00\n      keccak256\n      sload\n        /* \"contract/myProject/CNRC_V2/V2_CNRedCross.sol\":15880:15905  return _balances[account] */\n      swap1\n      pop\n        /* \"contract/myProject/CNRC_V2/V2_CNRedCross.sol\":15786:15913  function balanceOf(address account) public view virtual override returns (uint256) {\r... */\n      swap2\n      swap1\n      pop\n      jump\t// out\n        /* \"contract/myProject/CNRC_V2/V2_CNRedCross.sol\":21455:21558  function renounceOwnership() public virtual onlyOwner {\r... */\n    tag_82:\n        /* \"contract/myProject/CNRC_V2/V2_CNRedCross.sol\":21179:21192  _checkOwner() */\n      tag_181\n        /* \"contract/myProject/CNRC_V2/V2_CNRedCross.sol\":21179:21190  _checkOwner */\n      tag_161\n        /* \"contract/myProject/CNRC_V2/V2_CNRedCross.sol\":21179:21192  _checkOwner() */\n      jump\t// in\n    tag_181:\n        /* \"contract/myProject/CNRC_V2/V2_CNRedCross.sol\":21520:21550  _transferOwnership(address(0)) */\n      tag_183\n        /* \"contract/myProject/CNRC_V2/V2_CNRedCross.sol\":21547:21548  0 */\n      0x00\n        /* \"contract/myProject/CNRC_V2/V2_CNRedCross.sol\":21520:21538  _transferOwnership */\n      tag_184\n        /* \"contract/myProject/CNRC_V2/V2_CNRedCross.sol\":21520:21550  _transferOwnership(address(0)) */\n      jump\t// in\n    tag_183:\n        /* \"contract/myProject/CNRC_V2/V2_CNRedCross.sol\":21455:21558  function renounceOwnership() public virtual onlyOwner {\r... */\n      jump\t// out\n        /* \"contract/myProject/CNRC_V2/V2_CNRedCross.sol\":35660:35834  function initialize() initializer public{\r... */\n    tag_85:\n        /* \"contract/myProject/CNRC_V2/V2_CNRedCross.sol\":10632:10651  bool isTopLevelCall */\n      0x00\n        /* \"contract/myProject/CNRC_V2/V2_CNRedCross.sol\":10655:10668  _initializing */\n      dup1\n      0x01\n      swap1\n      sload\n      swap1\n      0x0100\n      exp\n      swap1\n      div\n      0xff\n      and\n        /* \"contract/myProject/CNRC_V2/V2_CNRedCross.sol\":10654:10668  !_initializing */\n      iszero\n        /* \"contract/myProject/CNRC_V2/V2_CNRedCross.sol\":10632:10668  bool isTopLevelCall = !_initializing */\n      swap1\n      pop\n        /* \"contract/myProject/CNRC_V2/V2_CNRedCross.sol\":10702:10716  isTopLevelCall */\n      dup1\n        /* \"contract/myProject/CNRC_V2/V2_CNRedCross.sol\":10702:10736  isTopLevelCall && _initialized < 1 */\n      dup1\n      iszero\n      tag_186\n      jumpi\n      pop\n        /* \"contract/myProject/CNRC_V2/V2_CNRedCross.sol\":10735:10736  1 */\n      0x01\n        /* \"contract/myProject/CNRC_V2/V2_CNRedCross.sol\":10720:10732  _initialized */\n      0x00\n      dup1\n      sload\n      swap1\n      0x0100\n      exp\n      swap1\n      div\n      0xff\n      and\n        /* \"contract/myProject/CNRC_V2/V2_CNRedCross.sol\":10720:10736  _initialized < 1 */\n      0xff\n      and\n      lt\n        /* \"contract/myProject/CNRC_V2/V2_CNRedCross.sol\":10702:10736  isTopLevelCall && _initialized < 1 */\n    tag_186:\n        /* \"contract/myProject/CNRC_V2/V2_CNRedCross.sol\":10701:10809  (isTopLevelCall && _initialized < 1) || (!AddressUpgradeable.isContract(address(this)) && _initialized == 1) */\n      dup1\n      tag_187\n      jumpi\n      pop\n        /* \"contract/myProject/CNRC_V2/V2_CNRedCross.sol\":10743:10787  AddressUpgradeable.isContract(address(this)) */\n      tag_188\n        /* \"contract/myProject/CNRC_V2/V2_CNRedCross.sol\":10781:10785  this */\n      address\n        /* \"contract/myProject/CNRC_V2/V2_CNRedCross.sol\":10743:10772  AddressUpgradeable.isContract */\n      tag_189\n        /* \"contract/myProject/CNRC_V2/V2_CNRedCross.sol\":10743:10787  AddressUpgradeable.isContract(address(this)) */\n      jump\t// in\n    tag_188:\n        /* \"contract/myProject/CNRC_V2/V2_CNRedCross.sol\":10742:10787  !AddressUpgradeable.isContract(address(this)) */\n      iszero\n        /* \"contract/myProject/CNRC_V2/V2_CNRedCross.sol\":10742:10808  !AddressUpgradeable.isContract(address(this)) && _initialized == 1 */\n      dup1\n      iszero\n      tag_190\n      jumpi\n      pop\n        /* \"contract/myProject/CNRC_V2/V2_CNRedCross.sol\":10807:10808  1 */\n      0x01\n        /* \"contract/myProject/CNRC_V2/V2_CNRedCross.sol\":10791:10803  _initialized */\n      0x00\n      dup1\n      sload\n      swap1\n      0x0100\n      exp\n      swap1\n      div\n      0xff\n      and\n        /* \"contract/myProject/CNRC_V2/V2_CNRedCross.sol\":10791:10808  _initialized == 1 */\n      0xff\n      and\n      eq\n        /* \"contract/myProject/CNRC_V2/V2_CNRedCross.sol\":10742:10808  !AddressUpgradeable.isContract(address(this)) && _initialized == 1 */\n    tag_190:\n        /* \"contract/myProject/CNRC_V2/V2_CNRedCross.sol\":10701:10809  (isTopLevelCall && _initialized < 1) || (!AddressUpgradeable.isContract(address(this)) && _initialized == 1) */\n    tag_187:\n        /* \"contract/myProject/CNRC_V2/V2_CNRedCross.sol\":10679:10883  require(\r... */\n      tag_191\n      jumpi\n      mload(0x40)\n      0x08c379a000000000000000000000000000000000000000000000000000000000\n      dup2\n      mstore\n      0x04\n      add\n      tag_192\n      swap1\n      tag_193\n      jump\t// in\n    tag_192:\n      mload(0x40)\n      dup1\n      swap2\n      sub\n      swap1\n      revert\n    tag_191:\n        /* \"contract/myProject/CNRC_V2/V2_CNRedCross.sol\":10909:10910  1 */\n      0x01\n        /* \"contract/myProject/CNRC_V2/V2_CNRedCross.sol\":10894:10906  _initialized */\n      0x00\n      dup1\n        /* \"contract/myProject/CNRC_V2/V2_CNRedCross.sol\":10894:10910  _initialized = 1 */\n      0x0100\n      exp\n      dup2\n      sload\n      dup2\n      0xff\n      mul\n      not\n      and\n      swap1\n      dup4\n      0xff\n      and\n      mul\n      or\n      swap1\n      sstore\n      pop\n        /* \"contract/myProject/CNRC_V2/V2_CNRedCross.sol\":10925:10939  isTopLevelCall */\n      dup1\n        /* \"contract/myProject/CNRC_V2/V2_CNRedCross.sol\":10921:10988  if (isTopLevelCall) {\r... */\n      iszero\n      tag_194\n      jumpi\n        /* \"contract/myProject/CNRC_V2/V2_CNRedCross.sol\":10972:10976  true */\n      0x01\n        /* \"contract/myProject/CNRC_V2/V2_CNRedCross.sol\":10956:10969  _initializing */\n      0x00\n      0x01\n        /* \"contract/myProject/CNRC_V2/V2_CNRedCross.sol\":10956:10976  _initializing = true */\n      0x0100\n      exp\n      dup2\n      sload\n      dup2\n      0xff\n      mul\n      not\n      and\n      swap1\n      dup4\n      iszero\n      iszero\n      mul\n      or\n      swap1\n      sstore\n      pop\n        /* \"contract/myProject/CNRC_V2/V2_CNRedCross.sol\":10921:10988  if (isTopLevelCall) {\r... */\n    tag_194:\n        /* \"contract/myProject/CNRC_V2/V2_CNRedCross.sol\":35711:35731  __ERC20_init(\"\", \"\") */\n      tag_196\n      mload(0x40)\n      dup1\n      0x20\n      add\n      0x40\n      mstore\n      dup1\n      0x00\n      dup2\n      mstore\n      pop\n      mload(0x40)\n      dup1\n      0x20\n      add\n      0x40\n      mstore\n      dup1\n      0x00\n      dup2\n      mstore\n      pop\n        /* \"contract/myProject/CNRC_V2/V2_CNRedCross.sol\":35711:35723  __ERC20_init */\n      tag_197\n        /* \"contract/myProject/CNRC_V2/V2_CNRedCross.sol\":35711:35731  __ERC20_init(\"\", \"\") */\n      jump\t// in\n    tag_196:\n        /* \"contract/myProject/CNRC_V2/V2_CNRedCross.sol\":35742:35758  __Ownable_init() */\n      tag_198\n        /* \"contract/myProject/CNRC_V2/V2_CNRedCross.sol\":35742:35756  __Ownable_init */\n      tag_199\n        /* \"contract/myProject/CNRC_V2/V2_CNRedCross.sol\":35742:35758  __Ownable_init() */\n      jump\t// in\n    tag_198:\n        /* \"contract/myProject/CNRC_V2/V2_CNRedCross.sol\":35769:35793  __UUPSUpgradeable_init() */\n      tag_200\n        /* \"contract/myProject/CNRC_V2/V2_CNRedCross.sol\":35769:35791  __UUPSUpgradeable_init */\n      tag_201\n        /* \"contract/myProject/CNRC_V2/V2_CNRedCross.sol\":35769:35793  __UUPSUpgradeable_init() */\n      jump\t// in\n    tag_200:\n        /* \"contract/myProject/CNRC_V2/V2_CNRedCross.sol\":35804:35826  _mint(msg.sender, 100) */\n      tag_202\n        /* \"contract/myProject/CNRC_V2/V2_CNRedCross.sol\":35810:35820  msg.sender */\n      caller\n        /* \"contract/myProject/CNRC_V2/V2_CNRedCross.sol\":35822:35825  100 */\n      0x64\n        /* \"contract/myProject/CNRC_V2/V2_CNRedCross.sol\":35804:35809  _mint */\n      tag_164\n        /* \"contract/myProject/CNRC_V2/V2_CNRedCross.sol\":35804:35826  _mint(msg.sender, 100) */\n      jump\t// in\n    tag_202:\n        /* \"contract/myProject/CNRC_V2/V2_CNRedCross.sol\":11014:11028  isTopLevelCall */\n      dup1\n        /* \"contract/myProject/CNRC_V2/V2_CNRedCross.sol\":11010:11112  if (isTopLevelCall) {\r... */\n      iszero\n      tag_203\n      jumpi\n        /* \"contract/myProject/CNRC_V2/V2_CNRedCross.sol\":11061:11066  false */\n      0x00\n        /* \"contract/myProject/CNRC_V2/V2_CNRedCross.sol\":11045:11058  _initializing */\n      dup1\n      0x01\n        /* \"contract/myProject/CNRC_V2/V2_CNRedCross.sol\":11045:11066  _initializing = false */\n      0x0100\n      exp\n      dup2\n      sload\n      dup2\n      0xff\n      mul\n      not\n      and\n      swap1\n      dup4\n      iszero\n      iszero\n      mul\n      or\n      swap1\n      sstore\n      pop\n        /* \"contract/myProject/CNRC_V2/V2_CNRedCross.sol\":11086:11100  Initialized(1) */\n      0x7f26b83ff96e1f2b6a682f133852f6798a09c465da95921460cefb3847402498\n        /* \"contract/myProject/CNRC_V2/V2_CNRedCross.sol\":11098:11099  1 */\n      0x01\n        /* \"contract/myProject/CNRC_V2/V2_CNRedCross.sol\":11086:11100  Initialized(1) */\n      mload(0x40)\n      tag_204\n      swap2\n      swap1\n      tag_205\n      jump\t// in\n    tag_204:\n      mload(0x40)\n      dup1\n      swap2\n      sub\n      swap1\n      log1\n        /* \"contract/myProject/CNRC_V2/V2_CNRedCross.sol\":11010:11112  if (isTopLevelCall) {\r... */\n    tag_203:\n        /* \"contract/myProject/CNRC_V2/V2_CNRedCross.sol\":10621:11119  {\r... */\n      pop\n        /* \"contract/myProject/CNRC_V2/V2_CNRedCross.sol\":35660:35834  function initialize() initializer public{\r... */\n      jump\t// out\n        /* \"contract/myProject/CNRC_V2/V2_CNRedCross.sol\":21220:21307  function owner() public view virtual returns (address) {\r... */\n    tag_88:\n        /* \"contract/myProject/CNRC_V2/V2_CNRedCross.sol\":21266:21273  address */\n      0x00\n        /* \"contract/myProject/CNRC_V2/V2_CNRedCross.sol\":21293:21299  _owner */\n      0x65\n      0x00\n      swap1\n      sload\n      swap1\n      0x0100\n      exp\n      swap1\n      div\n      0xffffffffffffffffffffffffffffffffffffffff\n      and\n        /* \"contract/myProject/CNRC_V2/V2_CNRedCross.sol\":21286:21299  return _owner */\n      swap1\n      pop\n        /* \"contract/myProject/CNRC_V2/V2_CNRedCross.sol\":21220:21307  function owner() public view virtual returns (address) {\r... */\n      swap1\n      jump\t// out\n        /* \"contract/myProject/CNRC_V2/V2_CNRedCross.sol\":15457:15561  function symbol() public view virtual override returns (string memory) {\r... */\n    tag_93:\n        /* \"contract/myProject/CNRC_V2/V2_CNRedCross.sol\":15513:15526  string memory */\n      0x60\n        /* \"contract/myProject/CNRC_V2/V2_CNRedCross.sol\":15546:15553  _symbol */\n      0x37\n        /* \"contract/myProject/CNRC_V2/V2_CNRedCross.sol\":15539:15553  return _symbol */\n      dup1\n      sload\n      tag_208\n      swap1\n      tag_117\n      jump\t// in\n    tag_208:\n      dup1\n      0x1f\n      add\n      0x20\n      dup1\n      swap2\n      div\n      mul\n      0x20\n      add\n      mload(0x40)\n      swap1\n      dup2\n      add\n      0x40\n      mstore\n      dup1\n      swap3\n      swap2\n      swap1\n      dup2\n      dup2\n      mstore\n      0x20\n      add\n      dup3\n      dup1\n      sload\n      tag_209\n      swap1\n      tag_117\n      jump\t// in\n    tag_209:\n      dup1\n      iszero\n      tag_210\n      jumpi\n      dup1\n      0x1f\n      lt\n      tag_211\n      jumpi\n      0x0100\n      dup1\n      dup4\n      sload\n      div\n      mul\n      dup4\n      mstore\n      swap2\n      0x20\n      add\n      swap2\n      jump(tag_210)\n    tag_211:\n      dup3\n      add\n      swap2\n      swap1\n      0x00\n      mstore\n      keccak256(0x00, 0x20)\n      swap1\n    tag_212:\n      dup2\n      sload\n      dup2\n      mstore\n      swap1\n      0x01\n      add\n      swap1\n      0x20\n      add\n      dup1\n      dup4\n      gt\n      tag_212\n      jumpi\n      dup3\n      swap1\n      sub\n      0x1f\n      and\n      dup3\n      add\n      swap2\n    tag_210:\n      pop\n      pop\n      pop\n      pop\n      pop\n      swap1\n      pop\n        /* \"contract/myProject/CNRC_V2/V2_CNRedCross.sol\":15457:15561  function symbol() public view virtual override returns (string memory) {\r... */\n      swap1\n      jump\t// out\n        /* \"contract/myProject/CNRC_V2/V2_CNRedCross.sol\":17039:17475  function decreaseAllowance(address spender, uint256 subtractedValue) public virtual returns (bool) {\r... */\n    tag_98:\n        /* \"contract/myProject/CNRC_V2/V2_CNRedCross.sol\":17132:17136  bool */\n      0x00\n        /* \"contract/myProject/CNRC_V2/V2_CNRedCross.sol\":17149:17162  address owner */\n      dup1\n        /* \"contract/myProject/CNRC_V2/V2_CNRedCross.sol\":17165:17177  _msgSender() */\n      tag_214\n        /* \"contract/myProject/CNRC_V2/V2_CNRedCross.sol\":17165:17175  _msgSender */\n      tag_124\n        /* \"contract/myProject/CNRC_V2/V2_CNRedCross.sol\":17165:17177  _msgSender() */\n      jump\t// in\n    tag_214:\n        /* \"contract/myProject/CNRC_V2/V2_CNRedCross.sol\":17149:17177  address owner = _msgSender() */\n      swap1\n      pop\n        /* \"contract/myProject/CNRC_V2/V2_CNRedCross.sol\":17188:17212  uint256 currentAllowance */\n      0x00\n        /* \"contract/myProject/CNRC_V2/V2_CNRedCross.sol\":17215:17240  allowance(owner, spender) */\n      tag_215\n        /* \"contract/myProject/CNRC_V2/V2_CNRedCross.sol\":17225:17230  owner */\n      dup3\n        /* \"contract/myProject/CNRC_V2/V2_CNRedCross.sol\":17232:17239  spender */\n      dup7\n        /* \"contract/myProject/CNRC_V2/V2_CNRedCross.sol\":17215:17224  allowance */\n      tag_109\n        /* \"contract/myProject/CNRC_V2/V2_CNRedCross.sol\":17215:17240  allowance(owner, spender) */\n      jump\t// in\n    tag_215:\n        /* \"contract/myProject/CNRC_V2/V2_CNRedCross.sol\":17188:17240  uint256 currentAllowance = allowance(owner, spender) */\n      swap1\n      pop\n        /* \"contract/myProject/CNRC_V2/V2_CNRedCross.sol\":17279:17294  subtractedValue */\n      dup4\n        /* \"contract/myProject/CNRC_V2/V2_CNRedCross.sol\":17259:17275  currentAllowance */\n      dup2\n        /* \"contract/myProject/CNRC_V2/V2_CNRedCross.sol\":17259:17294  currentAllowance >= subtractedValue */\n      lt\n      iszero\n        /* \"contract/myProject/CNRC_V2/V2_CNRedCross.sol\":17251:17336  require(currentAllowance >= subtractedValue, \"ERC20: decreased allowance below zero\") */\n      tag_216\n      jumpi\n      mload(0x40)\n      0x08c379a000000000000000000000000000000000000000000000000000000000\n      dup2\n      mstore\n      0x04\n      add\n      tag_217\n      swap1\n      tag_218\n      jump\t// in\n    tag_217:\n      mload(0x40)\n      dup1\n      swap2\n      sub\n      swap1\n      revert\n    tag_216:\n        /* \"contract/myProject/CNRC_V2/V2_CNRedCross.sol\":17372:17432  _approve(owner, spender, currentAllowance - subtractedValue) */\n      tag_219\n        /* \"contract/myProject/CNRC_V2/V2_CNRedCross.sol\":17381:17386  owner */\n      dup3\n        /* \"contract/myProject/CNRC_V2/V2_CNRedCross.sol\":17388:17395  spender */\n      dup7\n        /* \"contract/myProject/CNRC_V2/V2_CNRedCross.sol\":17416:17431  subtractedValue */\n      dup7\n        /* \"contract/myProject/CNRC_V2/V2_CNRedCross.sol\":17397:17413  currentAllowance */\n      dup5\n        /* \"contract/myProject/CNRC_V2/V2_CNRedCross.sol\":17397:17431  currentAllowance - subtractedValue */\n      sub\n        /* \"contract/myProject/CNRC_V2/V2_CNRedCross.sol\":17372:17380  _approve */\n      tag_126\n        /* \"contract/myProject/CNRC_V2/V2_CNRedCross.sol\":17372:17432  _approve(owner, spender, currentAllowance - subtractedValue) */\n      jump\t// in\n    tag_219:\n        /* \"contract/myProject/CNRC_V2/V2_CNRedCross.sol\":17463:17467  true */\n      0x01\n        /* \"contract/myProject/CNRC_V2/V2_CNRedCross.sol\":17456:17467  return true */\n      swap3\n      pop\n      pop\n      pop\n        /* \"contract/myProject/CNRC_V2/V2_CNRedCross.sol\":17039:17475  function decreaseAllowance(address spender, uint256 subtractedValue) public virtual returns (bool) {\r... */\n      swap3\n      swap2\n      pop\n      pop\n      jump\t// out\n        /* \"contract/myProject/CNRC_V2/V2_CNRedCross.sol\":15921:16114  function transfer(address to, uint256 amount) public virtual override returns (bool) {\r... */\n    tag_103:\n        /* \"contract/myProject/CNRC_V2/V2_CNRedCross.sol\":16000:16004  bool */\n      0x00\n        /* \"contract/myProject/CNRC_V2/V2_CNRedCross.sol\":16017:16030  address owner */\n      dup1\n        /* \"contract/myProject/CNRC_V2/V2_CNRedCross.sol\":16033:16045  _msgSender() */\n      tag_221\n        /* \"contract/myProject/CNRC_V2/V2_CNRedCross.sol\":16033:16043  _msgSender */\n      tag_124\n        /* \"contract/myProject/CNRC_V2/V2_CNRedCross.sol\":16033:16045  _msgSender() */\n      jump\t// in\n    tag_221:\n        /* \"contract/myProject/CNRC_V2/V2_CNRedCross.sol\":16017:16045  address owner = _msgSender() */\n      swap1\n      pop\n        /* \"contract/myProject/CNRC_V2/V2_CNRedCross.sol\":16056:16084  _transfer(owner, to, amount) */\n      tag_222\n        /* \"contract/myProject/CNRC_V2/V2_CNRedCross.sol\":16066:16071  owner */\n      dup2\n        /* \"contract/myProject/CNRC_V2/V2_CNRedCross.sol\":16073:16075  to */\n      dup6\n        /* \"contract/myProject/CNRC_V2/V2_CNRedCross.sol\":16077:16083  amount */\n      dup6\n        /* \"contract/myProject/CNRC_V2/V2_CNRedCross.sol\":16056:16065  _transfer */\n      tag_133\n        /* \"contract/myProject/CNRC_V2/V2_CNRedCross.sol\":16056:16084  _transfer(owner, to, amount) */\n      jump\t// in\n    tag_222:\n        /* \"contract/myProject/CNRC_V2/V2_CNRedCross.sol\":16102:16106  true */\n      0x01\n        /* \"contract/myProject/CNRC_V2/V2_CNRedCross.sol\":16095:16106  return true */\n      swap2\n      pop\n      pop\n        /* \"contract/myProject/CNRC_V2/V2_CNRedCross.sol\":15921:16114  function transfer(address to, uint256 amount) public virtual override returns (bool) {\r... */\n      swap3\n      swap2\n      pop\n      pop\n      jump\t// out\n        /* \"contract/myProject/CNRC_V2/V2_CNRedCross.sol\":16122:16273  function allowance(address owner, address spender) public view virtual override returns (uint256) {\r... */\n    tag_109:\n        /* \"contract/myProject/CNRC_V2/V2_CNRedCross.sol\":16211:16218  uint256 */\n      0x00\n        /* \"contract/myProject/CNRC_V2/V2_CNRedCross.sol\":16238:16249  _allowances */\n      0x34\n        /* \"contract/myProject/CNRC_V2/V2_CNRedCross.sol\":16238:16256  _allowances[owner] */\n      0x00\n        /* \"contract/myProject/CNRC_V2/V2_CNRedCross.sol\":16250:16255  owner */\n      dup5\n        /* \"contract/myProject/CNRC_V2/V2_CNRedCross.sol\":16238:16256  _allowances[owner] */\n      0xffffffffffffffffffffffffffffffffffffffff\n      and\n      0xffffffffffffffffffffffffffffffffffffffff\n      and\n      dup2\n      mstore\n      0x20\n      add\n      swap1\n      dup2\n      mstore\n      0x20\n      add\n      0x00\n      keccak256\n        /* \"contract/myProject/CNRC_V2/V2_CNRedCross.sol\":16238:16265  _allowances[owner][spender] */\n      0x00\n        /* \"contract/myProject/CNRC_V2/V2_CNRedCross.sol\":16257:16264  spender */\n      dup4\n        /* \"contract/myProject/CNRC_V2/V2_CNRedCross.sol\":16238:16265  _allowances[owner][spender] */\n      0xffffffffffffffffffffffffffffffffffffffff\n      and\n      0xffffffffffffffffffffffffffffffffffffffff\n      and\n      dup2\n      mstore\n      0x20\n      add\n      swap1\n      dup2\n      mstore\n      0x20\n      add\n      0x00\n      keccak256\n      sload\n        /* \"contract/myProject/CNRC_V2/V2_CNRedCross.sol\":16231:16265  return _allowances[owner][spender] */\n      swap1\n      pop\n        /* \"contract/myProject/CNRC_V2/V2_CNRedCross.sol\":16122:16273  function allowance(address owner, address spender) public view virtual override returns (uint256) {\r... */\n      swap3\n      swap2\n      pop\n      pop\n      jump\t// out\n        /* \"contract/myProject/CNRC_V2/V2_CNRedCross.sol\":21566:21767  function transferOwnership(address newOwner) public virtual onlyOwner {\r... */\n    tag_114:\n        /* \"contract/myProject/CNRC_V2/V2_CNRedCross.sol\":21179:21192  _checkOwner() */\n      tag_225\n        /* \"contract/myProject/CNRC_V2/V2_CNRedCross.sol\":21179:21190  _checkOwner */\n      tag_161\n        /* \"contract/myProject/CNRC_V2/V2_CNRedCross.sol\":21179:21192  _checkOwner() */\n      jump\t// in\n    tag_225:\n        /* \"contract/myProject/CNRC_V2/V2_CNRedCross.sol\":21675:21676  0 */\n      0x00\n        /* \"contract/myProject/CNRC_V2/V2_CNRedCross.sol\":21655:21677  newOwner != address(0) */\n      0xffffffffffffffffffffffffffffffffffffffff\n      and\n        /* \"contract/myProject/CNRC_V2/V2_CNRedCross.sol\":21655:21663  newOwner */\n      dup2\n        /* \"contract/myProject/CNRC_V2/V2_CNRedCross.sol\":21655:21677  newOwner != address(0) */\n      0xffffffffffffffffffffffffffffffffffffffff\n      and\n      eq\n      iszero\n        /* \"contract/myProject/CNRC_V2/V2_CNRedCross.sol\":21647:21720  require(newOwner != address(0), \"Ownable: new owner is the zero address\") */\n      tag_227\n      jumpi\n      mload(0x40)\n      0x08c379a000000000000000000000000000000000000000000000000000000000\n      dup2\n      mstore\n      0x04\n      add\n      tag_228\n      swap1\n      tag_229\n      jump\t// in\n    tag_228:\n      mload(0x40)\n      dup1\n      swap2\n      sub\n      swap1\n      revert\n    tag_227:\n        /* \"contract/myProject/CNRC_V2/V2_CNRedCross.sol\":21731:21759  _transferOwnership(newOwner) */\n      tag_230\n        /* \"contract/myProject/CNRC_V2/V2_CNRedCross.sol\":21750:21758  newOwner */\n      dup2\n        /* \"contract/myProject/CNRC_V2/V2_CNRedCross.sol\":21731:21749  _transferOwnership */\n      tag_184\n        /* \"contract/myProject/CNRC_V2/V2_CNRedCross.sol\":21731:21759  _transferOwnership(newOwner) */\n      jump\t// in\n    tag_230:\n        /* \"contract/myProject/CNRC_V2/V2_CNRedCross.sol\":21566:21767  function transferOwnership(address newOwner) public virtual onlyOwner {\r... */\n      pop\n      jump\t// out\n        /* \"contract/myProject/CNRC_V2/V2_CNRedCross.sol\":13458:13556  function _msgSender() internal view virtual returns (address) {\r... */\n    tag_124:\n        /* \"contract/myProject/CNRC_V2/V2_CNRedCross.sol\":13511:13518  address */\n      0x00\n        /* \"contract/myProject/CNRC_V2/V2_CNRedCross.sol\":13538:13548  msg.sender */\n      caller\n        /* \"contract/myProject/CNRC_V2/V2_CNRedCross.sol\":13531:13548  return msg.sender */\n      swap1\n      pop\n        /* \"contract/myProject/CNRC_V2/V2_CNRedCross.sol\":13458:13556  function _msgSender() internal view virtual returns (address) {\r... */\n      swap1\n      jump\t// out\n        /* \"contract/myProject/CNRC_V2/V2_CNRedCross.sol\":19570:19950  function _approve(\r... */\n    tag_126:\n        /* \"contract/myProject/CNRC_V2/V2_CNRedCross.sol\":19723:19724  0 */\n      0x00\n        /* \"contract/myProject/CNRC_V2/V2_CNRedCross.sol\":19706:19725  owner != address(0) */\n      0xffffffffffffffffffffffffffffffffffffffff\n      and\n        /* \"contract/myProject/CNRC_V2/V2_CNRedCross.sol\":19706:19711  owner */\n      dup4\n        /* \"contract/myProject/CNRC_V2/V2_CNRedCross.sol\":19706:19725  owner != address(0) */\n      0xffffffffffffffffffffffffffffffffffffffff\n      and\n      eq\n      iszero\n        /* \"contract/myProject/CNRC_V2/V2_CNRedCross.sol\":19698:19766  require(owner != address(0), \"ERC20: approve from the zero address\") */\n      tag_233\n      jumpi\n      mload(0x40)\n      0x08c379a000000000000000000000000000000000000000000000000000000000\n      dup2\n      mstore\n      0x04\n      add\n      tag_234\n      swap1\n      tag_235\n      jump\t// in\n    tag_234:\n      mload(0x40)\n      dup1\n      swap2\n      sub\n      swap1\n      revert\n    tag_233:\n        /* \"contract/myProject/CNRC_V2/V2_CNRedCross.sol\":19804:19805  0 */\n      0x00\n        /* \"contract/myProject/CNRC_V2/V2_CNRedCross.sol\":19785:19806  spender != address(0) */\n      0xffffffffffffffffffffffffffffffffffffffff\n      and\n        /* \"contract/myProject/CNRC_V2/V2_CNRedCross.sol\":19785:19792  spender */\n      dup3\n        /* \"contract/myProject/CNRC_V2/V2_CNRedCross.sol\":19785:19806  spender != address(0) */\n      0xffffffffffffffffffffffffffffffffffffffff\n      and\n      eq\n      iszero\n        /* \"contract/myProject/CNRC_V2/V2_CNRedCross.sol\":19777:19845  require(spender != address(0), \"ERC20: approve to the zero address\") */\n      tag_236\n      jumpi\n      mload(0x40)\n      0x08c379a000000000000000000000000000000000000000000000000000000000\n      dup2\n      mstore\n      0x04\n      add\n      tag_237\n      swap1\n      tag_238\n      jump\t// in\n    tag_237:\n      mload(0x40)\n      dup1\n      swap2\n      sub\n      swap1\n      revert\n    tag_236:\n        /* \"contract/myProject/CNRC_V2/V2_CNRedCross.sol\":19888:19894  amount */\n      dup1\n        /* \"contract/myProject/CNRC_V2/V2_CNRedCross.sol\":19858:19869  _allowances */\n      0x34\n        /* \"contract/myProject/CNRC_V2/V2_CNRedCross.sol\":19858:19876  _allowances[owner] */\n      0x00\n        /* \"contract/myProject/CNRC_V2/V2_CNRedCross.sol\":19870:19875  owner */\n      dup6\n        /* \"contract/myProject/CNRC_V2/V2_CNRedCross.sol\":19858:19876  _allowances[owner] */\n      0xffffffffffffffffffffffffffffffffffffffff\n      and\n      0xffffffffffffffffffffffffffffffffffffffff\n      and\n      dup2\n      mstore\n      0x20\n      add\n      swap1\n      dup2\n      mstore\n      0x20\n      add\n      0x00\n      keccak256\n        /* \"contract/myProject/CNRC_V2/V2_CNRedCross.sol\":19858:19885  _allowances[owner][spender] */\n      0x00\n        /* \"contract/myProject/CNRC_V2/V2_CNRedCross.sol\":19877:19884  spender */\n      dup5\n        /* \"contract/myProject/CNRC_V2/V2_CNRedCross.sol\":19858:19885  _allowances[owner][spender] */\n      0xffffffffffffffffffffffffffffffffffffffff\n      and\n      0xffffffffffffffffffffffffffffffffffffffff\n      and\n      dup2\n      mstore\n      0x20\n      add\n      swap1\n      dup2\n      mstore\n      0x20\n      add\n      0x00\n      keccak256\n        /* \"contract/myProject/CNRC_V2/V2_CNRedCross.sol\":19858:19894  _allowances[owner][spender] = amount */\n      dup2\n      swap1\n      sstore\n      pop\n        /* \"contract/myProject/CNRC_V2/V2_CNRedCross.sol\":19926:19933  spender */\n      dup2\n        /* \"contract/myProject/CNRC_V2/V2_CNRedCross.sol\":19910:19942  Approval(owner, spender, amount) */\n      0xffffffffffffffffffffffffffffffffffffffff\n      and\n        /* \"contract/myProject/CNRC_V2/V2_CNRedCross.sol\":19919:19924  owner */\n      dup4\n        /* \"contract/myProject/CNRC_V2/V2_CNRedCross.sol\":19910:19942  Approval(owner, spender, amount) */\n      0xffffffffffffffffffffffffffffffffffffffff\n      and\n      0x8c5be1e5ebec7d5bd14f71427d1e84f3dd0314c0f7b2291e5b200ac8c7c3b925\n        /* \"contract/myProject/CNRC_V2/V2_CNRedCross.sol\":19935:19941  amount */\n      dup4\n        /* \"contract/myProject/CNRC_V2/V2_CNRedCross.sol\":19910:19942  Approval(owner, spender, amount) */\n      mload(0x40)\n      tag_239\n      swap2\n      swap1\n      tag_40\n      jump\t// in\n    tag_239:\n      mload(0x40)\n      dup1\n      swap2\n      sub\n      swap1\n      log3\n        /* \"contract/myProject/CNRC_V2/V2_CNRedCross.sol\":19570:19950  function _approve(\r... */\n      pop\n      pop\n      pop\n      jump\t// out\n        /* \"contract/myProject/CNRC_V2/V2_CNRedCross.sol\":19958:20411  function _spendAllowance(\r... */\n    tag_131:\n        /* \"contract/myProject/CNRC_V2/V2_CNRedCross.sol\":20093:20117  uint256 currentAllowance */\n      0x00\n        /* \"contract/myProject/CNRC_V2/V2_CNRedCross.sol\":20120:20145  allowance(owner, spender) */\n      tag_241\n        /* \"contract/myProject/CNRC_V2/V2_CNRedCross.sol\":20130:20135  owner */\n      dup5\n        /* \"contract/myProject/CNRC_V2/V2_CNRedCross.sol\":20137:20144  spender */\n      dup5\n        /* \"contract/myProject/CNRC_V2/V2_CNRedCross.sol\":20120:20129  allowance */\n      tag_109\n        /* \"contract/myProject/CNRC_V2/V2_CNRedCross.sol\":20120:20145  allowance(owner, spender) */\n      jump\t// in\n    tag_241:\n        /* \"contract/myProject/CNRC_V2/V2_CNRedCross.sol\":20093:20145  uint256 currentAllowance = allowance(owner, spender) */\n      swap1\n      pop\n        /* \"contract/myProject/CNRC_V2/V2_CNRedCross.sol\":20180:20197  type(uint256).max */\n      0xffffffffffffffffffffffffffffffffffffffffffffffffffffffffffffffff\n        /* \"contract/myProject/CNRC_V2/V2_CNRedCross.sol\":20160:20176  currentAllowance */\n      dup2\n        /* \"contract/myProject/CNRC_V2/V2_CNRedCross.sol\":20160:20197  currentAllowance != type(uint256).max */\n      eq\n        /* \"contract/myProject/CNRC_V2/V2_CNRedCross.sol\":20156:20404  if (currentAllowance != type(uint256).max) {\r... */\n      tag_242\n      jumpi\n        /* \"contract/myProject/CNRC_V2/V2_CNRedCross.sol\":20242:20248  amount */\n      dup2\n        /* \"contract/myProject/CNRC_V2/V2_CNRedCross.sol\":20222:20238  currentAllowance */\n      dup2\n        /* \"contract/myProject/CNRC_V2/V2_CNRedCross.sol\":20222:20248  currentAllowance >= amount */\n      lt\n      iszero\n        /* \"contract/myProject/CNRC_V2/V2_CNRedCross.sol\":20214:20282  require(currentAllowance >= amount, \"ERC20: insufficient allowance\") */\n      tag_243\n      jumpi\n      mload(0x40)\n      0x08c379a000000000000000000000000000000000000000000000000000000000\n      dup2\n      mstore\n      0x04\n      add\n      tag_244\n      swap1\n      tag_245\n      jump\t// in\n    tag_244:\n      mload(0x40)\n      dup1\n      swap2\n      sub\n      swap1\n      revert\n    tag_243:\n        /* \"contract/myProject/CNRC_V2/V2_CNRedCross.sol\":20326:20377  _approve(owner, spender, currentAllowance - amount) */\n      tag_246\n        /* \"contract/myProject/CNRC_V2/V2_CNRedCross.sol\":20335:20340  owner */\n      dup5\n        /* \"contract/myProject/CNRC_V2/V2_CNRedCross.sol\":20342:20349  spender */\n      dup5\n        /* \"contract/myProject/CNRC_V2/V2_CNRedCross.sol\":20370:20376  amount */\n      dup5\n        /* \"contract/myProject/CNRC_V2/V2_CNRedCross.sol\":20351:20367  currentAllowance */\n      dup5\n        /* \"contract/myProject/CNRC_V2/V2_CNRedCross.sol\":20351:20376  currentAllowance - amount */\n      sub\n        /* \"contract/myProject/CNRC_V2/V2_CNRedCross.sol\":20326:20334  _approve */\n      tag_126\n        /* \"contract/myProject/CNRC_V2/V2_CNRedCross.sol\":20326:20377  _approve(owner, spender, currentAllowance - amount) */\n      jump\t// in\n    tag_246:\n        /* \"contract/myProject/CNRC_V2/V2_CNRedCross.sol\":20156:20404  if (currentAllowance != type(uint256).max) {\r... */\n    tag_242:\n        /* \"contract/myProject/CNRC_V2/V2_CNRedCross.sol\":20082:20411  {\r... */\n      pop\n        /* \"contract/myProject/CNRC_V2/V2_CNRedCross.sol\":19958:20411  function _spendAllowance(\r... */\n      pop\n      pop\n      pop\n      jump\t// out\n        /* \"contract/myProject/CNRC_V2/V2_CNRedCross.sol\":17483:18323  function _transfer(\r... */\n    tag_133:\n        /* \"contract/myProject/CNRC_V2/V2_CNRedCross.sol\":17630:17631  0 */\n      0x00\n        /* \"contract/myProject/CNRC_V2/V2_CNRedCross.sol\":17614:17632  from != address(0) */\n      0xffffffffffffffffffffffffffffffffffffffff\n      and\n        /* \"contract/myProject/CNRC_V2/V2_CNRedCross.sol\":17614:17618  from */\n      dup4\n        /* \"contract/myProject/CNRC_V2/V2_CNRedCross.sol\":17614:17632  from != address(0) */\n      0xffffffffffffffffffffffffffffffffffffffff\n      and\n      eq\n      iszero\n        /* \"contract/myProject/CNRC_V2/V2_CNRedCross.sol\":17606:17674  require(from != address(0), \"ERC20: transfer from the zero address\") */\n      tag_248\n      jumpi\n      mload(0x40)\n      0x08c379a000000000000000000000000000000000000000000000000000000000\n      dup2\n      mstore\n      0x04\n      add\n      tag_249\n      swap1\n      tag_250\n      jump\t// in\n    tag_249:\n      mload(0x40)\n      dup1\n      swap2\n      sub\n      swap1\n      revert\n    tag_248:\n        /* \"contract/myProject/CNRC_V2/V2_CNRedCross.sol\":17707:17708  0 */\n      0x00\n        /* \"contract/myProject/CNRC_V2/V2_CNRedCross.sol\":17693:17709  to != address(0) */\n      0xffffffffffffffffffffffffffffffffffffffff\n      and\n        /* \"contract/myProject/CNRC_V2/V2_CNRedCross.sol\":17693:17695  to */\n      dup3\n        /* \"contract/myProject/CNRC_V2/V2_CNRedCross.sol\":17693:17709  to != address(0) */\n      0xffffffffffffffffffffffffffffffffffffffff\n      and\n      eq\n      iszero\n        /* \"contract/myProject/CNRC_V2/V2_CNRedCross.sol\":17685:17749  require(to != address(0), \"ERC20: transfer to the zero address\") */\n      tag_251\n      jumpi\n      mload(0x40)\n      0x08c379a000000000000000000000000000000000000000000000000000000000\n      dup2\n      mstore\n      0x04\n      add\n      tag_252\n      swap1\n      tag_253\n      jump\t// in\n    tag_252:\n      mload(0x40)\n      dup1\n      swap2\n      sub\n      swap1\n      revert\n    tag_251:\n        /* \"contract/myProject/CNRC_V2/V2_CNRedCross.sol\":17762:17800  _beforeTokenTransfer(from, to, amount) */\n      tag_254\n        /* \"contract/myProject/CNRC_V2/V2_CNRedCross.sol\":17783:17787  from */\n      dup4\n        /* \"contract/myProject/CNRC_V2/V2_CNRedCross.sol\":17789:17791  to */\n      dup4\n        /* \"contract/myProject/CNRC_V2/V2_CNRedCross.sol\":17793:17799  amount */\n      dup4\n        /* \"contract/myProject/CNRC_V2/V2_CNRedCross.sol\":17762:17782  _beforeTokenTransfer */\n      tag_255\n        /* \"contract/myProject/CNRC_V2/V2_CNRedCross.sol\":17762:17800  _beforeTokenTransfer(from, to, amount) */\n      jump\t// in\n    tag_254:\n        /* \"contract/myProject/CNRC_V2/V2_CNRedCross.sol\":17813:17832  uint256 fromBalance */\n      0x00\n        /* \"contract/myProject/CNRC_V2/V2_CNRedCross.sol\":17835:17844  _balances */\n      0x33\n        /* \"contract/myProject/CNRC_V2/V2_CNRedCross.sol\":17835:17850  _balances[from] */\n      0x00\n        /* \"contract/myProject/CNRC_V2/V2_CNRedCross.sol\":17845:17849  from */\n      dup6\n        /* \"contract/myProject/CNRC_V2/V2_CNRedCross.sol\":17835:17850  _balances[from] */\n      0xffffffffffffffffffffffffffffffffffffffff\n      and\n      0xffffffffffffffffffffffffffffffffffffffff\n      and\n      dup2\n      mstore\n      0x20\n      add\n      swap1\n      dup2\n      mstore\n      0x20\n      add\n      0x00\n      keccak256\n      sload\n        /* \"contract/myProject/CNRC_V2/V2_CNRedCross.sol\":17813:17850  uint256 fromBalance = _balances[from] */\n      swap1\n      pop\n        /* \"contract/myProject/CNRC_V2/V2_CNRedCross.sol\":17884:17890  amount */\n      dup2\n        /* \"contract/myProject/CNRC_V2/V2_CNRedCross.sol\":17869:17880  fromBalance */\n      dup2\n        /* \"contract/myProject/CNRC_V2/V2_CNRedCross.sol\":17869:17890  fromBalance >= amount */\n      lt\n      iszero\n        /* \"contract/myProject/CNRC_V2/V2_CNRedCross.sol\":17861:17933  require(fromBalance >= amount, \"ERC20: transfer amount exceeds balance\") */\n      tag_256\n      jumpi\n      mload(0x40)\n      0x08c379a000000000000000000000000000000000000000000000000000000000\n      dup2\n      mstore\n      0x04\n      add\n      tag_257\n      swap1\n      tag_258\n      jump\t// in\n    tag_257:\n      mload(0x40)\n      dup1\n      swap2\n      sub\n      swap1\n      revert\n    tag_256:\n        /* \"contract/myProject/CNRC_V2/V2_CNRedCross.sol\":18001:18007  amount */\n      dup2\n        /* \"contract/myProject/CNRC_V2/V2_CNRedCross.sol\":17987:17998  fromBalance */\n      dup2\n        /* \"contract/myProject/CNRC_V2/V2_CNRedCross.sol\":17987:18007  fromBalance - amount */\n      sub\n        /* \"contract/myProject/CNRC_V2/V2_CNRedCross.sol\":17969:17978  _balances */\n      0x33\n        /* \"contract/myProject/CNRC_V2/V2_CNRedCross.sol\":17969:17984  _balances[from] */\n      0x00\n        /* \"contract/myProject/CNRC_V2/V2_CNRedCross.sol\":17979:17983  from */\n      dup7\n        /* \"contract/myProject/CNRC_V2/V2_CNRedCross.sol\":17969:17984  _balances[from] */\n      0xffffffffffffffffffffffffffffffffffffffff\n      and\n      0xffffffffffffffffffffffffffffffffffffffff\n      and\n      dup2\n      mstore\n      0x20\n      add\n      swap1\n      dup2\n      mstore\n      0x20\n      add\n      0x00\n      keccak256\n        /* \"contract/myProject/CNRC_V2/V2_CNRedCross.sol\":17969:18007  _balances[from] = fromBalance - amount */\n      dup2\n      swap1\n      sstore\n      pop\n        /* \"contract/myProject/CNRC_V2/V2_CNRedCross.sol\":18204:18210  amount */\n      dup2\n        /* \"contract/myProject/CNRC_V2/V2_CNRedCross.sol\":18187:18196  _balances */\n      0x33\n        /* \"contract/myProject/CNRC_V2/V2_CNRedCross.sol\":18187:18200  _balances[to] */\n      0x00\n        /* \"contract/myProject/CNRC_V2/V2_CNRedCross.sol\":18197:18199  to */\n      dup6\n        /* \"contract/myProject/CNRC_V2/V2_CNRedCross.sol\":18187:18200  _balances[to] */\n      0xffffffffffffffffffffffffffffffffffffffff\n      and\n      0xffffffffffffffffffffffffffffffffffffffff\n      and\n      dup2\n      mstore\n      0x20\n      add\n      swap1\n      dup2\n      mstore\n      0x20\n      add\n      0x00\n      keccak256\n      0x00\n        /* \"contract/myProject/CNRC_V2/V2_CNRedCross.sol\":18187:18210  _balances[to] += amount */\n      dup3\n      dup3\n      sload\n      add\n      swap3\n      pop\n      pop\n      dup2\n      swap1\n      sstore\n      pop\n        /* \"contract/myProject/CNRC_V2/V2_CNRedCross.sol\":18254:18256  to */\n      dup3\n        /* \"contract/myProject/CNRC_V2/V2_CNRedCross.sol\":18239:18265  Transfer(from, to, amount) */\n      0xffffffffffffffffffffffffffffffffffffffff\n      and\n        /* \"contract/myProject/CNRC_V2/V2_CNRedCross.sol\":18248:18252  from */\n      dup5\n        /* \"contract/myProject/CNRC_V2/V2_CNRedCross.sol\":18239:18265  Transfer(from, to, amount) */\n      0xffffffffffffffffffffffffffffffffffffffff\n      and\n      0xddf252ad1be2c89b69c2b068fc378daa952ba7f163c4a11628f55a4df523b3ef\n        /* \"contract/myProject/CNRC_V2/V2_CNRedCross.sol\":18258:18264  amount */\n      dup5\n        /* \"contract/myProject/CNRC_V2/V2_CNRedCross.sol\":18239:18265  Transfer(from, to, amount) */\n      mload(0x40)\n      tag_259\n      swap2\n      swap1\n      tag_40\n      jump\t// in\n    tag_259:\n      mload(0x40)\n      dup1\n      swap2\n      sub\n      swap1\n      log3\n        /* \"contract/myProject/CNRC_V2/V2_CNRedCross.sol\":18278:18315  _afterTokenTransfer(from, to, amount) */\n      tag_260\n        /* \"contract/myProject/CNRC_V2/V2_CNRedCross.sol\":18298:18302  from */\n      dup5\n        /* \"contract/myProject/CNRC_V2/V2_CNRedCross.sol\":18304:18306  to */\n      dup5\n        /* \"contract/myProject/CNRC_V2/V2_CNRedCross.sol\":18308:18314  amount */\n      dup5\n        /* \"contract/myProject/CNRC_V2/V2_CNRedCross.sol\":18278:18297  _afterTokenTransfer */\n      tag_261\n        /* \"contract/myProject/CNRC_V2/V2_CNRedCross.sol\":18278:18315  _afterTokenTransfer(from, to, amount) */\n      jump\t// in\n    tag_260:\n        /* \"contract/myProject/CNRC_V2/V2_CNRedCross.sol\":17595:18323  {\r... */\n      pop\n        /* \"contract/myProject/CNRC_V2/V2_CNRedCross.sol\":17483:18323  function _transfer(\r... */\n      pop\n      pop\n      pop\n      jump\t// out\n        /* \"contract/myProject/CNRC_V2/V2_CNRedCross.sol\":24069:24222  function _getImplementation() internal view returns (address) {\r... */\n    tag_140:\n        /* \"contract/myProject/CNRC_V2/V2_CNRedCross.sol\":24122:24129  address */\n      0x00\n        /* \"contract/myProject/CNRC_V2/V2_CNRedCross.sol\":24149:24208  StorageSlotUpgradeable.getAddressSlot(_IMPLEMENTATION_SLOT) */\n      tag_263\n        /* \"contract/myProject/CNRC_V2/V2_CNRedCross.sol\":23788:23854  0x360894a13ba1a3210667c828492db98dca3e2076cc3735a920a3ca505d382bbc */\n      0x360894a13ba1a3210667c828492db98dca3e2076cc3735a920a3ca505d382bbc\n        /* \"contract/myProject/CNRC_V2/V2_CNRedCross.sol\":24187:24207  _IMPLEMENTATION_SLOT */\n      0x00\n      shl\n        /* \"contract/myProject/CNRC_V2/V2_CNRedCross.sol\":24149:24186  StorageSlotUpgradeable.getAddressSlot */\n      tag_264\n        /* \"contract/myProject/CNRC_V2/V2_CNRedCross.sol\":24149:24208  StorageSlotUpgradeable.getAddressSlot(_IMPLEMENTATION_SLOT) */\n      jump\t// in\n    tag_263:\n        /* \"contract/myProject/CNRC_V2/V2_CNRedCross.sol\":24149:24214  StorageSlotUpgradeable.getAddressSlot(_IMPLEMENTATION_SLOT).value */\n      0x00\n      add\n      0x00\n      swap1\n      sload\n      swap1\n      0x0100\n      exp\n      swap1\n      div\n      0xffffffffffffffffffffffffffffffffffffffff\n      and\n        /* \"contract/myProject/CNRC_V2/V2_CNRedCross.sol\":24142:24214  return StorageSlotUpgradeable.getAddressSlot(_IMPLEMENTATION_SLOT).value */\n      swap1\n      pop\n        /* \"contract/myProject/CNRC_V2/V2_CNRedCross.sol\":24069:24222  function _getImplementation() internal view returns (address) {\r... */\n      swap1\n      jump\t// out\n        /* \"contract/myProject/CNRC_V2/V2_CNRedCross.sol\":35944:36033  function _authorizeUpgrade(address newImpl) internal onlyOwner override{\r... */\n    tag_146:\n        /* \"contract/myProject/CNRC_V2/V2_CNRedCross.sol\":21179:21192  _checkOwner() */\n      tag_266\n        /* \"contract/myProject/CNRC_V2/V2_CNRedCross.sol\":21179:21190  _checkOwner */\n      tag_161\n        /* \"contract/myProject/CNRC_V2/V2_CNRedCross.sol\":21179:21192  _checkOwner() */\n      jump\t// in\n    tag_266:\n        /* \"contract/myProject/CNRC_V2/V2_CNRedCross.sol\":35944:36033  function _authorizeUpgrade(address newImpl) internal onlyOwner override{\r... */\n      pop\n      jump\t// out\n        /* \"contract/myProject/CNRC_V2/V2_CNRedCross.sol\":25487:26479  function _upgradeToAndCallUUPS(\r... */\n    tag_152:\n        /* \"contract/myProject/CNRC_V2/V2_CNRedCross.sol\":25941:25994  StorageSlotUpgradeable.getBooleanSlot(_ROLLBACK_SLOT) */\n      tag_269\n        /* \"contract/myProject/CNRC_V2/V2_CNRedCross.sol\":23440:23506  0x4910fdfa16fed3260ed0e7147f7cc6da11a60208b5b9406d12a635614ffd9143 */\n      0x4910fdfa16fed3260ed0e7147f7cc6da11a60208b5b9406d12a635614ffd9143\n        /* \"contract/myProject/CNRC_V2/V2_CNRedCross.sol\":25979:25993  _ROLLBACK_SLOT */\n      0x00\n      shl\n        /* \"contract/myProject/CNRC_V2/V2_CNRedCross.sol\":25941:25978  StorageSlotUpgradeable.getBooleanSlot */\n      tag_270\n        /* \"contract/myProject/CNRC_V2/V2_CNRedCross.sol\":25941:25994  StorageSlotUpgradeable.getBooleanSlot(_ROLLBACK_SLOT) */\n      jump\t// in\n    tag_269:\n        /* \"contract/myProject/CNRC_V2/V2_CNRedCross.sol\":25941:26000  StorageSlotUpgradeable.getBooleanSlot(_ROLLBACK_SLOT).value */\n      0x00\n      add\n      0x00\n      swap1\n      sload\n      swap1\n      0x0100\n      exp\n      swap1\n      div\n      0xff\n      and\n        /* \"contract/myProject/CNRC_V2/V2_CNRedCross.sol\":25937:26472  if (StorageSlotUpgradeable.getBooleanSlot(_ROLLBACK_SLOT).value) {\r... */\n      iszero\n      tag_271\n      jumpi\n        /* \"contract/myProject/CNRC_V2/V2_CNRedCross.sol\":26017:26054  _setImplementation(newImplementation) */\n      tag_272\n        /* \"contract/myProject/CNRC_V2/V2_CNRedCross.sol\":26036:26053  newImplementation */\n      dup4\n        /* \"contract/myProject/CNRC_V2/V2_CNRedCross.sol\":26017:26035  _setImplementation */\n      tag_273\n        /* \"contract/myProject/CNRC_V2/V2_CNRedCross.sol\":26017:26054  _setImplementation(newImplementation) */\n      jump\t// in\n    tag_272:\n        /* \"contract/myProject/CNRC_V2/V2_CNRedCross.sol\":25937:26472  if (StorageSlotUpgradeable.getBooleanSlot(_ROLLBACK_SLOT).value) {\r... */\n      jump(tag_274)\n    tag_271:\n        /* \"contract/myProject/CNRC_V2/V2_CNRedCross.sol\":26120:26137  newImplementation */\n      dup3\n        /* \"contract/myProject/CNRC_V2/V2_CNRedCross.sol\":26091:26152  IERC1822ProxiableUpgradeable(newImplementation).proxiableUUID */\n      0xffffffffffffffffffffffffffffffffffffffff\n      and\n      0x52d1902d\n        /* \"contract/myProject/CNRC_V2/V2_CNRedCross.sol\":26091:26154  IERC1822ProxiableUpgradeable(newImplementation).proxiableUUID() */\n      mload(0x40)\n      dup2\n      0xffffffff\n      and\n      0xe0\n      shl\n      dup2\n      mstore\n      0x04\n      add\n      0x20\n      mload(0x40)\n      dup1\n      dup4\n      sub\n      dup2\n      dup7\n      dup1\n      extcodesize\n      iszero\n      dup1\n      iszero\n      tag_275\n      jumpi\n      0x00\n      dup1\n      revert\n    tag_275:\n      pop\n      gas\n      staticcall\n      swap3\n      pop\n      pop\n      pop\n      dup1\n      iszero\n      tag_276\n      jumpi\n      pop\n      mload(0x40)\n      returndatasize\n      not(0x1f)\n      0x1f\n      dup3\n      add\n      and\n      dup3\n      add\n      dup1\n      0x40\n      mstore\n      pop\n      dup2\n      add\n      swap1\n      tag_277\n      swap2\n      swap1\n      tag_278\n      jump\t// in\n    tag_277:\n      0x01\n    tag_276:\n        /* \"contract/myProject/CNRC_V2/V2_CNRedCross.sol\":26087:26393  try IERC1822ProxiableUpgradeable(newImplementation).proxiableUUID() returns (bytes32 slot) {\r... */\n      tag_279\n      jumpi\n        /* \"contract/myProject/CNRC_V2/V2_CNRedCross.sol\":26321:26377  revert(\"ERC1967Upgrade: new implementation is not UUPS\") */\n      mload(0x40)\n      0x08c379a000000000000000000000000000000000000000000000000000000000\n      dup2\n      mstore\n      0x04\n      add\n      tag_283\n      swap1\n      tag_284\n      jump\t// in\n    tag_283:\n      mload(0x40)\n      dup1\n      swap2\n      sub\n      swap1\n      revert\n        /* \"contract/myProject/CNRC_V2/V2_CNRedCross.sol\":26087:26393  try IERC1822ProxiableUpgradeable(newImplementation).proxiableUUID() returns (bytes32 slot) {\r... */\n    tag_279:\n        /* \"contract/myProject/CNRC_V2/V2_CNRedCross.sol\":23788:23854  0x360894a13ba1a3210667c828492db98dca3e2076cc3735a920a3ca505d382bbc */\n      0x360894a13ba1a3210667c828492db98dca3e2076cc3735a920a3ca505d382bbc\n        /* \"contract/myProject/CNRC_V2/V2_CNRedCross.sol\":26213:26233  _IMPLEMENTATION_SLOT */\n      0x00\n      shl\n        /* \"contract/myProject/CNRC_V2/V2_CNRedCross.sol\":26205:26209  slot */\n      dup2\n        /* \"contract/myProject/CNRC_V2/V2_CNRedCross.sol\":26205:26233  slot == _IMPLEMENTATION_SLOT */\n      eq\n        /* \"contract/myProject/CNRC_V2/V2_CNRedCross.sol\":26197:26279  require(slot == _IMPLEMENTATION_SLOT, \"ERC1967Upgrade: unsupported proxiableUUID\") */\n      tag_286\n      jumpi\n      mload(0x40)\n      0x08c379a000000000000000000000000000000000000000000000000000000000\n      dup2\n      mstore\n      0x04\n      add\n      tag_287\n      swap1\n      tag_288\n      jump\t// in\n    tag_287:\n      mload(0x40)\n      dup1\n      swap2\n      sub\n      swap1\n      revert\n    tag_286:\n        /* \"contract/myProject/CNRC_V2/V2_CNRedCross.sol\":26155:26295  returns (bytes32 slot) {\r... */\n      pop\n        /* \"contract/myProject/CNRC_V2/V2_CNRedCross.sol\":26407:26460  _upgradeToAndCall(newImplementation, data, forceCall) */\n      tag_289\n        /* \"contract/myProject/CNRC_V2/V2_CNRedCross.sol\":26425:26442  newImplementation */\n      dup4\n        /* \"contract/myProject/CNRC_V2/V2_CNRedCross.sol\":26444:26448  data */\n      dup4\n        /* \"contract/myProject/CNRC_V2/V2_CNRedCross.sol\":26450:26459  forceCall */\n      dup4\n        /* \"contract/myProject/CNRC_V2/V2_CNRedCross.sol\":26407:26424  _upgradeToAndCall */\n      tag_290\n        /* \"contract/myProject/CNRC_V2/V2_CNRedCross.sol\":26407:26460  _upgradeToAndCall(newImplementation, data, forceCall) */\n      jump\t// in\n    tag_289:\n        /* \"contract/myProject/CNRC_V2/V2_CNRedCross.sol\":25937:26472  if (StorageSlotUpgradeable.getBooleanSlot(_ROLLBACK_SLOT).value) {\r... */\n    tag_274:\n        /* \"contract/myProject/CNRC_V2/V2_CNRedCross.sol\":25487:26479  function _upgradeToAndCallUUPS(\r... */\n      pop\n      pop\n      pop\n      jump\t// out\n        /* \"contract/myProject/CNRC_V2/V2_CNRedCross.sol\":21315:21447  function _checkOwner() internal view virtual {\r... */\n    tag_161:\n        /* \"contract/myProject/CNRC_V2/V2_CNRedCross.sol\":21390:21402  _msgSender() */\n      tag_292\n        /* \"contract/myProject/CNRC_V2/V2_CNRedCross.sol\":21390:21400  _msgSender */\n      tag_124\n        /* \"contract/myProject/CNRC_V2/V2_CNRedCross.sol\":21390:21402  _msgSender() */\n      jump\t// in\n    tag_292:\n        /* \"contract/myProject/CNRC_V2/V2_CNRedCross.sol\":21379:21402  owner() == _msgSender() */\n      0xffffffffffffffffffffffffffffffffffffffff\n      and\n        /* \"contract/myProject/CNRC_V2/V2_CNRedCross.sol\":21379:21386  owner() */\n      tag_293\n        /* \"contract/myProject/CNRC_V2/V2_CNRedCross.sol\":21379:21384  owner */\n      tag_88\n        /* \"contract/myProject/CNRC_V2/V2_CNRedCross.sol\":21379:21386  owner() */\n      jump\t// in\n    tag_293:\n        /* \"contract/myProject/CNRC_V2/V2_CNRedCross.sol\":21379:21402  owner() == _msgSender() */\n      0xffffffffffffffffffffffffffffffffffffffff\n      and\n      eq\n        /* \"contract/myProject/CNRC_V2/V2_CNRedCross.sol\":21371:21439  require(owner() == _msgSender(), \"Ownable: caller is not the owner\") */\n      tag_294\n      jumpi\n      mload(0x40)\n      0x08c379a000000000000000000000000000000000000000000000000000000000\n      dup2\n      mstore\n      0x04\n      add\n      tag_295\n      swap1\n      tag_296\n      jump\t// in\n    tag_295:\n      mload(0x40)\n      dup1\n      swap2\n      sub\n      swap1\n      revert\n    tag_294:\n        /* \"contract/myProject/CNRC_V2/V2_CNRedCross.sol\":21315:21447  function _checkOwner() internal view virtual {\r... */\n      jump\t// out\n        /* \"contract/myProject/CNRC_V2/V2_CNRedCross.sol\":18331:18879  function _mint(address account, uint256 amount) internal virtual {\r... */\n    tag_164:\n        /* \"contract/myProject/CNRC_V2/V2_CNRedCross.sol\":18434:18435  0 */\n      0x00\n        /* \"contract/myProject/CNRC_V2/V2_CNRedCross.sol\":18415:18436  account != address(0) */\n      0xffffffffffffffffffffffffffffffffffffffff\n      and\n        /* \"contract/myProject/CNRC_V2/V2_CNRedCross.sol\":18415:18422  account */\n      dup3\n        /* \"contract/myProject/CNRC_V2/V2_CNRedCross.sol\":18415:18436  account != address(0) */\n      0xffffffffffffffffffffffffffffffffffffffff\n      and\n      eq\n      iszero\n        /* \"contract/myProject/CNRC_V2/V2_CNRedCross.sol\":18407:18472  require(account != address(0), \"ERC20: mint to the zero address\") */\n      tag_298\n      jumpi\n      mload(0x40)\n      0x08c379a000000000000000000000000000000000000000000000000000000000\n      dup2\n      mstore\n      0x04\n      add\n      tag_299\n      swap1\n      tag_300\n      jump\t// in\n    tag_299:\n      mload(0x40)\n      dup1\n      swap2\n      sub\n      swap1\n      revert\n    tag_298:\n        /* \"contract/myProject/CNRC_V2/V2_CNRedCross.sol\":18485:18534  _beforeTokenTransfer(address(0), account, amount) */\n      tag_301\n        /* \"contract/myProject/CNRC_V2/V2_CNRedCross.sol\":18514:18515  0 */\n      0x00\n        /* \"contract/myProject/CNRC_V2/V2_CNRedCross.sol\":18518:18525  account */\n      dup4\n        /* \"contract/myProject/CNRC_V2/V2_CNRedCross.sol\":18527:18533  amount */\n      dup4\n        /* \"contract/myProject/CNRC_V2/V2_CNRedCross.sol\":18485:18505  _beforeTokenTransfer */\n      tag_255\n        /* \"contract/myProject/CNRC_V2/V2_CNRedCross.sol\":18485:18534  _beforeTokenTransfer(address(0), account, amount) */\n      jump\t// in\n    tag_301:\n        /* \"contract/myProject/CNRC_V2/V2_CNRedCross.sol\":18563:18569  amount */\n      dup1\n        /* \"contract/myProject/CNRC_V2/V2_CNRedCross.sol\":18547:18559  _totalSupply */\n      0x35\n      0x00\n        /* \"contract/myProject/CNRC_V2/V2_CNRedCross.sol\":18547:18569  _totalSupply += amount */\n      dup3\n      dup3\n      sload\n      tag_302\n      swap2\n      swap1\n      tag_158\n      jump\t// in\n    tag_302:\n      swap3\n      pop\n      pop\n      dup2\n      swap1\n      sstore\n      pop\n        /* \"contract/myProject/CNRC_V2/V2_CNRedCross.sol\":18740:18746  amount */\n      dup1\n        /* \"contract/myProject/CNRC_V2/V2_CNRedCross.sol\":18718:18727  _balances */\n      0x33\n        /* \"contract/myProject/CNRC_V2/V2_CNRedCross.sol\":18718:18736  _balances[account] */\n      0x00\n        /* \"contract/myProject/CNRC_V2/V2_CNRedCross.sol\":18728:18735  account */\n      dup5\n        /* \"contract/myProject/CNRC_V2/V2_CNRedCross.sol\":18718:18736  _balances[account] */\n      0xffffffffffffffffffffffffffffffffffffffff\n      and\n      0xffffffffffffffffffffffffffffffffffffffff\n      and\n      dup2\n      mstore\n      0x20\n      add\n      swap1\n      dup2\n      mstore\n      0x20\n      add\n      0x00\n      keccak256\n      0x00\n        /* \"contract/myProject/CNRC_V2/V2_CNRedCross.sol\":18718:18746  _balances[account] += amount */\n      dup3\n      dup3\n      sload\n      add\n      swap3\n      pop\n      pop\n      dup2\n      swap1\n      sstore\n      pop\n        /* \"contract/myProject/CNRC_V2/V2_CNRedCross.sol\":18794:18801  account */\n      dup2\n        /* \"contract/myProject/CNRC_V2/V2_CNRedCross.sol\":18773:18810  Transfer(address(0), account, amount) */\n      0xffffffffffffffffffffffffffffffffffffffff\n      and\n        /* \"contract/myProject/CNRC_V2/V2_CNRedCross.sol\":18790:18791  0 */\n      0x00\n        /* \"contract/myProject/CNRC_V2/V2_CNRedCross.sol\":18773:18810  Transfer(address(0), account, amount) */\n      0xffffffffffffffffffffffffffffffffffffffff\n      and\n      0xddf252ad1be2c89b69c2b068fc378daa952ba7f163c4a11628f55a4df523b3ef\n        /* \"contract/myProject/CNRC_V2/V2_CNRedCross.sol\":18803:18809  amount */\n      dup4\n        /* \"contract/myProject/CNRC_V2/V2_CNRedCross.sol\":18773:18810  Transfer(address(0), account, amount) */\n      mload(0x40)\n      tag_303\n      swap2\n      swap1\n      tag_40\n      jump\t// in\n    tag_303:\n      mload(0x40)\n      dup1\n      swap2\n      sub\n      swap1\n      log3\n        /* \"contract/myProject/CNRC_V2/V2_CNRedCross.sol\":18823:18871  _afterTokenTransfer(address(0), account, amount) */\n      tag_304\n        /* \"contract/myProject/CNRC_V2/V2_CNRedCross.sol\":18851:18852  0 */\n      0x00\n        /* \"contract/myProject/CNRC_V2/V2_CNRedCross.sol\":18855:18862  account */\n      dup4\n        /* \"contract/myProject/CNRC_V2/V2_CNRedCross.sol\":18864:18870  amount */\n      dup4\n        /* \"contract/myProject/CNRC_V2/V2_CNRedCross.sol\":18823:18842  _afterTokenTransfer */\n      tag_261\n        /* \"contract/myProject/CNRC_V2/V2_CNRedCross.sol\":18823:18871  _afterTokenTransfer(address(0), account, amount) */\n      jump\t// in\n    tag_304:\n        /* \"contract/myProject/CNRC_V2/V2_CNRedCross.sol\":18331:18879  function _mint(address account, uint256 amount) internal virtual {\r... */\n      pop\n      pop\n      jump\t// out\n        /* \"contract/myProject/CNRC_V2/V2_CNRedCross.sol\":21775:21966  function _transferOwnership(address newOwner) internal virtual {\r... */\n    tag_184:\n        /* \"contract/myProject/CNRC_V2/V2_CNRedCross.sol\":21849:21865  address oldOwner */\n      0x00\n        /* \"contract/myProject/CNRC_V2/V2_CNRedCross.sol\":21868:21874  _owner */\n      0x65\n      0x00\n      swap1\n      sload\n      swap1\n      0x0100\n      exp\n      swap1\n      div\n      0xffffffffffffffffffffffffffffffffffffffff\n      and\n        /* \"contract/myProject/CNRC_V2/V2_CNRedCross.sol\":21849:21874  address oldOwner = _owner */\n      swap1\n      pop\n        /* \"contract/myProject/CNRC_V2/V2_CNRedCross.sol\":21894:21902  newOwner */\n      dup2\n        /* \"contract/myProject/CNRC_V2/V2_CNRedCross.sol\":21885:21891  _owner */\n      0x65\n      0x00\n        /* \"contract/myProject/CNRC_V2/V2_CNRedCross.sol\":21885:21902  _owner = newOwner */\n      0x0100\n      exp\n      dup2\n      sload\n      dup2\n      0xffffffffffffffffffffffffffffffffffffffff\n      mul\n      not\n      and\n      swap1\n      dup4\n      0xffffffffffffffffffffffffffffffffffffffff\n      and\n      mul\n      or\n      swap1\n      sstore\n      pop\n        /* \"contract/myProject/CNRC_V2/V2_CNRedCross.sol\":21949:21957  newOwner */\n      dup2\n        /* \"contract/myProject/CNRC_V2/V2_CNRedCross.sol\":21918:21958  OwnershipTransferred(oldOwner, newOwner) */\n      0xffffffffffffffffffffffffffffffffffffffff\n      and\n        /* \"contract/myProject/CNRC_V2/V2_CNRedCross.sol\":21939:21947  oldOwner */\n      dup2\n        /* \"contract/myProject/CNRC_V2/V2_CNRedCross.sol\":21918:21958  OwnershipTransferred(oldOwner, newOwner) */\n      0xffffffffffffffffffffffffffffffffffffffff\n      and\n      0x8be0079c531659141344cd1fd0a4f28419497f9722a3daafe3b4186f6b6457e0\n      mload(0x40)\n      mload(0x40)\n      dup1\n      swap2\n      sub\n      swap1\n      log3\n        /* \"contract/myProject/CNRC_V2/V2_CNRedCross.sol\":21838:21966  {\r... */\n      pop\n        /* \"contract/myProject/CNRC_V2/V2_CNRedCross.sol\":21775:21966  function _transferOwnership(address newOwner) internal virtual {\r... */\n      pop\n      jump\t// out\n        /* \"contract/myProject/CNRC_V2/V2_CNRedCross.sol\":1138:1464  function isContract(address account) internal view returns (bool) {\r... */\n    tag_189:\n        /* \"contract/myProject/CNRC_V2/V2_CNRedCross.sol\":1198:1202  bool */\n      0x00\n        /* \"contract/myProject/CNRC_V2/V2_CNRedCross.sol\":1455:1456  0 */\n      dup1\n        /* \"contract/myProject/CNRC_V2/V2_CNRedCross.sol\":1433:1440  account */\n      dup3\n        /* \"contract/myProject/CNRC_V2/V2_CNRedCross.sol\":1433:1452  account.code.length */\n      0xffffffffffffffffffffffffffffffffffffffff\n      and\n      extcodesize\n        /* \"contract/myProject/CNRC_V2/V2_CNRedCross.sol\":1433:1456  account.code.length > 0 */\n      gt\n        /* \"contract/myProject/CNRC_V2/V2_CNRedCross.sol\":1426:1456  return account.code.length > 0 */\n      swap1\n      pop\n        /* \"contract/myProject/CNRC_V2/V2_CNRedCross.sol\":1138:1464  function isContract(address account) internal view returns (bool) {\r... */\n      swap2\n      swap1\n      pop\n      jump\t// out\n        /* \"contract/myProject/CNRC_V2/V2_CNRedCross.sol\":15022:15171  function __ERC20_init(string memory name_, string memory symbol_) internal onlyInitializing {\r... */\n    tag_197:\n        /* \"contract/myProject/CNRC_V2/V2_CNRedCross.sol\":12473:12486  _initializing */\n      0x00\n      0x01\n      swap1\n      sload\n      swap1\n      0x0100\n      exp\n      swap1\n      div\n      0xff\n      and\n        /* \"contract/myProject/CNRC_V2/V2_CNRedCross.sol\":12465:12534  require(_initializing, \"Initializable: contract is not initializing\") */\n      tag_308\n      jumpi\n      mload(0x40)\n      0x08c379a000000000000000000000000000000000000000000000000000000000\n      dup2\n      mstore\n      0x04\n      add\n      tag_309\n      swap1\n      tag_310\n      jump\t// in\n    tag_309:\n      mload(0x40)\n      dup1\n      swap2\n      sub\n      swap1\n      revert\n    tag_308:\n        /* \"contract/myProject/CNRC_V2/V2_CNRedCross.sol\":15125:15163  __ERC20_init_unchained(name_, symbol_) */\n      tag_312\n        /* \"contract/myProject/CNRC_V2/V2_CNRedCross.sol\":15148:15153  name_ */\n      dup3\n        /* \"contract/myProject/CNRC_V2/V2_CNRedCross.sol\":15155:15162  symbol_ */\n      dup3\n        /* \"contract/myProject/CNRC_V2/V2_CNRedCross.sol\":15125:15147  __ERC20_init_unchained */\n      tag_313\n        /* \"contract/myProject/CNRC_V2/V2_CNRedCross.sol\":15125:15163  __ERC20_init_unchained(name_, symbol_) */\n      jump\t// in\n    tag_312:\n        /* \"contract/myProject/CNRC_V2/V2_CNRedCross.sol\":15022:15171  function __ERC20_init(string memory name_, string memory symbol_) internal onlyInitializing {\r... */\n      pop\n      pop\n      jump\t// out\n        /* \"contract/myProject/CNRC_V2/V2_CNRedCross.sol\":20921:21018  function __Ownable_init() internal onlyInitializing {\r... */\n    tag_199:\n        /* \"contract/myProject/CNRC_V2/V2_CNRedCross.sol\":12473:12486  _initializing */\n      0x00\n      0x01\n      swap1\n      sload\n      swap1\n      0x0100\n      exp\n      swap1\n      div\n      0xff\n      and\n        /* \"contract/myProject/CNRC_V2/V2_CNRedCross.sol\":12465:12534  require(_initializing, \"Initializable: contract is not initializing\") */\n      tag_315\n      jumpi\n      mload(0x40)\n      0x08c379a000000000000000000000000000000000000000000000000000000000\n      dup2\n      mstore\n      0x04\n      add\n      tag_316\n      swap1\n      tag_310\n      jump\t// in\n    tag_316:\n      mload(0x40)\n      dup1\n      swap2\n      sub\n      swap1\n      revert\n    tag_315:\n        /* \"contract/myProject/CNRC_V2/V2_CNRedCross.sol\":20984:21010  __Ownable_init_unchained() */\n      tag_318\n        /* \"contract/myProject/CNRC_V2/V2_CNRedCross.sol\":20984:21008  __Ownable_init_unchained */\n      tag_319\n        /* \"contract/myProject/CNRC_V2/V2_CNRedCross.sol\":20984:21010  __Ownable_init_unchained() */\n      jump\t// in\n    tag_318:\n        /* \"contract/myProject/CNRC_V2/V2_CNRedCross.sol\":20921:21018  function __Ownable_init() internal onlyInitializing {\r... */\n      jump\t// out\n        /* \"contract/myProject/CNRC_V2/V2_CNRedCross.sol\":31290:31358  function __UUPSUpgradeable_init() internal onlyInitializing {\r... */\n    tag_201:\n        /* \"contract/myProject/CNRC_V2/V2_CNRedCross.sol\":12473:12486  _initializing */\n      0x00\n      0x01\n      swap1\n      sload\n      swap1\n      0x0100\n      exp\n      swap1\n      div\n      0xff\n      and\n        /* \"contract/myProject/CNRC_V2/V2_CNRedCross.sol\":12465:12534  require(_initializing, \"Initializable: contract is not initializing\") */\n      tag_321\n      jumpi\n      mload(0x40)\n      0x08c379a000000000000000000000000000000000000000000000000000000000\n      dup2\n      mstore\n      0x04\n      add\n      tag_322\n      swap1\n      tag_310\n      jump\t// in\n    tag_322:\n      mload(0x40)\n      dup1\n      swap2\n      sub\n      swap1\n      revert\n    tag_321:\n        /* \"contract/myProject/CNRC_V2/V2_CNRedCross.sol\":31290:31358  function __UUPSUpgradeable_init() internal onlyInitializing {\r... */\n      jump\t// out\n        /* \"contract/myProject/CNRC_V2/V2_CNRedCross.sol\":20419:20544  function _beforeTokenTransfer(\r... */\n    tag_255:\n      pop\n      pop\n      pop\n      jump\t// out\n        /* \"contract/myProject/CNRC_V2/V2_CNRedCross.sol\":20552:20676  function _afterTokenTransfer(\r... */\n    tag_261:\n      pop\n      pop\n      pop\n      jump\t// out\n        /* \"contract/myProject/CNRC_V2/V2_CNRedCross.sol\":8786:8981  function getAddressSlot(bytes32 slot) internal pure returns (AddressSlot storage r) {\r... */\n    tag_264:\n        /* \"contract/myProject/CNRC_V2/V2_CNRedCross.sol\":8847:8868  AddressSlot storage r */\n      0x00\n        /* \"contract/myProject/CNRC_V2/V2_CNRedCross.sol\":8959:8963  slot */\n      dup2\n        /* \"contract/myProject/CNRC_V2/V2_CNRedCross.sol\":8949:8963  r.slot := slot */\n      swap1\n      pop\n        /* \"contract/myProject/CNRC_V2/V2_CNRedCross.sol\":8786:8981  function getAddressSlot(bytes32 slot) internal pure returns (AddressSlot storage r) {\r... */\n      swap2\n      swap1\n      pop\n      jump\t// out\n        /* \"contract/myProject/CNRC_V2/V2_CNRedCross.sol\":9084:9279  function getBooleanSlot(bytes32 slot) internal pure returns (BooleanSlot storage r) {\r... */\n    tag_270:\n        /* \"contract/myProject/CNRC_V2/V2_CNRedCross.sol\":9145:9166  BooleanSlot storage r */\n      0x00\n        /* \"contract/myProject/CNRC_V2/V2_CNRedCross.sol\":9257:9261  slot */\n      dup2\n        /* \"contract/myProject/CNRC_V2/V2_CNRedCross.sol\":9247:9261  r.slot := slot */\n      swap1\n      pop\n        /* \"contract/myProject/CNRC_V2/V2_CNRedCross.sol\":9084:9279  function getBooleanSlot(bytes32 slot) internal pure returns (BooleanSlot storage r) {\r... */\n      swap2\n      swap1\n      pop\n      jump\t// out\n        /* \"contract/myProject/CNRC_V2/V2_CNRedCross.sol\":24318:24602  function _setImplementation(address newImplementation) private {\r... */\n    tag_273:\n        /* \"contract/myProject/CNRC_V2/V2_CNRedCross.sol\":24400:24448  AddressUpgradeable.isContract(newImplementation) */\n      tag_329\n        /* \"contract/myProject/CNRC_V2/V2_CNRedCross.sol\":24430:24447  newImplementation */\n      dup2\n        /* \"contract/myProject/CNRC_V2/V2_CNRedCross.sol\":24400:24429  AddressUpgradeable.isContract */\n      tag_189\n        /* \"contract/myProject/CNRC_V2/V2_CNRedCross.sol\":24400:24448  AddressUpgradeable.isContract(newImplementation) */\n      jump\t// in\n    tag_329:\n        /* \"contract/myProject/CNRC_V2/V2_CNRedCross.sol\":24392:24498  require(AddressUpgradeable.isContract(newImplementation), \"ERC1967: new implementation is not a contract\") */\n      tag_330\n      jumpi\n      mload(0x40)\n      0x08c379a000000000000000000000000000000000000000000000000000000000\n      dup2\n      mstore\n      0x04\n      add\n      tag_331\n      swap1\n      tag_332\n      jump\t// in\n    tag_331:\n      mload(0x40)\n      dup1\n      swap2\n      sub\n      swap1\n      revert\n    tag_330:\n        /* \"contract/myProject/CNRC_V2/V2_CNRedCross.sol\":24577:24594  newImplementation */\n      dup1\n        /* \"contract/myProject/CNRC_V2/V2_CNRedCross.sol\":24509:24568  StorageSlotUpgradeable.getAddressSlot(_IMPLEMENTATION_SLOT) */\n      tag_333\n        /* \"contract/myProject/CNRC_V2/V2_CNRedCross.sol\":23788:23854  0x360894a13ba1a3210667c828492db98dca3e2076cc3735a920a3ca505d382bbc */\n      0x360894a13ba1a3210667c828492db98dca3e2076cc3735a920a3ca505d382bbc\n        /* \"contract/myProject/CNRC_V2/V2_CNRedCross.sol\":24547:24567  _IMPLEMENTATION_SLOT */\n      0x00\n      shl\n        /* \"contract/myProject/CNRC_V2/V2_CNRedCross.sol\":24509:24546  StorageSlotUpgradeable.getAddressSlot */\n      tag_264\n        /* \"contract/myProject/CNRC_V2/V2_CNRedCross.sol\":24509:24568  StorageSlotUpgradeable.getAddressSlot(_IMPLEMENTATION_SLOT) */\n      jump\t// in\n    tag_333:\n        /* \"contract/myProject/CNRC_V2/V2_CNRedCross.sol\":24509:24574  StorageSlotUpgradeable.getAddressSlot(_IMPLEMENTATION_SLOT).value */\n      0x00\n      add\n      0x00\n        /* \"contract/myProject/CNRC_V2/V2_CNRedCross.sol\":24509:24594  StorageSlotUpgradeable.getAddressSlot(_IMPLEMENTATION_SLOT).value = newImplementation */\n      0x0100\n      exp\n      dup2\n      sload\n      dup2\n      0xffffffffffffffffffffffffffffffffffffffff\n      mul\n      not\n      and\n      swap1\n      dup4\n      0xffffffffffffffffffffffffffffffffffffffff\n      and\n      mul\n      or\n      swap1\n      sstore\n      pop\n        /* \"contract/myProject/CNRC_V2/V2_CNRedCross.sol\":24318:24602  function _setImplementation(address newImplementation) private {\r... */\n      pop\n      jump\t// out\n        /* \"contract/myProject/CNRC_V2/V2_CNRedCross.sol\":25011:25308  function _upgradeToAndCall(\r... */\n    tag_290:\n        /* \"contract/myProject/CNRC_V2/V2_CNRedCross.sol\":25154:25183  _upgradeTo(newImplementation) */\n      tag_335\n        /* \"contract/myProject/CNRC_V2/V2_CNRedCross.sol\":25165:25182  newImplementation */\n      dup4\n        /* \"contract/myProject/CNRC_V2/V2_CNRedCross.sol\":25154:25164  _upgradeTo */\n      tag_336\n        /* \"contract/myProject/CNRC_V2/V2_CNRedCross.sol\":25154:25183  _upgradeTo(newImplementation) */\n      jump\t// in\n    tag_335:\n        /* \"contract/myProject/CNRC_V2/V2_CNRedCross.sol\":25212:25213  0 */\n      0x00\n        /* \"contract/myProject/CNRC_V2/V2_CNRedCross.sol\":25198:25202  data */\n      dup3\n        /* \"contract/myProject/CNRC_V2/V2_CNRedCross.sol\":25198:25209  data.length */\n      mload\n        /* \"contract/myProject/CNRC_V2/V2_CNRedCross.sol\":25198:25213  data.length > 0 */\n      gt\n        /* \"contract/myProject/CNRC_V2/V2_CNRedCross.sol\":25198:25226  data.length > 0 || forceCall */\n      dup1\n      tag_337\n      jumpi\n      pop\n        /* \"contract/myProject/CNRC_V2/V2_CNRedCross.sol\":25217:25226  forceCall */\n      dup1\n        /* \"contract/myProject/CNRC_V2/V2_CNRedCross.sol\":25198:25226  data.length > 0 || forceCall */\n    tag_337:\n        /* \"contract/myProject/CNRC_V2/V2_CNRedCross.sol\":25194:25301  if (data.length > 0 || forceCall) {\r... */\n      iszero\n      tag_338\n      jumpi\n        /* \"contract/myProject/CNRC_V2/V2_CNRedCross.sol\":25243:25289  _functionDelegateCall(newImplementation, data) */\n      tag_339\n        /* \"contract/myProject/CNRC_V2/V2_CNRedCross.sol\":25265:25282  newImplementation */\n      dup4\n        /* \"contract/myProject/CNRC_V2/V2_CNRedCross.sol\":25284:25288  data */\n      dup4\n        /* \"contract/myProject/CNRC_V2/V2_CNRedCross.sol\":25243:25264  _functionDelegateCall */\n      tag_340\n        /* \"contract/myProject/CNRC_V2/V2_CNRedCross.sol\":25243:25289  _functionDelegateCall(newImplementation, data) */\n      jump\t// in\n    tag_339:\n      pop\n        /* \"contract/myProject/CNRC_V2/V2_CNRedCross.sol\":25194:25301  if (data.length > 0 || forceCall) {\r... */\n    tag_338:\n        /* \"contract/myProject/CNRC_V2/V2_CNRedCross.sol\":25011:25308  function _upgradeToAndCall(\r... */\n      pop\n      pop\n      pop\n      jump\t// out\n        /* \"contract/myProject/CNRC_V2/V2_CNRedCross.sol\":15179:15341  function __ERC20_init_unchained(string memory name_, string memory symbol_) internal onlyInitializing {\r... */\n    tag_313:\n        /* \"contract/myProject/CNRC_V2/V2_CNRedCross.sol\":12473:12486  _initializing */\n      0x00\n      0x01\n      swap1\n      sload\n      swap1\n      0x0100\n      exp\n      swap1\n      div\n      0xff\n      and\n        /* \"contract/myProject/CNRC_V2/V2_CNRedCross.sol\":12465:12534  require(_initializing, \"Initializable: contract is not initializing\") */\n      tag_342\n      jumpi\n      mload(0x40)\n      0x08c379a000000000000000000000000000000000000000000000000000000000\n      dup2\n      mstore\n      0x04\n      add\n      tag_343\n      swap1\n      tag_310\n      jump\t// in\n    tag_343:\n      mload(0x40)\n      dup1\n      swap2\n      sub\n      swap1\n      revert\n    tag_342:\n        /* \"contract/myProject/CNRC_V2/V2_CNRedCross.sol\":15300:15305  name_ */\n      dup2\n        /* \"contract/myProject/CNRC_V2/V2_CNRedCross.sol\":15292:15297  _name */\n      0x36\n        /* \"contract/myProject/CNRC_V2/V2_CNRedCross.sol\":15292:15305  _name = name_ */\n      swap1\n      dup1\n      mload\n      swap1\n      0x20\n      add\n      swap1\n      tag_345\n      swap3\n      swap2\n      swap1\n      tag_346\n      jump\t// in\n    tag_345:\n      pop\n        /* \"contract/myProject/CNRC_V2/V2_CNRedCross.sol\":15326:15333  symbol_ */\n      dup1\n        /* \"contract/myProject/CNRC_V2/V2_CNRedCross.sol\":15316:15323  _symbol */\n      0x37\n        /* \"contract/myProject/CNRC_V2/V2_CNRedCross.sol\":15316:15333  _symbol = symbol_ */\n      swap1\n      dup1\n      mload\n      swap1\n      0x20\n      add\n      swap1\n      tag_347\n      swap3\n      swap2\n      swap1\n      tag_346\n      jump\t// in\n    tag_347:\n      pop\n        /* \"contract/myProject/CNRC_V2/V2_CNRedCross.sol\":15179:15341  function __ERC20_init_unchained(string memory name_, string memory symbol_) internal onlyInitializing {\r... */\n      pop\n      pop\n      jump\t// out\n        /* \"contract/myProject/CNRC_V2/V2_CNRedCross.sol\":21026:21139  function __Ownable_init_unchained() internal onlyInitializing {\r... */\n    tag_319:\n        /* \"contract/myProject/CNRC_V2/V2_CNRedCross.sol\":12473:12486  _initializing */\n      0x00\n      0x01\n      swap1\n      sload\n      swap1\n      0x0100\n      exp\n      swap1\n      div\n      0xff\n      and\n        /* \"contract/myProject/CNRC_V2/V2_CNRedCross.sol\":12465:12534  require(_initializing, \"Initializable: contract is not initializing\") */\n      tag_349\n      jumpi\n      mload(0x40)\n      0x08c379a000000000000000000000000000000000000000000000000000000000\n      dup2\n      mstore\n      0x04\n      add\n      tag_350\n      swap1\n      tag_310\n      jump\t// in\n    tag_350:\n      mload(0x40)\n      dup1\n      swap2\n      sub\n      swap1\n      revert\n    tag_349:\n        /* \"contract/myProject/CNRC_V2/V2_CNRedCross.sol\":21099:21131  _transferOwnership(_msgSender()) */\n      tag_352\n        /* \"contract/myProject/CNRC_V2/V2_CNRedCross.sol\":21118:21130  _msgSender() */\n      tag_353\n        /* \"contract/myProject/CNRC_V2/V2_CNRedCross.sol\":21118:21128  _msgSender */\n      tag_124\n        /* \"contract/myProject/CNRC_V2/V2_CNRedCross.sol\":21118:21130  _msgSender() */\n      jump\t// in\n    tag_353:\n        /* \"contract/myProject/CNRC_V2/V2_CNRedCross.sol\":21099:21117  _transferOwnership */\n      tag_184\n        /* \"contract/myProject/CNRC_V2/V2_CNRedCross.sol\":21099:21131  _transferOwnership(_msgSender()) */\n      jump\t// in\n    tag_352:\n        /* \"contract/myProject/CNRC_V2/V2_CNRedCross.sol\":21026:21139  function __Ownable_init_unchained() internal onlyInitializing {\r... */\n      jump\t// out\n        /* \"contract/myProject/CNRC_V2/V2_CNRedCross.sol\":24715:24870  function _upgradeTo(address newImplementation) internal {\r... */\n    tag_336:\n        /* \"contract/myProject/CNRC_V2/V2_CNRedCross.sol\":24782:24819  _setImplementation(newImplementation) */\n      tag_355\n        /* \"contract/myProject/CNRC_V2/V2_CNRedCross.sol\":24801:24818  newImplementation */\n      dup2\n        /* \"contract/myProject/CNRC_V2/V2_CNRedCross.sol\":24782:24800  _setImplementation */\n      tag_273\n        /* \"contract/myProject/CNRC_V2/V2_CNRedCross.sol\":24782:24819  _setImplementation(newImplementation) */\n      jump\t// in\n    tag_355:\n        /* \"contract/myProject/CNRC_V2/V2_CNRedCross.sol\":24844:24861  newImplementation */\n      dup1\n        /* \"contract/myProject/CNRC_V2/V2_CNRedCross.sol\":24835:24862  Upgraded(newImplementation) */\n      0xffffffffffffffffffffffffffffffffffffffff\n      and\n      0xbc7cd75a20ee27fd9adebab32041f755214dbc6bffa90cc0225b39da2e5c2d3b\n      mload(0x40)\n      mload(0x40)\n      dup1\n      swap2\n      sub\n      swap1\n      log2\n        /* \"contract/myProject/CNRC_V2/V2_CNRedCross.sol\":24715:24870  function _upgradeTo(address newImplementation) internal {\r... */\n      pop\n      jump\t// out\n        /* \"contract/myProject/CNRC_V2/V2_CNRedCross.sol\":29748:30209  function _functionDelegateCall(address target, bytes memory data) private returns (bytes memory) {\r... */\n    tag_340:\n        /* \"contract/myProject/CNRC_V2/V2_CNRedCross.sol\":29831:29843  bytes memory */\n      0x60\n        /* \"contract/myProject/CNRC_V2/V2_CNRedCross.sol\":29864:29901  AddressUpgradeable.isContract(target) */\n      tag_357\n        /* \"contract/myProject/CNRC_V2/V2_CNRedCross.sol\":29894:29900  target */\n      dup4\n        /* \"contract/myProject/CNRC_V2/V2_CNRedCross.sol\":29864:29893  AddressUpgradeable.isContract */\n      tag_189\n        /* \"contract/myProject/CNRC_V2/V2_CNRedCross.sol\":29864:29901  AddressUpgradeable.isContract(target) */\n      jump\t// in\n    tag_357:\n        /* \"contract/myProject/CNRC_V2/V2_CNRedCross.sol\":29856:29944  require(AddressUpgradeable.isContract(target), \"Address: delegate call to non-contract\") */\n      tag_358\n      jumpi\n      mload(0x40)\n      0x08c379a000000000000000000000000000000000000000000000000000000000\n      dup2\n      mstore\n      0x04\n      add\n      tag_359\n      swap1\n      tag_360\n      jump\t// in\n    tag_359:\n      mload(0x40)\n      dup1\n      swap2\n      sub\n      swap1\n      revert\n    tag_358:\n        /* \"contract/myProject/CNRC_V2/V2_CNRedCross.sol\":30018:30030  bool success */\n      0x00\n        /* \"contract/myProject/CNRC_V2/V2_CNRedCross.sol\":30032:30055  bytes memory returndata */\n      dup1\n        /* \"contract/myProject/CNRC_V2/V2_CNRedCross.sol\":30059:30065  target */\n      dup5\n        /* \"contract/myProject/CNRC_V2/V2_CNRedCross.sol\":30059:30078  target.delegatecall */\n      0xffffffffffffffffffffffffffffffffffffffff\n      and\n        /* \"contract/myProject/CNRC_V2/V2_CNRedCross.sol\":30079:30083  data */\n      dup5\n        /* \"contract/myProject/CNRC_V2/V2_CNRedCross.sol\":30059:30084  target.delegatecall(data) */\n      mload(0x40)\n      tag_361\n      swap2\n      swap1\n      tag_362\n      jump\t// in\n    tag_361:\n      0x00\n      mload(0x40)\n      dup1\n      dup4\n      sub\n      dup2\n      dup6\n      gas\n      delegatecall\n      swap2\n      pop\n      pop\n      returndatasize\n      dup1\n      0x00\n      dup2\n      eq\n      tag_365\n      jumpi\n      mload(0x40)\n      swap2\n      pop\n      and(add(returndatasize, 0x3f), not(0x1f))\n      dup3\n      add\n      0x40\n      mstore\n      returndatasize\n      dup3\n      mstore\n      returndatasize\n      0x00\n      0x20\n      dup5\n      add\n      returndatacopy\n      jump(tag_364)\n    tag_365:\n      0x60\n      swap2\n      pop\n    tag_364:\n      pop\n        /* \"contract/myProject/CNRC_V2/V2_CNRedCross.sol\":30017:30084  (bool success, bytes memory returndata) = target.delegatecall(data) */\n      swap2\n      pop\n      swap2\n      pop\n        /* \"contract/myProject/CNRC_V2/V2_CNRedCross.sol\":30102:30201  AddressUpgradeable.verifyCallResult(success, returndata, \"Address: low-level delegate call failed\") */\n      tag_366\n        /* \"contract/myProject/CNRC_V2/V2_CNRedCross.sol\":30138:30145  success */\n      dup3\n        /* \"contract/myProject/CNRC_V2/V2_CNRedCross.sol\":30147:30157  returndata */\n      dup3\n        /* \"contract/myProject/CNRC_V2/V2_CNRedCross.sol\":30102:30201  AddressUpgradeable.verifyCallResult(success, returndata, \"Address: low-level delegate call failed\") */\n      mload(0x40)\n      dup1\n      0x60\n      add\n      0x40\n      mstore\n      dup1\n      0x27\n      dup2\n      mstore\n      0x20\n      add\n      data_9fdcd12e4b726339b32a442b0a448365d5d85c96b2d2cff917b4f66c63110398\n      0x27\n      swap2\n      codecopy\n        /* \"contract/myProject/CNRC_V2/V2_CNRedCross.sol\":30102:30137  AddressUpgradeable.verifyCallResult */\n      tag_367\n        /* \"contract/myProject/CNRC_V2/V2_CNRedCross.sol\":30102:30201  AddressUpgradeable.verifyCallResult(success, returndata, \"Address: low-level delegate call failed\") */\n      jump\t// in\n    tag_366:\n        /* \"contract/myProject/CNRC_V2/V2_CNRedCross.sol\":30095:30201  return AddressUpgradeable.verifyCallResult(success, returndata, \"Address: low-level delegate call failed\") */\n      swap3\n      pop\n      pop\n      pop\n        /* \"contract/myProject/CNRC_V2/V2_CNRedCross.sol\":29748:30209  function _functionDelegateCall(address target, bytes memory data) private returns (bytes memory) {\r... */\n      swap3\n      swap2\n      pop\n      pop\n      jump\t// out\n        /* \"contract/myProject/CNRC_V2/V2_CNRedCross.sol\":7548:7853  function verifyCallResult(\r... */\n    tag_367:\n        /* \"contract/myProject/CNRC_V2/V2_CNRedCross.sol\":7698:7710  bytes memory */\n      0x60\n        /* \"contract/myProject/CNRC_V2/V2_CNRedCross.sol\":7727:7734  success */\n      dup4\n        /* \"contract/myProject/CNRC_V2/V2_CNRedCross.sol\":7723:7846  if (success) {\r... */\n      iszero\n      tag_369\n      jumpi\n        /* \"contract/myProject/CNRC_V2/V2_CNRedCross.sol\":7758:7768  returndata */\n      dup3\n        /* \"contract/myProject/CNRC_V2/V2_CNRedCross.sol\":7751:7768  return returndata */\n      swap1\n      pop\n      jump(tag_368)\n        /* \"contract/myProject/CNRC_V2/V2_CNRedCross.sol\":7723:7846  if (success) {\r... */\n    tag_369:\n        /* \"contract/myProject/CNRC_V2/V2_CNRedCross.sol\":7801:7834  _revert(returndata, errorMessage) */\n      tag_371\n        /* \"contract/myProject/CNRC_V2/V2_CNRedCross.sol\":7809:7819  returndata */\n      dup4\n        /* \"contract/myProject/CNRC_V2/V2_CNRedCross.sol\":7821:7833  errorMessage */\n      dup4\n        /* \"contract/myProject/CNRC_V2/V2_CNRedCross.sol\":7801:7808  _revert */\n      tag_372\n        /* \"contract/myProject/CNRC_V2/V2_CNRedCross.sol\":7801:7834  _revert(returndata, errorMessage) */\n      jump\t// in\n    tag_371:\n        /* \"contract/myProject/CNRC_V2/V2_CNRedCross.sol\":7548:7853  function verifyCallResult(\r... */\n    tag_368:\n      swap4\n      swap3\n      pop\n      pop\n      pop\n      jump\t// out\n        /* \"contract/myProject/CNRC_V2/V2_CNRedCross.sol\":7861:8413  function _revert(bytes memory returndata, string memory errorMessage) private pure {\r... */\n    tag_372:\n        /* \"contract/myProject/CNRC_V2/V2_CNRedCross.sol\":8042:8043  0 */\n      0x00\n        /* \"contract/myProject/CNRC_V2/V2_CNRedCross.sol\":8022:8032  returndata */\n      dup3\n        /* \"contract/myProject/CNRC_V2/V2_CNRedCross.sol\":8022:8039  returndata.length */\n      mload\n        /* \"contract/myProject/CNRC_V2/V2_CNRedCross.sol\":8022:8043  returndata.length > 0 */\n      gt\n        /* \"contract/myProject/CNRC_V2/V2_CNRedCross.sol\":8018:8406  if (returndata.length > 0) {\r... */\n      iszero\n      tag_374\n      jumpi\n        /* \"contract/myProject/CNRC_V2/V2_CNRedCross.sol\":8254:8264  returndata */\n      dup2\n        /* \"contract/myProject/CNRC_V2/V2_CNRedCross.sol\":8248:8265  mload(returndata) */\n      mload\n        /* \"contract/myProject/CNRC_V2/V2_CNRedCross.sol\":8311:8326  returndata_size */\n      dup1\n        /* \"contract/myProject/CNRC_V2/V2_CNRedCross.sol\":8298:8308  returndata */\n      dup4\n        /* \"contract/myProject/CNRC_V2/V2_CNRedCross.sol\":8294:8296  32 */\n      0x20\n        /* \"contract/myProject/CNRC_V2/V2_CNRedCross.sol\":8290:8309  add(32, returndata) */\n      add\n        /* \"contract/myProject/CNRC_V2/V2_CNRedCross.sol\":8283:8327  revert(add(32, returndata), returndata_size) */\n      revert\n        /* \"contract/myProject/CNRC_V2/V2_CNRedCross.sol\":8018:8406  if (returndata.length > 0) {\r... */\n    tag_374:\n        /* \"contract/myProject/CNRC_V2/V2_CNRedCross.sol\":8381:8393  errorMessage */\n      dup1\n        /* \"contract/myProject/CNRC_V2/V2_CNRedCross.sol\":8374:8394  revert(errorMessage) */\n      mload(0x40)\n      0x08c379a000000000000000000000000000000000000000000000000000000000\n      dup2\n      mstore\n      0x04\n      add\n      tag_376\n      swap2\n      swap1\n      tag_28\n      jump\t// in\n    tag_376:\n      mload(0x40)\n      dup1\n      swap2\n      sub\n      swap1\n      revert\n    tag_346:\n      dup3\n      dup1\n      sload\n      tag_377\n      swap1\n      tag_117\n      jump\t// in\n    tag_377:\n      swap1\n      0x00\n      mstore\n      keccak256(0x00, 0x20)\n      swap1\n      0x1f\n      add\n      0x20\n      swap1\n      div\n      dup2\n      add\n      swap3\n      dup3\n      tag_379\n      jumpi\n      0x00\n      dup6\n      sstore\n      jump(tag_378)\n    tag_379:\n      dup3\n      0x1f\n      lt\n      tag_380\n      jumpi\n      dup1\n      mload\n      not(0xff)\n      and\n      dup4\n      dup1\n      add\n      or\n      dup6\n      sstore\n      jump(tag_378)\n    tag_380:\n      dup3\n      dup1\n      add\n      0x01\n      add\n      dup6\n      sstore\n      dup3\n      iszero\n      tag_378\n      jumpi\n      swap2\n      dup3\n      add\n    tag_381:\n      dup3\n      dup2\n      gt\n      iszero\n      tag_382\n      jumpi\n      dup3\n      mload\n      dup3\n      sstore\n      swap2\n      0x20\n      add\n      swap2\n      swap1\n      0x01\n      add\n      swap1\n      jump(tag_381)\n    tag_382:\n    tag_378:\n      pop\n      swap1\n      pop\n      tag_383\n      swap2\n      swap1\n      tag_384\n      jump\t// in\n    tag_383:\n      pop\n      swap1\n      jump\t// out\n    tag_384:\n    tag_385:\n      dup1\n      dup3\n      gt\n      iszero\n      tag_386\n      jumpi\n      0x00\n      dup2\n      0x00\n      swap1\n      sstore\n      pop\n      0x01\n      add\n      jump(tag_385)\n    tag_386:\n      pop\n      swap1\n      jump\t// out\n        /* \"#utility.yul\":7:417   */\n    tag_388:\n        /* \"#utility.yul\":84:89   */\n      0x00\n        /* \"#utility.yul\":109:174   */\n      tag_390\n        /* \"#utility.yul\":125:173   */\n      tag_391\n        /* \"#utility.yul\":166:172   */\n      dup5\n        /* \"#utility.yul\":125:173   */\n      tag_392\n      jump\t// in\n    tag_391:\n        /* \"#utility.yul\":109:174   */\n      tag_393\n      jump\t// in\n    tag_390:\n        /* \"#utility.yul\":100:174   */\n      swap1\n      pop\n        /* \"#utility.yul\":197:203   */\n      dup3\n        /* \"#utility.yul\":190:195   */\n      dup2\n        /* \"#utility.yul\":183:204   */\n      mstore\n        /* \"#utility.yul\":235:239   */\n      0x20\n        /* \"#utility.yul\":228:233   */\n      dup2\n        /* \"#utility.yul\":224:240   */\n      add\n        /* \"#utility.yul\":273:276   */\n      dup5\n        /* \"#utility.yul\":264:270   */\n      dup5\n        /* \"#utility.yul\":259:262   */\n      dup5\n        /* \"#utility.yul\":255:271   */\n      add\n        /* \"#utility.yul\":252:277   */\n      gt\n        /* \"#utility.yul\":249:361   */\n      iszero\n      tag_394\n      jumpi\n        /* \"#utility.yul\":280:359   */\n      tag_395\n      tag_396\n      jump\t// in\n    tag_395:\n        /* \"#utility.yul\":249:361   */\n    tag_394:\n        /* \"#utility.yul\":370:411   */\n      tag_397\n        /* \"#utility.yul\":404:410   */\n      dup5\n        /* \"#utility.yul\":399:402   */\n      dup3\n        /* \"#utility.yul\":394:397   */\n      dup6\n        /* \"#utility.yul\":370:411   */\n      tag_398\n      jump\t// in\n    tag_397:\n        /* \"#utility.yul\":90:417   */\n      pop\n        /* \"#utility.yul\":7:417   */\n      swap4\n      swap3\n      pop\n      pop\n      pop\n      jump\t// out\n        /* \"#utility.yul\":423:562   */\n    tag_399:\n        /* \"#utility.yul\":469:474   */\n      0x00\n        /* \"#utility.yul\":507:513   */\n      dup2\n        /* \"#utility.yul\":494:514   */\n      calldataload\n        /* \"#utility.yul\":485:514   */\n      swap1\n      pop\n        /* \"#utility.yul\":523:556   */\n      tag_401\n        /* \"#utility.yul\":550:555   */\n      dup2\n        /* \"#utility.yul\":523:556   */\n      tag_402\n      jump\t// in\n    tag_401:\n        /* \"#utility.yul\":423:562   */\n      swap3\n      swap2\n      pop\n      pop\n      jump\t// out\n        /* \"#utility.yul\":568:711   */\n    tag_403:\n        /* \"#utility.yul\":625:630   */\n      0x00\n        /* \"#utility.yul\":656:662   */\n      dup2\n        /* \"#utility.yul\":650:663   */\n      mload\n        /* \"#utility.yul\":641:663   */\n      swap1\n      pop\n        /* \"#utility.yul\":672:705   */\n      tag_405\n        /* \"#utility.yul\":699:704   */\n      dup2\n        /* \"#utility.yul\":672:705   */\n      tag_406\n      jump\t// in\n    tag_405:\n        /* \"#utility.yul\":568:711   */\n      swap3\n      swap2\n      pop\n      pop\n      jump\t// out\n        /* \"#utility.yul\":730:1068   */\n    tag_407:\n        /* \"#utility.yul\":785:790   */\n      0x00\n        /* \"#utility.yul\":834:837   */\n      dup3\n        /* \"#utility.yul\":827:831   */\n      0x1f\n        /* \"#utility.yul\":819:825   */\n      dup4\n        /* \"#utility.yul\":815:832   */\n      add\n        /* \"#utility.yul\":811:838   */\n      slt\n        /* \"#utility.yul\":801:923   */\n      tag_409\n      jumpi\n        /* \"#utility.yul\":842:921   */\n      tag_410\n      tag_411\n      jump\t// in\n    tag_410:\n        /* \"#utility.yul\":801:923   */\n    tag_409:\n        /* \"#utility.yul\":959:965   */\n      dup2\n        /* \"#utility.yul\":946:966   */\n      calldataload\n        /* \"#utility.yul\":984:1062   */\n      tag_412\n        /* \"#utility.yul\":1058:1061   */\n      dup5\n        /* \"#utility.yul\":1050:1056   */\n      dup3\n        /* \"#utility.yul\":1043:1047   */\n      0x20\n        /* \"#utility.yul\":1035:1041   */\n      dup7\n        /* \"#utility.yul\":1031:1048   */\n      add\n        /* \"#utility.yul\":984:1062   */\n      tag_388\n      jump\t// in\n    tag_412:\n        /* \"#utility.yul\":975:1062   */\n      swap2\n      pop\n        /* \"#utility.yul\":791:1068   */\n      pop\n        /* \"#utility.yul\":730:1068   */\n      swap3\n      swap2\n      pop\n      pop\n      jump\t// out\n        /* \"#utility.yul\":1074:1213   */\n    tag_413:\n        /* \"#utility.yul\":1120:1125   */\n      0x00\n        /* \"#utility.yul\":1158:1164   */\n      dup2\n        /* \"#utility.yul\":1145:1165   */\n      calldataload\n        /* \"#utility.yul\":1136:1165   */\n      swap1\n      pop\n        /* \"#utility.yul\":1174:1207   */\n      tag_415\n        /* \"#utility.yul\":1201:1206   */\n      dup2\n        /* \"#utility.yul\":1174:1207   */\n      tag_416\n      jump\t// in\n    tag_415:\n        /* \"#utility.yul\":1074:1213   */\n      swap3\n      swap2\n      pop\n      pop\n      jump\t// out\n        /* \"#utility.yul\":1219:1548   */\n    tag_55:\n        /* \"#utility.yul\":1278:1284   */\n      0x00\n        /* \"#utility.yul\":1327:1329   */\n      0x20\n        /* \"#utility.yul\":1315:1324   */\n      dup3\n        /* \"#utility.yul\":1306:1313   */\n      dup5\n        /* \"#utility.yul\":1302:1325   */\n      sub\n        /* \"#utility.yul\":1298:1330   */\n      slt\n        /* \"#utility.yul\":1295:1414   */\n      iszero\n      tag_418\n      jumpi\n        /* \"#utility.yul\":1333:1412   */\n      tag_419\n      tag_420\n      jump\t// in\n    tag_419:\n        /* \"#utility.yul\":1295:1414   */\n    tag_418:\n        /* \"#utility.yul\":1453:1454   */\n      0x00\n        /* \"#utility.yul\":1478:1531   */\n      tag_421\n        /* \"#utility.yul\":1523:1530   */\n      dup5\n        /* \"#utility.yul\":1514:1520   */\n      dup3\n        /* \"#utility.yul\":1503:1512   */\n      dup6\n        /* \"#utility.yul\":1499:1521   */\n      add\n        /* \"#utility.yul\":1478:1531   */\n      tag_399\n      jump\t// in\n    tag_421:\n        /* \"#utility.yul\":1468:1531   */\n      swap2\n      pop\n        /* \"#utility.yul\":1424:1541   */\n      pop\n        /* \"#utility.yul\":1219:1548   */\n      swap3\n      swap2\n      pop\n      pop\n      jump\t// out\n        /* \"#utility.yul\":1554:2028   */\n    tag_108:\n        /* \"#utility.yul\":1622:1628   */\n      0x00\n        /* \"#utility.yul\":1630:1636   */\n      dup1\n        /* \"#utility.yul\":1679:1681   */\n      0x40\n        /* \"#utility.yul\":1667:1676   */\n      dup4\n        /* \"#utility.yul\":1658:1665   */\n      dup6\n        /* \"#utility.yul\":1654:1677   */\n      sub\n        /* \"#utility.yul\":1650:1682   */\n      slt\n        /* \"#utility.yul\":1647:1766   */\n      iszero\n      tag_423\n      jumpi\n        /* \"#utility.yul\":1685:1764   */\n      tag_424\n      tag_420\n      jump\t// in\n    tag_424:\n        /* \"#utility.yul\":1647:1766   */\n    tag_423:\n        /* \"#utility.yul\":1805:1806   */\n      0x00\n        /* \"#utility.yul\":1830:1883   */\n      tag_425\n        /* \"#utility.yul\":1875:1882   */\n      dup6\n        /* \"#utility.yul\":1866:1872   */\n      dup3\n        /* \"#utility.yul\":1855:1864   */\n      dup7\n        /* \"#utility.yul\":1851:1873   */\n      add\n        /* \"#utility.yul\":1830:1883   */\n      tag_399\n      jump\t// in\n    tag_425:\n        /* \"#utility.yul\":1820:1883   */\n      swap3\n      pop\n        /* \"#utility.yul\":1776:1893   */\n      pop\n        /* \"#utility.yul\":1932:1934   */\n      0x20\n        /* \"#utility.yul\":1958:2011   */\n      tag_426\n        /* \"#utility.yul\":2003:2010   */\n      dup6\n        /* \"#utility.yul\":1994:2000   */\n      dup3\n        /* \"#utility.yul\":1983:1992   */\n      dup7\n        /* \"#utility.yul\":1979:2001   */\n      add\n        /* \"#utility.yul\":1958:2011   */\n      tag_399\n      jump\t// in\n    tag_426:\n        /* \"#utility.yul\":1948:2011   */\n      swap2\n      pop\n        /* \"#utility.yul\":1903:2021   */\n      pop\n        /* \"#utility.yul\":1554:2028   */\n      swap3\n      pop\n      swap3\n      swap1\n      pop\n      jump\t// out\n        /* \"#utility.yul\":2034:2653   */\n    tag_44:\n        /* \"#utility.yul\":2111:2117   */\n      0x00\n        /* \"#utility.yul\":2119:2125   */\n      dup1\n        /* \"#utility.yul\":2127:2133   */\n      0x00\n        /* \"#utility.yul\":2176:2178   */\n      0x60\n        /* \"#utility.yul\":2164:2173   */\n      dup5\n        /* \"#utility.yul\":2155:2162   */\n      dup7\n        /* \"#utility.yul\":2151:2174   */\n      sub\n        /* \"#utility.yul\":2147:2179   */\n      slt\n        /* \"#utility.yul\":2144:2263   */\n      iszero\n      tag_428\n      jumpi\n        /* \"#utility.yul\":2182:2261   */\n      tag_429\n      tag_420\n      jump\t// in\n    tag_429:\n        /* \"#utility.yul\":2144:2263   */\n    tag_428:\n        /* \"#utility.yul\":2302:2303   */\n      0x00\n        /* \"#utility.yul\":2327:2380   */\n      tag_430\n        /* \"#utility.yul\":2372:2379   */\n      dup7\n        /* \"#utility.yul\":2363:2369   */\n      dup3\n        /* \"#utility.yul\":2352:2361   */\n      dup8\n        /* \"#utility.yul\":2348:2370   */\n      add\n        /* \"#utility.yul\":2327:2380   */\n      tag_399\n      jump\t// in\n    tag_430:\n        /* \"#utility.yul\":2317:2380   */\n      swap4\n      pop\n        /* \"#utility.yul\":2273:2390   */\n      pop\n        /* \"#utility.yul\":2429:2431   */\n      0x20\n        /* \"#utility.yul\":2455:2508   */\n      tag_431\n        /* \"#utility.yul\":2500:2507   */\n      dup7\n        /* \"#utility.yul\":2491:2497   */\n      dup3\n        /* \"#utility.yul\":2480:2489   */\n      dup8\n        /* \"#utility.yul\":2476:2498   */\n      add\n        /* \"#utility.yul\":2455:2508   */\n      tag_399\n      jump\t// in\n    tag_431:\n        /* \"#utility.yul\":2445:2508   */\n      swap3\n      pop\n        /* \"#utility.yul\":2400:2518   */\n      pop\n        /* \"#utility.yul\":2557:2559   */\n      0x40\n        /* \"#utility.yul\":2583:2636   */\n      tag_432\n        /* \"#utility.yul\":2628:2635   */\n      dup7\n        /* \"#utility.yul\":2619:2625   */\n      dup3\n        /* \"#utility.yul\":2608:2617   */\n      dup8\n        /* \"#utility.yul\":2604:2626   */\n      add\n        /* \"#utility.yul\":2583:2636   */\n      tag_413\n      jump\t// in\n    tag_432:\n        /* \"#utility.yul\":2573:2636   */\n      swap2\n      pop\n        /* \"#utility.yul\":2528:2646   */\n      pop\n        /* \"#utility.yul\":2034:2653   */\n      swap3\n      pop\n      swap3\n      pop\n      swap3\n      jump\t// out\n        /* \"#utility.yul\":2659:3311   */\n    tag_68:\n        /* \"#utility.yul\":2736:2742   */\n      0x00\n        /* \"#utility.yul\":2744:2750   */\n      dup1\n        /* \"#utility.yul\":2793:2795   */\n      0x40\n        /* \"#utility.yul\":2781:2790   */\n      dup4\n        /* \"#utility.yul\":2772:2779   */\n      dup6\n        /* \"#utility.yul\":2768:2791   */\n      sub\n        /* \"#utility.yul\":2764:2796   */\n      slt\n        /* \"#utility.yul\":2761:2880   */\n      iszero\n      tag_434\n      jumpi\n        /* \"#utility.yul\":2799:2878   */\n      tag_435\n      tag_420\n      jump\t// in\n    tag_435:\n        /* \"#utility.yul\":2761:2880   */\n    tag_434:\n        /* \"#utility.yul\":2919:2920   */\n      0x00\n        /* \"#utility.yul\":2944:2997   */\n      tag_436\n        /* \"#utility.yul\":2989:2996   */\n      dup6\n        /* \"#utility.yul\":2980:2986   */\n      dup3\n        /* \"#utility.yul\":2969:2978   */\n      dup7\n        /* \"#utility.yul\":2965:2987   */\n      add\n        /* \"#utility.yul\":2944:2997   */\n      tag_399\n      jump\t// in\n    tag_436:\n        /* \"#utility.yul\":2934:2997   */\n      swap3\n      pop\n        /* \"#utility.yul\":2890:3007   */\n      pop\n        /* \"#utility.yul\":3074:3076   */\n      0x20\n        /* \"#utility.yul\":3063:3072   */\n      dup4\n        /* \"#utility.yul\":3059:3077   */\n      add\n        /* \"#utility.yul\":3046:3078   */\n      calldataload\n        /* \"#utility.yul\":3105:3123   */\n      0xffffffffffffffff\n        /* \"#utility.yul\":3097:3103   */\n      dup2\n        /* \"#utility.yul\":3094:3124   */\n      gt\n        /* \"#utility.yul\":3091:3208   */\n      iszero\n      tag_437\n      jumpi\n        /* \"#utility.yul\":3127:3206   */\n      tag_438\n      tag_439\n      jump\t// in\n    tag_438:\n        /* \"#utility.yul\":3091:3208   */\n    tag_437:\n        /* \"#utility.yul\":3232:3294   */\n      tag_440\n        /* \"#utility.yul\":3286:3293   */\n      dup6\n        /* \"#utility.yul\":3277:3283   */\n      dup3\n        /* \"#utility.yul\":3266:3275   */\n      dup7\n        /* \"#utility.yul\":3262:3284   */\n      add\n        /* \"#utility.yul\":3232:3294   */\n      tag_407\n      jump\t// in\n    tag_440:\n        /* \"#utility.yul\":3222:3294   */\n      swap2\n      pop\n        /* \"#utility.yul\":3017:3304   */\n      pop\n        /* \"#utility.yul\":2659:3311   */\n      swap3\n      pop\n      swap3\n      swap1\n      pop\n      jump\t// out\n        /* \"#utility.yul\":3317:3791   */\n    tag_32:\n        /* \"#utility.yul\":3385:3391   */\n      0x00\n        /* \"#utility.yul\":3393:3399   */\n      dup1\n        /* \"#utility.yul\":3442:3444   */\n      0x40\n        /* \"#utility.yul\":3430:3439   */\n      dup4\n        /* \"#utility.yul\":3421:3428   */\n      dup6\n        /* \"#utility.yul\":3417:3440   */\n      sub\n        /* \"#utility.yul\":3413:3445   */\n      slt\n        /* \"#utility.yul\":3410:3529   */\n      iszero\n      tag_442\n      jumpi\n        /* \"#utility.yul\":3448:3527   */\n      tag_443\n      tag_420\n      jump\t// in\n    tag_443:\n        /* \"#utility.yul\":3410:3529   */\n    tag_442:\n        /* \"#utility.yul\":3568:3569   */\n      0x00\n        /* \"#utility.yul\":3593:3646   */\n      tag_444\n        /* \"#utility.yul\":3638:3645   */\n      dup6\n        /* \"#utility.yul\":3629:3635   */\n      dup3\n        /* \"#utility.yul\":3618:3627   */\n      dup7\n        /* \"#utility.yul\":3614:3636   */\n      add\n        /* \"#utility.yul\":3593:3646   */\n      tag_399\n      jump\t// in\n    tag_444:\n        /* \"#utility.yul\":3583:3646   */\n      swap3\n      pop\n        /* \"#utility.yul\":3539:3656   */\n      pop\n        /* \"#utility.yul\":3695:3697   */\n      0x20\n        /* \"#utility.yul\":3721:3774   */\n      tag_445\n        /* \"#utility.yul\":3766:3773   */\n      dup6\n        /* \"#utility.yul\":3757:3763   */\n      dup3\n        /* \"#utility.yul\":3746:3755   */\n      dup7\n        /* \"#utility.yul\":3742:3764   */\n      add\n        /* \"#utility.yul\":3721:3774   */\n      tag_413\n      jump\t// in\n    tag_445:\n        /* \"#utility.yul\":3711:3774   */\n      swap2\n      pop\n        /* \"#utility.yul\":3666:3784   */\n      pop\n        /* \"#utility.yul\":3317:3791   */\n      swap3\n      pop\n      swap3\n      swap1\n      pop\n      jump\t// out\n        /* \"#utility.yul\":3797:4148   */\n    tag_278:\n        /* \"#utility.yul\":3867:3873   */\n      0x00\n        /* \"#utility.yul\":3916:3918   */\n      0x20\n        /* \"#utility.yul\":3904:3913   */\n      dup3\n        /* \"#utility.yul\":3895:3902   */\n      dup5\n        /* \"#utility.yul\":3891:3914   */\n      sub\n        /* \"#utility.yul\":3887:3919   */\n      slt\n        /* \"#utility.yul\":3884:4003   */\n      iszero\n      tag_447\n      jumpi\n        /* \"#utility.yul\":3922:4001   */\n      tag_448\n      tag_420\n      jump\t// in\n    tag_448:\n        /* \"#utility.yul\":3884:4003   */\n    tag_447:\n        /* \"#utility.yul\":4042:4043   */\n      0x00\n        /* \"#utility.yul\":4067:4131   */\n      tag_449\n        /* \"#utility.yul\":4123:4130   */\n      dup5\n        /* \"#utility.yul\":4114:4120   */\n      dup3\n        /* \"#utility.yul\":4103:4112   */\n      dup6\n        /* \"#utility.yul\":4099:4121   */\n      add\n        /* \"#utility.yul\":4067:4131   */\n      tag_403\n      jump\t// in\n    tag_449:\n        /* \"#utility.yul\":4057:4131   */\n      swap2\n      pop\n        /* \"#utility.yul\":4013:4141   */\n      pop\n        /* \"#utility.yul\":3797:4148   */\n      swap3\n      swap2\n      pop\n      pop\n      jump\t// out\n        /* \"#utility.yul\":4154:4272   */\n    tag_450:\n        /* \"#utility.yul\":4241:4265   */\n      tag_452\n        /* \"#utility.yul\":4259:4264   */\n      dup2\n        /* \"#utility.yul\":4241:4265   */\n      tag_453\n      jump\t// in\n    tag_452:\n        /* \"#utility.yul\":4236:4239   */\n      dup3\n        /* \"#utility.yul\":4229:4266   */\n      mstore\n        /* \"#utility.yul\":4154:4272   */\n      pop\n      pop\n      jump\t// out\n        /* \"#utility.yul\":4278:4387   */\n    tag_454:\n        /* \"#utility.yul\":4359:4380   */\n      tag_456\n        /* \"#utility.yul\":4374:4379   */\n      dup2\n        /* \"#utility.yul\":4359:4380   */\n      tag_457\n      jump\t// in\n    tag_456:\n        /* \"#utility.yul\":4354:4357   */\n      dup3\n        /* \"#utility.yul\":4347:4381   */\n      mstore\n        /* \"#utility.yul\":4278:4387   */\n      pop\n      pop\n      jump\t// out\n        /* \"#utility.yul\":4393:4511   */\n    tag_458:\n        /* \"#utility.yul\":4480:4504   */\n      tag_460\n        /* \"#utility.yul\":4498:4503   */\n      dup2\n        /* \"#utility.yul\":4480:4504   */\n      tag_461\n      jump\t// in\n    tag_460:\n        /* \"#utility.yul\":4475:4478   */\n      dup3\n        /* \"#utility.yul\":4468:4505   */\n      mstore\n        /* \"#utility.yul\":4393:4511   */\n      pop\n      pop\n      jump\t// out\n        /* \"#utility.yul\":4517:4890   */\n    tag_462:\n        /* \"#utility.yul\":4621:4624   */\n      0x00\n        /* \"#utility.yul\":4649:4687   */\n      tag_464\n        /* \"#utility.yul\":4681:4686   */\n      dup3\n        /* \"#utility.yul\":4649:4687   */\n      tag_465\n      jump\t// in\n    tag_464:\n        /* \"#utility.yul\":4703:4791   */\n      tag_466\n        /* \"#utility.yul\":4784:4790   */\n      dup2\n        /* \"#utility.yul\":4779:4782   */\n      dup6\n        /* \"#utility.yul\":4703:4791   */\n      tag_467\n      jump\t// in\n    tag_466:\n        /* \"#utility.yul\":4696:4791   */\n      swap4\n      pop\n        /* \"#utility.yul\":4800:4852   */\n      tag_468\n        /* \"#utility.yul\":4845:4851   */\n      dup2\n        /* \"#utility.yul\":4840:4843   */\n      dup6\n        /* \"#utility.yul\":4833:4837   */\n      0x20\n        /* \"#utility.yul\":4826:4831   */\n      dup7\n        /* \"#utility.yul\":4822:4838   */\n      add\n        /* \"#utility.yul\":4800:4852   */\n      tag_469\n      jump\t// in\n    tag_468:\n        /* \"#utility.yul\":4877:4883   */\n      dup1\n        /* \"#utility.yul\":4872:4875   */\n      dup5\n        /* \"#utility.yul\":4868:4884   */\n      add\n        /* \"#utility.yul\":4861:4884   */\n      swap2\n      pop\n        /* \"#utility.yul\":4625:4890   */\n      pop\n        /* \"#utility.yul\":4517:4890   */\n      swap3\n      swap2\n      pop\n      pop\n      jump\t// out\n        /* \"#utility.yul\":4896:5039   */\n    tag_470:\n        /* \"#utility.yul\":4989:5032   */\n      tag_472\n        /* \"#utility.yul\":5026:5031   */\n      dup2\n        /* \"#utility.yul\":4989:5032   */\n      tag_473\n      jump\t// in\n    tag_472:\n        /* \"#utility.yul\":4984:4987   */\n      dup3\n        /* \"#utility.yul\":4977:5033   */\n      mstore\n        /* \"#utility.yul\":4896:5039   */\n      pop\n      pop\n      jump\t// out\n        /* \"#utility.yul\":5045:5409   */\n    tag_474:\n        /* \"#utility.yul\":5133:5136   */\n      0x00\n        /* \"#utility.yul\":5161:5200   */\n      tag_476\n        /* \"#utility.yul\":5194:5199   */\n      dup3\n        /* \"#utility.yul\":5161:5200   */\n      tag_477\n      jump\t// in\n    tag_476:\n        /* \"#utility.yul\":5216:5287   */\n      tag_478\n        /* \"#utility.yul\":5280:5286   */\n      dup2\n        /* \"#utility.yul\":5275:5278   */\n      dup6\n        /* \"#utility.yul\":5216:5287   */\n      tag_479\n      jump\t// in\n    tag_478:\n        /* \"#utility.yul\":5209:5287   */\n      swap4\n      pop\n        /* \"#utility.yul\":5296:5348   */\n      tag_480\n        /* \"#utility.yul\":5341:5347   */\n      dup2\n        /* \"#utility.yul\":5336:5339   */\n      dup6\n        /* \"#utility.yul\":5329:5333   */\n      0x20\n        /* \"#utility.yul\":5322:5327   */\n      dup7\n        /* \"#utility.yul\":5318:5334   */\n      add\n        /* \"#utility.yul\":5296:5348   */\n      tag_469\n      jump\t// in\n    tag_480:\n        /* \"#utility.yul\":5373:5402   */\n      tag_481\n        /* \"#utility.yul\":5395:5401   */\n      dup2\n        /* \"#utility.yul\":5373:5402   */\n      tag_482\n      jump\t// in\n    tag_481:\n        /* \"#utility.yul\":5368:5371   */\n      dup5\n        /* \"#utility.yul\":5364:5403   */\n      add\n        /* \"#utility.yul\":5357:5403   */\n      swap2\n      pop\n        /* \"#utility.yul\":5137:5409   */\n      pop\n        /* \"#utility.yul\":5045:5409   */\n      swap3\n      swap2\n      pop\n      pop\n      jump\t// out\n        /* \"#utility.yul\":5415:5781   */\n    tag_483:\n        /* \"#utility.yul\":5557:5560   */\n      0x00\n        /* \"#utility.yul\":5578:5645   */\n      tag_485\n        /* \"#utility.yul\":5642:5644   */\n      0x23\n        /* \"#utility.yul\":5637:5640   */\n      dup4\n        /* \"#utility.yul\":5578:5645   */\n      tag_479\n      jump\t// in\n    tag_485:\n        /* \"#utility.yul\":5571:5645   */\n      swap2\n      pop\n        /* \"#utility.yul\":5654:5747   */\n      tag_486\n        /* \"#utility.yul\":5743:5746   */\n      dup3\n        /* \"#utility.yul\":5654:5747   */\n      tag_487\n      jump\t// in\n    tag_486:\n        /* \"#utility.yul\":5772:5774   */\n      0x40\n        /* \"#utility.yul\":5767:5770   */\n      dup3\n        /* \"#utility.yul\":5763:5775   */\n      add\n        /* \"#utility.yul\":5756:5775   */\n      swap1\n      pop\n        /* \"#utility.yul\":5415:5781   */\n      swap2\n      swap1\n      pop\n      jump\t// out\n        /* \"#utility.yul\":5787:6153   */\n    tag_488:\n        /* \"#utility.yul\":5929:5932   */\n      0x00\n        /* \"#utility.yul\":5950:6017   */\n      tag_490\n        /* \"#utility.yul\":6014:6016   */\n      0x26\n        /* \"#utility.yul\":6009:6012   */\n      dup4\n        /* \"#utility.yul\":5950:6017   */\n      tag_479\n      jump\t// in\n    tag_490:\n        /* \"#utility.yul\":5943:6017   */\n      swap2\n      pop\n        /* \"#utility.yul\":6026:6119   */\n      tag_491\n        /* \"#utility.yul\":6115:6118   */\n      dup3\n        /* \"#utility.yul\":6026:6119   */\n      tag_492\n      jump\t// in\n    tag_491:\n        /* \"#utility.yul\":6144:6146   */\n      0x40\n        /* \"#utility.yul\":6139:6142   */\n      dup3\n        /* \"#utility.yul\":6135:6147   */\n      add\n        /* \"#utility.yul\":6128:6147   */\n      swap1\n      pop\n        /* \"#utility.yul\":5787:6153   */\n      swap2\n      swap1\n      pop\n      jump\t// out\n        /* \"#utility.yul\":6159:6525   */\n    tag_493:\n        /* \"#utility.yul\":6301:6304   */\n      0x00\n        /* \"#utility.yul\":6322:6389   */\n      tag_495\n        /* \"#utility.yul\":6386:6388   */\n      0x22\n        /* \"#utility.yul\":6381:6384   */\n      dup4\n        /* \"#utility.yul\":6322:6389   */\n      tag_479\n      jump\t// in\n    tag_495:\n        /* \"#utility.yul\":6315:6389   */\n      swap2\n      pop\n        /* \"#utility.yul\":6398:6491   */\n      tag_496\n        /* \"#utility.yul\":6487:6490   */\n      dup3\n        /* \"#utility.yul\":6398:6491   */\n      tag_497\n      jump\t// in\n    tag_496:\n        /* \"#utility.yul\":6516:6518   */\n      0x40\n        /* \"#utility.yul\":6511:6514   */\n      dup3\n        /* \"#utility.yul\":6507:6519   */\n      add\n        /* \"#utility.yul\":6500:6519   */\n      swap1\n      pop\n        /* \"#utility.yul\":6159:6525   */\n      swap2\n      swap1\n      pop\n      jump\t// out\n        /* \"#utility.yul\":6531:6897   */\n    tag_498:\n        /* \"#utility.yul\":6673:6676   */\n      0x00\n        /* \"#utility.yul\":6694:6761   */\n      tag_500\n        /* \"#utility.yul\":6758:6760   */\n      0x2c\n        /* \"#utility.yul\":6753:6756   */\n      dup4\n        /* \"#utility.yul\":6694:6761   */\n      tag_479\n      jump\t// in\n    tag_500:\n        /* \"#utility.yul\":6687:6761   */\n      swap2\n      pop\n        /* \"#utility.yul\":6770:6863   */\n      tag_501\n        /* \"#utility.yul\":6859:6862   */\n      dup3\n        /* \"#utility.yul\":6770:6863   */\n      tag_502\n      jump\t// in\n    tag_501:\n        /* \"#utility.yul\":6888:6890   */\n      0x40\n        /* \"#utility.yul\":6883:6886   */\n      dup3\n        /* \"#utility.yul\":6879:6891   */\n      add\n        /* \"#utility.yul\":6872:6891   */\n      swap1\n      pop\n        /* \"#utility.yul\":6531:6897   */\n      swap2\n      swap1\n      pop\n      jump\t// out\n        /* \"#utility.yul\":6903:7269   */\n    tag_503:\n        /* \"#utility.yul\":7045:7048   */\n      0x00\n        /* \"#utility.yul\":7066:7133   */\n      tag_505\n        /* \"#utility.yul\":7130:7132   */\n      0x1d\n        /* \"#utility.yul\":7125:7128   */\n      dup4\n        /* \"#utility.yul\":7066:7133   */\n      tag_479\n      jump\t// in\n    tag_505:\n        /* \"#utility.yul\":7059:7133   */\n      swap2\n      pop\n        /* \"#utility.yul\":7142:7235   */\n      tag_506\n        /* \"#utility.yul\":7231:7234   */\n      dup3\n        /* \"#utility.yul\":7142:7235   */\n      tag_507\n      jump\t// in\n    tag_506:\n        /* \"#utility.yul\":7260:7262   */\n      0x20\n        /* \"#utility.yul\":7255:7258   */\n      dup3\n        /* \"#utility.yul\":7251:7263   */\n      add\n        /* \"#utility.yul\":7244:7263   */\n      swap1\n      pop\n        /* \"#utility.yul\":6903:7269   */\n      swap2\n      swap1\n      pop\n      jump\t// out\n        /* \"#utility.yul\":7275:7641   */\n    tag_508:\n        /* \"#utility.yul\":7417:7420   */\n      0x00\n        /* \"#utility.yul\":7438:7505   */\n      tag_510\n        /* \"#utility.yul\":7502:7504   */\n      0x26\n        /* \"#utility.yul\":7497:7500   */\n      dup4\n        /* \"#utility.yul\":7438:7505   */\n      tag_479\n      jump\t// in\n    tag_510:\n        /* \"#utility.yul\":7431:7505   */\n      swap2\n      pop\n        /* \"#utility.yul\":7514:7607   */\n      tag_511\n        /* \"#utility.yul\":7603:7606   */\n      dup3\n        /* \"#utility.yul\":7514:7607   */\n      tag_512\n      jump\t// in\n    tag_511:\n        /* \"#utility.yul\":7632:7634   */\n      0x40\n        /* \"#utility.yul\":7627:7630   */\n      dup3\n        /* \"#utility.yul\":7623:7635   */\n      add\n        /* \"#utility.yul\":7616:7635   */\n      swap1\n      pop\n        /* \"#utility.yul\":7275:7641   */\n      swap2\n      swap1\n      pop\n      jump\t// out\n        /* \"#utility.yul\":7647:8013   */\n    tag_513:\n        /* \"#utility.yul\":7789:7792   */\n      0x00\n        /* \"#utility.yul\":7810:7877   */\n      tag_515\n        /* \"#utility.yul\":7874:7876   */\n      0x2c\n        /* \"#utility.yul\":7869:7872   */\n      dup4\n        /* \"#utility.yul\":7810:7877   */\n      tag_479\n      jump\t// in\n    tag_515:\n        /* \"#utility.yul\":7803:7877   */\n      swap2\n      pop\n        /* \"#utility.yul\":7886:7979   */\n      tag_516\n        /* \"#utility.yul\":7975:7978   */\n      dup3\n        /* \"#utility.yul\":7886:7979   */\n      tag_517\n      jump\t// in\n    tag_516:\n        /* \"#utility.yul\":8004:8006   */\n      0x40\n        /* \"#utility.yul\":7999:8002   */\n      dup3\n        /* \"#utility.yul\":7995:8007   */\n      add\n        /* \"#utility.yul\":7988:8007   */\n      swap1\n      pop\n        /* \"#utility.yul\":7647:8013   */\n      swap2\n      swap1\n      pop\n      jump\t// out\n        /* \"#utility.yul\":8019:8385   */\n    tag_518:\n        /* \"#utility.yul\":8161:8164   */\n      0x00\n        /* \"#utility.yul\":8182:8249   */\n      tag_520\n        /* \"#utility.yul\":8246:8248   */\n      0x38\n        /* \"#utility.yul\":8241:8244   */\n      dup4\n        /* \"#utility.yul\":8182:8249   */\n      tag_479\n      jump\t// in\n    tag_520:\n        /* \"#utility.yul\":8175:8249   */\n      swap2\n      pop\n        /* \"#utility.yul\":8258:8351   */\n      tag_521\n        /* \"#utility.yul\":8347:8350   */\n      dup3\n        /* \"#utility.yul\":8258:8351   */\n      tag_522\n      jump\t// in\n    tag_521:\n        /* \"#utility.yul\":8376:8378   */\n      0x40\n        /* \"#utility.yul\":8371:8374   */\n      dup3\n        /* \"#utility.yul\":8367:8379   */\n      add\n        /* \"#utility.yul\":8360:8379   */\n      swap1\n      pop\n        /* \"#utility.yul\":8019:8385   */\n      swap2\n      swap1\n      pop\n      jump\t// out\n        /* \"#utility.yul\":8391:8757   */\n    tag_523:\n        /* \"#utility.yul\":8533:8536   */\n      0x00\n        /* \"#utility.yul\":8554:8621   */\n      tag_525\n        /* \"#utility.yul\":8618:8620   */\n      0x29\n        /* \"#utility.yul\":8613:8616   */\n      dup4\n        /* \"#utility.yul\":8554:8621   */\n      tag_479\n      jump\t// in\n    tag_525:\n        /* \"#utility.yul\":8547:8621   */\n      swap2\n      pop\n        /* \"#utility.yul\":8630:8723   */\n      tag_526\n        /* \"#utility.yul\":8719:8722   */\n      dup3\n        /* \"#utility.yul\":8630:8723   */\n      tag_527\n      jump\t// in\n    tag_526:\n        /* \"#utility.yul\":8748:8750   */\n      0x40\n        /* \"#utility.yul\":8743:8746   */\n      dup3\n        /* \"#utility.yul\":8739:8751   */\n      add\n        /* \"#utility.yul\":8732:8751   */\n      swap1\n      pop\n        /* \"#utility.yul\":8391:8757   */\n      swap2\n      swap1\n      pop\n      jump\t// out\n        /* \"#utility.yul\":8763:9129   */\n    tag_528:\n        /* \"#utility.yul\":8905:8908   */\n      0x00\n        /* \"#utility.yul\":8926:8993   */\n      tag_530\n        /* \"#utility.yul\":8990:8992   */\n      0x2e\n        /* \"#utility.yul\":8985:8988   */\n      dup4\n        /* \"#utility.yul\":8926:8993   */\n      tag_479\n      jump\t// in\n    tag_530:\n        /* \"#utility.yul\":8919:8993   */\n      swap2\n      pop\n        /* \"#utility.yul\":9002:9095   */\n      tag_531\n        /* \"#utility.yul\":9091:9094   */\n      dup3\n        /* \"#utility.yul\":9002:9095   */\n      tag_532\n      jump\t// in\n    tag_531:\n        /* \"#utility.yul\":9120:9122   */\n      0x40\n        /* \"#utility.yul\":9115:9118   */\n      dup3\n        /* \"#utility.yul\":9111:9123   */\n      add\n        /* \"#utility.yul\":9104:9123   */\n      swap1\n      pop\n        /* \"#utility.yul\":8763:9129   */\n      swap2\n      swap1\n      pop\n      jump\t// out\n        /* \"#utility.yul\":9135:9501   */\n    tag_533:\n        /* \"#utility.yul\":9277:9280   */\n      0x00\n        /* \"#utility.yul\":9298:9365   */\n      tag_535\n        /* \"#utility.yul\":9362:9364   */\n      0x2e\n        /* \"#utility.yul\":9357:9360   */\n      dup4\n        /* \"#utility.yul\":9298:9365   */\n      tag_479\n      jump\t// in\n    tag_535:\n        /* \"#utility.yul\":9291:9365   */\n      swap2\n      pop\n        /* \"#utility.yul\":9374:9467   */\n      tag_536\n        /* \"#utility.yul\":9463:9466   */\n      dup3\n        /* \"#utility.yul\":9374:9467   */\n      tag_537\n      jump\t// in\n    tag_536:\n        /* \"#utility.yul\":9492:9494   */\n      0x40\n        /* \"#utility.yul\":9487:9490   */\n      dup3\n        /* \"#utility.yul\":9483:9495   */\n      add\n        /* \"#utility.yul\":9476:9495   */\n      swap1\n      pop\n        /* \"#utility.yul\":9135:9501   */\n      swap2\n      swap1\n      pop\n      jump\t// out\n        /* \"#utility.yul\":9507:9873   */\n    tag_538:\n        /* \"#utility.yul\":9649:9652   */\n      0x00\n        /* \"#utility.yul\":9670:9737   */\n      tag_540\n        /* \"#utility.yul\":9734:9736   */\n      0x2d\n        /* \"#utility.yul\":9729:9732   */\n      dup4\n        /* \"#utility.yul\":9670:9737   */\n      tag_479\n      jump\t// in\n    tag_540:\n        /* \"#utility.yul\":9663:9737   */\n      swap2\n      pop\n        /* \"#utility.yul\":9746:9839   */\n      tag_541\n        /* \"#utility.yul\":9835:9838   */\n      dup3\n        /* \"#utility.yul\":9746:9839   */\n      tag_542\n      jump\t// in\n    tag_541:\n        /* \"#utility.yul\":9864:9866   */\n      0x40\n        /* \"#utility.yul\":9859:9862   */\n      dup3\n        /* \"#utility.yul\":9855:9867   */\n      add\n        /* \"#utility.yul\":9848:9867   */\n      swap1\n      pop\n        /* \"#utility.yul\":9507:9873   */\n      swap2\n      swap1\n      pop\n      jump\t// out\n        /* \"#utility.yul\":9879:10245   */\n    tag_543:\n        /* \"#utility.yul\":10021:10024   */\n      0x00\n        /* \"#utility.yul\":10042:10109   */\n      tag_545\n        /* \"#utility.yul\":10106:10108   */\n      0x20\n        /* \"#utility.yul\":10101:10104   */\n      dup4\n        /* \"#utility.yul\":10042:10109   */\n      tag_479\n      jump\t// in\n    tag_545:\n        /* \"#utility.yul\":10035:10109   */\n      swap2\n      pop\n        /* \"#utility.yul\":10118:10211   */\n      tag_546\n        /* \"#utility.yul\":10207:10210   */\n      dup3\n        /* \"#utility.yul\":10118:10211   */\n      tag_547\n      jump\t// in\n    tag_546:\n        /* \"#utility.yul\":10236:10238   */\n      0x20\n        /* \"#utility.yul\":10231:10234   */\n      dup3\n        /* \"#utility.yul\":10227:10239   */\n      add\n        /* \"#utility.yul\":10220:10239   */\n      swap1\n      pop\n        /* \"#utility.yul\":9879:10245   */\n      swap2\n      swap1\n      pop\n      jump\t// out\n        /* \"#utility.yul\":10251:10617   */\n    tag_548:\n        /* \"#utility.yul\":10393:10396   */\n      0x00\n        /* \"#utility.yul\":10414:10481   */\n      tag_550\n        /* \"#utility.yul\":10478:10480   */\n      0x26\n        /* \"#utility.yul\":10473:10476   */\n      dup4\n        /* \"#utility.yul\":10414:10481   */\n      tag_479\n      jump\t// in\n    tag_550:\n        /* \"#utility.yul\":10407:10481   */\n      swap2\n      pop\n        /* \"#utility.yul\":10490:10583   */\n      tag_551\n        /* \"#utility.yul\":10579:10582   */\n      dup3\n        /* \"#utility.yul\":10490:10583   */\n      tag_552\n      jump\t// in\n    tag_551:\n        /* \"#utility.yul\":10608:10610   */\n      0x40\n        /* \"#utility.yul\":10603:10606   */\n      dup3\n        /* \"#utility.yul\":10599:10611   */\n      add\n        /* \"#utility.yul\":10592:10611   */\n      swap1\n      pop\n        /* \"#utility.yul\":10251:10617   */\n      swap2\n      swap1\n      pop\n      jump\t// out\n        /* \"#utility.yul\":10623:10989   */\n    tag_553:\n        /* \"#utility.yul\":10765:10768   */\n      0x00\n        /* \"#utility.yul\":10786:10853   */\n      tag_555\n        /* \"#utility.yul\":10850:10852   */\n      0x25\n        /* \"#utility.yul\":10845:10848   */\n      dup4\n        /* \"#utility.yul\":10786:10853   */\n      tag_479\n      jump\t// in\n    tag_555:\n        /* \"#utility.yul\":10779:10853   */\n      swap2\n      pop\n        /* \"#utility.yul\":10862:10955   */\n      tag_556\n        /* \"#utility.yul\":10951:10954   */\n      dup3\n        /* \"#utility.yul\":10862:10955   */\n      tag_557\n      jump\t// in\n    tag_556:\n        /* \"#utility.yul\":10980:10982   */\n      0x40\n        /* \"#utility.yul\":10975:10978   */\n      dup3\n        /* \"#utility.yul\":10971:10983   */\n      add\n        /* \"#utility.yul\":10964:10983   */\n      swap1\n      pop\n        /* \"#utility.yul\":10623:10989   */\n      swap2\n      swap1\n      pop\n      jump\t// out\n        /* \"#utility.yul\":10995:11361   */\n    tag_558:\n        /* \"#utility.yul\":11137:11140   */\n      0x00\n        /* \"#utility.yul\":11158:11225   */\n      tag_560\n        /* \"#utility.yul\":11222:11224   */\n      0x24\n        /* \"#utility.yul\":11217:11220   */\n      dup4\n        /* \"#utility.yul\":11158:11225   */\n      tag_479\n      jump\t// in\n    tag_560:\n        /* \"#utility.yul\":11151:11225   */\n      swap2\n      pop\n        /* \"#utility.yul\":11234:11327   */\n      tag_561\n        /* \"#utility.yul\":11323:11326   */\n      dup3\n        /* \"#utility.yul\":11234:11327   */\n      tag_562\n      jump\t// in\n    tag_561:\n        /* \"#utility.yul\":11352:11354   */\n      0x40\n        /* \"#utility.yul\":11347:11350   */\n      dup3\n        /* \"#utility.yul\":11343:11355   */\n      add\n        /* \"#utility.yul\":11336:11355   */\n      swap1\n      pop\n        /* \"#utility.yul\":10995:11361   */\n      swap2\n      swap1\n      pop\n      jump\t// out\n        /* \"#utility.yul\":11367:11733   */\n    tag_563:\n        /* \"#utility.yul\":11509:11512   */\n      0x00\n        /* \"#utility.yul\":11530:11597   */\n      tag_565\n        /* \"#utility.yul\":11594:11596   */\n      0x2b\n        /* \"#utility.yul\":11589:11592   */\n      dup4\n        /* \"#utility.yul\":11530:11597   */\n      tag_479\n      jump\t// in\n    tag_565:\n        /* \"#utility.yul\":11523:11597   */\n      swap2\n      pop\n        /* \"#utility.yul\":11606:11699   */\n      tag_566\n        /* \"#utility.yul\":11695:11698   */\n      dup3\n        /* \"#utility.yul\":11606:11699   */\n      tag_567\n      jump\t// in\n    tag_566:\n        /* \"#utility.yul\":11724:11726   */\n      0x40\n        /* \"#utility.yul\":11719:11722   */\n      dup3\n        /* \"#utility.yul\":11715:11727   */\n      add\n        /* \"#utility.yul\":11708:11727   */\n      swap1\n      pop\n        /* \"#utility.yul\":11367:11733   */\n      swap2\n      swap1\n      pop\n      jump\t// out\n        /* \"#utility.yul\":11739:12105   */\n    tag_568:\n        /* \"#utility.yul\":11881:11884   */\n      0x00\n        /* \"#utility.yul\":11902:11969   */\n      tag_570\n        /* \"#utility.yul\":11966:11968   */\n      0x25\n        /* \"#utility.yul\":11961:11964   */\n      dup4\n        /* \"#utility.yul\":11902:11969   */\n      tag_479\n      jump\t// in\n    tag_570:\n        /* \"#utility.yul\":11895:11969   */\n      swap2\n      pop\n        /* \"#utility.yul\":11978:12071   */\n      tag_571\n        /* \"#utility.yul\":12067:12070   */\n      dup3\n        /* \"#utility.yul\":11978:12071   */\n      tag_572\n      jump\t// in\n    tag_571:\n        /* \"#utility.yul\":12096:12098   */\n      0x40\n        /* \"#utility.yul\":12091:12094   */\n      dup3\n        /* \"#utility.yul\":12087:12099   */\n      add\n        /* \"#utility.yul\":12080:12099   */\n      swap1\n      pop\n        /* \"#utility.yul\":11739:12105   */\n      swap2\n      swap1\n      pop\n      jump\t// out\n        /* \"#utility.yul\":12111:12477   */\n    tag_573:\n        /* \"#utility.yul\":12253:12256   */\n      0x00\n        /* \"#utility.yul\":12274:12341   */\n      tag_575\n        /* \"#utility.yul\":12338:12340   */\n      0x1f\n        /* \"#utility.yul\":12333:12336   */\n      dup4\n        /* \"#utility.yul\":12274:12341   */\n      tag_479\n      jump\t// in\n    tag_575:\n        /* \"#utility.yul\":12267:12341   */\n      swap2\n      pop\n        /* \"#utility.yul\":12350:12443   */\n      tag_576\n        /* \"#utility.yul\":12439:12442   */\n      dup3\n        /* \"#utility.yul\":12350:12443   */\n      tag_577\n      jump\t// in\n    tag_576:\n        /* \"#utility.yul\":12468:12470   */\n      0x20\n        /* \"#utility.yul\":12463:12466   */\n      dup3\n        /* \"#utility.yul\":12459:12471   */\n      add\n        /* \"#utility.yul\":12452:12471   */\n      swap1\n      pop\n        /* \"#utility.yul\":12111:12477   */\n      swap2\n      swap1\n      pop\n      jump\t// out\n        /* \"#utility.yul\":12483:12601   */\n    tag_578:\n        /* \"#utility.yul\":12570:12594   */\n      tag_580\n        /* \"#utility.yul\":12588:12593   */\n      dup2\n        /* \"#utility.yul\":12570:12594   */\n      tag_581\n      jump\t// in\n    tag_580:\n        /* \"#utility.yul\":12565:12568   */\n      dup3\n        /* \"#utility.yul\":12558:12595   */\n      mstore\n        /* \"#utility.yul\":12483:12601   */\n      pop\n      pop\n      jump\t// out\n        /* \"#utility.yul\":12607:12719   */\n    tag_582:\n        /* \"#utility.yul\":12690:12712   */\n      tag_584\n        /* \"#utility.yul\":12706:12711   */\n      dup2\n        /* \"#utility.yul\":12690:12712   */\n      tag_585\n      jump\t// in\n    tag_584:\n        /* \"#utility.yul\":12685:12688   */\n      dup3\n        /* \"#utility.yul\":12678:12713   */\n      mstore\n        /* \"#utility.yul\":12607:12719   */\n      pop\n      pop\n      jump\t// out\n        /* \"#utility.yul\":12725:12996   */\n    tag_362:\n        /* \"#utility.yul\":12855:12858   */\n      0x00\n        /* \"#utility.yul\":12877:12970   */\n      tag_587\n        /* \"#utility.yul\":12966:12969   */\n      dup3\n        /* \"#utility.yul\":12957:12963   */\n      dup5\n        /* \"#utility.yul\":12877:12970   */\n      tag_462\n      jump\t// in\n    tag_587:\n        /* \"#utility.yul\":12870:12970   */\n      swap2\n      pop\n        /* \"#utility.yul\":12987:12990   */\n      dup2\n        /* \"#utility.yul\":12980:12990   */\n      swap1\n      pop\n        /* \"#utility.yul\":12725:12996   */\n      swap3\n      swap2\n      pop\n      pop\n      jump\t// out\n        /* \"#utility.yul\":13002:13224   */\n    tag_90:\n        /* \"#utility.yul\":13095:13099   */\n      0x00\n        /* \"#utility.yul\":13133:13135   */\n      0x20\n        /* \"#utility.yul\":13122:13131   */\n      dup3\n        /* \"#utility.yul\":13118:13136   */\n      add\n        /* \"#utility.yul\":13110:13136   */\n      swap1\n      pop\n        /* \"#utility.yul\":13146:13217   */\n      tag_589\n        /* \"#utility.yul\":13214:13215   */\n      0x00\n        /* \"#utility.yul\":13203:13212   */\n      dup4\n        /* \"#utility.yul\":13199:13216   */\n      add\n        /* \"#utility.yul\":13190:13196   */\n      dup5\n        /* \"#utility.yul\":13146:13217   */\n      tag_450\n      jump\t// in\n    tag_589:\n        /* \"#utility.yul\":13002:13224   */\n      swap3\n      swap2\n      pop\n      pop\n      jump\t// out\n        /* \"#utility.yul\":13230:13440   */\n    tag_35:\n        /* \"#utility.yul\":13317:13321   */\n      0x00\n        /* \"#utility.yul\":13355:13357   */\n      0x20\n        /* \"#utility.yul\":13344:13353   */\n      dup3\n        /* \"#utility.yul\":13340:13358   */\n      add\n        /* \"#utility.yul\":13332:13358   */\n      swap1\n      pop\n        /* \"#utility.yul\":13368:13433   */\n      tag_591\n        /* \"#utility.yul\":13430:13431   */\n      0x00\n        /* \"#utility.yul\":13419:13428   */\n      dup4\n        /* \"#utility.yul\":13415:13432   */\n      add\n        /* \"#utility.yul\":13406:13412   */\n      dup5\n        /* \"#utility.yul\":13368:13433   */\n      tag_454\n      jump\t// in\n    tag_591:\n        /* \"#utility.yul\":13230:13440   */\n      swap3\n      swap2\n      pop\n      pop\n      jump\t// out\n        /* \"#utility.yul\":13446:13668   */\n    tag_74:\n        /* \"#utility.yul\":13539:13543   */\n      0x00\n        /* \"#utility.yul\":13577:13579   */\n      0x20\n        /* \"#utility.yul\":13566:13575   */\n      dup3\n        /* \"#utility.yul\":13562:13580   */\n      add\n        /* \"#utility.yul\":13554:13580   */\n      swap1\n      pop\n        /* \"#utility.yul\":13590:13661   */\n      tag_593\n        /* \"#utility.yul\":13658:13659   */\n      0x00\n        /* \"#utility.yul\":13647:13656   */\n      dup4\n        /* \"#utility.yul\":13643:13660   */\n      add\n        /* \"#utility.yul\":13634:13640   */\n      dup5\n        /* \"#utility.yul\":13590:13661   */\n      tag_458\n      jump\t// in\n    tag_593:\n        /* \"#utility.yul\":13446:13668   */\n      swap3\n      swap2\n      pop\n      pop\n      jump\t// out\n        /* \"#utility.yul\":13674:13908   */\n    tag_205:\n        /* \"#utility.yul\":13773:13777   */\n      0x00\n        /* \"#utility.yul\":13811:13813   */\n      0x20\n        /* \"#utility.yul\":13800:13809   */\n      dup3\n        /* \"#utility.yul\":13796:13814   */\n      add\n        /* \"#utility.yul\":13788:13814   */\n      swap1\n      pop\n        /* \"#utility.yul\":13824:13901   */\n      tag_595\n        /* \"#utility.yul\":13898:13899   */\n      0x00\n        /* \"#utility.yul\":13887:13896   */\n      dup4\n        /* \"#utility.yul\":13883:13900   */\n      add\n        /* \"#utility.yul\":13874:13880   */\n      dup5\n        /* \"#utility.yul\":13824:13901   */\n      tag_470\n      jump\t// in\n    tag_595:\n        /* \"#utility.yul\":13674:13908   */\n      swap3\n      swap2\n      pop\n      pop\n      jump\t// out\n        /* \"#utility.yul\":13914:14227   */\n    tag_28:\n        /* \"#utility.yul\":14027:14031   */\n      0x00\n        /* \"#utility.yul\":14065:14067   */\n      0x20\n        /* \"#utility.yul\":14054:14063   */\n      dup3\n        /* \"#utility.yul\":14050:14068   */\n      add\n        /* \"#utility.yul\":14042:14068   */\n      swap1\n      pop\n        /* \"#utility.yul\":14114:14123   */\n      dup2\n        /* \"#utility.yul\":14108:14112   */\n      dup2\n        /* \"#utility.yul\":14104:14124   */\n      sub\n        /* \"#utility.yul\":14100:14101   */\n      0x00\n        /* \"#utility.yul\":14089:14098   */\n      dup4\n        /* \"#utility.yul\":14085:14102   */\n      add\n        /* \"#utility.yul\":14078:14125   */\n      mstore\n        /* \"#utility.yul\":14142:14220   */\n      tag_597\n        /* \"#utility.yul\":14215:14219   */\n      dup2\n        /* \"#utility.yul\":14206:14212   */\n      dup5\n        /* \"#utility.yul\":14142:14220   */\n      tag_474\n      jump\t// in\n    tag_597:\n        /* \"#utility.yul\":14134:14220   */\n      swap1\n      pop\n        /* \"#utility.yul\":13914:14227   */\n      swap3\n      swap2\n      pop\n      pop\n      jump\t// out\n        /* \"#utility.yul\":14233:14652   */\n    tag_253:\n        /* \"#utility.yul\":14399:14403   */\n      0x00\n        /* \"#utility.yul\":14437:14439   */\n      0x20\n        /* \"#utility.yul\":14426:14435   */\n      dup3\n        /* \"#utility.yul\":14422:14440   */\n      add\n        /* \"#utility.yul\":14414:14440   */\n      swap1\n      pop\n        /* \"#utility.yul\":14486:14495   */\n      dup2\n        /* \"#utility.yul\":14480:14484   */\n      dup2\n        /* \"#utility.yul\":14476:14496   */\n      sub\n        /* \"#utility.yul\":14472:14473   */\n      0x00\n        /* \"#utility.yul\":14461:14470   */\n      dup4\n        /* \"#utility.yul\":14457:14474   */\n      add\n        /* \"#utility.yul\":14450:14497   */\n      mstore\n        /* \"#utility.yul\":14514:14645   */\n      tag_599\n        /* \"#utility.yul\":14640:14644   */\n      dup2\n        /* \"#utility.yul\":14514:14645   */\n      tag_483\n      jump\t// in\n    tag_599:\n        /* \"#utility.yul\":14506:14645   */\n      swap1\n      pop\n        /* \"#utility.yul\":14233:14652   */\n      swap2\n      swap1\n      pop\n      jump\t// out\n        /* \"#utility.yul\":14658:15077   */\n    tag_229:\n        /* \"#utility.yul\":14824:14828   */\n      0x00\n        /* \"#utility.yul\":14862:14864   */\n      0x20\n        /* \"#utility.yul\":14851:14860   */\n      dup3\n        /* \"#utility.yul\":14847:14865   */\n      add\n        /* \"#utility.yul\":14839:14865   */\n      swap1\n      pop\n        /* \"#utility.yul\":14911:14920   */\n      dup2\n        /* \"#utility.yul\":14905:14909   */\n      dup2\n        /* \"#utility.yul\":14901:14921   */\n      sub\n        /* \"#utility.yul\":14897:14898   */\n      0x00\n        /* \"#utility.yul\":14886:14895   */\n      dup4\n        /* \"#utility.yul\":14882:14899   */\n      add\n        /* \"#utility.yul\":14875:14922   */\n      mstore\n        /* \"#utility.yul\":14939:15070   */\n      tag_601\n        /* \"#utility.yul\":15065:15069   */\n      dup2\n        /* \"#utility.yul\":14939:15070   */\n      tag_488\n      jump\t// in\n    tag_601:\n        /* \"#utility.yul\":14931:15070   */\n      swap1\n      pop\n        /* \"#utility.yul\":14658:15077   */\n      swap2\n      swap1\n      pop\n      jump\t// out\n        /* \"#utility.yul\":15083:15502   */\n    tag_238:\n        /* \"#utility.yul\":15249:15253   */\n      0x00\n        /* \"#utility.yul\":15287:15289   */\n      0x20\n        /* \"#utility.yul\":15276:15285   */\n      dup3\n        /* \"#utility.yul\":15272:15290   */\n      add\n        /* \"#utility.yul\":15264:15290   */\n      swap1\n      pop\n        /* \"#utility.yul\":15336:15345   */\n      dup2\n        /* \"#utility.yul\":15330:15334   */\n      dup2\n        /* \"#utility.yul\":15326:15346   */\n      sub\n        /* \"#utility.yul\":15322:15323   */\n      0x00\n        /* \"#utility.yul\":15311:15320   */\n      dup4\n        /* \"#utility.yul\":15307:15324   */\n      add\n        /* \"#utility.yul\":15300:15347   */\n      mstore\n        /* \"#utility.yul\":15364:15495   */\n      tag_603\n        /* \"#utility.yul\":15490:15494   */\n      dup2\n        /* \"#utility.yul\":15364:15495   */\n      tag_493\n      jump\t// in\n    tag_603:\n        /* \"#utility.yul\":15356:15495   */\n      swap1\n      pop\n        /* \"#utility.yul\":15083:15502   */\n      swap2\n      swap1\n      pop\n      jump\t// out\n        /* \"#utility.yul\":15508:15927   */\n    tag_138:\n        /* \"#utility.yul\":15674:15678   */\n      0x00\n        /* \"#utility.yul\":15712:15714   */\n      0x20\n        /* \"#utility.yul\":15701:15710   */\n      dup3\n        /* \"#utility.yul\":15697:15715   */\n      add\n        /* \"#utility.yul\":15689:15715   */\n      swap1\n      pop\n        /* \"#utility.yul\":15761:15770   */\n      dup2\n        /* \"#utility.yul\":15755:15759   */\n      dup2\n        /* \"#utility.yul\":15751:15771   */\n      sub\n        /* \"#utility.yul\":15747:15748   */\n      0x00\n        /* \"#utility.yul\":15736:15745   */\n      dup4\n        /* \"#utility.yul\":15732:15749   */\n      add\n        /* \"#utility.yul\":15725:15772   */\n      mstore\n        /* \"#utility.yul\":15789:15920   */\n      tag_605\n        /* \"#utility.yul\":15915:15919   */\n      dup2\n        /* \"#utility.yul\":15789:15920   */\n      tag_498\n      jump\t// in\n    tag_605:\n        /* \"#utility.yul\":15781:15920   */\n      swap1\n      pop\n        /* \"#utility.yul\":15508:15927   */\n      swap2\n      swap1\n      pop\n      jump\t// out\n        /* \"#utility.yul\":15933:16352   */\n    tag_245:\n        /* \"#utility.yul\":16099:16103   */\n      0x00\n        /* \"#utility.yul\":16137:16139   */\n      0x20\n        /* \"#utility.yul\":16126:16135   */\n      dup3\n        /* \"#utility.yul\":16122:16140   */\n      add\n        /* \"#utility.yul\":16114:16140   */\n      swap1\n      pop\n        /* \"#utility.yul\":16186:16195   */\n      dup2\n        /* \"#utility.yul\":16180:16184   */\n      dup2\n        /* \"#utility.yul\":16176:16196   */\n      sub\n        /* \"#utility.yul\":16172:16173   */\n      0x00\n        /* \"#utility.yul\":16161:16170   */\n      dup4\n        /* \"#utility.yul\":16157:16174   */\n      add\n        /* \"#utility.yul\":16150:16197   */\n      mstore\n        /* \"#utility.yul\":16214:16345   */\n      tag_607\n        /* \"#utility.yul\":16340:16344   */\n      dup2\n        /* \"#utility.yul\":16214:16345   */\n      tag_503\n      jump\t// in\n    tag_607:\n        /* \"#utility.yul\":16206:16345   */\n      swap1\n      pop\n        /* \"#utility.yul\":15933:16352   */\n      swap2\n      swap1\n      pop\n      jump\t// out\n        /* \"#utility.yul\":16358:16777   */\n    tag_258:\n        /* \"#utility.yul\":16524:16528   */\n      0x00\n        /* \"#utility.yul\":16562:16564   */\n      0x20\n        /* \"#utility.yul\":16551:16560   */\n      dup3\n        /* \"#utility.yul\":16547:16565   */\n      add\n        /* \"#utility.yul\":16539:16565   */\n      swap1\n      pop\n        /* \"#utility.yul\":16611:16620   */\n      dup2\n        /* \"#utility.yul\":16605:16609   */\n      dup2\n        /* \"#utility.yul\":16601:16621   */\n      sub\n        /* \"#utility.yul\":16597:16598   */\n      0x00\n        /* \"#utility.yul\":16586:16595   */\n      dup4\n        /* \"#utility.yul\":16582:16599   */\n      add\n        /* \"#utility.yul\":16575:16622   */\n      mstore\n        /* \"#utility.yul\":16639:16770   */\n      tag_609\n        /* \"#utility.yul\":16765:16769   */\n      dup2\n        /* \"#utility.yul\":16639:16770   */\n      tag_508\n      jump\t// in\n    tag_609:\n        /* \"#utility.yul\":16631:16770   */\n      swap1\n      pop\n        /* \"#utility.yul\":16358:16777   */\n      swap2\n      swap1\n      pop\n      jump\t// out\n        /* \"#utility.yul\":16783:17202   */\n    tag_143:\n        /* \"#utility.yul\":16949:16953   */\n      0x00\n        /* \"#utility.yul\":16987:16989   */\n      0x20\n        /* \"#utility.yul\":16976:16985   */\n      dup3\n        /* \"#utility.yul\":16972:16990   */\n      add\n        /* \"#utility.yul\":16964:16990   */\n      swap1\n      pop\n        /* \"#utility.yul\":17036:17045   */\n      dup2\n        /* \"#utility.yul\":17030:17034   */\n      dup2\n        /* \"#utility.yul\":17026:17046   */\n      sub\n        /* \"#utility.yul\":17022:17023   */\n      0x00\n        /* \"#utility.yul\":17011:17020   */\n      dup4\n        /* \"#utility.yul\":17007:17024   */\n      add\n        /* \"#utility.yul\":17000:17047   */\n      mstore\n        /* \"#utility.yul\":17064:17195   */\n      tag_611\n        /* \"#utility.yul\":17190:17194   */\n      dup2\n        /* \"#utility.yul\":17064:17195   */\n      tag_513\n      jump\t// in\n    tag_611:\n        /* \"#utility.yul\":17056:17195   */\n      swap1\n      pop\n        /* \"#utility.yul\":16783:17202   */\n      swap2\n      swap1\n      pop\n      jump\t// out\n        /* \"#utility.yul\":17208:17627   */\n    tag_177:\n        /* \"#utility.yul\":17374:17378   */\n      0x00\n        /* \"#utility.yul\":17412:17414   */\n      0x20\n        /* \"#utility.yul\":17401:17410   */\n      dup3\n        /* \"#utility.yul\":17397:17415   */\n      add\n        /* \"#utility.yul\":17389:17415   */\n      swap1\n      pop\n        /* \"#utility.yul\":17461:17470   */\n      dup2\n        /* \"#utility.yul\":17455:17459   */\n      dup2\n        /* \"#utility.yul\":17451:17471   */\n      sub\n        /* \"#utility.yul\":17447:17448   */\n      0x00\n        /* \"#utility.yul\":17436:17445   */\n      dup4\n        /* \"#utility.yul\":17432:17449   */\n      add\n        /* \"#utility.yul\":17425:17472   */\n      mstore\n        /* \"#utility.yul\":17489:17620   */\n      tag_613\n        /* \"#utility.yul\":17615:17619   */\n      dup2\n        /* \"#utility.yul\":17489:17620   */\n      tag_518\n      jump\t// in\n    tag_613:\n        /* \"#utility.yul\":17481:17620   */\n      swap1\n      pop\n        /* \"#utility.yul\":17208:17627   */\n      swap2\n      swap1\n      pop\n      jump\t// out\n        /* \"#utility.yul\":17633:18052   */\n    tag_288:\n        /* \"#utility.yul\":17799:17803   */\n      0x00\n        /* \"#utility.yul\":17837:17839   */\n      0x20\n        /* \"#utility.yul\":17826:17835   */\n      dup3\n        /* \"#utility.yul\":17822:17840   */\n      add\n        /* \"#utility.yul\":17814:17840   */\n      swap1\n      pop\n        /* \"#utility.yul\":17886:17895   */\n      dup2\n        /* \"#utility.yul\":17880:17884   */\n      dup2\n        /* \"#utility.yul\":17876:17896   */\n      sub\n        /* \"#utility.yul\":17872:17873   */\n      0x00\n        /* \"#utility.yul\":17861:17870   */\n      dup4\n        /* \"#utility.yul\":17857:17874   */\n      add\n        /* \"#utility.yul\":17850:17897   */\n      mstore\n        /* \"#utility.yul\":17914:18045   */\n      tag_615\n        /* \"#utility.yul\":18040:18044   */\n      dup2\n        /* \"#utility.yul\":17914:18045   */\n      tag_523\n      jump\t// in\n    tag_615:\n        /* \"#utility.yul\":17906:18045   */\n      swap1\n      pop\n        /* \"#utility.yul\":17633:18052   */\n      swap2\n      swap1\n      pop\n      jump\t// out\n        /* \"#utility.yul\":18058:18477   */\n    tag_193:\n        /* \"#utility.yul\":18224:18228   */\n      0x00\n        /* \"#utility.yul\":18262:18264   */\n      0x20\n        /* \"#utility.yul\":18251:18260   */\n      dup3\n        /* \"#utility.yul\":18247:18265   */\n      add\n        /* \"#utility.yul\":18239:18265   */\n      swap1\n      pop\n        /* \"#utility.yul\":18311:18320   */\n      dup2\n        /* \"#utility.yul\":18305:18309   */\n      dup2\n        /* \"#utility.yul\":18301:18321   */\n      sub\n        /* \"#utility.yul\":18297:18298   */\n      0x00\n        /* \"#utility.yul\":18286:18295   */\n      dup4\n        /* \"#utility.yul\":18282:18299   */\n      add\n        /* \"#utility.yul\":18275:18322   */\n      mstore\n        /* \"#utility.yul\":18339:18470   */\n      tag_617\n        /* \"#utility.yul\":18465:18469   */\n      dup2\n        /* \"#utility.yul\":18339:18470   */\n      tag_528\n      jump\t// in\n    tag_617:\n        /* \"#utility.yul\":18331:18470   */\n      swap1\n      pop\n        /* \"#utility.yul\":18058:18477   */\n      swap2\n      swap1\n      pop\n      jump\t// out\n        /* \"#utility.yul\":18483:18902   */\n    tag_284:\n        /* \"#utility.yul\":18649:18653   */\n      0x00\n        /* \"#utility.yul\":18687:18689   */\n      0x20\n        /* \"#utility.yul\":18676:18685   */\n      dup3\n        /* \"#utility.yul\":18672:18690   */\n      add\n        /* \"#utility.yul\":18664:18690   */\n      swap1\n      pop\n        /* \"#utility.yul\":18736:18745   */\n      dup2\n        /* \"#utility.yul\":18730:18734   */\n      dup2\n        /* \"#utility.yul\":18726:18746   */\n      sub\n        /* \"#utility.yul\":18722:18723   */\n      0x00\n        /* \"#utility.yul\":18711:18720   */\n      dup4\n        /* \"#utility.yul\":18707:18724   */\n      add\n        /* \"#utility.yul\":18700:18747   */\n      mstore\n        /* \"#utility.yul\":18764:18895   */\n      tag_619\n        /* \"#utility.yul\":18890:18894   */\n      dup2\n        /* \"#utility.yul\":18764:18895   */\n      tag_533\n      jump\t// in\n    tag_619:\n        /* \"#utility.yul\":18756:18895   */\n      swap1\n      pop\n        /* \"#utility.yul\":18483:18902   */\n      swap2\n      swap1\n      pop\n      jump\t// out\n        /* \"#utility.yul\":18908:19327   */\n    tag_332:\n        /* \"#utility.yul\":19074:19078   */\n      0x00\n        /* \"#utility.yul\":19112:19114   */\n      0x20\n        /* \"#utility.yul\":19101:19110   */\n      dup3\n        /* \"#utility.yul\":19097:19115   */\n      add\n        /* \"#utility.yul\":19089:19115   */\n      swap1\n      pop\n        /* \"#utility.yul\":19161:19170   */\n      dup2\n        /* \"#utility.yul\":19155:19159   */\n      dup2\n        /* \"#utility.yul\":19151:19171   */\n      sub\n        /* \"#utility.yul\":19147:19148   */\n      0x00\n        /* \"#utility.yul\":19136:19145   */\n      dup4\n        /* \"#utility.yul\":19132:19149   */\n      add\n        /* \"#utility.yul\":19125:19172   */\n      mstore\n        /* \"#utility.yul\":19189:19320   */\n      tag_621\n        /* \"#utility.yul\":19315:19319   */\n      dup2\n        /* \"#utility.yul\":19189:19320   */\n      tag_538\n      jump\t// in\n    tag_621:\n        /* \"#utility.yul\":19181:19320   */\n      swap1\n      pop\n        /* \"#utility.yul\":18908:19327   */\n      swap2\n      swap1\n      pop\n      jump\t// out\n        /* \"#utility.yul\":19333:19752   */\n    tag_296:\n        /* \"#utility.yul\":19499:19503   */\n      0x00\n        /* \"#utility.yul\":19537:19539   */\n      0x20\n        /* \"#utility.yul\":19526:19535   */\n      dup3\n        /* \"#utility.yul\":19522:19540   */\n      add\n        /* \"#utility.yul\":19514:19540   */\n      swap1\n      pop\n        /* \"#utility.yul\":19586:19595   */\n      dup2\n        /* \"#utility.yul\":19580:19584   */\n      dup2\n        /* \"#utility.yul\":19576:19596   */\n      sub\n        /* \"#utility.yul\":19572:19573   */\n      0x00\n        /* \"#utility.yul\":19561:19570   */\n      dup4\n        /* \"#utility.yul\":19557:19574   */\n      add\n        /* \"#utility.yul\":19550:19597   */\n      mstore\n        /* \"#utility.yul\":19614:19745   */\n      tag_623\n        /* \"#utility.yul\":19740:19744   */\n      dup2\n        /* \"#utility.yul\":19614:19745   */\n      tag_543\n      jump\t// in\n    tag_623:\n        /* \"#utility.yul\":19606:19745   */\n      swap1\n      pop\n        /* \"#utility.yul\":19333:19752   */\n      swap2\n      swap1\n      pop\n      jump\t// out\n        /* \"#utility.yul\":19758:20177   */\n    tag_360:\n        /* \"#utility.yul\":19924:19928   */\n      0x00\n        /* \"#utility.yul\":19962:19964   */\n      0x20\n        /* \"#utility.yul\":19951:19960   */\n      dup3\n        /* \"#utility.yul\":19947:19965   */\n      add\n        /* \"#utility.yul\":19939:19965   */\n      swap1\n      pop\n        /* \"#utility.yul\":20011:20020   */\n      dup2\n        /* \"#utility.yul\":20005:20009   */\n      dup2\n        /* \"#utility.yul\":20001:20021   */\n      sub\n        /* \"#utility.yul\":19997:19998   */\n      0x00\n        /* \"#utility.yul\":19986:19995   */\n      dup4\n        /* \"#utility.yul\":19982:19999   */\n      add\n        /* \"#utility.yul\":19975:20022   */\n      mstore\n        /* \"#utility.yul\":20039:20170   */\n      tag_625\n        /* \"#utility.yul\":20165:20169   */\n      dup2\n        /* \"#utility.yul\":20039:20170   */\n      tag_548\n      jump\t// in\n    tag_625:\n        /* \"#utility.yul\":20031:20170   */\n      swap1\n      pop\n        /* \"#utility.yul\":19758:20177   */\n      swap2\n      swap1\n      pop\n      jump\t// out\n        /* \"#utility.yul\":20183:20602   */\n    tag_250:\n        /* \"#utility.yul\":20349:20353   */\n      0x00\n        /* \"#utility.yul\":20387:20389   */\n      0x20\n        /* \"#utility.yul\":20376:20385   */\n      dup3\n        /* \"#utility.yul\":20372:20390   */\n      add\n        /* \"#utility.yul\":20364:20390   */\n      swap1\n      pop\n        /* \"#utility.yul\":20436:20445   */\n      dup2\n        /* \"#utility.yul\":20430:20434   */\n      dup2\n        /* \"#utility.yul\":20426:20446   */\n      sub\n        /* \"#utility.yul\":20422:20423   */\n      0x00\n        /* \"#utility.yul\":20411:20420   */\n      dup4\n        /* \"#utility.yul\":20407:20424   */\n      add\n        /* \"#utility.yul\":20400:20447   */\n      mstore\n        /* \"#utility.yul\":20464:20595   */\n      tag_627\n        /* \"#utility.yul\":20590:20594   */\n      dup2\n        /* \"#utility.yul\":20464:20595   */\n      tag_553\n      jump\t// in\n    tag_627:\n        /* \"#utility.yul\":20456:20595   */\n      swap1\n      pop\n        /* \"#utility.yul\":20183:20602   */\n      swap2\n      swap1\n      pop\n      jump\t// out\n        /* \"#utility.yul\":20608:21027   */\n    tag_235:\n        /* \"#utility.yul\":20774:20778   */\n      0x00\n        /* \"#utility.yul\":20812:20814   */\n      0x20\n        /* \"#utility.yul\":20801:20810   */\n      dup3\n        /* \"#utility.yul\":20797:20815   */\n      add\n        /* \"#utility.yul\":20789:20815   */\n      swap1\n      pop\n        /* \"#utility.yul\":20861:20870   */\n      dup2\n        /* \"#utility.yul\":20855:20859   */\n      dup2\n        /* \"#utility.yul\":20851:20871   */\n      sub\n        /* \"#utility.yul\":20847:20848   */\n      0x00\n        /* \"#utility.yul\":20836:20845   */\n      dup4\n        /* \"#utility.yul\":20832:20849   */\n      add\n        /* \"#utility.yul\":20825:20872   */\n      mstore\n        /* \"#utility.yul\":20889:21020   */\n      tag_629\n        /* \"#utility.yul\":21015:21019   */\n      dup2\n        /* \"#utility.yul\":20889:21020   */\n      tag_558\n      jump\t// in\n    tag_629:\n        /* \"#utility.yul\":20881:21020   */\n      swap1\n      pop\n        /* \"#utility.yul\":20608:21027   */\n      swap2\n      swap1\n      pop\n      jump\t// out\n        /* \"#utility.yul\":21033:21452   */\n    tag_310:\n        /* \"#utility.yul\":21199:21203   */\n      0x00\n        /* \"#utility.yul\":21237:21239   */\n      0x20\n        /* \"#utility.yul\":21226:21235   */\n      dup3\n        /* \"#utility.yul\":21222:21240   */\n      add\n        /* \"#utility.yul\":21214:21240   */\n      swap1\n      pop\n        /* \"#utility.yul\":21286:21295   */\n      dup2\n        /* \"#utility.yul\":21280:21284   */\n      dup2\n        /* \"#utility.yul\":21276:21296   */\n      sub\n        /* \"#utility.yul\":21272:21273   */\n      0x00\n        /* \"#utility.yul\":21261:21270   */\n      dup4\n        /* \"#utility.yul\":21257:21274   */\n      add\n        /* \"#utility.yul\":21250:21297   */\n      mstore\n        /* \"#utility.yul\":21314:21445   */\n      tag_631\n        /* \"#utility.yul\":21440:21444   */\n      dup2\n        /* \"#utility.yul\":21314:21445   */\n      tag_563\n      jump\t// in\n    tag_631:\n        /* \"#utility.yul\":21306:21445   */\n      swap1\n      pop\n        /* \"#utility.yul\":21033:21452   */\n      swap2\n      swap1\n      pop\n      jump\t// out\n        /* \"#utility.yul\":21458:21877   */\n    tag_218:\n        /* \"#utility.yul\":21624:21628   */\n      0x00\n        /* \"#utility.yul\":21662:21664   */\n      0x20\n        /* \"#utility.yul\":21651:21660   */\n      dup3\n        /* \"#utility.yul\":21647:21665   */\n      add\n        /* \"#utility.yul\":21639:21665   */\n      swap1\n      pop\n        /* \"#utility.yul\":21711:21720   */\n      dup2\n        /* \"#utility.yul\":21705:21709   */\n      dup2\n        /* \"#utility.yul\":21701:21721   */\n      sub\n        /* \"#utility.yul\":21697:21698   */\n      0x00\n        /* \"#utility.yul\":21686:21695   */\n      dup4\n        /* \"#utility.yul\":21682:21699   */\n      add\n        /* \"#utility.yul\":21675:21722   */\n      mstore\n        /* \"#utility.yul\":21739:21870   */\n      tag_633\n        /* \"#utility.yul\":21865:21869   */\n      dup2\n        /* \"#utility.yul\":21739:21870   */\n      tag_568\n      jump\t// in\n    tag_633:\n        /* \"#utility.yul\":21731:21870   */\n      swap1\n      pop\n        /* \"#utility.yul\":21458:21877   */\n      swap2\n      swap1\n      pop\n      jump\t// out\n        /* \"#utility.yul\":21883:22302   */\n    tag_300:\n        /* \"#utility.yul\":22049:22053   */\n      0x00\n        /* \"#utility.yul\":22087:22089   */\n      0x20\n        /* \"#utility.yul\":22076:22085   */\n      dup3\n        /* \"#utility.yul\":22072:22090   */\n      add\n        /* \"#utility.yul\":22064:22090   */\n      swap1\n      pop\n        /* \"#utility.yul\":22136:22145   */\n      dup2\n        /* \"#utility.yul\":22130:22134   */\n      dup2\n        /* \"#utility.yul\":22126:22146   */\n      sub\n        /* \"#utility.yul\":22122:22123   */\n      0x00\n        /* \"#utility.yul\":22111:22120   */\n      dup4\n        /* \"#utility.yul\":22107:22124   */\n      add\n        /* \"#utility.yul\":22100:22147   */\n      mstore\n        /* \"#utility.yul\":22164:22295   */\n      tag_635\n        /* \"#utility.yul\":22290:22294   */\n      dup2\n        /* \"#utility.yul\":22164:22295   */\n      tag_573\n      jump\t// in\n    tag_635:\n        /* \"#utility.yul\":22156:22295   */\n      swap1\n      pop\n        /* \"#utility.yul\":21883:22302   */\n      swap2\n      swap1\n      pop\n      jump\t// out\n        /* \"#utility.yul\":22308:22530   */\n    tag_40:\n        /* \"#utility.yul\":22401:22405   */\n      0x00\n        /* \"#utility.yul\":22439:22441   */\n      0x20\n        /* \"#utility.yul\":22428:22437   */\n      dup3\n        /* \"#utility.yul\":22424:22442   */\n      add\n        /* \"#utility.yul\":22416:22442   */\n      swap1\n      pop\n        /* \"#utility.yul\":22452:22523   */\n      tag_637\n        /* \"#utility.yul\":22520:22521   */\n      0x00\n        /* \"#utility.yul\":22509:22518   */\n      dup4\n        /* \"#utility.yul\":22505:22522   */\n      add\n        /* \"#utility.yul\":22496:22502   */\n      dup5\n        /* \"#utility.yul\":22452:22523   */\n      tag_578\n      jump\t// in\n    tag_637:\n        /* \"#utility.yul\":22308:22530   */\n      swap3\n      swap2\n      pop\n      pop\n      jump\t// out\n        /* \"#utility.yul\":22536:22750   */\n    tag_51:\n        /* \"#utility.yul\":22625:22629   */\n      0x00\n        /* \"#utility.yul\":22663:22665   */\n      0x20\n        /* \"#utility.yul\":22652:22661   */\n      dup3\n        /* \"#utility.yul\":22648:22666   */\n      add\n        /* \"#utility.yul\":22640:22666   */\n      swap1\n      pop\n        /* \"#utility.yul\":22676:22743   */\n      tag_639\n        /* \"#utility.yul\":22740:22741   */\n      0x00\n        /* \"#utility.yul\":22729:22738   */\n      dup4\n        /* \"#utility.yul\":22725:22742   */\n      add\n        /* \"#utility.yul\":22716:22722   */\n      dup5\n        /* \"#utility.yul\":22676:22743   */\n      tag_582\n      jump\t// in\n    tag_639:\n        /* \"#utility.yul\":22536:22750   */\n      swap3\n      swap2\n      pop\n      pop\n      jump\t// out\n        /* \"#utility.yul\":22756:22885   */\n    tag_393:\n        /* \"#utility.yul\":22790:22796   */\n      0x00\n        /* \"#utility.yul\":22817:22837   */\n      tag_641\n      tag_642\n      jump\t// in\n    tag_641:\n        /* \"#utility.yul\":22807:22837   */\n      swap1\n      pop\n        /* \"#utility.yul\":22846:22879   */\n      tag_643\n        /* \"#utility.yul\":22874:22878   */\n      dup3\n        /* \"#utility.yul\":22866:22872   */\n      dup3\n        /* \"#utility.yul\":22846:22879   */\n      tag_644\n      jump\t// in\n    tag_643:\n        /* \"#utility.yul\":22756:22885   */\n      swap2\n      swap1\n      pop\n      jump\t// out\n        /* \"#utility.yul\":22891:22966   */\n    tag_642:\n        /* \"#utility.yul\":22924:22930   */\n      0x00\n        /* \"#utility.yul\":22957:22959   */\n      0x40\n        /* \"#utility.yul\":22951:22960   */\n      mload\n        /* \"#utility.yul\":22941:22960   */\n      swap1\n      pop\n        /* \"#utility.yul\":22891:22966   */\n      swap1\n      jump\t// out\n        /* \"#utility.yul\":22972:23279   */\n    tag_392:\n        /* \"#utility.yul\":23033:23037   */\n      0x00\n        /* \"#utility.yul\":23123:23141   */\n      0xffffffffffffffff\n        /* \"#utility.yul\":23115:23121   */\n      dup3\n        /* \"#utility.yul\":23112:23142   */\n      gt\n        /* \"#utility.yul\":23109:23165   */\n      iszero\n      tag_647\n      jumpi\n        /* \"#utility.yul\":23145:23163   */\n      tag_648\n      tag_150\n      jump\t// in\n    tag_648:\n        /* \"#utility.yul\":23109:23165   */\n    tag_647:\n        /* \"#utility.yul\":23183:23212   */\n      tag_649\n        /* \"#utility.yul\":23205:23211   */\n      dup3\n        /* \"#utility.yul\":23183:23212   */\n      tag_482\n      jump\t// in\n    tag_649:\n        /* \"#utility.yul\":23175:23212   */\n      swap1\n      pop\n        /* \"#utility.yul\":23267:23271   */\n      0x20\n        /* \"#utility.yul\":23261:23265   */\n      dup2\n        /* \"#utility.yul\":23257:23272   */\n      add\n        /* \"#utility.yul\":23249:23272   */\n      swap1\n      pop\n        /* \"#utility.yul\":22972:23279   */\n      swap2\n      swap1\n      pop\n      jump\t// out\n        /* \"#utility.yul\":23285:23383   */\n    tag_465:\n        /* \"#utility.yul\":23336:23342   */\n      0x00\n        /* \"#utility.yul\":23370:23375   */\n      dup2\n        /* \"#utility.yul\":23364:23376   */\n      mload\n        /* \"#utility.yul\":23354:23376   */\n      swap1\n      pop\n        /* \"#utility.yul\":23285:23383   */\n      swap2\n      swap1\n      pop\n      jump\t// out\n        /* \"#utility.yul\":23389:23488   */\n    tag_477:\n        /* \"#utility.yul\":23441:23447   */\n      0x00\n        /* \"#utility.yul\":23475:23480   */\n      dup2\n        /* \"#utility.yul\":23469:23481   */\n      mload\n        /* \"#utility.yul\":23459:23481   */\n      swap1\n      pop\n        /* \"#utility.yul\":23389:23488   */\n      swap2\n      swap1\n      pop\n      jump\t// out\n        /* \"#utility.yul\":23494:23641   */\n    tag_467:\n        /* \"#utility.yul\":23595:23606   */\n      0x00\n        /* \"#utility.yul\":23632:23635   */\n      dup2\n        /* \"#utility.yul\":23617:23635   */\n      swap1\n      pop\n        /* \"#utility.yul\":23494:23641   */\n      swap3\n      swap2\n      pop\n      pop\n      jump\t// out\n        /* \"#utility.yul\":23647:23816   */\n    tag_479:\n        /* \"#utility.yul\":23731:23742   */\n      0x00\n        /* \"#utility.yul\":23765:23771   */\n      dup3\n        /* \"#utility.yul\":23760:23763   */\n      dup3\n        /* \"#utility.yul\":23753:23772   */\n      mstore\n        /* \"#utility.yul\":23805:23809   */\n      0x20\n        /* \"#utility.yul\":23800:23803   */\n      dup3\n        /* \"#utility.yul\":23796:23810   */\n      add\n        /* \"#utility.yul\":23781:23810   */\n      swap1\n      pop\n        /* \"#utility.yul\":23647:23816   */\n      swap3\n      swap2\n      pop\n      pop\n      jump\t// out\n        /* \"#utility.yul\":23822:24127   */\n    tag_158:\n        /* \"#utility.yul\":23862:23865   */\n      0x00\n        /* \"#utility.yul\":23881:23901   */\n      tag_655\n        /* \"#utility.yul\":23899:23900   */\n      dup3\n        /* \"#utility.yul\":23881:23901   */\n      tag_581\n      jump\t// in\n    tag_655:\n        /* \"#utility.yul\":23876:23901   */\n      swap2\n      pop\n        /* \"#utility.yul\":23915:23935   */\n      tag_656\n        /* \"#utility.yul\":23933:23934   */\n      dup4\n        /* \"#utility.yul\":23915:23935   */\n      tag_581\n      jump\t// in\n    tag_656:\n        /* \"#utility.yul\":23910:23935   */\n      swap3\n      pop\n        /* \"#utility.yul\":24069:24070   */\n      dup3\n        /* \"#utility.yul\":24001:24067   */\n      0xffffffffffffffffffffffffffffffffffffffffffffffffffffffffffffffff\n        /* \"#utility.yul\":23997:24071   */\n      sub\n        /* \"#utility.yul\":23994:23995   */\n      dup3\n        /* \"#utility.yul\":23991:24072   */\n      gt\n        /* \"#utility.yul\":23988:24095   */\n      iszero\n      tag_657\n      jumpi\n        /* \"#utility.yul\":24075:24093   */\n      tag_658\n      tag_659\n      jump\t// in\n    tag_658:\n        /* \"#utility.yul\":23988:24095   */\n    tag_657:\n        /* \"#utility.yul\":24119:24120   */\n      dup3\n        /* \"#utility.yul\":24116:24117   */\n      dup3\n        /* \"#utility.yul\":24112:24121   */\n      add\n        /* \"#utility.yul\":24105:24121   */\n      swap1\n      pop\n        /* \"#utility.yul\":23822:24127   */\n      swap3\n      swap2\n      pop\n      pop\n      jump\t// out\n        /* \"#utility.yul\":24133:24229   */\n    tag_453:\n        /* \"#utility.yul\":24170:24177   */\n      0x00\n        /* \"#utility.yul\":24199:24223   */\n      tag_661\n        /* \"#utility.yul\":24217:24222   */\n      dup3\n        /* \"#utility.yul\":24199:24223   */\n      tag_662\n      jump\t// in\n    tag_661:\n        /* \"#utility.yul\":24188:24223   */\n      swap1\n      pop\n        /* \"#utility.yul\":24133:24229   */\n      swap2\n      swap1\n      pop\n      jump\t// out\n        /* \"#utility.yul\":24235:24325   */\n    tag_457:\n        /* \"#utility.yul\":24269:24276   */\n      0x00\n        /* \"#utility.yul\":24312:24317   */\n      dup2\n        /* \"#utility.yul\":24305:24318   */\n      iszero\n        /* \"#utility.yul\":24298:24319   */\n      iszero\n        /* \"#utility.yul\":24287:24319   */\n      swap1\n      pop\n        /* \"#utility.yul\":24235:24325   */\n      swap2\n      swap1\n      pop\n      jump\t// out\n        /* \"#utility.yul\":24331:24408   */\n    tag_461:\n        /* \"#utility.yul\":24368:24375   */\n      0x00\n        /* \"#utility.yul\":24397:24402   */\n      dup2\n        /* \"#utility.yul\":24386:24402   */\n      swap1\n      pop\n        /* \"#utility.yul\":24331:24408   */\n      swap2\n      swap1\n      pop\n      jump\t// out\n        /* \"#utility.yul\":24414:24540   */\n    tag_662:\n        /* \"#utility.yul\":24451:24458   */\n      0x00\n        /* \"#utility.yul\":24491:24533   */\n      0xffffffffffffffffffffffffffffffffffffffff\n        /* \"#utility.yul\":24484:24489   */\n      dup3\n        /* \"#utility.yul\":24480:24534   */\n      and\n        /* \"#utility.yul\":24469:24534   */\n      swap1\n      pop\n        /* \"#utility.yul\":24414:24540   */\n      swap2\n      swap1\n      pop\n      jump\t// out\n        /* \"#utility.yul\":24546:24623   */\n    tag_581:\n        /* \"#utility.yul\":24583:24590   */\n      0x00\n        /* \"#utility.yul\":24612:24617   */\n      dup2\n        /* \"#utility.yul\":24601:24617   */\n      swap1\n      pop\n        /* \"#utility.yul\":24546:24623   */\n      swap2\n      swap1\n      pop\n      jump\t// out\n        /* \"#utility.yul\":24629:24715   */\n    tag_585:\n        /* \"#utility.yul\":24664:24671   */\n      0x00\n        /* \"#utility.yul\":24704:24708   */\n      0xff\n        /* \"#utility.yul\":24697:24702   */\n      dup3\n        /* \"#utility.yul\":24693:24709   */\n      and\n        /* \"#utility.yul\":24682:24709   */\n      swap1\n      pop\n        /* \"#utility.yul\":24629:24715   */\n      swap2\n      swap1\n      pop\n      jump\t// out\n        /* \"#utility.yul\":24721:24838   */\n    tag_473:\n        /* \"#utility.yul\":24777:24786   */\n      0x00\n        /* \"#utility.yul\":24810:24832   */\n      tag_669\n        /* \"#utility.yul\":24826:24831   */\n      dup3\n        /* \"#utility.yul\":24810:24832   */\n      tag_585\n      jump\t// in\n    tag_669:\n        /* \"#utility.yul\":24797:24832   */\n      swap1\n      pop\n        /* \"#utility.yul\":24721:24838   */\n      swap2\n      swap1\n      pop\n      jump\t// out\n        /* \"#utility.yul\":24844:24998   */\n    tag_398:\n        /* \"#utility.yul\":24928:24934   */\n      dup3\n        /* \"#utility.yul\":24923:24926   */\n      dup2\n        /* \"#utility.yul\":24918:24921   */\n      dup4\n        /* \"#utility.yul\":24905:24935   */\n      calldatacopy\n        /* \"#utility.yul\":24990:24991   */\n      0x00\n        /* \"#utility.yul\":24981:24987   */\n      dup4\n        /* \"#utility.yul\":24976:24979   */\n      dup4\n        /* \"#utility.yul\":24972:24988   */\n      add\n        /* \"#utility.yul\":24965:24992   */\n      mstore\n        /* \"#utility.yul\":24844:24998   */\n      pop\n      pop\n      pop\n      jump\t// out\n        /* \"#utility.yul\":25004:25311   */\n    tag_469:\n        /* \"#utility.yul\":25072:25073   */\n      0x00\n        /* \"#utility.yul\":25082:25195   */\n    tag_672:\n        /* \"#utility.yul\":25096:25102   */\n      dup4\n        /* \"#utility.yul\":25093:25094   */\n      dup2\n        /* \"#utility.yul\":25090:25103   */\n      lt\n        /* \"#utility.yul\":25082:25195   */\n      iszero\n      tag_674\n      jumpi\n        /* \"#utility.yul\":25181:25182   */\n      dup1\n        /* \"#utility.yul\":25176:25179   */\n      dup3\n        /* \"#utility.yul\":25172:25183   */\n      add\n        /* \"#utility.yul\":25166:25184   */\n      mload\n        /* \"#utility.yul\":25162:25163   */\n      dup2\n        /* \"#utility.yul\":25157:25160   */\n      dup5\n        /* \"#utility.yul\":25153:25164   */\n      add\n        /* \"#utility.yul\":25146:25185   */\n      mstore\n        /* \"#utility.yul\":25118:25120   */\n      0x20\n        /* \"#utility.yul\":25115:25116   */\n      dup2\n        /* \"#utility.yul\":25111:25121   */\n      add\n        /* \"#utility.yul\":25106:25121   */\n      swap1\n      pop\n        /* \"#utility.yul\":25082:25195   */\n      jump(tag_672)\n    tag_674:\n        /* \"#utility.yul\":25213:25219   */\n      dup4\n        /* \"#utility.yul\":25210:25211   */\n      dup2\n        /* \"#utility.yul\":25207:25220   */\n      gt\n        /* \"#utility.yul\":25204:25305   */\n      iszero\n      tag_675\n      jumpi\n        /* \"#utility.yul\":25293:25294   */\n      0x00\n        /* \"#utility.yul\":25284:25290   */\n      dup5\n        /* \"#utility.yul\":25279:25282   */\n      dup5\n        /* \"#utility.yul\":25275:25291   */\n      add\n        /* \"#utility.yul\":25268:25295   */\n      mstore\n        /* \"#utility.yul\":25204:25305   */\n    tag_675:\n        /* \"#utility.yul\":25053:25311   */\n      pop\n        /* \"#utility.yul\":25004:25311   */\n      pop\n      pop\n      pop\n      jump\t// out\n        /* \"#utility.yul\":25317:25637   */\n    tag_117:\n        /* \"#utility.yul\":25361:25367   */\n      0x00\n        /* \"#utility.yul\":25398:25399   */\n      0x02\n        /* \"#utility.yul\":25392:25396   */\n      dup3\n        /* \"#utility.yul\":25388:25400   */\n      div\n        /* \"#utility.yul\":25378:25400   */\n      swap1\n      pop\n        /* \"#utility.yul\":25445:25446   */\n      0x01\n        /* \"#utility.yul\":25439:25443   */\n      dup3\n        /* \"#utility.yul\":25435:25447   */\n      and\n        /* \"#utility.yul\":25466:25484   */\n      dup1\n        /* \"#utility.yul\":25456:25537   */\n      tag_677\n      jumpi\n        /* \"#utility.yul\":25522:25526   */\n      0x7f\n        /* \"#utility.yul\":25514:25520   */\n      dup3\n        /* \"#utility.yul\":25510:25527   */\n      and\n        /* \"#utility.yul\":25500:25527   */\n      swap2\n      pop\n        /* \"#utility.yul\":25456:25537   */\n    tag_677:\n        /* \"#utility.yul\":25584:25586   */\n      0x20\n        /* \"#utility.yul\":25576:25582   */\n      dup3\n        /* \"#utility.yul\":25573:25587   */\n      lt\n        /* \"#utility.yul\":25553:25571   */\n      dup2\n        /* \"#utility.yul\":25550:25588   */\n      eq\n        /* \"#utility.yul\":25547:25631   */\n      iszero\n      tag_678\n      jumpi\n        /* \"#utility.yul\":25603:25621   */\n      tag_679\n      tag_680\n      jump\t// in\n    tag_679:\n        /* \"#utility.yul\":25547:25631   */\n    tag_678:\n        /* \"#utility.yul\":25368:25637   */\n      pop\n        /* \"#utility.yul\":25317:25637   */\n      swap2\n      swap1\n      pop\n      jump\t// out\n        /* \"#utility.yul\":25643:25924   */\n    tag_644:\n        /* \"#utility.yul\":25726:25753   */\n      tag_682\n        /* \"#utility.yul\":25748:25752   */\n      dup3\n        /* \"#utility.yul\":25726:25753   */\n      tag_482\n      jump\t// in\n    tag_682:\n        /* \"#utility.yul\":25718:25724   */\n      dup2\n        /* \"#utility.yul\":25714:25754   */\n      add\n        /* \"#utility.yul\":25856:25862   */\n      dup2\n        /* \"#utility.yul\":25844:25854   */\n      dup2\n        /* \"#utility.yul\":25841:25863   */\n      lt\n        /* \"#utility.yul\":25820:25838   */\n      0xffffffffffffffff\n        /* \"#utility.yul\":25808:25818   */\n      dup3\n        /* \"#utility.yul\":25805:25839   */\n      gt\n        /* \"#utility.yul\":25802:25864   */\n      or\n        /* \"#utility.yul\":25799:25887   */\n      iszero\n      tag_683\n      jumpi\n        /* \"#utility.yul\":25867:25885   */\n      tag_684\n      tag_150\n      jump\t// in\n    tag_684:\n        /* \"#utility.yul\":25799:25887   */\n    tag_683:\n        /* \"#utility.yul\":25907:25917   */\n      dup1\n        /* \"#utility.yul\":25903:25905   */\n      0x40\n        /* \"#utility.yul\":25896:25918   */\n      mstore\n        /* \"#utility.yul\":25686:25924   */\n      pop\n        /* \"#utility.yul\":25643:25924   */\n      pop\n      pop\n      jump\t// out\n        /* \"#utility.yul\":25930:26110   */\n    tag_659:\n        /* \"#utility.yul\":25978:26055   */\n      0x4e487b7100000000000000000000000000000000000000000000000000000000\n        /* \"#utility.yul\":25975:25976   */\n      0x00\n        /* \"#utility.yul\":25968:26056   */\n      mstore\n        /* \"#utility.yul\":26075:26079   */\n      0x11\n        /* \"#utility.yul\":26072:26073   */\n      0x04\n        /* \"#utility.yul\":26065:26080   */\n      mstore\n        /* \"#utility.yul\":26099:26103   */\n      0x24\n        /* \"#utility.yul\":26096:26097   */\n      0x00\n        /* \"#utility.yul\":26089:26104   */\n      revert\n        /* \"#utility.yul\":26116:26296   */\n    tag_680:\n        /* \"#utility.yul\":26164:26241   */\n      0x4e487b7100000000000000000000000000000000000000000000000000000000\n        /* \"#utility.yul\":26161:26162   */\n      0x00\n        /* \"#utility.yul\":26154:26242   */\n      mstore\n        /* \"#utility.yul\":26261:26265   */\n      0x22\n        /* \"#utility.yul\":26258:26259   */\n      0x04\n        /* \"#utility.yul\":26251:26266   */\n      mstore\n        /* \"#utility.yul\":26285:26289   */\n      0x24\n        /* \"#utility.yul\":26282:26283   */\n      0x00\n        /* \"#utility.yul\":26275:26290   */\n      revert\n        /* \"#utility.yul\":26302:26482   */\n    tag_150:\n        /* \"#utility.yul\":26350:26427   */\n      0x4e487b7100000000000000000000000000000000000000000000000000000000\n        /* \"#utility.yul\":26347:26348   */\n      0x00\n        /* \"#utility.yul\":26340:26428   */\n      mstore\n        /* \"#utility.yul\":26447:26451   */\n      0x41\n        /* \"#utility.yul\":26444:26445   */\n      0x04\n        /* \"#utility.yul\":26437:26452   */\n      mstore\n        /* \"#utility.yul\":26471:26475   */\n      0x24\n        /* \"#utility.yul\":26468:26469   */\n      0x00\n        /* \"#utility.yul\":26461:26476   */\n      revert\n        /* \"#utility.yul\":26488:26605   */\n    tag_411:\n        /* \"#utility.yul\":26597:26598   */\n      0x00\n        /* \"#utility.yul\":26594:26595   */\n      dup1\n        /* \"#utility.yul\":26587:26599   */\n      revert\n        /* \"#utility.yul\":26611:26728   */\n    tag_396:\n        /* \"#utility.yul\":26720:26721   */\n      0x00\n        /* \"#utility.yul\":26717:26718   */\n      dup1\n        /* \"#utility.yul\":26710:26722   */\n      revert\n        /* \"#utility.yul\":26734:26851   */\n    tag_439:\n        /* \"#utility.yul\":26843:26844   */\n      0x00\n        /* \"#utility.yul\":26840:26841   */\n      dup1\n        /* \"#utility.yul\":26833:26845   */\n      revert\n        /* \"#utility.yul\":26857:26974   */\n    tag_420:\n        /* \"#utility.yul\":26966:26967   */\n      0x00\n        /* \"#utility.yul\":26963:26964   */\n      dup1\n        /* \"#utility.yul\":26956:26968   */\n      revert\n        /* \"#utility.yul\":26980:27082   */\n    tag_482:\n        /* \"#utility.yul\":27021:27027   */\n      0x00\n        /* \"#utility.yul\":27072:27074   */\n      0x1f\n        /* \"#utility.yul\":27068:27075   */\n      not\n        /* \"#utility.yul\":27063:27065   */\n      0x1f\n        /* \"#utility.yul\":27056:27061   */\n      dup4\n        /* \"#utility.yul\":27052:27066   */\n      add\n        /* \"#utility.yul\":27048:27076   */\n      and\n        /* \"#utility.yul\":27038:27076   */\n      swap1\n      pop\n        /* \"#utility.yul\":26980:27082   */\n      swap2\n      swap1\n      pop\n      jump\t// out\n        /* \"#utility.yul\":27088:27310   */\n    tag_487:\n        /* \"#utility.yul\":27228:27262   */\n      0x45524332303a207472616e7366657220746f20746865207a65726f2061646472\n        /* \"#utility.yul\":27224:27225   */\n      0x00\n        /* \"#utility.yul\":27216:27222   */\n      dup3\n        /* \"#utility.yul\":27212:27226   */\n      add\n        /* \"#utility.yul\":27205:27263   */\n      mstore\n        /* \"#utility.yul\":27297:27302   */\n      0x6573730000000000000000000000000000000000000000000000000000000000\n        /* \"#utility.yul\":27292:27294   */\n      0x20\n        /* \"#utility.yul\":27284:27290   */\n      dup3\n        /* \"#utility.yul\":27280:27295   */\n      add\n        /* \"#utility.yul\":27273:27303   */\n      mstore\n        /* \"#utility.yul\":27088:27310   */\n      pop\n      jump\t// out\n        /* \"#utility.yul\":27316:27541   */\n    tag_492:\n        /* \"#utility.yul\":27456:27490   */\n      0x4f776e61626c653a206e6577206f776e657220697320746865207a65726f2061\n        /* \"#utility.yul\":27452:27453   */\n      0x00\n        /* \"#utility.yul\":27444:27450   */\n      dup3\n        /* \"#utility.yul\":27440:27454   */\n      add\n        /* \"#utility.yul\":27433:27491   */\n      mstore\n        /* \"#utility.yul\":27525:27533   */\n      0x6464726573730000000000000000000000000000000000000000000000000000\n        /* \"#utility.yul\":27520:27522   */\n      0x20\n        /* \"#utility.yul\":27512:27518   */\n      dup3\n        /* \"#utility.yul\":27508:27523   */\n      add\n        /* \"#utility.yul\":27501:27534   */\n      mstore\n        /* \"#utility.yul\":27316:27541   */\n      pop\n      jump\t// out\n        /* \"#utility.yul\":27547:27768   */\n    tag_497:\n        /* \"#utility.yul\":27687:27721   */\n      0x45524332303a20617070726f766520746f20746865207a65726f206164647265\n        /* \"#utility.yul\":27683:27684   */\n      0x00\n        /* \"#utility.yul\":27675:27681   */\n      dup3\n        /* \"#utility.yul\":27671:27685   */\n      add\n        /* \"#utility.yul\":27664:27722   */\n      mstore\n        /* \"#utility.yul\":27756:27760   */\n      0x7373000000000000000000000000000000000000000000000000000000000000\n        /* \"#utility.yul\":27751:27753   */\n      0x20\n        /* \"#utility.yul\":27743:27749   */\n      dup3\n        /* \"#utility.yul\":27739:27754   */\n      add\n        /* \"#utility.yul\":27732:27761   */\n      mstore\n        /* \"#utility.yul\":27547:27768   */\n      pop\n      jump\t// out\n        /* \"#utility.yul\":27774:28005   */\n    tag_502:\n        /* \"#utility.yul\":27914:27948   */\n      0x46756e6374696f6e206d7573742062652063616c6c6564207468726f75676820\n        /* \"#utility.yul\":27910:27911   */\n      0x00\n        /* \"#utility.yul\":27902:27908   */\n      dup3\n        /* \"#utility.yul\":27898:27912   */\n      add\n        /* \"#utility.yul\":27891:27949   */\n      mstore\n        /* \"#utility.yul\":27983:27997   */\n      0x64656c656761746563616c6c0000000000000000000000000000000000000000\n        /* \"#utility.yul\":27978:27980   */\n      0x20\n        /* \"#utility.yul\":27970:27976   */\n      dup3\n        /* \"#utility.yul\":27966:27981   */\n      add\n        /* \"#utility.yul\":27959:27998   */\n      mstore\n        /* \"#utility.yul\":27774:28005   */\n      pop\n      jump\t// out\n        /* \"#utility.yul\":28011:28190   */\n    tag_507:\n        /* \"#utility.yul\":28151:28182   */\n      0x45524332303a20696e73756666696369656e7420616c6c6f77616e6365000000\n        /* \"#utility.yul\":28147:28148   */\n      0x00\n        /* \"#utility.yul\":28139:28145   */\n      dup3\n        /* \"#utility.yul\":28135:28149   */\n      add\n        /* \"#utility.yul\":28128:28183   */\n      mstore\n        /* \"#utility.yul\":28011:28190   */\n      pop\n      jump\t// out\n        /* \"#utility.yul\":28196:28421   */\n    tag_512:\n        /* \"#utility.yul\":28336:28370   */\n      0x45524332303a207472616e7366657220616d6f756e7420657863656564732062\n        /* \"#utility.yul\":28332:28333   */\n      0x00\n        /* \"#utility.yul\":28324:28330   */\n      dup3\n        /* \"#utility.yul\":28320:28334   */\n      add\n        /* \"#utility.yul\":28313:28371   */\n      mstore\n        /* \"#utility.yul\":28405:28413   */\n      0x616c616e63650000000000000000000000000000000000000000000000000000\n        /* \"#utility.yul\":28400:28402   */\n      0x20\n        /* \"#utility.yul\":28392:28398   */\n      dup3\n        /* \"#utility.yul\":28388:28403   */\n      add\n        /* \"#utility.yul\":28381:28414   */\n      mstore\n        /* \"#utility.yul\":28196:28421   */\n      pop\n      jump\t// out\n        /* \"#utility.yul\":28427:28658   */\n    tag_517:\n        /* \"#utility.yul\":28567:28601   */\n      0x46756e6374696f6e206d7573742062652063616c6c6564207468726f75676820\n        /* \"#utility.yul\":28563:28564   */\n      0x00\n        /* \"#utility.yul\":28555:28561   */\n      dup3\n        /* \"#utility.yul\":28551:28565   */\n      add\n        /* \"#utility.yul\":28544:28602   */\n      mstore\n        /* \"#utility.yul\":28636:28650   */\n      0x6163746976652070726f78790000000000000000000000000000000000000000\n        /* \"#utility.yul\":28631:28633   */\n      0x20\n        /* \"#utility.yul\":28623:28629   */\n      dup3\n        /* \"#utility.yul\":28619:28634   */\n      add\n        /* \"#utility.yul\":28612:28651   */\n      mstore\n        /* \"#utility.yul\":28427:28658   */\n      pop\n      jump\t// out\n        /* \"#utility.yul\":28664:28907   */\n    tag_522:\n        /* \"#utility.yul\":28804:28838   */\n      0x555550535570677261646561626c653a206d757374206e6f742062652063616c\n        /* \"#utility.yul\":28800:28801   */\n      0x00\n        /* \"#utility.yul\":28792:28798   */\n      dup3\n        /* \"#utility.yul\":28788:28802   */\n      add\n        /* \"#utility.yul\":28781:28839   */\n      mstore\n        /* \"#utility.yul\":28873:28899   */\n      0x6c6564207468726f7567682064656c656761746563616c6c0000000000000000\n        /* \"#utility.yul\":28868:28870   */\n      0x20\n        /* \"#utility.yul\":28860:28866   */\n      dup3\n        /* \"#utility.yul\":28856:28871   */\n      add\n        /* \"#utility.yul\":28849:28900   */\n      mstore\n        /* \"#utility.yul\":28664:28907   */\n      pop\n      jump\t// out\n        /* \"#utility.yul\":28913:29141   */\n    tag_527:\n        /* \"#utility.yul\":29053:29087   */\n      0x45524331393637557067726164653a20756e737570706f727465642070726f78\n        /* \"#utility.yul\":29049:29050   */\n      0x00\n        /* \"#utility.yul\":29041:29047   */\n      dup3\n        /* \"#utility.yul\":29037:29051   */\n      add\n        /* \"#utility.yul\":29030:29088   */\n      mstore\n        /* \"#utility.yul\":29122:29133   */\n      0x6961626c65555549440000000000000000000000000000000000000000000000\n        /* \"#utility.yul\":29117:29119   */\n      0x20\n        /* \"#utility.yul\":29109:29115   */\n      dup3\n        /* \"#utility.yul\":29105:29120   */\n      add\n        /* \"#utility.yul\":29098:29134   */\n      mstore\n        /* \"#utility.yul\":28913:29141   */\n      pop\n      jump\t// out\n        /* \"#utility.yul\":29147:29380   */\n    tag_532:\n        /* \"#utility.yul\":29287:29321   */\n      0x496e697469616c697a61626c653a20636f6e747261637420697320616c726561\n        /* \"#utility.yul\":29283:29284   */\n      0x00\n        /* \"#utility.yul\":29275:29281   */\n      dup3\n        /* \"#utility.yul\":29271:29285   */\n      add\n        /* \"#utility.yul\":29264:29322   */\n      mstore\n        /* \"#utility.yul\":29356:29372   */\n      0x647920696e697469616c697a6564000000000000000000000000000000000000\n        /* \"#utility.yul\":29351:29353   */\n      0x20\n        /* \"#utility.yul\":29343:29349   */\n      dup3\n        /* \"#utility.yul\":29339:29354   */\n      add\n        /* \"#utility.yul\":29332:29373   */\n      mstore\n        /* \"#utility.yul\":29147:29380   */\n      pop\n      jump\t// out\n        /* \"#utility.yul\":29386:29619   */\n    tag_537:\n        /* \"#utility.yul\":29526:29560   */\n      0x45524331393637557067726164653a206e657720696d706c656d656e74617469\n        /* \"#utility.yul\":29522:29523   */\n      0x00\n        /* \"#utility.yul\":29514:29520   */\n      dup3\n        /* \"#utility.yul\":29510:29524   */\n      add\n        /* \"#utility.yul\":29503:29561   */\n      mstore\n        /* \"#utility.yul\":29595:29611   */\n      0x6f6e206973206e6f742055555053000000000000000000000000000000000000\n        /* \"#utility.yul\":29590:29592   */\n      0x20\n        /* \"#utility.yul\":29582:29588   */\n      dup3\n        /* \"#utility.yul\":29578:29593   */\n      add\n        /* \"#utility.yul\":29571:29612   */\n      mstore\n        /* \"#utility.yul\":29386:29619   */\n      pop\n      jump\t// out\n        /* \"#utility.yul\":29625:29857   */\n    tag_542:\n        /* \"#utility.yul\":29765:29799   */\n      0x455243313936373a206e657720696d706c656d656e746174696f6e206973206e\n        /* \"#utility.yul\":29761:29762   */\n      0x00\n        /* \"#utility.yul\":29753:29759   */\n      dup3\n        /* \"#utility.yul\":29749:29763   */\n      add\n        /* \"#utility.yul\":29742:29800   */\n      mstore\n        /* \"#utility.yul\":29834:29849   */\n      0x6f74206120636f6e747261637400000000000000000000000000000000000000\n        /* \"#utility.yul\":29829:29831   */\n      0x20\n        /* \"#utility.yul\":29821:29827   */\n      dup3\n        /* \"#utility.yul\":29817:29832   */\n      add\n        /* \"#utility.yul\":29810:29850   */\n      mstore\n        /* \"#utility.yul\":29625:29857   */\n      pop\n      jump\t// out\n        /* \"#utility.yul\":29863:30045   */\n    tag_547:\n        /* \"#utility.yul\":30003:30037   */\n      0x4f776e61626c653a2063616c6c6572206973206e6f7420746865206f776e6572\n        /* \"#utility.yul\":29999:30000   */\n      0x00\n        /* \"#utility.yul\":29991:29997   */\n      dup3\n        /* \"#utility.yul\":29987:30001   */\n      add\n        /* \"#utility.yul\":29980:30038   */\n      mstore\n        /* \"#utility.yul\":29863:30045   */\n      pop\n      jump\t// out\n        /* \"#utility.yul\":30051:30276   */\n    tag_552:\n        /* \"#utility.yul\":30191:30225   */\n      0x416464726573733a2064656c65676174652063616c6c20746f206e6f6e2d636f\n        /* \"#utility.yul\":30187:30188   */\n      0x00\n        /* \"#utility.yul\":30179:30185   */\n      dup3\n        /* \"#utility.yul\":30175:30189   */\n      add\n        /* \"#utility.yul\":30168:30226   */\n      mstore\n        /* \"#utility.yul\":30260:30268   */\n      0x6e74726163740000000000000000000000000000000000000000000000000000\n        /* \"#utility.yul\":30255:30257   */\n      0x20\n        /* \"#utility.yul\":30247:30253   */\n      dup3\n        /* \"#utility.yul\":30243:30258   */\n      add\n        /* \"#utility.yul\":30236:30269   */\n      mstore\n        /* \"#utility.yul\":30051:30276   */\n      pop\n      jump\t// out\n        /* \"#utility.yul\":30282:30506   */\n    tag_557:\n        /* \"#utility.yul\":30422:30456   */\n      0x45524332303a207472616e736665722066726f6d20746865207a65726f206164\n        /* \"#utility.yul\":30418:30419   */\n      0x00\n        /* \"#utility.yul\":30410:30416   */\n      dup3\n        /* \"#utility.yul\":30406:30420   */\n      add\n        /* \"#utility.yul\":30399:30457   */\n      mstore\n        /* \"#utility.yul\":30491:30498   */\n      0x6472657373000000000000000000000000000000000000000000000000000000\n        /* \"#utility.yul\":30486:30488   */\n      0x20\n        /* \"#utility.yul\":30478:30484   */\n      dup3\n        /* \"#utility.yul\":30474:30489   */\n      add\n        /* \"#utility.yul\":30467:30499   */\n      mstore\n        /* \"#utility.yul\":30282:30506   */\n      pop\n      jump\t// out\n        /* \"#utility.yul\":30512:30735   */\n    tag_562:\n        /* \"#utility.yul\":30652:30686   */\n      0x45524332303a20617070726f76652066726f6d20746865207a65726f20616464\n        /* \"#utility.yul\":30648:30649   */\n      0x00\n        /* \"#utility.yul\":30640:30646   */\n      dup3\n        /* \"#utility.yul\":30636:30650   */\n      add\n        /* \"#utility.yul\":30629:30687   */\n      mstore\n        /* \"#utility.yul\":30721:30727   */\n      0x7265737300000000000000000000000000000000000000000000000000000000\n        /* \"#utility.yul\":30716:30718   */\n      0x20\n        /* \"#utility.yul\":30708:30714   */\n      dup3\n        /* \"#utility.yul\":30704:30719   */\n      add\n        /* \"#utility.yul\":30697:30728   */\n      mstore\n        /* \"#utility.yul\":30512:30735   */\n      pop\n      jump\t// out\n        /* \"#utility.yul\":30741:30971   */\n    tag_567:\n        /* \"#utility.yul\":30881:30915   */\n      0x496e697469616c697a61626c653a20636f6e7472616374206973206e6f742069\n        /* \"#utility.yul\":30877:30878   */\n      0x00\n        /* \"#utility.yul\":30869:30875   */\n      dup3\n        /* \"#utility.yul\":30865:30879   */\n      add\n        /* \"#utility.yul\":30858:30916   */\n      mstore\n        /* \"#utility.yul\":30950:30963   */\n      0x6e697469616c697a696e67000000000000000000000000000000000000000000\n        /* \"#utility.yul\":30945:30947   */\n      0x20\n        /* \"#utility.yul\":30937:30943   */\n      dup3\n        /* \"#utility.yul\":30933:30948   */\n      add\n        /* \"#utility.yul\":30926:30964   */\n      mstore\n        /* \"#utility.yul\":30741:30971   */\n      pop\n      jump\t// out\n        /* \"#utility.yul\":30977:31201   */\n    tag_572:\n        /* \"#utility.yul\":31117:31151   */\n      0x45524332303a2064656372656173656420616c6c6f77616e63652062656c6f77\n        /* \"#utility.yul\":31113:31114   */\n      0x00\n        /* \"#utility.yul\":31105:31111   */\n      dup3\n        /* \"#utility.yul\":31101:31115   */\n      add\n        /* \"#utility.yul\":31094:31152   */\n      mstore\n        /* \"#utility.yul\":31186:31193   */\n      0x207a65726f000000000000000000000000000000000000000000000000000000\n        /* \"#utility.yul\":31181:31183   */\n      0x20\n        /* \"#utility.yul\":31173:31179   */\n      dup3\n        /* \"#utility.yul\":31169:31184   */\n      add\n        /* \"#utility.yul\":31162:31194   */\n      mstore\n        /* \"#utility.yul\":30977:31201   */\n      pop\n      jump\t// out\n        /* \"#utility.yul\":31207:31388   */\n    tag_577:\n        /* \"#utility.yul\":31347:31380   */\n      0x45524332303a206d696e7420746f20746865207a65726f206164647265737300\n        /* \"#utility.yul\":31343:31344   */\n      0x00\n        /* \"#utility.yul\":31335:31341   */\n      dup3\n        /* \"#utility.yul\":31331:31345   */\n      add\n        /* \"#utility.yul\":31324:31381   */\n      mstore\n        /* \"#utility.yul\":31207:31388   */\n      pop\n      jump\t// out\n        /* \"#utility.yul\":31394:31516   */\n    tag_402:\n        /* \"#utility.yul\":31467:31491   */\n      tag_713\n        /* \"#utility.yul\":31485:31490   */\n      dup2\n        /* \"#utility.yul\":31467:31491   */\n      tag_453\n      jump\t// in\n    tag_713:\n        /* \"#utility.yul\":31460:31465   */\n      dup2\n        /* \"#utility.yul\":31457:31492   */\n      eq\n        /* \"#utility.yul\":31447:31510   */\n      tag_714\n      jumpi\n        /* \"#utility.yul\":31506:31507   */\n      0x00\n        /* \"#utility.yul\":31503:31504   */\n      dup1\n        /* \"#utility.yul\":31496:31508   */\n      revert\n        /* \"#utility.yul\":31447:31510   */\n    tag_714:\n        /* \"#utility.yul\":31394:31516   */\n      pop\n      jump\t// out\n        /* \"#utility.yul\":31522:31644   */\n    tag_406:\n        /* \"#utility.yul\":31595:31619   */\n      tag_716\n        /* \"#utility.yul\":31613:31618   */\n      dup2\n        /* \"#utility.yul\":31595:31619   */\n      tag_461\n      jump\t// in\n    tag_716:\n        /* \"#utility.yul\":31588:31593   */\n      dup2\n        /* \"#utility.yul\":31585:31620   */\n      eq\n        /* \"#utility.yul\":31575:31638   */\n      tag_717\n      jumpi\n        /* \"#utility.yul\":31634:31635   */\n      0x00\n        /* \"#utility.yul\":31631:31632   */\n      dup1\n        /* \"#utility.yul\":31624:31636   */\n      revert\n        /* \"#utility.yul\":31575:31638   */\n    tag_717:\n        /* \"#utility.yul\":31522:31644   */\n      pop\n      jump\t// out\n        /* \"#utility.yul\":31650:31772   */\n    tag_416:\n        /* \"#utility.yul\":31723:31747   */\n      tag_719\n        /* \"#utility.yul\":31741:31746   */\n      dup2\n        /* \"#utility.yul\":31723:31747   */\n      tag_581\n      jump\t// in\n    tag_719:\n        /* \"#utility.yul\":31716:31721   */\n      dup2\n        /* \"#utility.yul\":31713:31748   */\n      eq\n        /* \"#utility.yul\":31703:31766   */\n      tag_720\n      jumpi\n        /* \"#utility.yul\":31762:31763   */\n      0x00\n        /* \"#utility.yul\":31759:31760   */\n      dup1\n        /* \"#utility.yul\":31752:31764   */\n      revert\n        /* \"#utility.yul\":31703:31766   */\n    tag_720:\n        /* \"#utility.yul\":31650:31772   */\n      pop\n      jump\t// out\n    stop\n    data_9fdcd12e4b726339b32a442b0a448365d5d85c96b2d2cff917b4f66c63110398 416464726573733a206c6f772d6c6576656c2064656c65676174652063616c6c206661696c6564\n\n    auxdata: 0xa2646970667358221220b1680280d073c3fa4cf267e2fd4d10dbc699172d308cf47cc82df6be8edc5c6b64736f6c63430008070033\n}\n",
				"bytecode": {
					"linkReferences": {},
					"object": "60a06040523073ffffffffffffffffffffffffffffffffffffffff1660809073ffffffffffffffffffffffffffffffffffffffff1660601b8152503480156200004757600080fd5b50620000586200005e60201b60201c565b62000209565b600060019054906101000a900460ff1615620000b1576040517f08c379a0000000000000000000000000000000000000000000000000000000008152600401620000a8906200015d565b60405180910390fd5b60ff801660008054906101000a900460ff1660ff161015620001235760ff6000806101000a81548160ff021916908360ff1602179055507f7f26b83ff96e1f2b6a682f133852f6798a09c465da95921460cefb384740249860ff6040516200011a91906200017f565b60405180910390a15b565b6000620001346027836200019c565b91506200014182620001ba565b604082019050919050565b6200015781620001ad565b82525050565b60006020820190508181036000830152620001788162000125565b9050919050565b60006020820190506200019660008301846200014c565b92915050565b600082825260208201905092915050565b600060ff82169050919050565b7f496e697469616c697a61626c653a20636f6e747261637420697320696e69746960008201527f616c697a696e6700000000000000000000000000000000000000000000000000602082015250565b60805160601c612db46200024460003960008181610584015281816106130152818161075a015281816107e901526108990152612db46000f3fe6080604052600436106101145760003560e01c806352d1902d116100a057806395d89b411161006457806395d89b4114610380578063a457c2d7146103ab578063a9059cbb146103e8578063dd62ed3e14610425578063f2fde38b1461046257610114565b806352d1902d146102bf57806370a08231146102ea578063715018a6146103275780638129fc1c1461033e5780638da5cb5b1461035557610114565b8063313ce567116100e7578063313ce567146101e95780633659cfe614610214578063395093511461023d57806340c10f191461027a5780634f1ef286146102a357610114565b806306fdde0314610119578063095ea7b31461014457806318160ddd1461018157806323b872dd146101ac575b600080fd5b34801561012557600080fd5b5061012e61048b565b60405161013b9190612249565b60405180910390f35b34801561015057600080fd5b5061016b60048036038101906101669190611dfc565b61051d565b60405161017891906121f8565b60405180910390f35b34801561018d57600080fd5b50610196610540565b6040516101a391906124cb565b60405180910390f35b3480156101b857600080fd5b506101d360048036038101906101ce9190611d4d565b61054a565b6040516101e091906121f8565b60405180910390f35b3480156101f557600080fd5b506101fe610579565b60405161020b91906124e6565b60405180910390f35b34801561022057600080fd5b5061023b60048036038101906102369190611ce0565b610582565b005b34801561024957600080fd5b50610264600480360381019061025f9190611dfc565b61070b565b60405161027191906121f8565b60405180910390f35b34801561028657600080fd5b506102a1600480360381019061029c9190611dfc565b610742565b005b6102bd60048036038101906102b89190611da0565b610758565b005b3480156102cb57600080fd5b506102d4610895565b6040516102e19190612213565b60405180910390f35b3480156102f657600080fd5b50610311600480360381019061030c9190611ce0565b61094e565b60405161031e91906124cb565b60405180910390f35b34801561033357600080fd5b5061033c610997565b005b34801561034a57600080fd5b506103536109ab565b005b34801561036157600080fd5b5061036a610b24565b60405161037791906121dd565b60405180910390f35b34801561038c57600080fd5b50610395610b4e565b6040516103a29190612249565b60405180910390f35b3480156103b757600080fd5b506103d260048036038101906103cd9190611dfc565b610be0565b6040516103df91906121f8565b60405180910390f35b3480156103f457600080fd5b5061040f600480360381019061040a9190611dfc565b610c57565b60405161041c91906121f8565b60405180910390f35b34801561043157600080fd5b5061044c60048036038101906104479190611d0d565b610c7a565b60405161045991906124cb565b60405180910390f35b34801561046e57600080fd5b5061048960048036038101906104849190611ce0565b610d01565b005b60606036805461049a90612692565b80601f01602080910402602001604051908101604052809291908181526020018280546104c690612692565b80156105135780601f106104e857610100808354040283529160200191610513565b820191906000526020600020905b8154815290600101906020018083116104f657829003601f168201915b5050505050905090565b600080610528610d85565b9050610535818585610d8d565b600191505092915050565b6000603554905090565b600080610555610d85565b9050610562858285610f58565b61056d858585610fe4565b60019150509392505050565b60006012905090565b7f000000000000000000000000000000000000000000000000000000000000000073ffffffffffffffffffffffffffffffffffffffff163073ffffffffffffffffffffffffffffffffffffffff161415610611576040517f08c379a0000000000000000000000000000000000000000000000000000000008152600401610608906122cb565b60405180910390fd5b7f000000000000000000000000000000000000000000000000000000000000000073ffffffffffffffffffffffffffffffffffffffff1661065061125f565b73ffffffffffffffffffffffffffffffffffffffff16146106a6576040517f08c379a000000000000000000000000000000000000000000000000000000000815260040161069d9061232b565b60405180910390fd5b6106af816112b6565b61070881600067ffffffffffffffff8111156106ce576106cd612753565b5b6040519080825280601f01601f1916602001820160405280156107005781602001600182028036833780820191505090505b5060006112c1565b50565b600080610716610d85565b90506107378185856107288589610c7a565b6107329190612589565b610d8d565b600191505092915050565b61074a61143e565b61075482826114bc565b5050565b7f000000000000000000000000000000000000000000000000000000000000000073ffffffffffffffffffffffffffffffffffffffff163073ffffffffffffffffffffffffffffffffffffffff1614156107e7576040517f08c379a00000000000000000000000000000000000000000000000000000000081526004016107de906122cb565b60405180910390fd5b7f000000000000000000000000000000000000000000000000000000000000000073ffffffffffffffffffffffffffffffffffffffff1661082661125f565b73ffffffffffffffffffffffffffffffffffffffff161461087c576040517f08c379a00000000000000000000000000000000000000000000000000000000081526004016108739061232b565b60405180910390fd5b610885826112b6565b610891828260016112c1565b5050565b60007f000000000000000000000000000000000000000000000000000000000000000073ffffffffffffffffffffffffffffffffffffffff163073ffffffffffffffffffffffffffffffffffffffff1614610925576040517f08c379a000000000000000000000000000000000000000000000000000000000815260040161091c9061234b565b60405180910390fd5b7f360894a13ba1a3210667c828492db98dca3e2076cc3735a920a3ca505d382bbc60001b905090565b6000603360008373ffffffffffffffffffffffffffffffffffffffff1673ffffffffffffffffffffffffffffffffffffffff168152602001908152602001600020549050919050565b61099f61143e565b6109a96000611614565b565b60008060019054906101000a900460ff161590508080156109dc5750600160008054906101000a900460ff1660ff16105b80610a0957506109eb306116da565b158015610a085750600160008054906101000a900460ff1660ff16145b5b610a48576040517f08c379a0000000000000000000000000000000000000000000000000000000008152600401610a3f9061238b565b60405180910390fd5b60016000806101000a81548160ff021916908360ff1602179055508015610a85576001600060016101000a81548160ff0219169083151502179055505b610aad60405180602001604052806000815250604051806020016040528060008152506116fd565b610ab561175a565b610abd6117b3565b610ac83360646114bc565b8015610b215760008060016101000a81548160ff0219169083151502179055507f7f26b83ff96e1f2b6a682f133852f6798a09c465da95921460cefb38474024986001604051610b18919061222e565b60405180910390a15b50565b6000606560009054906101000a900473ffffffffffffffffffffffffffffffffffffffff16905090565b606060378054610b5d90612692565b80601f0160208091040260200160405190810160405280929190818152602001828054610b8990612692565b8015610bd65780601f10610bab57610100808354040283529160200191610bd6565b820191906000526020600020905b815481529060010190602001808311610bb957829003601f168201915b5050505050905090565b600080610beb610d85565b90506000610bf98286610c7a565b905083811015610c3e576040517f08c379a0000000000000000000000000000000000000000000000000000000008152600401610c359061248b565b60405180910390fd5b610c4b8286868403610d8d565b60019250505092915050565b600080610c62610d85565b9050610c6f818585610fe4565b600191505092915050565b6000603460008473ffffffffffffffffffffffffffffffffffffffff1673ffffffffffffffffffffffffffffffffffffffff16815260200190815260200160002060008373ffffffffffffffffffffffffffffffffffffffff1673ffffffffffffffffffffffffffffffffffffffff16815260200190815260200160002054905092915050565b610d0961143e565b600073ffffffffffffffffffffffffffffffffffffffff168173ffffffffffffffffffffffffffffffffffffffff161415610d79576040517f08c379a0000000000000000000000000000000000000000000000000000000008152600401610d709061228b565b60405180910390fd5b610d8281611614565b50565b600033905090565b600073ffffffffffffffffffffffffffffffffffffffff168373ffffffffffffffffffffffffffffffffffffffff161415610dfd576040517f08c379a0000000000000000000000000000000000000000000000000000000008152600401610df49061244b565b60405180910390fd5b600073ffffffffffffffffffffffffffffffffffffffff168273ffffffffffffffffffffffffffffffffffffffff161415610e6d576040517f08c379a0000000000000000000000000000000000000000000000000000000008152600401610e64906122ab565b60405180910390fd5b80603460008573ffffffffffffffffffffffffffffffffffffffff1673ffffffffffffffffffffffffffffffffffffffff16815260200190815260200160002060008473ffffffffffffffffffffffffffffffffffffffff1673ffffffffffffffffffffffffffffffffffffffff168152602001908152602001600020819055508173ffffffffffffffffffffffffffffffffffffffff168373ffffffffffffffffffffffffffffffffffffffff167f8c5be1e5ebec7d5bd14f71427d1e84f3dd0314c0f7b2291e5b200ac8c7c3b92583604051610f4b91906124cb565b60405180910390a3505050565b6000610f648484610c7a565b90507fffffffffffffffffffffffffffffffffffffffffffffffffffffffffffffffff8114610fde5781811015610fd0576040517f08c379a0000000000000000000000000000000000000000000000000000000008152600401610fc7906122eb565b60405180910390fd5b610fdd8484848403610d8d565b5b50505050565b600073ffffffffffffffffffffffffffffffffffffffff168373ffffffffffffffffffffffffffffffffffffffff161415611054576040517f08c379a000000000000000000000000000000000000000000000000000000000815260040161104b9061242b565b60405180910390fd5b600073ffffffffffffffffffffffffffffffffffffffff168273ffffffffffffffffffffffffffffffffffffffff1614156110c4576040517f08c379a00000000000000000000000000000000000000000000000000000000081526004016110bb9061226b565b60405180910390fd5b6110cf838383611804565b6000603360008573ffffffffffffffffffffffffffffffffffffffff1673ffffffffffffffffffffffffffffffffffffffff16815260200190815260200160002054905081811015611156576040517f08c379a000000000000000000000000000000000000000000000000000000000815260040161114d9061230b565b60405180910390fd5b818103603360008673ffffffffffffffffffffffffffffffffffffffff1673ffffffffffffffffffffffffffffffffffffffff1681526020019081526020016000208190555081603360008573ffffffffffffffffffffffffffffffffffffffff1673ffffffffffffffffffffffffffffffffffffffff168152602001908152602001600020600082825401925050819055508273ffffffffffffffffffffffffffffffffffffffff168473ffffffffffffffffffffffffffffffffffffffff167fddf252ad1be2c89b69c2b068fc378daa952ba7f163c4a11628f55a4df523b3ef8460405161124691906124cb565b60405180910390a3611259848484611809565b50505050565b600061128d7f360894a13ba1a3210667c828492db98dca3e2076cc3735a920a3ca505d382bbc60001b61180e565b60000160009054906101000a900473ffffffffffffffffffffffffffffffffffffffff16905090565b6112be61143e565b50565b6112ed7f4910fdfa16fed3260ed0e7147f7cc6da11a60208b5b9406d12a635614ffd914360001b611818565b60000160009054906101000a900460ff16156113115761130c83611822565b611439565b8273ffffffffffffffffffffffffffffffffffffffff166352d1902d6040518163ffffffff1660e01b815260040160206040518083038186803b15801561135757600080fd5b505afa92505050801561138857506040513d601f19601f820116820180604052508101906113859190611e3c565b60015b6113c7576040517f08c379a00000000000000000000000000000000000000000000000000000000081526004016113be906123ab565b60405180910390fd5b7f360894a13ba1a3210667c828492db98dca3e2076cc3735a920a3ca505d382bbc60001b811461142c576040517f08c379a00000000000000000000000000000000000000000000000000000000081526004016114239061236b565b60405180910390fd5b506114388383836118db565b5b505050565b611446610d85565b73ffffffffffffffffffffffffffffffffffffffff16611464610b24565b73ffffffffffffffffffffffffffffffffffffffff16146114ba576040517f08c379a00000000000000000000000000000000000000000000000000000000081526004016114b1906123eb565b60405180910390fd5b565b600073ffffffffffffffffffffffffffffffffffffffff168273ffffffffffffffffffffffffffffffffffffffff16141561152c576040517f08c379a0000000000000000000000000000000000000000000000000000000008152600401611523906124ab565b60405180910390fd5b61153860008383611804565b806035600082825461154a9190612589565b9250508190555080603360008473ffffffffffffffffffffffffffffffffffffffff1673ffffffffffffffffffffffffffffffffffffffff168152602001908152602001600020600082825401925050819055508173ffffffffffffffffffffffffffffffffffffffff16600073ffffffffffffffffffffffffffffffffffffffff167fddf252ad1be2c89b69c2b068fc378daa952ba7f163c4a11628f55a4df523b3ef836040516115fc91906124cb565b60405180910390a361161060008383611809565b5050565b6000606560009054906101000a900473ffffffffffffffffffffffffffffffffffffffff16905081606560006101000a81548173ffffffffffffffffffffffffffffffffffffffff021916908373ffffffffffffffffffffffffffffffffffffffff1602179055508173ffffffffffffffffffffffffffffffffffffffff168173ffffffffffffffffffffffffffffffffffffffff167f8be0079c531659141344cd1fd0a4f28419497f9722a3daafe3b4186f6b6457e060405160405180910390a35050565b6000808273ffffffffffffffffffffffffffffffffffffffff163b119050919050565b600060019054906101000a900460ff1661174c576040517f08c379a00000000000000000000000000000000000000000000000000000000081526004016117439061246b565b60405180910390fd5b6117568282611907565b5050565b600060019054906101000a900460ff166117a9576040517f08c379a00000000000000000000000000000000000000000000000000000000081526004016117a09061246b565b60405180910390fd5b6117b1611988565b565b600060019054906101000a900460ff16611802576040517f08c379a00000000000000000000000000000000000000000000000000000000081526004016117f99061246b565b60405180910390fd5b565b505050565b505050565b6000819050919050565b6000819050919050565b61182b816116da565b61186a576040517f08c379a0000000000000000000000000000000000000000000000000000000008152600401611861906123cb565b60405180910390fd5b806118977f360894a13ba1a3210667c828492db98dca3e2076cc3735a920a3ca505d382bbc60001b61180e565b60000160006101000a81548173ffffffffffffffffffffffffffffffffffffffff021916908373ffffffffffffffffffffffffffffffffffffffff16021790555050565b6118e4836119e9565b6000825111806118f15750805b15611902576119008383611a38565b505b505050565b600060019054906101000a900460ff16611956576040517f08c379a000000000000000000000000000000000000000000000000000000000815260040161194d9061246b565b60405180910390fd5b816036908051906020019061196c929190611b8e565b508060379080519060200190611983929190611b8e565b505050565b600060019054906101000a900460ff166119d7576040517f08c379a00000000000000000000000000000000000000000000000000000000081526004016119ce9061246b565b60405180910390fd5b6119e76119e2610d85565b611614565b565b6119f281611822565b8073ffffffffffffffffffffffffffffffffffffffff167fbc7cd75a20ee27fd9adebab32041f755214dbc6bffa90cc0225b39da2e5c2d3b60405160405180910390a250565b6060611a43836116da565b611a82576040517f08c379a0000000000000000000000000000000000000000000000000000000008152600401611a799061240b565b60405180910390fd5b6000808473ffffffffffffffffffffffffffffffffffffffff1684604051611aaa91906121c6565b600060405180830381855af49150503d8060008114611ae5576040519150601f19603f3d011682016040523d82523d6000602084013e611aea565b606091505b5091509150611b128282604051806060016040528060278152602001612d5860279139611b1c565b9250505092915050565b60608315611b2c57829050611b37565b611b368383611b3e565b5b9392505050565b600082511115611b515781518083602001fd5b806040517f08c379a0000000000000000000000000000000000000000000000000000000008152600401611b859190612249565b60405180910390fd5b828054611b9a90612692565b90600052602060002090601f016020900481019282611bbc5760008555611c03565b82601f10611bd557805160ff1916838001178555611c03565b82800160010185558215611c03579182015b82811115611c02578251825591602001919060010190611be7565b5b509050611c109190611c14565b5090565b5b80821115611c2d576000816000905550600101611c15565b5090565b6000611c44611c3f84612526565b612501565b905082815260208101848484011115611c6057611c5f612787565b5b611c6b848285612650565b509392505050565b600081359050611c8281612d12565b92915050565b600081519050611c9781612d29565b92915050565b600082601f830112611cb257611cb1612782565b5b8135611cc2848260208601611c31565b91505092915050565b600081359050611cda81612d40565b92915050565b600060208284031215611cf657611cf5612791565b5b6000611d0484828501611c73565b91505092915050565b60008060408385031215611d2457611d23612791565b5b6000611d3285828601611c73565b9250506020611d4385828601611c73565b9150509250929050565b600080600060608486031215611d6657611d65612791565b5b6000611d7486828701611c73565b9350506020611d8586828701611c73565b9250506040611d9686828701611ccb565b9150509250925092565b60008060408385031215611db757611db6612791565b5b6000611dc585828601611c73565b925050602083013567ffffffffffffffff811115611de657611de561278c565b5b611df285828601611c9d565b9150509250929050565b60008060408385031215611e1357611e12612791565b5b6000611e2185828601611c73565b9250506020611e3285828601611ccb565b9150509250929050565b600060208284031215611e5257611e51612791565b5b6000611e6084828501611c88565b91505092915050565b611e72816125df565b82525050565b611e81816125f1565b82525050565b611e90816125fd565b82525050565b6000611ea182612557565b611eab818561256d565b9350611ebb81856020860161265f565b80840191505092915050565b611ed08161263e565b82525050565b6000611ee182612562565b611eeb8185612578565b9350611efb81856020860161265f565b611f0481612796565b840191505092915050565b6000611f1c602383612578565b9150611f27826127a7565b604082019050919050565b6000611f3f602683612578565b9150611f4a826127f6565b604082019050919050565b6000611f62602283612578565b9150611f6d82612845565b604082019050919050565b6000611f85602c83612578565b9150611f9082612894565b604082019050919050565b6000611fa8601d83612578565b9150611fb3826128e3565b602082019050919050565b6000611fcb602683612578565b9150611fd68261290c565b604082019050919050565b6000611fee602c83612578565b9150611ff98261295b565b604082019050919050565b6000612011603883612578565b915061201c826129aa565b604082019050919050565b6000612034602983612578565b915061203f826129f9565b604082019050919050565b6000612057602e83612578565b915061206282612a48565b604082019050919050565b600061207a602e83612578565b915061208582612a97565b604082019050919050565b600061209d602d83612578565b91506120a882612ae6565b604082019050919050565b60006120c0602083612578565b91506120cb82612b35565b602082019050919050565b60006120e3602683612578565b91506120ee82612b5e565b604082019050919050565b6000612106602583612578565b915061211182612bad565b604082019050919050565b6000612129602483612578565b915061213482612bfc565b604082019050919050565b600061214c602b83612578565b915061215782612c4b565b604082019050919050565b600061216f602583612578565b915061217a82612c9a565b604082019050919050565b6000612192601f83612578565b915061219d82612ce9565b602082019050919050565b6121b181612627565b82525050565b6121c081612631565b82525050565b60006121d28284611e96565b915081905092915050565b60006020820190506121f26000830184611e69565b92915050565b600060208201905061220d6000830184611e78565b92915050565b60006020820190506122286000830184611e87565b92915050565b60006020820190506122436000830184611ec7565b92915050565b600060208201905081810360008301526122638184611ed6565b905092915050565b6000602082019050818103600083015261228481611f0f565b9050919050565b600060208201905081810360008301526122a481611f32565b9050919050565b600060208201905081810360008301526122c481611f55565b9050919050565b600060208201905081810360008301526122e481611f78565b9050919050565b6000602082019050818103600083015261230481611f9b565b9050919050565b6000602082019050818103600083015261232481611fbe565b9050919050565b6000602082019050818103600083015261234481611fe1565b9050919050565b6000602082019050818103600083015261236481612004565b9050919050565b6000602082019050818103600083015261238481612027565b9050919050565b600060208201905081810360008301526123a48161204a565b9050919050565b600060208201905081810360008301526123c48161206d565b9050919050565b600060208201905081810360008301526123e481612090565b9050919050565b60006020820190508181036000830152612404816120b3565b9050919050565b60006020820190508181036000830152612424816120d6565b9050919050565b60006020820190508181036000830152612444816120f9565b9050919050565b600060208201905081810360008301526124648161211c565b9050919050565b600060208201905081810360008301526124848161213f565b9050919050565b600060208201905081810360008301526124a481612162565b9050919050565b600060208201905081810360008301526124c481612185565b9050919050565b60006020820190506124e060008301846121a8565b92915050565b60006020820190506124fb60008301846121b7565b92915050565b600061250b61251c565b905061251782826126c4565b919050565b6000604051905090565b600067ffffffffffffffff82111561254157612540612753565b5b61254a82612796565b9050602081019050919050565b600081519050919050565b600081519050919050565b600081905092915050565b600082825260208201905092915050565b600061259482612627565b915061259f83612627565b9250827fffffffffffffffffffffffffffffffffffffffffffffffffffffffffffffffff038211156125d4576125d36126f5565b5b828201905092915050565b60006125ea82612607565b9050919050565b60008115159050919050565b6000819050919050565b600073ffffffffffffffffffffffffffffffffffffffff82169050919050565b6000819050919050565b600060ff82169050919050565b600061264982612631565b9050919050565b82818337600083830152505050565b60005b8381101561267d578082015181840152602081019050612662565b8381111561268c576000848401525b50505050565b600060028204905060018216806126aa57607f821691505b602082108114156126be576126bd612724565b5b50919050565b6126cd82612796565b810181811067ffffffffffffffff821117156126ec576126eb612753565b5b80604052505050565b7f4e487b7100000000000000000000000000000000000000000000000000000000600052601160045260246000fd5b7f4e487b7100000000000000000000000000000000000000000000000000000000600052602260045260246000fd5b7f4e487b7100000000000000000000000000000000000000000000000000000000600052604160045260246000fd5b600080fd5b600080fd5b600080fd5b600080fd5b6000601f19601f8301169050919050565b7f45524332303a207472616e7366657220746f20746865207a65726f206164647260008201527f6573730000000000000000000000000000000000000000000000000000000000602082015250565b7f4f776e61626c653a206e6577206f776e657220697320746865207a65726f206160008201527f6464726573730000000000000000000000000000000000000000000000000000602082015250565b7f45524332303a20617070726f766520746f20746865207a65726f20616464726560008201527f7373000000000000000000000000000000000000000000000000000000000000602082015250565b7f46756e6374696f6e206d7573742062652063616c6c6564207468726f7567682060008201527f64656c656761746563616c6c0000000000000000000000000000000000000000602082015250565b7f45524332303a20696e73756666696369656e7420616c6c6f77616e6365000000600082015250565b7f45524332303a207472616e7366657220616d6f756e742065786365656473206260008201527f616c616e63650000000000000000000000000000000000000000000000000000602082015250565b7f46756e6374696f6e206d7573742062652063616c6c6564207468726f7567682060008201527f6163746976652070726f78790000000000000000000000000000000000000000602082015250565b7f555550535570677261646561626c653a206d757374206e6f742062652063616c60008201527f6c6564207468726f7567682064656c656761746563616c6c0000000000000000602082015250565b7f45524331393637557067726164653a20756e737570706f727465642070726f7860008201527f6961626c65555549440000000000000000000000000000000000000000000000602082015250565b7f496e697469616c697a61626c653a20636f6e747261637420697320616c72656160008201527f647920696e697469616c697a6564000000000000000000000000000000000000602082015250565b7f45524331393637557067726164653a206e657720696d706c656d656e7461746960008201527f6f6e206973206e6f742055555053000000000000000000000000000000000000602082015250565b7f455243313936373a206e657720696d706c656d656e746174696f6e206973206e60008201527f6f74206120636f6e747261637400000000000000000000000000000000000000602082015250565b7f4f776e61626c653a2063616c6c6572206973206e6f7420746865206f776e6572600082015250565b7f416464726573733a2064656c65676174652063616c6c20746f206e6f6e2d636f60008201527f6e74726163740000000000000000000000000000000000000000000000000000602082015250565b7f45524332303a207472616e736665722066726f6d20746865207a65726f20616460008201527f6472657373000000000000000000000000000000000000000000000000000000602082015250565b7f45524332303a20617070726f76652066726f6d20746865207a65726f2061646460008201527f7265737300000000000000000000000000000000000000000000000000000000602082015250565b7f496e697469616c697a61626c653a20636f6e7472616374206973206e6f74206960008201527f6e697469616c697a696e67000000000000000000000000000000000000000000602082015250565b7f45524332303a2064656372656173656420616c6c6f77616e63652062656c6f7760008201527f207a65726f000000000000000000000000000000000000000000000000000000602082015250565b7f45524332303a206d696e7420746f20746865207a65726f206164647265737300600082015250565b612d1b816125df565b8114612d2657600080fd5b50565b612d32816125fd565b8114612d3d57600080fd5b50565b612d4981612627565b8114612d5457600080fd5b5056fe416464726573733a206c6f772d6c6576656c2064656c65676174652063616c6c206661696c6564a2646970667358221220b1680280d073c3fa4cf267e2fd4d10dbc699172d308cf47cc82df6be8edc5c6b64736f6c63430008070033",
					"opcodes": "PUSH1 0xA0 PUSH1 0x40 MSTORE ADDRESS PUSH20 0xFFFFFFFFFFFFFFFFFFFFFFFFFFFFFFFFFFFFFFFF AND PUSH1 0x80 SWAP1 PUSH20 0xFFFFFFFFFFFFFFFFFFFFFFFFFFFFFFFFFFFFFFFF AND PUSH1 0x60 SHL DUP2 MSTORE POP CALLVALUE DUP1 ISZERO PUSH3 0x47 JUMPI PUSH1 0x0 DUP1 REVERT JUMPDEST POP PUSH3 0x58 PUSH3 0x5E PUSH1 0x20 SHL PUSH1 0x20 SHR JUMP JUMPDEST PUSH3 0x209 JUMP JUMPDEST PUSH1 0x0 PUSH1 0x1 SWAP1 SLOAD SWAP1 PUSH2 0x100 EXP SWAP1 DIV PUSH1 0xFF AND ISZERO PUSH3 0xB1 JUMPI PUSH1 0x40 MLOAD PUSH32 0x8C379A000000000000000000000000000000000000000000000000000000000 DUP2 MSTORE PUSH1 0x4 ADD PUSH3 0xA8 SWAP1 PUSH3 0x15D JUMP JUMPDEST PUSH1 0x40 MLOAD DUP1 SWAP2 SUB SWAP1 REVERT JUMPDEST PUSH1 0xFF DUP1 AND PUSH1 0x0 DUP1 SLOAD SWAP1 PUSH2 0x100 EXP SWAP1 DIV PUSH1 0xFF AND PUSH1 0xFF AND LT ISZERO PUSH3 0x123 JUMPI PUSH1 0xFF PUSH1 0x0 DUP1 PUSH2 0x100 EXP DUP2 SLOAD DUP2 PUSH1 0xFF MUL NOT AND SWAP1 DUP4 PUSH1 0xFF AND MUL OR SWAP1 SSTORE POP PUSH32 0x7F26B83FF96E1F2B6A682F133852F6798A09C465DA95921460CEFB3847402498 PUSH1 0xFF PUSH1 0x40 MLOAD PUSH3 0x11A SWAP2 SWAP1 PUSH3 0x17F JUMP JUMPDEST PUSH1 0x40 MLOAD DUP1 SWAP2 SUB SWAP1 LOG1 JUMPDEST JUMP JUMPDEST PUSH1 0x0 PUSH3 0x134 PUSH1 0x27 DUP4 PUSH3 0x19C JUMP JUMPDEST SWAP2 POP PUSH3 0x141 DUP3 PUSH3 0x1BA JUMP JUMPDEST PUSH1 0x40 DUP3 ADD SWAP1 POP SWAP2 SWAP1 POP JUMP JUMPDEST PUSH3 0x157 DUP2 PUSH3 0x1AD JUMP JUMPDEST DUP3 MSTORE POP POP JUMP JUMPDEST PUSH1 0x0 PUSH1 0x20 DUP3 ADD SWAP1 POP DUP2 DUP2 SUB PUSH1 0x0 DUP4 ADD MSTORE PUSH3 0x178 DUP2 PUSH3 0x125 JUMP JUMPDEST SWAP1 POP SWAP2 SWAP1 POP JUMP JUMPDEST PUSH1 0x0 PUSH1 0x20 DUP3 ADD SWAP1 POP PUSH3 0x196 PUSH1 0x0 DUP4 ADD DUP5 PUSH3 0x14C JUMP JUMPDEST SWAP3 SWAP2 POP POP JUMP JUMPDEST PUSH1 0x0 DUP3 DUP3 MSTORE PUSH1 0x20 DUP3 ADD SWAP1 POP SWAP3 SWAP2 POP POP JUMP JUMPDEST PUSH1 0x0 PUSH1 0xFF DUP3 AND SWAP1 POP SWAP2 SWAP1 POP JUMP JUMPDEST PUSH32 0x496E697469616C697A61626C653A20636F6E747261637420697320696E697469 PUSH1 0x0 DUP3 ADD MSTORE PUSH32 0x616C697A696E6700000000000000000000000000000000000000000000000000 PUSH1 0x20 DUP3 ADD MSTORE POP JUMP JUMPDEST PUSH1 0x80 MLOAD PUSH1 0x60 SHR PUSH2 0x2DB4 PUSH3 0x244 PUSH1 0x0 CODECOPY PUSH1 0x0 DUP2 DUP2 PUSH2 0x584 ADD MSTORE DUP2 DUP2 PUSH2 0x613 ADD MSTORE DUP2 DUP2 PUSH2 0x75A ADD MSTORE DUP2 DUP2 PUSH2 0x7E9 ADD MSTORE PUSH2 0x899 ADD MSTORE PUSH2 0x2DB4 PUSH1 0x0 RETURN INVALID PUSH1 0x80 PUSH1 0x40 MSTORE PUSH1 0x4 CALLDATASIZE LT PUSH2 0x114 JUMPI PUSH1 0x0 CALLDATALOAD PUSH1 0xE0 SHR DUP1 PUSH4 0x52D1902D GT PUSH2 0xA0 JUMPI DUP1 PUSH4 0x95D89B41 GT PUSH2 0x64 JUMPI DUP1 PUSH4 0x95D89B41 EQ PUSH2 0x380 JUMPI DUP1 PUSH4 0xA457C2D7 EQ PUSH2 0x3AB JUMPI DUP1 PUSH4 0xA9059CBB EQ PUSH2 0x3E8 JUMPI DUP1 PUSH4 0xDD62ED3E EQ PUSH2 0x425 JUMPI DUP1 PUSH4 0xF2FDE38B EQ PUSH2 0x462 JUMPI PUSH2 0x114 JUMP JUMPDEST DUP1 PUSH4 0x52D1902D EQ PUSH2 0x2BF JUMPI DUP1 PUSH4 0x70A08231 EQ PUSH2 0x2EA JUMPI DUP1 PUSH4 0x715018A6 EQ PUSH2 0x327 JUMPI DUP1 PUSH4 0x8129FC1C EQ PUSH2 0x33E JUMPI DUP1 PUSH4 0x8DA5CB5B EQ PUSH2 0x355 JUMPI PUSH2 0x114 JUMP JUMPDEST DUP1 PUSH4 0x313CE567 GT PUSH2 0xE7 JUMPI DUP1 PUSH4 0x313CE567 EQ PUSH2 0x1E9 JUMPI DUP1 PUSH4 0x3659CFE6 EQ PUSH2 0x214 JUMPI DUP1 PUSH4 0x39509351 EQ PUSH2 0x23D JUMPI DUP1 PUSH4 0x40C10F19 EQ PUSH2 0x27A JUMPI DUP1 PUSH4 0x4F1EF286 EQ PUSH2 0x2A3 JUMPI PUSH2 0x114 JUMP JUMPDEST DUP1 PUSH4 0x6FDDE03 EQ PUSH2 0x119 JUMPI DUP1 PUSH4 0x95EA7B3 EQ PUSH2 0x144 JUMPI DUP1 PUSH4 0x18160DDD EQ PUSH2 0x181 JUMPI DUP1 PUSH4 0x23B872DD EQ PUSH2 0x1AC JUMPI JUMPDEST PUSH1 0x0 DUP1 REVERT JUMPDEST CALLVALUE DUP1 ISZERO PUSH2 0x125 JUMPI PUSH1 0x0 DUP1 REVERT JUMPDEST POP PUSH2 0x12E PUSH2 0x48B JUMP JUMPDEST PUSH1 0x40 MLOAD PUSH2 0x13B SWAP2 SWAP1 PUSH2 0x2249 JUMP JUMPDEST PUSH1 0x40 MLOAD DUP1 SWAP2 SUB SWAP1 RETURN JUMPDEST CALLVALUE DUP1 ISZERO PUSH2 0x150 JUMPI PUSH1 0x0 DUP1 REVERT JUMPDEST POP PUSH2 0x16B PUSH1 0x4 DUP1 CALLDATASIZE SUB DUP2 ADD SWAP1 PUSH2 0x166 SWAP2 SWAP1 PUSH2 0x1DFC JUMP JUMPDEST PUSH2 0x51D JUMP JUMPDEST PUSH1 0x40 MLOAD PUSH2 0x178 SWAP2 SWAP1 PUSH2 0x21F8 JUMP JUMPDEST PUSH1 0x40 MLOAD DUP1 SWAP2 SUB SWAP1 RETURN JUMPDEST CALLVALUE DUP1 ISZERO PUSH2 0x18D JUMPI PUSH1 0x0 DUP1 REVERT JUMPDEST POP PUSH2 0x196 PUSH2 0x540 JUMP JUMPDEST PUSH1 0x40 MLOAD PUSH2 0x1A3 SWAP2 SWAP1 PUSH2 0x24CB JUMP JUMPDEST PUSH1 0x40 MLOAD DUP1 SWAP2 SUB SWAP1 RETURN JUMPDEST CALLVALUE DUP1 ISZERO PUSH2 0x1B8 JUMPI PUSH1 0x0 DUP1 REVERT JUMPDEST POP PUSH2 0x1D3 PUSH1 0x4 DUP1 CALLDATASIZE SUB DUP2 ADD SWAP1 PUSH2 0x1CE SWAP2 SWAP1 PUSH2 0x1D4D JUMP JUMPDEST PUSH2 0x54A JUMP JUMPDEST PUSH1 0x40 MLOAD PUSH2 0x1E0 SWAP2 SWAP1 PUSH2 0x21F8 JUMP JUMPDEST PUSH1 0x40 MLOAD DUP1 SWAP2 SUB SWAP1 RETURN JUMPDEST CALLVALUE DUP1 ISZERO PUSH2 0x1F5 JUMPI PUSH1 0x0 DUP1 REVERT JUMPDEST POP PUSH2 0x1FE PUSH2 0x579 JUMP JUMPDEST PUSH1 0x40 MLOAD PUSH2 0x20B SWAP2 SWAP1 PUSH2 0x24E6 JUMP JUMPDEST PUSH1 0x40 MLOAD DUP1 SWAP2 SUB SWAP1 RETURN JUMPDEST CALLVALUE DUP1 ISZERO PUSH2 0x220 JUMPI PUSH1 0x0 DUP1 REVERT JUMPDEST POP PUSH2 0x23B PUSH1 0x4 DUP1 CALLDATASIZE SUB DUP2 ADD SWAP1 PUSH2 0x236 SWAP2 SWAP1 PUSH2 0x1CE0 JUMP JUMPDEST PUSH2 0x582 JUMP JUMPDEST STOP JUMPDEST CALLVALUE DUP1 ISZERO PUSH2 0x249 JUMPI PUSH1 0x0 DUP1 REVERT JUMPDEST POP PUSH2 0x264 PUSH1 0x4 DUP1 CALLDATASIZE SUB DUP2 ADD SWAP1 PUSH2 0x25F SWAP2 SWAP1 PUSH2 0x1DFC JUMP JUMPDEST PUSH2 0x70B JUMP JUMPDEST PUSH1 0x40 MLOAD PUSH2 0x271 SWAP2 SWAP1 PUSH2 0x21F8 JUMP JUMPDEST PUSH1 0x40 MLOAD DUP1 SWAP2 SUB SWAP1 RETURN JUMPDEST CALLVALUE DUP1 ISZERO PUSH2 0x286 JUMPI PUSH1 0x0 DUP1 REVERT JUMPDEST POP PUSH2 0x2A1 PUSH1 0x4 DUP1 CALLDATASIZE SUB DUP2 ADD SWAP1 PUSH2 0x29C SWAP2 SWAP1 PUSH2 0x1DFC JUMP JUMPDEST PUSH2 0x742 JUMP JUMPDEST STOP JUMPDEST PUSH2 0x2BD PUSH1 0x4 DUP1 CALLDATASIZE SUB DUP2 ADD SWAP1 PUSH2 0x2B8 SWAP2 SWAP1 PUSH2 0x1DA0 JUMP JUMPDEST PUSH2 0x758 JUMP JUMPDEST STOP JUMPDEST CALLVALUE DUP1 ISZERO PUSH2 0x2CB JUMPI PUSH1 0x0 DUP1 REVERT JUMPDEST POP PUSH2 0x2D4 PUSH2 0x895 JUMP JUMPDEST PUSH1 0x40 MLOAD PUSH2 0x2E1 SWAP2 SWAP1 PUSH2 0x2213 JUMP JUMPDEST PUSH1 0x40 MLOAD DUP1 SWAP2 SUB SWAP1 RETURN JUMPDEST CALLVALUE DUP1 ISZERO PUSH2 0x2F6 JUMPI PUSH1 0x0 DUP1 REVERT JUMPDEST POP PUSH2 0x311 PUSH1 0x4 DUP1 CALLDATASIZE SUB DUP2 ADD SWAP1 PUSH2 0x30C SWAP2 SWAP1 PUSH2 0x1CE0 JUMP JUMPDEST PUSH2 0x94E JUMP JUMPDEST PUSH1 0x40 MLOAD PUSH2 0x31E SWAP2 SWAP1 PUSH2 0x24CB JUMP JUMPDEST PUSH1 0x40 MLOAD DUP1 SWAP2 SUB SWAP1 RETURN JUMPDEST CALLVALUE DUP1 ISZERO PUSH2 0x333 JUMPI PUSH1 0x0 DUP1 REVERT JUMPDEST POP PUSH2 0x33C PUSH2 0x997 JUMP JUMPDEST STOP JUMPDEST CALLVALUE DUP1 ISZERO PUSH2 0x34A JUMPI PUSH1 0x0 DUP1 REVERT JUMPDEST POP PUSH2 0x353 PUSH2 0x9AB JUMP JUMPDEST STOP JUMPDEST CALLVALUE DUP1 ISZERO PUSH2 0x361 JUMPI PUSH1 0x0 DUP1 REVERT JUMPDEST POP PUSH2 0x36A PUSH2 0xB24 JUMP JUMPDEST PUSH1 0x40 MLOAD PUSH2 0x377 SWAP2 SWAP1 PUSH2 0x21DD JUMP JUMPDEST PUSH1 0x40 MLOAD DUP1 SWAP2 SUB SWAP1 RETURN JUMPDEST CALLVALUE DUP1 ISZERO PUSH2 0x38C JUMPI PUSH1 0x0 DUP1 REVERT JUMPDEST POP PUSH2 0x395 PUSH2 0xB4E JUMP JUMPDEST PUSH1 0x40 MLOAD PUSH2 0x3A2 SWAP2 SWAP1 PUSH2 0x2249 JUMP JUMPDEST PUSH1 0x40 MLOAD DUP1 SWAP2 SUB SWAP1 RETURN JUMPDEST CALLVALUE DUP1 ISZERO PUSH2 0x3B7 JUMPI PUSH1 0x0 DUP1 REVERT JUMPDEST POP PUSH2 0x3D2 PUSH1 0x4 DUP1 CALLDATASIZE SUB DUP2 ADD SWAP1 PUSH2 0x3CD SWAP2 SWAP1 PUSH2 0x1DFC JUMP JUMPDEST PUSH2 0xBE0 JUMP JUMPDEST PUSH1 0x40 MLOAD PUSH2 0x3DF SWAP2 SWAP1 PUSH2 0x21F8 JUMP JUMPDEST PUSH1 0x40 MLOAD DUP1 SWAP2 SUB SWAP1 RETURN JUMPDEST CALLVALUE DUP1 ISZERO PUSH2 0x3F4 JUMPI PUSH1 0x0 DUP1 REVERT JUMPDEST POP PUSH2 0x40F PUSH1 0x4 DUP1 CALLDATASIZE SUB DUP2 ADD SWAP1 PUSH2 0x40A SWAP2 SWAP1 PUSH2 0x1DFC JUMP JUMPDEST PUSH2 0xC57 JUMP JUMPDEST PUSH1 0x40 MLOAD PUSH2 0x41C SWAP2 SWAP1 PUSH2 0x21F8 JUMP JUMPDEST PUSH1 0x40 MLOAD DUP1 SWAP2 SUB SWAP1 RETURN JUMPDEST CALLVALUE DUP1 ISZERO PUSH2 0x431 JUMPI PUSH1 0x0 DUP1 REVERT JUMPDEST POP PUSH2 0x44C PUSH1 0x4 DUP1 CALLDATASIZE SUB DUP2 ADD SWAP1 PUSH2 0x447 SWAP2 SWAP1 PUSH2 0x1D0D JUMP JUMPDEST PUSH2 0xC7A JUMP JUMPDEST PUSH1 0x40 MLOAD PUSH2 0x459 SWAP2 SWAP1 PUSH2 0x24CB JUMP JUMPDEST PUSH1 0x40 MLOAD DUP1 SWAP2 SUB SWAP1 RETURN JUMPDEST CALLVALUE DUP1 ISZERO PUSH2 0x46E JUMPI PUSH1 0x0 DUP1 REVERT JUMPDEST POP PUSH2 0x489 PUSH1 0x4 DUP1 CALLDATASIZE SUB DUP2 ADD SWAP1 PUSH2 0x484 SWAP2 SWAP1 PUSH2 0x1CE0 JUMP JUMPDEST PUSH2 0xD01 JUMP JUMPDEST STOP JUMPDEST PUSH1 0x60 PUSH1 0x36 DUP1 SLOAD PUSH2 0x49A SWAP1 PUSH2 0x2692 JUMP JUMPDEST DUP1 PUSH1 0x1F ADD PUSH1 0x20 DUP1 SWAP2 DIV MUL PUSH1 0x20 ADD PUSH1 0x40 MLOAD SWAP1 DUP2 ADD PUSH1 0x40 MSTORE DUP1 SWAP3 SWAP2 SWAP1 DUP2 DUP2 MSTORE PUSH1 0x20 ADD DUP3 DUP1 SLOAD PUSH2 0x4C6 SWAP1 PUSH2 0x2692 JUMP JUMPDEST DUP1 ISZERO PUSH2 0x513 JUMPI DUP1 PUSH1 0x1F LT PUSH2 0x4E8 JUMPI PUSH2 0x100 DUP1 DUP4 SLOAD DIV MUL DUP4 MSTORE SWAP2 PUSH1 0x20 ADD SWAP2 PUSH2 0x513 JUMP JUMPDEST DUP3 ADD SWAP2 SWAP1 PUSH1 0x0 MSTORE PUSH1 0x20 PUSH1 0x0 KECCAK256 SWAP1 JUMPDEST DUP2 SLOAD DUP2 MSTORE SWAP1 PUSH1 0x1 ADD SWAP1 PUSH1 0x20 ADD DUP1 DUP4 GT PUSH2 0x4F6 JUMPI DUP3 SWAP1 SUB PUSH1 0x1F AND DUP3 ADD SWAP2 JUMPDEST POP POP POP POP POP SWAP1 POP SWAP1 JUMP JUMPDEST PUSH1 0x0 DUP1 PUSH2 0x528 PUSH2 0xD85 JUMP JUMPDEST SWAP1 POP PUSH2 0x535 DUP2 DUP6 DUP6 PUSH2 0xD8D JUMP JUMPDEST PUSH1 0x1 SWAP2 POP POP SWAP3 SWAP2 POP POP JUMP JUMPDEST PUSH1 0x0 PUSH1 0x35 SLOAD SWAP1 POP SWAP1 JUMP JUMPDEST PUSH1 0x0 DUP1 PUSH2 0x555 PUSH2 0xD85 JUMP JUMPDEST SWAP1 POP PUSH2 0x562 DUP6 DUP3 DUP6 PUSH2 0xF58 JUMP JUMPDEST PUSH2 0x56D DUP6 DUP6 DUP6 PUSH2 0xFE4 JUMP JUMPDEST PUSH1 0x1 SWAP2 POP POP SWAP4 SWAP3 POP POP POP JUMP JUMPDEST PUSH1 0x0 PUSH1 0x12 SWAP1 POP SWAP1 JUMP JUMPDEST PUSH32 0x0 PUSH20 0xFFFFFFFFFFFFFFFFFFFFFFFFFFFFFFFFFFFFFFFF AND ADDRESS PUSH20 0xFFFFFFFFFFFFFFFFFFFFFFFFFFFFFFFFFFFFFFFF AND EQ ISZERO PUSH2 0x611 JUMPI PUSH1 0x40 MLOAD PUSH32 0x8C379A000000000000000000000000000000000000000000000000000000000 DUP2 MSTORE PUSH1 0x4 ADD PUSH2 0x608 SWAP1 PUSH2 0x22CB JUMP JUMPDEST PUSH1 0x40 MLOAD DUP1 SWAP2 SUB SWAP1 REVERT JUMPDEST PUSH32 0x0 PUSH20 0xFFFFFFFFFFFFFFFFFFFFFFFFFFFFFFFFFFFFFFFF AND PUSH2 0x650 PUSH2 0x125F JUMP JUMPDEST PUSH20 0xFFFFFFFFFFFFFFFFFFFFFFFFFFFFFFFFFFFFFFFF AND EQ PUSH2 0x6A6 JUMPI PUSH1 0x40 MLOAD PUSH32 0x8C379A000000000000000000000000000000000000000000000000000000000 DUP2 MSTORE PUSH1 0x4 ADD PUSH2 0x69D SWAP1 PUSH2 0x232B JUMP JUMPDEST PUSH1 0x40 MLOAD DUP1 SWAP2 SUB SWAP1 REVERT JUMPDEST PUSH2 0x6AF DUP2 PUSH2 0x12B6 JUMP JUMPDEST PUSH2 0x708 DUP2 PUSH1 0x0 PUSH8 0xFFFFFFFFFFFFFFFF DUP2 GT ISZERO PUSH2 0x6CE JUMPI PUSH2 0x6CD PUSH2 0x2753 JUMP JUMPDEST JUMPDEST PUSH1 0x40 MLOAD SWAP1 DUP1 DUP3 MSTORE DUP1 PUSH1 0x1F ADD PUSH1 0x1F NOT AND PUSH1 0x20 ADD DUP3 ADD PUSH1 0x40 MSTORE DUP1 ISZERO PUSH2 0x700 JUMPI DUP2 PUSH1 0x20 ADD PUSH1 0x1 DUP3 MUL DUP1 CALLDATASIZE DUP4 CALLDATACOPY DUP1 DUP3 ADD SWAP2 POP POP SWAP1 POP JUMPDEST POP PUSH1 0x0 PUSH2 0x12C1 JUMP JUMPDEST POP JUMP JUMPDEST PUSH1 0x0 DUP1 PUSH2 0x716 PUSH2 0xD85 JUMP JUMPDEST SWAP1 POP PUSH2 0x737 DUP2 DUP6 DUP6 PUSH2 0x728 DUP6 DUP10 PUSH2 0xC7A JUMP JUMPDEST PUSH2 0x732 SWAP2 SWAP1 PUSH2 0x2589 JUMP JUMPDEST PUSH2 0xD8D JUMP JUMPDEST PUSH1 0x1 SWAP2 POP POP SWAP3 SWAP2 POP POP JUMP JUMPDEST PUSH2 0x74A PUSH2 0x143E JUMP JUMPDEST PUSH2 0x754 DUP3 DUP3 PUSH2 0x14BC JUMP JUMPDEST POP POP JUMP JUMPDEST PUSH32 0x0 PUSH20 0xFFFFFFFFFFFFFFFFFFFFFFFFFFFFFFFFFFFFFFFF AND ADDRESS PUSH20 0xFFFFFFFFFFFFFFFFFFFFFFFFFFFFFFFFFFFFFFFF AND EQ ISZERO PUSH2 0x7E7 JUMPI PUSH1 0x40 MLOAD PUSH32 0x8C379A000000000000000000000000000000000000000000000000000000000 DUP2 MSTORE PUSH1 0x4 ADD PUSH2 0x7DE SWAP1 PUSH2 0x22CB JUMP JUMPDEST PUSH1 0x40 MLOAD DUP1 SWAP2 SUB SWAP1 REVERT JUMPDEST PUSH32 0x0 PUSH20 0xFFFFFFFFFFFFFFFFFFFFFFFFFFFFFFFFFFFFFFFF AND PUSH2 0x826 PUSH2 0x125F JUMP JUMPDEST PUSH20 0xFFFFFFFFFFFFFFFFFFFFFFFFFFFFFFFFFFFFFFFF AND EQ PUSH2 0x87C JUMPI PUSH1 0x40 MLOAD PUSH32 0x8C379A000000000000000000000000000000000000000000000000000000000 DUP2 MSTORE PUSH1 0x4 ADD PUSH2 0x873 SWAP1 PUSH2 0x232B JUMP JUMPDEST PUSH1 0x40 MLOAD DUP1 SWAP2 SUB SWAP1 REVERT JUMPDEST PUSH2 0x885 DUP3 PUSH2 0x12B6 JUMP JUMPDEST PUSH2 0x891 DUP3 DUP3 PUSH1 0x1 PUSH2 0x12C1 JUMP JUMPDEST POP POP JUMP JUMPDEST PUSH1 0x0 PUSH32 0x0 PUSH20 0xFFFFFFFFFFFFFFFFFFFFFFFFFFFFFFFFFFFFFFFF AND ADDRESS PUSH20 0xFFFFFFFFFFFFFFFFFFFFFFFFFFFFFFFFFFFFFFFF AND EQ PUSH2 0x925 JUMPI PUSH1 0x40 MLOAD PUSH32 0x8C379A000000000000000000000000000000000000000000000000000000000 DUP2 MSTORE PUSH1 0x4 ADD PUSH2 0x91C SWAP1 PUSH2 0x234B JUMP JUMPDEST PUSH1 0x40 MLOAD DUP1 SWAP2 SUB SWAP1 REVERT JUMPDEST PUSH32 0x360894A13BA1A3210667C828492DB98DCA3E2076CC3735A920A3CA505D382BBC PUSH1 0x0 SHL SWAP1 POP SWAP1 JUMP JUMPDEST PUSH1 0x0 PUSH1 0x33 PUSH1 0x0 DUP4 PUSH20 0xFFFFFFFFFFFFFFFFFFFFFFFFFFFFFFFFFFFFFFFF AND PUSH20 0xFFFFFFFFFFFFFFFFFFFFFFFFFFFFFFFFFFFFFFFF AND DUP2 MSTORE PUSH1 0x20 ADD SWAP1 DUP2 MSTORE PUSH1 0x20 ADD PUSH1 0x0 KECCAK256 SLOAD SWAP1 POP SWAP2 SWAP1 POP JUMP JUMPDEST PUSH2 0x99F PUSH2 0x143E JUMP JUMPDEST PUSH2 0x9A9 PUSH1 0x0 PUSH2 0x1614 JUMP JUMPDEST JUMP JUMPDEST PUSH1 0x0 DUP1 PUSH1 0x1 SWAP1 SLOAD SWAP1 PUSH2 0x100 EXP SWAP1 DIV PUSH1 0xFF AND ISZERO SWAP1 POP DUP1 DUP1 ISZERO PUSH2 0x9DC JUMPI POP PUSH1 0x1 PUSH1 0x0 DUP1 SLOAD SWAP1 PUSH2 0x100 EXP SWAP1 DIV PUSH1 0xFF AND PUSH1 0xFF AND LT JUMPDEST DUP1 PUSH2 0xA09 JUMPI POP PUSH2 0x9EB ADDRESS PUSH2 0x16DA JUMP JUMPDEST ISZERO DUP1 ISZERO PUSH2 0xA08 JUMPI POP PUSH1 0x1 PUSH1 0x0 DUP1 SLOAD SWAP1 PUSH2 0x100 EXP SWAP1 DIV PUSH1 0xFF AND PUSH1 0xFF AND EQ JUMPDEST JUMPDEST PUSH2 0xA48 JUMPI PUSH1 0x40 MLOAD PUSH32 0x8C379A000000000000000000000000000000000000000000000000000000000 DUP2 MSTORE PUSH1 0x4 ADD PUSH2 0xA3F SWAP1 PUSH2 0x238B JUMP JUMPDEST PUSH1 0x40 MLOAD DUP1 SWAP2 SUB SWAP1 REVERT JUMPDEST PUSH1 0x1 PUSH1 0x0 DUP1 PUSH2 0x100 EXP DUP2 SLOAD DUP2 PUSH1 0xFF MUL NOT AND SWAP1 DUP4 PUSH1 0xFF AND MUL OR SWAP1 SSTORE POP DUP1 ISZERO PUSH2 0xA85 JUMPI PUSH1 0x1 PUSH1 0x0 PUSH1 0x1 PUSH2 0x100 EXP DUP2 SLOAD DUP2 PUSH1 0xFF MUL NOT AND SWAP1 DUP4 ISZERO ISZERO MUL OR SWAP1 SSTORE POP JUMPDEST PUSH2 0xAAD PUSH1 0x40 MLOAD DUP1 PUSH1 0x20 ADD PUSH1 0x40 MSTORE DUP1 PUSH1 0x0 DUP2 MSTORE POP PUSH1 0x40 MLOAD DUP1 PUSH1 0x20 ADD PUSH1 0x40 MSTORE DUP1 PUSH1 0x0 DUP2 MSTORE POP PUSH2 0x16FD JUMP JUMPDEST PUSH2 0xAB5 PUSH2 0x175A JUMP JUMPDEST PUSH2 0xABD PUSH2 0x17B3 JUMP JUMPDEST PUSH2 0xAC8 CALLER PUSH1 0x64 PUSH2 0x14BC JUMP JUMPDEST DUP1 ISZERO PUSH2 0xB21 JUMPI PUSH1 0x0 DUP1 PUSH1 0x1 PUSH2 0x100 EXP DUP2 SLOAD DUP2 PUSH1 0xFF MUL NOT AND SWAP1 DUP4 ISZERO ISZERO MUL OR SWAP1 SSTORE POP PUSH32 0x7F26B83FF96E1F2B6A682F133852F6798A09C465DA95921460CEFB3847402498 PUSH1 0x1 PUSH1 0x40 MLOAD PUSH2 0xB18 SWAP2 SWAP1 PUSH2 0x222E JUMP JUMPDEST PUSH1 0x40 MLOAD DUP1 SWAP2 SUB SWAP1 LOG1 JUMPDEST POP JUMP JUMPDEST PUSH1 0x0 PUSH1 0x65 PUSH1 0x0 SWAP1 SLOAD SWAP1 PUSH2 0x100 EXP SWAP1 DIV PUSH20 0xFFFFFFFFFFFFFFFFFFFFFFFFFFFFFFFFFFFFFFFF AND SWAP1 POP SWAP1 JUMP JUMPDEST PUSH1 0x60 PUSH1 0x37 DUP1 SLOAD PUSH2 0xB5D SWAP1 PUSH2 0x2692 JUMP JUMPDEST DUP1 PUSH1 0x1F ADD PUSH1 0x20 DUP1 SWAP2 DIV MUL PUSH1 0x20 ADD PUSH1 0x40 MLOAD SWAP1 DUP2 ADD PUSH1 0x40 MSTORE DUP1 SWAP3 SWAP2 SWAP1 DUP2 DUP2 MSTORE PUSH1 0x20 ADD DUP3 DUP1 SLOAD PUSH2 0xB89 SWAP1 PUSH2 0x2692 JUMP JUMPDEST DUP1 ISZERO PUSH2 0xBD6 JUMPI DUP1 PUSH1 0x1F LT PUSH2 0xBAB JUMPI PUSH2 0x100 DUP1 DUP4 SLOAD DIV MUL DUP4 MSTORE SWAP2 PUSH1 0x20 ADD SWAP2 PUSH2 0xBD6 JUMP JUMPDEST DUP3 ADD SWAP2 SWAP1 PUSH1 0x0 MSTORE PUSH1 0x20 PUSH1 0x0 KECCAK256 SWAP1 JUMPDEST DUP2 SLOAD DUP2 MSTORE SWAP1 PUSH1 0x1 ADD SWAP1 PUSH1 0x20 ADD DUP1 DUP4 GT PUSH2 0xBB9 JUMPI DUP3 SWAP1 SUB PUSH1 0x1F AND DUP3 ADD SWAP2 JUMPDEST POP POP POP POP POP SWAP1 POP SWAP1 JUMP JUMPDEST PUSH1 0x0 DUP1 PUSH2 0xBEB PUSH2 0xD85 JUMP JUMPDEST SWAP1 POP PUSH1 0x0 PUSH2 0xBF9 DUP3 DUP7 PUSH2 0xC7A JUMP JUMPDEST SWAP1 POP DUP4 DUP2 LT ISZERO PUSH2 0xC3E JUMPI PUSH1 0x40 MLOAD PUSH32 0x8C379A000000000000000000000000000000000000000000000000000000000 DUP2 MSTORE PUSH1 0x4 ADD PUSH2 0xC35 SWAP1 PUSH2 0x248B JUMP JUMPDEST PUSH1 0x40 MLOAD DUP1 SWAP2 SUB SWAP1 REVERT JUMPDEST PUSH2 0xC4B DUP3 DUP7 DUP7 DUP5 SUB PUSH2 0xD8D JUMP JUMPDEST PUSH1 0x1 SWAP3 POP POP POP SWAP3 SWAP2 POP POP JUMP JUMPDEST PUSH1 0x0 DUP1 PUSH2 0xC62 PUSH2 0xD85 JUMP JUMPDEST SWAP1 POP PUSH2 0xC6F DUP2 DUP6 DUP6 PUSH2 0xFE4 JUMP JUMPDEST PUSH1 0x1 SWAP2 POP POP SWAP3 SWAP2 POP POP JUMP JUMPDEST PUSH1 0x0 PUSH1 0x34 PUSH1 0x0 DUP5 PUSH20 0xFFFFFFFFFFFFFFFFFFFFFFFFFFFFFFFFFFFFFFFF AND PUSH20 0xFFFFFFFFFFFFFFFFFFFFFFFFFFFFFFFFFFFFFFFF AND DUP2 MSTORE PUSH1 0x20 ADD SWAP1 DUP2 MSTORE PUSH1 0x20 ADD PUSH1 0x0 KECCAK256 PUSH1 0x0 DUP4 PUSH20 0xFFFFFFFFFFFFFFFFFFFFFFFFFFFFFFFFFFFFFFFF AND PUSH20 0xFFFFFFFFFFFFFFFFFFFFFFFFFFFFFFFFFFFFFFFF AND DUP2 MSTORE PUSH1 0x20 ADD SWAP1 DUP2 MSTORE PUSH1 0x20 ADD PUSH1 0x0 KECCAK256 SLOAD SWAP1 POP SWAP3 SWAP2 POP POP JUMP JUMPDEST PUSH2 0xD09 PUSH2 0x143E JUMP JUMPDEST PUSH1 0x0 PUSH20 0xFFFFFFFFFFFFFFFFFFFFFFFFFFFFFFFFFFFFFFFF AND DUP2 PUSH20 0xFFFFFFFFFFFFFFFFFFFFFFFFFFFFFFFFFFFFFFFF AND EQ ISZERO PUSH2 0xD79 JUMPI PUSH1 0x40 MLOAD PUSH32 0x8C379A000000000000000000000000000000000000000000000000000000000 DUP2 MSTORE PUSH1 0x4 ADD PUSH2 0xD70 SWAP1 PUSH2 0x228B JUMP JUMPDEST PUSH1 0x40 MLOAD DUP1 SWAP2 SUB SWAP1 REVERT JUMPDEST PUSH2 0xD82 DUP2 PUSH2 0x1614 JUMP JUMPDEST POP JUMP JUMPDEST PUSH1 0x0 CALLER SWAP1 POP SWAP1 JUMP JUMPDEST PUSH1 0x0 PUSH20 0xFFFFFFFFFFFFFFFFFFFFFFFFFFFFFFFFFFFFFFFF AND DUP4 PUSH20 0xFFFFFFFFFFFFFFFFFFFFFFFFFFFFFFFFFFFFFFFF AND EQ ISZERO PUSH2 0xDFD JUMPI PUSH1 0x40 MLOAD PUSH32 0x8C379A000000000000000000000000000000000000000000000000000000000 DUP2 MSTORE PUSH1 0x4 ADD PUSH2 0xDF4 SWAP1 PUSH2 0x244B JUMP JUMPDEST PUSH1 0x40 MLOAD DUP1 SWAP2 SUB SWAP1 REVERT JUMPDEST PUSH1 0x0 PUSH20 0xFFFFFFFFFFFFFFFFFFFFFFFFFFFFFFFFFFFFFFFF AND DUP3 PUSH20 0xFFFFFFFFFFFFFFFFFFFFFFFFFFFFFFFFFFFFFFFF AND EQ ISZERO PUSH2 0xE6D JUMPI PUSH1 0x40 MLOAD PUSH32 0x8C379A000000000000000000000000000000000000000000000000000000000 DUP2 MSTORE PUSH1 0x4 ADD PUSH2 0xE64 SWAP1 PUSH2 0x22AB JUMP JUMPDEST PUSH1 0x40 MLOAD DUP1 SWAP2 SUB SWAP1 REVERT JUMPDEST DUP1 PUSH1 0x34 PUSH1 0x0 DUP6 PUSH20 0xFFFFFFFFFFFFFFFFFFFFFFFFFFFFFFFFFFFFFFFF AND PUSH20 0xFFFFFFFFFFFFFFFFFFFFFFFFFFFFFFFFFFFFFFFF AND DUP2 MSTORE PUSH1 0x20 ADD SWAP1 DUP2 MSTORE PUSH1 0x20 ADD PUSH1 0x0 KECCAK256 PUSH1 0x0 DUP5 PUSH20 0xFFFFFFFFFFFFFFFFFFFFFFFFFFFFFFFFFFFFFFFF AND PUSH20 0xFFFFFFFFFFFFFFFFFFFFFFFFFFFFFFFFFFFFFFFF AND DUP2 MSTORE PUSH1 0x20 ADD SWAP1 DUP2 MSTORE PUSH1 0x20 ADD PUSH1 0x0 KECCAK256 DUP2 SWAP1 SSTORE POP DUP2 PUSH20 0xFFFFFFFFFFFFFFFFFFFFFFFFFFFFFFFFFFFFFFFF AND DUP4 PUSH20 0xFFFFFFFFFFFFFFFFFFFFFFFFFFFFFFFFFFFFFFFF AND PUSH32 0x8C5BE1E5EBEC7D5BD14F71427D1E84F3DD0314C0F7B2291E5B200AC8C7C3B925 DUP4 PUSH1 0x40 MLOAD PUSH2 0xF4B SWAP2 SWAP1 PUSH2 0x24CB JUMP JUMPDEST PUSH1 0x40 MLOAD DUP1 SWAP2 SUB SWAP1 LOG3 POP POP POP JUMP JUMPDEST PUSH1 0x0 PUSH2 0xF64 DUP5 DUP5 PUSH2 0xC7A JUMP JUMPDEST SWAP1 POP PUSH32 0xFFFFFFFFFFFFFFFFFFFFFFFFFFFFFFFFFFFFFFFFFFFFFFFFFFFFFFFFFFFFFFFF DUP2 EQ PUSH2 0xFDE JUMPI DUP2 DUP2 LT ISZERO PUSH2 0xFD0 JUMPI PUSH1 0x40 MLOAD PUSH32 0x8C379A000000000000000000000000000000000000000000000000000000000 DUP2 MSTORE PUSH1 0x4 ADD PUSH2 0xFC7 SWAP1 PUSH2 0x22EB JUMP JUMPDEST PUSH1 0x40 MLOAD DUP1 SWAP2 SUB SWAP1 REVERT JUMPDEST PUSH2 0xFDD DUP5 DUP5 DUP5 DUP5 SUB PUSH2 0xD8D JUMP JUMPDEST JUMPDEST POP POP POP POP JUMP JUMPDEST PUSH1 0x0 PUSH20 0xFFFFFFFFFFFFFFFFFFFFFFFFFFFFFFFFFFFFFFFF AND DUP4 PUSH20 0xFFFFFFFFFFFFFFFFFFFFFFFFFFFFFFFFFFFFFFFF AND EQ ISZERO PUSH2 0x1054 JUMPI PUSH1 0x40 MLOAD PUSH32 0x8C379A000000000000000000000000000000000000000000000000000000000 DUP2 MSTORE PUSH1 0x4 ADD PUSH2 0x104B SWAP1 PUSH2 0x242B JUMP JUMPDEST PUSH1 0x40 MLOAD DUP1 SWAP2 SUB SWAP1 REVERT JUMPDEST PUSH1 0x0 PUSH20 0xFFFFFFFFFFFFFFFFFFFFFFFFFFFFFFFFFFFFFFFF AND DUP3 PUSH20 0xFFFFFFFFFFFFFFFFFFFFFFFFFFFFFFFFFFFFFFFF AND EQ ISZERO PUSH2 0x10C4 JUMPI PUSH1 0x40 MLOAD PUSH32 0x8C379A000000000000000000000000000000000000000000000000000000000 DUP2 MSTORE PUSH1 0x4 ADD PUSH2 0x10BB SWAP1 PUSH2 0x226B JUMP JUMPDEST PUSH1 0x40 MLOAD DUP1 SWAP2 SUB SWAP1 REVERT JUMPDEST PUSH2 0x10CF DUP4 DUP4 DUP4 PUSH2 0x1804 JUMP JUMPDEST PUSH1 0x0 PUSH1 0x33 PUSH1 0x0 DUP6 PUSH20 0xFFFFFFFFFFFFFFFFFFFFFFFFFFFFFFFFFFFFFFFF AND PUSH20 0xFFFFFFFFFFFFFFFFFFFFFFFFFFFFFFFFFFFFFFFF AND DUP2 MSTORE PUSH1 0x20 ADD SWAP1 DUP2 MSTORE PUSH1 0x20 ADD PUSH1 0x0 KECCAK256 SLOAD SWAP1 POP DUP2 DUP2 LT ISZERO PUSH2 0x1156 JUMPI PUSH1 0x40 MLOAD PUSH32 0x8C379A000000000000000000000000000000000000000000000000000000000 DUP2 MSTORE PUSH1 0x4 ADD PUSH2 0x114D SWAP1 PUSH2 0x230B JUMP JUMPDEST PUSH1 0x40 MLOAD DUP1 SWAP2 SUB SWAP1 REVERT JUMPDEST DUP2 DUP2 SUB PUSH1 0x33 PUSH1 0x0 DUP7 PUSH20 0xFFFFFFFFFFFFFFFFFFFFFFFFFFFFFFFFFFFFFFFF AND PUSH20 0xFFFFFFFFFFFFFFFFFFFFFFFFFFFFFFFFFFFFFFFF AND DUP2 MSTORE PUSH1 0x20 ADD SWAP1 DUP2 MSTORE PUSH1 0x20 ADD PUSH1 0x0 KECCAK256 DUP2 SWAP1 SSTORE POP DUP2 PUSH1 0x33 PUSH1 0x0 DUP6 PUSH20 0xFFFFFFFFFFFFFFFFFFFFFFFFFFFFFFFFFFFFFFFF AND PUSH20 0xFFFFFFFFFFFFFFFFFFFFFFFFFFFFFFFFFFFFFFFF AND DUP2 MSTORE PUSH1 0x20 ADD SWAP1 DUP2 MSTORE PUSH1 0x20 ADD PUSH1 0x0 KECCAK256 PUSH1 0x0 DUP3 DUP3 SLOAD ADD SWAP3 POP POP DUP2 SWAP1 SSTORE POP DUP3 PUSH20 0xFFFFFFFFFFFFFFFFFFFFFFFFFFFFFFFFFFFFFFFF AND DUP5 PUSH20 0xFFFFFFFFFFFFFFFFFFFFFFFFFFFFFFFFFFFFFFFF AND PUSH32 0xDDF252AD1BE2C89B69C2B068FC378DAA952BA7F163C4A11628F55A4DF523B3EF DUP5 PUSH1 0x40 MLOAD PUSH2 0x1246 SWAP2 SWAP1 PUSH2 0x24CB JUMP JUMPDEST PUSH1 0x40 MLOAD DUP1 SWAP2 SUB SWAP1 LOG3 PUSH2 0x1259 DUP5 DUP5 DUP5 PUSH2 0x1809 JUMP JUMPDEST POP POP POP POP JUMP JUMPDEST PUSH1 0x0 PUSH2 0x128D PUSH32 0x360894A13BA1A3210667C828492DB98DCA3E2076CC3735A920A3CA505D382BBC PUSH1 0x0 SHL PUSH2 0x180E JUMP JUMPDEST PUSH1 0x0 ADD PUSH1 0x0 SWAP1 SLOAD SWAP1 PUSH2 0x100 EXP SWAP1 DIV PUSH20 0xFFFFFFFFFFFFFFFFFFFFFFFFFFFFFFFFFFFFFFFF AND SWAP1 POP SWAP1 JUMP JUMPDEST PUSH2 0x12BE PUSH2 0x143E JUMP JUMPDEST POP JUMP JUMPDEST PUSH2 0x12ED PUSH32 0x4910FDFA16FED3260ED0E7147F7CC6DA11A60208B5B9406D12A635614FFD9143 PUSH1 0x0 SHL PUSH2 0x1818 JUMP JUMPDEST PUSH1 0x0 ADD PUSH1 0x0 SWAP1 SLOAD SWAP1 PUSH2 0x100 EXP SWAP1 DIV PUSH1 0xFF AND ISZERO PUSH2 0x1311 JUMPI PUSH2 0x130C DUP4 PUSH2 0x1822 JUMP JUMPDEST PUSH2 0x1439 JUMP JUMPDEST DUP3 PUSH20 0xFFFFFFFFFFFFFFFFFFFFFFFFFFFFFFFFFFFFFFFF AND PUSH4 0x52D1902D PUSH1 0x40 MLOAD DUP2 PUSH4 0xFFFFFFFF AND PUSH1 0xE0 SHL DUP2 MSTORE PUSH1 0x4 ADD PUSH1 0x20 PUSH1 0x40 MLOAD DUP1 DUP4 SUB DUP2 DUP7 DUP1 EXTCODESIZE ISZERO DUP1 ISZERO PUSH2 0x1357 JUMPI PUSH1 0x0 DUP1 REVERT JUMPDEST POP GAS STATICCALL SWAP3 POP POP POP DUP1 ISZERO PUSH2 0x1388 JUMPI POP PUSH1 0x40 MLOAD RETURNDATASIZE PUSH1 0x1F NOT PUSH1 0x1F DUP3 ADD AND DUP3 ADD DUP1 PUSH1 0x40 MSTORE POP DUP2 ADD SWAP1 PUSH2 0x1385 SWAP2 SWAP1 PUSH2 0x1E3C JUMP JUMPDEST PUSH1 0x1 JUMPDEST PUSH2 0x13C7 JUMPI PUSH1 0x40 MLOAD PUSH32 0x8C379A000000000000000000000000000000000000000000000000000000000 DUP2 MSTORE PUSH1 0x4 ADD PUSH2 0x13BE SWAP1 PUSH2 0x23AB JUMP JUMPDEST PUSH1 0x40 MLOAD DUP1 SWAP2 SUB SWAP1 REVERT JUMPDEST PUSH32 0x360894A13BA1A3210667C828492DB98DCA3E2076CC3735A920A3CA505D382BBC PUSH1 0x0 SHL DUP2 EQ PUSH2 0x142C JUMPI PUSH1 0x40 MLOAD PUSH32 0x8C379A000000000000000000000000000000000000000000000000000000000 DUP2 MSTORE PUSH1 0x4 ADD PUSH2 0x1423 SWAP1 PUSH2 0x236B JUMP JUMPDEST PUSH1 0x40 MLOAD DUP1 SWAP2 SUB SWAP1 REVERT JUMPDEST POP PUSH2 0x1438 DUP4 DUP4 DUP4 PUSH2 0x18DB JUMP JUMPDEST JUMPDEST POP POP POP JUMP JUMPDEST PUSH2 0x1446 PUSH2 0xD85 JUMP JUMPDEST PUSH20 0xFFFFFFFFFFFFFFFFFFFFFFFFFFFFFFFFFFFFFFFF AND PUSH2 0x1464 PUSH2 0xB24 JUMP JUMPDEST PUSH20 0xFFFFFFFFFFFFFFFFFFFFFFFFFFFFFFFFFFFFFFFF AND EQ PUSH2 0x14BA JUMPI PUSH1 0x40 MLOAD PUSH32 0x8C379A000000000000000000000000000000000000000000000000000000000 DUP2 MSTORE PUSH1 0x4 ADD PUSH2 0x14B1 SWAP1 PUSH2 0x23EB JUMP JUMPDEST PUSH1 0x40 MLOAD DUP1 SWAP2 SUB SWAP1 REVERT JUMPDEST JUMP JUMPDEST PUSH1 0x0 PUSH20 0xFFFFFFFFFFFFFFFFFFFFFFFFFFFFFFFFFFFFFFFF AND DUP3 PUSH20 0xFFFFFFFFFFFFFFFFFFFFFFFFFFFFFFFFFFFFFFFF AND EQ ISZERO PUSH2 0x152C JUMPI PUSH1 0x40 MLOAD PUSH32 0x8C379A000000000000000000000000000000000000000000000000000000000 DUP2 MSTORE PUSH1 0x4 ADD PUSH2 0x1523 SWAP1 PUSH2 0x24AB JUMP JUMPDEST PUSH1 0x40 MLOAD DUP1 SWAP2 SUB SWAP1 REVERT JUMPDEST PUSH2 0x1538 PUSH1 0x0 DUP4 DUP4 PUSH2 0x1804 JUMP JUMPDEST DUP1 PUSH1 0x35 PUSH1 0x0 DUP3 DUP3 SLOAD PUSH2 0x154A SWAP2 SWAP1 PUSH2 0x2589 JUMP JUMPDEST SWAP3 POP POP DUP2 SWAP1 SSTORE POP DUP1 PUSH1 0x33 PUSH1 0x0 DUP5 PUSH20 0xFFFFFFFFFFFFFFFFFFFFFFFFFFFFFFFFFFFFFFFF AND PUSH20 0xFFFFFFFFFFFFFFFFFFFFFFFFFFFFFFFFFFFFFFFF AND DUP2 MSTORE PUSH1 0x20 ADD SWAP1 DUP2 MSTORE PUSH1 0x20 ADD PUSH1 0x0 KECCAK256 PUSH1 0x0 DUP3 DUP3 SLOAD ADD SWAP3 POP POP DUP2 SWAP1 SSTORE POP DUP2 PUSH20 0xFFFFFFFFFFFFFFFFFFFFFFFFFFFFFFFFFFFFFFFF AND PUSH1 0x0 PUSH20 0xFFFFFFFFFFFFFFFFFFFFFFFFFFFFFFFFFFFFFFFF AND PUSH32 0xDDF252AD1BE2C89B69C2B068FC378DAA952BA7F163C4A11628F55A4DF523B3EF DUP4 PUSH1 0x40 MLOAD PUSH2 0x15FC SWAP2 SWAP1 PUSH2 0x24CB JUMP JUMPDEST PUSH1 0x40 MLOAD DUP1 SWAP2 SUB SWAP1 LOG3 PUSH2 0x1610 PUSH1 0x0 DUP4 DUP4 PUSH2 0x1809 JUMP JUMPDEST POP POP JUMP JUMPDEST PUSH1 0x0 PUSH1 0x65 PUSH1 0x0 SWAP1 SLOAD SWAP1 PUSH2 0x100 EXP SWAP1 DIV PUSH20 0xFFFFFFFFFFFFFFFFFFFFFFFFFFFFFFFFFFFFFFFF AND SWAP1 POP DUP2 PUSH1 0x65 PUSH1 0x0 PUSH2 0x100 EXP DUP2 SLOAD DUP2 PUSH20 0xFFFFFFFFFFFFFFFFFFFFFFFFFFFFFFFFFFFFFFFF MUL NOT AND SWAP1 DUP4 PUSH20 0xFFFFFFFFFFFFFFFFFFFFFFFFFFFFFFFFFFFFFFFF AND MUL OR SWAP1 SSTORE POP DUP2 PUSH20 0xFFFFFFFFFFFFFFFFFFFFFFFFFFFFFFFFFFFFFFFF AND DUP2 PUSH20 0xFFFFFFFFFFFFFFFFFFFFFFFFFFFFFFFFFFFFFFFF AND PUSH32 0x8BE0079C531659141344CD1FD0A4F28419497F9722A3DAAFE3B4186F6B6457E0 PUSH1 0x40 MLOAD PUSH1 0x40 MLOAD DUP1 SWAP2 SUB SWAP1 LOG3 POP POP JUMP JUMPDEST PUSH1 0x0 DUP1 DUP3 PUSH20 0xFFFFFFFFFFFFFFFFFFFFFFFFFFFFFFFFFFFFFFFF AND EXTCODESIZE GT SWAP1 POP SWAP2 SWAP1 POP JUMP JUMPDEST PUSH1 0x0 PUSH1 0x1 SWAP1 SLOAD SWAP1 PUSH2 0x100 EXP SWAP1 DIV PUSH1 0xFF AND PUSH2 0x174C JUMPI PUSH1 0x40 MLOAD PUSH32 0x8C379A000000000000000000000000000000000000000000000000000000000 DUP2 MSTORE PUSH1 0x4 ADD PUSH2 0x1743 SWAP1 PUSH2 0x246B JUMP JUMPDEST PUSH1 0x40 MLOAD DUP1 SWAP2 SUB SWAP1 REVERT JUMPDEST PUSH2 0x1756 DUP3 DUP3 PUSH2 0x1907 JUMP JUMPDEST POP POP JUMP JUMPDEST PUSH1 0x0 PUSH1 0x1 SWAP1 SLOAD SWAP1 PUSH2 0x100 EXP SWAP1 DIV PUSH1 0xFF AND PUSH2 0x17A9 JUMPI PUSH1 0x40 MLOAD PUSH32 0x8C379A000000000000000000000000000000000000000000000000000000000 DUP2 MSTORE PUSH1 0x4 ADD PUSH2 0x17A0 SWAP1 PUSH2 0x246B JUMP JUMPDEST PUSH1 0x40 MLOAD DUP1 SWAP2 SUB SWAP1 REVERT JUMPDEST PUSH2 0x17B1 PUSH2 0x1988 JUMP JUMPDEST JUMP JUMPDEST PUSH1 0x0 PUSH1 0x1 SWAP1 SLOAD SWAP1 PUSH2 0x100 EXP SWAP1 DIV PUSH1 0xFF AND PUSH2 0x1802 JUMPI PUSH1 0x40 MLOAD PUSH32 0x8C379A000000000000000000000000000000000000000000000000000000000 DUP2 MSTORE PUSH1 0x4 ADD PUSH2 0x17F9 SWAP1 PUSH2 0x246B JUMP JUMPDEST PUSH1 0x40 MLOAD DUP1 SWAP2 SUB SWAP1 REVERT JUMPDEST JUMP JUMPDEST POP POP POP JUMP JUMPDEST POP POP POP JUMP JUMPDEST PUSH1 0x0 DUP2 SWAP1 POP SWAP2 SWAP1 POP JUMP JUMPDEST PUSH1 0x0 DUP2 SWAP1 POP SWAP2 SWAP1 POP JUMP JUMPDEST PUSH2 0x182B DUP2 PUSH2 0x16DA JUMP JUMPDEST PUSH2 0x186A JUMPI PUSH1 0x40 MLOAD PUSH32 0x8C379A000000000000000000000000000000000000000000000000000000000 DUP2 MSTORE PUSH1 0x4 ADD PUSH2 0x1861 SWAP1 PUSH2 0x23CB JUMP JUMPDEST PUSH1 0x40 MLOAD DUP1 SWAP2 SUB SWAP1 REVERT JUMPDEST DUP1 PUSH2 0x1897 PUSH32 0x360894A13BA1A3210667C828492DB98DCA3E2076CC3735A920A3CA505D382BBC PUSH1 0x0 SHL PUSH2 0x180E JUMP JUMPDEST PUSH1 0x0 ADD PUSH1 0x0 PUSH2 0x100 EXP DUP2 SLOAD DUP2 PUSH20 0xFFFFFFFFFFFFFFFFFFFFFFFFFFFFFFFFFFFFFFFF MUL NOT AND SWAP1 DUP4 PUSH20 0xFFFFFFFFFFFFFFFFFFFFFFFFFFFFFFFFFFFFFFFF AND MUL OR SWAP1 SSTORE POP POP JUMP JUMPDEST PUSH2 0x18E4 DUP4 PUSH2 0x19E9 JUMP JUMPDEST PUSH1 0x0 DUP3 MLOAD GT DUP1 PUSH2 0x18F1 JUMPI POP DUP1 JUMPDEST ISZERO PUSH2 0x1902 JUMPI PUSH2 0x1900 DUP4 DUP4 PUSH2 0x1A38 JUMP JUMPDEST POP JUMPDEST POP POP POP JUMP JUMPDEST PUSH1 0x0 PUSH1 0x1 SWAP1 SLOAD SWAP1 PUSH2 0x100 EXP SWAP1 DIV PUSH1 0xFF AND PUSH2 0x1956 JUMPI PUSH1 0x40 MLOAD PUSH32 0x8C379A000000000000000000000000000000000000000000000000000000000 DUP2 MSTORE PUSH1 0x4 ADD PUSH2 0x194D SWAP1 PUSH2 0x246B JUMP JUMPDEST PUSH1 0x40 MLOAD DUP1 SWAP2 SUB SWAP1 REVERT JUMPDEST DUP2 PUSH1 0x36 SWAP1 DUP1 MLOAD SWAP1 PUSH1 0x20 ADD SWAP1 PUSH2 0x196C SWAP3 SWAP2 SWAP1 PUSH2 0x1B8E JUMP JUMPDEST POP DUP1 PUSH1 0x37 SWAP1 DUP1 MLOAD SWAP1 PUSH1 0x20 ADD SWAP1 PUSH2 0x1983 SWAP3 SWAP2 SWAP1 PUSH2 0x1B8E JUMP JUMPDEST POP POP POP JUMP JUMPDEST PUSH1 0x0 PUSH1 0x1 SWAP1 SLOAD SWAP1 PUSH2 0x100 EXP SWAP1 DIV PUSH1 0xFF AND PUSH2 0x19D7 JUMPI PUSH1 0x40 MLOAD PUSH32 0x8C379A000000000000000000000000000000000000000000000000000000000 DUP2 MSTORE PUSH1 0x4 ADD PUSH2 0x19CE SWAP1 PUSH2 0x246B JUMP JUMPDEST PUSH1 0x40 MLOAD DUP1 SWAP2 SUB SWAP1 REVERT JUMPDEST PUSH2 0x19E7 PUSH2 0x19E2 PUSH2 0xD85 JUMP JUMPDEST PUSH2 0x1614 JUMP JUMPDEST JUMP JUMPDEST PUSH2 0x19F2 DUP2 PUSH2 0x1822 JUMP JUMPDEST DUP1 PUSH20 0xFFFFFFFFFFFFFFFFFFFFFFFFFFFFFFFFFFFFFFFF AND PUSH32 0xBC7CD75A20EE27FD9ADEBAB32041F755214DBC6BFFA90CC0225B39DA2E5C2D3B PUSH1 0x40 MLOAD PUSH1 0x40 MLOAD DUP1 SWAP2 SUB SWAP1 LOG2 POP JUMP JUMPDEST PUSH1 0x60 PUSH2 0x1A43 DUP4 PUSH2 0x16DA JUMP JUMPDEST PUSH2 0x1A82 JUMPI PUSH1 0x40 MLOAD PUSH32 0x8C379A000000000000000000000000000000000000000000000000000000000 DUP2 MSTORE PUSH1 0x4 ADD PUSH2 0x1A79 SWAP1 PUSH2 0x240B JUMP JUMPDEST PUSH1 0x40 MLOAD DUP1 SWAP2 SUB SWAP1 REVERT JUMPDEST PUSH1 0x0 DUP1 DUP5 PUSH20 0xFFFFFFFFFFFFFFFFFFFFFFFFFFFFFFFFFFFFFFFF AND DUP5 PUSH1 0x40 MLOAD PUSH2 0x1AAA SWAP2 SWAP1 PUSH2 0x21C6 JUMP JUMPDEST PUSH1 0x0 PUSH1 0x40 MLOAD DUP1 DUP4 SUB DUP2 DUP6 GAS DELEGATECALL SWAP2 POP POP RETURNDATASIZE DUP1 PUSH1 0x0 DUP2 EQ PUSH2 0x1AE5 JUMPI PUSH1 0x40 MLOAD SWAP2 POP PUSH1 0x1F NOT PUSH1 0x3F RETURNDATASIZE ADD AND DUP3 ADD PUSH1 0x40 MSTORE RETURNDATASIZE DUP3 MSTORE RETURNDATASIZE PUSH1 0x0 PUSH1 0x20 DUP5 ADD RETURNDATACOPY PUSH2 0x1AEA JUMP JUMPDEST PUSH1 0x60 SWAP2 POP JUMPDEST POP SWAP2 POP SWAP2 POP PUSH2 0x1B12 DUP3 DUP3 PUSH1 0x40 MLOAD DUP1 PUSH1 0x60 ADD PUSH1 0x40 MSTORE DUP1 PUSH1 0x27 DUP2 MSTORE PUSH1 0x20 ADD PUSH2 0x2D58 PUSH1 0x27 SWAP2 CODECOPY PUSH2 0x1B1C JUMP JUMPDEST SWAP3 POP POP POP SWAP3 SWAP2 POP POP JUMP JUMPDEST PUSH1 0x60 DUP4 ISZERO PUSH2 0x1B2C JUMPI DUP3 SWAP1 POP PUSH2 0x1B37 JUMP JUMPDEST PUSH2 0x1B36 DUP4 DUP4 PUSH2 0x1B3E JUMP JUMPDEST JUMPDEST SWAP4 SWAP3 POP POP POP JUMP JUMPDEST PUSH1 0x0 DUP3 MLOAD GT ISZERO PUSH2 0x1B51 JUMPI DUP2 MLOAD DUP1 DUP4 PUSH1 0x20 ADD REVERT JUMPDEST DUP1 PUSH1 0x40 MLOAD PUSH32 0x8C379A000000000000000000000000000000000000000000000000000000000 DUP2 MSTORE PUSH1 0x4 ADD PUSH2 0x1B85 SWAP2 SWAP1 PUSH2 0x2249 JUMP JUMPDEST PUSH1 0x40 MLOAD DUP1 SWAP2 SUB SWAP1 REVERT JUMPDEST DUP3 DUP1 SLOAD PUSH2 0x1B9A SWAP1 PUSH2 0x2692 JUMP JUMPDEST SWAP1 PUSH1 0x0 MSTORE PUSH1 0x20 PUSH1 0x0 KECCAK256 SWAP1 PUSH1 0x1F ADD PUSH1 0x20 SWAP1 DIV DUP2 ADD SWAP3 DUP3 PUSH2 0x1BBC JUMPI PUSH1 0x0 DUP6 SSTORE PUSH2 0x1C03 JUMP JUMPDEST DUP3 PUSH1 0x1F LT PUSH2 0x1BD5 JUMPI DUP1 MLOAD PUSH1 0xFF NOT AND DUP4 DUP1 ADD OR DUP6 SSTORE PUSH2 0x1C03 JUMP JUMPDEST DUP3 DUP1 ADD PUSH1 0x1 ADD DUP6 SSTORE DUP3 ISZERO PUSH2 0x1C03 JUMPI SWAP2 DUP3 ADD JUMPDEST DUP3 DUP2 GT ISZERO PUSH2 0x1C02 JUMPI DUP3 MLOAD DUP3 SSTORE SWAP2 PUSH1 0x20 ADD SWAP2 SWAP1 PUSH1 0x1 ADD SWAP1 PUSH2 0x1BE7 JUMP JUMPDEST JUMPDEST POP SWAP1 POP PUSH2 0x1C10 SWAP2 SWAP1 PUSH2 0x1C14 JUMP JUMPDEST POP SWAP1 JUMP JUMPDEST JUMPDEST DUP1 DUP3 GT ISZERO PUSH2 0x1C2D JUMPI PUSH1 0x0 DUP2 PUSH1 0x0 SWAP1 SSTORE POP PUSH1 0x1 ADD PUSH2 0x1C15 JUMP JUMPDEST POP SWAP1 JUMP JUMPDEST PUSH1 0x0 PUSH2 0x1C44 PUSH2 0x1C3F DUP5 PUSH2 0x2526 JUMP JUMPDEST PUSH2 0x2501 JUMP JUMPDEST SWAP1 POP DUP3 DUP2 MSTORE PUSH1 0x20 DUP2 ADD DUP5 DUP5 DUP5 ADD GT ISZERO PUSH2 0x1C60 JUMPI PUSH2 0x1C5F PUSH2 0x2787 JUMP JUMPDEST JUMPDEST PUSH2 0x1C6B DUP5 DUP3 DUP6 PUSH2 0x2650 JUMP JUMPDEST POP SWAP4 SWAP3 POP POP POP JUMP JUMPDEST PUSH1 0x0 DUP2 CALLDATALOAD SWAP1 POP PUSH2 0x1C82 DUP2 PUSH2 0x2D12 JUMP JUMPDEST SWAP3 SWAP2 POP POP JUMP JUMPDEST PUSH1 0x0 DUP2 MLOAD SWAP1 POP PUSH2 0x1C97 DUP2 PUSH2 0x2D29 JUMP JUMPDEST SWAP3 SWAP2 POP POP JUMP JUMPDEST PUSH1 0x0 DUP3 PUSH1 0x1F DUP4 ADD SLT PUSH2 0x1CB2 JUMPI PUSH2 0x1CB1 PUSH2 0x2782 JUMP JUMPDEST JUMPDEST DUP2 CALLDATALOAD PUSH2 0x1CC2 DUP5 DUP3 PUSH1 0x20 DUP7 ADD PUSH2 0x1C31 JUMP JUMPDEST SWAP2 POP POP SWAP3 SWAP2 POP POP JUMP JUMPDEST PUSH1 0x0 DUP2 CALLDATALOAD SWAP1 POP PUSH2 0x1CDA DUP2 PUSH2 0x2D40 JUMP JUMPDEST SWAP3 SWAP2 POP POP JUMP JUMPDEST PUSH1 0x0 PUSH1 0x20 DUP3 DUP5 SUB SLT ISZERO PUSH2 0x1CF6 JUMPI PUSH2 0x1CF5 PUSH2 0x2791 JUMP JUMPDEST JUMPDEST PUSH1 0x0 PUSH2 0x1D04 DUP5 DUP3 DUP6 ADD PUSH2 0x1C73 JUMP JUMPDEST SWAP2 POP POP SWAP3 SWAP2 POP POP JUMP JUMPDEST PUSH1 0x0 DUP1 PUSH1 0x40 DUP4 DUP6 SUB SLT ISZERO PUSH2 0x1D24 JUMPI PUSH2 0x1D23 PUSH2 0x2791 JUMP JUMPDEST JUMPDEST PUSH1 0x0 PUSH2 0x1D32 DUP6 DUP3 DUP7 ADD PUSH2 0x1C73 JUMP JUMPDEST SWAP3 POP POP PUSH1 0x20 PUSH2 0x1D43 DUP6 DUP3 DUP7 ADD PUSH2 0x1C73 JUMP JUMPDEST SWAP2 POP POP SWAP3 POP SWAP3 SWAP1 POP JUMP JUMPDEST PUSH1 0x0 DUP1 PUSH1 0x0 PUSH1 0x60 DUP5 DUP7 SUB SLT ISZERO PUSH2 0x1D66 JUMPI PUSH2 0x1D65 PUSH2 0x2791 JUMP JUMPDEST JUMPDEST PUSH1 0x0 PUSH2 0x1D74 DUP7 DUP3 DUP8 ADD PUSH2 0x1C73 JUMP JUMPDEST SWAP4 POP POP PUSH1 0x20 PUSH2 0x1D85 DUP7 DUP3 DUP8 ADD PUSH2 0x1C73 JUMP JUMPDEST SWAP3 POP POP PUSH1 0x40 PUSH2 0x1D96 DUP7 DUP3 DUP8 ADD PUSH2 0x1CCB JUMP JUMPDEST SWAP2 POP POP SWAP3 POP SWAP3 POP SWAP3 JUMP JUMPDEST PUSH1 0x0 DUP1 PUSH1 0x40 DUP4 DUP6 SUB SLT ISZERO PUSH2 0x1DB7 JUMPI PUSH2 0x1DB6 PUSH2 0x2791 JUMP JUMPDEST JUMPDEST PUSH1 0x0 PUSH2 0x1DC5 DUP6 DUP3 DUP7 ADD PUSH2 0x1C73 JUMP JUMPDEST SWAP3 POP POP PUSH1 0x20 DUP4 ADD CALLDATALOAD PUSH8 0xFFFFFFFFFFFFFFFF DUP2 GT ISZERO PUSH2 0x1DE6 JUMPI PUSH2 0x1DE5 PUSH2 0x278C JUMP JUMPDEST JUMPDEST PUSH2 0x1DF2 DUP6 DUP3 DUP7 ADD PUSH2 0x1C9D JUMP JUMPDEST SWAP2 POP POP SWAP3 POP SWAP3 SWAP1 POP JUMP JUMPDEST PUSH1 0x0 DUP1 PUSH1 0x40 DUP4 DUP6 SUB SLT ISZERO PUSH2 0x1E13 JUMPI PUSH2 0x1E12 PUSH2 0x2791 JUMP JUMPDEST JUMPDEST PUSH1 0x0 PUSH2 0x1E21 DUP6 DUP3 DUP7 ADD PUSH2 0x1C73 JUMP JUMPDEST SWAP3 POP POP PUSH1 0x20 PUSH2 0x1E32 DUP6 DUP3 DUP7 ADD PUSH2 0x1CCB JUMP JUMPDEST SWAP2 POP POP SWAP3 POP SWAP3 SWAP1 POP JUMP JUMPDEST PUSH1 0x0 PUSH1 0x20 DUP3 DUP5 SUB SLT ISZERO PUSH2 0x1E52 JUMPI PUSH2 0x1E51 PUSH2 0x2791 JUMP JUMPDEST JUMPDEST PUSH1 0x0 PUSH2 0x1E60 DUP5 DUP3 DUP6 ADD PUSH2 0x1C88 JUMP JUMPDEST SWAP2 POP POP SWAP3 SWAP2 POP POP JUMP JUMPDEST PUSH2 0x1E72 DUP2 PUSH2 0x25DF JUMP JUMPDEST DUP3 MSTORE POP POP JUMP JUMPDEST PUSH2 0x1E81 DUP2 PUSH2 0x25F1 JUMP JUMPDEST DUP3 MSTORE POP POP JUMP JUMPDEST PUSH2 0x1E90 DUP2 PUSH2 0x25FD JUMP JUMPDEST DUP3 MSTORE POP POP JUMP JUMPDEST PUSH1 0x0 PUSH2 0x1EA1 DUP3 PUSH2 0x2557 JUMP JUMPDEST PUSH2 0x1EAB DUP2 DUP6 PUSH2 0x256D JUMP JUMPDEST SWAP4 POP PUSH2 0x1EBB DUP2 DUP6 PUSH1 0x20 DUP7 ADD PUSH2 0x265F JUMP JUMPDEST DUP1 DUP5 ADD SWAP2 POP POP SWAP3 SWAP2 POP POP JUMP JUMPDEST PUSH2 0x1ED0 DUP2 PUSH2 0x263E JUMP JUMPDEST DUP3 MSTORE POP POP JUMP JUMPDEST PUSH1 0x0 PUSH2 0x1EE1 DUP3 PUSH2 0x2562 JUMP JUMPDEST PUSH2 0x1EEB DUP2 DUP6 PUSH2 0x2578 JUMP JUMPDEST SWAP4 POP PUSH2 0x1EFB DUP2 DUP6 PUSH1 0x20 DUP7 ADD PUSH2 0x265F JUMP JUMPDEST PUSH2 0x1F04 DUP2 PUSH2 0x2796 JUMP JUMPDEST DUP5 ADD SWAP2 POP POP SWAP3 SWAP2 POP POP JUMP JUMPDEST PUSH1 0x0 PUSH2 0x1F1C PUSH1 0x23 DUP4 PUSH2 0x2578 JUMP JUMPDEST SWAP2 POP PUSH2 0x1F27 DUP3 PUSH2 0x27A7 JUMP JUMPDEST PUSH1 0x40 DUP3 ADD SWAP1 POP SWAP2 SWAP1 POP JUMP JUMPDEST PUSH1 0x0 PUSH2 0x1F3F PUSH1 0x26 DUP4 PUSH2 0x2578 JUMP JUMPDEST SWAP2 POP PUSH2 0x1F4A DUP3 PUSH2 0x27F6 JUMP JUMPDEST PUSH1 0x40 DUP3 ADD SWAP1 POP SWAP2 SWAP1 POP JUMP JUMPDEST PUSH1 0x0 PUSH2 0x1F62 PUSH1 0x22 DUP4 PUSH2 0x2578 JUMP JUMPDEST SWAP2 POP PUSH2 0x1F6D DUP3 PUSH2 0x2845 JUMP JUMPDEST PUSH1 0x40 DUP3 ADD SWAP1 POP SWAP2 SWAP1 POP JUMP JUMPDEST PUSH1 0x0 PUSH2 0x1F85 PUSH1 0x2C DUP4 PUSH2 0x2578 JUMP JUMPDEST SWAP2 POP PUSH2 0x1F90 DUP3 PUSH2 0x2894 JUMP JUMPDEST PUSH1 0x40 DUP3 ADD SWAP1 POP SWAP2 SWAP1 POP JUMP JUMPDEST PUSH1 0x0 PUSH2 0x1FA8 PUSH1 0x1D DUP4 PUSH2 0x2578 JUMP JUMPDEST SWAP2 POP PUSH2 0x1FB3 DUP3 PUSH2 0x28E3 JUMP JUMPDEST PUSH1 0x20 DUP3 ADD SWAP1 POP SWAP2 SWAP1 POP JUMP JUMPDEST PUSH1 0x0 PUSH2 0x1FCB PUSH1 0x26 DUP4 PUSH2 0x2578 JUMP JUMPDEST SWAP2 POP PUSH2 0x1FD6 DUP3 PUSH2 0x290C JUMP JUMPDEST PUSH1 0x40 DUP3 ADD SWAP1 POP SWAP2 SWAP1 POP JUMP JUMPDEST PUSH1 0x0 PUSH2 0x1FEE PUSH1 0x2C DUP4 PUSH2 0x2578 JUMP JUMPDEST SWAP2 POP PUSH2 0x1FF9 DUP3 PUSH2 0x295B JUMP JUMPDEST PUSH1 0x40 DUP3 ADD SWAP1 POP SWAP2 SWAP1 POP JUMP JUMPDEST PUSH1 0x0 PUSH2 0x2011 PUSH1 0x38 DUP4 PUSH2 0x2578 JUMP JUMPDEST SWAP2 POP PUSH2 0x201C DUP3 PUSH2 0x29AA JUMP JUMPDEST PUSH1 0x40 DUP3 ADD SWAP1 POP SWAP2 SWAP1 POP JUMP JUMPDEST PUSH1 0x0 PUSH2 0x2034 PUSH1 0x29 DUP4 PUSH2 0x2578 JUMP JUMPDEST SWAP2 POP PUSH2 0x203F DUP3 PUSH2 0x29F9 JUMP JUMPDEST PUSH1 0x40 DUP3 ADD SWAP1 POP SWAP2 SWAP1 POP JUMP JUMPDEST PUSH1 0x0 PUSH2 0x2057 PUSH1 0x2E DUP4 PUSH2 0x2578 JUMP JUMPDEST SWAP2 POP PUSH2 0x2062 DUP3 PUSH2 0x2A48 JUMP JUMPDEST PUSH1 0x40 DUP3 ADD SWAP1 POP SWAP2 SWAP1 POP JUMP JUMPDEST PUSH1 0x0 PUSH2 0x207A PUSH1 0x2E DUP4 PUSH2 0x2578 JUMP JUMPDEST SWAP2 POP PUSH2 0x2085 DUP3 PUSH2 0x2A97 JUMP JUMPDEST PUSH1 0x40 DUP3 ADD SWAP1 POP SWAP2 SWAP1 POP JUMP JUMPDEST PUSH1 0x0 PUSH2 0x209D PUSH1 0x2D DUP4 PUSH2 0x2578 JUMP JUMPDEST SWAP2 POP PUSH2 0x20A8 DUP3 PUSH2 0x2AE6 JUMP JUMPDEST PUSH1 0x40 DUP3 ADD SWAP1 POP SWAP2 SWAP1 POP JUMP JUMPDEST PUSH1 0x0 PUSH2 0x20C0 PUSH1 0x20 DUP4 PUSH2 0x2578 JUMP JUMPDEST SWAP2 POP PUSH2 0x20CB DUP3 PUSH2 0x2B35 JUMP JUMPDEST PUSH1 0x20 DUP3 ADD SWAP1 POP SWAP2 SWAP1 POP JUMP JUMPDEST PUSH1 0x0 PUSH2 0x20E3 PUSH1 0x26 DUP4 PUSH2 0x2578 JUMP JUMPDEST SWAP2 POP PUSH2 0x20EE DUP3 PUSH2 0x2B5E JUMP JUMPDEST PUSH1 0x40 DUP3 ADD SWAP1 POP SWAP2 SWAP1 POP JUMP JUMPDEST PUSH1 0x0 PUSH2 0x2106 PUSH1 0x25 DUP4 PUSH2 0x2578 JUMP JUMPDEST SWAP2 POP PUSH2 0x2111 DUP3 PUSH2 0x2BAD JUMP JUMPDEST PUSH1 0x40 DUP3 ADD SWAP1 POP SWAP2 SWAP1 POP JUMP JUMPDEST PUSH1 0x0 PUSH2 0x2129 PUSH1 0x24 DUP4 PUSH2 0x2578 JUMP JUMPDEST SWAP2 POP PUSH2 0x2134 DUP3 PUSH2 0x2BFC JUMP JUMPDEST PUSH1 0x40 DUP3 ADD SWAP1 POP SWAP2 SWAP1 POP JUMP JUMPDEST PUSH1 0x0 PUSH2 0x214C PUSH1 0x2B DUP4 PUSH2 0x2578 JUMP JUMPDEST SWAP2 POP PUSH2 0x2157 DUP3 PUSH2 0x2C4B JUMP JUMPDEST PUSH1 0x40 DUP3 ADD SWAP1 POP SWAP2 SWAP1 POP JUMP JUMPDEST PUSH1 0x0 PUSH2 0x216F PUSH1 0x25 DUP4 PUSH2 0x2578 JUMP JUMPDEST SWAP2 POP PUSH2 0x217A DUP3 PUSH2 0x2C9A JUMP JUMPDEST PUSH1 0x40 DUP3 ADD SWAP1 POP SWAP2 SWAP1 POP JUMP JUMPDEST PUSH1 0x0 PUSH2 0x2192 PUSH1 0x1F DUP4 PUSH2 0x2578 JUMP JUMPDEST SWAP2 POP PUSH2 0x219D DUP3 PUSH2 0x2CE9 JUMP JUMPDEST PUSH1 0x20 DUP3 ADD SWAP1 POP SWAP2 SWAP1 POP JUMP JUMPDEST PUSH2 0x21B1 DUP2 PUSH2 0x2627 JUMP JUMPDEST DUP3 MSTORE POP POP JUMP JUMPDEST PUSH2 0x21C0 DUP2 PUSH2 0x2631 JUMP JUMPDEST DUP3 MSTORE POP POP JUMP JUMPDEST PUSH1 0x0 PUSH2 0x21D2 DUP3 DUP5 PUSH2 0x1E96 JUMP JUMPDEST SWAP2 POP DUP2 SWAP1 POP SWAP3 SWAP2 POP POP JUMP JUMPDEST PUSH1 0x0 PUSH1 0x20 DUP3 ADD SWAP1 POP PUSH2 0x21F2 PUSH1 0x0 DUP4 ADD DUP5 PUSH2 0x1E69 JUMP JUMPDEST SWAP3 SWAP2 POP POP JUMP JUMPDEST PUSH1 0x0 PUSH1 0x20 DUP3 ADD SWAP1 POP PUSH2 0x220D PUSH1 0x0 DUP4 ADD DUP5 PUSH2 0x1E78 JUMP JUMPDEST SWAP3 SWAP2 POP POP JUMP JUMPDEST PUSH1 0x0 PUSH1 0x20 DUP3 ADD SWAP1 POP PUSH2 0x2228 PUSH1 0x0 DUP4 ADD DUP5 PUSH2 0x1E87 JUMP JUMPDEST SWAP3 SWAP2 POP POP JUMP JUMPDEST PUSH1 0x0 PUSH1 0x20 DUP3 ADD SWAP1 POP PUSH2 0x2243 PUSH1 0x0 DUP4 ADD DUP5 PUSH2 0x1EC7 JUMP JUMPDEST SWAP3 SWAP2 POP POP JUMP JUMPDEST PUSH1 0x0 PUSH1 0x20 DUP3 ADD SWAP1 POP DUP2 DUP2 SUB PUSH1 0x0 DUP4 ADD MSTORE PUSH2 0x2263 DUP2 DUP5 PUSH2 0x1ED6 JUMP JUMPDEST SWAP1 POP SWAP3 SWAP2 POP POP JUMP JUMPDEST PUSH1 0x0 PUSH1 0x20 DUP3 ADD SWAP1 POP DUP2 DUP2 SUB PUSH1 0x0 DUP4 ADD MSTORE PUSH2 0x2284 DUP2 PUSH2 0x1F0F JUMP JUMPDEST SWAP1 POP SWAP2 SWAP1 POP JUMP JUMPDEST PUSH1 0x0 PUSH1 0x20 DUP3 ADD SWAP1 POP DUP2 DUP2 SUB PUSH1 0x0 DUP4 ADD MSTORE PUSH2 0x22A4 DUP2 PUSH2 0x1F32 JUMP JUMPDEST SWAP1 POP SWAP2 SWAP1 POP JUMP JUMPDEST PUSH1 0x0 PUSH1 0x20 DUP3 ADD SWAP1 POP DUP2 DUP2 SUB PUSH1 0x0 DUP4 ADD MSTORE PUSH2 0x22C4 DUP2 PUSH2 0x1F55 JUMP JUMPDEST SWAP1 POP SWAP2 SWAP1 POP JUMP JUMPDEST PUSH1 0x0 PUSH1 0x20 DUP3 ADD SWAP1 POP DUP2 DUP2 SUB PUSH1 0x0 DUP4 ADD MSTORE PUSH2 0x22E4 DUP2 PUSH2 0x1F78 JUMP JUMPDEST SWAP1 POP SWAP2 SWAP1 POP JUMP JUMPDEST PUSH1 0x0 PUSH1 0x20 DUP3 ADD SWAP1 POP DUP2 DUP2 SUB PUSH1 0x0 DUP4 ADD MSTORE PUSH2 0x2304 DUP2 PUSH2 0x1F9B JUMP JUMPDEST SWAP1 POP SWAP2 SWAP1 POP JUMP JUMPDEST PUSH1 0x0 PUSH1 0x20 DUP3 ADD SWAP1 POP DUP2 DUP2 SUB PUSH1 0x0 DUP4 ADD MSTORE PUSH2 0x2324 DUP2 PUSH2 0x1FBE JUMP JUMPDEST SWAP1 POP SWAP2 SWAP1 POP JUMP JUMPDEST PUSH1 0x0 PUSH1 0x20 DUP3 ADD SWAP1 POP DUP2 DUP2 SUB PUSH1 0x0 DUP4 ADD MSTORE PUSH2 0x2344 DUP2 PUSH2 0x1FE1 JUMP JUMPDEST SWAP1 POP SWAP2 SWAP1 POP JUMP JUMPDEST PUSH1 0x0 PUSH1 0x20 DUP3 ADD SWAP1 POP DUP2 DUP2 SUB PUSH1 0x0 DUP4 ADD MSTORE PUSH2 0x2364 DUP2 PUSH2 0x2004 JUMP JUMPDEST SWAP1 POP SWAP2 SWAP1 POP JUMP JUMPDEST PUSH1 0x0 PUSH1 0x20 DUP3 ADD SWAP1 POP DUP2 DUP2 SUB PUSH1 0x0 DUP4 ADD MSTORE PUSH2 0x2384 DUP2 PUSH2 0x2027 JUMP JUMPDEST SWAP1 POP SWAP2 SWAP1 POP JUMP JUMPDEST PUSH1 0x0 PUSH1 0x20 DUP3 ADD SWAP1 POP DUP2 DUP2 SUB PUSH1 0x0 DUP4 ADD MSTORE PUSH2 0x23A4 DUP2 PUSH2 0x204A JUMP JUMPDEST SWAP1 POP SWAP2 SWAP1 POP JUMP JUMPDEST PUSH1 0x0 PUSH1 0x20 DUP3 ADD SWAP1 POP DUP2 DUP2 SUB PUSH1 0x0 DUP4 ADD MSTORE PUSH2 0x23C4 DUP2 PUSH2 0x206D JUMP JUMPDEST SWAP1 POP SWAP2 SWAP1 POP JUMP JUMPDEST PUSH1 0x0 PUSH1 0x20 DUP3 ADD SWAP1 POP DUP2 DUP2 SUB PUSH1 0x0 DUP4 ADD MSTORE PUSH2 0x23E4 DUP2 PUSH2 0x2090 JUMP JUMPDEST SWAP1 POP SWAP2 SWAP1 POP JUMP JUMPDEST PUSH1 0x0 PUSH1 0x20 DUP3 ADD SWAP1 POP DUP2 DUP2 SUB PUSH1 0x0 DUP4 ADD MSTORE PUSH2 0x2404 DUP2 PUSH2 0x20B3 JUMP JUMPDEST SWAP1 POP SWAP2 SWAP1 POP JUMP JUMPDEST PUSH1 0x0 PUSH1 0x20 DUP3 ADD SWAP1 POP DUP2 DUP2 SUB PUSH1 0x0 DUP4 ADD MSTORE PUSH2 0x2424 DUP2 PUSH2 0x20D6 JUMP JUMPDEST SWAP1 POP SWAP2 SWAP1 POP JUMP JUMPDEST PUSH1 0x0 PUSH1 0x20 DUP3 ADD SWAP1 POP DUP2 DUP2 SUB PUSH1 0x0 DUP4 ADD MSTORE PUSH2 0x2444 DUP2 PUSH2 0x20F9 JUMP JUMPDEST SWAP1 POP SWAP2 SWAP1 POP JUMP JUMPDEST PUSH1 0x0 PUSH1 0x20 DUP3 ADD SWAP1 POP DUP2 DUP2 SUB PUSH1 0x0 DUP4 ADD MSTORE PUSH2 0x2464 DUP2 PUSH2 0x211C JUMP JUMPDEST SWAP1 POP SWAP2 SWAP1 POP JUMP JUMPDEST PUSH1 0x0 PUSH1 0x20 DUP3 ADD SWAP1 POP DUP2 DUP2 SUB PUSH1 0x0 DUP4 ADD MSTORE PUSH2 0x2484 DUP2 PUSH2 0x213F JUMP JUMPDEST SWAP1 POP SWAP2 SWAP1 POP JUMP JUMPDEST PUSH1 0x0 PUSH1 0x20 DUP3 ADD SWAP1 POP DUP2 DUP2 SUB PUSH1 0x0 DUP4 ADD MSTORE PUSH2 0x24A4 DUP2 PUSH2 0x2162 JUMP JUMPDEST SWAP1 POP SWAP2 SWAP1 POP JUMP JUMPDEST PUSH1 0x0 PUSH1 0x20 DUP3 ADD SWAP1 POP DUP2 DUP2 SUB PUSH1 0x0 DUP4 ADD MSTORE PUSH2 0x24C4 DUP2 PUSH2 0x2185 JUMP JUMPDEST SWAP1 POP SWAP2 SWAP1 POP JUMP JUMPDEST PUSH1 0x0 PUSH1 0x20 DUP3 ADD SWAP1 POP PUSH2 0x24E0 PUSH1 0x0 DUP4 ADD DUP5 PUSH2 0x21A8 JUMP JUMPDEST SWAP3 SWAP2 POP POP JUMP JUMPDEST PUSH1 0x0 PUSH1 0x20 DUP3 ADD SWAP1 POP PUSH2 0x24FB PUSH1 0x0 DUP4 ADD DUP5 PUSH2 0x21B7 JUMP JUMPDEST SWAP3 SWAP2 POP POP JUMP JUMPDEST PUSH1 0x0 PUSH2 0x250B PUSH2 0x251C JUMP JUMPDEST SWAP1 POP PUSH2 0x2517 DUP3 DUP3 PUSH2 0x26C4 JUMP JUMPDEST SWAP2 SWAP1 POP JUMP JUMPDEST PUSH1 0x0 PUSH1 0x40 MLOAD SWAP1 POP SWAP1 JUMP JUMPDEST PUSH1 0x0 PUSH8 0xFFFFFFFFFFFFFFFF DUP3 GT ISZERO PUSH2 0x2541 JUMPI PUSH2 0x2540 PUSH2 0x2753 JUMP JUMPDEST JUMPDEST PUSH2 0x254A DUP3 PUSH2 0x2796 JUMP JUMPDEST SWAP1 POP PUSH1 0x20 DUP2 ADD SWAP1 POP SWAP2 SWAP1 POP JUMP JUMPDEST PUSH1 0x0 DUP2 MLOAD SWAP1 POP SWAP2 SWAP1 POP JUMP JUMPDEST PUSH1 0x0 DUP2 MLOAD SWAP1 POP SWAP2 SWAP1 POP JUMP JUMPDEST PUSH1 0x0 DUP2 SWAP1 POP SWAP3 SWAP2 POP POP JUMP JUMPDEST PUSH1 0x0 DUP3 DUP3 MSTORE PUSH1 0x20 DUP3 ADD SWAP1 POP SWAP3 SWAP2 POP POP JUMP JUMPDEST PUSH1 0x0 PUSH2 0x2594 DUP3 PUSH2 0x2627 JUMP JUMPDEST SWAP2 POP PUSH2 0x259F DUP4 PUSH2 0x2627 JUMP JUMPDEST SWAP3 POP DUP3 PUSH32 0xFFFFFFFFFFFFFFFFFFFFFFFFFFFFFFFFFFFFFFFFFFFFFFFFFFFFFFFFFFFFFFFF SUB DUP3 GT ISZERO PUSH2 0x25D4 JUMPI PUSH2 0x25D3 PUSH2 0x26F5 JUMP JUMPDEST JUMPDEST DUP3 DUP3 ADD SWAP1 POP SWAP3 SWAP2 POP POP JUMP JUMPDEST PUSH1 0x0 PUSH2 0x25EA DUP3 PUSH2 0x2607 JUMP JUMPDEST SWAP1 POP SWAP2 SWAP1 POP JUMP JUMPDEST PUSH1 0x0 DUP2 ISZERO ISZERO SWAP1 POP SWAP2 SWAP1 POP JUMP JUMPDEST PUSH1 0x0 DUP2 SWAP1 POP SWAP2 SWAP1 POP JUMP JUMPDEST PUSH1 0x0 PUSH20 0xFFFFFFFFFFFFFFFFFFFFFFFFFFFFFFFFFFFFFFFF DUP3 AND SWAP1 POP SWAP2 SWAP1 POP JUMP JUMPDEST PUSH1 0x0 DUP2 SWAP1 POP SWAP2 SWAP1 POP JUMP JUMPDEST PUSH1 0x0 PUSH1 0xFF DUP3 AND SWAP1 POP SWAP2 SWAP1 POP JUMP JUMPDEST PUSH1 0x0 PUSH2 0x2649 DUP3 PUSH2 0x2631 JUMP JUMPDEST SWAP1 POP SWAP2 SWAP1 POP JUMP JUMPDEST DUP3 DUP2 DUP4 CALLDATACOPY PUSH1 0x0 DUP4 DUP4 ADD MSTORE POP POP POP JUMP JUMPDEST PUSH1 0x0 JUMPDEST DUP4 DUP2 LT ISZERO PUSH2 0x267D JUMPI DUP1 DUP3 ADD MLOAD DUP2 DUP5 ADD MSTORE PUSH1 0x20 DUP2 ADD SWAP1 POP PUSH2 0x2662 JUMP JUMPDEST DUP4 DUP2 GT ISZERO PUSH2 0x268C JUMPI PUSH1 0x0 DUP5 DUP5 ADD MSTORE JUMPDEST POP POP POP POP JUMP JUMPDEST PUSH1 0x0 PUSH1 0x2 DUP3 DIV SWAP1 POP PUSH1 0x1 DUP3 AND DUP1 PUSH2 0x26AA JUMPI PUSH1 0x7F DUP3 AND SWAP2 POP JUMPDEST PUSH1 0x20 DUP3 LT DUP2 EQ ISZERO PUSH2 0x26BE JUMPI PUSH2 0x26BD PUSH2 0x2724 JUMP JUMPDEST JUMPDEST POP SWAP2 SWAP1 POP JUMP JUMPDEST PUSH2 0x26CD DUP3 PUSH2 0x2796 JUMP JUMPDEST DUP2 ADD DUP2 DUP2 LT PUSH8 0xFFFFFFFFFFFFFFFF DUP3 GT OR ISZERO PUSH2 0x26EC JUMPI PUSH2 0x26EB PUSH2 0x2753 JUMP JUMPDEST JUMPDEST DUP1 PUSH1 0x40 MSTORE POP POP POP JUMP JUMPDEST PUSH32 0x4E487B7100000000000000000000000000000000000000000000000000000000 PUSH1 0x0 MSTORE PUSH1 0x11 PUSH1 0x4 MSTORE PUSH1 0x24 PUSH1 0x0 REVERT JUMPDEST PUSH32 0x4E487B7100000000000000000000000000000000000000000000000000000000 PUSH1 0x0 MSTORE PUSH1 0x22 PUSH1 0x4 MSTORE PUSH1 0x24 PUSH1 0x0 REVERT JUMPDEST PUSH32 0x4E487B7100000000000000000000000000000000000000000000000000000000 PUSH1 0x0 MSTORE PUSH1 0x41 PUSH1 0x4 MSTORE PUSH1 0x24 PUSH1 0x0 REVERT JUMPDEST PUSH1 0x0 DUP1 REVERT JUMPDEST PUSH1 0x0 DUP1 REVERT JUMPDEST PUSH1 0x0 DUP1 REVERT JUMPDEST PUSH1 0x0 DUP1 REVERT JUMPDEST PUSH1 0x0 PUSH1 0x1F NOT PUSH1 0x1F DUP4 ADD AND SWAP1 POP SWAP2 SWAP1 POP JUMP JUMPDEST PUSH32 0x45524332303A207472616E7366657220746F20746865207A65726F2061646472 PUSH1 0x0 DUP3 ADD MSTORE PUSH32 0x6573730000000000000000000000000000000000000000000000000000000000 PUSH1 0x20 DUP3 ADD MSTORE POP JUMP JUMPDEST PUSH32 0x4F776E61626C653A206E6577206F776E657220697320746865207A65726F2061 PUSH1 0x0 DUP3 ADD MSTORE PUSH32 0x6464726573730000000000000000000000000000000000000000000000000000 PUSH1 0x20 DUP3 ADD MSTORE POP JUMP JUMPDEST PUSH32 0x45524332303A20617070726F766520746F20746865207A65726F206164647265 PUSH1 0x0 DUP3 ADD MSTORE PUSH32 0x7373000000000000000000000000000000000000000000000000000000000000 PUSH1 0x20 DUP3 ADD MSTORE POP JUMP JUMPDEST PUSH32 0x46756E6374696F6E206D7573742062652063616C6C6564207468726F75676820 PUSH1 0x0 DUP3 ADD MSTORE PUSH32 0x64656C656761746563616C6C0000000000000000000000000000000000000000 PUSH1 0x20 DUP3 ADD MSTORE POP JUMP JUMPDEST PUSH32 0x45524332303A20696E73756666696369656E7420616C6C6F77616E6365000000 PUSH1 0x0 DUP3 ADD MSTORE POP JUMP JUMPDEST PUSH32 0x45524332303A207472616E7366657220616D6F756E7420657863656564732062 PUSH1 0x0 DUP3 ADD MSTORE PUSH32 0x616C616E63650000000000000000000000000000000000000000000000000000 PUSH1 0x20 DUP3 ADD MSTORE POP JUMP JUMPDEST PUSH32 0x46756E6374696F6E206D7573742062652063616C6C6564207468726F75676820 PUSH1 0x0 DUP3 ADD MSTORE PUSH32 0x6163746976652070726F78790000000000000000000000000000000000000000 PUSH1 0x20 DUP3 ADD MSTORE POP JUMP JUMPDEST PUSH32 0x555550535570677261646561626C653A206D757374206E6F742062652063616C PUSH1 0x0 DUP3 ADD MSTORE PUSH32 0x6C6564207468726F7567682064656C656761746563616C6C0000000000000000 PUSH1 0x20 DUP3 ADD MSTORE POP JUMP JUMPDEST PUSH32 0x45524331393637557067726164653A20756E737570706F727465642070726F78 PUSH1 0x0 DUP3 ADD MSTORE PUSH32 0x6961626C65555549440000000000000000000000000000000000000000000000 PUSH1 0x20 DUP3 ADD MSTORE POP JUMP JUMPDEST PUSH32 0x496E697469616C697A61626C653A20636F6E747261637420697320616C726561 PUSH1 0x0 DUP3 ADD MSTORE PUSH32 0x647920696E697469616C697A6564000000000000000000000000000000000000 PUSH1 0x20 DUP3 ADD MSTORE POP JUMP JUMPDEST PUSH32 0x45524331393637557067726164653A206E657720696D706C656D656E74617469 PUSH1 0x0 DUP3 ADD MSTORE PUSH32 0x6F6E206973206E6F742055555053000000000000000000000000000000000000 PUSH1 0x20 DUP3 ADD MSTORE POP JUMP JUMPDEST PUSH32 0x455243313936373A206E657720696D706C656D656E746174696F6E206973206E PUSH1 0x0 DUP3 ADD MSTORE PUSH32 0x6F74206120636F6E747261637400000000000000000000000000000000000000 PUSH1 0x20 DUP3 ADD MSTORE POP JUMP JUMPDEST PUSH32 0x4F776E61626C653A2063616C6C6572206973206E6F7420746865206F776E6572 PUSH1 0x0 DUP3 ADD MSTORE POP JUMP JUMPDEST PUSH32 0x416464726573733A2064656C65676174652063616C6C20746F206E6F6E2D636F PUSH1 0x0 DUP3 ADD MSTORE PUSH32 0x6E74726163740000000000000000000000000000000000000000000000000000 PUSH1 0x20 DUP3 ADD MSTORE POP JUMP JUMPDEST PUSH32 0x45524332303A207472616E736665722066726F6D20746865207A65726F206164 PUSH1 0x0 DUP3 ADD MSTORE PUSH32 0x6472657373000000000000000000000000000000000000000000000000000000 PUSH1 0x20 DUP3 ADD MSTORE POP JUMP JUMPDEST PUSH32 0x45524332303A20617070726F76652066726F6D20746865207A65726F20616464 PUSH1 0x0 DUP3 ADD MSTORE PUSH32 0x7265737300000000000000000000000000000000000000000000000000000000 PUSH1 0x20 DUP3 ADD MSTORE POP JUMP JUMPDEST PUSH32 0x496E697469616C697A61626C653A20636F6E7472616374206973206E6F742069 PUSH1 0x0 DUP3 ADD MSTORE PUSH32 0x6E697469616C697A696E67000000000000000000000000000000000000000000 PUSH1 0x20 DUP3 ADD MSTORE POP JUMP JUMPDEST PUSH32 0x45524332303A2064656372656173656420616C6C6F77616E63652062656C6F77 PUSH1 0x0 DUP3 ADD MSTORE PUSH32 0x207A65726F000000000000000000000000000000000000000000000000000000 PUSH1 0x20 DUP3 ADD MSTORE POP JUMP JUMPDEST PUSH32 0x45524332303A206D696E7420746F20746865207A65726F206164647265737300 PUSH1 0x0 DUP3 ADD MSTORE POP JUMP JUMPDEST PUSH2 0x2D1B DUP2 PUSH2 0x25DF JUMP JUMPDEST DUP2 EQ PUSH2 0x2D26 JUMPI PUSH1 0x0 DUP1 REVERT JUMPDEST POP JUMP JUMPDEST PUSH2 0x2D32 DUP2 PUSH2 0x25FD JUMP JUMPDEST DUP2 EQ PUSH2 0x2D3D JUMPI PUSH1 0x0 DUP1 REVERT JUMPDEST POP JUMP JUMPDEST PUSH2 0x2D49 DUP2 PUSH2 0x2627 JUMP JUMPDEST DUP2 EQ PUSH2 0x2D54 JUMPI PUSH1 0x0 DUP1 REVERT JUMPDEST POP JUMP INVALID COINBASE PUSH5 0x6472657373 GASPRICE KECCAK256 PUSH13 0x6F772D6C6576656C2064656C65 PUSH8 0x6174652063616C6C KECCAK256 PUSH7 0x61696C6564A264 PUSH10 0x70667358221220B16802 DUP1 0xD0 PUSH20 0xC3FA4CF267E2FD4D10DBC699172D308CF47CC82D 0xF6 0xBE DUP15 0xDC 0x5C PUSH12 0x64736F6C6343000807003300 "
				},
				"gasEstimates": {
					"creation": {
						"codeDepositCost": "2340000",
						"executionCost": "infinite",
						"totalCost": "infinite"
					},
					"external": {
						"allowance(address,address)": "infinite",
						"approve(address,uint256)": "infinite",
						"balanceOf(address)": "2886",
						"decimals()": "366",
						"decreaseAllowance(address,uint256)": "infinite",
						"increaseAllowance(address,uint256)": "infinite",
						"initialize()": "infinite",
						"mint(address,uint256)": "infinite",
						"name()": "infinite",
						"owner()": "2633",
						"proxiableUUID()": "infinite",
						"renounceOwnership()": "30465",
						"symbol()": "infinite",
						"totalSupply()": "2505",
						"transfer(address,uint256)": "infinite",
						"transferFrom(address,address,uint256)": "infinite",
						"transferOwnership(address)": "30857",
						"upgradeTo(address)": "infinite",
						"upgradeToAndCall(address,bytes)": "infinite"
					},
					"internal": {
						"_authorizeUpgrade(address)": "infinite"
					}
				},
				"methodIdentifiers": {
					"allowance(address,address)": "dd62ed3e",
					"approve(address,uint256)": "095ea7b3",
					"balanceOf(address)": "70a08231",
					"decimals()": "313ce567",
					"decreaseAllowance(address,uint256)": "a457c2d7",
					"increaseAllowance(address,uint256)": "39509351",
					"initialize()": "8129fc1c",
					"mint(address,uint256)": "40c10f19",
					"name()": "06fdde03",
					"owner()": "8da5cb5b",
					"proxiableUUID()": "52d1902d",
					"renounceOwnership()": "715018a6",
					"symbol()": "95d89b41",
					"totalSupply()": "18160ddd",
					"transfer(address,uint256)": "a9059cbb",
					"transferFrom(address,address,uint256)": "23b872dd",
					"transferOwnership(address)": "f2fde38b",
					"upgradeTo(address)": "3659cfe6",
					"upgradeToAndCall(address,bytes)": "4f1ef286"
				}
			},
			"storageLayout": {
				"storage": [
					{
						"astId": 342,
						"contract": "contract/myProject/CNRC_V2/V2_CNRedCross.sol:CNRedCrossUpgradeable",
						"label": "_initialized",
						"offset": 0,
						"slot": "0",
						"type": "t_uint8"
					},
					{
						"astId": 345,
						"contract": "contract/myProject/CNRC_V2/V2_CNRedCross.sol:CNRedCrossUpgradeable",
						"label": "_initializing",
						"offset": 1,
						"slot": "0",
						"type": "t_bool"
					},
					{
						"astId": 522,
						"contract": "contract/myProject/CNRC_V2/V2_CNRedCross.sol:CNRedCrossUpgradeable",
						"label": "__gap",
						"offset": 0,
						"slot": "1",
						"type": "t_array(t_uint256)50_storage"
					},
					{
						"astId": 620,
						"contract": "contract/myProject/CNRC_V2/V2_CNRedCross.sol:CNRedCrossUpgradeable",
						"label": "_balances",
						"offset": 0,
						"slot": "51",
						"type": "t_mapping(t_address,t_uint256)"
					},
					{
						"astId": 626,
						"contract": "contract/myProject/CNRC_V2/V2_CNRedCross.sol:CNRedCrossUpgradeable",
						"label": "_allowances",
						"offset": 0,
						"slot": "52",
						"type": "t_mapping(t_address,t_mapping(t_address,t_uint256))"
					},
					{
						"astId": 628,
						"contract": "contract/myProject/CNRC_V2/V2_CNRedCross.sol:CNRedCrossUpgradeable",
						"label": "_totalSupply",
						"offset": 0,
						"slot": "53",
						"type": "t_uint256"
					},
					{
						"astId": 630,
						"contract": "contract/myProject/CNRC_V2/V2_CNRedCross.sol:CNRedCrossUpgradeable",
						"label": "_name",
						"offset": 0,
						"slot": "54",
						"type": "t_string_storage"
					},
					{
						"astId": 632,
						"contract": "contract/myProject/CNRC_V2/V2_CNRedCross.sol:CNRedCrossUpgradeable",
						"label": "_symbol",
						"offset": 0,
						"slot": "55",
						"type": "t_string_storage"
					},
					{
						"astId": 1192,
						"contract": "contract/myProject/CNRC_V2/V2_CNRedCross.sol:CNRedCrossUpgradeable",
						"label": "__gap",
						"offset": 0,
						"slot": "56",
						"type": "t_array(t_uint256)45_storage"
					},
					{
						"astId": 1199,
						"contract": "contract/myProject/CNRC_V2/V2_CNRedCross.sol:CNRedCrossUpgradeable",
						"label": "_owner",
						"offset": 0,
						"slot": "101",
						"type": "t_address"
					},
					{
						"astId": 1311,
						"contract": "contract/myProject/CNRC_V2/V2_CNRedCross.sol:CNRedCrossUpgradeable",
						"label": "__gap",
						"offset": 0,
						"slot": "102",
						"type": "t_array(t_uint256)49_storage"
					},
					{
						"astId": 1687,
						"contract": "contract/myProject/CNRC_V2/V2_CNRedCross.sol:CNRedCrossUpgradeable",
						"label": "__gap",
						"offset": 0,
						"slot": "151",
						"type": "t_array(t_uint256)50_storage"
					},
					{
						"astId": 1818,
						"contract": "contract/myProject/CNRC_V2/V2_CNRedCross.sol:CNRedCrossUpgradeable",
						"label": "__gap",
						"offset": 0,
						"slot": "201",
						"type": "t_array(t_uint256)50_storage"
					}
				],
				"types": {
					"t_address": {
						"encoding": "inplace",
						"label": "address",
						"numberOfBytes": "20"
					},
					"t_array(t_uint256)45_storage": {
						"base": "t_uint256",
						"encoding": "inplace",
						"label": "uint256[45]",
						"numberOfBytes": "1440"
					},
					"t_array(t_uint256)49_storage": {
						"base": "t_uint256",
						"encoding": "inplace",
						"label": "uint256[49]",
						"numberOfBytes": "1568"
					},
					"t_array(t_uint256)50_storage": {
						"base": "t_uint256",
						"encoding": "inplace",
						"label": "uint256[50]",
						"numberOfBytes": "1600"
					},
					"t_bool": {
						"encoding": "inplace",
						"label": "bool",
						"numberOfBytes": "1"
					},
					"t_mapping(t_address,t_mapping(t_address,t_uint256))": {
						"encoding": "mapping",
						"key": "t_address",
						"label": "mapping(address => mapping(address => uint256))",
						"numberOfBytes": "32",
						"value": "t_mapping(t_address,t_uint256)"
					},
					"t_mapping(t_address,t_uint256)": {
						"encoding": "mapping",
						"key": "t_address",
						"label": "mapping(address => uint256)",
						"numberOfBytes": "32",
						"value": "t_uint256"
					},
					"t_string_storage": {
						"encoding": "bytes",
						"label": "string",
						"numberOfBytes": "32"
					},
					"t_uint256": {
						"encoding": "inplace",
						"label": "uint256",
						"numberOfBytes": "32"
					},
					"t_uint8": {
						"encoding": "inplace",
						"label": "uint8",
						"numberOfBytes": "1"
					}
				}
			},
			"userdoc": {
				"kind": "user",
				"methods": {},
				"version": 1
			}
		}
	}
}