{
	"contract/myProject/CNRC_V2/V2_CNRedCross.sol": {
		"CNRedCrossUpgradeable": {
			"abi": [
				{
					"inputs": [],
					"stateMutability": "nonpayable",
					"type": "constructor"
				},
				{
					"anonymous": false,
					"inputs": [
						{
							"indexed": false,
							"internalType": "address",
							"name": "previousAdmin",
							"type": "address"
						},
						{
							"indexed": false,
							"internalType": "address",
							"name": "newAdmin",
							"type": "address"
						}
					],
					"name": "AdminChanged",
					"type": "event"
				},
				{
					"anonymous": false,
					"inputs": [
						{
							"indexed": true,
							"internalType": "address",
							"name": "owner",
							"type": "address"
						},
						{
							"indexed": true,
							"internalType": "address",
							"name": "spender",
							"type": "address"
						},
						{
							"indexed": false,
							"internalType": "uint256",
							"name": "value",
							"type": "uint256"
						}
					],
					"name": "Approval",
					"type": "event"
				},
				{
					"anonymous": false,
					"inputs": [
						{
							"indexed": true,
							"internalType": "address",
							"name": "beacon",
							"type": "address"
						}
					],
					"name": "BeaconUpgraded",
					"type": "event"
				},
				{
					"anonymous": false,
					"inputs": [
						{
							"indexed": false,
							"internalType": "uint8",
							"name": "version",
							"type": "uint8"
						}
					],
					"name": "Initialized",
					"type": "event"
				},
				{
					"anonymous": false,
					"inputs": [
						{
							"indexed": true,
							"internalType": "address",
							"name": "previousOwner",
							"type": "address"
						},
						{
							"indexed": true,
							"internalType": "address",
							"name": "newOwner",
							"type": "address"
						}
					],
					"name": "OwnershipTransferred",
					"type": "event"
				},
				{
					"anonymous": false,
					"inputs": [
						{
							"indexed": true,
							"internalType": "address",
							"name": "from",
							"type": "address"
						},
						{
							"indexed": true,
							"internalType": "address",
							"name": "to",
							"type": "address"
						},
						{
							"indexed": false,
							"internalType": "uint256",
							"name": "value",
							"type": "uint256"
						}
					],
					"name": "Transfer",
					"type": "event"
				},
				{
					"anonymous": false,
					"inputs": [
						{
							"indexed": true,
							"internalType": "address",
							"name": "implementation",
							"type": "address"
						}
					],
					"name": "Upgraded",
					"type": "event"
				},
				{
					"inputs": [
						{
							"internalType": "address",
							"name": "owner",
							"type": "address"
						},
						{
							"internalType": "address",
							"name": "spender",
							"type": "address"
						}
					],
					"name": "allowance",
					"outputs": [
						{
							"internalType": "uint256",
							"name": "",
							"type": "uint256"
						}
					],
					"stateMutability": "view",
					"type": "function"
				},
				{
					"inputs": [
						{
							"internalType": "address",
							"name": "spender",
							"type": "address"
						},
						{
							"internalType": "uint256",
							"name": "amount",
							"type": "uint256"
						}
					],
					"name": "approve",
					"outputs": [
						{
							"internalType": "bool",
							"name": "",
							"type": "bool"
						}
					],
					"stateMutability": "nonpayable",
					"type": "function"
				},
				{
					"inputs": [
						{
							"internalType": "address",
							"name": "account",
							"type": "address"
						}
					],
					"name": "balanceOf",
					"outputs": [
						{
							"internalType": "uint256",
							"name": "",
							"type": "uint256"
						}
					],
					"stateMutability": "view",
					"type": "function"
				},
				{
					"inputs": [],
					"name": "decimals",
					"outputs": [
						{
							"internalType": "uint8",
							"name": "",
							"type": "uint8"
						}
					],
					"stateMutability": "view",
					"type": "function"
				},
				{
					"inputs": [
						{
							"internalType": "address",
							"name": "spender",
							"type": "address"
						},
						{
							"internalType": "uint256",
							"name": "subtractedValue",
							"type": "uint256"
						}
					],
					"name": "decreaseAllowance",
					"outputs": [
						{
							"internalType": "bool",
							"name": "",
							"type": "bool"
						}
					],
					"stateMutability": "nonpayable",
					"type": "function"
				},
				{
					"inputs": [
						{
							"internalType": "address",
							"name": "spender",
							"type": "address"
						},
						{
							"internalType": "uint256",
							"name": "addedValue",
							"type": "uint256"
						}
					],
					"name": "increaseAllowance",
					"outputs": [
						{
							"internalType": "bool",
							"name": "",
							"type": "bool"
						}
					],
					"stateMutability": "nonpayable",
					"type": "function"
				},
				{
					"inputs": [
						{
							"internalType": "string",
							"name": "name_",
							"type": "string"
						},
						{
							"internalType": "string",
							"name": "symbol_",
							"type": "string"
						},
						{
							"internalType": "uint256",
							"name": "totalSupply_",
							"type": "uint256"
						}
					],
					"name": "initialize",
					"outputs": [],
					"stateMutability": "nonpayable",
					"type": "function"
				},
				{
					"inputs": [
						{
							"internalType": "address",
							"name": "to",
							"type": "address"
						},
						{
							"internalType": "uint256",
							"name": "amount",
							"type": "uint256"
						}
					],
					"name": "mint",
					"outputs": [],
					"stateMutability": "nonpayable",
					"type": "function"
				},
				{
					"inputs": [],
					"name": "name",
					"outputs": [
						{
							"internalType": "string",
							"name": "",
							"type": "string"
						}
					],
					"stateMutability": "view",
					"type": "function"
				},
				{
					"inputs": [],
					"name": "owner",
					"outputs": [
						{
							"internalType": "address",
							"name": "",
							"type": "address"
						}
					],
					"stateMutability": "view",
					"type": "function"
				},
				{
					"inputs": [],
					"name": "proxiableUUID",
					"outputs": [
						{
							"internalType": "bytes32",
							"name": "",
							"type": "bytes32"
						}
					],
					"stateMutability": "view",
					"type": "function"
				},
				{
					"inputs": [],
					"name": "renounceOwnership",
					"outputs": [],
					"stateMutability": "nonpayable",
					"type": "function"
				},
				{
					"inputs": [],
					"name": "symbol",
					"outputs": [
						{
							"internalType": "string",
							"name": "",
							"type": "string"
						}
					],
					"stateMutability": "view",
					"type": "function"
				},
				{
					"inputs": [],
					"name": "totalSupply",
					"outputs": [
						{
							"internalType": "uint256",
							"name": "",
							"type": "uint256"
						}
					],
					"stateMutability": "view",
					"type": "function"
				},
				{
					"inputs": [
						{
							"internalType": "address",
							"name": "to",
							"type": "address"
						},
						{
							"internalType": "uint256",
							"name": "amount",
							"type": "uint256"
						}
					],
					"name": "transfer",
					"outputs": [
						{
							"internalType": "bool",
							"name": "",
							"type": "bool"
						}
					],
					"stateMutability": "nonpayable",
					"type": "function"
				},
				{
					"inputs": [
						{
							"internalType": "address",
							"name": "from",
							"type": "address"
						},
						{
							"internalType": "address",
							"name": "to",
							"type": "address"
						},
						{
							"internalType": "uint256",
							"name": "amount",
							"type": "uint256"
						}
					],
					"name": "transferFrom",
					"outputs": [
						{
							"internalType": "bool",
							"name": "",
							"type": "bool"
						}
					],
					"stateMutability": "nonpayable",
					"type": "function"
				},
				{
					"inputs": [
						{
							"internalType": "address",
							"name": "newOwner",
							"type": "address"
						}
					],
					"name": "transferOwnership",
					"outputs": [],
					"stateMutability": "nonpayable",
					"type": "function"
				},
				{
					"inputs": [
						{
							"internalType": "address",
							"name": "newImplementation",
							"type": "address"
						}
					],
					"name": "upgradeTo",
					"outputs": [],
					"stateMutability": "nonpayable",
					"type": "function"
				},
				{
					"inputs": [
						{
							"internalType": "address",
							"name": "newImplementation",
							"type": "address"
						},
						{
							"internalType": "bytes",
							"name": "data",
							"type": "bytes"
						}
					],
					"name": "upgradeToAndCall",
					"outputs": [],
					"stateMutability": "payable",
					"type": "function"
				}
			],
			"devdoc": {
				"kind": "dev",
				"methods": {
					"proxiableUUID()": {
						"details": "Implementation of the ERC1822 {proxiableUUID} function. This returns the storage slot used by the implementation. It is used to validate that the this implementation remains valid after an upgrade. IMPORTANT: A proxy pointing at a proxiable contract should not be considered proxiable itself, because this risks bricking a proxy that upgrades to it, by delegating to itself until out of gas. Thus it is critical that this function revert if invoked through a proxy. This is guaranteed by the `notDelegated` modifier."
					},
					"upgradeTo(address)": {
						"details": "Upgrade the implementation of the proxy to `newImplementation`. Calls {_authorizeUpgrade}. Emits an {Upgraded} event."
					},
					"upgradeToAndCall(address,bytes)": {
						"details": "Upgrade the implementation of the proxy to `newImplementation`, and subsequently execute the function call encoded in `data`. Calls {_authorizeUpgrade}. Emits an {Upgraded} event."
					}
				},
				"version": 1
			},
			"evm": {
				"assembly": "    /* \"contract/myProject/CNRC_V2/V2_CNRedCross.sol\":35659:36358  contract CNRedCrossUpgradeable is Initializable, ERC20Upgradeable, OwnableUpgradeable, UUPSUpgradeable{\r... */\n  mstore(0x40, 0xa0)\n    /* \"contract/myProject/CNRC_V2/V2_CNRedCross.sol\":31586:31590  this */\n  address\n    /* \"contract/myProject/CNRC_V2/V2_CNRedCross.sol\":31543:31591  address private immutable __self = address(this) */\n  0xffffffffffffffffffffffffffffffffffffffff\n  and\n  0x80\n  swap1\n  0xffffffffffffffffffffffffffffffffffffffff\n  and\n  0x60\n  shl\n  dup2\n  mstore\n  pop\n    /* \"contract/myProject/CNRC_V2/V2_CNRedCross.sol\":35774:35828  constructor(){\r... */\n  callvalue\n  dup1\n  iszero\n  tag_1\n  jumpi\n  0x00\n  dup1\n  revert\ntag_1:\n  pop\n    /* \"contract/myProject/CNRC_V2/V2_CNRedCross.sol\":35798:35820  _disableInitializers() */\n  tag_4\n    /* \"contract/myProject/CNRC_V2/V2_CNRedCross.sol\":35798:35818  _disableInitializers */\n  shl(0x20, tag_5)\n    /* \"contract/myProject/CNRC_V2/V2_CNRedCross.sol\":35798:35820  _disableInitializers() */\n  0x20\n  shr\n  jump\t// in\ntag_4:\n    /* \"contract/myProject/CNRC_V2/V2_CNRedCross.sol\":35659:36358  contract CNRedCrossUpgradeable is Initializable, ERC20Upgradeable, OwnableUpgradeable, UUPSUpgradeable{\r... */\n  jump(tag_6)\n    /* \"contract/myProject/CNRC_V2/V2_CNRedCross.sol\":12961:13246  function _disableInitializers() internal virtual {\r... */\ntag_5:\n    /* \"contract/myProject/CNRC_V2/V2_CNRedCross.sol\":13030:13043  _initializing */\n  0x00\n  0x01\n  swap1\n  sload\n  swap1\n  0x0100\n  exp\n  swap1\n  div\n  0xff\n  and\n    /* \"contract/myProject/CNRC_V2/V2_CNRedCross.sol\":13029:13043  !_initializing */\n  iszero\n    /* \"contract/myProject/CNRC_V2/V2_CNRedCross.sol\":13021:13087  require(!_initializing, \"Initializable: contract is initializing\") */\n  tag_8\n  jumpi\n  mload(0x40)\n  0x08c379a000000000000000000000000000000000000000000000000000000000\n  dup2\n  mstore\n  0x04\n  add\n  tag_9\n  swap1\n  tag_10\n  jump\t// in\ntag_9:\n  mload(0x40)\n  dup1\n  swap2\n  sub\n  swap1\n  revert\ntag_8:\n    /* \"contract/myProject/CNRC_V2/V2_CNRedCross.sol\":13117:13132  type(uint8).max */\n  0xff\n    /* \"contract/myProject/CNRC_V2/V2_CNRedCross.sol\":13102:13132  _initialized < type(uint8).max */\n  dup1\n  and\n    /* \"contract/myProject/CNRC_V2/V2_CNRedCross.sol\":13102:13114  _initialized */\n  0x00\n  dup1\n  sload\n  swap1\n  0x0100\n  exp\n  swap1\n  div\n  0xff\n  and\n    /* \"contract/myProject/CNRC_V2/V2_CNRedCross.sol\":13102:13132  _initialized < type(uint8).max */\n  0xff\n  and\n  lt\n    /* \"contract/myProject/CNRC_V2/V2_CNRedCross.sol\":13098:13239  if (_initialized < type(uint8).max) {\r... */\n  iszero\n  tag_11\n  jumpi\n    /* \"contract/myProject/CNRC_V2/V2_CNRedCross.sol\":13164:13179  type(uint8).max */\n  0xff\n    /* \"contract/myProject/CNRC_V2/V2_CNRedCross.sol\":13149:13161  _initialized */\n  0x00\n  dup1\n    /* \"contract/myProject/CNRC_V2/V2_CNRedCross.sol\":13149:13179  _initialized = type(uint8).max */\n  0x0100\n  exp\n  dup2\n  sload\n  dup2\n  0xff\n  mul\n  not\n  and\n  swap1\n  dup4\n  0xff\n  and\n  mul\n  or\n  swap1\n  sstore\n  pop\n    /* \"contract/myProject/CNRC_V2/V2_CNRedCross.sol\":13199:13227  Initialized(type(uint8).max) */\n  0x7f26b83ff96e1f2b6a682f133852f6798a09c465da95921460cefb3847402498\n    /* \"contract/myProject/CNRC_V2/V2_CNRedCross.sol\":13211:13226  type(uint8).max */\n  0xff\n    /* \"contract/myProject/CNRC_V2/V2_CNRedCross.sol\":13199:13227  Initialized(type(uint8).max) */\n  mload(0x40)\n  tag_12\n  swap2\n  swap1\n  tag_13\n  jump\t// in\ntag_12:\n  mload(0x40)\n  dup1\n  swap2\n  sub\n  swap1\n  log1\n    /* \"contract/myProject/CNRC_V2/V2_CNRedCross.sol\":13098:13239  if (_initialized < type(uint8).max) {\r... */\ntag_11:\n    /* \"contract/myProject/CNRC_V2/V2_CNRedCross.sol\":12961:13246  function _disableInitializers() internal virtual {\r... */\n  jump\t// out\n    /* \"#utility.yul\":7:373   */\ntag_15:\n    /* \"#utility.yul\":149:152   */\n  0x00\n    /* \"#utility.yul\":170:237   */\n  tag_17\n    /* \"#utility.yul\":234:236   */\n  0x27\n    /* \"#utility.yul\":229:232   */\n  dup4\n    /* \"#utility.yul\":170:237   */\n  tag_18\n  jump\t// in\ntag_17:\n    /* \"#utility.yul\":163:237   */\n  swap2\n  pop\n    /* \"#utility.yul\":246:339   */\n  tag_19\n    /* \"#utility.yul\":335:338   */\n  dup3\n    /* \"#utility.yul\":246:339   */\n  tag_20\n  jump\t// in\ntag_19:\n    /* \"#utility.yul\":364:366   */\n  0x40\n    /* \"#utility.yul\":359:362   */\n  dup3\n    /* \"#utility.yul\":355:367   */\n  add\n    /* \"#utility.yul\":348:367   */\n  swap1\n  pop\n    /* \"#utility.yul\":7:373   */\n  swap2\n  swap1\n  pop\n  jump\t// out\n    /* \"#utility.yul\":379:491   */\ntag_21:\n    /* \"#utility.yul\":462:484   */\n  tag_23\n    /* \"#utility.yul\":478:483   */\n  dup2\n    /* \"#utility.yul\":462:484   */\n  tag_24\n  jump\t// in\ntag_23:\n    /* \"#utility.yul\":457:460   */\n  dup3\n    /* \"#utility.yul\":450:485   */\n  mstore\n    /* \"#utility.yul\":379:491   */\n  pop\n  pop\n  jump\t// out\n    /* \"#utility.yul\":497:916   */\ntag_10:\n    /* \"#utility.yul\":663:667   */\n  0x00\n    /* \"#utility.yul\":701:703   */\n  0x20\n    /* \"#utility.yul\":690:699   */\n  dup3\n    /* \"#utility.yul\":686:704   */\n  add\n    /* \"#utility.yul\":678:704   */\n  swap1\n  pop\n    /* \"#utility.yul\":750:759   */\n  dup2\n    /* \"#utility.yul\":744:748   */\n  dup2\n    /* \"#utility.yul\":740:760   */\n  sub\n    /* \"#utility.yul\":736:737   */\n  0x00\n    /* \"#utility.yul\":725:734   */\n  dup4\n    /* \"#utility.yul\":721:738   */\n  add\n    /* \"#utility.yul\":714:761   */\n  mstore\n    /* \"#utility.yul\":778:909   */\n  tag_26\n    /* \"#utility.yul\":904:908   */\n  dup2\n    /* \"#utility.yul\":778:909   */\n  tag_15\n  jump\t// in\ntag_26:\n    /* \"#utility.yul\":770:909   */\n  swap1\n  pop\n    /* \"#utility.yul\":497:916   */\n  swap2\n  swap1\n  pop\n  jump\t// out\n    /* \"#utility.yul\":922:1136   */\ntag_13:\n    /* \"#utility.yul\":1011:1015   */\n  0x00\n    /* \"#utility.yul\":1049:1051   */\n  0x20\n    /* \"#utility.yul\":1038:1047   */\n  dup3\n    /* \"#utility.yul\":1034:1052   */\n  add\n    /* \"#utility.yul\":1026:1052   */\n  swap1\n  pop\n    /* \"#utility.yul\":1062:1129   */\n  tag_28\n    /* \"#utility.yul\":1126:1127   */\n  0x00\n    /* \"#utility.yul\":1115:1124   */\n  dup4\n    /* \"#utility.yul\":1111:1128   */\n  add\n    /* \"#utility.yul\":1102:1108   */\n  dup5\n    /* \"#utility.yul\":1062:1129   */\n  tag_21\n  jump\t// in\ntag_28:\n    /* \"#utility.yul\":922:1136   */\n  swap3\n  swap2\n  pop\n  pop\n  jump\t// out\n    /* \"#utility.yul\":1142:1311   */\ntag_18:\n    /* \"#utility.yul\":1226:1237   */\n  0x00\n    /* \"#utility.yul\":1260:1266   */\n  dup3\n    /* \"#utility.yul\":1255:1258   */\n  dup3\n    /* \"#utility.yul\":1248:1267   */\n  mstore\n    /* \"#utility.yul\":1300:1304   */\n  0x20\n    /* \"#utility.yul\":1295:1298   */\n  dup3\n    /* \"#utility.yul\":1291:1305   */\n  add\n    /* \"#utility.yul\":1276:1305   */\n  swap1\n  pop\n    /* \"#utility.yul\":1142:1311   */\n  swap3\n  swap2\n  pop\n  pop\n  jump\t// out\n    /* \"#utility.yul\":1317:1403   */\ntag_24:\n    /* \"#utility.yul\":1352:1359   */\n  0x00\n    /* \"#utility.yul\":1392:1396   */\n  0xff\n    /* \"#utility.yul\":1385:1390   */\n  dup3\n    /* \"#utility.yul\":1381:1397   */\n  and\n    /* \"#utility.yul\":1370:1397   */\n  swap1\n  pop\n    /* \"#utility.yul\":1317:1403   */\n  swap2\n  swap1\n  pop\n  jump\t// out\n    /* \"#utility.yul\":1409:1635   */\ntag_20:\n    /* \"#utility.yul\":1549:1583   */\n  0x496e697469616c697a61626c653a20636f6e747261637420697320696e697469\n    /* \"#utility.yul\":1545:1546   */\n  0x00\n    /* \"#utility.yul\":1537:1543   */\n  dup3\n    /* \"#utility.yul\":1533:1547   */\n  add\n    /* \"#utility.yul\":1526:1584   */\n  mstore\n    /* \"#utility.yul\":1618:1627   */\n  0x616c697a696e6700000000000000000000000000000000000000000000000000\n    /* \"#utility.yul\":1613:1615   */\n  0x20\n    /* \"#utility.yul\":1605:1611   */\n  dup3\n    /* \"#utility.yul\":1601:1616   */\n  add\n    /* \"#utility.yul\":1594:1628   */\n  mstore\n    /* \"#utility.yul\":1409:1635   */\n  pop\n  jump\t// out\n    /* \"contract/myProject/CNRC_V2/V2_CNRedCross.sol\":35659:36358  contract CNRedCrossUpgradeable is Initializable, ERC20Upgradeable, OwnableUpgradeable, UUPSUpgradeable{\r... */\ntag_6:\n  shr(0x60, mload(0x80))\n  codecopy(0x00, dataOffset(sub_0), dataSize(sub_0))\n  0x00\n  assignImmutable(\"0x73c522618c20933f5fa3ae5b02e92f7378fc54c8e43b084b321268c5e5c99f05\")\n  return(0x00, dataSize(sub_0))\nstop\n\nsub_0: assembly {\n        /* \"contract/myProject/CNRC_V2/V2_CNRedCross.sol\":35659:36358  contract CNRedCrossUpgradeable is Initializable, ERC20Upgradeable, OwnableUpgradeable, UUPSUpgradeable{\r... */\n      mstore(0x40, 0x80)\n      jumpi(tag_1, lt(calldatasize, 0x04))\n      shr(0xe0, calldataload(0x00))\n      dup1\n      0x52d1902d\n      gt\n      tag_21\n      jumpi\n      dup1\n      0xa457c2d7\n      gt\n      tag_22\n      jumpi\n      dup1\n      0xa457c2d7\n      eq\n      tag_16\n      jumpi\n      dup1\n      0xa9059cbb\n      eq\n      tag_17\n      jumpi\n      dup1\n      0xb119490e\n      eq\n      tag_18\n      jumpi\n      dup1\n      0xdd62ed3e\n      eq\n      tag_19\n      jumpi\n      dup1\n      0xf2fde38b\n      eq\n      tag_20\n      jumpi\n      jump(tag_1)\n    tag_22:\n      dup1\n      0x52d1902d\n      eq\n      tag_11\n      jumpi\n      dup1\n      0x70a08231\n      eq\n      tag_12\n      jumpi\n      dup1\n      0x715018a6\n      eq\n      tag_13\n      jumpi\n      dup1\n      0x8da5cb5b\n      eq\n      tag_14\n      jumpi\n      dup1\n      0x95d89b41\n      eq\n      tag_15\n      jumpi\n      jump(tag_1)\n    tag_21:\n      dup1\n      0x313ce567\n      gt\n      tag_23\n      jumpi\n      dup1\n      0x313ce567\n      eq\n      tag_6\n      jumpi\n      dup1\n      0x3659cfe6\n      eq\n      tag_7\n      jumpi\n      dup1\n      0x39509351\n      eq\n      tag_8\n      jumpi\n      dup1\n      0x40c10f19\n      eq\n      tag_9\n      jumpi\n      dup1\n      0x4f1ef286\n      eq\n      tag_10\n      jumpi\n      jump(tag_1)\n    tag_23:\n      dup1\n      0x06fdde03\n      eq\n      tag_2\n      jumpi\n      dup1\n      0x095ea7b3\n      eq\n      tag_3\n      jumpi\n      dup1\n      0x18160ddd\n      eq\n      tag_4\n      jumpi\n      dup1\n      0x23b872dd\n      eq\n      tag_5\n      jumpi\n    tag_1:\n      0x00\n      dup1\n      revert\n        /* \"contract/myProject/CNRC_V2/V2_CNRedCross.sol\":15349:15449  function name() public view virtual override returns (string memory) {\r... */\n    tag_2:\n      callvalue\n      dup1\n      iszero\n      tag_24\n      jumpi\n      0x00\n      dup1\n      revert\n    tag_24:\n      pop\n      tag_25\n      tag_26\n      jump\t// in\n    tag_25:\n      mload(0x40)\n      tag_27\n      swap2\n      swap1\n      tag_28\n      jump\t// in\n    tag_27:\n      mload(0x40)\n      dup1\n      swap2\n      sub\n      swap1\n      return\n        /* \"contract/myProject/CNRC_V2/V2_CNRedCross.sol\":16281:16482  function approve(address spender, uint256 amount) public virtual override returns (bool) {\r... */\n    tag_3:\n      callvalue\n      dup1\n      iszero\n      tag_29\n      jumpi\n      0x00\n      dup1\n      revert\n    tag_29:\n      pop\n      tag_30\n      0x04\n      dup1\n      calldatasize\n      sub\n      dup2\n      add\n      swap1\n      tag_31\n      swap2\n      swap1\n      tag_32\n      jump\t// in\n    tag_31:\n      tag_33\n      jump\t// in\n    tag_30:\n      mload(0x40)\n      tag_34\n      swap2\n      swap1\n      tag_35\n      jump\t// in\n    tag_34:\n      mload(0x40)\n      dup1\n      swap2\n      sub\n      swap1\n      return\n        /* \"contract/myProject/CNRC_V2/V2_CNRedCross.sol\":15670:15778  function totalSupply() public view virtual override returns (uint256) {\r... */\n    tag_4:\n      callvalue\n      dup1\n      iszero\n      tag_36\n      jumpi\n      0x00\n      dup1\n      revert\n    tag_36:\n      pop\n      tag_37\n      tag_38\n      jump\t// in\n    tag_37:\n      mload(0x40)\n      tag_39\n      swap2\n      swap1\n      tag_40\n      jump\t// in\n    tag_39:\n      mload(0x40)\n      dup1\n      swap2\n      sub\n      swap1\n      return\n        /* \"contract/myProject/CNRC_V2/V2_CNRedCross.sol\":16490:16785  function transferFrom(\r... */\n    tag_5:\n      callvalue\n      dup1\n      iszero\n      tag_41\n      jumpi\n      0x00\n      dup1\n      revert\n    tag_41:\n      pop\n      tag_42\n      0x04\n      dup1\n      calldatasize\n      sub\n      dup2\n      add\n      swap1\n      tag_43\n      swap2\n      swap1\n      tag_44\n      jump\t// in\n    tag_43:\n      tag_45\n      jump\t// in\n    tag_42:\n      mload(0x40)\n      tag_46\n      swap2\n      swap1\n      tag_35\n      jump\t// in\n    tag_46:\n      mload(0x40)\n      dup1\n      swap2\n      sub\n      swap1\n      return\n        /* \"contract/myProject/CNRC_V2/V2_CNRedCross.sol\":15569:15662  function decimals() public view virtual override returns (uint8) {\r... */\n    tag_6:\n      callvalue\n      dup1\n      iszero\n      tag_47\n      jumpi\n      0x00\n      dup1\n      revert\n    tag_47:\n      pop\n      tag_48\n      tag_49\n      jump\t// in\n    tag_48:\n      mload(0x40)\n      tag_50\n      swap2\n      swap1\n      tag_51\n      jump\t// in\n    tag_50:\n      mload(0x40)\n      dup1\n      swap2\n      sub\n      swap1\n      return\n        /* \"contract/myProject/CNRC_V2/V2_CNRedCross.sol\":33612:33812  function upgradeTo(address newImplementation) external virtual onlyProxy {\r... */\n    tag_7:\n      callvalue\n      dup1\n      iszero\n      tag_52\n      jumpi\n      0x00\n      dup1\n      revert\n    tag_52:\n      pop\n      tag_53\n      0x04\n      dup1\n      calldatasize\n      sub\n      dup2\n      add\n      swap1\n      tag_54\n      swap2\n      swap1\n      tag_55\n      jump\t// in\n    tag_54:\n      tag_56\n      jump\t// in\n    tag_53:\n      stop\n        /* \"contract/myProject/CNRC_V2/V2_CNRedCross.sol\":16793:17031  function increaseAllowance(address spender, uint256 addedValue) public virtual returns (bool) {\r... */\n    tag_8:\n      callvalue\n      dup1\n      iszero\n      tag_57\n      jumpi\n      0x00\n      dup1\n      revert\n    tag_57:\n      pop\n      tag_58\n      0x04\n      dup1\n      calldatasize\n      sub\n      dup2\n      add\n      swap1\n      tag_59\n      swap2\n      swap1\n      tag_32\n      jump\t// in\n    tag_59:\n      tag_60\n      jump\t// in\n    tag_58:\n      mload(0x40)\n      tag_61\n      swap2\n      swap1\n      tag_35\n      jump\t// in\n    tag_61:\n      mload(0x40)\n      dup1\n      swap2\n      sub\n      swap1\n      return\n        /* \"contract/myProject/CNRC_V2/V2_CNRedCross.sol\":36164:36258  function mint(address to, uint256 amount) public onlyOwner{\r... */\n    tag_9:\n      callvalue\n      dup1\n      iszero\n      tag_62\n      jumpi\n      0x00\n      dup1\n      revert\n    tag_62:\n      pop\n      tag_63\n      0x04\n      dup1\n      calldatasize\n      sub\n      dup2\n      add\n      swap1\n      tag_64\n      swap2\n      swap1\n      tag_32\n      jump\t// in\n    tag_64:\n      tag_65\n      jump\t// in\n    tag_63:\n      stop\n        /* \"contract/myProject/CNRC_V2/V2_CNRedCross.sol\":34071:34296  function upgradeToAndCall(address newImplementation, bytes memory data) external payable virtual onlyProxy {\r... */\n    tag_10:\n      tag_66\n      0x04\n      dup1\n      calldatasize\n      sub\n      dup2\n      add\n      swap1\n      tag_67\n      swap2\n      swap1\n      tag_68\n      jump\t// in\n    tag_67:\n      tag_69\n      jump\t// in\n    tag_66:\n      stop\n        /* \"contract/myProject/CNRC_V2/V2_CNRedCross.sol\":33290:33423  function proxiableUUID() external view virtual override notDelegated returns (bytes32) {\r... */\n    tag_11:\n      callvalue\n      dup1\n      iszero\n      tag_70\n      jumpi\n      0x00\n      dup1\n      revert\n    tag_70:\n      pop\n      tag_71\n      tag_72\n      jump\t// in\n    tag_71:\n      mload(0x40)\n      tag_73\n      swap2\n      swap1\n      tag_74\n      jump\t// in\n    tag_73:\n      mload(0x40)\n      dup1\n      swap2\n      sub\n      swap1\n      return\n        /* \"contract/myProject/CNRC_V2/V2_CNRedCross.sol\":15786:15913  function balanceOf(address account) public view virtual override returns (uint256) {\r... */\n    tag_12:\n      callvalue\n      dup1\n      iszero\n      tag_75\n      jumpi\n      0x00\n      dup1\n      revert\n    tag_75:\n      pop\n      tag_76\n      0x04\n      dup1\n      calldatasize\n      sub\n      dup2\n      add\n      swap1\n      tag_77\n      swap2\n      swap1\n      tag_55\n      jump\t// in\n    tag_77:\n      tag_78\n      jump\t// in\n    tag_76:\n      mload(0x40)\n      tag_79\n      swap2\n      swap1\n      tag_40\n      jump\t// in\n    tag_79:\n      mload(0x40)\n      dup1\n      swap2\n      sub\n      swap1\n      return\n        /* \"contract/myProject/CNRC_V2/V2_CNRedCross.sol\":21455:21558  function renounceOwnership() public virtual onlyOwner {\r... */\n    tag_13:\n      callvalue\n      dup1\n      iszero\n      tag_80\n      jumpi\n      0x00\n      dup1\n      revert\n    tag_80:\n      pop\n      tag_81\n      tag_82\n      jump\t// in\n    tag_81:\n      stop\n        /* \"contract/myProject/CNRC_V2/V2_CNRedCross.sol\":21220:21307  function owner() public view virtual returns (address) {\r... */\n    tag_14:\n      callvalue\n      dup1\n      iszero\n      tag_83\n      jumpi\n      0x00\n      dup1\n      revert\n    tag_83:\n      pop\n      tag_84\n      tag_85\n      jump\t// in\n    tag_84:\n      mload(0x40)\n      tag_86\n      swap2\n      swap1\n      tag_87\n      jump\t// in\n    tag_86:\n      mload(0x40)\n      dup1\n      swap2\n      sub\n      swap1\n      return\n        /* \"contract/myProject/CNRC_V2/V2_CNRedCross.sol\":15457:15561  function symbol() public view virtual override returns (string memory) {\r... */\n    tag_15:\n      callvalue\n      dup1\n      iszero\n      tag_88\n      jumpi\n      0x00\n      dup1\n      revert\n    tag_88:\n      pop\n      tag_89\n      tag_90\n      jump\t// in\n    tag_89:\n      mload(0x40)\n      tag_91\n      swap2\n      swap1\n      tag_28\n      jump\t// in\n    tag_91:\n      mload(0x40)\n      dup1\n      swap2\n      sub\n      swap1\n      return\n        /* \"contract/myProject/CNRC_V2/V2_CNRedCross.sol\":17039:17475  function decreaseAllowance(address spender, uint256 subtractedValue) public virtual returns (bool) {\r... */\n    tag_16:\n      callvalue\n      dup1\n      iszero\n      tag_92\n      jumpi\n      0x00\n      dup1\n      revert\n    tag_92:\n      pop\n      tag_93\n      0x04\n      dup1\n      calldatasize\n      sub\n      dup2\n      add\n      swap1\n      tag_94\n      swap2\n      swap1\n      tag_32\n      jump\t// in\n    tag_94:\n      tag_95\n      jump\t// in\n    tag_93:\n      mload(0x40)\n      tag_96\n      swap2\n      swap1\n      tag_35\n      jump\t// in\n    tag_96:\n      mload(0x40)\n      dup1\n      swap2\n      sub\n      swap1\n      return\n        /* \"contract/myProject/CNRC_V2/V2_CNRedCross.sol\":15921:16114  function transfer(address to, uint256 amount) public virtual override returns (bool) {\r... */\n    tag_17:\n      callvalue\n      dup1\n      iszero\n      tag_97\n      jumpi\n      0x00\n      dup1\n      revert\n    tag_97:\n      pop\n      tag_98\n      0x04\n      dup1\n      calldatasize\n      sub\n      dup2\n      add\n      swap1\n      tag_99\n      swap2\n      swap1\n      tag_32\n      jump\t// in\n    tag_99:\n      tag_100\n      jump\t// in\n    tag_98:\n      mload(0x40)\n      tag_101\n      swap2\n      swap1\n      tag_35\n      jump\t// in\n    tag_101:\n      mload(0x40)\n      dup1\n      swap2\n      sub\n      swap1\n      return\n        /* \"contract/myProject/CNRC_V2/V2_CNRedCross.sol\":35836:36156  function initialize(\r... */\n    tag_18:\n      callvalue\n      dup1\n      iszero\n      tag_102\n      jumpi\n      0x00\n      dup1\n      revert\n    tag_102:\n      pop\n      tag_103\n      0x04\n      dup1\n      calldatasize\n      sub\n      dup2\n      add\n      swap1\n      tag_104\n      swap2\n      swap1\n      tag_105\n      jump\t// in\n    tag_104:\n      tag_106\n      jump\t// in\n    tag_103:\n      stop\n        /* \"contract/myProject/CNRC_V2/V2_CNRedCross.sol\":16122:16273  function allowance(address owner, address spender) public view virtual override returns (uint256) {\r... */\n    tag_19:\n      callvalue\n      dup1\n      iszero\n      tag_107\n      jumpi\n      0x00\n      dup1\n      revert\n    tag_107:\n      pop\n      tag_108\n      0x04\n      dup1\n      calldatasize\n      sub\n      dup2\n      add\n      swap1\n      tag_109\n      swap2\n      swap1\n      tag_110\n      jump\t// in\n    tag_109:\n      tag_111\n      jump\t// in\n    tag_108:\n      mload(0x40)\n      tag_112\n      swap2\n      swap1\n      tag_40\n      jump\t// in\n    tag_112:\n      mload(0x40)\n      dup1\n      swap2\n      sub\n      swap1\n      return\n        /* \"contract/myProject/CNRC_V2/V2_CNRedCross.sol\":21566:21767  function transferOwnership(address newOwner) public virtual onlyOwner {\r... */\n    tag_20:\n      callvalue\n      dup1\n      iszero\n      tag_113\n      jumpi\n      0x00\n      dup1\n      revert\n    tag_113:\n      pop\n      tag_114\n      0x04\n      dup1\n      calldatasize\n      sub\n      dup2\n      add\n      swap1\n      tag_115\n      swap2\n      swap1\n      tag_55\n      jump\t// in\n    tag_115:\n      tag_116\n      jump\t// in\n    tag_114:\n      stop\n        /* \"contract/myProject/CNRC_V2/V2_CNRedCross.sol\":15349:15449  function name() public view virtual override returns (string memory) {\r... */\n    tag_26:\n        /* \"contract/myProject/CNRC_V2/V2_CNRedCross.sol\":15403:15416  string memory */\n      0x60\n        /* \"contract/myProject/CNRC_V2/V2_CNRedCross.sol\":15436:15441  _name */\n      0x36\n        /* \"contract/myProject/CNRC_V2/V2_CNRedCross.sol\":15429:15441  return _name */\n      dup1\n      sload\n      tag_118\n      swap1\n      tag_119\n      jump\t// in\n    tag_118:\n      dup1\n      0x1f\n      add\n      0x20\n      dup1\n      swap2\n      div\n      mul\n      0x20\n      add\n      mload(0x40)\n      swap1\n      dup2\n      add\n      0x40\n      mstore\n      dup1\n      swap3\n      swap2\n      swap1\n      dup2\n      dup2\n      mstore\n      0x20\n      add\n      dup3\n      dup1\n      sload\n      tag_120\n      swap1\n      tag_119\n      jump\t// in\n    tag_120:\n      dup1\n      iszero\n      tag_121\n      jumpi\n      dup1\n      0x1f\n      lt\n      tag_122\n      jumpi\n      0x0100\n      dup1\n      dup4\n      sload\n      div\n      mul\n      dup4\n      mstore\n      swap2\n      0x20\n      add\n      swap2\n      jump(tag_121)\n    tag_122:\n      dup3\n      add\n      swap2\n      swap1\n      0x00\n      mstore\n      keccak256(0x00, 0x20)\n      swap1\n    tag_123:\n      dup2\n      sload\n      dup2\n      mstore\n      swap1\n      0x01\n      add\n      swap1\n      0x20\n      add\n      dup1\n      dup4\n      gt\n      tag_123\n      jumpi\n      dup3\n      swap1\n      sub\n      0x1f\n      and\n      dup3\n      add\n      swap2\n    tag_121:\n      pop\n      pop\n      pop\n      pop\n      pop\n      swap1\n      pop\n        /* \"contract/myProject/CNRC_V2/V2_CNRedCross.sol\":15349:15449  function name() public view virtual override returns (string memory) {\r... */\n      swap1\n      jump\t// out\n        /* \"contract/myProject/CNRC_V2/V2_CNRedCross.sol\":16281:16482  function approve(address spender, uint256 amount) public virtual override returns (bool) {\r... */\n    tag_33:\n        /* \"contract/myProject/CNRC_V2/V2_CNRedCross.sol\":16364:16368  bool */\n      0x00\n        /* \"contract/myProject/CNRC_V2/V2_CNRedCross.sol\":16381:16394  address owner */\n      dup1\n        /* \"contract/myProject/CNRC_V2/V2_CNRedCross.sol\":16397:16409  _msgSender() */\n      tag_125\n        /* \"contract/myProject/CNRC_V2/V2_CNRedCross.sol\":16397:16407  _msgSender */\n      tag_126\n        /* \"contract/myProject/CNRC_V2/V2_CNRedCross.sol\":16397:16409  _msgSender() */\n      jump\t// in\n    tag_125:\n        /* \"contract/myProject/CNRC_V2/V2_CNRedCross.sol\":16381:16409  address owner = _msgSender() */\n      swap1\n      pop\n        /* \"contract/myProject/CNRC_V2/V2_CNRedCross.sol\":16420:16452  _approve(owner, spender, amount) */\n      tag_127\n        /* \"contract/myProject/CNRC_V2/V2_CNRedCross.sol\":16429:16434  owner */\n      dup2\n        /* \"contract/myProject/CNRC_V2/V2_CNRedCross.sol\":16436:16443  spender */\n      dup6\n        /* \"contract/myProject/CNRC_V2/V2_CNRedCross.sol\":16445:16451  amount */\n      dup6\n        /* \"contract/myProject/CNRC_V2/V2_CNRedCross.sol\":16420:16428  _approve */\n      tag_128\n        /* \"contract/myProject/CNRC_V2/V2_CNRedCross.sol\":16420:16452  _approve(owner, spender, amount) */\n      jump\t// in\n    tag_127:\n        /* \"contract/myProject/CNRC_V2/V2_CNRedCross.sol\":16470:16474  true */\n      0x01\n        /* \"contract/myProject/CNRC_V2/V2_CNRedCross.sol\":16463:16474  return true */\n      swap2\n      pop\n      pop\n        /* \"contract/myProject/CNRC_V2/V2_CNRedCross.sol\":16281:16482  function approve(address spender, uint256 amount) public virtual override returns (bool) {\r... */\n      swap3\n      swap2\n      pop\n      pop\n      jump\t// out\n        /* \"contract/myProject/CNRC_V2/V2_CNRedCross.sol\":15670:15778  function totalSupply() public view virtual override returns (uint256) {\r... */\n    tag_38:\n        /* \"contract/myProject/CNRC_V2/V2_CNRedCross.sol\":15731:15738  uint256 */\n      0x00\n        /* \"contract/myProject/CNRC_V2/V2_CNRedCross.sol\":15758:15770  _totalSupply */\n      sload(0x35)\n        /* \"contract/myProject/CNRC_V2/V2_CNRedCross.sol\":15751:15770  return _totalSupply */\n      swap1\n      pop\n        /* \"contract/myProject/CNRC_V2/V2_CNRedCross.sol\":15670:15778  function totalSupply() public view virtual override returns (uint256) {\r... */\n      swap1\n      jump\t// out\n        /* \"contract/myProject/CNRC_V2/V2_CNRedCross.sol\":16490:16785  function transferFrom(\r... */\n    tag_45:\n        /* \"contract/myProject/CNRC_V2/V2_CNRedCross.sol\":16621:16625  bool */\n      0x00\n        /* \"contract/myProject/CNRC_V2/V2_CNRedCross.sol\":16638:16653  address spender */\n      dup1\n        /* \"contract/myProject/CNRC_V2/V2_CNRedCross.sol\":16656:16668  _msgSender() */\n      tag_131\n        /* \"contract/myProject/CNRC_V2/V2_CNRedCross.sol\":16656:16666  _msgSender */\n      tag_126\n        /* \"contract/myProject/CNRC_V2/V2_CNRedCross.sol\":16656:16668  _msgSender() */\n      jump\t// in\n    tag_131:\n        /* \"contract/myProject/CNRC_V2/V2_CNRedCross.sol\":16638:16668  address spender = _msgSender() */\n      swap1\n      pop\n        /* \"contract/myProject/CNRC_V2/V2_CNRedCross.sol\":16679:16717  _spendAllowance(from, spender, amount) */\n      tag_132\n        /* \"contract/myProject/CNRC_V2/V2_CNRedCross.sol\":16695:16699  from */\n      dup6\n        /* \"contract/myProject/CNRC_V2/V2_CNRedCross.sol\":16701:16708  spender */\n      dup3\n        /* \"contract/myProject/CNRC_V2/V2_CNRedCross.sol\":16710:16716  amount */\n      dup6\n        /* \"contract/myProject/CNRC_V2/V2_CNRedCross.sol\":16679:16694  _spendAllowance */\n      tag_133\n        /* \"contract/myProject/CNRC_V2/V2_CNRedCross.sol\":16679:16717  _spendAllowance(from, spender, amount) */\n      jump\t// in\n    tag_132:\n        /* \"contract/myProject/CNRC_V2/V2_CNRedCross.sol\":16728:16755  _transfer(from, to, amount) */\n      tag_134\n        /* \"contract/myProject/CNRC_V2/V2_CNRedCross.sol\":16738:16742  from */\n      dup6\n        /* \"contract/myProject/CNRC_V2/V2_CNRedCross.sol\":16744:16746  to */\n      dup6\n        /* \"contract/myProject/CNRC_V2/V2_CNRedCross.sol\":16748:16754  amount */\n      dup6\n        /* \"contract/myProject/CNRC_V2/V2_CNRedCross.sol\":16728:16737  _transfer */\n      tag_135\n        /* \"contract/myProject/CNRC_V2/V2_CNRedCross.sol\":16728:16755  _transfer(from, to, amount) */\n      jump\t// in\n    tag_134:\n        /* \"contract/myProject/CNRC_V2/V2_CNRedCross.sol\":16773:16777  true */\n      0x01\n        /* \"contract/myProject/CNRC_V2/V2_CNRedCross.sol\":16766:16777  return true */\n      swap2\n      pop\n      pop\n        /* \"contract/myProject/CNRC_V2/V2_CNRedCross.sol\":16490:16785  function transferFrom(\r... */\n      swap4\n      swap3\n      pop\n      pop\n      pop\n      jump\t// out\n        /* \"contract/myProject/CNRC_V2/V2_CNRedCross.sol\":15569:15662  function decimals() public view virtual override returns (uint8) {\r... */\n    tag_49:\n        /* \"contract/myProject/CNRC_V2/V2_CNRedCross.sol\":15627:15632  uint8 */\n      0x00\n        /* \"contract/myProject/CNRC_V2/V2_CNRedCross.sol\":15652:15654  18 */\n      0x12\n        /* \"contract/myProject/CNRC_V2/V2_CNRedCross.sol\":15645:15654  return 18 */\n      swap1\n      pop\n        /* \"contract/myProject/CNRC_V2/V2_CNRedCross.sol\":15569:15662  function decimals() public view virtual override returns (uint8) {\r... */\n      swap1\n      jump\t// out\n        /* \"contract/myProject/CNRC_V2/V2_CNRedCross.sol\":33612:33812  function upgradeTo(address newImplementation) external virtual onlyProxy {\r... */\n    tag_56:\n        /* \"contract/myProject/CNRC_V2/V2_CNRedCross.sol\":32162:32168  __self */\n      immutable(\"0x73c522618c20933f5fa3ae5b02e92f7378fc54c8e43b084b321268c5e5c99f05\")\n        /* \"contract/myProject/CNRC_V2/V2_CNRedCross.sol\":32145:32168  address(this) != __self */\n      0xffffffffffffffffffffffffffffffffffffffff\n      and\n        /* \"contract/myProject/CNRC_V2/V2_CNRedCross.sol\":32153:32157  this */\n      address\n        /* \"contract/myProject/CNRC_V2/V2_CNRedCross.sol\":32145:32168  address(this) != __self */\n      0xffffffffffffffffffffffffffffffffffffffff\n      and\n      eq\n      iszero\n        /* \"contract/myProject/CNRC_V2/V2_CNRedCross.sol\":32137:32217  require(address(this) != __self, \"Function must be called through delegatecall\") */\n      tag_138\n      jumpi\n      mload(0x40)\n      0x08c379a000000000000000000000000000000000000000000000000000000000\n      dup2\n      mstore\n      0x04\n      add\n      tag_139\n      swap1\n      tag_140\n      jump\t// in\n    tag_139:\n      mload(0x40)\n      dup1\n      swap2\n      sub\n      swap1\n      revert\n    tag_138:\n        /* \"contract/myProject/CNRC_V2/V2_CNRedCross.sol\":32260:32266  __self */\n      immutable(\"0x73c522618c20933f5fa3ae5b02e92f7378fc54c8e43b084b321268c5e5c99f05\")\n        /* \"contract/myProject/CNRC_V2/V2_CNRedCross.sol\":32236:32266  _getImplementation() == __self */\n      0xffffffffffffffffffffffffffffffffffffffff\n      and\n        /* \"contract/myProject/CNRC_V2/V2_CNRedCross.sol\":32236:32256  _getImplementation() */\n      tag_141\n        /* \"contract/myProject/CNRC_V2/V2_CNRedCross.sol\":32236:32254  _getImplementation */\n      tag_142\n        /* \"contract/myProject/CNRC_V2/V2_CNRedCross.sol\":32236:32256  _getImplementation() */\n      jump\t// in\n    tag_141:\n        /* \"contract/myProject/CNRC_V2/V2_CNRedCross.sol\":32236:32266  _getImplementation() == __self */\n      0xffffffffffffffffffffffffffffffffffffffff\n      and\n      eq\n        /* \"contract/myProject/CNRC_V2/V2_CNRedCross.sol\":32228:32315  require(_getImplementation() == __self, \"Function must be called through active proxy\") */\n      tag_143\n      jumpi\n      mload(0x40)\n      0x08c379a000000000000000000000000000000000000000000000000000000000\n      dup2\n      mstore\n      0x04\n      add\n      tag_144\n      swap1\n      tag_145\n      jump\t// in\n    tag_144:\n      mload(0x40)\n      dup1\n      swap2\n      sub\n      swap1\n      revert\n    tag_143:\n        /* \"contract/myProject/CNRC_V2/V2_CNRedCross.sol\":33696:33732  _authorizeUpgrade(newImplementation) */\n      tag_147\n        /* \"contract/myProject/CNRC_V2/V2_CNRedCross.sol\":33714:33731  newImplementation */\n      dup2\n        /* \"contract/myProject/CNRC_V2/V2_CNRedCross.sol\":33696:33713  _authorizeUpgrade */\n      tag_148\n        /* \"contract/myProject/CNRC_V2/V2_CNRedCross.sol\":33696:33732  _authorizeUpgrade(newImplementation) */\n      jump\t// in\n    tag_147:\n        /* \"contract/myProject/CNRC_V2/V2_CNRedCross.sol\":33743:33804  _upgradeToAndCallUUPS(newImplementation, new bytes(0), false) */\n      tag_149\n        /* \"contract/myProject/CNRC_V2/V2_CNRedCross.sol\":33765:33782  newImplementation */\n      dup2\n        /* \"contract/myProject/CNRC_V2/V2_CNRedCross.sol\":33794:33795  0 */\n      0x00\n        /* \"contract/myProject/CNRC_V2/V2_CNRedCross.sol\":33784:33796  new bytes(0) */\n      0xffffffffffffffff\n      dup2\n      gt\n      iszero\n      tag_150\n      jumpi\n      tag_151\n      tag_152\n      jump\t// in\n    tag_151:\n    tag_150:\n      mload(0x40)\n      swap1\n      dup1\n      dup3\n      mstore\n      dup1\n      0x1f\n      add\n      not(0x1f)\n      and\n      0x20\n      add\n      dup3\n      add\n      0x40\n      mstore\n      dup1\n      iszero\n      tag_153\n      jumpi\n      dup2\n      0x20\n      add\n      0x01\n      dup3\n      mul\n      dup1\n      calldatasize\n      dup4\n      calldatacopy\n      dup1\n      dup3\n      add\n      swap2\n      pop\n      pop\n      swap1\n      pop\n    tag_153:\n      pop\n        /* \"contract/myProject/CNRC_V2/V2_CNRedCross.sol\":33798:33803  false */\n      0x00\n        /* \"contract/myProject/CNRC_V2/V2_CNRedCross.sol\":33743:33764  _upgradeToAndCallUUPS */\n      tag_154\n        /* \"contract/myProject/CNRC_V2/V2_CNRedCross.sol\":33743:33804  _upgradeToAndCallUUPS(newImplementation, new bytes(0), false) */\n      jump\t// in\n    tag_149:\n        /* \"contract/myProject/CNRC_V2/V2_CNRedCross.sol\":33612:33812  function upgradeTo(address newImplementation) external virtual onlyProxy {\r... */\n      pop\n      jump\t// out\n        /* \"contract/myProject/CNRC_V2/V2_CNRedCross.sol\":16793:17031  function increaseAllowance(address spender, uint256 addedValue) public virtual returns (bool) {\r... */\n    tag_60:\n        /* \"contract/myProject/CNRC_V2/V2_CNRedCross.sol\":16881:16885  bool */\n      0x00\n        /* \"contract/myProject/CNRC_V2/V2_CNRedCross.sol\":16898:16911  address owner */\n      dup1\n        /* \"contract/myProject/CNRC_V2/V2_CNRedCross.sol\":16914:16926  _msgSender() */\n      tag_156\n        /* \"contract/myProject/CNRC_V2/V2_CNRedCross.sol\":16914:16924  _msgSender */\n      tag_126\n        /* \"contract/myProject/CNRC_V2/V2_CNRedCross.sol\":16914:16926  _msgSender() */\n      jump\t// in\n    tag_156:\n        /* \"contract/myProject/CNRC_V2/V2_CNRedCross.sol\":16898:16926  address owner = _msgSender() */\n      swap1\n      pop\n        /* \"contract/myProject/CNRC_V2/V2_CNRedCross.sol\":16937:17001  _approve(owner, spender, allowance(owner, spender) + addedValue) */\n      tag_157\n        /* \"contract/myProject/CNRC_V2/V2_CNRedCross.sol\":16946:16951  owner */\n      dup2\n        /* \"contract/myProject/CNRC_V2/V2_CNRedCross.sol\":16953:16960  spender */\n      dup6\n        /* \"contract/myProject/CNRC_V2/V2_CNRedCross.sol\":16990:17000  addedValue */\n      dup6\n        /* \"contract/myProject/CNRC_V2/V2_CNRedCross.sol\":16962:16987  allowance(owner, spender) */\n      tag_158\n        /* \"contract/myProject/CNRC_V2/V2_CNRedCross.sol\":16972:16977  owner */\n      dup6\n        /* \"contract/myProject/CNRC_V2/V2_CNRedCross.sol\":16979:16986  spender */\n      dup10\n        /* \"contract/myProject/CNRC_V2/V2_CNRedCross.sol\":16962:16971  allowance */\n      tag_111\n        /* \"contract/myProject/CNRC_V2/V2_CNRedCross.sol\":16962:16987  allowance(owner, spender) */\n      jump\t// in\n    tag_158:\n        /* \"contract/myProject/CNRC_V2/V2_CNRedCross.sol\":16962:17000  allowance(owner, spender) + addedValue */\n      tag_159\n      swap2\n      swap1\n      tag_160\n      jump\t// in\n    tag_159:\n        /* \"contract/myProject/CNRC_V2/V2_CNRedCross.sol\":16937:16945  _approve */\n      tag_128\n        /* \"contract/myProject/CNRC_V2/V2_CNRedCross.sol\":16937:17001  _approve(owner, spender, allowance(owner, spender) + addedValue) */\n      jump\t// in\n    tag_157:\n        /* \"contract/myProject/CNRC_V2/V2_CNRedCross.sol\":17019:17023  true */\n      0x01\n        /* \"contract/myProject/CNRC_V2/V2_CNRedCross.sol\":17012:17023  return true */\n      swap2\n      pop\n      pop\n        /* \"contract/myProject/CNRC_V2/V2_CNRedCross.sol\":16793:17031  function increaseAllowance(address spender, uint256 addedValue) public virtual returns (bool) {\r... */\n      swap3\n      swap2\n      pop\n      pop\n      jump\t// out\n        /* \"contract/myProject/CNRC_V2/V2_CNRedCross.sol\":36164:36258  function mint(address to, uint256 amount) public onlyOwner{\r... */\n    tag_65:\n        /* \"contract/myProject/CNRC_V2/V2_CNRedCross.sol\":21179:21192  _checkOwner() */\n      tag_162\n        /* \"contract/myProject/CNRC_V2/V2_CNRedCross.sol\":21179:21190  _checkOwner */\n      tag_163\n        /* \"contract/myProject/CNRC_V2/V2_CNRedCross.sol\":21179:21192  _checkOwner() */\n      jump\t// in\n    tag_162:\n        /* \"contract/myProject/CNRC_V2/V2_CNRedCross.sol\":36233:36250  _mint(to, amount) */\n      tag_165\n        /* \"contract/myProject/CNRC_V2/V2_CNRedCross.sol\":36239:36241  to */\n      dup3\n        /* \"contract/myProject/CNRC_V2/V2_CNRedCross.sol\":36243:36249  amount */\n      dup3\n        /* \"contract/myProject/CNRC_V2/V2_CNRedCross.sol\":36233:36238  _mint */\n      tag_166\n        /* \"contract/myProject/CNRC_V2/V2_CNRedCross.sol\":36233:36250  _mint(to, amount) */\n      jump\t// in\n    tag_165:\n        /* \"contract/myProject/CNRC_V2/V2_CNRedCross.sol\":36164:36258  function mint(address to, uint256 amount) public onlyOwner{\r... */\n      pop\n      pop\n      jump\t// out\n        /* \"contract/myProject/CNRC_V2/V2_CNRedCross.sol\":34071:34296  function upgradeToAndCall(address newImplementation, bytes memory data) external payable virtual onlyProxy {\r... */\n    tag_69:\n        /* \"contract/myProject/CNRC_V2/V2_CNRedCross.sol\":32162:32168  __self */\n      immutable(\"0x73c522618c20933f5fa3ae5b02e92f7378fc54c8e43b084b321268c5e5c99f05\")\n        /* \"contract/myProject/CNRC_V2/V2_CNRedCross.sol\":32145:32168  address(this) != __self */\n      0xffffffffffffffffffffffffffffffffffffffff\n      and\n        /* \"contract/myProject/CNRC_V2/V2_CNRedCross.sol\":32153:32157  this */\n      address\n        /* \"contract/myProject/CNRC_V2/V2_CNRedCross.sol\":32145:32168  address(this) != __self */\n      0xffffffffffffffffffffffffffffffffffffffff\n      and\n      eq\n      iszero\n        /* \"contract/myProject/CNRC_V2/V2_CNRedCross.sol\":32137:32217  require(address(this) != __self, \"Function must be called through delegatecall\") */\n      tag_168\n      jumpi\n      mload(0x40)\n      0x08c379a000000000000000000000000000000000000000000000000000000000\n      dup2\n      mstore\n      0x04\n      add\n      tag_169\n      swap1\n      tag_140\n      jump\t// in\n    tag_169:\n      mload(0x40)\n      dup1\n      swap2\n      sub\n      swap1\n      revert\n    tag_168:\n        /* \"contract/myProject/CNRC_V2/V2_CNRedCross.sol\":32260:32266  __self */\n      immutable(\"0x73c522618c20933f5fa3ae5b02e92f7378fc54c8e43b084b321268c5e5c99f05\")\n        /* \"contract/myProject/CNRC_V2/V2_CNRedCross.sol\":32236:32266  _getImplementation() == __self */\n      0xffffffffffffffffffffffffffffffffffffffff\n      and\n        /* \"contract/myProject/CNRC_V2/V2_CNRedCross.sol\":32236:32256  _getImplementation() */\n      tag_170\n        /* \"contract/myProject/CNRC_V2/V2_CNRedCross.sol\":32236:32254  _getImplementation */\n      tag_142\n        /* \"contract/myProject/CNRC_V2/V2_CNRedCross.sol\":32236:32256  _getImplementation() */\n      jump\t// in\n    tag_170:\n        /* \"contract/myProject/CNRC_V2/V2_CNRedCross.sol\":32236:32266  _getImplementation() == __self */\n      0xffffffffffffffffffffffffffffffffffffffff\n      and\n      eq\n        /* \"contract/myProject/CNRC_V2/V2_CNRedCross.sol\":32228:32315  require(_getImplementation() == __self, \"Function must be called through active proxy\") */\n      tag_171\n      jumpi\n      mload(0x40)\n      0x08c379a000000000000000000000000000000000000000000000000000000000\n      dup2\n      mstore\n      0x04\n      add\n      tag_172\n      swap1\n      tag_145\n      jump\t// in\n    tag_172:\n      mload(0x40)\n      dup1\n      swap2\n      sub\n      swap1\n      revert\n    tag_171:\n        /* \"contract/myProject/CNRC_V2/V2_CNRedCross.sol\":34189:34225  _authorizeUpgrade(newImplementation) */\n      tag_174\n        /* \"contract/myProject/CNRC_V2/V2_CNRedCross.sol\":34207:34224  newImplementation */\n      dup3\n        /* \"contract/myProject/CNRC_V2/V2_CNRedCross.sol\":34189:34206  _authorizeUpgrade */\n      tag_148\n        /* \"contract/myProject/CNRC_V2/V2_CNRedCross.sol\":34189:34225  _authorizeUpgrade(newImplementation) */\n      jump\t// in\n    tag_174:\n        /* \"contract/myProject/CNRC_V2/V2_CNRedCross.sol\":34236:34288  _upgradeToAndCallUUPS(newImplementation, data, true) */\n      tag_175\n        /* \"contract/myProject/CNRC_V2/V2_CNRedCross.sol\":34258:34275  newImplementation */\n      dup3\n        /* \"contract/myProject/CNRC_V2/V2_CNRedCross.sol\":34277:34281  data */\n      dup3\n        /* \"contract/myProject/CNRC_V2/V2_CNRedCross.sol\":34283:34287  true */\n      0x01\n        /* \"contract/myProject/CNRC_V2/V2_CNRedCross.sol\":34236:34257  _upgradeToAndCallUUPS */\n      tag_154\n        /* \"contract/myProject/CNRC_V2/V2_CNRedCross.sol\":34236:34288  _upgradeToAndCallUUPS(newImplementation, data, true) */\n      jump\t// in\n    tag_175:\n        /* \"contract/myProject/CNRC_V2/V2_CNRedCross.sol\":34071:34296  function upgradeToAndCall(address newImplementation, bytes memory data) external payable virtual onlyProxy {\r... */\n      pop\n      pop\n      jump\t// out\n        /* \"contract/myProject/CNRC_V2/V2_CNRedCross.sol\":33290:33423  function proxiableUUID() external view virtual override notDelegated returns (bytes32) {\r... */\n    tag_72:\n        /* \"contract/myProject/CNRC_V2/V2_CNRedCross.sol\":33368:33375  bytes32 */\n      0x00\n        /* \"contract/myProject/CNRC_V2/V2_CNRedCross.sol\":32607:32613  __self */\n      immutable(\"0x73c522618c20933f5fa3ae5b02e92f7378fc54c8e43b084b321268c5e5c99f05\")\n        /* \"contract/myProject/CNRC_V2/V2_CNRedCross.sol\":32590:32613  address(this) == __self */\n      0xffffffffffffffffffffffffffffffffffffffff\n      and\n        /* \"contract/myProject/CNRC_V2/V2_CNRedCross.sol\":32598:32602  this */\n      address\n        /* \"contract/myProject/CNRC_V2/V2_CNRedCross.sol\":32590:32613  address(this) == __self */\n      0xffffffffffffffffffffffffffffffffffffffff\n      and\n      eq\n        /* \"contract/myProject/CNRC_V2/V2_CNRedCross.sol\":32582:32674  require(address(this) == __self, \"UUPSUpgradeable: must not be called through delegatecall\") */\n      tag_177\n      jumpi\n      mload(0x40)\n      0x08c379a000000000000000000000000000000000000000000000000000000000\n      dup2\n      mstore\n      0x04\n      add\n      tag_178\n      swap1\n      tag_179\n      jump\t// in\n    tag_178:\n      mload(0x40)\n      dup1\n      swap2\n      sub\n      swap1\n      revert\n    tag_177:\n        /* \"contract/myProject/CNRC_V2/V2_CNRedCross.sol\":23788:23854  0x360894a13ba1a3210667c828492db98dca3e2076cc3735a920a3ca505d382bbc */\n      0x360894a13ba1a3210667c828492db98dca3e2076cc3735a920a3ca505d382bbc\n        /* \"contract/myProject/CNRC_V2/V2_CNRedCross.sol\":33395:33415  _IMPLEMENTATION_SLOT */\n      0x00\n      shl\n        /* \"contract/myProject/CNRC_V2/V2_CNRedCross.sol\":33388:33415  return _IMPLEMENTATION_SLOT */\n      swap1\n      pop\n        /* \"contract/myProject/CNRC_V2/V2_CNRedCross.sol\":33290:33423  function proxiableUUID() external view virtual override notDelegated returns (bytes32) {\r... */\n      swap1\n      jump\t// out\n        /* \"contract/myProject/CNRC_V2/V2_CNRedCross.sol\":15786:15913  function balanceOf(address account) public view virtual override returns (uint256) {\r... */\n    tag_78:\n        /* \"contract/myProject/CNRC_V2/V2_CNRedCross.sol\":15860:15867  uint256 */\n      0x00\n        /* \"contract/myProject/CNRC_V2/V2_CNRedCross.sol\":15887:15896  _balances */\n      0x33\n        /* \"contract/myProject/CNRC_V2/V2_CNRedCross.sol\":15887:15905  _balances[account] */\n      0x00\n        /* \"contract/myProject/CNRC_V2/V2_CNRedCross.sol\":15897:15904  account */\n      dup4\n        /* \"contract/myProject/CNRC_V2/V2_CNRedCross.sol\":15887:15905  _balances[account] */\n      0xffffffffffffffffffffffffffffffffffffffff\n      and\n      0xffffffffffffffffffffffffffffffffffffffff\n      and\n      dup2\n      mstore\n      0x20\n      add\n      swap1\n      dup2\n      mstore\n      0x20\n      add\n      0x00\n      keccak256\n      sload\n        /* \"contract/myProject/CNRC_V2/V2_CNRedCross.sol\":15880:15905  return _balances[account] */\n      swap1\n      pop\n        /* \"contract/myProject/CNRC_V2/V2_CNRedCross.sol\":15786:15913  function balanceOf(address account) public view virtual override returns (uint256) {\r... */\n      swap2\n      swap1\n      pop\n      jump\t// out\n        /* \"contract/myProject/CNRC_V2/V2_CNRedCross.sol\":21455:21558  function renounceOwnership() public virtual onlyOwner {\r... */\n    tag_82:\n        /* \"contract/myProject/CNRC_V2/V2_CNRedCross.sol\":21179:21192  _checkOwner() */\n      tag_183\n        /* \"contract/myProject/CNRC_V2/V2_CNRedCross.sol\":21179:21190  _checkOwner */\n      tag_163\n        /* \"contract/myProject/CNRC_V2/V2_CNRedCross.sol\":21179:21192  _checkOwner() */\n      jump\t// in\n    tag_183:\n        /* \"contract/myProject/CNRC_V2/V2_CNRedCross.sol\":21520:21550  _transferOwnership(address(0)) */\n      tag_185\n        /* \"contract/myProject/CNRC_V2/V2_CNRedCross.sol\":21547:21548  0 */\n      0x00\n        /* \"contract/myProject/CNRC_V2/V2_CNRedCross.sol\":21520:21538  _transferOwnership */\n      tag_186\n        /* \"contract/myProject/CNRC_V2/V2_CNRedCross.sol\":21520:21550  _transferOwnership(address(0)) */\n      jump\t// in\n    tag_185:\n        /* \"contract/myProject/CNRC_V2/V2_CNRedCross.sol\":21455:21558  function renounceOwnership() public virtual onlyOwner {\r... */\n      jump\t// out\n        /* \"contract/myProject/CNRC_V2/V2_CNRedCross.sol\":21220:21307  function owner() public view virtual returns (address) {\r... */\n    tag_85:\n        /* \"contract/myProject/CNRC_V2/V2_CNRedCross.sol\":21266:21273  address */\n      0x00\n        /* \"contract/myProject/CNRC_V2/V2_CNRedCross.sol\":21293:21299  _owner */\n      0x65\n      0x00\n      swap1\n      sload\n      swap1\n      0x0100\n      exp\n      swap1\n      div\n      0xffffffffffffffffffffffffffffffffffffffff\n      and\n        /* \"contract/myProject/CNRC_V2/V2_CNRedCross.sol\":21286:21299  return _owner */\n      swap1\n      pop\n        /* \"contract/myProject/CNRC_V2/V2_CNRedCross.sol\":21220:21307  function owner() public view virtual returns (address) {\r... */\n      swap1\n      jump\t// out\n        /* \"contract/myProject/CNRC_V2/V2_CNRedCross.sol\":15457:15561  function symbol() public view virtual override returns (string memory) {\r... */\n    tag_90:\n        /* \"contract/myProject/CNRC_V2/V2_CNRedCross.sol\":15513:15526  string memory */\n      0x60\n        /* \"contract/myProject/CNRC_V2/V2_CNRedCross.sol\":15546:15553  _symbol */\n      0x37\n        /* \"contract/myProject/CNRC_V2/V2_CNRedCross.sol\":15539:15553  return _symbol */\n      dup1\n      sload\n      tag_189\n      swap1\n      tag_119\n      jump\t// in\n    tag_189:\n      dup1\n      0x1f\n      add\n      0x20\n      dup1\n      swap2\n      div\n      mul\n      0x20\n      add\n      mload(0x40)\n      swap1\n      dup2\n      add\n      0x40\n      mstore\n      dup1\n      swap3\n      swap2\n      swap1\n      dup2\n      dup2\n      mstore\n      0x20\n      add\n      dup3\n      dup1\n      sload\n      tag_190\n      swap1\n      tag_119\n      jump\t// in\n    tag_190:\n      dup1\n      iszero\n      tag_191\n      jumpi\n      dup1\n      0x1f\n      lt\n      tag_192\n      jumpi\n      0x0100\n      dup1\n      dup4\n      sload\n      div\n      mul\n      dup4\n      mstore\n      swap2\n      0x20\n      add\n      swap2\n      jump(tag_191)\n    tag_192:\n      dup3\n      add\n      swap2\n      swap1\n      0x00\n      mstore\n      keccak256(0x00, 0x20)\n      swap1\n    tag_193:\n      dup2\n      sload\n      dup2\n      mstore\n      swap1\n      0x01\n      add\n      swap1\n      0x20\n      add\n      dup1\n      dup4\n      gt\n      tag_193\n      jumpi\n      dup3\n      swap1\n      sub\n      0x1f\n      and\n      dup3\n      add\n      swap2\n    tag_191:\n      pop\n      pop\n      pop\n      pop\n      pop\n      swap1\n      pop\n        /* \"contract/myProject/CNRC_V2/V2_CNRedCross.sol\":15457:15561  function symbol() public view virtual override returns (string memory) {\r... */\n      swap1\n      jump\t// out\n        /* \"contract/myProject/CNRC_V2/V2_CNRedCross.sol\":17039:17475  function decreaseAllowance(address spender, uint256 subtractedValue) public virtual returns (bool) {\r... */\n    tag_95:\n        /* \"contract/myProject/CNRC_V2/V2_CNRedCross.sol\":17132:17136  bool */\n      0x00\n        /* \"contract/myProject/CNRC_V2/V2_CNRedCross.sol\":17149:17162  address owner */\n      dup1\n        /* \"contract/myProject/CNRC_V2/V2_CNRedCross.sol\":17165:17177  _msgSender() */\n      tag_195\n        /* \"contract/myProject/CNRC_V2/V2_CNRedCross.sol\":17165:17175  _msgSender */\n      tag_126\n        /* \"contract/myProject/CNRC_V2/V2_CNRedCross.sol\":17165:17177  _msgSender() */\n      jump\t// in\n    tag_195:\n        /* \"contract/myProject/CNRC_V2/V2_CNRedCross.sol\":17149:17177  address owner = _msgSender() */\n      swap1\n      pop\n        /* \"contract/myProject/CNRC_V2/V2_CNRedCross.sol\":17188:17212  uint256 currentAllowance */\n      0x00\n        /* \"contract/myProject/CNRC_V2/V2_CNRedCross.sol\":17215:17240  allowance(owner, spender) */\n      tag_196\n        /* \"contract/myProject/CNRC_V2/V2_CNRedCross.sol\":17225:17230  owner */\n      dup3\n        /* \"contract/myProject/CNRC_V2/V2_CNRedCross.sol\":17232:17239  spender */\n      dup7\n        /* \"contract/myProject/CNRC_V2/V2_CNRedCross.sol\":17215:17224  allowance */\n      tag_111\n        /* \"contract/myProject/CNRC_V2/V2_CNRedCross.sol\":17215:17240  allowance(owner, spender) */\n      jump\t// in\n    tag_196:\n        /* \"contract/myProject/CNRC_V2/V2_CNRedCross.sol\":17188:17240  uint256 currentAllowance = allowance(owner, spender) */\n      swap1\n      pop\n        /* \"contract/myProject/CNRC_V2/V2_CNRedCross.sol\":17279:17294  subtractedValue */\n      dup4\n        /* \"contract/myProject/CNRC_V2/V2_CNRedCross.sol\":17259:17275  currentAllowance */\n      dup2\n        /* \"contract/myProject/CNRC_V2/V2_CNRedCross.sol\":17259:17294  currentAllowance >= subtractedValue */\n      lt\n      iszero\n        /* \"contract/myProject/CNRC_V2/V2_CNRedCross.sol\":17251:17336  require(currentAllowance >= subtractedValue, \"ERC20: decreased allowance below zero\") */\n      tag_197\n      jumpi\n      mload(0x40)\n      0x08c379a000000000000000000000000000000000000000000000000000000000\n      dup2\n      mstore\n      0x04\n      add\n      tag_198\n      swap1\n      tag_199\n      jump\t// in\n    tag_198:\n      mload(0x40)\n      dup1\n      swap2\n      sub\n      swap1\n      revert\n    tag_197:\n        /* \"contract/myProject/CNRC_V2/V2_CNRedCross.sol\":17372:17432  _approve(owner, spender, currentAllowance - subtractedValue) */\n      tag_200\n        /* \"contract/myProject/CNRC_V2/V2_CNRedCross.sol\":17381:17386  owner */\n      dup3\n        /* \"contract/myProject/CNRC_V2/V2_CNRedCross.sol\":17388:17395  spender */\n      dup7\n        /* \"contract/myProject/CNRC_V2/V2_CNRedCross.sol\":17416:17431  subtractedValue */\n      dup7\n        /* \"contract/myProject/CNRC_V2/V2_CNRedCross.sol\":17397:17413  currentAllowance */\n      dup5\n        /* \"contract/myProject/CNRC_V2/V2_CNRedCross.sol\":17397:17431  currentAllowance - subtractedValue */\n      sub\n        /* \"contract/myProject/CNRC_V2/V2_CNRedCross.sol\":17372:17380  _approve */\n      tag_128\n        /* \"contract/myProject/CNRC_V2/V2_CNRedCross.sol\":17372:17432  _approve(owner, spender, currentAllowance - subtractedValue) */\n      jump\t// in\n    tag_200:\n        /* \"contract/myProject/CNRC_V2/V2_CNRedCross.sol\":17463:17467  true */\n      0x01\n        /* \"contract/myProject/CNRC_V2/V2_CNRedCross.sol\":17456:17467  return true */\n      swap3\n      pop\n      pop\n      pop\n        /* \"contract/myProject/CNRC_V2/V2_CNRedCross.sol\":17039:17475  function decreaseAllowance(address spender, uint256 subtractedValue) public virtual returns (bool) {\r... */\n      swap3\n      swap2\n      pop\n      pop\n      jump\t// out\n        /* \"contract/myProject/CNRC_V2/V2_CNRedCross.sol\":15921:16114  function transfer(address to, uint256 amount) public virtual override returns (bool) {\r... */\n    tag_100:\n        /* \"contract/myProject/CNRC_V2/V2_CNRedCross.sol\":16000:16004  bool */\n      0x00\n        /* \"contract/myProject/CNRC_V2/V2_CNRedCross.sol\":16017:16030  address owner */\n      dup1\n        /* \"contract/myProject/CNRC_V2/V2_CNRedCross.sol\":16033:16045  _msgSender() */\n      tag_202\n        /* \"contract/myProject/CNRC_V2/V2_CNRedCross.sol\":16033:16043  _msgSender */\n      tag_126\n        /* \"contract/myProject/CNRC_V2/V2_CNRedCross.sol\":16033:16045  _msgSender() */\n      jump\t// in\n    tag_202:\n        /* \"contract/myProject/CNRC_V2/V2_CNRedCross.sol\":16017:16045  address owner = _msgSender() */\n      swap1\n      pop\n        /* \"contract/myProject/CNRC_V2/V2_CNRedCross.sol\":16056:16084  _transfer(owner, to, amount) */\n      tag_203\n        /* \"contract/myProject/CNRC_V2/V2_CNRedCross.sol\":16066:16071  owner */\n      dup2\n        /* \"contract/myProject/CNRC_V2/V2_CNRedCross.sol\":16073:16075  to */\n      dup6\n        /* \"contract/myProject/CNRC_V2/V2_CNRedCross.sol\":16077:16083  amount */\n      dup6\n        /* \"contract/myProject/CNRC_V2/V2_CNRedCross.sol\":16056:16065  _transfer */\n      tag_135\n        /* \"contract/myProject/CNRC_V2/V2_CNRedCross.sol\":16056:16084  _transfer(owner, to, amount) */\n      jump\t// in\n    tag_203:\n        /* \"contract/myProject/CNRC_V2/V2_CNRedCross.sol\":16102:16106  true */\n      0x01\n        /* \"contract/myProject/CNRC_V2/V2_CNRedCross.sol\":16095:16106  return true */\n      swap2\n      pop\n      pop\n        /* \"contract/myProject/CNRC_V2/V2_CNRedCross.sol\":15921:16114  function transfer(address to, uint256 amount) public virtual override returns (bool) {\r... */\n      swap3\n      swap2\n      pop\n      pop\n      jump\t// out\n        /* \"contract/myProject/CNRC_V2/V2_CNRedCross.sol\":35836:36156  function initialize(\r... */\n    tag_106:\n        /* \"contract/myProject/CNRC_V2/V2_CNRedCross.sol\":10632:10651  bool isTopLevelCall */\n      0x00\n        /* \"contract/myProject/CNRC_V2/V2_CNRedCross.sol\":10655:10668  _initializing */\n      dup1\n      0x01\n      swap1\n      sload\n      swap1\n      0x0100\n      exp\n      swap1\n      div\n      0xff\n      and\n        /* \"contract/myProject/CNRC_V2/V2_CNRedCross.sol\":10654:10668  !_initializing */\n      iszero\n        /* \"contract/myProject/CNRC_V2/V2_CNRedCross.sol\":10632:10668  bool isTopLevelCall = !_initializing */\n      swap1\n      pop\n        /* \"contract/myProject/CNRC_V2/V2_CNRedCross.sol\":10702:10716  isTopLevelCall */\n      dup1\n        /* \"contract/myProject/CNRC_V2/V2_CNRedCross.sol\":10702:10736  isTopLevelCall && _initialized < 1 */\n      dup1\n      iszero\n      tag_205\n      jumpi\n      pop\n        /* \"contract/myProject/CNRC_V2/V2_CNRedCross.sol\":10735:10736  1 */\n      0x01\n        /* \"contract/myProject/CNRC_V2/V2_CNRedCross.sol\":10720:10732  _initialized */\n      0x00\n      dup1\n      sload\n      swap1\n      0x0100\n      exp\n      swap1\n      div\n      0xff\n      and\n        /* \"contract/myProject/CNRC_V2/V2_CNRedCross.sol\":10720:10736  _initialized < 1 */\n      0xff\n      and\n      lt\n        /* \"contract/myProject/CNRC_V2/V2_CNRedCross.sol\":10702:10736  isTopLevelCall && _initialized < 1 */\n    tag_205:\n        /* \"contract/myProject/CNRC_V2/V2_CNRedCross.sol\":10701:10809  (isTopLevelCall && _initialized < 1) || (!AddressUpgradeable.isContract(address(this)) && _initialized == 1) */\n      dup1\n      tag_206\n      jumpi\n      pop\n        /* \"contract/myProject/CNRC_V2/V2_CNRedCross.sol\":10743:10787  AddressUpgradeable.isContract(address(this)) */\n      tag_207\n        /* \"contract/myProject/CNRC_V2/V2_CNRedCross.sol\":10781:10785  this */\n      address\n        /* \"contract/myProject/CNRC_V2/V2_CNRedCross.sol\":10743:10772  AddressUpgradeable.isContract */\n      tag_208\n        /* \"contract/myProject/CNRC_V2/V2_CNRedCross.sol\":10743:10787  AddressUpgradeable.isContract(address(this)) */\n      jump\t// in\n    tag_207:\n        /* \"contract/myProject/CNRC_V2/V2_CNRedCross.sol\":10742:10787  !AddressUpgradeable.isContract(address(this)) */\n      iszero\n        /* \"contract/myProject/CNRC_V2/V2_CNRedCross.sol\":10742:10808  !AddressUpgradeable.isContract(address(this)) && _initialized == 1 */\n      dup1\n      iszero\n      tag_209\n      jumpi\n      pop\n        /* \"contract/myProject/CNRC_V2/V2_CNRedCross.sol\":10807:10808  1 */\n      0x01\n        /* \"contract/myProject/CNRC_V2/V2_CNRedCross.sol\":10791:10803  _initialized */\n      0x00\n      dup1\n      sload\n      swap1\n      0x0100\n      exp\n      swap1\n      div\n      0xff\n      and\n        /* \"contract/myProject/CNRC_V2/V2_CNRedCross.sol\":10791:10808  _initialized == 1 */\n      0xff\n      and\n      eq\n        /* \"contract/myProject/CNRC_V2/V2_CNRedCross.sol\":10742:10808  !AddressUpgradeable.isContract(address(this)) && _initialized == 1 */\n    tag_209:\n        /* \"contract/myProject/CNRC_V2/V2_CNRedCross.sol\":10701:10809  (isTopLevelCall && _initialized < 1) || (!AddressUpgradeable.isContract(address(this)) && _initialized == 1) */\n    tag_206:\n        /* \"contract/myProject/CNRC_V2/V2_CNRedCross.sol\":10679:10883  require(\r... */\n      tag_210\n      jumpi\n      mload(0x40)\n      0x08c379a000000000000000000000000000000000000000000000000000000000\n      dup2\n      mstore\n      0x04\n      add\n      tag_211\n      swap1\n      tag_212\n      jump\t// in\n    tag_211:\n      mload(0x40)\n      dup1\n      swap2\n      sub\n      swap1\n      revert\n    tag_210:\n        /* \"contract/myProject/CNRC_V2/V2_CNRedCross.sol\":10909:10910  1 */\n      0x01\n        /* \"contract/myProject/CNRC_V2/V2_CNRedCross.sol\":10894:10906  _initialized */\n      0x00\n      dup1\n        /* \"contract/myProject/CNRC_V2/V2_CNRedCross.sol\":10894:10910  _initialized = 1 */\n      0x0100\n      exp\n      dup2\n      sload\n      dup2\n      0xff\n      mul\n      not\n      and\n      swap1\n      dup4\n      0xff\n      and\n      mul\n      or\n      swap1\n      sstore\n      pop\n        /* \"contract/myProject/CNRC_V2/V2_CNRedCross.sol\":10925:10939  isTopLevelCall */\n      dup1\n        /* \"contract/myProject/CNRC_V2/V2_CNRedCross.sol\":10921:10988  if (isTopLevelCall) {\r... */\n      iszero\n      tag_213\n      jumpi\n        /* \"contract/myProject/CNRC_V2/V2_CNRedCross.sol\":10972:10976  true */\n      0x01\n        /* \"contract/myProject/CNRC_V2/V2_CNRedCross.sol\":10956:10969  _initializing */\n      0x00\n      0x01\n        /* \"contract/myProject/CNRC_V2/V2_CNRedCross.sol\":10956:10976  _initializing = true */\n      0x0100\n      exp\n      dup2\n      sload\n      dup2\n      0xff\n      mul\n      not\n      and\n      swap1\n      dup4\n      iszero\n      iszero\n      mul\n      or\n      swap1\n      sstore\n      pop\n        /* \"contract/myProject/CNRC_V2/V2_CNRedCross.sol\":10921:10988  if (isTopLevelCall) {\r... */\n    tag_213:\n        /* \"contract/myProject/CNRC_V2/V2_CNRedCross.sol\":36016:36044  __ERC20_init(name_, symbol_) */\n      tag_215\n        /* \"contract/myProject/CNRC_V2/V2_CNRedCross.sol\":36029:36034  name_ */\n      dup5\n        /* \"contract/myProject/CNRC_V2/V2_CNRedCross.sol\":36036:36043  symbol_ */\n      dup5\n        /* \"contract/myProject/CNRC_V2/V2_CNRedCross.sol\":36016:36028  __ERC20_init */\n      tag_216\n        /* \"contract/myProject/CNRC_V2/V2_CNRedCross.sol\":36016:36044  __ERC20_init(name_, symbol_) */\n      jump\t// in\n    tag_215:\n        /* \"contract/myProject/CNRC_V2/V2_CNRedCross.sol\":36055:36071  __Ownable_init() */\n      tag_217\n        /* \"contract/myProject/CNRC_V2/V2_CNRedCross.sol\":36055:36069  __Ownable_init */\n      tag_218\n        /* \"contract/myProject/CNRC_V2/V2_CNRedCross.sol\":36055:36071  __Ownable_init() */\n      jump\t// in\n    tag_217:\n        /* \"contract/myProject/CNRC_V2/V2_CNRedCross.sol\":36082:36106  __UUPSUpgradeable_init() */\n      tag_219\n        /* \"contract/myProject/CNRC_V2/V2_CNRedCross.sol\":36082:36104  __UUPSUpgradeable_init */\n      tag_220\n        /* \"contract/myProject/CNRC_V2/V2_CNRedCross.sol\":36082:36106  __UUPSUpgradeable_init() */\n      jump\t// in\n    tag_219:\n        /* \"contract/myProject/CNRC_V2/V2_CNRedCross.sol\":36117:36148  _mint(msg.sender, totalSupply_) */\n      tag_221\n        /* \"contract/myProject/CNRC_V2/V2_CNRedCross.sol\":36123:36133  msg.sender */\n      caller\n        /* \"contract/myProject/CNRC_V2/V2_CNRedCross.sol\":36135:36147  totalSupply_ */\n      dup4\n        /* \"contract/myProject/CNRC_V2/V2_CNRedCross.sol\":36117:36122  _mint */\n      tag_166\n        /* \"contract/myProject/CNRC_V2/V2_CNRedCross.sol\":36117:36148  _mint(msg.sender, totalSupply_) */\n      jump\t// in\n    tag_221:\n        /* \"contract/myProject/CNRC_V2/V2_CNRedCross.sol\":11014:11028  isTopLevelCall */\n      dup1\n        /* \"contract/myProject/CNRC_V2/V2_CNRedCross.sol\":11010:11112  if (isTopLevelCall) {\r... */\n      iszero\n      tag_222\n      jumpi\n        /* \"contract/myProject/CNRC_V2/V2_CNRedCross.sol\":11061:11066  false */\n      0x00\n        /* \"contract/myProject/CNRC_V2/V2_CNRedCross.sol\":11045:11058  _initializing */\n      dup1\n      0x01\n        /* \"contract/myProject/CNRC_V2/V2_CNRedCross.sol\":11045:11066  _initializing = false */\n      0x0100\n      exp\n      dup2\n      sload\n      dup2\n      0xff\n      mul\n      not\n      and\n      swap1\n      dup4\n      iszero\n      iszero\n      mul\n      or\n      swap1\n      sstore\n      pop\n        /* \"contract/myProject/CNRC_V2/V2_CNRedCross.sol\":11086:11100  Initialized(1) */\n      0x7f26b83ff96e1f2b6a682f133852f6798a09c465da95921460cefb3847402498\n        /* \"contract/myProject/CNRC_V2/V2_CNRedCross.sol\":11098:11099  1 */\n      0x01\n        /* \"contract/myProject/CNRC_V2/V2_CNRedCross.sol\":11086:11100  Initialized(1) */\n      mload(0x40)\n      tag_223\n      swap2\n      swap1\n      tag_224\n      jump\t// in\n    tag_223:\n      mload(0x40)\n      dup1\n      swap2\n      sub\n      swap1\n      log1\n        /* \"contract/myProject/CNRC_V2/V2_CNRedCross.sol\":11010:11112  if (isTopLevelCall) {\r... */\n    tag_222:\n        /* \"contract/myProject/CNRC_V2/V2_CNRedCross.sol\":10621:11119  {\r... */\n      pop\n        /* \"contract/myProject/CNRC_V2/V2_CNRedCross.sol\":35836:36156  function initialize(\r... */\n      pop\n      pop\n      pop\n      jump\t// out\n        /* \"contract/myProject/CNRC_V2/V2_CNRedCross.sol\":16122:16273  function allowance(address owner, address spender) public view virtual override returns (uint256) {\r... */\n    tag_111:\n        /* \"contract/myProject/CNRC_V2/V2_CNRedCross.sol\":16211:16218  uint256 */\n      0x00\n        /* \"contract/myProject/CNRC_V2/V2_CNRedCross.sol\":16238:16249  _allowances */\n      0x34\n        /* \"contract/myProject/CNRC_V2/V2_CNRedCross.sol\":16238:16256  _allowances[owner] */\n      0x00\n        /* \"contract/myProject/CNRC_V2/V2_CNRedCross.sol\":16250:16255  owner */\n      dup5\n        /* \"contract/myProject/CNRC_V2/V2_CNRedCross.sol\":16238:16256  _allowances[owner] */\n      0xffffffffffffffffffffffffffffffffffffffff\n      and\n      0xffffffffffffffffffffffffffffffffffffffff\n      and\n      dup2\n      mstore\n      0x20\n      add\n      swap1\n      dup2\n      mstore\n      0x20\n      add\n      0x00\n      keccak256\n        /* \"contract/myProject/CNRC_V2/V2_CNRedCross.sol\":16238:16265  _allowances[owner][spender] */\n      0x00\n        /* \"contract/myProject/CNRC_V2/V2_CNRedCross.sol\":16257:16264  spender */\n      dup4\n        /* \"contract/myProject/CNRC_V2/V2_CNRedCross.sol\":16238:16265  _allowances[owner][spender] */\n      0xffffffffffffffffffffffffffffffffffffffff\n      and\n      0xffffffffffffffffffffffffffffffffffffffff\n      and\n      dup2\n      mstore\n      0x20\n      add\n      swap1\n      dup2\n      mstore\n      0x20\n      add\n      0x00\n      keccak256\n      sload\n        /* \"contract/myProject/CNRC_V2/V2_CNRedCross.sol\":16231:16265  return _allowances[owner][spender] */\n      swap1\n      pop\n        /* \"contract/myProject/CNRC_V2/V2_CNRedCross.sol\":16122:16273  function allowance(address owner, address spender) public view virtual override returns (uint256) {\r... */\n      swap3\n      swap2\n      pop\n      pop\n      jump\t// out\n        /* \"contract/myProject/CNRC_V2/V2_CNRedCross.sol\":21566:21767  function transferOwnership(address newOwner) public virtual onlyOwner {\r... */\n    tag_116:\n        /* \"contract/myProject/CNRC_V2/V2_CNRedCross.sol\":21179:21192  _checkOwner() */\n      tag_227\n        /* \"contract/myProject/CNRC_V2/V2_CNRedCross.sol\":21179:21190  _checkOwner */\n      tag_163\n        /* \"contract/myProject/CNRC_V2/V2_CNRedCross.sol\":21179:21192  _checkOwner() */\n      jump\t// in\n    tag_227:\n        /* \"contract/myProject/CNRC_V2/V2_CNRedCross.sol\":21675:21676  0 */\n      0x00\n        /* \"contract/myProject/CNRC_V2/V2_CNRedCross.sol\":21655:21677  newOwner != address(0) */\n      0xffffffffffffffffffffffffffffffffffffffff\n      and\n        /* \"contract/myProject/CNRC_V2/V2_CNRedCross.sol\":21655:21663  newOwner */\n      dup2\n        /* \"contract/myProject/CNRC_V2/V2_CNRedCross.sol\":21655:21677  newOwner != address(0) */\n      0xffffffffffffffffffffffffffffffffffffffff\n      and\n      eq\n      iszero\n        /* \"contract/myProject/CNRC_V2/V2_CNRedCross.sol\":21647:21720  require(newOwner != address(0), \"Ownable: new owner is the zero address\") */\n      tag_229\n      jumpi\n      mload(0x40)\n      0x08c379a000000000000000000000000000000000000000000000000000000000\n      dup2\n      mstore\n      0x04\n      add\n      tag_230\n      swap1\n      tag_231\n      jump\t// in\n    tag_230:\n      mload(0x40)\n      dup1\n      swap2\n      sub\n      swap1\n      revert\n    tag_229:\n        /* \"contract/myProject/CNRC_V2/V2_CNRedCross.sol\":21731:21759  _transferOwnership(newOwner) */\n      tag_232\n        /* \"contract/myProject/CNRC_V2/V2_CNRedCross.sol\":21750:21758  newOwner */\n      dup2\n        /* \"contract/myProject/CNRC_V2/V2_CNRedCross.sol\":21731:21749  _transferOwnership */\n      tag_186\n        /* \"contract/myProject/CNRC_V2/V2_CNRedCross.sol\":21731:21759  _transferOwnership(newOwner) */\n      jump\t// in\n    tag_232:\n        /* \"contract/myProject/CNRC_V2/V2_CNRedCross.sol\":21566:21767  function transferOwnership(address newOwner) public virtual onlyOwner {\r... */\n      pop\n      jump\t// out\n        /* \"contract/myProject/CNRC_V2/V2_CNRedCross.sol\":13458:13556  function _msgSender() internal view virtual returns (address) {\r... */\n    tag_126:\n        /* \"contract/myProject/CNRC_V2/V2_CNRedCross.sol\":13511:13518  address */\n      0x00\n        /* \"contract/myProject/CNRC_V2/V2_CNRedCross.sol\":13538:13548  msg.sender */\n      caller\n        /* \"contract/myProject/CNRC_V2/V2_CNRedCross.sol\":13531:13548  return msg.sender */\n      swap1\n      pop\n        /* \"contract/myProject/CNRC_V2/V2_CNRedCross.sol\":13458:13556  function _msgSender() internal view virtual returns (address) {\r... */\n      swap1\n      jump\t// out\n        /* \"contract/myProject/CNRC_V2/V2_CNRedCross.sol\":19570:19950  function _approve(\r... */\n    tag_128:\n        /* \"contract/myProject/CNRC_V2/V2_CNRedCross.sol\":19723:19724  0 */\n      0x00\n        /* \"contract/myProject/CNRC_V2/V2_CNRedCross.sol\":19706:19725  owner != address(0) */\n      0xffffffffffffffffffffffffffffffffffffffff\n      and\n        /* \"contract/myProject/CNRC_V2/V2_CNRedCross.sol\":19706:19711  owner */\n      dup4\n        /* \"contract/myProject/CNRC_V2/V2_CNRedCross.sol\":19706:19725  owner != address(0) */\n      0xffffffffffffffffffffffffffffffffffffffff\n      and\n      eq\n      iszero\n        /* \"contract/myProject/CNRC_V2/V2_CNRedCross.sol\":19698:19766  require(owner != address(0), \"ERC20: approve from the zero address\") */\n      tag_235\n      jumpi\n      mload(0x40)\n      0x08c379a000000000000000000000000000000000000000000000000000000000\n      dup2\n      mstore\n      0x04\n      add\n      tag_236\n      swap1\n      tag_237\n      jump\t// in\n    tag_236:\n      mload(0x40)\n      dup1\n      swap2\n      sub\n      swap1\n      revert\n    tag_235:\n        /* \"contract/myProject/CNRC_V2/V2_CNRedCross.sol\":19804:19805  0 */\n      0x00\n        /* \"contract/myProject/CNRC_V2/V2_CNRedCross.sol\":19785:19806  spender != address(0) */\n      0xffffffffffffffffffffffffffffffffffffffff\n      and\n        /* \"contract/myProject/CNRC_V2/V2_CNRedCross.sol\":19785:19792  spender */\n      dup3\n        /* \"contract/myProject/CNRC_V2/V2_CNRedCross.sol\":19785:19806  spender != address(0) */\n      0xffffffffffffffffffffffffffffffffffffffff\n      and\n      eq\n      iszero\n        /* \"contract/myProject/CNRC_V2/V2_CNRedCross.sol\":19777:19845  require(spender != address(0), \"ERC20: approve to the zero address\") */\n      tag_238\n      jumpi\n      mload(0x40)\n      0x08c379a000000000000000000000000000000000000000000000000000000000\n      dup2\n      mstore\n      0x04\n      add\n      tag_239\n      swap1\n      tag_240\n      jump\t// in\n    tag_239:\n      mload(0x40)\n      dup1\n      swap2\n      sub\n      swap1\n      revert\n    tag_238:\n        /* \"contract/myProject/CNRC_V2/V2_CNRedCross.sol\":19888:19894  amount */\n      dup1\n        /* \"contract/myProject/CNRC_V2/V2_CNRedCross.sol\":19858:19869  _allowances */\n      0x34\n        /* \"contract/myProject/CNRC_V2/V2_CNRedCross.sol\":19858:19876  _allowances[owner] */\n      0x00\n        /* \"contract/myProject/CNRC_V2/V2_CNRedCross.sol\":19870:19875  owner */\n      dup6\n        /* \"contract/myProject/CNRC_V2/V2_CNRedCross.sol\":19858:19876  _allowances[owner] */\n      0xffffffffffffffffffffffffffffffffffffffff\n      and\n      0xffffffffffffffffffffffffffffffffffffffff\n      and\n      dup2\n      mstore\n      0x20\n      add\n      swap1\n      dup2\n      mstore\n      0x20\n      add\n      0x00\n      keccak256\n        /* \"contract/myProject/CNRC_V2/V2_CNRedCross.sol\":19858:19885  _allowances[owner][spender] */\n      0x00\n        /* \"contract/myProject/CNRC_V2/V2_CNRedCross.sol\":19877:19884  spender */\n      dup5\n        /* \"contract/myProject/CNRC_V2/V2_CNRedCross.sol\":19858:19885  _allowances[owner][spender] */\n      0xffffffffffffffffffffffffffffffffffffffff\n      and\n      0xffffffffffffffffffffffffffffffffffffffff\n      and\n      dup2\n      mstore\n      0x20\n      add\n      swap1\n      dup2\n      mstore\n      0x20\n      add\n      0x00\n      keccak256\n        /* \"contract/myProject/CNRC_V2/V2_CNRedCross.sol\":19858:19894  _allowances[owner][spender] = amount */\n      dup2\n      swap1\n      sstore\n      pop\n        /* \"contract/myProject/CNRC_V2/V2_CNRedCross.sol\":19926:19933  spender */\n      dup2\n        /* \"contract/myProject/CNRC_V2/V2_CNRedCross.sol\":19910:19942  Approval(owner, spender, amount) */\n      0xffffffffffffffffffffffffffffffffffffffff\n      and\n        /* \"contract/myProject/CNRC_V2/V2_CNRedCross.sol\":19919:19924  owner */\n      dup4\n        /* \"contract/myProject/CNRC_V2/V2_CNRedCross.sol\":19910:19942  Approval(owner, spender, amount) */\n      0xffffffffffffffffffffffffffffffffffffffff\n      and\n      0x8c5be1e5ebec7d5bd14f71427d1e84f3dd0314c0f7b2291e5b200ac8c7c3b925\n        /* \"contract/myProject/CNRC_V2/V2_CNRedCross.sol\":19935:19941  amount */\n      dup4\n        /* \"contract/myProject/CNRC_V2/V2_CNRedCross.sol\":19910:19942  Approval(owner, spender, amount) */\n      mload(0x40)\n      tag_241\n      swap2\n      swap1\n      tag_40\n      jump\t// in\n    tag_241:\n      mload(0x40)\n      dup1\n      swap2\n      sub\n      swap1\n      log3\n        /* \"contract/myProject/CNRC_V2/V2_CNRedCross.sol\":19570:19950  function _approve(\r... */\n      pop\n      pop\n      pop\n      jump\t// out\n        /* \"contract/myProject/CNRC_V2/V2_CNRedCross.sol\":19958:20411  function _spendAllowance(\r... */\n    tag_133:\n        /* \"contract/myProject/CNRC_V2/V2_CNRedCross.sol\":20093:20117  uint256 currentAllowance */\n      0x00\n        /* \"contract/myProject/CNRC_V2/V2_CNRedCross.sol\":20120:20145  allowance(owner, spender) */\n      tag_243\n        /* \"contract/myProject/CNRC_V2/V2_CNRedCross.sol\":20130:20135  owner */\n      dup5\n        /* \"contract/myProject/CNRC_V2/V2_CNRedCross.sol\":20137:20144  spender */\n      dup5\n        /* \"contract/myProject/CNRC_V2/V2_CNRedCross.sol\":20120:20129  allowance */\n      tag_111\n        /* \"contract/myProject/CNRC_V2/V2_CNRedCross.sol\":20120:20145  allowance(owner, spender) */\n      jump\t// in\n    tag_243:\n        /* \"contract/myProject/CNRC_V2/V2_CNRedCross.sol\":20093:20145  uint256 currentAllowance = allowance(owner, spender) */\n      swap1\n      pop\n        /* \"contract/myProject/CNRC_V2/V2_CNRedCross.sol\":20180:20197  type(uint256).max */\n      0xffffffffffffffffffffffffffffffffffffffffffffffffffffffffffffffff\n        /* \"contract/myProject/CNRC_V2/V2_CNRedCross.sol\":20160:20176  currentAllowance */\n      dup2\n        /* \"contract/myProject/CNRC_V2/V2_CNRedCross.sol\":20160:20197  currentAllowance != type(uint256).max */\n      eq\n        /* \"contract/myProject/CNRC_V2/V2_CNRedCross.sol\":20156:20404  if (currentAllowance != type(uint256).max) {\r... */\n      tag_244\n      jumpi\n        /* \"contract/myProject/CNRC_V2/V2_CNRedCross.sol\":20242:20248  amount */\n      dup2\n        /* \"contract/myProject/CNRC_V2/V2_CNRedCross.sol\":20222:20238  currentAllowance */\n      dup2\n        /* \"contract/myProject/CNRC_V2/V2_CNRedCross.sol\":20222:20248  currentAllowance >= amount */\n      lt\n      iszero\n        /* \"contract/myProject/CNRC_V2/V2_CNRedCross.sol\":20214:20282  require(currentAllowance >= amount, \"ERC20: insufficient allowance\") */\n      tag_245\n      jumpi\n      mload(0x40)\n      0x08c379a000000000000000000000000000000000000000000000000000000000\n      dup2\n      mstore\n      0x04\n      add\n      tag_246\n      swap1\n      tag_247\n      jump\t// in\n    tag_246:\n      mload(0x40)\n      dup1\n      swap2\n      sub\n      swap1\n      revert\n    tag_245:\n        /* \"contract/myProject/CNRC_V2/V2_CNRedCross.sol\":20326:20377  _approve(owner, spender, currentAllowance - amount) */\n      tag_248\n        /* \"contract/myProject/CNRC_V2/V2_CNRedCross.sol\":20335:20340  owner */\n      dup5\n        /* \"contract/myProject/CNRC_V2/V2_CNRedCross.sol\":20342:20349  spender */\n      dup5\n        /* \"contract/myProject/CNRC_V2/V2_CNRedCross.sol\":20370:20376  amount */\n      dup5\n        /* \"contract/myProject/CNRC_V2/V2_CNRedCross.sol\":20351:20367  currentAllowance */\n      dup5\n        /* \"contract/myProject/CNRC_V2/V2_CNRedCross.sol\":20351:20376  currentAllowance - amount */\n      sub\n        /* \"contract/myProject/CNRC_V2/V2_CNRedCross.sol\":20326:20334  _approve */\n      tag_128\n        /* \"contract/myProject/CNRC_V2/V2_CNRedCross.sol\":20326:20377  _approve(owner, spender, currentAllowance - amount) */\n      jump\t// in\n    tag_248:\n        /* \"contract/myProject/CNRC_V2/V2_CNRedCross.sol\":20156:20404  if (currentAllowance != type(uint256).max) {\r... */\n    tag_244:\n        /* \"contract/myProject/CNRC_V2/V2_CNRedCross.sol\":20082:20411  {\r... */\n      pop\n        /* \"contract/myProject/CNRC_V2/V2_CNRedCross.sol\":19958:20411  function _spendAllowance(\r... */\n      pop\n      pop\n      pop\n      jump\t// out\n        /* \"contract/myProject/CNRC_V2/V2_CNRedCross.sol\":17483:18323  function _transfer(\r... */\n    tag_135:\n        /* \"contract/myProject/CNRC_V2/V2_CNRedCross.sol\":17630:17631  0 */\n      0x00\n        /* \"contract/myProject/CNRC_V2/V2_CNRedCross.sol\":17614:17632  from != address(0) */\n      0xffffffffffffffffffffffffffffffffffffffff\n      and\n        /* \"contract/myProject/CNRC_V2/V2_CNRedCross.sol\":17614:17618  from */\n      dup4\n        /* \"contract/myProject/CNRC_V2/V2_CNRedCross.sol\":17614:17632  from != address(0) */\n      0xffffffffffffffffffffffffffffffffffffffff\n      and\n      eq\n      iszero\n        /* \"contract/myProject/CNRC_V2/V2_CNRedCross.sol\":17606:17674  require(from != address(0), \"ERC20: transfer from the zero address\") */\n      tag_250\n      jumpi\n      mload(0x40)\n      0x08c379a000000000000000000000000000000000000000000000000000000000\n      dup2\n      mstore\n      0x04\n      add\n      tag_251\n      swap1\n      tag_252\n      jump\t// in\n    tag_251:\n      mload(0x40)\n      dup1\n      swap2\n      sub\n      swap1\n      revert\n    tag_250:\n        /* \"contract/myProject/CNRC_V2/V2_CNRedCross.sol\":17707:17708  0 */\n      0x00\n        /* \"contract/myProject/CNRC_V2/V2_CNRedCross.sol\":17693:17709  to != address(0) */\n      0xffffffffffffffffffffffffffffffffffffffff\n      and\n        /* \"contract/myProject/CNRC_V2/V2_CNRedCross.sol\":17693:17695  to */\n      dup3\n        /* \"contract/myProject/CNRC_V2/V2_CNRedCross.sol\":17693:17709  to != address(0) */\n      0xffffffffffffffffffffffffffffffffffffffff\n      and\n      eq\n      iszero\n        /* \"contract/myProject/CNRC_V2/V2_CNRedCross.sol\":17685:17749  require(to != address(0), \"ERC20: transfer to the zero address\") */\n      tag_253\n      jumpi\n      mload(0x40)\n      0x08c379a000000000000000000000000000000000000000000000000000000000\n      dup2\n      mstore\n      0x04\n      add\n      tag_254\n      swap1\n      tag_255\n      jump\t// in\n    tag_254:\n      mload(0x40)\n      dup1\n      swap2\n      sub\n      swap1\n      revert\n    tag_253:\n        /* \"contract/myProject/CNRC_V2/V2_CNRedCross.sol\":17762:17800  _beforeTokenTransfer(from, to, amount) */\n      tag_256\n        /* \"contract/myProject/CNRC_V2/V2_CNRedCross.sol\":17783:17787  from */\n      dup4\n        /* \"contract/myProject/CNRC_V2/V2_CNRedCross.sol\":17789:17791  to */\n      dup4\n        /* \"contract/myProject/CNRC_V2/V2_CNRedCross.sol\":17793:17799  amount */\n      dup4\n        /* \"contract/myProject/CNRC_V2/V2_CNRedCross.sol\":17762:17782  _beforeTokenTransfer */\n      tag_257\n        /* \"contract/myProject/CNRC_V2/V2_CNRedCross.sol\":17762:17800  _beforeTokenTransfer(from, to, amount) */\n      jump\t// in\n    tag_256:\n        /* \"contract/myProject/CNRC_V2/V2_CNRedCross.sol\":17813:17832  uint256 fromBalance */\n      0x00\n        /* \"contract/myProject/CNRC_V2/V2_CNRedCross.sol\":17835:17844  _balances */\n      0x33\n        /* \"contract/myProject/CNRC_V2/V2_CNRedCross.sol\":17835:17850  _balances[from] */\n      0x00\n        /* \"contract/myProject/CNRC_V2/V2_CNRedCross.sol\":17845:17849  from */\n      dup6\n        /* \"contract/myProject/CNRC_V2/V2_CNRedCross.sol\":17835:17850  _balances[from] */\n      0xffffffffffffffffffffffffffffffffffffffff\n      and\n      0xffffffffffffffffffffffffffffffffffffffff\n      and\n      dup2\n      mstore\n      0x20\n      add\n      swap1\n      dup2\n      mstore\n      0x20\n      add\n      0x00\n      keccak256\n      sload\n        /* \"contract/myProject/CNRC_V2/V2_CNRedCross.sol\":17813:17850  uint256 fromBalance = _balances[from] */\n      swap1\n      pop\n        /* \"contract/myProject/CNRC_V2/V2_CNRedCross.sol\":17884:17890  amount */\n      dup2\n        /* \"contract/myProject/CNRC_V2/V2_CNRedCross.sol\":17869:17880  fromBalance */\n      dup2\n        /* \"contract/myProject/CNRC_V2/V2_CNRedCross.sol\":17869:17890  fromBalance >= amount */\n      lt\n      iszero\n        /* \"contract/myProject/CNRC_V2/V2_CNRedCross.sol\":17861:17933  require(fromBalance >= amount, \"ERC20: transfer amount exceeds balance\") */\n      tag_258\n      jumpi\n      mload(0x40)\n      0x08c379a000000000000000000000000000000000000000000000000000000000\n      dup2\n      mstore\n      0x04\n      add\n      tag_259\n      swap1\n      tag_260\n      jump\t// in\n    tag_259:\n      mload(0x40)\n      dup1\n      swap2\n      sub\n      swap1\n      revert\n    tag_258:\n        /* \"contract/myProject/CNRC_V2/V2_CNRedCross.sol\":18001:18007  amount */\n      dup2\n        /* \"contract/myProject/CNRC_V2/V2_CNRedCross.sol\":17987:17998  fromBalance */\n      dup2\n        /* \"contract/myProject/CNRC_V2/V2_CNRedCross.sol\":17987:18007  fromBalance - amount */\n      sub\n        /* \"contract/myProject/CNRC_V2/V2_CNRedCross.sol\":17969:17978  _balances */\n      0x33\n        /* \"contract/myProject/CNRC_V2/V2_CNRedCross.sol\":17969:17984  _balances[from] */\n      0x00\n        /* \"contract/myProject/CNRC_V2/V2_CNRedCross.sol\":17979:17983  from */\n      dup7\n        /* \"contract/myProject/CNRC_V2/V2_CNRedCross.sol\":17969:17984  _balances[from] */\n      0xffffffffffffffffffffffffffffffffffffffff\n      and\n      0xffffffffffffffffffffffffffffffffffffffff\n      and\n      dup2\n      mstore\n      0x20\n      add\n      swap1\n      dup2\n      mstore\n      0x20\n      add\n      0x00\n      keccak256\n        /* \"contract/myProject/CNRC_V2/V2_CNRedCross.sol\":17969:18007  _balances[from] = fromBalance - amount */\n      dup2\n      swap1\n      sstore\n      pop\n        /* \"contract/myProject/CNRC_V2/V2_CNRedCross.sol\":18204:18210  amount */\n      dup2\n        /* \"contract/myProject/CNRC_V2/V2_CNRedCross.sol\":18187:18196  _balances */\n      0x33\n        /* \"contract/myProject/CNRC_V2/V2_CNRedCross.sol\":18187:18200  _balances[to] */\n      0x00\n        /* \"contract/myProject/CNRC_V2/V2_CNRedCross.sol\":18197:18199  to */\n      dup6\n        /* \"contract/myProject/CNRC_V2/V2_CNRedCross.sol\":18187:18200  _balances[to] */\n      0xffffffffffffffffffffffffffffffffffffffff\n      and\n      0xffffffffffffffffffffffffffffffffffffffff\n      and\n      dup2\n      mstore\n      0x20\n      add\n      swap1\n      dup2\n      mstore\n      0x20\n      add\n      0x00\n      keccak256\n      0x00\n        /* \"contract/myProject/CNRC_V2/V2_CNRedCross.sol\":18187:18210  _balances[to] += amount */\n      dup3\n      dup3\n      sload\n      add\n      swap3\n      pop\n      pop\n      dup2\n      swap1\n      sstore\n      pop\n        /* \"contract/myProject/CNRC_V2/V2_CNRedCross.sol\":18254:18256  to */\n      dup3\n        /* \"contract/myProject/CNRC_V2/V2_CNRedCross.sol\":18239:18265  Transfer(from, to, amount) */\n      0xffffffffffffffffffffffffffffffffffffffff\n      and\n        /* \"contract/myProject/CNRC_V2/V2_CNRedCross.sol\":18248:18252  from */\n      dup5\n        /* \"contract/myProject/CNRC_V2/V2_CNRedCross.sol\":18239:18265  Transfer(from, to, amount) */\n      0xffffffffffffffffffffffffffffffffffffffff\n      and\n      0xddf252ad1be2c89b69c2b068fc378daa952ba7f163c4a11628f55a4df523b3ef\n        /* \"contract/myProject/CNRC_V2/V2_CNRedCross.sol\":18258:18264  amount */\n      dup5\n        /* \"contract/myProject/CNRC_V2/V2_CNRedCross.sol\":18239:18265  Transfer(from, to, amount) */\n      mload(0x40)\n      tag_261\n      swap2\n      swap1\n      tag_40\n      jump\t// in\n    tag_261:\n      mload(0x40)\n      dup1\n      swap2\n      sub\n      swap1\n      log3\n        /* \"contract/myProject/CNRC_V2/V2_CNRedCross.sol\":18278:18315  _afterTokenTransfer(from, to, amount) */\n      tag_262\n        /* \"contract/myProject/CNRC_V2/V2_CNRedCross.sol\":18298:18302  from */\n      dup5\n        /* \"contract/myProject/CNRC_V2/V2_CNRedCross.sol\":18304:18306  to */\n      dup5\n        /* \"contract/myProject/CNRC_V2/V2_CNRedCross.sol\":18308:18314  amount */\n      dup5\n        /* \"contract/myProject/CNRC_V2/V2_CNRedCross.sol\":18278:18297  _afterTokenTransfer */\n      tag_263\n        /* \"contract/myProject/CNRC_V2/V2_CNRedCross.sol\":18278:18315  _afterTokenTransfer(from, to, amount) */\n      jump\t// in\n    tag_262:\n        /* \"contract/myProject/CNRC_V2/V2_CNRedCross.sol\":17595:18323  {\r... */\n      pop\n        /* \"contract/myProject/CNRC_V2/V2_CNRedCross.sol\":17483:18323  function _transfer(\r... */\n      pop\n      pop\n      pop\n      jump\t// out\n        /* \"contract/myProject/CNRC_V2/V2_CNRedCross.sol\":24069:24222  function _getImplementation() internal view returns (address) {\r... */\n    tag_142:\n        /* \"contract/myProject/CNRC_V2/V2_CNRedCross.sol\":24122:24129  address */\n      0x00\n        /* \"contract/myProject/CNRC_V2/V2_CNRedCross.sol\":24149:24208  StorageSlotUpgradeable.getAddressSlot(_IMPLEMENTATION_SLOT) */\n      tag_265\n        /* \"contract/myProject/CNRC_V2/V2_CNRedCross.sol\":23788:23854  0x360894a13ba1a3210667c828492db98dca3e2076cc3735a920a3ca505d382bbc */\n      0x360894a13ba1a3210667c828492db98dca3e2076cc3735a920a3ca505d382bbc\n        /* \"contract/myProject/CNRC_V2/V2_CNRedCross.sol\":24187:24207  _IMPLEMENTATION_SLOT */\n      0x00\n      shl\n        /* \"contract/myProject/CNRC_V2/V2_CNRedCross.sol\":24149:24186  StorageSlotUpgradeable.getAddressSlot */\n      tag_266\n        /* \"contract/myProject/CNRC_V2/V2_CNRedCross.sol\":24149:24208  StorageSlotUpgradeable.getAddressSlot(_IMPLEMENTATION_SLOT) */\n      jump\t// in\n    tag_265:\n        /* \"contract/myProject/CNRC_V2/V2_CNRedCross.sol\":24149:24214  StorageSlotUpgradeable.getAddressSlot(_IMPLEMENTATION_SLOT).value */\n      0x00\n      add\n      0x00\n      swap1\n      sload\n      swap1\n      0x0100\n      exp\n      swap1\n      div\n      0xffffffffffffffffffffffffffffffffffffffff\n      and\n        /* \"contract/myProject/CNRC_V2/V2_CNRedCross.sol\":24142:24214  return StorageSlotUpgradeable.getAddressSlot(_IMPLEMENTATION_SLOT).value */\n      swap1\n      pop\n        /* \"contract/myProject/CNRC_V2/V2_CNRedCross.sol\":24069:24222  function _getImplementation() internal view returns (address) {\r... */\n      swap1\n      jump\t// out\n        /* \"contract/myProject/CNRC_V2/V2_CNRedCross.sol\":36266:36355  function _authorizeUpgrade(address newImpl) internal onlyOwner override{\r... */\n    tag_148:\n        /* \"contract/myProject/CNRC_V2/V2_CNRedCross.sol\":21179:21192  _checkOwner() */\n      tag_268\n        /* \"contract/myProject/CNRC_V2/V2_CNRedCross.sol\":21179:21190  _checkOwner */\n      tag_163\n        /* \"contract/myProject/CNRC_V2/V2_CNRedCross.sol\":21179:21192  _checkOwner() */\n      jump\t// in\n    tag_268:\n        /* \"contract/myProject/CNRC_V2/V2_CNRedCross.sol\":36266:36355  function _authorizeUpgrade(address newImpl) internal onlyOwner override{\r... */\n      pop\n      jump\t// out\n        /* \"contract/myProject/CNRC_V2/V2_CNRedCross.sol\":25487:26479  function _upgradeToAndCallUUPS(\r... */\n    tag_154:\n        /* \"contract/myProject/CNRC_V2/V2_CNRedCross.sol\":25941:25994  StorageSlotUpgradeable.getBooleanSlot(_ROLLBACK_SLOT) */\n      tag_271\n        /* \"contract/myProject/CNRC_V2/V2_CNRedCross.sol\":23440:23506  0x4910fdfa16fed3260ed0e7147f7cc6da11a60208b5b9406d12a635614ffd9143 */\n      0x4910fdfa16fed3260ed0e7147f7cc6da11a60208b5b9406d12a635614ffd9143\n        /* \"contract/myProject/CNRC_V2/V2_CNRedCross.sol\":25979:25993  _ROLLBACK_SLOT */\n      0x00\n      shl\n        /* \"contract/myProject/CNRC_V2/V2_CNRedCross.sol\":25941:25978  StorageSlotUpgradeable.getBooleanSlot */\n      tag_272\n        /* \"contract/myProject/CNRC_V2/V2_CNRedCross.sol\":25941:25994  StorageSlotUpgradeable.getBooleanSlot(_ROLLBACK_SLOT) */\n      jump\t// in\n    tag_271:\n        /* \"contract/myProject/CNRC_V2/V2_CNRedCross.sol\":25941:26000  StorageSlotUpgradeable.getBooleanSlot(_ROLLBACK_SLOT).value */\n      0x00\n      add\n      0x00\n      swap1\n      sload\n      swap1\n      0x0100\n      exp\n      swap1\n      div\n      0xff\n      and\n        /* \"contract/myProject/CNRC_V2/V2_CNRedCross.sol\":25937:26472  if (StorageSlotUpgradeable.getBooleanSlot(_ROLLBACK_SLOT).value) {\r... */\n      iszero\n      tag_273\n      jumpi\n        /* \"contract/myProject/CNRC_V2/V2_CNRedCross.sol\":26017:26054  _setImplementation(newImplementation) */\n      tag_274\n        /* \"contract/myProject/CNRC_V2/V2_CNRedCross.sol\":26036:26053  newImplementation */\n      dup4\n        /* \"contract/myProject/CNRC_V2/V2_CNRedCross.sol\":26017:26035  _setImplementation */\n      tag_275\n        /* \"contract/myProject/CNRC_V2/V2_CNRedCross.sol\":26017:26054  _setImplementation(newImplementation) */\n      jump\t// in\n    tag_274:\n        /* \"contract/myProject/CNRC_V2/V2_CNRedCross.sol\":25937:26472  if (StorageSlotUpgradeable.getBooleanSlot(_ROLLBACK_SLOT).value) {\r... */\n      jump(tag_276)\n    tag_273:\n        /* \"contract/myProject/CNRC_V2/V2_CNRedCross.sol\":26120:26137  newImplementation */\n      dup3\n        /* \"contract/myProject/CNRC_V2/V2_CNRedCross.sol\":26091:26152  IERC1822ProxiableUpgradeable(newImplementation).proxiableUUID */\n      0xffffffffffffffffffffffffffffffffffffffff\n      and\n      0x52d1902d\n        /* \"contract/myProject/CNRC_V2/V2_CNRedCross.sol\":26091:26154  IERC1822ProxiableUpgradeable(newImplementation).proxiableUUID() */\n      mload(0x40)\n      dup2\n      0xffffffff\n      and\n      0xe0\n      shl\n      dup2\n      mstore\n      0x04\n      add\n      0x20\n      mload(0x40)\n      dup1\n      dup4\n      sub\n      dup2\n      dup7\n      dup1\n      extcodesize\n      iszero\n      dup1\n      iszero\n      tag_277\n      jumpi\n      0x00\n      dup1\n      revert\n    tag_277:\n      pop\n      gas\n      staticcall\n      swap3\n      pop\n      pop\n      pop\n      dup1\n      iszero\n      tag_278\n      jumpi\n      pop\n      mload(0x40)\n      returndatasize\n      not(0x1f)\n      0x1f\n      dup3\n      add\n      and\n      dup3\n      add\n      dup1\n      0x40\n      mstore\n      pop\n      dup2\n      add\n      swap1\n      tag_279\n      swap2\n      swap1\n      tag_280\n      jump\t// in\n    tag_279:\n      0x01\n    tag_278:\n        /* \"contract/myProject/CNRC_V2/V2_CNRedCross.sol\":26087:26393  try IERC1822ProxiableUpgradeable(newImplementation).proxiableUUID() returns (bytes32 slot) {\r... */\n      tag_281\n      jumpi\n        /* \"contract/myProject/CNRC_V2/V2_CNRedCross.sol\":26321:26377  revert(\"ERC1967Upgrade: new implementation is not UUPS\") */\n      mload(0x40)\n      0x08c379a000000000000000000000000000000000000000000000000000000000\n      dup2\n      mstore\n      0x04\n      add\n      tag_285\n      swap1\n      tag_286\n      jump\t// in\n    tag_285:\n      mload(0x40)\n      dup1\n      swap2\n      sub\n      swap1\n      revert\n        /* \"contract/myProject/CNRC_V2/V2_CNRedCross.sol\":26087:26393  try IERC1822ProxiableUpgradeable(newImplementation).proxiableUUID() returns (bytes32 slot) {\r... */\n    tag_281:\n        /* \"contract/myProject/CNRC_V2/V2_CNRedCross.sol\":23788:23854  0x360894a13ba1a3210667c828492db98dca3e2076cc3735a920a3ca505d382bbc */\n      0x360894a13ba1a3210667c828492db98dca3e2076cc3735a920a3ca505d382bbc\n        /* \"contract/myProject/CNRC_V2/V2_CNRedCross.sol\":26213:26233  _IMPLEMENTATION_SLOT */\n      0x00\n      shl\n        /* \"contract/myProject/CNRC_V2/V2_CNRedCross.sol\":26205:26209  slot */\n      dup2\n        /* \"contract/myProject/CNRC_V2/V2_CNRedCross.sol\":26205:26233  slot == _IMPLEMENTATION_SLOT */\n      eq\n        /* \"contract/myProject/CNRC_V2/V2_CNRedCross.sol\":26197:26279  require(slot == _IMPLEMENTATION_SLOT, \"ERC1967Upgrade: unsupported proxiableUUID\") */\n      tag_288\n      jumpi\n      mload(0x40)\n      0x08c379a000000000000000000000000000000000000000000000000000000000\n      dup2\n      mstore\n      0x04\n      add\n      tag_289\n      swap1\n      tag_290\n      jump\t// in\n    tag_289:\n      mload(0x40)\n      dup1\n      swap2\n      sub\n      swap1\n      revert\n    tag_288:\n        /* \"contract/myProject/CNRC_V2/V2_CNRedCross.sol\":26155:26295  returns (bytes32 slot) {\r... */\n      pop\n        /* \"contract/myProject/CNRC_V2/V2_CNRedCross.sol\":26407:26460  _upgradeToAndCall(newImplementation, data, forceCall) */\n      tag_291\n        /* \"contract/myProject/CNRC_V2/V2_CNRedCross.sol\":26425:26442  newImplementation */\n      dup4\n        /* \"contract/myProject/CNRC_V2/V2_CNRedCross.sol\":26444:26448  data */\n      dup4\n        /* \"contract/myProject/CNRC_V2/V2_CNRedCross.sol\":26450:26459  forceCall */\n      dup4\n        /* \"contract/myProject/CNRC_V2/V2_CNRedCross.sol\":26407:26424  _upgradeToAndCall */\n      tag_292\n        /* \"contract/myProject/CNRC_V2/V2_CNRedCross.sol\":26407:26460  _upgradeToAndCall(newImplementation, data, forceCall) */\n      jump\t// in\n    tag_291:\n        /* \"contract/myProject/CNRC_V2/V2_CNRedCross.sol\":25937:26472  if (StorageSlotUpgradeable.getBooleanSlot(_ROLLBACK_SLOT).value) {\r... */\n    tag_276:\n        /* \"contract/myProject/CNRC_V2/V2_CNRedCross.sol\":25487:26479  function _upgradeToAndCallUUPS(\r... */\n      pop\n      pop\n      pop\n      jump\t// out\n        /* \"contract/myProject/CNRC_V2/V2_CNRedCross.sol\":21315:21447  function _checkOwner() internal view virtual {\r... */\n    tag_163:\n        /* \"contract/myProject/CNRC_V2/V2_CNRedCross.sol\":21390:21402  _msgSender() */\n      tag_294\n        /* \"contract/myProject/CNRC_V2/V2_CNRedCross.sol\":21390:21400  _msgSender */\n      tag_126\n        /* \"contract/myProject/CNRC_V2/V2_CNRedCross.sol\":21390:21402  _msgSender() */\n      jump\t// in\n    tag_294:\n        /* \"contract/myProject/CNRC_V2/V2_CNRedCross.sol\":21379:21402  owner() == _msgSender() */\n      0xffffffffffffffffffffffffffffffffffffffff\n      and\n        /* \"contract/myProject/CNRC_V2/V2_CNRedCross.sol\":21379:21386  owner() */\n      tag_295\n        /* \"contract/myProject/CNRC_V2/V2_CNRedCross.sol\":21379:21384  owner */\n      tag_85\n        /* \"contract/myProject/CNRC_V2/V2_CNRedCross.sol\":21379:21386  owner() */\n      jump\t// in\n    tag_295:\n        /* \"contract/myProject/CNRC_V2/V2_CNRedCross.sol\":21379:21402  owner() == _msgSender() */\n      0xffffffffffffffffffffffffffffffffffffffff\n      and\n      eq\n        /* \"contract/myProject/CNRC_V2/V2_CNRedCross.sol\":21371:21439  require(owner() == _msgSender(), \"Ownable: caller is not the owner\") */\n      tag_296\n      jumpi\n      mload(0x40)\n      0x08c379a000000000000000000000000000000000000000000000000000000000\n      dup2\n      mstore\n      0x04\n      add\n      tag_297\n      swap1\n      tag_298\n      jump\t// in\n    tag_297:\n      mload(0x40)\n      dup1\n      swap2\n      sub\n      swap1\n      revert\n    tag_296:\n        /* \"contract/myProject/CNRC_V2/V2_CNRedCross.sol\":21315:21447  function _checkOwner() internal view virtual {\r... */\n      jump\t// out\n        /* \"contract/myProject/CNRC_V2/V2_CNRedCross.sol\":18331:18879  function _mint(address account, uint256 amount) internal virtual {\r... */\n    tag_166:\n        /* \"contract/myProject/CNRC_V2/V2_CNRedCross.sol\":18434:18435  0 */\n      0x00\n        /* \"contract/myProject/CNRC_V2/V2_CNRedCross.sol\":18415:18436  account != address(0) */\n      0xffffffffffffffffffffffffffffffffffffffff\n      and\n        /* \"contract/myProject/CNRC_V2/V2_CNRedCross.sol\":18415:18422  account */\n      dup3\n        /* \"contract/myProject/CNRC_V2/V2_CNRedCross.sol\":18415:18436  account != address(0) */\n      0xffffffffffffffffffffffffffffffffffffffff\n      and\n      eq\n      iszero\n        /* \"contract/myProject/CNRC_V2/V2_CNRedCross.sol\":18407:18472  require(account != address(0), \"ERC20: mint to the zero address\") */\n      tag_300\n      jumpi\n      mload(0x40)\n      0x08c379a000000000000000000000000000000000000000000000000000000000\n      dup2\n      mstore\n      0x04\n      add\n      tag_301\n      swap1\n      tag_302\n      jump\t// in\n    tag_301:\n      mload(0x40)\n      dup1\n      swap2\n      sub\n      swap1\n      revert\n    tag_300:\n        /* \"contract/myProject/CNRC_V2/V2_CNRedCross.sol\":18485:18534  _beforeTokenTransfer(address(0), account, amount) */\n      tag_303\n        /* \"contract/myProject/CNRC_V2/V2_CNRedCross.sol\":18514:18515  0 */\n      0x00\n        /* \"contract/myProject/CNRC_V2/V2_CNRedCross.sol\":18518:18525  account */\n      dup4\n        /* \"contract/myProject/CNRC_V2/V2_CNRedCross.sol\":18527:18533  amount */\n      dup4\n        /* \"contract/myProject/CNRC_V2/V2_CNRedCross.sol\":18485:18505  _beforeTokenTransfer */\n      tag_257\n        /* \"contract/myProject/CNRC_V2/V2_CNRedCross.sol\":18485:18534  _beforeTokenTransfer(address(0), account, amount) */\n      jump\t// in\n    tag_303:\n        /* \"contract/myProject/CNRC_V2/V2_CNRedCross.sol\":18563:18569  amount */\n      dup1\n        /* \"contract/myProject/CNRC_V2/V2_CNRedCross.sol\":18547:18559  _totalSupply */\n      0x35\n      0x00\n        /* \"contract/myProject/CNRC_V2/V2_CNRedCross.sol\":18547:18569  _totalSupply += amount */\n      dup3\n      dup3\n      sload\n      tag_304\n      swap2\n      swap1\n      tag_160\n      jump\t// in\n    tag_304:\n      swap3\n      pop\n      pop\n      dup2\n      swap1\n      sstore\n      pop\n        /* \"contract/myProject/CNRC_V2/V2_CNRedCross.sol\":18740:18746  amount */\n      dup1\n        /* \"contract/myProject/CNRC_V2/V2_CNRedCross.sol\":18718:18727  _balances */\n      0x33\n        /* \"contract/myProject/CNRC_V2/V2_CNRedCross.sol\":18718:18736  _balances[account] */\n      0x00\n        /* \"contract/myProject/CNRC_V2/V2_CNRedCross.sol\":18728:18735  account */\n      dup5\n        /* \"contract/myProject/CNRC_V2/V2_CNRedCross.sol\":18718:18736  _balances[account] */\n      0xffffffffffffffffffffffffffffffffffffffff\n      and\n      0xffffffffffffffffffffffffffffffffffffffff\n      and\n      dup2\n      mstore\n      0x20\n      add\n      swap1\n      dup2\n      mstore\n      0x20\n      add\n      0x00\n      keccak256\n      0x00\n        /* \"contract/myProject/CNRC_V2/V2_CNRedCross.sol\":18718:18746  _balances[account] += amount */\n      dup3\n      dup3\n      sload\n      add\n      swap3\n      pop\n      pop\n      dup2\n      swap1\n      sstore\n      pop\n        /* \"contract/myProject/CNRC_V2/V2_CNRedCross.sol\":18794:18801  account */\n      dup2\n        /* \"contract/myProject/CNRC_V2/V2_CNRedCross.sol\":18773:18810  Transfer(address(0), account, amount) */\n      0xffffffffffffffffffffffffffffffffffffffff\n      and\n        /* \"contract/myProject/CNRC_V2/V2_CNRedCross.sol\":18790:18791  0 */\n      0x00\n        /* \"contract/myProject/CNRC_V2/V2_CNRedCross.sol\":18773:18810  Transfer(address(0), account, amount) */\n      0xffffffffffffffffffffffffffffffffffffffff\n      and\n      0xddf252ad1be2c89b69c2b068fc378daa952ba7f163c4a11628f55a4df523b3ef\n        /* \"contract/myProject/CNRC_V2/V2_CNRedCross.sol\":18803:18809  amount */\n      dup4\n        /* \"contract/myProject/CNRC_V2/V2_CNRedCross.sol\":18773:18810  Transfer(address(0), account, amount) */\n      mload(0x40)\n      tag_305\n      swap2\n      swap1\n      tag_40\n      jump\t// in\n    tag_305:\n      mload(0x40)\n      dup1\n      swap2\n      sub\n      swap1\n      log3\n        /* \"contract/myProject/CNRC_V2/V2_CNRedCross.sol\":18823:18871  _afterTokenTransfer(address(0), account, amount) */\n      tag_306\n        /* \"contract/myProject/CNRC_V2/V2_CNRedCross.sol\":18851:18852  0 */\n      0x00\n        /* \"contract/myProject/CNRC_V2/V2_CNRedCross.sol\":18855:18862  account */\n      dup4\n        /* \"contract/myProject/CNRC_V2/V2_CNRedCross.sol\":18864:18870  amount */\n      dup4\n        /* \"contract/myProject/CNRC_V2/V2_CNRedCross.sol\":18823:18842  _afterTokenTransfer */\n      tag_263\n        /* \"contract/myProject/CNRC_V2/V2_CNRedCross.sol\":18823:18871  _afterTokenTransfer(address(0), account, amount) */\n      jump\t// in\n    tag_306:\n        /* \"contract/myProject/CNRC_V2/V2_CNRedCross.sol\":18331:18879  function _mint(address account, uint256 amount) internal virtual {\r... */\n      pop\n      pop\n      jump\t// out\n        /* \"contract/myProject/CNRC_V2/V2_CNRedCross.sol\":21775:21966  function _transferOwnership(address newOwner) internal virtual {\r... */\n    tag_186:\n        /* \"contract/myProject/CNRC_V2/V2_CNRedCross.sol\":21849:21865  address oldOwner */\n      0x00\n        /* \"contract/myProject/CNRC_V2/V2_CNRedCross.sol\":21868:21874  _owner */\n      0x65\n      0x00\n      swap1\n      sload\n      swap1\n      0x0100\n      exp\n      swap1\n      div\n      0xffffffffffffffffffffffffffffffffffffffff\n      and\n        /* \"contract/myProject/CNRC_V2/V2_CNRedCross.sol\":21849:21874  address oldOwner = _owner */\n      swap1\n      pop\n        /* \"contract/myProject/CNRC_V2/V2_CNRedCross.sol\":21894:21902  newOwner */\n      dup2\n        /* \"contract/myProject/CNRC_V2/V2_CNRedCross.sol\":21885:21891  _owner */\n      0x65\n      0x00\n        /* \"contract/myProject/CNRC_V2/V2_CNRedCross.sol\":21885:21902  _owner = newOwner */\n      0x0100\n      exp\n      dup2\n      sload\n      dup2\n      0xffffffffffffffffffffffffffffffffffffffff\n      mul\n      not\n      and\n      swap1\n      dup4\n      0xffffffffffffffffffffffffffffffffffffffff\n      and\n      mul\n      or\n      swap1\n      sstore\n      pop\n        /* \"contract/myProject/CNRC_V2/V2_CNRedCross.sol\":21949:21957  newOwner */\n      dup2\n        /* \"contract/myProject/CNRC_V2/V2_CNRedCross.sol\":21918:21958  OwnershipTransferred(oldOwner, newOwner) */\n      0xffffffffffffffffffffffffffffffffffffffff\n      and\n        /* \"contract/myProject/CNRC_V2/V2_CNRedCross.sol\":21939:21947  oldOwner */\n      dup2\n        /* \"contract/myProject/CNRC_V2/V2_CNRedCross.sol\":21918:21958  OwnershipTransferred(oldOwner, newOwner) */\n      0xffffffffffffffffffffffffffffffffffffffff\n      and\n      0x8be0079c531659141344cd1fd0a4f28419497f9722a3daafe3b4186f6b6457e0\n      mload(0x40)\n      mload(0x40)\n      dup1\n      swap2\n      sub\n      swap1\n      log3\n        /* \"contract/myProject/CNRC_V2/V2_CNRedCross.sol\":21838:21966  {\r... */\n      pop\n        /* \"contract/myProject/CNRC_V2/V2_CNRedCross.sol\":21775:21966  function _transferOwnership(address newOwner) internal virtual {\r... */\n      pop\n      jump\t// out\n        /* \"contract/myProject/CNRC_V2/V2_CNRedCross.sol\":1138:1464  function isContract(address account) internal view returns (bool) {\r... */\n    tag_208:\n        /* \"contract/myProject/CNRC_V2/V2_CNRedCross.sol\":1198:1202  bool */\n      0x00\n        /* \"contract/myProject/CNRC_V2/V2_CNRedCross.sol\":1455:1456  0 */\n      dup1\n        /* \"contract/myProject/CNRC_V2/V2_CNRedCross.sol\":1433:1440  account */\n      dup3\n        /* \"contract/myProject/CNRC_V2/V2_CNRedCross.sol\":1433:1452  account.code.length */\n      0xffffffffffffffffffffffffffffffffffffffff\n      and\n      extcodesize\n        /* \"contract/myProject/CNRC_V2/V2_CNRedCross.sol\":1433:1456  account.code.length > 0 */\n      gt\n        /* \"contract/myProject/CNRC_V2/V2_CNRedCross.sol\":1426:1456  return account.code.length > 0 */\n      swap1\n      pop\n        /* \"contract/myProject/CNRC_V2/V2_CNRedCross.sol\":1138:1464  function isContract(address account) internal view returns (bool) {\r... */\n      swap2\n      swap1\n      pop\n      jump\t// out\n        /* \"contract/myProject/CNRC_V2/V2_CNRedCross.sol\":15022:15171  function __ERC20_init(string memory name_, string memory symbol_) internal onlyInitializing {\r... */\n    tag_216:\n        /* \"contract/myProject/CNRC_V2/V2_CNRedCross.sol\":12473:12486  _initializing */\n      0x00\n      0x01\n      swap1\n      sload\n      swap1\n      0x0100\n      exp\n      swap1\n      div\n      0xff\n      and\n        /* \"contract/myProject/CNRC_V2/V2_CNRedCross.sol\":12465:12534  require(_initializing, \"Initializable: contract is not initializing\") */\n      tag_310\n      jumpi\n      mload(0x40)\n      0x08c379a000000000000000000000000000000000000000000000000000000000\n      dup2\n      mstore\n      0x04\n      add\n      tag_311\n      swap1\n      tag_312\n      jump\t// in\n    tag_311:\n      mload(0x40)\n      dup1\n      swap2\n      sub\n      swap1\n      revert\n    tag_310:\n        /* \"contract/myProject/CNRC_V2/V2_CNRedCross.sol\":15125:15163  __ERC20_init_unchained(name_, symbol_) */\n      tag_314\n        /* \"contract/myProject/CNRC_V2/V2_CNRedCross.sol\":15148:15153  name_ */\n      dup3\n        /* \"contract/myProject/CNRC_V2/V2_CNRedCross.sol\":15155:15162  symbol_ */\n      dup3\n        /* \"contract/myProject/CNRC_V2/V2_CNRedCross.sol\":15125:15147  __ERC20_init_unchained */\n      tag_315\n        /* \"contract/myProject/CNRC_V2/V2_CNRedCross.sol\":15125:15163  __ERC20_init_unchained(name_, symbol_) */\n      jump\t// in\n    tag_314:\n        /* \"contract/myProject/CNRC_V2/V2_CNRedCross.sol\":15022:15171  function __ERC20_init(string memory name_, string memory symbol_) internal onlyInitializing {\r... */\n      pop\n      pop\n      jump\t// out\n        /* \"contract/myProject/CNRC_V2/V2_CNRedCross.sol\":20921:21018  function __Ownable_init() internal onlyInitializing {\r... */\n    tag_218:\n        /* \"contract/myProject/CNRC_V2/V2_CNRedCross.sol\":12473:12486  _initializing */\n      0x00\n      0x01\n      swap1\n      sload\n      swap1\n      0x0100\n      exp\n      swap1\n      div\n      0xff\n      and\n        /* \"contract/myProject/CNRC_V2/V2_CNRedCross.sol\":12465:12534  require(_initializing, \"Initializable: contract is not initializing\") */\n      tag_317\n      jumpi\n      mload(0x40)\n      0x08c379a000000000000000000000000000000000000000000000000000000000\n      dup2\n      mstore\n      0x04\n      add\n      tag_318\n      swap1\n      tag_312\n      jump\t// in\n    tag_318:\n      mload(0x40)\n      dup1\n      swap2\n      sub\n      swap1\n      revert\n    tag_317:\n        /* \"contract/myProject/CNRC_V2/V2_CNRedCross.sol\":20984:21010  __Ownable_init_unchained() */\n      tag_320\n        /* \"contract/myProject/CNRC_V2/V2_CNRedCross.sol\":20984:21008  __Ownable_init_unchained */\n      tag_321\n        /* \"contract/myProject/CNRC_V2/V2_CNRedCross.sol\":20984:21010  __Ownable_init_unchained() */\n      jump\t// in\n    tag_320:\n        /* \"contract/myProject/CNRC_V2/V2_CNRedCross.sol\":20921:21018  function __Ownable_init() internal onlyInitializing {\r... */\n      jump\t// out\n        /* \"contract/myProject/CNRC_V2/V2_CNRedCross.sol\":31290:31358  function __UUPSUpgradeable_init() internal onlyInitializing {\r... */\n    tag_220:\n        /* \"contract/myProject/CNRC_V2/V2_CNRedCross.sol\":12473:12486  _initializing */\n      0x00\n      0x01\n      swap1\n      sload\n      swap1\n      0x0100\n      exp\n      swap1\n      div\n      0xff\n      and\n        /* \"contract/myProject/CNRC_V2/V2_CNRedCross.sol\":12465:12534  require(_initializing, \"Initializable: contract is not initializing\") */\n      tag_323\n      jumpi\n      mload(0x40)\n      0x08c379a000000000000000000000000000000000000000000000000000000000\n      dup2\n      mstore\n      0x04\n      add\n      tag_324\n      swap1\n      tag_312\n      jump\t// in\n    tag_324:\n      mload(0x40)\n      dup1\n      swap2\n      sub\n      swap1\n      revert\n    tag_323:\n        /* \"contract/myProject/CNRC_V2/V2_CNRedCross.sol\":31290:31358  function __UUPSUpgradeable_init() internal onlyInitializing {\r... */\n      jump\t// out\n        /* \"contract/myProject/CNRC_V2/V2_CNRedCross.sol\":20419:20544  function _beforeTokenTransfer(\r... */\n    tag_257:\n      pop\n      pop\n      pop\n      jump\t// out\n        /* \"contract/myProject/CNRC_V2/V2_CNRedCross.sol\":20552:20676  function _afterTokenTransfer(\r... */\n    tag_263:\n      pop\n      pop\n      pop\n      jump\t// out\n        /* \"contract/myProject/CNRC_V2/V2_CNRedCross.sol\":8786:8981  function getAddressSlot(bytes32 slot) internal pure returns (AddressSlot storage r) {\r... */\n    tag_266:\n        /* \"contract/myProject/CNRC_V2/V2_CNRedCross.sol\":8847:8868  AddressSlot storage r */\n      0x00\n        /* \"contract/myProject/CNRC_V2/V2_CNRedCross.sol\":8959:8963  slot */\n      dup2\n        /* \"contract/myProject/CNRC_V2/V2_CNRedCross.sol\":8949:8963  r.slot := slot */\n      swap1\n      pop\n        /* \"contract/myProject/CNRC_V2/V2_CNRedCross.sol\":8786:8981  function getAddressSlot(bytes32 slot) internal pure returns (AddressSlot storage r) {\r... */\n      swap2\n      swap1\n      pop\n      jump\t// out\n        /* \"contract/myProject/CNRC_V2/V2_CNRedCross.sol\":9084:9279  function getBooleanSlot(bytes32 slot) internal pure returns (BooleanSlot storage r) {\r... */\n    tag_272:\n        /* \"contract/myProject/CNRC_V2/V2_CNRedCross.sol\":9145:9166  BooleanSlot storage r */\n      0x00\n        /* \"contract/myProject/CNRC_V2/V2_CNRedCross.sol\":9257:9261  slot */\n      dup2\n        /* \"contract/myProject/CNRC_V2/V2_CNRedCross.sol\":9247:9261  r.slot := slot */\n      swap1\n      pop\n        /* \"contract/myProject/CNRC_V2/V2_CNRedCross.sol\":9084:9279  function getBooleanSlot(bytes32 slot) internal pure returns (BooleanSlot storage r) {\r... */\n      swap2\n      swap1\n      pop\n      jump\t// out\n        /* \"contract/myProject/CNRC_V2/V2_CNRedCross.sol\":24318:24602  function _setImplementation(address newImplementation) private {\r... */\n    tag_275:\n        /* \"contract/myProject/CNRC_V2/V2_CNRedCross.sol\":24400:24448  AddressUpgradeable.isContract(newImplementation) */\n      tag_331\n        /* \"contract/myProject/CNRC_V2/V2_CNRedCross.sol\":24430:24447  newImplementation */\n      dup2\n        /* \"contract/myProject/CNRC_V2/V2_CNRedCross.sol\":24400:24429  AddressUpgradeable.isContract */\n      tag_208\n        /* \"contract/myProject/CNRC_V2/V2_CNRedCross.sol\":24400:24448  AddressUpgradeable.isContract(newImplementation) */\n      jump\t// in\n    tag_331:\n        /* \"contract/myProject/CNRC_V2/V2_CNRedCross.sol\":24392:24498  require(AddressUpgradeable.isContract(newImplementation), \"ERC1967: new implementation is not a contract\") */\n      tag_332\n      jumpi\n      mload(0x40)\n      0x08c379a000000000000000000000000000000000000000000000000000000000\n      dup2\n      mstore\n      0x04\n      add\n      tag_333\n      swap1\n      tag_334\n      jump\t// in\n    tag_333:\n      mload(0x40)\n      dup1\n      swap2\n      sub\n      swap1\n      revert\n    tag_332:\n        /* \"contract/myProject/CNRC_V2/V2_CNRedCross.sol\":24577:24594  newImplementation */\n      dup1\n        /* \"contract/myProject/CNRC_V2/V2_CNRedCross.sol\":24509:24568  StorageSlotUpgradeable.getAddressSlot(_IMPLEMENTATION_SLOT) */\n      tag_335\n        /* \"contract/myProject/CNRC_V2/V2_CNRedCross.sol\":23788:23854  0x360894a13ba1a3210667c828492db98dca3e2076cc3735a920a3ca505d382bbc */\n      0x360894a13ba1a3210667c828492db98dca3e2076cc3735a920a3ca505d382bbc\n        /* \"contract/myProject/CNRC_V2/V2_CNRedCross.sol\":24547:24567  _IMPLEMENTATION_SLOT */\n      0x00\n      shl\n        /* \"contract/myProject/CNRC_V2/V2_CNRedCross.sol\":24509:24546  StorageSlotUpgradeable.getAddressSlot */\n      tag_266\n        /* \"contract/myProject/CNRC_V2/V2_CNRedCross.sol\":24509:24568  StorageSlotUpgradeable.getAddressSlot(_IMPLEMENTATION_SLOT) */\n      jump\t// in\n    tag_335:\n        /* \"contract/myProject/CNRC_V2/V2_CNRedCross.sol\":24509:24574  StorageSlotUpgradeable.getAddressSlot(_IMPLEMENTATION_SLOT).value */\n      0x00\n      add\n      0x00\n        /* \"contract/myProject/CNRC_V2/V2_CNRedCross.sol\":24509:24594  StorageSlotUpgradeable.getAddressSlot(_IMPLEMENTATION_SLOT).value = newImplementation */\n      0x0100\n      exp\n      dup2\n      sload\n      dup2\n      0xffffffffffffffffffffffffffffffffffffffff\n      mul\n      not\n      and\n      swap1\n      dup4\n      0xffffffffffffffffffffffffffffffffffffffff\n      and\n      mul\n      or\n      swap1\n      sstore\n      pop\n        /* \"contract/myProject/CNRC_V2/V2_CNRedCross.sol\":24318:24602  function _setImplementation(address newImplementation) private {\r... */\n      pop\n      jump\t// out\n        /* \"contract/myProject/CNRC_V2/V2_CNRedCross.sol\":25011:25308  function _upgradeToAndCall(\r... */\n    tag_292:\n        /* \"contract/myProject/CNRC_V2/V2_CNRedCross.sol\":25154:25183  _upgradeTo(newImplementation) */\n      tag_337\n        /* \"contract/myProject/CNRC_V2/V2_CNRedCross.sol\":25165:25182  newImplementation */\n      dup4\n        /* \"contract/myProject/CNRC_V2/V2_CNRedCross.sol\":25154:25164  _upgradeTo */\n      tag_338\n        /* \"contract/myProject/CNRC_V2/V2_CNRedCross.sol\":25154:25183  _upgradeTo(newImplementation) */\n      jump\t// in\n    tag_337:\n        /* \"contract/myProject/CNRC_V2/V2_CNRedCross.sol\":25212:25213  0 */\n      0x00\n        /* \"contract/myProject/CNRC_V2/V2_CNRedCross.sol\":25198:25202  data */\n      dup3\n        /* \"contract/myProject/CNRC_V2/V2_CNRedCross.sol\":25198:25209  data.length */\n      mload\n        /* \"contract/myProject/CNRC_V2/V2_CNRedCross.sol\":25198:25213  data.length > 0 */\n      gt\n        /* \"contract/myProject/CNRC_V2/V2_CNRedCross.sol\":25198:25226  data.length > 0 || forceCall */\n      dup1\n      tag_339\n      jumpi\n      pop\n        /* \"contract/myProject/CNRC_V2/V2_CNRedCross.sol\":25217:25226  forceCall */\n      dup1\n        /* \"contract/myProject/CNRC_V2/V2_CNRedCross.sol\":25198:25226  data.length > 0 || forceCall */\n    tag_339:\n        /* \"contract/myProject/CNRC_V2/V2_CNRedCross.sol\":25194:25301  if (data.length > 0 || forceCall) {\r... */\n      iszero\n      tag_340\n      jumpi\n        /* \"contract/myProject/CNRC_V2/V2_CNRedCross.sol\":25243:25289  _functionDelegateCall(newImplementation, data) */\n      tag_341\n        /* \"contract/myProject/CNRC_V2/V2_CNRedCross.sol\":25265:25282  newImplementation */\n      dup4\n        /* \"contract/myProject/CNRC_V2/V2_CNRedCross.sol\":25284:25288  data */\n      dup4\n        /* \"contract/myProject/CNRC_V2/V2_CNRedCross.sol\":25243:25264  _functionDelegateCall */\n      tag_342\n        /* \"contract/myProject/CNRC_V2/V2_CNRedCross.sol\":25243:25289  _functionDelegateCall(newImplementation, data) */\n      jump\t// in\n    tag_341:\n      pop\n        /* \"contract/myProject/CNRC_V2/V2_CNRedCross.sol\":25194:25301  if (data.length > 0 || forceCall) {\r... */\n    tag_340:\n        /* \"contract/myProject/CNRC_V2/V2_CNRedCross.sol\":25011:25308  function _upgradeToAndCall(\r... */\n      pop\n      pop\n      pop\n      jump\t// out\n        /* \"contract/myProject/CNRC_V2/V2_CNRedCross.sol\":15179:15341  function __ERC20_init_unchained(string memory name_, string memory symbol_) internal onlyInitializing {\r... */\n    tag_315:\n        /* \"contract/myProject/CNRC_V2/V2_CNRedCross.sol\":12473:12486  _initializing */\n      0x00\n      0x01\n      swap1\n      sload\n      swap1\n      0x0100\n      exp\n      swap1\n      div\n      0xff\n      and\n        /* \"contract/myProject/CNRC_V2/V2_CNRedCross.sol\":12465:12534  require(_initializing, \"Initializable: contract is not initializing\") */\n      tag_344\n      jumpi\n      mload(0x40)\n      0x08c379a000000000000000000000000000000000000000000000000000000000\n      dup2\n      mstore\n      0x04\n      add\n      tag_345\n      swap1\n      tag_312\n      jump\t// in\n    tag_345:\n      mload(0x40)\n      dup1\n      swap2\n      sub\n      swap1\n      revert\n    tag_344:\n        /* \"contract/myProject/CNRC_V2/V2_CNRedCross.sol\":15300:15305  name_ */\n      dup2\n        /* \"contract/myProject/CNRC_V2/V2_CNRedCross.sol\":15292:15297  _name */\n      0x36\n        /* \"contract/myProject/CNRC_V2/V2_CNRedCross.sol\":15292:15305  _name = name_ */\n      swap1\n      dup1\n      mload\n      swap1\n      0x20\n      add\n      swap1\n      tag_347\n      swap3\n      swap2\n      swap1\n      tag_348\n      jump\t// in\n    tag_347:\n      pop\n        /* \"contract/myProject/CNRC_V2/V2_CNRedCross.sol\":15326:15333  symbol_ */\n      dup1\n        /* \"contract/myProject/CNRC_V2/V2_CNRedCross.sol\":15316:15323  _symbol */\n      0x37\n        /* \"contract/myProject/CNRC_V2/V2_CNRedCross.sol\":15316:15333  _symbol = symbol_ */\n      swap1\n      dup1\n      mload\n      swap1\n      0x20\n      add\n      swap1\n      tag_349\n      swap3\n      swap2\n      swap1\n      tag_348\n      jump\t// in\n    tag_349:\n      pop\n        /* \"contract/myProject/CNRC_V2/V2_CNRedCross.sol\":15179:15341  function __ERC20_init_unchained(string memory name_, string memory symbol_) internal onlyInitializing {\r... */\n      pop\n      pop\n      jump\t// out\n        /* \"contract/myProject/CNRC_V2/V2_CNRedCross.sol\":21026:21139  function __Ownable_init_unchained() internal onlyInitializing {\r... */\n    tag_321:\n        /* \"contract/myProject/CNRC_V2/V2_CNRedCross.sol\":12473:12486  _initializing */\n      0x00\n      0x01\n      swap1\n      sload\n      swap1\n      0x0100\n      exp\n      swap1\n      div\n      0xff\n      and\n        /* \"contract/myProject/CNRC_V2/V2_CNRedCross.sol\":12465:12534  require(_initializing, \"Initializable: contract is not initializing\") */\n      tag_351\n      jumpi\n      mload(0x40)\n      0x08c379a000000000000000000000000000000000000000000000000000000000\n      dup2\n      mstore\n      0x04\n      add\n      tag_352\n      swap1\n      tag_312\n      jump\t// in\n    tag_352:\n      mload(0x40)\n      dup1\n      swap2\n      sub\n      swap1\n      revert\n    tag_351:\n        /* \"contract/myProject/CNRC_V2/V2_CNRedCross.sol\":21099:21131  _transferOwnership(_msgSender()) */\n      tag_354\n        /* \"contract/myProject/CNRC_V2/V2_CNRedCross.sol\":21118:21130  _msgSender() */\n      tag_355\n        /* \"contract/myProject/CNRC_V2/V2_CNRedCross.sol\":21118:21128  _msgSender */\n      tag_126\n        /* \"contract/myProject/CNRC_V2/V2_CNRedCross.sol\":21118:21130  _msgSender() */\n      jump\t// in\n    tag_355:\n        /* \"contract/myProject/CNRC_V2/V2_CNRedCross.sol\":21099:21117  _transferOwnership */\n      tag_186\n        /* \"contract/myProject/CNRC_V2/V2_CNRedCross.sol\":21099:21131  _transferOwnership(_msgSender()) */\n      jump\t// in\n    tag_354:\n        /* \"contract/myProject/CNRC_V2/V2_CNRedCross.sol\":21026:21139  function __Ownable_init_unchained() internal onlyInitializing {\r... */\n      jump\t// out\n        /* \"contract/myProject/CNRC_V2/V2_CNRedCross.sol\":24715:24870  function _upgradeTo(address newImplementation) internal {\r... */\n    tag_338:\n        /* \"contract/myProject/CNRC_V2/V2_CNRedCross.sol\":24782:24819  _setImplementation(newImplementation) */\n      tag_357\n        /* \"contract/myProject/CNRC_V2/V2_CNRedCross.sol\":24801:24818  newImplementation */\n      dup2\n        /* \"contract/myProject/CNRC_V2/V2_CNRedCross.sol\":24782:24800  _setImplementation */\n      tag_275\n        /* \"contract/myProject/CNRC_V2/V2_CNRedCross.sol\":24782:24819  _setImplementation(newImplementation) */\n      jump\t// in\n    tag_357:\n        /* \"contract/myProject/CNRC_V2/V2_CNRedCross.sol\":24844:24861  newImplementation */\n      dup1\n        /* \"contract/myProject/CNRC_V2/V2_CNRedCross.sol\":24835:24862  Upgraded(newImplementation) */\n      0xffffffffffffffffffffffffffffffffffffffff\n      and\n      0xbc7cd75a20ee27fd9adebab32041f755214dbc6bffa90cc0225b39da2e5c2d3b\n      mload(0x40)\n      mload(0x40)\n      dup1\n      swap2\n      sub\n      swap1\n      log2\n        /* \"contract/myProject/CNRC_V2/V2_CNRedCross.sol\":24715:24870  function _upgradeTo(address newImplementation) internal {\r... */\n      pop\n      jump\t// out\n        /* \"contract/myProject/CNRC_V2/V2_CNRedCross.sol\":29748:30209  function _functionDelegateCall(address target, bytes memory data) private returns (bytes memory) {\r... */\n    tag_342:\n        /* \"contract/myProject/CNRC_V2/V2_CNRedCross.sol\":29831:29843  bytes memory */\n      0x60\n        /* \"contract/myProject/CNRC_V2/V2_CNRedCross.sol\":29864:29901  AddressUpgradeable.isContract(target) */\n      tag_359\n        /* \"contract/myProject/CNRC_V2/V2_CNRedCross.sol\":29894:29900  target */\n      dup4\n        /* \"contract/myProject/CNRC_V2/V2_CNRedCross.sol\":29864:29893  AddressUpgradeable.isContract */\n      tag_208\n        /* \"contract/myProject/CNRC_V2/V2_CNRedCross.sol\":29864:29901  AddressUpgradeable.isContract(target) */\n      jump\t// in\n    tag_359:\n        /* \"contract/myProject/CNRC_V2/V2_CNRedCross.sol\":29856:29944  require(AddressUpgradeable.isContract(target), \"Address: delegate call to non-contract\") */\n      tag_360\n      jumpi\n      mload(0x40)\n      0x08c379a000000000000000000000000000000000000000000000000000000000\n      dup2\n      mstore\n      0x04\n      add\n      tag_361\n      swap1\n      tag_362\n      jump\t// in\n    tag_361:\n      mload(0x40)\n      dup1\n      swap2\n      sub\n      swap1\n      revert\n    tag_360:\n        /* \"contract/myProject/CNRC_V2/V2_CNRedCross.sol\":30018:30030  bool success */\n      0x00\n        /* \"contract/myProject/CNRC_V2/V2_CNRedCross.sol\":30032:30055  bytes memory returndata */\n      dup1\n        /* \"contract/myProject/CNRC_V2/V2_CNRedCross.sol\":30059:30065  target */\n      dup5\n        /* \"contract/myProject/CNRC_V2/V2_CNRedCross.sol\":30059:30078  target.delegatecall */\n      0xffffffffffffffffffffffffffffffffffffffff\n      and\n        /* \"contract/myProject/CNRC_V2/V2_CNRedCross.sol\":30079:30083  data */\n      dup5\n        /* \"contract/myProject/CNRC_V2/V2_CNRedCross.sol\":30059:30084  target.delegatecall(data) */\n      mload(0x40)\n      tag_363\n      swap2\n      swap1\n      tag_364\n      jump\t// in\n    tag_363:\n      0x00\n      mload(0x40)\n      dup1\n      dup4\n      sub\n      dup2\n      dup6\n      gas\n      delegatecall\n      swap2\n      pop\n      pop\n      returndatasize\n      dup1\n      0x00\n      dup2\n      eq\n      tag_367\n      jumpi\n      mload(0x40)\n      swap2\n      pop\n      and(add(returndatasize, 0x3f), not(0x1f))\n      dup3\n      add\n      0x40\n      mstore\n      returndatasize\n      dup3\n      mstore\n      returndatasize\n      0x00\n      0x20\n      dup5\n      add\n      returndatacopy\n      jump(tag_366)\n    tag_367:\n      0x60\n      swap2\n      pop\n    tag_366:\n      pop\n        /* \"contract/myProject/CNRC_V2/V2_CNRedCross.sol\":30017:30084  (bool success, bytes memory returndata) = target.delegatecall(data) */\n      swap2\n      pop\n      swap2\n      pop\n        /* \"contract/myProject/CNRC_V2/V2_CNRedCross.sol\":30102:30201  AddressUpgradeable.verifyCallResult(success, returndata, \"Address: low-level delegate call failed\") */\n      tag_368\n        /* \"contract/myProject/CNRC_V2/V2_CNRedCross.sol\":30138:30145  success */\n      dup3\n        /* \"contract/myProject/CNRC_V2/V2_CNRedCross.sol\":30147:30157  returndata */\n      dup3\n        /* \"contract/myProject/CNRC_V2/V2_CNRedCross.sol\":30102:30201  AddressUpgradeable.verifyCallResult(success, returndata, \"Address: low-level delegate call failed\") */\n      mload(0x40)\n      dup1\n      0x60\n      add\n      0x40\n      mstore\n      dup1\n      0x27\n      dup2\n      mstore\n      0x20\n      add\n      data_9fdcd12e4b726339b32a442b0a448365d5d85c96b2d2cff917b4f66c63110398\n      0x27\n      swap2\n      codecopy\n        /* \"contract/myProject/CNRC_V2/V2_CNRedCross.sol\":30102:30137  AddressUpgradeable.verifyCallResult */\n      tag_369\n        /* \"contract/myProject/CNRC_V2/V2_CNRedCross.sol\":30102:30201  AddressUpgradeable.verifyCallResult(success, returndata, \"Address: low-level delegate call failed\") */\n      jump\t// in\n    tag_368:\n        /* \"contract/myProject/CNRC_V2/V2_CNRedCross.sol\":30095:30201  return AddressUpgradeable.verifyCallResult(success, returndata, \"Address: low-level delegate call failed\") */\n      swap3\n      pop\n      pop\n      pop\n        /* \"contract/myProject/CNRC_V2/V2_CNRedCross.sol\":29748:30209  function _functionDelegateCall(address target, bytes memory data) private returns (bytes memory) {\r... */\n      swap3\n      swap2\n      pop\n      pop\n      jump\t// out\n        /* \"contract/myProject/CNRC_V2/V2_CNRedCross.sol\":7548:7853  function verifyCallResult(\r... */\n    tag_369:\n        /* \"contract/myProject/CNRC_V2/V2_CNRedCross.sol\":7698:7710  bytes memory */\n      0x60\n        /* \"contract/myProject/CNRC_V2/V2_CNRedCross.sol\":7727:7734  success */\n      dup4\n        /* \"contract/myProject/CNRC_V2/V2_CNRedCross.sol\":7723:7846  if (success) {\r... */\n      iszero\n      tag_371\n      jumpi\n        /* \"contract/myProject/CNRC_V2/V2_CNRedCross.sol\":7758:7768  returndata */\n      dup3\n        /* \"contract/myProject/CNRC_V2/V2_CNRedCross.sol\":7751:7768  return returndata */\n      swap1\n      pop\n      jump(tag_370)\n        /* \"contract/myProject/CNRC_V2/V2_CNRedCross.sol\":7723:7846  if (success) {\r... */\n    tag_371:\n        /* \"contract/myProject/CNRC_V2/V2_CNRedCross.sol\":7801:7834  _revert(returndata, errorMessage) */\n      tag_373\n        /* \"contract/myProject/CNRC_V2/V2_CNRedCross.sol\":7809:7819  returndata */\n      dup4\n        /* \"contract/myProject/CNRC_V2/V2_CNRedCross.sol\":7821:7833  errorMessage */\n      dup4\n        /* \"contract/myProject/CNRC_V2/V2_CNRedCross.sol\":7801:7808  _revert */\n      tag_374\n        /* \"contract/myProject/CNRC_V2/V2_CNRedCross.sol\":7801:7834  _revert(returndata, errorMessage) */\n      jump\t// in\n    tag_373:\n        /* \"contract/myProject/CNRC_V2/V2_CNRedCross.sol\":7548:7853  function verifyCallResult(\r... */\n    tag_370:\n      swap4\n      swap3\n      pop\n      pop\n      pop\n      jump\t// out\n        /* \"contract/myProject/CNRC_V2/V2_CNRedCross.sol\":7861:8413  function _revert(bytes memory returndata, string memory errorMessage) private pure {\r... */\n    tag_374:\n        /* \"contract/myProject/CNRC_V2/V2_CNRedCross.sol\":8042:8043  0 */\n      0x00\n        /* \"contract/myProject/CNRC_V2/V2_CNRedCross.sol\":8022:8032  returndata */\n      dup3\n        /* \"contract/myProject/CNRC_V2/V2_CNRedCross.sol\":8022:8039  returndata.length */\n      mload\n        /* \"contract/myProject/CNRC_V2/V2_CNRedCross.sol\":8022:8043  returndata.length > 0 */\n      gt\n        /* \"contract/myProject/CNRC_V2/V2_CNRedCross.sol\":8018:8406  if (returndata.length > 0) {\r... */\n      iszero\n      tag_376\n      jumpi\n        /* \"contract/myProject/CNRC_V2/V2_CNRedCross.sol\":8254:8264  returndata */\n      dup2\n        /* \"contract/myProject/CNRC_V2/V2_CNRedCross.sol\":8248:8265  mload(returndata) */\n      mload\n        /* \"contract/myProject/CNRC_V2/V2_CNRedCross.sol\":8311:8326  returndata_size */\n      dup1\n        /* \"contract/myProject/CNRC_V2/V2_CNRedCross.sol\":8298:8308  returndata */\n      dup4\n        /* \"contract/myProject/CNRC_V2/V2_CNRedCross.sol\":8294:8296  32 */\n      0x20\n        /* \"contract/myProject/CNRC_V2/V2_CNRedCross.sol\":8290:8309  add(32, returndata) */\n      add\n        /* \"contract/myProject/CNRC_V2/V2_CNRedCross.sol\":8283:8327  revert(add(32, returndata), returndata_size) */\n      revert\n        /* \"contract/myProject/CNRC_V2/V2_CNRedCross.sol\":8018:8406  if (returndata.length > 0) {\r... */\n    tag_376:\n        /* \"contract/myProject/CNRC_V2/V2_CNRedCross.sol\":8381:8393  errorMessage */\n      dup1\n        /* \"contract/myProject/CNRC_V2/V2_CNRedCross.sol\":8374:8394  revert(errorMessage) */\n      mload(0x40)\n      0x08c379a000000000000000000000000000000000000000000000000000000000\n      dup2\n      mstore\n      0x04\n      add\n      tag_378\n      swap2\n      swap1\n      tag_28\n      jump\t// in\n    tag_378:\n      mload(0x40)\n      dup1\n      swap2\n      sub\n      swap1\n      revert\n    tag_348:\n      dup3\n      dup1\n      sload\n      tag_379\n      swap1\n      tag_119\n      jump\t// in\n    tag_379:\n      swap1\n      0x00\n      mstore\n      keccak256(0x00, 0x20)\n      swap1\n      0x1f\n      add\n      0x20\n      swap1\n      div\n      dup2\n      add\n      swap3\n      dup3\n      tag_381\n      jumpi\n      0x00\n      dup6\n      sstore\n      jump(tag_380)\n    tag_381:\n      dup3\n      0x1f\n      lt\n      tag_382\n      jumpi\n      dup1\n      mload\n      not(0xff)\n      and\n      dup4\n      dup1\n      add\n      or\n      dup6\n      sstore\n      jump(tag_380)\n    tag_382:\n      dup3\n      dup1\n      add\n      0x01\n      add\n      dup6\n      sstore\n      dup3\n      iszero\n      tag_380\n      jumpi\n      swap2\n      dup3\n      add\n    tag_383:\n      dup3\n      dup2\n      gt\n      iszero\n      tag_384\n      jumpi\n      dup3\n      mload\n      dup3\n      sstore\n      swap2\n      0x20\n      add\n      swap2\n      swap1\n      0x01\n      add\n      swap1\n      jump(tag_383)\n    tag_384:\n    tag_380:\n      pop\n      swap1\n      pop\n      tag_385\n      swap2\n      swap1\n      tag_386\n      jump\t// in\n    tag_385:\n      pop\n      swap1\n      jump\t// out\n    tag_386:\n    tag_387:\n      dup1\n      dup3\n      gt\n      iszero\n      tag_388\n      jumpi\n      0x00\n      dup2\n      0x00\n      swap1\n      sstore\n      pop\n      0x01\n      add\n      jump(tag_387)\n    tag_388:\n      pop\n      swap1\n      jump\t// out\n        /* \"#utility.yul\":7:417   */\n    tag_390:\n        /* \"#utility.yul\":84:89   */\n      0x00\n        /* \"#utility.yul\":109:174   */\n      tag_392\n        /* \"#utility.yul\":125:173   */\n      tag_393\n        /* \"#utility.yul\":166:172   */\n      dup5\n        /* \"#utility.yul\":125:173   */\n      tag_394\n      jump\t// in\n    tag_393:\n        /* \"#utility.yul\":109:174   */\n      tag_395\n      jump\t// in\n    tag_392:\n        /* \"#utility.yul\":100:174   */\n      swap1\n      pop\n        /* \"#utility.yul\":197:203   */\n      dup3\n        /* \"#utility.yul\":190:195   */\n      dup2\n        /* \"#utility.yul\":183:204   */\n      mstore\n        /* \"#utility.yul\":235:239   */\n      0x20\n        /* \"#utility.yul\":228:233   */\n      dup2\n        /* \"#utility.yul\":224:240   */\n      add\n        /* \"#utility.yul\":273:276   */\n      dup5\n        /* \"#utility.yul\":264:270   */\n      dup5\n        /* \"#utility.yul\":259:262   */\n      dup5\n        /* \"#utility.yul\":255:271   */\n      add\n        /* \"#utility.yul\":252:277   */\n      gt\n        /* \"#utility.yul\":249:361   */\n      iszero\n      tag_396\n      jumpi\n        /* \"#utility.yul\":280:359   */\n      tag_397\n      tag_398\n      jump\t// in\n    tag_397:\n        /* \"#utility.yul\":249:361   */\n    tag_396:\n        /* \"#utility.yul\":370:411   */\n      tag_399\n        /* \"#utility.yul\":404:410   */\n      dup5\n        /* \"#utility.yul\":399:402   */\n      dup3\n        /* \"#utility.yul\":394:397   */\n      dup6\n        /* \"#utility.yul\":370:411   */\n      tag_400\n      jump\t// in\n    tag_399:\n        /* \"#utility.yul\":90:417   */\n      pop\n        /* \"#utility.yul\":7:417   */\n      swap4\n      swap3\n      pop\n      pop\n      pop\n      jump\t// out\n        /* \"#utility.yul\":423:835   */\n    tag_401:\n        /* \"#utility.yul\":501:506   */\n      0x00\n        /* \"#utility.yul\":526:592   */\n      tag_403\n        /* \"#utility.yul\":542:591   */\n      tag_404\n        /* \"#utility.yul\":584:590   */\n      dup5\n        /* \"#utility.yul\":542:591   */\n      tag_405\n      jump\t// in\n    tag_404:\n        /* \"#utility.yul\":526:592   */\n      tag_395\n      jump\t// in\n    tag_403:\n        /* \"#utility.yul\":517:592   */\n      swap1\n      pop\n        /* \"#utility.yul\":615:621   */\n      dup3\n        /* \"#utility.yul\":608:613   */\n      dup2\n        /* \"#utility.yul\":601:622   */\n      mstore\n        /* \"#utility.yul\":653:657   */\n      0x20\n        /* \"#utility.yul\":646:651   */\n      dup2\n        /* \"#utility.yul\":642:658   */\n      add\n        /* \"#utility.yul\":691:694   */\n      dup5\n        /* \"#utility.yul\":682:688   */\n      dup5\n        /* \"#utility.yul\":677:680   */\n      dup5\n        /* \"#utility.yul\":673:689   */\n      add\n        /* \"#utility.yul\":670:695   */\n      gt\n        /* \"#utility.yul\":667:779   */\n      iszero\n      tag_406\n      jumpi\n        /* \"#utility.yul\":698:777   */\n      tag_407\n      tag_398\n      jump\t// in\n    tag_407:\n        /* \"#utility.yul\":667:779   */\n    tag_406:\n        /* \"#utility.yul\":788:829   */\n      tag_408\n        /* \"#utility.yul\":822:828   */\n      dup5\n        /* \"#utility.yul\":817:820   */\n      dup3\n        /* \"#utility.yul\":812:815   */\n      dup6\n        /* \"#utility.yul\":788:829   */\n      tag_400\n      jump\t// in\n    tag_408:\n        /* \"#utility.yul\":507:835   */\n      pop\n        /* \"#utility.yul\":423:835   */\n      swap4\n      swap3\n      pop\n      pop\n      pop\n      jump\t// out\n        /* \"#utility.yul\":841:980   */\n    tag_409:\n        /* \"#utility.yul\":887:892   */\n      0x00\n        /* \"#utility.yul\":925:931   */\n      dup2\n        /* \"#utility.yul\":912:932   */\n      calldataload\n        /* \"#utility.yul\":903:932   */\n      swap1\n      pop\n        /* \"#utility.yul\":941:974   */\n      tag_411\n        /* \"#utility.yul\":968:973   */\n      dup2\n        /* \"#utility.yul\":941:974   */\n      tag_412\n      jump\t// in\n    tag_411:\n        /* \"#utility.yul\":841:980   */\n      swap3\n      swap2\n      pop\n      pop\n      jump\t// out\n        /* \"#utility.yul\":986:1129   */\n    tag_413:\n        /* \"#utility.yul\":1043:1048   */\n      0x00\n        /* \"#utility.yul\":1074:1080   */\n      dup2\n        /* \"#utility.yul\":1068:1081   */\n      mload\n        /* \"#utility.yul\":1059:1081   */\n      swap1\n      pop\n        /* \"#utility.yul\":1090:1123   */\n      tag_415\n        /* \"#utility.yul\":1117:1122   */\n      dup2\n        /* \"#utility.yul\":1090:1123   */\n      tag_416\n      jump\t// in\n    tag_415:\n        /* \"#utility.yul\":986:1129   */\n      swap3\n      swap2\n      pop\n      pop\n      jump\t// out\n        /* \"#utility.yul\":1148:1486   */\n    tag_417:\n        /* \"#utility.yul\":1203:1208   */\n      0x00\n        /* \"#utility.yul\":1252:1255   */\n      dup3\n        /* \"#utility.yul\":1245:1249   */\n      0x1f\n        /* \"#utility.yul\":1237:1243   */\n      dup4\n        /* \"#utility.yul\":1233:1250   */\n      add\n        /* \"#utility.yul\":1229:1256   */\n      slt\n        /* \"#utility.yul\":1219:1341   */\n      tag_419\n      jumpi\n        /* \"#utility.yul\":1260:1339   */\n      tag_420\n      tag_421\n      jump\t// in\n    tag_420:\n        /* \"#utility.yul\":1219:1341   */\n    tag_419:\n        /* \"#utility.yul\":1377:1383   */\n      dup2\n        /* \"#utility.yul\":1364:1384   */\n      calldataload\n        /* \"#utility.yul\":1402:1480   */\n      tag_422\n        /* \"#utility.yul\":1476:1479   */\n      dup5\n        /* \"#utility.yul\":1468:1474   */\n      dup3\n        /* \"#utility.yul\":1461:1465   */\n      0x20\n        /* \"#utility.yul\":1453:1459   */\n      dup7\n        /* \"#utility.yul\":1449:1466   */\n      add\n        /* \"#utility.yul\":1402:1480   */\n      tag_390\n      jump\t// in\n    tag_422:\n        /* \"#utility.yul\":1393:1480   */\n      swap2\n      pop\n        /* \"#utility.yul\":1209:1486   */\n      pop\n        /* \"#utility.yul\":1148:1486   */\n      swap3\n      swap2\n      pop\n      pop\n      jump\t// out\n        /* \"#utility.yul\":1506:1846   */\n    tag_423:\n        /* \"#utility.yul\":1562:1567   */\n      0x00\n        /* \"#utility.yul\":1611:1614   */\n      dup3\n        /* \"#utility.yul\":1604:1608   */\n      0x1f\n        /* \"#utility.yul\":1596:1602   */\n      dup4\n        /* \"#utility.yul\":1592:1609   */\n      add\n        /* \"#utility.yul\":1588:1615   */\n      slt\n        /* \"#utility.yul\":1578:1700   */\n      tag_425\n      jumpi\n        /* \"#utility.yul\":1619:1698   */\n      tag_426\n      tag_421\n      jump\t// in\n    tag_426:\n        /* \"#utility.yul\":1578:1700   */\n    tag_425:\n        /* \"#utility.yul\":1736:1742   */\n      dup2\n        /* \"#utility.yul\":1723:1743   */\n      calldataload\n        /* \"#utility.yul\":1761:1840   */\n      tag_427\n        /* \"#utility.yul\":1836:1839   */\n      dup5\n        /* \"#utility.yul\":1828:1834   */\n      dup3\n        /* \"#utility.yul\":1821:1825   */\n      0x20\n        /* \"#utility.yul\":1813:1819   */\n      dup7\n        /* \"#utility.yul\":1809:1826   */\n      add\n        /* \"#utility.yul\":1761:1840   */\n      tag_401\n      jump\t// in\n    tag_427:\n        /* \"#utility.yul\":1752:1840   */\n      swap2\n      pop\n        /* \"#utility.yul\":1568:1846   */\n      pop\n        /* \"#utility.yul\":1506:1846   */\n      swap3\n      swap2\n      pop\n      pop\n      jump\t// out\n        /* \"#utility.yul\":1852:1991   */\n    tag_428:\n        /* \"#utility.yul\":1898:1903   */\n      0x00\n        /* \"#utility.yul\":1936:1942   */\n      dup2\n        /* \"#utility.yul\":1923:1943   */\n      calldataload\n        /* \"#utility.yul\":1914:1943   */\n      swap1\n      pop\n        /* \"#utility.yul\":1952:1985   */\n      tag_430\n        /* \"#utility.yul\":1979:1984   */\n      dup2\n        /* \"#utility.yul\":1952:1985   */\n      tag_431\n      jump\t// in\n    tag_430:\n        /* \"#utility.yul\":1852:1991   */\n      swap3\n      swap2\n      pop\n      pop\n      jump\t// out\n        /* \"#utility.yul\":1997:2326   */\n    tag_55:\n        /* \"#utility.yul\":2056:2062   */\n      0x00\n        /* \"#utility.yul\":2105:2107   */\n      0x20\n        /* \"#utility.yul\":2093:2102   */\n      dup3\n        /* \"#utility.yul\":2084:2091   */\n      dup5\n        /* \"#utility.yul\":2080:2103   */\n      sub\n        /* \"#utility.yul\":2076:2108   */\n      slt\n        /* \"#utility.yul\":2073:2192   */\n      iszero\n      tag_433\n      jumpi\n        /* \"#utility.yul\":2111:2190   */\n      tag_434\n      tag_435\n      jump\t// in\n    tag_434:\n        /* \"#utility.yul\":2073:2192   */\n    tag_433:\n        /* \"#utility.yul\":2231:2232   */\n      0x00\n        /* \"#utility.yul\":2256:2309   */\n      tag_436\n        /* \"#utility.yul\":2301:2308   */\n      dup5\n        /* \"#utility.yul\":2292:2298   */\n      dup3\n        /* \"#utility.yul\":2281:2290   */\n      dup6\n        /* \"#utility.yul\":2277:2299   */\n      add\n        /* \"#utility.yul\":2256:2309   */\n      tag_409\n      jump\t// in\n    tag_436:\n        /* \"#utility.yul\":2246:2309   */\n      swap2\n      pop\n        /* \"#utility.yul\":2202:2319   */\n      pop\n        /* \"#utility.yul\":1997:2326   */\n      swap3\n      swap2\n      pop\n      pop\n      jump\t// out\n        /* \"#utility.yul\":2332:2806   */\n    tag_110:\n        /* \"#utility.yul\":2400:2406   */\n      0x00\n        /* \"#utility.yul\":2408:2414   */\n      dup1\n        /* \"#utility.yul\":2457:2459   */\n      0x40\n        /* \"#utility.yul\":2445:2454   */\n      dup4\n        /* \"#utility.yul\":2436:2443   */\n      dup6\n        /* \"#utility.yul\":2432:2455   */\n      sub\n        /* \"#utility.yul\":2428:2460   */\n      slt\n        /* \"#utility.yul\":2425:2544   */\n      iszero\n      tag_438\n      jumpi\n        /* \"#utility.yul\":2463:2542   */\n      tag_439\n      tag_435\n      jump\t// in\n    tag_439:\n        /* \"#utility.yul\":2425:2544   */\n    tag_438:\n        /* \"#utility.yul\":2583:2584   */\n      0x00\n        /* \"#utility.yul\":2608:2661   */\n      tag_440\n        /* \"#utility.yul\":2653:2660   */\n      dup6\n        /* \"#utility.yul\":2644:2650   */\n      dup3\n        /* \"#utility.yul\":2633:2642   */\n      dup7\n        /* \"#utility.yul\":2629:2651   */\n      add\n        /* \"#utility.yul\":2608:2661   */\n      tag_409\n      jump\t// in\n    tag_440:\n        /* \"#utility.yul\":2598:2661   */\n      swap3\n      pop\n        /* \"#utility.yul\":2554:2671   */\n      pop\n        /* \"#utility.yul\":2710:2712   */\n      0x20\n        /* \"#utility.yul\":2736:2789   */\n      tag_441\n        /* \"#utility.yul\":2781:2788   */\n      dup6\n        /* \"#utility.yul\":2772:2778   */\n      dup3\n        /* \"#utility.yul\":2761:2770   */\n      dup7\n        /* \"#utility.yul\":2757:2779   */\n      add\n        /* \"#utility.yul\":2736:2789   */\n      tag_409\n      jump\t// in\n    tag_441:\n        /* \"#utility.yul\":2726:2789   */\n      swap2\n      pop\n        /* \"#utility.yul\":2681:2799   */\n      pop\n        /* \"#utility.yul\":2332:2806   */\n      swap3\n      pop\n      swap3\n      swap1\n      pop\n      jump\t// out\n        /* \"#utility.yul\":2812:3431   */\n    tag_44:\n        /* \"#utility.yul\":2889:2895   */\n      0x00\n        /* \"#utility.yul\":2897:2903   */\n      dup1\n        /* \"#utility.yul\":2905:2911   */\n      0x00\n        /* \"#utility.yul\":2954:2956   */\n      0x60\n        /* \"#utility.yul\":2942:2951   */\n      dup5\n        /* \"#utility.yul\":2933:2940   */\n      dup7\n        /* \"#utility.yul\":2929:2952   */\n      sub\n        /* \"#utility.yul\":2925:2957   */\n      slt\n        /* \"#utility.yul\":2922:3041   */\n      iszero\n      tag_443\n      jumpi\n        /* \"#utility.yul\":2960:3039   */\n      tag_444\n      tag_435\n      jump\t// in\n    tag_444:\n        /* \"#utility.yul\":2922:3041   */\n    tag_443:\n        /* \"#utility.yul\":3080:3081   */\n      0x00\n        /* \"#utility.yul\":3105:3158   */\n      tag_445\n        /* \"#utility.yul\":3150:3157   */\n      dup7\n        /* \"#utility.yul\":3141:3147   */\n      dup3\n        /* \"#utility.yul\":3130:3139   */\n      dup8\n        /* \"#utility.yul\":3126:3148   */\n      add\n        /* \"#utility.yul\":3105:3158   */\n      tag_409\n      jump\t// in\n    tag_445:\n        /* \"#utility.yul\":3095:3158   */\n      swap4\n      pop\n        /* \"#utility.yul\":3051:3168   */\n      pop\n        /* \"#utility.yul\":3207:3209   */\n      0x20\n        /* \"#utility.yul\":3233:3286   */\n      tag_446\n        /* \"#utility.yul\":3278:3285   */\n      dup7\n        /* \"#utility.yul\":3269:3275   */\n      dup3\n        /* \"#utility.yul\":3258:3267   */\n      dup8\n        /* \"#utility.yul\":3254:3276   */\n      add\n        /* \"#utility.yul\":3233:3286   */\n      tag_409\n      jump\t// in\n    tag_446:\n        /* \"#utility.yul\":3223:3286   */\n      swap3\n      pop\n        /* \"#utility.yul\":3178:3296   */\n      pop\n        /* \"#utility.yul\":3335:3337   */\n      0x40\n        /* \"#utility.yul\":3361:3414   */\n      tag_447\n        /* \"#utility.yul\":3406:3413   */\n      dup7\n        /* \"#utility.yul\":3397:3403   */\n      dup3\n        /* \"#utility.yul\":3386:3395   */\n      dup8\n        /* \"#utility.yul\":3382:3404   */\n      add\n        /* \"#utility.yul\":3361:3414   */\n      tag_428\n      jump\t// in\n    tag_447:\n        /* \"#utility.yul\":3351:3414   */\n      swap2\n      pop\n        /* \"#utility.yul\":3306:3424   */\n      pop\n        /* \"#utility.yul\":2812:3431   */\n      swap3\n      pop\n      swap3\n      pop\n      swap3\n      jump\t// out\n        /* \"#utility.yul\":3437:4089   */\n    tag_68:\n        /* \"#utility.yul\":3514:3520   */\n      0x00\n        /* \"#utility.yul\":3522:3528   */\n      dup1\n        /* \"#utility.yul\":3571:3573   */\n      0x40\n        /* \"#utility.yul\":3559:3568   */\n      dup4\n        /* \"#utility.yul\":3550:3557   */\n      dup6\n        /* \"#utility.yul\":3546:3569   */\n      sub\n        /* \"#utility.yul\":3542:3574   */\n      slt\n        /* \"#utility.yul\":3539:3658   */\n      iszero\n      tag_449\n      jumpi\n        /* \"#utility.yul\":3577:3656   */\n      tag_450\n      tag_435\n      jump\t// in\n    tag_450:\n        /* \"#utility.yul\":3539:3658   */\n    tag_449:\n        /* \"#utility.yul\":3697:3698   */\n      0x00\n        /* \"#utility.yul\":3722:3775   */\n      tag_451\n        /* \"#utility.yul\":3767:3774   */\n      dup6\n        /* \"#utility.yul\":3758:3764   */\n      dup3\n        /* \"#utility.yul\":3747:3756   */\n      dup7\n        /* \"#utility.yul\":3743:3765   */\n      add\n        /* \"#utility.yul\":3722:3775   */\n      tag_409\n      jump\t// in\n    tag_451:\n        /* \"#utility.yul\":3712:3775   */\n      swap3\n      pop\n        /* \"#utility.yul\":3668:3785   */\n      pop\n        /* \"#utility.yul\":3852:3854   */\n      0x20\n        /* \"#utility.yul\":3841:3850   */\n      dup4\n        /* \"#utility.yul\":3837:3855   */\n      add\n        /* \"#utility.yul\":3824:3856   */\n      calldataload\n        /* \"#utility.yul\":3883:3901   */\n      0xffffffffffffffff\n        /* \"#utility.yul\":3875:3881   */\n      dup2\n        /* \"#utility.yul\":3872:3902   */\n      gt\n        /* \"#utility.yul\":3869:3986   */\n      iszero\n      tag_452\n      jumpi\n        /* \"#utility.yul\":3905:3984   */\n      tag_453\n      tag_454\n      jump\t// in\n    tag_453:\n        /* \"#utility.yul\":3869:3986   */\n    tag_452:\n        /* \"#utility.yul\":4010:4072   */\n      tag_455\n        /* \"#utility.yul\":4064:4071   */\n      dup6\n        /* \"#utility.yul\":4055:4061   */\n      dup3\n        /* \"#utility.yul\":4044:4053   */\n      dup7\n        /* \"#utility.yul\":4040:4062   */\n      add\n        /* \"#utility.yul\":4010:4072   */\n      tag_417\n      jump\t// in\n    tag_455:\n        /* \"#utility.yul\":4000:4072   */\n      swap2\n      pop\n        /* \"#utility.yul\":3795:4082   */\n      pop\n        /* \"#utility.yul\":3437:4089   */\n      swap3\n      pop\n      swap3\n      swap1\n      pop\n      jump\t// out\n        /* \"#utility.yul\":4095:4569   */\n    tag_32:\n        /* \"#utility.yul\":4163:4169   */\n      0x00\n        /* \"#utility.yul\":4171:4177   */\n      dup1\n        /* \"#utility.yul\":4220:4222   */\n      0x40\n        /* \"#utility.yul\":4208:4217   */\n      dup4\n        /* \"#utility.yul\":4199:4206   */\n      dup6\n        /* \"#utility.yul\":4195:4218   */\n      sub\n        /* \"#utility.yul\":4191:4223   */\n      slt\n        /* \"#utility.yul\":4188:4307   */\n      iszero\n      tag_457\n      jumpi\n        /* \"#utility.yul\":4226:4305   */\n      tag_458\n      tag_435\n      jump\t// in\n    tag_458:\n        /* \"#utility.yul\":4188:4307   */\n    tag_457:\n        /* \"#utility.yul\":4346:4347   */\n      0x00\n        /* \"#utility.yul\":4371:4424   */\n      tag_459\n        /* \"#utility.yul\":4416:4423   */\n      dup6\n        /* \"#utility.yul\":4407:4413   */\n      dup3\n        /* \"#utility.yul\":4396:4405   */\n      dup7\n        /* \"#utility.yul\":4392:4414   */\n      add\n        /* \"#utility.yul\":4371:4424   */\n      tag_409\n      jump\t// in\n    tag_459:\n        /* \"#utility.yul\":4361:4424   */\n      swap3\n      pop\n        /* \"#utility.yul\":4317:4434   */\n      pop\n        /* \"#utility.yul\":4473:4475   */\n      0x20\n        /* \"#utility.yul\":4499:4552   */\n      tag_460\n        /* \"#utility.yul\":4544:4551   */\n      dup6\n        /* \"#utility.yul\":4535:4541   */\n      dup3\n        /* \"#utility.yul\":4524:4533   */\n      dup7\n        /* \"#utility.yul\":4520:4542   */\n      add\n        /* \"#utility.yul\":4499:4552   */\n      tag_428\n      jump\t// in\n    tag_460:\n        /* \"#utility.yul\":4489:4552   */\n      swap2\n      pop\n        /* \"#utility.yul\":4444:4562   */\n      pop\n        /* \"#utility.yul\":4095:4569   */\n      swap3\n      pop\n      swap3\n      swap1\n      pop\n      jump\t// out\n        /* \"#utility.yul\":4575:4926   */\n    tag_280:\n        /* \"#utility.yul\":4645:4651   */\n      0x00\n        /* \"#utility.yul\":4694:4696   */\n      0x20\n        /* \"#utility.yul\":4682:4691   */\n      dup3\n        /* \"#utility.yul\":4673:4680   */\n      dup5\n        /* \"#utility.yul\":4669:4692   */\n      sub\n        /* \"#utility.yul\":4665:4697   */\n      slt\n        /* \"#utility.yul\":4662:4781   */\n      iszero\n      tag_462\n      jumpi\n        /* \"#utility.yul\":4700:4779   */\n      tag_463\n      tag_435\n      jump\t// in\n    tag_463:\n        /* \"#utility.yul\":4662:4781   */\n    tag_462:\n        /* \"#utility.yul\":4820:4821   */\n      0x00\n        /* \"#utility.yul\":4845:4909   */\n      tag_464\n        /* \"#utility.yul\":4901:4908   */\n      dup5\n        /* \"#utility.yul\":4892:4898   */\n      dup3\n        /* \"#utility.yul\":4881:4890   */\n      dup6\n        /* \"#utility.yul\":4877:4899   */\n      add\n        /* \"#utility.yul\":4845:4909   */\n      tag_413\n      jump\t// in\n    tag_464:\n        /* \"#utility.yul\":4835:4909   */\n      swap2\n      pop\n        /* \"#utility.yul\":4791:4919   */\n      pop\n        /* \"#utility.yul\":4575:4926   */\n      swap3\n      swap2\n      pop\n      pop\n      jump\t// out\n        /* \"#utility.yul\":4932:5911   */\n    tag_105:\n        /* \"#utility.yul\":5029:5035   */\n      0x00\n        /* \"#utility.yul\":5037:5043   */\n      dup1\n        /* \"#utility.yul\":5045:5051   */\n      0x00\n        /* \"#utility.yul\":5094:5096   */\n      0x60\n        /* \"#utility.yul\":5082:5091   */\n      dup5\n        /* \"#utility.yul\":5073:5080   */\n      dup7\n        /* \"#utility.yul\":5069:5092   */\n      sub\n        /* \"#utility.yul\":5065:5097   */\n      slt\n        /* \"#utility.yul\":5062:5181   */\n      iszero\n      tag_466\n      jumpi\n        /* \"#utility.yul\":5100:5179   */\n      tag_467\n      tag_435\n      jump\t// in\n    tag_467:\n        /* \"#utility.yul\":5062:5181   */\n    tag_466:\n        /* \"#utility.yul\":5248:5249   */\n      0x00\n        /* \"#utility.yul\":5237:5246   */\n      dup5\n        /* \"#utility.yul\":5233:5250   */\n      add\n        /* \"#utility.yul\":5220:5251   */\n      calldataload\n        /* \"#utility.yul\":5278:5296   */\n      0xffffffffffffffff\n        /* \"#utility.yul\":5270:5276   */\n      dup2\n        /* \"#utility.yul\":5267:5297   */\n      gt\n        /* \"#utility.yul\":5264:5381   */\n      iszero\n      tag_468\n      jumpi\n        /* \"#utility.yul\":5300:5379   */\n      tag_469\n      tag_454\n      jump\t// in\n    tag_469:\n        /* \"#utility.yul\":5264:5381   */\n    tag_468:\n        /* \"#utility.yul\":5405:5468   */\n      tag_470\n        /* \"#utility.yul\":5460:5467   */\n      dup7\n        /* \"#utility.yul\":5451:5457   */\n      dup3\n        /* \"#utility.yul\":5440:5449   */\n      dup8\n        /* \"#utility.yul\":5436:5458   */\n      add\n        /* \"#utility.yul\":5405:5468   */\n      tag_423\n      jump\t// in\n    tag_470:\n        /* \"#utility.yul\":5395:5468   */\n      swap4\n      pop\n        /* \"#utility.yul\":5191:5478   */\n      pop\n        /* \"#utility.yul\":5545:5547   */\n      0x20\n        /* \"#utility.yul\":5534:5543   */\n      dup5\n        /* \"#utility.yul\":5530:5548   */\n      add\n        /* \"#utility.yul\":5517:5549   */\n      calldataload\n        /* \"#utility.yul\":5576:5594   */\n      0xffffffffffffffff\n        /* \"#utility.yul\":5568:5574   */\n      dup2\n        /* \"#utility.yul\":5565:5595   */\n      gt\n        /* \"#utility.yul\":5562:5679   */\n      iszero\n      tag_471\n      jumpi\n        /* \"#utility.yul\":5598:5677   */\n      tag_472\n      tag_454\n      jump\t// in\n    tag_472:\n        /* \"#utility.yul\":5562:5679   */\n    tag_471:\n        /* \"#utility.yul\":5703:5766   */\n      tag_473\n        /* \"#utility.yul\":5758:5765   */\n      dup7\n        /* \"#utility.yul\":5749:5755   */\n      dup3\n        /* \"#utility.yul\":5738:5747   */\n      dup8\n        /* \"#utility.yul\":5734:5756   */\n      add\n        /* \"#utility.yul\":5703:5766   */\n      tag_423\n      jump\t// in\n    tag_473:\n        /* \"#utility.yul\":5693:5766   */\n      swap3\n      pop\n        /* \"#utility.yul\":5488:5776   */\n      pop\n        /* \"#utility.yul\":5815:5817   */\n      0x40\n        /* \"#utility.yul\":5841:5894   */\n      tag_474\n        /* \"#utility.yul\":5886:5893   */\n      dup7\n        /* \"#utility.yul\":5877:5883   */\n      dup3\n        /* \"#utility.yul\":5866:5875   */\n      dup8\n        /* \"#utility.yul\":5862:5884   */\n      add\n        /* \"#utility.yul\":5841:5894   */\n      tag_428\n      jump\t// in\n    tag_474:\n        /* \"#utility.yul\":5831:5894   */\n      swap2\n      pop\n        /* \"#utility.yul\":5786:5904   */\n      pop\n        /* \"#utility.yul\":4932:5911   */\n      swap3\n      pop\n      swap3\n      pop\n      swap3\n      jump\t// out\n        /* \"#utility.yul\":5917:6035   */\n    tag_475:\n        /* \"#utility.yul\":6004:6028   */\n      tag_477\n        /* \"#utility.yul\":6022:6027   */\n      dup2\n        /* \"#utility.yul\":6004:6028   */\n      tag_478\n      jump\t// in\n    tag_477:\n        /* \"#utility.yul\":5999:6002   */\n      dup3\n        /* \"#utility.yul\":5992:6029   */\n      mstore\n        /* \"#utility.yul\":5917:6035   */\n      pop\n      pop\n      jump\t// out\n        /* \"#utility.yul\":6041:6150   */\n    tag_479:\n        /* \"#utility.yul\":6122:6143   */\n      tag_481\n        /* \"#utility.yul\":6137:6142   */\n      dup2\n        /* \"#utility.yul\":6122:6143   */\n      tag_482\n      jump\t// in\n    tag_481:\n        /* \"#utility.yul\":6117:6120   */\n      dup3\n        /* \"#utility.yul\":6110:6144   */\n      mstore\n        /* \"#utility.yul\":6041:6150   */\n      pop\n      pop\n      jump\t// out\n        /* \"#utility.yul\":6156:6274   */\n    tag_483:\n        /* \"#utility.yul\":6243:6267   */\n      tag_485\n        /* \"#utility.yul\":6261:6266   */\n      dup2\n        /* \"#utility.yul\":6243:6267   */\n      tag_486\n      jump\t// in\n    tag_485:\n        /* \"#utility.yul\":6238:6241   */\n      dup3\n        /* \"#utility.yul\":6231:6268   */\n      mstore\n        /* \"#utility.yul\":6156:6274   */\n      pop\n      pop\n      jump\t// out\n        /* \"#utility.yul\":6280:6653   */\n    tag_487:\n        /* \"#utility.yul\":6384:6387   */\n      0x00\n        /* \"#utility.yul\":6412:6450   */\n      tag_489\n        /* \"#utility.yul\":6444:6449   */\n      dup3\n        /* \"#utility.yul\":6412:6450   */\n      tag_490\n      jump\t// in\n    tag_489:\n        /* \"#utility.yul\":6466:6554   */\n      tag_491\n        /* \"#utility.yul\":6547:6553   */\n      dup2\n        /* \"#utility.yul\":6542:6545   */\n      dup6\n        /* \"#utility.yul\":6466:6554   */\n      tag_492\n      jump\t// in\n    tag_491:\n        /* \"#utility.yul\":6459:6554   */\n      swap4\n      pop\n        /* \"#utility.yul\":6563:6615   */\n      tag_493\n        /* \"#utility.yul\":6608:6614   */\n      dup2\n        /* \"#utility.yul\":6603:6606   */\n      dup6\n        /* \"#utility.yul\":6596:6600   */\n      0x20\n        /* \"#utility.yul\":6589:6594   */\n      dup7\n        /* \"#utility.yul\":6585:6601   */\n      add\n        /* \"#utility.yul\":6563:6615   */\n      tag_494\n      jump\t// in\n    tag_493:\n        /* \"#utility.yul\":6640:6646   */\n      dup1\n        /* \"#utility.yul\":6635:6638   */\n      dup5\n        /* \"#utility.yul\":6631:6647   */\n      add\n        /* \"#utility.yul\":6624:6647   */\n      swap2\n      pop\n        /* \"#utility.yul\":6388:6653   */\n      pop\n        /* \"#utility.yul\":6280:6653   */\n      swap3\n      swap2\n      pop\n      pop\n      jump\t// out\n        /* \"#utility.yul\":6659:6802   */\n    tag_495:\n        /* \"#utility.yul\":6752:6795   */\n      tag_497\n        /* \"#utility.yul\":6789:6794   */\n      dup2\n        /* \"#utility.yul\":6752:6795   */\n      tag_498\n      jump\t// in\n    tag_497:\n        /* \"#utility.yul\":6747:6750   */\n      dup3\n        /* \"#utility.yul\":6740:6796   */\n      mstore\n        /* \"#utility.yul\":6659:6802   */\n      pop\n      pop\n      jump\t// out\n        /* \"#utility.yul\":6808:7172   */\n    tag_499:\n        /* \"#utility.yul\":6896:6899   */\n      0x00\n        /* \"#utility.yul\":6924:6963   */\n      tag_501\n        /* \"#utility.yul\":6957:6962   */\n      dup3\n        /* \"#utility.yul\":6924:6963   */\n      tag_502\n      jump\t// in\n    tag_501:\n        /* \"#utility.yul\":6979:7050   */\n      tag_503\n        /* \"#utility.yul\":7043:7049   */\n      dup2\n        /* \"#utility.yul\":7038:7041   */\n      dup6\n        /* \"#utility.yul\":6979:7050   */\n      tag_504\n      jump\t// in\n    tag_503:\n        /* \"#utility.yul\":6972:7050   */\n      swap4\n      pop\n        /* \"#utility.yul\":7059:7111   */\n      tag_505\n        /* \"#utility.yul\":7104:7110   */\n      dup2\n        /* \"#utility.yul\":7099:7102   */\n      dup6\n        /* \"#utility.yul\":7092:7096   */\n      0x20\n        /* \"#utility.yul\":7085:7090   */\n      dup7\n        /* \"#utility.yul\":7081:7097   */\n      add\n        /* \"#utility.yul\":7059:7111   */\n      tag_494\n      jump\t// in\n    tag_505:\n        /* \"#utility.yul\":7136:7165   */\n      tag_506\n        /* \"#utility.yul\":7158:7164   */\n      dup2\n        /* \"#utility.yul\":7136:7165   */\n      tag_507\n      jump\t// in\n    tag_506:\n        /* \"#utility.yul\":7131:7134   */\n      dup5\n        /* \"#utility.yul\":7127:7166   */\n      add\n        /* \"#utility.yul\":7120:7166   */\n      swap2\n      pop\n        /* \"#utility.yul\":6900:7172   */\n      pop\n        /* \"#utility.yul\":6808:7172   */\n      swap3\n      swap2\n      pop\n      pop\n      jump\t// out\n        /* \"#utility.yul\":7178:7544   */\n    tag_508:\n        /* \"#utility.yul\":7320:7323   */\n      0x00\n        /* \"#utility.yul\":7341:7408   */\n      tag_510\n        /* \"#utility.yul\":7405:7407   */\n      0x23\n        /* \"#utility.yul\":7400:7403   */\n      dup4\n        /* \"#utility.yul\":7341:7408   */\n      tag_504\n      jump\t// in\n    tag_510:\n        /* \"#utility.yul\":7334:7408   */\n      swap2\n      pop\n        /* \"#utility.yul\":7417:7510   */\n      tag_511\n        /* \"#utility.yul\":7506:7509   */\n      dup3\n        /* \"#utility.yul\":7417:7510   */\n      tag_512\n      jump\t// in\n    tag_511:\n        /* \"#utility.yul\":7535:7537   */\n      0x40\n        /* \"#utility.yul\":7530:7533   */\n      dup3\n        /* \"#utility.yul\":7526:7538   */\n      add\n        /* \"#utility.yul\":7519:7538   */\n      swap1\n      pop\n        /* \"#utility.yul\":7178:7544   */\n      swap2\n      swap1\n      pop\n      jump\t// out\n        /* \"#utility.yul\":7550:7916   */\n    tag_513:\n        /* \"#utility.yul\":7692:7695   */\n      0x00\n        /* \"#utility.yul\":7713:7780   */\n      tag_515\n        /* \"#utility.yul\":7777:7779   */\n      0x26\n        /* \"#utility.yul\":7772:7775   */\n      dup4\n        /* \"#utility.yul\":7713:7780   */\n      tag_504\n      jump\t// in\n    tag_515:\n        /* \"#utility.yul\":7706:7780   */\n      swap2\n      pop\n        /* \"#utility.yul\":7789:7882   */\n      tag_516\n        /* \"#utility.yul\":7878:7881   */\n      dup3\n        /* \"#utility.yul\":7789:7882   */\n      tag_517\n      jump\t// in\n    tag_516:\n        /* \"#utility.yul\":7907:7909   */\n      0x40\n        /* \"#utility.yul\":7902:7905   */\n      dup3\n        /* \"#utility.yul\":7898:7910   */\n      add\n        /* \"#utility.yul\":7891:7910   */\n      swap1\n      pop\n        /* \"#utility.yul\":7550:7916   */\n      swap2\n      swap1\n      pop\n      jump\t// out\n        /* \"#utility.yul\":7922:8288   */\n    tag_518:\n        /* \"#utility.yul\":8064:8067   */\n      0x00\n        /* \"#utility.yul\":8085:8152   */\n      tag_520\n        /* \"#utility.yul\":8149:8151   */\n      0x22\n        /* \"#utility.yul\":8144:8147   */\n      dup4\n        /* \"#utility.yul\":8085:8152   */\n      tag_504\n      jump\t// in\n    tag_520:\n        /* \"#utility.yul\":8078:8152   */\n      swap2\n      pop\n        /* \"#utility.yul\":8161:8254   */\n      tag_521\n        /* \"#utility.yul\":8250:8253   */\n      dup3\n        /* \"#utility.yul\":8161:8254   */\n      tag_522\n      jump\t// in\n    tag_521:\n        /* \"#utility.yul\":8279:8281   */\n      0x40\n        /* \"#utility.yul\":8274:8277   */\n      dup3\n        /* \"#utility.yul\":8270:8282   */\n      add\n        /* \"#utility.yul\":8263:8282   */\n      swap1\n      pop\n        /* \"#utility.yul\":7922:8288   */\n      swap2\n      swap1\n      pop\n      jump\t// out\n        /* \"#utility.yul\":8294:8660   */\n    tag_523:\n        /* \"#utility.yul\":8436:8439   */\n      0x00\n        /* \"#utility.yul\":8457:8524   */\n      tag_525\n        /* \"#utility.yul\":8521:8523   */\n      0x2c\n        /* \"#utility.yul\":8516:8519   */\n      dup4\n        /* \"#utility.yul\":8457:8524   */\n      tag_504\n      jump\t// in\n    tag_525:\n        /* \"#utility.yul\":8450:8524   */\n      swap2\n      pop\n        /* \"#utility.yul\":8533:8626   */\n      tag_526\n        /* \"#utility.yul\":8622:8625   */\n      dup3\n        /* \"#utility.yul\":8533:8626   */\n      tag_527\n      jump\t// in\n    tag_526:\n        /* \"#utility.yul\":8651:8653   */\n      0x40\n        /* \"#utility.yul\":8646:8649   */\n      dup3\n        /* \"#utility.yul\":8642:8654   */\n      add\n        /* \"#utility.yul\":8635:8654   */\n      swap1\n      pop\n        /* \"#utility.yul\":8294:8660   */\n      swap2\n      swap1\n      pop\n      jump\t// out\n        /* \"#utility.yul\":8666:9032   */\n    tag_528:\n        /* \"#utility.yul\":8808:8811   */\n      0x00\n        /* \"#utility.yul\":8829:8896   */\n      tag_530\n        /* \"#utility.yul\":8893:8895   */\n      0x1d\n        /* \"#utility.yul\":8888:8891   */\n      dup4\n        /* \"#utility.yul\":8829:8896   */\n      tag_504\n      jump\t// in\n    tag_530:\n        /* \"#utility.yul\":8822:8896   */\n      swap2\n      pop\n        /* \"#utility.yul\":8905:8998   */\n      tag_531\n        /* \"#utility.yul\":8994:8997   */\n      dup3\n        /* \"#utility.yul\":8905:8998   */\n      tag_532\n      jump\t// in\n    tag_531:\n        /* \"#utility.yul\":9023:9025   */\n      0x20\n        /* \"#utility.yul\":9018:9021   */\n      dup3\n        /* \"#utility.yul\":9014:9026   */\n      add\n        /* \"#utility.yul\":9007:9026   */\n      swap1\n      pop\n        /* \"#utility.yul\":8666:9032   */\n      swap2\n      swap1\n      pop\n      jump\t// out\n        /* \"#utility.yul\":9038:9404   */\n    tag_533:\n        /* \"#utility.yul\":9180:9183   */\n      0x00\n        /* \"#utility.yul\":9201:9268   */\n      tag_535\n        /* \"#utility.yul\":9265:9267   */\n      0x26\n        /* \"#utility.yul\":9260:9263   */\n      dup4\n        /* \"#utility.yul\":9201:9268   */\n      tag_504\n      jump\t// in\n    tag_535:\n        /* \"#utility.yul\":9194:9268   */\n      swap2\n      pop\n        /* \"#utility.yul\":9277:9370   */\n      tag_536\n        /* \"#utility.yul\":9366:9369   */\n      dup3\n        /* \"#utility.yul\":9277:9370   */\n      tag_537\n      jump\t// in\n    tag_536:\n        /* \"#utility.yul\":9395:9397   */\n      0x40\n        /* \"#utility.yul\":9390:9393   */\n      dup3\n        /* \"#utility.yul\":9386:9398   */\n      add\n        /* \"#utility.yul\":9379:9398   */\n      swap1\n      pop\n        /* \"#utility.yul\":9038:9404   */\n      swap2\n      swap1\n      pop\n      jump\t// out\n        /* \"#utility.yul\":9410:9776   */\n    tag_538:\n        /* \"#utility.yul\":9552:9555   */\n      0x00\n        /* \"#utility.yul\":9573:9640   */\n      tag_540\n        /* \"#utility.yul\":9637:9639   */\n      0x2c\n        /* \"#utility.yul\":9632:9635   */\n      dup4\n        /* \"#utility.yul\":9573:9640   */\n      tag_504\n      jump\t// in\n    tag_540:\n        /* \"#utility.yul\":9566:9640   */\n      swap2\n      pop\n        /* \"#utility.yul\":9649:9742   */\n      tag_541\n        /* \"#utility.yul\":9738:9741   */\n      dup3\n        /* \"#utility.yul\":9649:9742   */\n      tag_542\n      jump\t// in\n    tag_541:\n        /* \"#utility.yul\":9767:9769   */\n      0x40\n        /* \"#utility.yul\":9762:9765   */\n      dup3\n        /* \"#utility.yul\":9758:9770   */\n      add\n        /* \"#utility.yul\":9751:9770   */\n      swap1\n      pop\n        /* \"#utility.yul\":9410:9776   */\n      swap2\n      swap1\n      pop\n      jump\t// out\n        /* \"#utility.yul\":9782:10148   */\n    tag_543:\n        /* \"#utility.yul\":9924:9927   */\n      0x00\n        /* \"#utility.yul\":9945:10012   */\n      tag_545\n        /* \"#utility.yul\":10009:10011   */\n      0x38\n        /* \"#utility.yul\":10004:10007   */\n      dup4\n        /* \"#utility.yul\":9945:10012   */\n      tag_504\n      jump\t// in\n    tag_545:\n        /* \"#utility.yul\":9938:10012   */\n      swap2\n      pop\n        /* \"#utility.yul\":10021:10114   */\n      tag_546\n        /* \"#utility.yul\":10110:10113   */\n      dup3\n        /* \"#utility.yul\":10021:10114   */\n      tag_547\n      jump\t// in\n    tag_546:\n        /* \"#utility.yul\":10139:10141   */\n      0x40\n        /* \"#utility.yul\":10134:10137   */\n      dup3\n        /* \"#utility.yul\":10130:10142   */\n      add\n        /* \"#utility.yul\":10123:10142   */\n      swap1\n      pop\n        /* \"#utility.yul\":9782:10148   */\n      swap2\n      swap1\n      pop\n      jump\t// out\n        /* \"#utility.yul\":10154:10520   */\n    tag_548:\n        /* \"#utility.yul\":10296:10299   */\n      0x00\n        /* \"#utility.yul\":10317:10384   */\n      tag_550\n        /* \"#utility.yul\":10381:10383   */\n      0x29\n        /* \"#utility.yul\":10376:10379   */\n      dup4\n        /* \"#utility.yul\":10317:10384   */\n      tag_504\n      jump\t// in\n    tag_550:\n        /* \"#utility.yul\":10310:10384   */\n      swap2\n      pop\n        /* \"#utility.yul\":10393:10486   */\n      tag_551\n        /* \"#utility.yul\":10482:10485   */\n      dup3\n        /* \"#utility.yul\":10393:10486   */\n      tag_552\n      jump\t// in\n    tag_551:\n        /* \"#utility.yul\":10511:10513   */\n      0x40\n        /* \"#utility.yul\":10506:10509   */\n      dup3\n        /* \"#utility.yul\":10502:10514   */\n      add\n        /* \"#utility.yul\":10495:10514   */\n      swap1\n      pop\n        /* \"#utility.yul\":10154:10520   */\n      swap2\n      swap1\n      pop\n      jump\t// out\n        /* \"#utility.yul\":10526:10892   */\n    tag_553:\n        /* \"#utility.yul\":10668:10671   */\n      0x00\n        /* \"#utility.yul\":10689:10756   */\n      tag_555\n        /* \"#utility.yul\":10753:10755   */\n      0x2e\n        /* \"#utility.yul\":10748:10751   */\n      dup4\n        /* \"#utility.yul\":10689:10756   */\n      tag_504\n      jump\t// in\n    tag_555:\n        /* \"#utility.yul\":10682:10756   */\n      swap2\n      pop\n        /* \"#utility.yul\":10765:10858   */\n      tag_556\n        /* \"#utility.yul\":10854:10857   */\n      dup3\n        /* \"#utility.yul\":10765:10858   */\n      tag_557\n      jump\t// in\n    tag_556:\n        /* \"#utility.yul\":10883:10885   */\n      0x40\n        /* \"#utility.yul\":10878:10881   */\n      dup3\n        /* \"#utility.yul\":10874:10886   */\n      add\n        /* \"#utility.yul\":10867:10886   */\n      swap1\n      pop\n        /* \"#utility.yul\":10526:10892   */\n      swap2\n      swap1\n      pop\n      jump\t// out\n        /* \"#utility.yul\":10898:11264   */\n    tag_558:\n        /* \"#utility.yul\":11040:11043   */\n      0x00\n        /* \"#utility.yul\":11061:11128   */\n      tag_560\n        /* \"#utility.yul\":11125:11127   */\n      0x2e\n        /* \"#utility.yul\":11120:11123   */\n      dup4\n        /* \"#utility.yul\":11061:11128   */\n      tag_504\n      jump\t// in\n    tag_560:\n        /* \"#utility.yul\":11054:11128   */\n      swap2\n      pop\n        /* \"#utility.yul\":11137:11230   */\n      tag_561\n        /* \"#utility.yul\":11226:11229   */\n      dup3\n        /* \"#utility.yul\":11137:11230   */\n      tag_562\n      jump\t// in\n    tag_561:\n        /* \"#utility.yul\":11255:11257   */\n      0x40\n        /* \"#utility.yul\":11250:11253   */\n      dup3\n        /* \"#utility.yul\":11246:11258   */\n      add\n        /* \"#utility.yul\":11239:11258   */\n      swap1\n      pop\n        /* \"#utility.yul\":10898:11264   */\n      swap2\n      swap1\n      pop\n      jump\t// out\n        /* \"#utility.yul\":11270:11636   */\n    tag_563:\n        /* \"#utility.yul\":11412:11415   */\n      0x00\n        /* \"#utility.yul\":11433:11500   */\n      tag_565\n        /* \"#utility.yul\":11497:11499   */\n      0x2d\n        /* \"#utility.yul\":11492:11495   */\n      dup4\n        /* \"#utility.yul\":11433:11500   */\n      tag_504\n      jump\t// in\n    tag_565:\n        /* \"#utility.yul\":11426:11500   */\n      swap2\n      pop\n        /* \"#utility.yul\":11509:11602   */\n      tag_566\n        /* \"#utility.yul\":11598:11601   */\n      dup3\n        /* \"#utility.yul\":11509:11602   */\n      tag_567\n      jump\t// in\n    tag_566:\n        /* \"#utility.yul\":11627:11629   */\n      0x40\n        /* \"#utility.yul\":11622:11625   */\n      dup3\n        /* \"#utility.yul\":11618:11630   */\n      add\n        /* \"#utility.yul\":11611:11630   */\n      swap1\n      pop\n        /* \"#utility.yul\":11270:11636   */\n      swap2\n      swap1\n      pop\n      jump\t// out\n        /* \"#utility.yul\":11642:12008   */\n    tag_568:\n        /* \"#utility.yul\":11784:11787   */\n      0x00\n        /* \"#utility.yul\":11805:11872   */\n      tag_570\n        /* \"#utility.yul\":11869:11871   */\n      0x20\n        /* \"#utility.yul\":11864:11867   */\n      dup4\n        /* \"#utility.yul\":11805:11872   */\n      tag_504\n      jump\t// in\n    tag_570:\n        /* \"#utility.yul\":11798:11872   */\n      swap2\n      pop\n        /* \"#utility.yul\":11881:11974   */\n      tag_571\n        /* \"#utility.yul\":11970:11973   */\n      dup3\n        /* \"#utility.yul\":11881:11974   */\n      tag_572\n      jump\t// in\n    tag_571:\n        /* \"#utility.yul\":11999:12001   */\n      0x20\n        /* \"#utility.yul\":11994:11997   */\n      dup3\n        /* \"#utility.yul\":11990:12002   */\n      add\n        /* \"#utility.yul\":11983:12002   */\n      swap1\n      pop\n        /* \"#utility.yul\":11642:12008   */\n      swap2\n      swap1\n      pop\n      jump\t// out\n        /* \"#utility.yul\":12014:12380   */\n    tag_573:\n        /* \"#utility.yul\":12156:12159   */\n      0x00\n        /* \"#utility.yul\":12177:12244   */\n      tag_575\n        /* \"#utility.yul\":12241:12243   */\n      0x26\n        /* \"#utility.yul\":12236:12239   */\n      dup4\n        /* \"#utility.yul\":12177:12244   */\n      tag_504\n      jump\t// in\n    tag_575:\n        /* \"#utility.yul\":12170:12244   */\n      swap2\n      pop\n        /* \"#utility.yul\":12253:12346   */\n      tag_576\n        /* \"#utility.yul\":12342:12345   */\n      dup3\n        /* \"#utility.yul\":12253:12346   */\n      tag_577\n      jump\t// in\n    tag_576:\n        /* \"#utility.yul\":12371:12373   */\n      0x40\n        /* \"#utility.yul\":12366:12369   */\n      dup3\n        /* \"#utility.yul\":12362:12374   */\n      add\n        /* \"#utility.yul\":12355:12374   */\n      swap1\n      pop\n        /* \"#utility.yul\":12014:12380   */\n      swap2\n      swap1\n      pop\n      jump\t// out\n        /* \"#utility.yul\":12386:12752   */\n    tag_578:\n        /* \"#utility.yul\":12528:12531   */\n      0x00\n        /* \"#utility.yul\":12549:12616   */\n      tag_580\n        /* \"#utility.yul\":12613:12615   */\n      0x25\n        /* \"#utility.yul\":12608:12611   */\n      dup4\n        /* \"#utility.yul\":12549:12616   */\n      tag_504\n      jump\t// in\n    tag_580:\n        /* \"#utility.yul\":12542:12616   */\n      swap2\n      pop\n        /* \"#utility.yul\":12625:12718   */\n      tag_581\n        /* \"#utility.yul\":12714:12717   */\n      dup3\n        /* \"#utility.yul\":12625:12718   */\n      tag_582\n      jump\t// in\n    tag_581:\n        /* \"#utility.yul\":12743:12745   */\n      0x40\n        /* \"#utility.yul\":12738:12741   */\n      dup3\n        /* \"#utility.yul\":12734:12746   */\n      add\n        /* \"#utility.yul\":12727:12746   */\n      swap1\n      pop\n        /* \"#utility.yul\":12386:12752   */\n      swap2\n      swap1\n      pop\n      jump\t// out\n        /* \"#utility.yul\":12758:13124   */\n    tag_583:\n        /* \"#utility.yul\":12900:12903   */\n      0x00\n        /* \"#utility.yul\":12921:12988   */\n      tag_585\n        /* \"#utility.yul\":12985:12987   */\n      0x24\n        /* \"#utility.yul\":12980:12983   */\n      dup4\n        /* \"#utility.yul\":12921:12988   */\n      tag_504\n      jump\t// in\n    tag_585:\n        /* \"#utility.yul\":12914:12988   */\n      swap2\n      pop\n        /* \"#utility.yul\":12997:13090   */\n      tag_586\n        /* \"#utility.yul\":13086:13089   */\n      dup3\n        /* \"#utility.yul\":12997:13090   */\n      tag_587\n      jump\t// in\n    tag_586:\n        /* \"#utility.yul\":13115:13117   */\n      0x40\n        /* \"#utility.yul\":13110:13113   */\n      dup3\n        /* \"#utility.yul\":13106:13118   */\n      add\n        /* \"#utility.yul\":13099:13118   */\n      swap1\n      pop\n        /* \"#utility.yul\":12758:13124   */\n      swap2\n      swap1\n      pop\n      jump\t// out\n        /* \"#utility.yul\":13130:13496   */\n    tag_588:\n        /* \"#utility.yul\":13272:13275   */\n      0x00\n        /* \"#utility.yul\":13293:13360   */\n      tag_590\n        /* \"#utility.yul\":13357:13359   */\n      0x2b\n        /* \"#utility.yul\":13352:13355   */\n      dup4\n        /* \"#utility.yul\":13293:13360   */\n      tag_504\n      jump\t// in\n    tag_590:\n        /* \"#utility.yul\":13286:13360   */\n      swap2\n      pop\n        /* \"#utility.yul\":13369:13462   */\n      tag_591\n        /* \"#utility.yul\":13458:13461   */\n      dup3\n        /* \"#utility.yul\":13369:13462   */\n      tag_592\n      jump\t// in\n    tag_591:\n        /* \"#utility.yul\":13487:13489   */\n      0x40\n        /* \"#utility.yul\":13482:13485   */\n      dup3\n        /* \"#utility.yul\":13478:13490   */\n      add\n        /* \"#utility.yul\":13471:13490   */\n      swap1\n      pop\n        /* \"#utility.yul\":13130:13496   */\n      swap2\n      swap1\n      pop\n      jump\t// out\n        /* \"#utility.yul\":13502:13868   */\n    tag_593:\n        /* \"#utility.yul\":13644:13647   */\n      0x00\n        /* \"#utility.yul\":13665:13732   */\n      tag_595\n        /* \"#utility.yul\":13729:13731   */\n      0x25\n        /* \"#utility.yul\":13724:13727   */\n      dup4\n        /* \"#utility.yul\":13665:13732   */\n      tag_504\n      jump\t// in\n    tag_595:\n        /* \"#utility.yul\":13658:13732   */\n      swap2\n      pop\n        /* \"#utility.yul\":13741:13834   */\n      tag_596\n        /* \"#utility.yul\":13830:13833   */\n      dup3\n        /* \"#utility.yul\":13741:13834   */\n      tag_597\n      jump\t// in\n    tag_596:\n        /* \"#utility.yul\":13859:13861   */\n      0x40\n        /* \"#utility.yul\":13854:13857   */\n      dup3\n        /* \"#utility.yul\":13850:13862   */\n      add\n        /* \"#utility.yul\":13843:13862   */\n      swap1\n      pop\n        /* \"#utility.yul\":13502:13868   */\n      swap2\n      swap1\n      pop\n      jump\t// out\n        /* \"#utility.yul\":13874:14240   */\n    tag_598:\n        /* \"#utility.yul\":14016:14019   */\n      0x00\n        /* \"#utility.yul\":14037:14104   */\n      tag_600\n        /* \"#utility.yul\":14101:14103   */\n      0x1f\n        /* \"#utility.yul\":14096:14099   */\n      dup4\n        /* \"#utility.yul\":14037:14104   */\n      tag_504\n      jump\t// in\n    tag_600:\n        /* \"#utility.yul\":14030:14104   */\n      swap2\n      pop\n        /* \"#utility.yul\":14113:14206   */\n      tag_601\n        /* \"#utility.yul\":14202:14205   */\n      dup3\n        /* \"#utility.yul\":14113:14206   */\n      tag_602\n      jump\t// in\n    tag_601:\n        /* \"#utility.yul\":14231:14233   */\n      0x20\n        /* \"#utility.yul\":14226:14229   */\n      dup3\n        /* \"#utility.yul\":14222:14234   */\n      add\n        /* \"#utility.yul\":14215:14234   */\n      swap1\n      pop\n        /* \"#utility.yul\":13874:14240   */\n      swap2\n      swap1\n      pop\n      jump\t// out\n        /* \"#utility.yul\":14246:14364   */\n    tag_603:\n        /* \"#utility.yul\":14333:14357   */\n      tag_605\n        /* \"#utility.yul\":14351:14356   */\n      dup2\n        /* \"#utility.yul\":14333:14357   */\n      tag_606\n      jump\t// in\n    tag_605:\n        /* \"#utility.yul\":14328:14331   */\n      dup3\n        /* \"#utility.yul\":14321:14358   */\n      mstore\n        /* \"#utility.yul\":14246:14364   */\n      pop\n      pop\n      jump\t// out\n        /* \"#utility.yul\":14370:14482   */\n    tag_607:\n        /* \"#utility.yul\":14453:14475   */\n      tag_609\n        /* \"#utility.yul\":14469:14474   */\n      dup2\n        /* \"#utility.yul\":14453:14475   */\n      tag_610\n      jump\t// in\n    tag_609:\n        /* \"#utility.yul\":14448:14451   */\n      dup3\n        /* \"#utility.yul\":14441:14476   */\n      mstore\n        /* \"#utility.yul\":14370:14482   */\n      pop\n      pop\n      jump\t// out\n        /* \"#utility.yul\":14488:14759   */\n    tag_364:\n        /* \"#utility.yul\":14618:14621   */\n      0x00\n        /* \"#utility.yul\":14640:14733   */\n      tag_612\n        /* \"#utility.yul\":14729:14732   */\n      dup3\n        /* \"#utility.yul\":14720:14726   */\n      dup5\n        /* \"#utility.yul\":14640:14733   */\n      tag_487\n      jump\t// in\n    tag_612:\n        /* \"#utility.yul\":14633:14733   */\n      swap2\n      pop\n        /* \"#utility.yul\":14750:14753   */\n      dup2\n        /* \"#utility.yul\":14743:14753   */\n      swap1\n      pop\n        /* \"#utility.yul\":14488:14759   */\n      swap3\n      swap2\n      pop\n      pop\n      jump\t// out\n        /* \"#utility.yul\":14765:14987   */\n    tag_87:\n        /* \"#utility.yul\":14858:14862   */\n      0x00\n        /* \"#utility.yul\":14896:14898   */\n      0x20\n        /* \"#utility.yul\":14885:14894   */\n      dup3\n        /* \"#utility.yul\":14881:14899   */\n      add\n        /* \"#utility.yul\":14873:14899   */\n      swap1\n      pop\n        /* \"#utility.yul\":14909:14980   */\n      tag_614\n        /* \"#utility.yul\":14977:14978   */\n      0x00\n        /* \"#utility.yul\":14966:14975   */\n      dup4\n        /* \"#utility.yul\":14962:14979   */\n      add\n        /* \"#utility.yul\":14953:14959   */\n      dup5\n        /* \"#utility.yul\":14909:14980   */\n      tag_475\n      jump\t// in\n    tag_614:\n        /* \"#utility.yul\":14765:14987   */\n      swap3\n      swap2\n      pop\n      pop\n      jump\t// out\n        /* \"#utility.yul\":14993:15203   */\n    tag_35:\n        /* \"#utility.yul\":15080:15084   */\n      0x00\n        /* \"#utility.yul\":15118:15120   */\n      0x20\n        /* \"#utility.yul\":15107:15116   */\n      dup3\n        /* \"#utility.yul\":15103:15121   */\n      add\n        /* \"#utility.yul\":15095:15121   */\n      swap1\n      pop\n        /* \"#utility.yul\":15131:15196   */\n      tag_616\n        /* \"#utility.yul\":15193:15194   */\n      0x00\n        /* \"#utility.yul\":15182:15191   */\n      dup4\n        /* \"#utility.yul\":15178:15195   */\n      add\n        /* \"#utility.yul\":15169:15175   */\n      dup5\n        /* \"#utility.yul\":15131:15196   */\n      tag_479\n      jump\t// in\n    tag_616:\n        /* \"#utility.yul\":14993:15203   */\n      swap3\n      swap2\n      pop\n      pop\n      jump\t// out\n        /* \"#utility.yul\":15209:15431   */\n    tag_74:\n        /* \"#utility.yul\":15302:15306   */\n      0x00\n        /* \"#utility.yul\":15340:15342   */\n      0x20\n        /* \"#utility.yul\":15329:15338   */\n      dup3\n        /* \"#utility.yul\":15325:15343   */\n      add\n        /* \"#utility.yul\":15317:15343   */\n      swap1\n      pop\n        /* \"#utility.yul\":15353:15424   */\n      tag_618\n        /* \"#utility.yul\":15421:15422   */\n      0x00\n        /* \"#utility.yul\":15410:15419   */\n      dup4\n        /* \"#utility.yul\":15406:15423   */\n      add\n        /* \"#utility.yul\":15397:15403   */\n      dup5\n        /* \"#utility.yul\":15353:15424   */\n      tag_483\n      jump\t// in\n    tag_618:\n        /* \"#utility.yul\":15209:15431   */\n      swap3\n      swap2\n      pop\n      pop\n      jump\t// out\n        /* \"#utility.yul\":15437:15671   */\n    tag_224:\n        /* \"#utility.yul\":15536:15540   */\n      0x00\n        /* \"#utility.yul\":15574:15576   */\n      0x20\n        /* \"#utility.yul\":15563:15572   */\n      dup3\n        /* \"#utility.yul\":15559:15577   */\n      add\n        /* \"#utility.yul\":15551:15577   */\n      swap1\n      pop\n        /* \"#utility.yul\":15587:15664   */\n      tag_620\n        /* \"#utility.yul\":15661:15662   */\n      0x00\n        /* \"#utility.yul\":15650:15659   */\n      dup4\n        /* \"#utility.yul\":15646:15663   */\n      add\n        /* \"#utility.yul\":15637:15643   */\n      dup5\n        /* \"#utility.yul\":15587:15664   */\n      tag_495\n      jump\t// in\n    tag_620:\n        /* \"#utility.yul\":15437:15671   */\n      swap3\n      swap2\n      pop\n      pop\n      jump\t// out\n        /* \"#utility.yul\":15677:15990   */\n    tag_28:\n        /* \"#utility.yul\":15790:15794   */\n      0x00\n        /* \"#utility.yul\":15828:15830   */\n      0x20\n        /* \"#utility.yul\":15817:15826   */\n      dup3\n        /* \"#utility.yul\":15813:15831   */\n      add\n        /* \"#utility.yul\":15805:15831   */\n      swap1\n      pop\n        /* \"#utility.yul\":15877:15886   */\n      dup2\n        /* \"#utility.yul\":15871:15875   */\n      dup2\n        /* \"#utility.yul\":15867:15887   */\n      sub\n        /* \"#utility.yul\":15863:15864   */\n      0x00\n        /* \"#utility.yul\":15852:15861   */\n      dup4\n        /* \"#utility.yul\":15848:15865   */\n      add\n        /* \"#utility.yul\":15841:15888   */\n      mstore\n        /* \"#utility.yul\":15905:15983   */\n      tag_622\n        /* \"#utility.yul\":15978:15982   */\n      dup2\n        /* \"#utility.yul\":15969:15975   */\n      dup5\n        /* \"#utility.yul\":15905:15983   */\n      tag_499\n      jump\t// in\n    tag_622:\n        /* \"#utility.yul\":15897:15983   */\n      swap1\n      pop\n        /* \"#utility.yul\":15677:15990   */\n      swap3\n      swap2\n      pop\n      pop\n      jump\t// out\n        /* \"#utility.yul\":15996:16415   */\n    tag_255:\n        /* \"#utility.yul\":16162:16166   */\n      0x00\n        /* \"#utility.yul\":16200:16202   */\n      0x20\n        /* \"#utility.yul\":16189:16198   */\n      dup3\n        /* \"#utility.yul\":16185:16203   */\n      add\n        /* \"#utility.yul\":16177:16203   */\n      swap1\n      pop\n        /* \"#utility.yul\":16249:16258   */\n      dup2\n        /* \"#utility.yul\":16243:16247   */\n      dup2\n        /* \"#utility.yul\":16239:16259   */\n      sub\n        /* \"#utility.yul\":16235:16236   */\n      0x00\n        /* \"#utility.yul\":16224:16233   */\n      dup4\n        /* \"#utility.yul\":16220:16237   */\n      add\n        /* \"#utility.yul\":16213:16260   */\n      mstore\n        /* \"#utility.yul\":16277:16408   */\n      tag_624\n        /* \"#utility.yul\":16403:16407   */\n      dup2\n        /* \"#utility.yul\":16277:16408   */\n      tag_508\n      jump\t// in\n    tag_624:\n        /* \"#utility.yul\":16269:16408   */\n      swap1\n      pop\n        /* \"#utility.yul\":15996:16415   */\n      swap2\n      swap1\n      pop\n      jump\t// out\n        /* \"#utility.yul\":16421:16840   */\n    tag_231:\n        /* \"#utility.yul\":16587:16591   */\n      0x00\n        /* \"#utility.yul\":16625:16627   */\n      0x20\n        /* \"#utility.yul\":16614:16623   */\n      dup3\n        /* \"#utility.yul\":16610:16628   */\n      add\n        /* \"#utility.yul\":16602:16628   */\n      swap1\n      pop\n        /* \"#utility.yul\":16674:16683   */\n      dup2\n        /* \"#utility.yul\":16668:16672   */\n      dup2\n        /* \"#utility.yul\":16664:16684   */\n      sub\n        /* \"#utility.yul\":16660:16661   */\n      0x00\n        /* \"#utility.yul\":16649:16658   */\n      dup4\n        /* \"#utility.yul\":16645:16662   */\n      add\n        /* \"#utility.yul\":16638:16685   */\n      mstore\n        /* \"#utility.yul\":16702:16833   */\n      tag_626\n        /* \"#utility.yul\":16828:16832   */\n      dup2\n        /* \"#utility.yul\":16702:16833   */\n      tag_513\n      jump\t// in\n    tag_626:\n        /* \"#utility.yul\":16694:16833   */\n      swap1\n      pop\n        /* \"#utility.yul\":16421:16840   */\n      swap2\n      swap1\n      pop\n      jump\t// out\n        /* \"#utility.yul\":16846:17265   */\n    tag_240:\n        /* \"#utility.yul\":17012:17016   */\n      0x00\n        /* \"#utility.yul\":17050:17052   */\n      0x20\n        /* \"#utility.yul\":17039:17048   */\n      dup3\n        /* \"#utility.yul\":17035:17053   */\n      add\n        /* \"#utility.yul\":17027:17053   */\n      swap1\n      pop\n        /* \"#utility.yul\":17099:17108   */\n      dup2\n        /* \"#utility.yul\":17093:17097   */\n      dup2\n        /* \"#utility.yul\":17089:17109   */\n      sub\n        /* \"#utility.yul\":17085:17086   */\n      0x00\n        /* \"#utility.yul\":17074:17083   */\n      dup4\n        /* \"#utility.yul\":17070:17087   */\n      add\n        /* \"#utility.yul\":17063:17110   */\n      mstore\n        /* \"#utility.yul\":17127:17258   */\n      tag_628\n        /* \"#utility.yul\":17253:17257   */\n      dup2\n        /* \"#utility.yul\":17127:17258   */\n      tag_518\n      jump\t// in\n    tag_628:\n        /* \"#utility.yul\":17119:17258   */\n      swap1\n      pop\n        /* \"#utility.yul\":16846:17265   */\n      swap2\n      swap1\n      pop\n      jump\t// out\n        /* \"#utility.yul\":17271:17690   */\n    tag_140:\n        /* \"#utility.yul\":17437:17441   */\n      0x00\n        /* \"#utility.yul\":17475:17477   */\n      0x20\n        /* \"#utility.yul\":17464:17473   */\n      dup3\n        /* \"#utility.yul\":17460:17478   */\n      add\n        /* \"#utility.yul\":17452:17478   */\n      swap1\n      pop\n        /* \"#utility.yul\":17524:17533   */\n      dup2\n        /* \"#utility.yul\":17518:17522   */\n      dup2\n        /* \"#utility.yul\":17514:17534   */\n      sub\n        /* \"#utility.yul\":17510:17511   */\n      0x00\n        /* \"#utility.yul\":17499:17508   */\n      dup4\n        /* \"#utility.yul\":17495:17512   */\n      add\n        /* \"#utility.yul\":17488:17535   */\n      mstore\n        /* \"#utility.yul\":17552:17683   */\n      tag_630\n        /* \"#utility.yul\":17678:17682   */\n      dup2\n        /* \"#utility.yul\":17552:17683   */\n      tag_523\n      jump\t// in\n    tag_630:\n        /* \"#utility.yul\":17544:17683   */\n      swap1\n      pop\n        /* \"#utility.yul\":17271:17690   */\n      swap2\n      swap1\n      pop\n      jump\t// out\n        /* \"#utility.yul\":17696:18115   */\n    tag_247:\n        /* \"#utility.yul\":17862:17866   */\n      0x00\n        /* \"#utility.yul\":17900:17902   */\n      0x20\n        /* \"#utility.yul\":17889:17898   */\n      dup3\n        /* \"#utility.yul\":17885:17903   */\n      add\n        /* \"#utility.yul\":17877:17903   */\n      swap1\n      pop\n        /* \"#utility.yul\":17949:17958   */\n      dup2\n        /* \"#utility.yul\":17943:17947   */\n      dup2\n        /* \"#utility.yul\":17939:17959   */\n      sub\n        /* \"#utility.yul\":17935:17936   */\n      0x00\n        /* \"#utility.yul\":17924:17933   */\n      dup4\n        /* \"#utility.yul\":17920:17937   */\n      add\n        /* \"#utility.yul\":17913:17960   */\n      mstore\n        /* \"#utility.yul\":17977:18108   */\n      tag_632\n        /* \"#utility.yul\":18103:18107   */\n      dup2\n        /* \"#utility.yul\":17977:18108   */\n      tag_528\n      jump\t// in\n    tag_632:\n        /* \"#utility.yul\":17969:18108   */\n      swap1\n      pop\n        /* \"#utility.yul\":17696:18115   */\n      swap2\n      swap1\n      pop\n      jump\t// out\n        /* \"#utility.yul\":18121:18540   */\n    tag_260:\n        /* \"#utility.yul\":18287:18291   */\n      0x00\n        /* \"#utility.yul\":18325:18327   */\n      0x20\n        /* \"#utility.yul\":18314:18323   */\n      dup3\n        /* \"#utility.yul\":18310:18328   */\n      add\n        /* \"#utility.yul\":18302:18328   */\n      swap1\n      pop\n        /* \"#utility.yul\":18374:18383   */\n      dup2\n        /* \"#utility.yul\":18368:18372   */\n      dup2\n        /* \"#utility.yul\":18364:18384   */\n      sub\n        /* \"#utility.yul\":18360:18361   */\n      0x00\n        /* \"#utility.yul\":18349:18358   */\n      dup4\n        /* \"#utility.yul\":18345:18362   */\n      add\n        /* \"#utility.yul\":18338:18385   */\n      mstore\n        /* \"#utility.yul\":18402:18533   */\n      tag_634\n        /* \"#utility.yul\":18528:18532   */\n      dup2\n        /* \"#utility.yul\":18402:18533   */\n      tag_533\n      jump\t// in\n    tag_634:\n        /* \"#utility.yul\":18394:18533   */\n      swap1\n      pop\n        /* \"#utility.yul\":18121:18540   */\n      swap2\n      swap1\n      pop\n      jump\t// out\n        /* \"#utility.yul\":18546:18965   */\n    tag_145:\n        /* \"#utility.yul\":18712:18716   */\n      0x00\n        /* \"#utility.yul\":18750:18752   */\n      0x20\n        /* \"#utility.yul\":18739:18748   */\n      dup3\n        /* \"#utility.yul\":18735:18753   */\n      add\n        /* \"#utility.yul\":18727:18753   */\n      swap1\n      pop\n        /* \"#utility.yul\":18799:18808   */\n      dup2\n        /* \"#utility.yul\":18793:18797   */\n      dup2\n        /* \"#utility.yul\":18789:18809   */\n      sub\n        /* \"#utility.yul\":18785:18786   */\n      0x00\n        /* \"#utility.yul\":18774:18783   */\n      dup4\n        /* \"#utility.yul\":18770:18787   */\n      add\n        /* \"#utility.yul\":18763:18810   */\n      mstore\n        /* \"#utility.yul\":18827:18958   */\n      tag_636\n        /* \"#utility.yul\":18953:18957   */\n      dup2\n        /* \"#utility.yul\":18827:18958   */\n      tag_538\n      jump\t// in\n    tag_636:\n        /* \"#utility.yul\":18819:18958   */\n      swap1\n      pop\n        /* \"#utility.yul\":18546:18965   */\n      swap2\n      swap1\n      pop\n      jump\t// out\n        /* \"#utility.yul\":18971:19390   */\n    tag_179:\n        /* \"#utility.yul\":19137:19141   */\n      0x00\n        /* \"#utility.yul\":19175:19177   */\n      0x20\n        /* \"#utility.yul\":19164:19173   */\n      dup3\n        /* \"#utility.yul\":19160:19178   */\n      add\n        /* \"#utility.yul\":19152:19178   */\n      swap1\n      pop\n        /* \"#utility.yul\":19224:19233   */\n      dup2\n        /* \"#utility.yul\":19218:19222   */\n      dup2\n        /* \"#utility.yul\":19214:19234   */\n      sub\n        /* \"#utility.yul\":19210:19211   */\n      0x00\n        /* \"#utility.yul\":19199:19208   */\n      dup4\n        /* \"#utility.yul\":19195:19212   */\n      add\n        /* \"#utility.yul\":19188:19235   */\n      mstore\n        /* \"#utility.yul\":19252:19383   */\n      tag_638\n        /* \"#utility.yul\":19378:19382   */\n      dup2\n        /* \"#utility.yul\":19252:19383   */\n      tag_543\n      jump\t// in\n    tag_638:\n        /* \"#utility.yul\":19244:19383   */\n      swap1\n      pop\n        /* \"#utility.yul\":18971:19390   */\n      swap2\n      swap1\n      pop\n      jump\t// out\n        /* \"#utility.yul\":19396:19815   */\n    tag_290:\n        /* \"#utility.yul\":19562:19566   */\n      0x00\n        /* \"#utility.yul\":19600:19602   */\n      0x20\n        /* \"#utility.yul\":19589:19598   */\n      dup3\n        /* \"#utility.yul\":19585:19603   */\n      add\n        /* \"#utility.yul\":19577:19603   */\n      swap1\n      pop\n        /* \"#utility.yul\":19649:19658   */\n      dup2\n        /* \"#utility.yul\":19643:19647   */\n      dup2\n        /* \"#utility.yul\":19639:19659   */\n      sub\n        /* \"#utility.yul\":19635:19636   */\n      0x00\n        /* \"#utility.yul\":19624:19633   */\n      dup4\n        /* \"#utility.yul\":19620:19637   */\n      add\n        /* \"#utility.yul\":19613:19660   */\n      mstore\n        /* \"#utility.yul\":19677:19808   */\n      tag_640\n        /* \"#utility.yul\":19803:19807   */\n      dup2\n        /* \"#utility.yul\":19677:19808   */\n      tag_548\n      jump\t// in\n    tag_640:\n        /* \"#utility.yul\":19669:19808   */\n      swap1\n      pop\n        /* \"#utility.yul\":19396:19815   */\n      swap2\n      swap1\n      pop\n      jump\t// out\n        /* \"#utility.yul\":19821:20240   */\n    tag_212:\n        /* \"#utility.yul\":19987:19991   */\n      0x00\n        /* \"#utility.yul\":20025:20027   */\n      0x20\n        /* \"#utility.yul\":20014:20023   */\n      dup3\n        /* \"#utility.yul\":20010:20028   */\n      add\n        /* \"#utility.yul\":20002:20028   */\n      swap1\n      pop\n        /* \"#utility.yul\":20074:20083   */\n      dup2\n        /* \"#utility.yul\":20068:20072   */\n      dup2\n        /* \"#utility.yul\":20064:20084   */\n      sub\n        /* \"#utility.yul\":20060:20061   */\n      0x00\n        /* \"#utility.yul\":20049:20058   */\n      dup4\n        /* \"#utility.yul\":20045:20062   */\n      add\n        /* \"#utility.yul\":20038:20085   */\n      mstore\n        /* \"#utility.yul\":20102:20233   */\n      tag_642\n        /* \"#utility.yul\":20228:20232   */\n      dup2\n        /* \"#utility.yul\":20102:20233   */\n      tag_553\n      jump\t// in\n    tag_642:\n        /* \"#utility.yul\":20094:20233   */\n      swap1\n      pop\n        /* \"#utility.yul\":19821:20240   */\n      swap2\n      swap1\n      pop\n      jump\t// out\n        /* \"#utility.yul\":20246:20665   */\n    tag_286:\n        /* \"#utility.yul\":20412:20416   */\n      0x00\n        /* \"#utility.yul\":20450:20452   */\n      0x20\n        /* \"#utility.yul\":20439:20448   */\n      dup3\n        /* \"#utility.yul\":20435:20453   */\n      add\n        /* \"#utility.yul\":20427:20453   */\n      swap1\n      pop\n        /* \"#utility.yul\":20499:20508   */\n      dup2\n        /* \"#utility.yul\":20493:20497   */\n      dup2\n        /* \"#utility.yul\":20489:20509   */\n      sub\n        /* \"#utility.yul\":20485:20486   */\n      0x00\n        /* \"#utility.yul\":20474:20483   */\n      dup4\n        /* \"#utility.yul\":20470:20487   */\n      add\n        /* \"#utility.yul\":20463:20510   */\n      mstore\n        /* \"#utility.yul\":20527:20658   */\n      tag_644\n        /* \"#utility.yul\":20653:20657   */\n      dup2\n        /* \"#utility.yul\":20527:20658   */\n      tag_558\n      jump\t// in\n    tag_644:\n        /* \"#utility.yul\":20519:20658   */\n      swap1\n      pop\n        /* \"#utility.yul\":20246:20665   */\n      swap2\n      swap1\n      pop\n      jump\t// out\n        /* \"#utility.yul\":20671:21090   */\n    tag_334:\n        /* \"#utility.yul\":20837:20841   */\n      0x00\n        /* \"#utility.yul\":20875:20877   */\n      0x20\n        /* \"#utility.yul\":20864:20873   */\n      dup3\n        /* \"#utility.yul\":20860:20878   */\n      add\n        /* \"#utility.yul\":20852:20878   */\n      swap1\n      pop\n        /* \"#utility.yul\":20924:20933   */\n      dup2\n        /* \"#utility.yul\":20918:20922   */\n      dup2\n        /* \"#utility.yul\":20914:20934   */\n      sub\n        /* \"#utility.yul\":20910:20911   */\n      0x00\n        /* \"#utility.yul\":20899:20908   */\n      dup4\n        /* \"#utility.yul\":20895:20912   */\n      add\n        /* \"#utility.yul\":20888:20935   */\n      mstore\n        /* \"#utility.yul\":20952:21083   */\n      tag_646\n        /* \"#utility.yul\":21078:21082   */\n      dup2\n        /* \"#utility.yul\":20952:21083   */\n      tag_563\n      jump\t// in\n    tag_646:\n        /* \"#utility.yul\":20944:21083   */\n      swap1\n      pop\n        /* \"#utility.yul\":20671:21090   */\n      swap2\n      swap1\n      pop\n      jump\t// out\n        /* \"#utility.yul\":21096:21515   */\n    tag_298:\n        /* \"#utility.yul\":21262:21266   */\n      0x00\n        /* \"#utility.yul\":21300:21302   */\n      0x20\n        /* \"#utility.yul\":21289:21298   */\n      dup3\n        /* \"#utility.yul\":21285:21303   */\n      add\n        /* \"#utility.yul\":21277:21303   */\n      swap1\n      pop\n        /* \"#utility.yul\":21349:21358   */\n      dup2\n        /* \"#utility.yul\":21343:21347   */\n      dup2\n        /* \"#utility.yul\":21339:21359   */\n      sub\n        /* \"#utility.yul\":21335:21336   */\n      0x00\n        /* \"#utility.yul\":21324:21333   */\n      dup4\n        /* \"#utility.yul\":21320:21337   */\n      add\n        /* \"#utility.yul\":21313:21360   */\n      mstore\n        /* \"#utility.yul\":21377:21508   */\n      tag_648\n        /* \"#utility.yul\":21503:21507   */\n      dup2\n        /* \"#utility.yul\":21377:21508   */\n      tag_568\n      jump\t// in\n    tag_648:\n        /* \"#utility.yul\":21369:21508   */\n      swap1\n      pop\n        /* \"#utility.yul\":21096:21515   */\n      swap2\n      swap1\n      pop\n      jump\t// out\n        /* \"#utility.yul\":21521:21940   */\n    tag_362:\n        /* \"#utility.yul\":21687:21691   */\n      0x00\n        /* \"#utility.yul\":21725:21727   */\n      0x20\n        /* \"#utility.yul\":21714:21723   */\n      dup3\n        /* \"#utility.yul\":21710:21728   */\n      add\n        /* \"#utility.yul\":21702:21728   */\n      swap1\n      pop\n        /* \"#utility.yul\":21774:21783   */\n      dup2\n        /* \"#utility.yul\":21768:21772   */\n      dup2\n        /* \"#utility.yul\":21764:21784   */\n      sub\n        /* \"#utility.yul\":21760:21761   */\n      0x00\n        /* \"#utility.yul\":21749:21758   */\n      dup4\n        /* \"#utility.yul\":21745:21762   */\n      add\n        /* \"#utility.yul\":21738:21785   */\n      mstore\n        /* \"#utility.yul\":21802:21933   */\n      tag_650\n        /* \"#utility.yul\":21928:21932   */\n      dup2\n        /* \"#utility.yul\":21802:21933   */\n      tag_573\n      jump\t// in\n    tag_650:\n        /* \"#utility.yul\":21794:21933   */\n      swap1\n      pop\n        /* \"#utility.yul\":21521:21940   */\n      swap2\n      swap1\n      pop\n      jump\t// out\n        /* \"#utility.yul\":21946:22365   */\n    tag_252:\n        /* \"#utility.yul\":22112:22116   */\n      0x00\n        /* \"#utility.yul\":22150:22152   */\n      0x20\n        /* \"#utility.yul\":22139:22148   */\n      dup3\n        /* \"#utility.yul\":22135:22153   */\n      add\n        /* \"#utility.yul\":22127:22153   */\n      swap1\n      pop\n        /* \"#utility.yul\":22199:22208   */\n      dup2\n        /* \"#utility.yul\":22193:22197   */\n      dup2\n        /* \"#utility.yul\":22189:22209   */\n      sub\n        /* \"#utility.yul\":22185:22186   */\n      0x00\n        /* \"#utility.yul\":22174:22183   */\n      dup4\n        /* \"#utility.yul\":22170:22187   */\n      add\n        /* \"#utility.yul\":22163:22210   */\n      mstore\n        /* \"#utility.yul\":22227:22358   */\n      tag_652\n        /* \"#utility.yul\":22353:22357   */\n      dup2\n        /* \"#utility.yul\":22227:22358   */\n      tag_578\n      jump\t// in\n    tag_652:\n        /* \"#utility.yul\":22219:22358   */\n      swap1\n      pop\n        /* \"#utility.yul\":21946:22365   */\n      swap2\n      swap1\n      pop\n      jump\t// out\n        /* \"#utility.yul\":22371:22790   */\n    tag_237:\n        /* \"#utility.yul\":22537:22541   */\n      0x00\n        /* \"#utility.yul\":22575:22577   */\n      0x20\n        /* \"#utility.yul\":22564:22573   */\n      dup3\n        /* \"#utility.yul\":22560:22578   */\n      add\n        /* \"#utility.yul\":22552:22578   */\n      swap1\n      pop\n        /* \"#utility.yul\":22624:22633   */\n      dup2\n        /* \"#utility.yul\":22618:22622   */\n      dup2\n        /* \"#utility.yul\":22614:22634   */\n      sub\n        /* \"#utility.yul\":22610:22611   */\n      0x00\n        /* \"#utility.yul\":22599:22608   */\n      dup4\n        /* \"#utility.yul\":22595:22612   */\n      add\n        /* \"#utility.yul\":22588:22635   */\n      mstore\n        /* \"#utility.yul\":22652:22783   */\n      tag_654\n        /* \"#utility.yul\":22778:22782   */\n      dup2\n        /* \"#utility.yul\":22652:22783   */\n      tag_583\n      jump\t// in\n    tag_654:\n        /* \"#utility.yul\":22644:22783   */\n      swap1\n      pop\n        /* \"#utility.yul\":22371:22790   */\n      swap2\n      swap1\n      pop\n      jump\t// out\n        /* \"#utility.yul\":22796:23215   */\n    tag_312:\n        /* \"#utility.yul\":22962:22966   */\n      0x00\n        /* \"#utility.yul\":23000:23002   */\n      0x20\n        /* \"#utility.yul\":22989:22998   */\n      dup3\n        /* \"#utility.yul\":22985:23003   */\n      add\n        /* \"#utility.yul\":22977:23003   */\n      swap1\n      pop\n        /* \"#utility.yul\":23049:23058   */\n      dup2\n        /* \"#utility.yul\":23043:23047   */\n      dup2\n        /* \"#utility.yul\":23039:23059   */\n      sub\n        /* \"#utility.yul\":23035:23036   */\n      0x00\n        /* \"#utility.yul\":23024:23033   */\n      dup4\n        /* \"#utility.yul\":23020:23037   */\n      add\n        /* \"#utility.yul\":23013:23060   */\n      mstore\n        /* \"#utility.yul\":23077:23208   */\n      tag_656\n        /* \"#utility.yul\":23203:23207   */\n      dup2\n        /* \"#utility.yul\":23077:23208   */\n      tag_588\n      jump\t// in\n    tag_656:\n        /* \"#utility.yul\":23069:23208   */\n      swap1\n      pop\n        /* \"#utility.yul\":22796:23215   */\n      swap2\n      swap1\n      pop\n      jump\t// out\n        /* \"#utility.yul\":23221:23640   */\n    tag_199:\n        /* \"#utility.yul\":23387:23391   */\n      0x00\n        /* \"#utility.yul\":23425:23427   */\n      0x20\n        /* \"#utility.yul\":23414:23423   */\n      dup3\n        /* \"#utility.yul\":23410:23428   */\n      add\n        /* \"#utility.yul\":23402:23428   */\n      swap1\n      pop\n        /* \"#utility.yul\":23474:23483   */\n      dup2\n        /* \"#utility.yul\":23468:23472   */\n      dup2\n        /* \"#utility.yul\":23464:23484   */\n      sub\n        /* \"#utility.yul\":23460:23461   */\n      0x00\n        /* \"#utility.yul\":23449:23458   */\n      dup4\n        /* \"#utility.yul\":23445:23462   */\n      add\n        /* \"#utility.yul\":23438:23485   */\n      mstore\n        /* \"#utility.yul\":23502:23633   */\n      tag_658\n        /* \"#utility.yul\":23628:23632   */\n      dup2\n        /* \"#utility.yul\":23502:23633   */\n      tag_593\n      jump\t// in\n    tag_658:\n        /* \"#utility.yul\":23494:23633   */\n      swap1\n      pop\n        /* \"#utility.yul\":23221:23640   */\n      swap2\n      swap1\n      pop\n      jump\t// out\n        /* \"#utility.yul\":23646:24065   */\n    tag_302:\n        /* \"#utility.yul\":23812:23816   */\n      0x00\n        /* \"#utility.yul\":23850:23852   */\n      0x20\n        /* \"#utility.yul\":23839:23848   */\n      dup3\n        /* \"#utility.yul\":23835:23853   */\n      add\n        /* \"#utility.yul\":23827:23853   */\n      swap1\n      pop\n        /* \"#utility.yul\":23899:23908   */\n      dup2\n        /* \"#utility.yul\":23893:23897   */\n      dup2\n        /* \"#utility.yul\":23889:23909   */\n      sub\n        /* \"#utility.yul\":23885:23886   */\n      0x00\n        /* \"#utility.yul\":23874:23883   */\n      dup4\n        /* \"#utility.yul\":23870:23887   */\n      add\n        /* \"#utility.yul\":23863:23910   */\n      mstore\n        /* \"#utility.yul\":23927:24058   */\n      tag_660\n        /* \"#utility.yul\":24053:24057   */\n      dup2\n        /* \"#utility.yul\":23927:24058   */\n      tag_598\n      jump\t// in\n    tag_660:\n        /* \"#utility.yul\":23919:24058   */\n      swap1\n      pop\n        /* \"#utility.yul\":23646:24065   */\n      swap2\n      swap1\n      pop\n      jump\t// out\n        /* \"#utility.yul\":24071:24293   */\n    tag_40:\n        /* \"#utility.yul\":24164:24168   */\n      0x00\n        /* \"#utility.yul\":24202:24204   */\n      0x20\n        /* \"#utility.yul\":24191:24200   */\n      dup3\n        /* \"#utility.yul\":24187:24205   */\n      add\n        /* \"#utility.yul\":24179:24205   */\n      swap1\n      pop\n        /* \"#utility.yul\":24215:24286   */\n      tag_662\n        /* \"#utility.yul\":24283:24284   */\n      0x00\n        /* \"#utility.yul\":24272:24281   */\n      dup4\n        /* \"#utility.yul\":24268:24285   */\n      add\n        /* \"#utility.yul\":24259:24265   */\n      dup5\n        /* \"#utility.yul\":24215:24286   */\n      tag_603\n      jump\t// in\n    tag_662:\n        /* \"#utility.yul\":24071:24293   */\n      swap3\n      swap2\n      pop\n      pop\n      jump\t// out\n        /* \"#utility.yul\":24299:24513   */\n    tag_51:\n        /* \"#utility.yul\":24388:24392   */\n      0x00\n        /* \"#utility.yul\":24426:24428   */\n      0x20\n        /* \"#utility.yul\":24415:24424   */\n      dup3\n        /* \"#utility.yul\":24411:24429   */\n      add\n        /* \"#utility.yul\":24403:24429   */\n      swap1\n      pop\n        /* \"#utility.yul\":24439:24506   */\n      tag_664\n        /* \"#utility.yul\":24503:24504   */\n      0x00\n        /* \"#utility.yul\":24492:24501   */\n      dup4\n        /* \"#utility.yul\":24488:24505   */\n      add\n        /* \"#utility.yul\":24479:24485   */\n      dup5\n        /* \"#utility.yul\":24439:24506   */\n      tag_607\n      jump\t// in\n    tag_664:\n        /* \"#utility.yul\":24299:24513   */\n      swap3\n      swap2\n      pop\n      pop\n      jump\t// out\n        /* \"#utility.yul\":24519:24648   */\n    tag_395:\n        /* \"#utility.yul\":24553:24559   */\n      0x00\n        /* \"#utility.yul\":24580:24600   */\n      tag_666\n      tag_667\n      jump\t// in\n    tag_666:\n        /* \"#utility.yul\":24570:24600   */\n      swap1\n      pop\n        /* \"#utility.yul\":24609:24642   */\n      tag_668\n        /* \"#utility.yul\":24637:24641   */\n      dup3\n        /* \"#utility.yul\":24629:24635   */\n      dup3\n        /* \"#utility.yul\":24609:24642   */\n      tag_669\n      jump\t// in\n    tag_668:\n        /* \"#utility.yul\":24519:24648   */\n      swap2\n      swap1\n      pop\n      jump\t// out\n        /* \"#utility.yul\":24654:24729   */\n    tag_667:\n        /* \"#utility.yul\":24687:24693   */\n      0x00\n        /* \"#utility.yul\":24720:24722   */\n      0x40\n        /* \"#utility.yul\":24714:24723   */\n      mload\n        /* \"#utility.yul\":24704:24723   */\n      swap1\n      pop\n        /* \"#utility.yul\":24654:24729   */\n      swap1\n      jump\t// out\n        /* \"#utility.yul\":24735:25042   */\n    tag_394:\n        /* \"#utility.yul\":24796:24800   */\n      0x00\n        /* \"#utility.yul\":24886:24904   */\n      0xffffffffffffffff\n        /* \"#utility.yul\":24878:24884   */\n      dup3\n        /* \"#utility.yul\":24875:24905   */\n      gt\n        /* \"#utility.yul\":24872:24928   */\n      iszero\n      tag_672\n      jumpi\n        /* \"#utility.yul\":24908:24926   */\n      tag_673\n      tag_152\n      jump\t// in\n    tag_673:\n        /* \"#utility.yul\":24872:24928   */\n    tag_672:\n        /* \"#utility.yul\":24946:24975   */\n      tag_674\n        /* \"#utility.yul\":24968:24974   */\n      dup3\n        /* \"#utility.yul\":24946:24975   */\n      tag_507\n      jump\t// in\n    tag_674:\n        /* \"#utility.yul\":24938:24975   */\n      swap1\n      pop\n        /* \"#utility.yul\":25030:25034   */\n      0x20\n        /* \"#utility.yul\":25024:25028   */\n      dup2\n        /* \"#utility.yul\":25020:25035   */\n      add\n        /* \"#utility.yul\":25012:25035   */\n      swap1\n      pop\n        /* \"#utility.yul\":24735:25042   */\n      swap2\n      swap1\n      pop\n      jump\t// out\n        /* \"#utility.yul\":25048:25356   */\n    tag_405:\n        /* \"#utility.yul\":25110:25114   */\n      0x00\n        /* \"#utility.yul\":25200:25218   */\n      0xffffffffffffffff\n        /* \"#utility.yul\":25192:25198   */\n      dup3\n        /* \"#utility.yul\":25189:25219   */\n      gt\n        /* \"#utility.yul\":25186:25242   */\n      iszero\n      tag_676\n      jumpi\n        /* \"#utility.yul\":25222:25240   */\n      tag_677\n      tag_152\n      jump\t// in\n    tag_677:\n        /* \"#utility.yul\":25186:25242   */\n    tag_676:\n        /* \"#utility.yul\":25260:25289   */\n      tag_678\n        /* \"#utility.yul\":25282:25288   */\n      dup3\n        /* \"#utility.yul\":25260:25289   */\n      tag_507\n      jump\t// in\n    tag_678:\n        /* \"#utility.yul\":25252:25289   */\n      swap1\n      pop\n        /* \"#utility.yul\":25344:25348   */\n      0x20\n        /* \"#utility.yul\":25338:25342   */\n      dup2\n        /* \"#utility.yul\":25334:25349   */\n      add\n        /* \"#utility.yul\":25326:25349   */\n      swap1\n      pop\n        /* \"#utility.yul\":25048:25356   */\n      swap2\n      swap1\n      pop\n      jump\t// out\n        /* \"#utility.yul\":25362:25460   */\n    tag_490:\n        /* \"#utility.yul\":25413:25419   */\n      0x00\n        /* \"#utility.yul\":25447:25452   */\n      dup2\n        /* \"#utility.yul\":25441:25453   */\n      mload\n        /* \"#utility.yul\":25431:25453   */\n      swap1\n      pop\n        /* \"#utility.yul\":25362:25460   */\n      swap2\n      swap1\n      pop\n      jump\t// out\n        /* \"#utility.yul\":25466:25565   */\n    tag_502:\n        /* \"#utility.yul\":25518:25524   */\n      0x00\n        /* \"#utility.yul\":25552:25557   */\n      dup2\n        /* \"#utility.yul\":25546:25558   */\n      mload\n        /* \"#utility.yul\":25536:25558   */\n      swap1\n      pop\n        /* \"#utility.yul\":25466:25565   */\n      swap2\n      swap1\n      pop\n      jump\t// out\n        /* \"#utility.yul\":25571:25718   */\n    tag_492:\n        /* \"#utility.yul\":25672:25683   */\n      0x00\n        /* \"#utility.yul\":25709:25712   */\n      dup2\n        /* \"#utility.yul\":25694:25712   */\n      swap1\n      pop\n        /* \"#utility.yul\":25571:25718   */\n      swap3\n      swap2\n      pop\n      pop\n      jump\t// out\n        /* \"#utility.yul\":25724:25893   */\n    tag_504:\n        /* \"#utility.yul\":25808:25819   */\n      0x00\n        /* \"#utility.yul\":25842:25848   */\n      dup3\n        /* \"#utility.yul\":25837:25840   */\n      dup3\n        /* \"#utility.yul\":25830:25849   */\n      mstore\n        /* \"#utility.yul\":25882:25886   */\n      0x20\n        /* \"#utility.yul\":25877:25880   */\n      dup3\n        /* \"#utility.yul\":25873:25887   */\n      add\n        /* \"#utility.yul\":25858:25887   */\n      swap1\n      pop\n        /* \"#utility.yul\":25724:25893   */\n      swap3\n      swap2\n      pop\n      pop\n      jump\t// out\n        /* \"#utility.yul\":25899:26204   */\n    tag_160:\n        /* \"#utility.yul\":25939:25942   */\n      0x00\n        /* \"#utility.yul\":25958:25978   */\n      tag_684\n        /* \"#utility.yul\":25976:25977   */\n      dup3\n        /* \"#utility.yul\":25958:25978   */\n      tag_606\n      jump\t// in\n    tag_684:\n        /* \"#utility.yul\":25953:25978   */\n      swap2\n      pop\n        /* \"#utility.yul\":25992:26012   */\n      tag_685\n        /* \"#utility.yul\":26010:26011   */\n      dup4\n        /* \"#utility.yul\":25992:26012   */\n      tag_606\n      jump\t// in\n    tag_685:\n        /* \"#utility.yul\":25987:26012   */\n      swap3\n      pop\n        /* \"#utility.yul\":26146:26147   */\n      dup3\n        /* \"#utility.yul\":26078:26144   */\n      0xffffffffffffffffffffffffffffffffffffffffffffffffffffffffffffffff\n        /* \"#utility.yul\":26074:26148   */\n      sub\n        /* \"#utility.yul\":26071:26072   */\n      dup3\n        /* \"#utility.yul\":26068:26149   */\n      gt\n        /* \"#utility.yul\":26065:26172   */\n      iszero\n      tag_686\n      jumpi\n        /* \"#utility.yul\":26152:26170   */\n      tag_687\n      tag_688\n      jump\t// in\n    tag_687:\n        /* \"#utility.yul\":26065:26172   */\n    tag_686:\n        /* \"#utility.yul\":26196:26197   */\n      dup3\n        /* \"#utility.yul\":26193:26194   */\n      dup3\n        /* \"#utility.yul\":26189:26198   */\n      add\n        /* \"#utility.yul\":26182:26198   */\n      swap1\n      pop\n        /* \"#utility.yul\":25899:26204   */\n      swap3\n      swap2\n      pop\n      pop\n      jump\t// out\n        /* \"#utility.yul\":26210:26306   */\n    tag_478:\n        /* \"#utility.yul\":26247:26254   */\n      0x00\n        /* \"#utility.yul\":26276:26300   */\n      tag_690\n        /* \"#utility.yul\":26294:26299   */\n      dup3\n        /* \"#utility.yul\":26276:26300   */\n      tag_691\n      jump\t// in\n    tag_690:\n        /* \"#utility.yul\":26265:26300   */\n      swap1\n      pop\n        /* \"#utility.yul\":26210:26306   */\n      swap2\n      swap1\n      pop\n      jump\t// out\n        /* \"#utility.yul\":26312:26402   */\n    tag_482:\n        /* \"#utility.yul\":26346:26353   */\n      0x00\n        /* \"#utility.yul\":26389:26394   */\n      dup2\n        /* \"#utility.yul\":26382:26395   */\n      iszero\n        /* \"#utility.yul\":26375:26396   */\n      iszero\n        /* \"#utility.yul\":26364:26396   */\n      swap1\n      pop\n        /* \"#utility.yul\":26312:26402   */\n      swap2\n      swap1\n      pop\n      jump\t// out\n        /* \"#utility.yul\":26408:26485   */\n    tag_486:\n        /* \"#utility.yul\":26445:26452   */\n      0x00\n        /* \"#utility.yul\":26474:26479   */\n      dup2\n        /* \"#utility.yul\":26463:26479   */\n      swap1\n      pop\n        /* \"#utility.yul\":26408:26485   */\n      swap2\n      swap1\n      pop\n      jump\t// out\n        /* \"#utility.yul\":26491:26617   */\n    tag_691:\n        /* \"#utility.yul\":26528:26535   */\n      0x00\n        /* \"#utility.yul\":26568:26610   */\n      0xffffffffffffffffffffffffffffffffffffffff\n        /* \"#utility.yul\":26561:26566   */\n      dup3\n        /* \"#utility.yul\":26557:26611   */\n      and\n        /* \"#utility.yul\":26546:26611   */\n      swap1\n      pop\n        /* \"#utility.yul\":26491:26617   */\n      swap2\n      swap1\n      pop\n      jump\t// out\n        /* \"#utility.yul\":26623:26700   */\n    tag_606:\n        /* \"#utility.yul\":26660:26667   */\n      0x00\n        /* \"#utility.yul\":26689:26694   */\n      dup2\n        /* \"#utility.yul\":26678:26694   */\n      swap1\n      pop\n        /* \"#utility.yul\":26623:26700   */\n      swap2\n      swap1\n      pop\n      jump\t// out\n        /* \"#utility.yul\":26706:26792   */\n    tag_610:\n        /* \"#utility.yul\":26741:26748   */\n      0x00\n        /* \"#utility.yul\":26781:26785   */\n      0xff\n        /* \"#utility.yul\":26774:26779   */\n      dup3\n        /* \"#utility.yul\":26770:26786   */\n      and\n        /* \"#utility.yul\":26759:26786   */\n      swap1\n      pop\n        /* \"#utility.yul\":26706:26792   */\n      swap2\n      swap1\n      pop\n      jump\t// out\n        /* \"#utility.yul\":26798:26915   */\n    tag_498:\n        /* \"#utility.yul\":26854:26863   */\n      0x00\n        /* \"#utility.yul\":26887:26909   */\n      tag_698\n        /* \"#utility.yul\":26903:26908   */\n      dup3\n        /* \"#utility.yul\":26887:26909   */\n      tag_610\n      jump\t// in\n    tag_698:\n        /* \"#utility.yul\":26874:26909   */\n      swap1\n      pop\n        /* \"#utility.yul\":26798:26915   */\n      swap2\n      swap1\n      pop\n      jump\t// out\n        /* \"#utility.yul\":26921:27075   */\n    tag_400:\n        /* \"#utility.yul\":27005:27011   */\n      dup3\n        /* \"#utility.yul\":27000:27003   */\n      dup2\n        /* \"#utility.yul\":26995:26998   */\n      dup4\n        /* \"#utility.yul\":26982:27012   */\n      calldatacopy\n        /* \"#utility.yul\":27067:27068   */\n      0x00\n        /* \"#utility.yul\":27058:27064   */\n      dup4\n        /* \"#utility.yul\":27053:27056   */\n      dup4\n        /* \"#utility.yul\":27049:27065   */\n      add\n        /* \"#utility.yul\":27042:27069   */\n      mstore\n        /* \"#utility.yul\":26921:27075   */\n      pop\n      pop\n      pop\n      jump\t// out\n        /* \"#utility.yul\":27081:27388   */\n    tag_494:\n        /* \"#utility.yul\":27149:27150   */\n      0x00\n        /* \"#utility.yul\":27159:27272   */\n    tag_701:\n        /* \"#utility.yul\":27173:27179   */\n      dup4\n        /* \"#utility.yul\":27170:27171   */\n      dup2\n        /* \"#utility.yul\":27167:27180   */\n      lt\n        /* \"#utility.yul\":27159:27272   */\n      iszero\n      tag_703\n      jumpi\n        /* \"#utility.yul\":27258:27259   */\n      dup1\n        /* \"#utility.yul\":27253:27256   */\n      dup3\n        /* \"#utility.yul\":27249:27260   */\n      add\n        /* \"#utility.yul\":27243:27261   */\n      mload\n        /* \"#utility.yul\":27239:27240   */\n      dup2\n        /* \"#utility.yul\":27234:27237   */\n      dup5\n        /* \"#utility.yul\":27230:27241   */\n      add\n        /* \"#utility.yul\":27223:27262   */\n      mstore\n        /* \"#utility.yul\":27195:27197   */\n      0x20\n        /* \"#utility.yul\":27192:27193   */\n      dup2\n        /* \"#utility.yul\":27188:27198   */\n      add\n        /* \"#utility.yul\":27183:27198   */\n      swap1\n      pop\n        /* \"#utility.yul\":27159:27272   */\n      jump(tag_701)\n    tag_703:\n        /* \"#utility.yul\":27290:27296   */\n      dup4\n        /* \"#utility.yul\":27287:27288   */\n      dup2\n        /* \"#utility.yul\":27284:27297   */\n      gt\n        /* \"#utility.yul\":27281:27382   */\n      iszero\n      tag_704\n      jumpi\n        /* \"#utility.yul\":27370:27371   */\n      0x00\n        /* \"#utility.yul\":27361:27367   */\n      dup5\n        /* \"#utility.yul\":27356:27359   */\n      dup5\n        /* \"#utility.yul\":27352:27368   */\n      add\n        /* \"#utility.yul\":27345:27372   */\n      mstore\n        /* \"#utility.yul\":27281:27382   */\n    tag_704:\n        /* \"#utility.yul\":27130:27388   */\n      pop\n        /* \"#utility.yul\":27081:27388   */\n      pop\n      pop\n      pop\n      jump\t// out\n        /* \"#utility.yul\":27394:27714   */\n    tag_119:\n        /* \"#utility.yul\":27438:27444   */\n      0x00\n        /* \"#utility.yul\":27475:27476   */\n      0x02\n        /* \"#utility.yul\":27469:27473   */\n      dup3\n        /* \"#utility.yul\":27465:27477   */\n      div\n        /* \"#utility.yul\":27455:27477   */\n      swap1\n      pop\n        /* \"#utility.yul\":27522:27523   */\n      0x01\n        /* \"#utility.yul\":27516:27520   */\n      dup3\n        /* \"#utility.yul\":27512:27524   */\n      and\n        /* \"#utility.yul\":27543:27561   */\n      dup1\n        /* \"#utility.yul\":27533:27614   */\n      tag_706\n      jumpi\n        /* \"#utility.yul\":27599:27603   */\n      0x7f\n        /* \"#utility.yul\":27591:27597   */\n      dup3\n        /* \"#utility.yul\":27587:27604   */\n      and\n        /* \"#utility.yul\":27577:27604   */\n      swap2\n      pop\n        /* \"#utility.yul\":27533:27614   */\n    tag_706:\n        /* \"#utility.yul\":27661:27663   */\n      0x20\n        /* \"#utility.yul\":27653:27659   */\n      dup3\n        /* \"#utility.yul\":27650:27664   */\n      lt\n        /* \"#utility.yul\":27630:27648   */\n      dup2\n        /* \"#utility.yul\":27627:27665   */\n      eq\n        /* \"#utility.yul\":27624:27708   */\n      iszero\n      tag_707\n      jumpi\n        /* \"#utility.yul\":27680:27698   */\n      tag_708\n      tag_709\n      jump\t// in\n    tag_708:\n        /* \"#utility.yul\":27624:27708   */\n    tag_707:\n        /* \"#utility.yul\":27445:27714   */\n      pop\n        /* \"#utility.yul\":27394:27714   */\n      swap2\n      swap1\n      pop\n      jump\t// out\n        /* \"#utility.yul\":27720:28001   */\n    tag_669:\n        /* \"#utility.yul\":27803:27830   */\n      tag_711\n        /* \"#utility.yul\":27825:27829   */\n      dup3\n        /* \"#utility.yul\":27803:27830   */\n      tag_507\n      jump\t// in\n    tag_711:\n        /* \"#utility.yul\":27795:27801   */\n      dup2\n        /* \"#utility.yul\":27791:27831   */\n      add\n        /* \"#utility.yul\":27933:27939   */\n      dup2\n        /* \"#utility.yul\":27921:27931   */\n      dup2\n        /* \"#utility.yul\":27918:27940   */\n      lt\n        /* \"#utility.yul\":27897:27915   */\n      0xffffffffffffffff\n        /* \"#utility.yul\":27885:27895   */\n      dup3\n        /* \"#utility.yul\":27882:27916   */\n      gt\n        /* \"#utility.yul\":27879:27941   */\n      or\n        /* \"#utility.yul\":27876:27964   */\n      iszero\n      tag_712\n      jumpi\n        /* \"#utility.yul\":27944:27962   */\n      tag_713\n      tag_152\n      jump\t// in\n    tag_713:\n        /* \"#utility.yul\":27876:27964   */\n    tag_712:\n        /* \"#utility.yul\":27984:27994   */\n      dup1\n        /* \"#utility.yul\":27980:27982   */\n      0x40\n        /* \"#utility.yul\":27973:27995   */\n      mstore\n        /* \"#utility.yul\":27763:28001   */\n      pop\n        /* \"#utility.yul\":27720:28001   */\n      pop\n      pop\n      jump\t// out\n        /* \"#utility.yul\":28007:28187   */\n    tag_688:\n        /* \"#utility.yul\":28055:28132   */\n      0x4e487b7100000000000000000000000000000000000000000000000000000000\n        /* \"#utility.yul\":28052:28053   */\n      0x00\n        /* \"#utility.yul\":28045:28133   */\n      mstore\n        /* \"#utility.yul\":28152:28156   */\n      0x11\n        /* \"#utility.yul\":28149:28150   */\n      0x04\n        /* \"#utility.yul\":28142:28157   */\n      mstore\n        /* \"#utility.yul\":28176:28180   */\n      0x24\n        /* \"#utility.yul\":28173:28174   */\n      0x00\n        /* \"#utility.yul\":28166:28181   */\n      revert\n        /* \"#utility.yul\":28193:28373   */\n    tag_709:\n        /* \"#utility.yul\":28241:28318   */\n      0x4e487b7100000000000000000000000000000000000000000000000000000000\n        /* \"#utility.yul\":28238:28239   */\n      0x00\n        /* \"#utility.yul\":28231:28319   */\n      mstore\n        /* \"#utility.yul\":28338:28342   */\n      0x22\n        /* \"#utility.yul\":28335:28336   */\n      0x04\n        /* \"#utility.yul\":28328:28343   */\n      mstore\n        /* \"#utility.yul\":28362:28366   */\n      0x24\n        /* \"#utility.yul\":28359:28360   */\n      0x00\n        /* \"#utility.yul\":28352:28367   */\n      revert\n        /* \"#utility.yul\":28379:28559   */\n    tag_152:\n        /* \"#utility.yul\":28427:28504   */\n      0x4e487b7100000000000000000000000000000000000000000000000000000000\n        /* \"#utility.yul\":28424:28425   */\n      0x00\n        /* \"#utility.yul\":28417:28505   */\n      mstore\n        /* \"#utility.yul\":28524:28528   */\n      0x41\n        /* \"#utility.yul\":28521:28522   */\n      0x04\n        /* \"#utility.yul\":28514:28529   */\n      mstore\n        /* \"#utility.yul\":28548:28552   */\n      0x24\n        /* \"#utility.yul\":28545:28546   */\n      0x00\n        /* \"#utility.yul\":28538:28553   */\n      revert\n        /* \"#utility.yul\":28565:28682   */\n    tag_421:\n        /* \"#utility.yul\":28674:28675   */\n      0x00\n        /* \"#utility.yul\":28671:28672   */\n      dup1\n        /* \"#utility.yul\":28664:28676   */\n      revert\n        /* \"#utility.yul\":28688:28805   */\n    tag_398:\n        /* \"#utility.yul\":28797:28798   */\n      0x00\n        /* \"#utility.yul\":28794:28795   */\n      dup1\n        /* \"#utility.yul\":28787:28799   */\n      revert\n        /* \"#utility.yul\":28811:28928   */\n    tag_454:\n        /* \"#utility.yul\":28920:28921   */\n      0x00\n        /* \"#utility.yul\":28917:28918   */\n      dup1\n        /* \"#utility.yul\":28910:28922   */\n      revert\n        /* \"#utility.yul\":28934:29051   */\n    tag_435:\n        /* \"#utility.yul\":29043:29044   */\n      0x00\n        /* \"#utility.yul\":29040:29041   */\n      dup1\n        /* \"#utility.yul\":29033:29045   */\n      revert\n        /* \"#utility.yul\":29057:29159   */\n    tag_507:\n        /* \"#utility.yul\":29098:29104   */\n      0x00\n        /* \"#utility.yul\":29149:29151   */\n      0x1f\n        /* \"#utility.yul\":29145:29152   */\n      not\n        /* \"#utility.yul\":29140:29142   */\n      0x1f\n        /* \"#utility.yul\":29133:29138   */\n      dup4\n        /* \"#utility.yul\":29129:29143   */\n      add\n        /* \"#utility.yul\":29125:29153   */\n      and\n        /* \"#utility.yul\":29115:29153   */\n      swap1\n      pop\n        /* \"#utility.yul\":29057:29159   */\n      swap2\n      swap1\n      pop\n      jump\t// out\n        /* \"#utility.yul\":29165:29387   */\n    tag_512:\n        /* \"#utility.yul\":29305:29339   */\n      0x45524332303a207472616e7366657220746f20746865207a65726f2061646472\n        /* \"#utility.yul\":29301:29302   */\n      0x00\n        /* \"#utility.yul\":29293:29299   */\n      dup3\n        /* \"#utility.yul\":29289:29303   */\n      add\n        /* \"#utility.yul\":29282:29340   */\n      mstore\n        /* \"#utility.yul\":29374:29379   */\n      0x6573730000000000000000000000000000000000000000000000000000000000\n        /* \"#utility.yul\":29369:29371   */\n      0x20\n        /* \"#utility.yul\":29361:29367   */\n      dup3\n        /* \"#utility.yul\":29357:29372   */\n      add\n        /* \"#utility.yul\":29350:29380   */\n      mstore\n        /* \"#utility.yul\":29165:29387   */\n      pop\n      jump\t// out\n        /* \"#utility.yul\":29393:29618   */\n    tag_517:\n        /* \"#utility.yul\":29533:29567   */\n      0x4f776e61626c653a206e6577206f776e657220697320746865207a65726f2061\n        /* \"#utility.yul\":29529:29530   */\n      0x00\n        /* \"#utility.yul\":29521:29527   */\n      dup3\n        /* \"#utility.yul\":29517:29531   */\n      add\n        /* \"#utility.yul\":29510:29568   */\n      mstore\n        /* \"#utility.yul\":29602:29610   */\n      0x6464726573730000000000000000000000000000000000000000000000000000\n        /* \"#utility.yul\":29597:29599   */\n      0x20\n        /* \"#utility.yul\":29589:29595   */\n      dup3\n        /* \"#utility.yul\":29585:29600   */\n      add\n        /* \"#utility.yul\":29578:29611   */\n      mstore\n        /* \"#utility.yul\":29393:29618   */\n      pop\n      jump\t// out\n        /* \"#utility.yul\":29624:29845   */\n    tag_522:\n        /* \"#utility.yul\":29764:29798   */\n      0x45524332303a20617070726f766520746f20746865207a65726f206164647265\n        /* \"#utility.yul\":29760:29761   */\n      0x00\n        /* \"#utility.yul\":29752:29758   */\n      dup3\n        /* \"#utility.yul\":29748:29762   */\n      add\n        /* \"#utility.yul\":29741:29799   */\n      mstore\n        /* \"#utility.yul\":29833:29837   */\n      0x7373000000000000000000000000000000000000000000000000000000000000\n        /* \"#utility.yul\":29828:29830   */\n      0x20\n        /* \"#utility.yul\":29820:29826   */\n      dup3\n        /* \"#utility.yul\":29816:29831   */\n      add\n        /* \"#utility.yul\":29809:29838   */\n      mstore\n        /* \"#utility.yul\":29624:29845   */\n      pop\n      jump\t// out\n        /* \"#utility.yul\":29851:30082   */\n    tag_527:\n        /* \"#utility.yul\":29991:30025   */\n      0x46756e6374696f6e206d7573742062652063616c6c6564207468726f75676820\n        /* \"#utility.yul\":29987:29988   */\n      0x00\n        /* \"#utility.yul\":29979:29985   */\n      dup3\n        /* \"#utility.yul\":29975:29989   */\n      add\n        /* \"#utility.yul\":29968:30026   */\n      mstore\n        /* \"#utility.yul\":30060:30074   */\n      0x64656c656761746563616c6c0000000000000000000000000000000000000000\n        /* \"#utility.yul\":30055:30057   */\n      0x20\n        /* \"#utility.yul\":30047:30053   */\n      dup3\n        /* \"#utility.yul\":30043:30058   */\n      add\n        /* \"#utility.yul\":30036:30075   */\n      mstore\n        /* \"#utility.yul\":29851:30082   */\n      pop\n      jump\t// out\n        /* \"#utility.yul\":30088:30267   */\n    tag_532:\n        /* \"#utility.yul\":30228:30259   */\n      0x45524332303a20696e73756666696369656e7420616c6c6f77616e6365000000\n        /* \"#utility.yul\":30224:30225   */\n      0x00\n        /* \"#utility.yul\":30216:30222   */\n      dup3\n        /* \"#utility.yul\":30212:30226   */\n      add\n        /* \"#utility.yul\":30205:30260   */\n      mstore\n        /* \"#utility.yul\":30088:30267   */\n      pop\n      jump\t// out\n        /* \"#utility.yul\":30273:30498   */\n    tag_537:\n        /* \"#utility.yul\":30413:30447   */\n      0x45524332303a207472616e7366657220616d6f756e7420657863656564732062\n        /* \"#utility.yul\":30409:30410   */\n      0x00\n        /* \"#utility.yul\":30401:30407   */\n      dup3\n        /* \"#utility.yul\":30397:30411   */\n      add\n        /* \"#utility.yul\":30390:30448   */\n      mstore\n        /* \"#utility.yul\":30482:30490   */\n      0x616c616e63650000000000000000000000000000000000000000000000000000\n        /* \"#utility.yul\":30477:30479   */\n      0x20\n        /* \"#utility.yul\":30469:30475   */\n      dup3\n        /* \"#utility.yul\":30465:30480   */\n      add\n        /* \"#utility.yul\":30458:30491   */\n      mstore\n        /* \"#utility.yul\":30273:30498   */\n      pop\n      jump\t// out\n        /* \"#utility.yul\":30504:30735   */\n    tag_542:\n        /* \"#utility.yul\":30644:30678   */\n      0x46756e6374696f6e206d7573742062652063616c6c6564207468726f75676820\n        /* \"#utility.yul\":30640:30641   */\n      0x00\n        /* \"#utility.yul\":30632:30638   */\n      dup3\n        /* \"#utility.yul\":30628:30642   */\n      add\n        /* \"#utility.yul\":30621:30679   */\n      mstore\n        /* \"#utility.yul\":30713:30727   */\n      0x6163746976652070726f78790000000000000000000000000000000000000000\n        /* \"#utility.yul\":30708:30710   */\n      0x20\n        /* \"#utility.yul\":30700:30706   */\n      dup3\n        /* \"#utility.yul\":30696:30711   */\n      add\n        /* \"#utility.yul\":30689:30728   */\n      mstore\n        /* \"#utility.yul\":30504:30735   */\n      pop\n      jump\t// out\n        /* \"#utility.yul\":30741:30984   */\n    tag_547:\n        /* \"#utility.yul\":30881:30915   */\n      0x555550535570677261646561626c653a206d757374206e6f742062652063616c\n        /* \"#utility.yul\":30877:30878   */\n      0x00\n        /* \"#utility.yul\":30869:30875   */\n      dup3\n        /* \"#utility.yul\":30865:30879   */\n      add\n        /* \"#utility.yul\":30858:30916   */\n      mstore\n        /* \"#utility.yul\":30950:30976   */\n      0x6c6564207468726f7567682064656c656761746563616c6c0000000000000000\n        /* \"#utility.yul\":30945:30947   */\n      0x20\n        /* \"#utility.yul\":30937:30943   */\n      dup3\n        /* \"#utility.yul\":30933:30948   */\n      add\n        /* \"#utility.yul\":30926:30977   */\n      mstore\n        /* \"#utility.yul\":30741:30984   */\n      pop\n      jump\t// out\n        /* \"#utility.yul\":30990:31218   */\n    tag_552:\n        /* \"#utility.yul\":31130:31164   */\n      0x45524331393637557067726164653a20756e737570706f727465642070726f78\n        /* \"#utility.yul\":31126:31127   */\n      0x00\n        /* \"#utility.yul\":31118:31124   */\n      dup3\n        /* \"#utility.yul\":31114:31128   */\n      add\n        /* \"#utility.yul\":31107:31165   */\n      mstore\n        /* \"#utility.yul\":31199:31210   */\n      0x6961626c65555549440000000000000000000000000000000000000000000000\n        /* \"#utility.yul\":31194:31196   */\n      0x20\n        /* \"#utility.yul\":31186:31192   */\n      dup3\n        /* \"#utility.yul\":31182:31197   */\n      add\n        /* \"#utility.yul\":31175:31211   */\n      mstore\n        /* \"#utility.yul\":30990:31218   */\n      pop\n      jump\t// out\n        /* \"#utility.yul\":31224:31457   */\n    tag_557:\n        /* \"#utility.yul\":31364:31398   */\n      0x496e697469616c697a61626c653a20636f6e747261637420697320616c726561\n        /* \"#utility.yul\":31360:31361   */\n      0x00\n        /* \"#utility.yul\":31352:31358   */\n      dup3\n        /* \"#utility.yul\":31348:31362   */\n      add\n        /* \"#utility.yul\":31341:31399   */\n      mstore\n        /* \"#utility.yul\":31433:31449   */\n      0x647920696e697469616c697a6564000000000000000000000000000000000000\n        /* \"#utility.yul\":31428:31430   */\n      0x20\n        /* \"#utility.yul\":31420:31426   */\n      dup3\n        /* \"#utility.yul\":31416:31431   */\n      add\n        /* \"#utility.yul\":31409:31450   */\n      mstore\n        /* \"#utility.yul\":31224:31457   */\n      pop\n      jump\t// out\n        /* \"#utility.yul\":31463:31696   */\n    tag_562:\n        /* \"#utility.yul\":31603:31637   */\n      0x45524331393637557067726164653a206e657720696d706c656d656e74617469\n        /* \"#utility.yul\":31599:31600   */\n      0x00\n        /* \"#utility.yul\":31591:31597   */\n      dup3\n        /* \"#utility.yul\":31587:31601   */\n      add\n        /* \"#utility.yul\":31580:31638   */\n      mstore\n        /* \"#utility.yul\":31672:31688   */\n      0x6f6e206973206e6f742055555053000000000000000000000000000000000000\n        /* \"#utility.yul\":31667:31669   */\n      0x20\n        /* \"#utility.yul\":31659:31665   */\n      dup3\n        /* \"#utility.yul\":31655:31670   */\n      add\n        /* \"#utility.yul\":31648:31689   */\n      mstore\n        /* \"#utility.yul\":31463:31696   */\n      pop\n      jump\t// out\n        /* \"#utility.yul\":31702:31934   */\n    tag_567:\n        /* \"#utility.yul\":31842:31876   */\n      0x455243313936373a206e657720696d706c656d656e746174696f6e206973206e\n        /* \"#utility.yul\":31838:31839   */\n      0x00\n        /* \"#utility.yul\":31830:31836   */\n      dup3\n        /* \"#utility.yul\":31826:31840   */\n      add\n        /* \"#utility.yul\":31819:31877   */\n      mstore\n        /* \"#utility.yul\":31911:31926   */\n      0x6f74206120636f6e747261637400000000000000000000000000000000000000\n        /* \"#utility.yul\":31906:31908   */\n      0x20\n        /* \"#utility.yul\":31898:31904   */\n      dup3\n        /* \"#utility.yul\":31894:31909   */\n      add\n        /* \"#utility.yul\":31887:31927   */\n      mstore\n        /* \"#utility.yul\":31702:31934   */\n      pop\n      jump\t// out\n        /* \"#utility.yul\":31940:32122   */\n    tag_572:\n        /* \"#utility.yul\":32080:32114   */\n      0x4f776e61626c653a2063616c6c6572206973206e6f7420746865206f776e6572\n        /* \"#utility.yul\":32076:32077   */\n      0x00\n        /* \"#utility.yul\":32068:32074   */\n      dup3\n        /* \"#utility.yul\":32064:32078   */\n      add\n        /* \"#utility.yul\":32057:32115   */\n      mstore\n        /* \"#utility.yul\":31940:32122   */\n      pop\n      jump\t// out\n        /* \"#utility.yul\":32128:32353   */\n    tag_577:\n        /* \"#utility.yul\":32268:32302   */\n      0x416464726573733a2064656c65676174652063616c6c20746f206e6f6e2d636f\n        /* \"#utility.yul\":32264:32265   */\n      0x00\n        /* \"#utility.yul\":32256:32262   */\n      dup3\n        /* \"#utility.yul\":32252:32266   */\n      add\n        /* \"#utility.yul\":32245:32303   */\n      mstore\n        /* \"#utility.yul\":32337:32345   */\n      0x6e74726163740000000000000000000000000000000000000000000000000000\n        /* \"#utility.yul\":32332:32334   */\n      0x20\n        /* \"#utility.yul\":32324:32330   */\n      dup3\n        /* \"#utility.yul\":32320:32335   */\n      add\n        /* \"#utility.yul\":32313:32346   */\n      mstore\n        /* \"#utility.yul\":32128:32353   */\n      pop\n      jump\t// out\n        /* \"#utility.yul\":32359:32583   */\n    tag_582:\n        /* \"#utility.yul\":32499:32533   */\n      0x45524332303a207472616e736665722066726f6d20746865207a65726f206164\n        /* \"#utility.yul\":32495:32496   */\n      0x00\n        /* \"#utility.yul\":32487:32493   */\n      dup3\n        /* \"#utility.yul\":32483:32497   */\n      add\n        /* \"#utility.yul\":32476:32534   */\n      mstore\n        /* \"#utility.yul\":32568:32575   */\n      0x6472657373000000000000000000000000000000000000000000000000000000\n        /* \"#utility.yul\":32563:32565   */\n      0x20\n        /* \"#utility.yul\":32555:32561   */\n      dup3\n        /* \"#utility.yul\":32551:32566   */\n      add\n        /* \"#utility.yul\":32544:32576   */\n      mstore\n        /* \"#utility.yul\":32359:32583   */\n      pop\n      jump\t// out\n        /* \"#utility.yul\":32589:32812   */\n    tag_587:\n        /* \"#utility.yul\":32729:32763   */\n      0x45524332303a20617070726f76652066726f6d20746865207a65726f20616464\n        /* \"#utility.yul\":32725:32726   */\n      0x00\n        /* \"#utility.yul\":32717:32723   */\n      dup3\n        /* \"#utility.yul\":32713:32727   */\n      add\n        /* \"#utility.yul\":32706:32764   */\n      mstore\n        /* \"#utility.yul\":32798:32804   */\n      0x7265737300000000000000000000000000000000000000000000000000000000\n        /* \"#utility.yul\":32793:32795   */\n      0x20\n        /* \"#utility.yul\":32785:32791   */\n      dup3\n        /* \"#utility.yul\":32781:32796   */\n      add\n        /* \"#utility.yul\":32774:32805   */\n      mstore\n        /* \"#utility.yul\":32589:32812   */\n      pop\n      jump\t// out\n        /* \"#utility.yul\":32818:33048   */\n    tag_592:\n        /* \"#utility.yul\":32958:32992   */\n      0x496e697469616c697a61626c653a20636f6e7472616374206973206e6f742069\n        /* \"#utility.yul\":32954:32955   */\n      0x00\n        /* \"#utility.yul\":32946:32952   */\n      dup3\n        /* \"#utility.yul\":32942:32956   */\n      add\n        /* \"#utility.yul\":32935:32993   */\n      mstore\n        /* \"#utility.yul\":33027:33040   */\n      0x6e697469616c697a696e67000000000000000000000000000000000000000000\n        /* \"#utility.yul\":33022:33024   */\n      0x20\n        /* \"#utility.yul\":33014:33020   */\n      dup3\n        /* \"#utility.yul\":33010:33025   */\n      add\n        /* \"#utility.yul\":33003:33041   */\n      mstore\n        /* \"#utility.yul\":32818:33048   */\n      pop\n      jump\t// out\n        /* \"#utility.yul\":33054:33278   */\n    tag_597:\n        /* \"#utility.yul\":33194:33228   */\n      0x45524332303a2064656372656173656420616c6c6f77616e63652062656c6f77\n        /* \"#utility.yul\":33190:33191   */\n      0x00\n        /* \"#utility.yul\":33182:33188   */\n      dup3\n        /* \"#utility.yul\":33178:33192   */\n      add\n        /* \"#utility.yul\":33171:33229   */\n      mstore\n        /* \"#utility.yul\":33263:33270   */\n      0x207a65726f000000000000000000000000000000000000000000000000000000\n        /* \"#utility.yul\":33258:33260   */\n      0x20\n        /* \"#utility.yul\":33250:33256   */\n      dup3\n        /* \"#utility.yul\":33246:33261   */\n      add\n        /* \"#utility.yul\":33239:33271   */\n      mstore\n        /* \"#utility.yul\":33054:33278   */\n      pop\n      jump\t// out\n        /* \"#utility.yul\":33284:33465   */\n    tag_602:\n        /* \"#utility.yul\":33424:33457   */\n      0x45524332303a206d696e7420746f20746865207a65726f206164647265737300\n        /* \"#utility.yul\":33420:33421   */\n      0x00\n        /* \"#utility.yul\":33412:33418   */\n      dup3\n        /* \"#utility.yul\":33408:33422   */\n      add\n        /* \"#utility.yul\":33401:33458   */\n      mstore\n        /* \"#utility.yul\":33284:33465   */\n      pop\n      jump\t// out\n        /* \"#utility.yul\":33471:33593   */\n    tag_412:\n        /* \"#utility.yul\":33544:33568   */\n      tag_742\n        /* \"#utility.yul\":33562:33567   */\n      dup2\n        /* \"#utility.yul\":33544:33568   */\n      tag_478\n      jump\t// in\n    tag_742:\n        /* \"#utility.yul\":33537:33542   */\n      dup2\n        /* \"#utility.yul\":33534:33569   */\n      eq\n        /* \"#utility.yul\":33524:33587   */\n      tag_743\n      jumpi\n        /* \"#utility.yul\":33583:33584   */\n      0x00\n        /* \"#utility.yul\":33580:33581   */\n      dup1\n        /* \"#utility.yul\":33573:33585   */\n      revert\n        /* \"#utility.yul\":33524:33587   */\n    tag_743:\n        /* \"#utility.yul\":33471:33593   */\n      pop\n      jump\t// out\n        /* \"#utility.yul\":33599:33721   */\n    tag_416:\n        /* \"#utility.yul\":33672:33696   */\n      tag_745\n        /* \"#utility.yul\":33690:33695   */\n      dup2\n        /* \"#utility.yul\":33672:33696   */\n      tag_486\n      jump\t// in\n    tag_745:\n        /* \"#utility.yul\":33665:33670   */\n      dup2\n        /* \"#utility.yul\":33662:33697   */\n      eq\n        /* \"#utility.yul\":33652:33715   */\n      tag_746\n      jumpi\n        /* \"#utility.yul\":33711:33712   */\n      0x00\n        /* \"#utility.yul\":33708:33709   */\n      dup1\n        /* \"#utility.yul\":33701:33713   */\n      revert\n        /* \"#utility.yul\":33652:33715   */\n    tag_746:\n        /* \"#utility.yul\":33599:33721   */\n      pop\n      jump\t// out\n        /* \"#utility.yul\":33727:33849   */\n    tag_431:\n        /* \"#utility.yul\":33800:33824   */\n      tag_748\n        /* \"#utility.yul\":33818:33823   */\n      dup2\n        /* \"#utility.yul\":33800:33824   */\n      tag_606\n      jump\t// in\n    tag_748:\n        /* \"#utility.yul\":33793:33798   */\n      dup2\n        /* \"#utility.yul\":33790:33825   */\n      eq\n        /* \"#utility.yul\":33780:33843   */\n      tag_749\n      jumpi\n        /* \"#utility.yul\":33839:33840   */\n      0x00\n        /* \"#utility.yul\":33836:33837   */\n      dup1\n        /* \"#utility.yul\":33829:33841   */\n      revert\n        /* \"#utility.yul\":33780:33843   */\n    tag_749:\n        /* \"#utility.yul\":33727:33849   */\n      pop\n      jump\t// out\n    stop\n    data_9fdcd12e4b726339b32a442b0a448365d5d85c96b2d2cff917b4f66c63110398 416464726573733a206c6f772d6c6576656c2064656c65676174652063616c6c206661696c6564\n\n    auxdata: 0xa26469706673582212207bdbfdb0b9f1c173cdfcf54a256328819c4d518f2571d502acd66a236d0a559d64736f6c63430008070033\n}\n",
				"bytecode": {
					"linkReferences": {},
					"object": "60a06040523073ffffffffffffffffffffffffffffffffffffffff1660809073ffffffffffffffffffffffffffffffffffffffff1660601b8152503480156200004757600080fd5b50620000586200005e60201b60201c565b62000209565b600060019054906101000a900460ff1615620000b1576040517f08c379a0000000000000000000000000000000000000000000000000000000008152600401620000a8906200015d565b60405180910390fd5b60ff801660008054906101000a900460ff1660ff161015620001235760ff6000806101000a81548160ff021916908360ff1602179055507f7f26b83ff96e1f2b6a682f133852f6798a09c465da95921460cefb384740249860ff6040516200011a91906200017f565b60405180910390a15b565b6000620001346027836200019c565b91506200014182620001ba565b604082019050919050565b6200015781620001ad565b82525050565b60006020820190508181036000830152620001788162000125565b9050919050565b60006020820190506200019660008301846200014c565b92915050565b600082825260208201905092915050565b600060ff82169050919050565b7f496e697469616c697a61626c653a20636f6e747261637420697320696e69746960008201527f616c697a696e6700000000000000000000000000000000000000000000000000602082015250565b60805160601c612ed66200024460003960008181610596015281816106250152818161076c015281816107fb01526108ab0152612ed66000f3fe6080604052600436106101145760003560e01c806352d1902d116100a0578063a457c2d711610064578063a457c2d714610394578063a9059cbb146103d1578063b119490e1461040e578063dd62ed3e14610437578063f2fde38b1461047457610114565b806352d1902d146102bf57806370a08231146102ea578063715018a6146103275780638da5cb5b1461033e57806395d89b411461036957610114565b8063313ce567116100e7578063313ce567146101e95780633659cfe614610214578063395093511461023d57806340c10f191461027a5780634f1ef286146102a357610114565b806306fdde0314610119578063095ea7b31461014457806318160ddd1461018157806323b872dd146101ac575b600080fd5b34801561012557600080fd5b5061012e61049d565b60405161013b919061233a565b60405180910390f35b34801561015057600080fd5b5061016b60048036038101906101669190611e62565b61052f565b60405161017891906122e9565b60405180910390f35b34801561018d57600080fd5b50610196610552565b6040516101a391906125bc565b60405180910390f35b3480156101b857600080fd5b506101d360048036038101906101ce9190611db3565b61055c565b6040516101e091906122e9565b60405180910390f35b3480156101f557600080fd5b506101fe61058b565b60405161020b91906125d7565b60405180910390f35b34801561022057600080fd5b5061023b60048036038101906102369190611d46565b610594565b005b34801561024957600080fd5b50610264600480360381019061025f9190611e62565b61071d565b60405161027191906122e9565b60405180910390f35b34801561028657600080fd5b506102a1600480360381019061029c9190611e62565b610754565b005b6102bd60048036038101906102b89190611e06565b61076a565b005b3480156102cb57600080fd5b506102d46108a7565b6040516102e19190612304565b60405180910390f35b3480156102f657600080fd5b50610311600480360381019061030c9190611d46565b610960565b60405161031e91906125bc565b60405180910390f35b34801561033357600080fd5b5061033c6109a9565b005b34801561034a57600080fd5b506103536109bd565b60405161036091906122ce565b60405180910390f35b34801561037557600080fd5b5061037e6109e7565b60405161038b919061233a565b60405180910390f35b3480156103a057600080fd5b506103bb60048036038101906103b69190611e62565b610a79565b6040516103c891906122e9565b60405180910390f35b3480156103dd57600080fd5b506103f860048036038101906103f39190611e62565b610af0565b60405161040591906122e9565b60405180910390f35b34801561041a57600080fd5b5061043560048036038101906104309190611ecf565b610b13565b005b34801561044357600080fd5b5061045e60048036038101906104599190611d73565b610c70565b60405161046b91906125bc565b60405180910390f35b34801561048057600080fd5b5061049b60048036038101906104969190611d46565b610cf7565b005b6060603680546104ac906127b4565b80601f01602080910402602001604051908101604052809291908181526020018280546104d8906127b4565b80156105255780601f106104fa57610100808354040283529160200191610525565b820191906000526020600020905b81548152906001019060200180831161050857829003601f168201915b5050505050905090565b60008061053a610d7b565b9050610547818585610d83565b600191505092915050565b6000603554905090565b600080610567610d7b565b9050610574858285610f4e565b61057f858585610fda565b60019150509392505050565b60006012905090565b7f000000000000000000000000000000000000000000000000000000000000000073ffffffffffffffffffffffffffffffffffffffff163073ffffffffffffffffffffffffffffffffffffffff161415610623576040517f08c379a000000000000000000000000000000000000000000000000000000000815260040161061a906123bc565b60405180910390fd5b7f000000000000000000000000000000000000000000000000000000000000000073ffffffffffffffffffffffffffffffffffffffff16610662611255565b73ffffffffffffffffffffffffffffffffffffffff16146106b8576040517f08c379a00000000000000000000000000000000000000000000000000000000081526004016106af9061241c565b60405180910390fd5b6106c1816112ac565b61071a81600067ffffffffffffffff8111156106e0576106df612875565b5b6040519080825280601f01601f1916602001820160405280156107125781602001600182028036833780820191505090505b5060006112b7565b50565b600080610728610d7b565b905061074981858561073a8589610c70565b61074491906126ab565b610d83565b600191505092915050565b61075c611434565b61076682826114b2565b5050565b7f000000000000000000000000000000000000000000000000000000000000000073ffffffffffffffffffffffffffffffffffffffff163073ffffffffffffffffffffffffffffffffffffffff1614156107f9576040517f08c379a00000000000000000000000000000000000000000000000000000000081526004016107f0906123bc565b60405180910390fd5b7f000000000000000000000000000000000000000000000000000000000000000073ffffffffffffffffffffffffffffffffffffffff16610838611255565b73ffffffffffffffffffffffffffffffffffffffff161461088e576040517f08c379a00000000000000000000000000000000000000000000000000000000081526004016108859061241c565b60405180910390fd5b610897826112ac565b6108a3828260016112b7565b5050565b60007f000000000000000000000000000000000000000000000000000000000000000073ffffffffffffffffffffffffffffffffffffffff163073ffffffffffffffffffffffffffffffffffffffff1614610937576040517f08c379a000000000000000000000000000000000000000000000000000000000815260040161092e9061243c565b60405180910390fd5b7f360894a13ba1a3210667c828492db98dca3e2076cc3735a920a3ca505d382bbc60001b905090565b6000603360008373ffffffffffffffffffffffffffffffffffffffff1673ffffffffffffffffffffffffffffffffffffffff168152602001908152602001600020549050919050565b6109b1611434565b6109bb600061160a565b565b6000606560009054906101000a900473ffffffffffffffffffffffffffffffffffffffff16905090565b6060603780546109f6906127b4565b80601f0160208091040260200160405190810160405280929190818152602001828054610a22906127b4565b8015610a6f5780601f10610a4457610100808354040283529160200191610a6f565b820191906000526020600020905b815481529060010190602001808311610a5257829003601f168201915b5050505050905090565b600080610a84610d7b565b90506000610a928286610c70565b905083811015610ad7576040517f08c379a0000000000000000000000000000000000000000000000000000000008152600401610ace9061257c565b60405180910390fd5b610ae48286868403610d83565b60019250505092915050565b600080610afb610d7b565b9050610b08818585610fda565b600191505092915050565b60008060019054906101000a900460ff16159050808015610b445750600160008054906101000a900460ff1660ff16105b80610b715750610b53306116d0565b158015610b705750600160008054906101000a900460ff1660ff16145b5b610bb0576040517f08c379a0000000000000000000000000000000000000000000000000000000008152600401610ba79061247c565b60405180910390fd5b60016000806101000a81548160ff021916908360ff1602179055508015610bed576001600060016101000a81548160ff0219169083151502179055505b610bf784846116f3565b610bff611750565b610c076117a9565b610c1133836114b2565b8015610c6a5760008060016101000a81548160ff0219169083151502179055507f7f26b83ff96e1f2b6a682f133852f6798a09c465da95921460cefb38474024986001604051610c61919061231f565b60405180910390a15b50505050565b6000603460008473ffffffffffffffffffffffffffffffffffffffff1673ffffffffffffffffffffffffffffffffffffffff16815260200190815260200160002060008373ffffffffffffffffffffffffffffffffffffffff1673ffffffffffffffffffffffffffffffffffffffff16815260200190815260200160002054905092915050565b610cff611434565b600073ffffffffffffffffffffffffffffffffffffffff168173ffffffffffffffffffffffffffffffffffffffff161415610d6f576040517f08c379a0000000000000000000000000000000000000000000000000000000008152600401610d669061237c565b60405180910390fd5b610d788161160a565b50565b600033905090565b600073ffffffffffffffffffffffffffffffffffffffff168373ffffffffffffffffffffffffffffffffffffffff161415610df3576040517f08c379a0000000000000000000000000000000000000000000000000000000008152600401610dea9061253c565b60405180910390fd5b600073ffffffffffffffffffffffffffffffffffffffff168273ffffffffffffffffffffffffffffffffffffffff161415610e63576040517f08c379a0000000000000000000000000000000000000000000000000000000008152600401610e5a9061239c565b60405180910390fd5b80603460008573ffffffffffffffffffffffffffffffffffffffff1673ffffffffffffffffffffffffffffffffffffffff16815260200190815260200160002060008473ffffffffffffffffffffffffffffffffffffffff1673ffffffffffffffffffffffffffffffffffffffff168152602001908152602001600020819055508173ffffffffffffffffffffffffffffffffffffffff168373ffffffffffffffffffffffffffffffffffffffff167f8c5be1e5ebec7d5bd14f71427d1e84f3dd0314c0f7b2291e5b200ac8c7c3b92583604051610f4191906125bc565b60405180910390a3505050565b6000610f5a8484610c70565b90507fffffffffffffffffffffffffffffffffffffffffffffffffffffffffffffffff8114610fd45781811015610fc6576040517f08c379a0000000000000000000000000000000000000000000000000000000008152600401610fbd906123dc565b60405180910390fd5b610fd38484848403610d83565b5b50505050565b600073ffffffffffffffffffffffffffffffffffffffff168373ffffffffffffffffffffffffffffffffffffffff16141561104a576040517f08c379a00000000000000000000000000000000000000000000000000000000081526004016110419061251c565b60405180910390fd5b600073ffffffffffffffffffffffffffffffffffffffff168273ffffffffffffffffffffffffffffffffffffffff1614156110ba576040517f08c379a00000000000000000000000000000000000000000000000000000000081526004016110b19061235c565b60405180910390fd5b6110c58383836117fa565b6000603360008573ffffffffffffffffffffffffffffffffffffffff1673ffffffffffffffffffffffffffffffffffffffff1681526020019081526020016000205490508181101561114c576040517f08c379a0000000000000000000000000000000000000000000000000000000008152600401611143906123fc565b60405180910390fd5b818103603360008673ffffffffffffffffffffffffffffffffffffffff1673ffffffffffffffffffffffffffffffffffffffff1681526020019081526020016000208190555081603360008573ffffffffffffffffffffffffffffffffffffffff1673ffffffffffffffffffffffffffffffffffffffff168152602001908152602001600020600082825401925050819055508273ffffffffffffffffffffffffffffffffffffffff168473ffffffffffffffffffffffffffffffffffffffff167fddf252ad1be2c89b69c2b068fc378daa952ba7f163c4a11628f55a4df523b3ef8460405161123c91906125bc565b60405180910390a361124f8484846117ff565b50505050565b60006112837f360894a13ba1a3210667c828492db98dca3e2076cc3735a920a3ca505d382bbc60001b611804565b60000160009054906101000a900473ffffffffffffffffffffffffffffffffffffffff16905090565b6112b4611434565b50565b6112e37f4910fdfa16fed3260ed0e7147f7cc6da11a60208b5b9406d12a635614ffd914360001b61180e565b60000160009054906101000a900460ff16156113075761130283611818565b61142f565b8273ffffffffffffffffffffffffffffffffffffffff166352d1902d6040518163ffffffff1660e01b815260040160206040518083038186803b15801561134d57600080fd5b505afa92505050801561137e57506040513d601f19601f8201168201806040525081019061137b9190611ea2565b60015b6113bd576040517f08c379a00000000000000000000000000000000000000000000000000000000081526004016113b49061249c565b60405180910390fd5b7f360894a13ba1a3210667c828492db98dca3e2076cc3735a920a3ca505d382bbc60001b8114611422576040517f08c379a00000000000000000000000000000000000000000000000000000000081526004016114199061245c565b60405180910390fd5b5061142e8383836118d1565b5b505050565b61143c610d7b565b73ffffffffffffffffffffffffffffffffffffffff1661145a6109bd565b73ffffffffffffffffffffffffffffffffffffffff16146114b0576040517f08c379a00000000000000000000000000000000000000000000000000000000081526004016114a7906124dc565b60405180910390fd5b565b600073ffffffffffffffffffffffffffffffffffffffff168273ffffffffffffffffffffffffffffffffffffffff161415611522576040517f08c379a00000000000000000000000000000000000000000000000000000000081526004016115199061259c565b60405180910390fd5b61152e600083836117fa565b806035600082825461154091906126ab565b9250508190555080603360008473ffffffffffffffffffffffffffffffffffffffff1673ffffffffffffffffffffffffffffffffffffffff168152602001908152602001600020600082825401925050819055508173ffffffffffffffffffffffffffffffffffffffff16600073ffffffffffffffffffffffffffffffffffffffff167fddf252ad1be2c89b69c2b068fc378daa952ba7f163c4a11628f55a4df523b3ef836040516115f291906125bc565b60405180910390a3611606600083836117ff565b5050565b6000606560009054906101000a900473ffffffffffffffffffffffffffffffffffffffff16905081606560006101000a81548173ffffffffffffffffffffffffffffffffffffffff021916908373ffffffffffffffffffffffffffffffffffffffff1602179055508173ffffffffffffffffffffffffffffffffffffffff168173ffffffffffffffffffffffffffffffffffffffff167f8be0079c531659141344cd1fd0a4f28419497f9722a3daafe3b4186f6b6457e060405160405180910390a35050565b6000808273ffffffffffffffffffffffffffffffffffffffff163b119050919050565b600060019054906101000a900460ff16611742576040517f08c379a00000000000000000000000000000000000000000000000000000000081526004016117399061255c565b60405180910390fd5b61174c82826118fd565b5050565b600060019054906101000a900460ff1661179f576040517f08c379a00000000000000000000000000000000000000000000000000000000081526004016117969061255c565b60405180910390fd5b6117a761197e565b565b600060019054906101000a900460ff166117f8576040517f08c379a00000000000000000000000000000000000000000000000000000000081526004016117ef9061255c565b60405180910390fd5b565b505050565b505050565b6000819050919050565b6000819050919050565b611821816116d0565b611860576040517f08c379a0000000000000000000000000000000000000000000000000000000008152600401611857906124bc565b60405180910390fd5b8061188d7f360894a13ba1a3210667c828492db98dca3e2076cc3735a920a3ca505d382bbc60001b611804565b60000160006101000a81548173ffffffffffffffffffffffffffffffffffffffff021916908373ffffffffffffffffffffffffffffffffffffffff16021790555050565b6118da836119df565b6000825111806118e75750805b156118f8576118f68383611a2e565b505b505050565b600060019054906101000a900460ff1661194c576040517f08c379a00000000000000000000000000000000000000000000000000000000081526004016119439061255c565b60405180910390fd5b8160369080519060200190611962929190611b84565b508060379080519060200190611979929190611b84565b505050565b600060019054906101000a900460ff166119cd576040517f08c379a00000000000000000000000000000000000000000000000000000000081526004016119c49061255c565b60405180910390fd5b6119dd6119d8610d7b565b61160a565b565b6119e881611818565b8073ffffffffffffffffffffffffffffffffffffffff167fbc7cd75a20ee27fd9adebab32041f755214dbc6bffa90cc0225b39da2e5c2d3b60405160405180910390a250565b6060611a39836116d0565b611a78576040517f08c379a0000000000000000000000000000000000000000000000000000000008152600401611a6f906124fc565b60405180910390fd5b6000808473ffffffffffffffffffffffffffffffffffffffff1684604051611aa091906122b7565b600060405180830381855af49150503d8060008114611adb576040519150601f19603f3d011682016040523d82523d6000602084013e611ae0565b606091505b5091509150611b088282604051806060016040528060278152602001612e7a60279139611b12565b9250505092915050565b60608315611b2257829050611b2d565b611b2c8383611b34565b5b9392505050565b600082511115611b475781518083602001fd5b806040517f08c379a0000000000000000000000000000000000000000000000000000000008152600401611b7b919061233a565b60405180910390fd5b828054611b90906127b4565b90600052602060002090601f016020900481019282611bb25760008555611bf9565b82601f10611bcb57805160ff1916838001178555611bf9565b82800160010185558215611bf9579182015b82811115611bf8578251825591602001919060010190611bdd565b5b509050611c069190611c0a565b5090565b5b80821115611c23576000816000905550600101611c0b565b5090565b6000611c3a611c3584612617565b6125f2565b905082815260208101848484011115611c5657611c556128a9565b5b611c61848285612772565b509392505050565b6000611c7c611c7784612648565b6125f2565b905082815260208101848484011115611c9857611c976128a9565b5b611ca3848285612772565b509392505050565b600081359050611cba81612e34565b92915050565b600081519050611ccf81612e4b565b92915050565b600082601f830112611cea57611ce96128a4565b5b8135611cfa848260208601611c27565b91505092915050565b600082601f830112611d1857611d176128a4565b5b8135611d28848260208601611c69565b91505092915050565b600081359050611d4081612e62565b92915050565b600060208284031215611d5c57611d5b6128b3565b5b6000611d6a84828501611cab565b91505092915050565b60008060408385031215611d8a57611d896128b3565b5b6000611d9885828601611cab565b9250506020611da985828601611cab565b9150509250929050565b600080600060608486031215611dcc57611dcb6128b3565b5b6000611dda86828701611cab565b9350506020611deb86828701611cab565b9250506040611dfc86828701611d31565b9150509250925092565b60008060408385031215611e1d57611e1c6128b3565b5b6000611e2b85828601611cab565b925050602083013567ffffffffffffffff811115611e4c57611e4b6128ae565b5b611e5885828601611cd5565b9150509250929050565b60008060408385031215611e7957611e786128b3565b5b6000611e8785828601611cab565b9250506020611e9885828601611d31565b9150509250929050565b600060208284031215611eb857611eb76128b3565b5b6000611ec684828501611cc0565b91505092915050565b600080600060608486031215611ee857611ee76128b3565b5b600084013567ffffffffffffffff811115611f0657611f056128ae565b5b611f1286828701611d03565b935050602084013567ffffffffffffffff811115611f3357611f326128ae565b5b611f3f86828701611d03565b9250506040611f5086828701611d31565b9150509250925092565b611f6381612701565b82525050565b611f7281612713565b82525050565b611f818161271f565b82525050565b6000611f9282612679565b611f9c818561268f565b9350611fac818560208601612781565b80840191505092915050565b611fc181612760565b82525050565b6000611fd282612684565b611fdc818561269a565b9350611fec818560208601612781565b611ff5816128b8565b840191505092915050565b600061200d60238361269a565b9150612018826128c9565b604082019050919050565b600061203060268361269a565b915061203b82612918565b604082019050919050565b600061205360228361269a565b915061205e82612967565b604082019050919050565b6000612076602c8361269a565b9150612081826129b6565b604082019050919050565b6000612099601d8361269a565b91506120a482612a05565b602082019050919050565b60006120bc60268361269a565b91506120c782612a2e565b604082019050919050565b60006120df602c8361269a565b91506120ea82612a7d565b604082019050919050565b600061210260388361269a565b915061210d82612acc565b604082019050919050565b600061212560298361269a565b915061213082612b1b565b604082019050919050565b6000612148602e8361269a565b915061215382612b6a565b604082019050919050565b600061216b602e8361269a565b915061217682612bb9565b604082019050919050565b600061218e602d8361269a565b915061219982612c08565b604082019050919050565b60006121b160208361269a565b91506121bc82612c57565b602082019050919050565b60006121d460268361269a565b91506121df82612c80565b604082019050919050565b60006121f760258361269a565b915061220282612ccf565b604082019050919050565b600061221a60248361269a565b915061222582612d1e565b604082019050919050565b600061223d602b8361269a565b915061224882612d6d565b604082019050919050565b600061226060258361269a565b915061226b82612dbc565b604082019050919050565b6000612283601f8361269a565b915061228e82612e0b565b602082019050919050565b6122a281612749565b82525050565b6122b181612753565b82525050565b60006122c38284611f87565b915081905092915050565b60006020820190506122e36000830184611f5a565b92915050565b60006020820190506122fe6000830184611f69565b92915050565b60006020820190506123196000830184611f78565b92915050565b60006020820190506123346000830184611fb8565b92915050565b600060208201905081810360008301526123548184611fc7565b905092915050565b6000602082019050818103600083015261237581612000565b9050919050565b6000602082019050818103600083015261239581612023565b9050919050565b600060208201905081810360008301526123b581612046565b9050919050565b600060208201905081810360008301526123d581612069565b9050919050565b600060208201905081810360008301526123f58161208c565b9050919050565b60006020820190508181036000830152612415816120af565b9050919050565b60006020820190508181036000830152612435816120d2565b9050919050565b60006020820190508181036000830152612455816120f5565b9050919050565b6000602082019050818103600083015261247581612118565b9050919050565b600060208201905081810360008301526124958161213b565b9050919050565b600060208201905081810360008301526124b58161215e565b9050919050565b600060208201905081810360008301526124d581612181565b9050919050565b600060208201905081810360008301526124f5816121a4565b9050919050565b60006020820190508181036000830152612515816121c7565b9050919050565b60006020820190508181036000830152612535816121ea565b9050919050565b600060208201905081810360008301526125558161220d565b9050919050565b6000602082019050818103600083015261257581612230565b9050919050565b6000602082019050818103600083015261259581612253565b9050919050565b600060208201905081810360008301526125b581612276565b9050919050565b60006020820190506125d16000830184612299565b92915050565b60006020820190506125ec60008301846122a8565b92915050565b60006125fc61260d565b905061260882826127e6565b919050565b6000604051905090565b600067ffffffffffffffff82111561263257612631612875565b5b61263b826128b8565b9050602081019050919050565b600067ffffffffffffffff82111561266357612662612875565b5b61266c826128b8565b9050602081019050919050565b600081519050919050565b600081519050919050565b600081905092915050565b600082825260208201905092915050565b60006126b682612749565b91506126c183612749565b9250827fffffffffffffffffffffffffffffffffffffffffffffffffffffffffffffffff038211156126f6576126f5612817565b5b828201905092915050565b600061270c82612729565b9050919050565b60008115159050919050565b6000819050919050565b600073ffffffffffffffffffffffffffffffffffffffff82169050919050565b6000819050919050565b600060ff82169050919050565b600061276b82612753565b9050919050565b82818337600083830152505050565b60005b8381101561279f578082015181840152602081019050612784565b838111156127ae576000848401525b50505050565b600060028204905060018216806127cc57607f821691505b602082108114156127e0576127df612846565b5b50919050565b6127ef826128b8565b810181811067ffffffffffffffff8211171561280e5761280d612875565b5b80604052505050565b7f4e487b7100000000000000000000000000000000000000000000000000000000600052601160045260246000fd5b7f4e487b7100000000000000000000000000000000000000000000000000000000600052602260045260246000fd5b7f4e487b7100000000000000000000000000000000000000000000000000000000600052604160045260246000fd5b600080fd5b600080fd5b600080fd5b600080fd5b6000601f19601f8301169050919050565b7f45524332303a207472616e7366657220746f20746865207a65726f206164647260008201527f6573730000000000000000000000000000000000000000000000000000000000602082015250565b7f4f776e61626c653a206e6577206f776e657220697320746865207a65726f206160008201527f6464726573730000000000000000000000000000000000000000000000000000602082015250565b7f45524332303a20617070726f766520746f20746865207a65726f20616464726560008201527f7373000000000000000000000000000000000000000000000000000000000000602082015250565b7f46756e6374696f6e206d7573742062652063616c6c6564207468726f7567682060008201527f64656c656761746563616c6c0000000000000000000000000000000000000000602082015250565b7f45524332303a20696e73756666696369656e7420616c6c6f77616e6365000000600082015250565b7f45524332303a207472616e7366657220616d6f756e742065786365656473206260008201527f616c616e63650000000000000000000000000000000000000000000000000000602082015250565b7f46756e6374696f6e206d7573742062652063616c6c6564207468726f7567682060008201527f6163746976652070726f78790000000000000000000000000000000000000000602082015250565b7f555550535570677261646561626c653a206d757374206e6f742062652063616c60008201527f6c6564207468726f7567682064656c656761746563616c6c0000000000000000602082015250565b7f45524331393637557067726164653a20756e737570706f727465642070726f7860008201527f6961626c65555549440000000000000000000000000000000000000000000000602082015250565b7f496e697469616c697a61626c653a20636f6e747261637420697320616c72656160008201527f647920696e697469616c697a6564000000000000000000000000000000000000602082015250565b7f45524331393637557067726164653a206e657720696d706c656d656e7461746960008201527f6f6e206973206e6f742055555053000000000000000000000000000000000000602082015250565b7f455243313936373a206e657720696d706c656d656e746174696f6e206973206e60008201527f6f74206120636f6e747261637400000000000000000000000000000000000000602082015250565b7f4f776e61626c653a2063616c6c6572206973206e6f7420746865206f776e6572600082015250565b7f416464726573733a2064656c65676174652063616c6c20746f206e6f6e2d636f60008201527f6e74726163740000000000000000000000000000000000000000000000000000602082015250565b7f45524332303a207472616e736665722066726f6d20746865207a65726f20616460008201527f6472657373000000000000000000000000000000000000000000000000000000602082015250565b7f45524332303a20617070726f76652066726f6d20746865207a65726f2061646460008201527f7265737300000000000000000000000000000000000000000000000000000000602082015250565b7f496e697469616c697a61626c653a20636f6e7472616374206973206e6f74206960008201527f6e697469616c697a696e67000000000000000000000000000000000000000000602082015250565b7f45524332303a2064656372656173656420616c6c6f77616e63652062656c6f7760008201527f207a65726f000000000000000000000000000000000000000000000000000000602082015250565b7f45524332303a206d696e7420746f20746865207a65726f206164647265737300600082015250565b612e3d81612701565b8114612e4857600080fd5b50565b612e548161271f565b8114612e5f57600080fd5b50565b612e6b81612749565b8114612e7657600080fd5b5056fe416464726573733a206c6f772d6c6576656c2064656c65676174652063616c6c206661696c6564a26469706673582212207bdbfdb0b9f1c173cdfcf54a256328819c4d518f2571d502acd66a236d0a559d64736f6c63430008070033",
					"opcodes": "PUSH1 0xA0 PUSH1 0x40 MSTORE ADDRESS PUSH20 0xFFFFFFFFFFFFFFFFFFFFFFFFFFFFFFFFFFFFFFFF AND PUSH1 0x80 SWAP1 PUSH20 0xFFFFFFFFFFFFFFFFFFFFFFFFFFFFFFFFFFFFFFFF AND PUSH1 0x60 SHL DUP2 MSTORE POP CALLVALUE DUP1 ISZERO PUSH3 0x47 JUMPI PUSH1 0x0 DUP1 REVERT JUMPDEST POP PUSH3 0x58 PUSH3 0x5E PUSH1 0x20 SHL PUSH1 0x20 SHR JUMP JUMPDEST PUSH3 0x209 JUMP JUMPDEST PUSH1 0x0 PUSH1 0x1 SWAP1 SLOAD SWAP1 PUSH2 0x100 EXP SWAP1 DIV PUSH1 0xFF AND ISZERO PUSH3 0xB1 JUMPI PUSH1 0x40 MLOAD PUSH32 0x8C379A000000000000000000000000000000000000000000000000000000000 DUP2 MSTORE PUSH1 0x4 ADD PUSH3 0xA8 SWAP1 PUSH3 0x15D JUMP JUMPDEST PUSH1 0x40 MLOAD DUP1 SWAP2 SUB SWAP1 REVERT JUMPDEST PUSH1 0xFF DUP1 AND PUSH1 0x0 DUP1 SLOAD SWAP1 PUSH2 0x100 EXP SWAP1 DIV PUSH1 0xFF AND PUSH1 0xFF AND LT ISZERO PUSH3 0x123 JUMPI PUSH1 0xFF PUSH1 0x0 DUP1 PUSH2 0x100 EXP DUP2 SLOAD DUP2 PUSH1 0xFF MUL NOT AND SWAP1 DUP4 PUSH1 0xFF AND MUL OR SWAP1 SSTORE POP PUSH32 0x7F26B83FF96E1F2B6A682F133852F6798A09C465DA95921460CEFB3847402498 PUSH1 0xFF PUSH1 0x40 MLOAD PUSH3 0x11A SWAP2 SWAP1 PUSH3 0x17F JUMP JUMPDEST PUSH1 0x40 MLOAD DUP1 SWAP2 SUB SWAP1 LOG1 JUMPDEST JUMP JUMPDEST PUSH1 0x0 PUSH3 0x134 PUSH1 0x27 DUP4 PUSH3 0x19C JUMP JUMPDEST SWAP2 POP PUSH3 0x141 DUP3 PUSH3 0x1BA JUMP JUMPDEST PUSH1 0x40 DUP3 ADD SWAP1 POP SWAP2 SWAP1 POP JUMP JUMPDEST PUSH3 0x157 DUP2 PUSH3 0x1AD JUMP JUMPDEST DUP3 MSTORE POP POP JUMP JUMPDEST PUSH1 0x0 PUSH1 0x20 DUP3 ADD SWAP1 POP DUP2 DUP2 SUB PUSH1 0x0 DUP4 ADD MSTORE PUSH3 0x178 DUP2 PUSH3 0x125 JUMP JUMPDEST SWAP1 POP SWAP2 SWAP1 POP JUMP JUMPDEST PUSH1 0x0 PUSH1 0x20 DUP3 ADD SWAP1 POP PUSH3 0x196 PUSH1 0x0 DUP4 ADD DUP5 PUSH3 0x14C JUMP JUMPDEST SWAP3 SWAP2 POP POP JUMP JUMPDEST PUSH1 0x0 DUP3 DUP3 MSTORE PUSH1 0x20 DUP3 ADD SWAP1 POP SWAP3 SWAP2 POP POP JUMP JUMPDEST PUSH1 0x0 PUSH1 0xFF DUP3 AND SWAP1 POP SWAP2 SWAP1 POP JUMP JUMPDEST PUSH32 0x496E697469616C697A61626C653A20636F6E747261637420697320696E697469 PUSH1 0x0 DUP3 ADD MSTORE PUSH32 0x616C697A696E6700000000000000000000000000000000000000000000000000 PUSH1 0x20 DUP3 ADD MSTORE POP JUMP JUMPDEST PUSH1 0x80 MLOAD PUSH1 0x60 SHR PUSH2 0x2ED6 PUSH3 0x244 PUSH1 0x0 CODECOPY PUSH1 0x0 DUP2 DUP2 PUSH2 0x596 ADD MSTORE DUP2 DUP2 PUSH2 0x625 ADD MSTORE DUP2 DUP2 PUSH2 0x76C ADD MSTORE DUP2 DUP2 PUSH2 0x7FB ADD MSTORE PUSH2 0x8AB ADD MSTORE PUSH2 0x2ED6 PUSH1 0x0 RETURN INVALID PUSH1 0x80 PUSH1 0x40 MSTORE PUSH1 0x4 CALLDATASIZE LT PUSH2 0x114 JUMPI PUSH1 0x0 CALLDATALOAD PUSH1 0xE0 SHR DUP1 PUSH4 0x52D1902D GT PUSH2 0xA0 JUMPI DUP1 PUSH4 0xA457C2D7 GT PUSH2 0x64 JUMPI DUP1 PUSH4 0xA457C2D7 EQ PUSH2 0x394 JUMPI DUP1 PUSH4 0xA9059CBB EQ PUSH2 0x3D1 JUMPI DUP1 PUSH4 0xB119490E EQ PUSH2 0x40E JUMPI DUP1 PUSH4 0xDD62ED3E EQ PUSH2 0x437 JUMPI DUP1 PUSH4 0xF2FDE38B EQ PUSH2 0x474 JUMPI PUSH2 0x114 JUMP JUMPDEST DUP1 PUSH4 0x52D1902D EQ PUSH2 0x2BF JUMPI DUP1 PUSH4 0x70A08231 EQ PUSH2 0x2EA JUMPI DUP1 PUSH4 0x715018A6 EQ PUSH2 0x327 JUMPI DUP1 PUSH4 0x8DA5CB5B EQ PUSH2 0x33E JUMPI DUP1 PUSH4 0x95D89B41 EQ PUSH2 0x369 JUMPI PUSH2 0x114 JUMP JUMPDEST DUP1 PUSH4 0x313CE567 GT PUSH2 0xE7 JUMPI DUP1 PUSH4 0x313CE567 EQ PUSH2 0x1E9 JUMPI DUP1 PUSH4 0x3659CFE6 EQ PUSH2 0x214 JUMPI DUP1 PUSH4 0x39509351 EQ PUSH2 0x23D JUMPI DUP1 PUSH4 0x40C10F19 EQ PUSH2 0x27A JUMPI DUP1 PUSH4 0x4F1EF286 EQ PUSH2 0x2A3 JUMPI PUSH2 0x114 JUMP JUMPDEST DUP1 PUSH4 0x6FDDE03 EQ PUSH2 0x119 JUMPI DUP1 PUSH4 0x95EA7B3 EQ PUSH2 0x144 JUMPI DUP1 PUSH4 0x18160DDD EQ PUSH2 0x181 JUMPI DUP1 PUSH4 0x23B872DD EQ PUSH2 0x1AC JUMPI JUMPDEST PUSH1 0x0 DUP1 REVERT JUMPDEST CALLVALUE DUP1 ISZERO PUSH2 0x125 JUMPI PUSH1 0x0 DUP1 REVERT JUMPDEST POP PUSH2 0x12E PUSH2 0x49D JUMP JUMPDEST PUSH1 0x40 MLOAD PUSH2 0x13B SWAP2 SWAP1 PUSH2 0x233A JUMP JUMPDEST PUSH1 0x40 MLOAD DUP1 SWAP2 SUB SWAP1 RETURN JUMPDEST CALLVALUE DUP1 ISZERO PUSH2 0x150 JUMPI PUSH1 0x0 DUP1 REVERT JUMPDEST POP PUSH2 0x16B PUSH1 0x4 DUP1 CALLDATASIZE SUB DUP2 ADD SWAP1 PUSH2 0x166 SWAP2 SWAP1 PUSH2 0x1E62 JUMP JUMPDEST PUSH2 0x52F JUMP JUMPDEST PUSH1 0x40 MLOAD PUSH2 0x178 SWAP2 SWAP1 PUSH2 0x22E9 JUMP JUMPDEST PUSH1 0x40 MLOAD DUP1 SWAP2 SUB SWAP1 RETURN JUMPDEST CALLVALUE DUP1 ISZERO PUSH2 0x18D JUMPI PUSH1 0x0 DUP1 REVERT JUMPDEST POP PUSH2 0x196 PUSH2 0x552 JUMP JUMPDEST PUSH1 0x40 MLOAD PUSH2 0x1A3 SWAP2 SWAP1 PUSH2 0x25BC JUMP JUMPDEST PUSH1 0x40 MLOAD DUP1 SWAP2 SUB SWAP1 RETURN JUMPDEST CALLVALUE DUP1 ISZERO PUSH2 0x1B8 JUMPI PUSH1 0x0 DUP1 REVERT JUMPDEST POP PUSH2 0x1D3 PUSH1 0x4 DUP1 CALLDATASIZE SUB DUP2 ADD SWAP1 PUSH2 0x1CE SWAP2 SWAP1 PUSH2 0x1DB3 JUMP JUMPDEST PUSH2 0x55C JUMP JUMPDEST PUSH1 0x40 MLOAD PUSH2 0x1E0 SWAP2 SWAP1 PUSH2 0x22E9 JUMP JUMPDEST PUSH1 0x40 MLOAD DUP1 SWAP2 SUB SWAP1 RETURN JUMPDEST CALLVALUE DUP1 ISZERO PUSH2 0x1F5 JUMPI PUSH1 0x0 DUP1 REVERT JUMPDEST POP PUSH2 0x1FE PUSH2 0x58B JUMP JUMPDEST PUSH1 0x40 MLOAD PUSH2 0x20B SWAP2 SWAP1 PUSH2 0x25D7 JUMP JUMPDEST PUSH1 0x40 MLOAD DUP1 SWAP2 SUB SWAP1 RETURN JUMPDEST CALLVALUE DUP1 ISZERO PUSH2 0x220 JUMPI PUSH1 0x0 DUP1 REVERT JUMPDEST POP PUSH2 0x23B PUSH1 0x4 DUP1 CALLDATASIZE SUB DUP2 ADD SWAP1 PUSH2 0x236 SWAP2 SWAP1 PUSH2 0x1D46 JUMP JUMPDEST PUSH2 0x594 JUMP JUMPDEST STOP JUMPDEST CALLVALUE DUP1 ISZERO PUSH2 0x249 JUMPI PUSH1 0x0 DUP1 REVERT JUMPDEST POP PUSH2 0x264 PUSH1 0x4 DUP1 CALLDATASIZE SUB DUP2 ADD SWAP1 PUSH2 0x25F SWAP2 SWAP1 PUSH2 0x1E62 JUMP JUMPDEST PUSH2 0x71D JUMP JUMPDEST PUSH1 0x40 MLOAD PUSH2 0x271 SWAP2 SWAP1 PUSH2 0x22E9 JUMP JUMPDEST PUSH1 0x40 MLOAD DUP1 SWAP2 SUB SWAP1 RETURN JUMPDEST CALLVALUE DUP1 ISZERO PUSH2 0x286 JUMPI PUSH1 0x0 DUP1 REVERT JUMPDEST POP PUSH2 0x2A1 PUSH1 0x4 DUP1 CALLDATASIZE SUB DUP2 ADD SWAP1 PUSH2 0x29C SWAP2 SWAP1 PUSH2 0x1E62 JUMP JUMPDEST PUSH2 0x754 JUMP JUMPDEST STOP JUMPDEST PUSH2 0x2BD PUSH1 0x4 DUP1 CALLDATASIZE SUB DUP2 ADD SWAP1 PUSH2 0x2B8 SWAP2 SWAP1 PUSH2 0x1E06 JUMP JUMPDEST PUSH2 0x76A JUMP JUMPDEST STOP JUMPDEST CALLVALUE DUP1 ISZERO PUSH2 0x2CB JUMPI PUSH1 0x0 DUP1 REVERT JUMPDEST POP PUSH2 0x2D4 PUSH2 0x8A7 JUMP JUMPDEST PUSH1 0x40 MLOAD PUSH2 0x2E1 SWAP2 SWAP1 PUSH2 0x2304 JUMP JUMPDEST PUSH1 0x40 MLOAD DUP1 SWAP2 SUB SWAP1 RETURN JUMPDEST CALLVALUE DUP1 ISZERO PUSH2 0x2F6 JUMPI PUSH1 0x0 DUP1 REVERT JUMPDEST POP PUSH2 0x311 PUSH1 0x4 DUP1 CALLDATASIZE SUB DUP2 ADD SWAP1 PUSH2 0x30C SWAP2 SWAP1 PUSH2 0x1D46 JUMP JUMPDEST PUSH2 0x960 JUMP JUMPDEST PUSH1 0x40 MLOAD PUSH2 0x31E SWAP2 SWAP1 PUSH2 0x25BC JUMP JUMPDEST PUSH1 0x40 MLOAD DUP1 SWAP2 SUB SWAP1 RETURN JUMPDEST CALLVALUE DUP1 ISZERO PUSH2 0x333 JUMPI PUSH1 0x0 DUP1 REVERT JUMPDEST POP PUSH2 0x33C PUSH2 0x9A9 JUMP JUMPDEST STOP JUMPDEST CALLVALUE DUP1 ISZERO PUSH2 0x34A JUMPI PUSH1 0x0 DUP1 REVERT JUMPDEST POP PUSH2 0x353 PUSH2 0x9BD JUMP JUMPDEST PUSH1 0x40 MLOAD PUSH2 0x360 SWAP2 SWAP1 PUSH2 0x22CE JUMP JUMPDEST PUSH1 0x40 MLOAD DUP1 SWAP2 SUB SWAP1 RETURN JUMPDEST CALLVALUE DUP1 ISZERO PUSH2 0x375 JUMPI PUSH1 0x0 DUP1 REVERT JUMPDEST POP PUSH2 0x37E PUSH2 0x9E7 JUMP JUMPDEST PUSH1 0x40 MLOAD PUSH2 0x38B SWAP2 SWAP1 PUSH2 0x233A JUMP JUMPDEST PUSH1 0x40 MLOAD DUP1 SWAP2 SUB SWAP1 RETURN JUMPDEST CALLVALUE DUP1 ISZERO PUSH2 0x3A0 JUMPI PUSH1 0x0 DUP1 REVERT JUMPDEST POP PUSH2 0x3BB PUSH1 0x4 DUP1 CALLDATASIZE SUB DUP2 ADD SWAP1 PUSH2 0x3B6 SWAP2 SWAP1 PUSH2 0x1E62 JUMP JUMPDEST PUSH2 0xA79 JUMP JUMPDEST PUSH1 0x40 MLOAD PUSH2 0x3C8 SWAP2 SWAP1 PUSH2 0x22E9 JUMP JUMPDEST PUSH1 0x40 MLOAD DUP1 SWAP2 SUB SWAP1 RETURN JUMPDEST CALLVALUE DUP1 ISZERO PUSH2 0x3DD JUMPI PUSH1 0x0 DUP1 REVERT JUMPDEST POP PUSH2 0x3F8 PUSH1 0x4 DUP1 CALLDATASIZE SUB DUP2 ADD SWAP1 PUSH2 0x3F3 SWAP2 SWAP1 PUSH2 0x1E62 JUMP JUMPDEST PUSH2 0xAF0 JUMP JUMPDEST PUSH1 0x40 MLOAD PUSH2 0x405 SWAP2 SWAP1 PUSH2 0x22E9 JUMP JUMPDEST PUSH1 0x40 MLOAD DUP1 SWAP2 SUB SWAP1 RETURN JUMPDEST CALLVALUE DUP1 ISZERO PUSH2 0x41A JUMPI PUSH1 0x0 DUP1 REVERT JUMPDEST POP PUSH2 0x435 PUSH1 0x4 DUP1 CALLDATASIZE SUB DUP2 ADD SWAP1 PUSH2 0x430 SWAP2 SWAP1 PUSH2 0x1ECF JUMP JUMPDEST PUSH2 0xB13 JUMP JUMPDEST STOP JUMPDEST CALLVALUE DUP1 ISZERO PUSH2 0x443 JUMPI PUSH1 0x0 DUP1 REVERT JUMPDEST POP PUSH2 0x45E PUSH1 0x4 DUP1 CALLDATASIZE SUB DUP2 ADD SWAP1 PUSH2 0x459 SWAP2 SWAP1 PUSH2 0x1D73 JUMP JUMPDEST PUSH2 0xC70 JUMP JUMPDEST PUSH1 0x40 MLOAD PUSH2 0x46B SWAP2 SWAP1 PUSH2 0x25BC JUMP JUMPDEST PUSH1 0x40 MLOAD DUP1 SWAP2 SUB SWAP1 RETURN JUMPDEST CALLVALUE DUP1 ISZERO PUSH2 0x480 JUMPI PUSH1 0x0 DUP1 REVERT JUMPDEST POP PUSH2 0x49B PUSH1 0x4 DUP1 CALLDATASIZE SUB DUP2 ADD SWAP1 PUSH2 0x496 SWAP2 SWAP1 PUSH2 0x1D46 JUMP JUMPDEST PUSH2 0xCF7 JUMP JUMPDEST STOP JUMPDEST PUSH1 0x60 PUSH1 0x36 DUP1 SLOAD PUSH2 0x4AC SWAP1 PUSH2 0x27B4 JUMP JUMPDEST DUP1 PUSH1 0x1F ADD PUSH1 0x20 DUP1 SWAP2 DIV MUL PUSH1 0x20 ADD PUSH1 0x40 MLOAD SWAP1 DUP2 ADD PUSH1 0x40 MSTORE DUP1 SWAP3 SWAP2 SWAP1 DUP2 DUP2 MSTORE PUSH1 0x20 ADD DUP3 DUP1 SLOAD PUSH2 0x4D8 SWAP1 PUSH2 0x27B4 JUMP JUMPDEST DUP1 ISZERO PUSH2 0x525 JUMPI DUP1 PUSH1 0x1F LT PUSH2 0x4FA JUMPI PUSH2 0x100 DUP1 DUP4 SLOAD DIV MUL DUP4 MSTORE SWAP2 PUSH1 0x20 ADD SWAP2 PUSH2 0x525 JUMP JUMPDEST DUP3 ADD SWAP2 SWAP1 PUSH1 0x0 MSTORE PUSH1 0x20 PUSH1 0x0 KECCAK256 SWAP1 JUMPDEST DUP2 SLOAD DUP2 MSTORE SWAP1 PUSH1 0x1 ADD SWAP1 PUSH1 0x20 ADD DUP1 DUP4 GT PUSH2 0x508 JUMPI DUP3 SWAP1 SUB PUSH1 0x1F AND DUP3 ADD SWAP2 JUMPDEST POP POP POP POP POP SWAP1 POP SWAP1 JUMP JUMPDEST PUSH1 0x0 DUP1 PUSH2 0x53A PUSH2 0xD7B JUMP JUMPDEST SWAP1 POP PUSH2 0x547 DUP2 DUP6 DUP6 PUSH2 0xD83 JUMP JUMPDEST PUSH1 0x1 SWAP2 POP POP SWAP3 SWAP2 POP POP JUMP JUMPDEST PUSH1 0x0 PUSH1 0x35 SLOAD SWAP1 POP SWAP1 JUMP JUMPDEST PUSH1 0x0 DUP1 PUSH2 0x567 PUSH2 0xD7B JUMP JUMPDEST SWAP1 POP PUSH2 0x574 DUP6 DUP3 DUP6 PUSH2 0xF4E JUMP JUMPDEST PUSH2 0x57F DUP6 DUP6 DUP6 PUSH2 0xFDA JUMP JUMPDEST PUSH1 0x1 SWAP2 POP POP SWAP4 SWAP3 POP POP POP JUMP JUMPDEST PUSH1 0x0 PUSH1 0x12 SWAP1 POP SWAP1 JUMP JUMPDEST PUSH32 0x0 PUSH20 0xFFFFFFFFFFFFFFFFFFFFFFFFFFFFFFFFFFFFFFFF AND ADDRESS PUSH20 0xFFFFFFFFFFFFFFFFFFFFFFFFFFFFFFFFFFFFFFFF AND EQ ISZERO PUSH2 0x623 JUMPI PUSH1 0x40 MLOAD PUSH32 0x8C379A000000000000000000000000000000000000000000000000000000000 DUP2 MSTORE PUSH1 0x4 ADD PUSH2 0x61A SWAP1 PUSH2 0x23BC JUMP JUMPDEST PUSH1 0x40 MLOAD DUP1 SWAP2 SUB SWAP1 REVERT JUMPDEST PUSH32 0x0 PUSH20 0xFFFFFFFFFFFFFFFFFFFFFFFFFFFFFFFFFFFFFFFF AND PUSH2 0x662 PUSH2 0x1255 JUMP JUMPDEST PUSH20 0xFFFFFFFFFFFFFFFFFFFFFFFFFFFFFFFFFFFFFFFF AND EQ PUSH2 0x6B8 JUMPI PUSH1 0x40 MLOAD PUSH32 0x8C379A000000000000000000000000000000000000000000000000000000000 DUP2 MSTORE PUSH1 0x4 ADD PUSH2 0x6AF SWAP1 PUSH2 0x241C JUMP JUMPDEST PUSH1 0x40 MLOAD DUP1 SWAP2 SUB SWAP1 REVERT JUMPDEST PUSH2 0x6C1 DUP2 PUSH2 0x12AC JUMP JUMPDEST PUSH2 0x71A DUP2 PUSH1 0x0 PUSH8 0xFFFFFFFFFFFFFFFF DUP2 GT ISZERO PUSH2 0x6E0 JUMPI PUSH2 0x6DF PUSH2 0x2875 JUMP JUMPDEST JUMPDEST PUSH1 0x40 MLOAD SWAP1 DUP1 DUP3 MSTORE DUP1 PUSH1 0x1F ADD PUSH1 0x1F NOT AND PUSH1 0x20 ADD DUP3 ADD PUSH1 0x40 MSTORE DUP1 ISZERO PUSH2 0x712 JUMPI DUP2 PUSH1 0x20 ADD PUSH1 0x1 DUP3 MUL DUP1 CALLDATASIZE DUP4 CALLDATACOPY DUP1 DUP3 ADD SWAP2 POP POP SWAP1 POP JUMPDEST POP PUSH1 0x0 PUSH2 0x12B7 JUMP JUMPDEST POP JUMP JUMPDEST PUSH1 0x0 DUP1 PUSH2 0x728 PUSH2 0xD7B JUMP JUMPDEST SWAP1 POP PUSH2 0x749 DUP2 DUP6 DUP6 PUSH2 0x73A DUP6 DUP10 PUSH2 0xC70 JUMP JUMPDEST PUSH2 0x744 SWAP2 SWAP1 PUSH2 0x26AB JUMP JUMPDEST PUSH2 0xD83 JUMP JUMPDEST PUSH1 0x1 SWAP2 POP POP SWAP3 SWAP2 POP POP JUMP JUMPDEST PUSH2 0x75C PUSH2 0x1434 JUMP JUMPDEST PUSH2 0x766 DUP3 DUP3 PUSH2 0x14B2 JUMP JUMPDEST POP POP JUMP JUMPDEST PUSH32 0x0 PUSH20 0xFFFFFFFFFFFFFFFFFFFFFFFFFFFFFFFFFFFFFFFF AND ADDRESS PUSH20 0xFFFFFFFFFFFFFFFFFFFFFFFFFFFFFFFFFFFFFFFF AND EQ ISZERO PUSH2 0x7F9 JUMPI PUSH1 0x40 MLOAD PUSH32 0x8C379A000000000000000000000000000000000000000000000000000000000 DUP2 MSTORE PUSH1 0x4 ADD PUSH2 0x7F0 SWAP1 PUSH2 0x23BC JUMP JUMPDEST PUSH1 0x40 MLOAD DUP1 SWAP2 SUB SWAP1 REVERT JUMPDEST PUSH32 0x0 PUSH20 0xFFFFFFFFFFFFFFFFFFFFFFFFFFFFFFFFFFFFFFFF AND PUSH2 0x838 PUSH2 0x1255 JUMP JUMPDEST PUSH20 0xFFFFFFFFFFFFFFFFFFFFFFFFFFFFFFFFFFFFFFFF AND EQ PUSH2 0x88E JUMPI PUSH1 0x40 MLOAD PUSH32 0x8C379A000000000000000000000000000000000000000000000000000000000 DUP2 MSTORE PUSH1 0x4 ADD PUSH2 0x885 SWAP1 PUSH2 0x241C JUMP JUMPDEST PUSH1 0x40 MLOAD DUP1 SWAP2 SUB SWAP1 REVERT JUMPDEST PUSH2 0x897 DUP3 PUSH2 0x12AC JUMP JUMPDEST PUSH2 0x8A3 DUP3 DUP3 PUSH1 0x1 PUSH2 0x12B7 JUMP JUMPDEST POP POP JUMP JUMPDEST PUSH1 0x0 PUSH32 0x0 PUSH20 0xFFFFFFFFFFFFFFFFFFFFFFFFFFFFFFFFFFFFFFFF AND ADDRESS PUSH20 0xFFFFFFFFFFFFFFFFFFFFFFFFFFFFFFFFFFFFFFFF AND EQ PUSH2 0x937 JUMPI PUSH1 0x40 MLOAD PUSH32 0x8C379A000000000000000000000000000000000000000000000000000000000 DUP2 MSTORE PUSH1 0x4 ADD PUSH2 0x92E SWAP1 PUSH2 0x243C JUMP JUMPDEST PUSH1 0x40 MLOAD DUP1 SWAP2 SUB SWAP1 REVERT JUMPDEST PUSH32 0x360894A13BA1A3210667C828492DB98DCA3E2076CC3735A920A3CA505D382BBC PUSH1 0x0 SHL SWAP1 POP SWAP1 JUMP JUMPDEST PUSH1 0x0 PUSH1 0x33 PUSH1 0x0 DUP4 PUSH20 0xFFFFFFFFFFFFFFFFFFFFFFFFFFFFFFFFFFFFFFFF AND PUSH20 0xFFFFFFFFFFFFFFFFFFFFFFFFFFFFFFFFFFFFFFFF AND DUP2 MSTORE PUSH1 0x20 ADD SWAP1 DUP2 MSTORE PUSH1 0x20 ADD PUSH1 0x0 KECCAK256 SLOAD SWAP1 POP SWAP2 SWAP1 POP JUMP JUMPDEST PUSH2 0x9B1 PUSH2 0x1434 JUMP JUMPDEST PUSH2 0x9BB PUSH1 0x0 PUSH2 0x160A JUMP JUMPDEST JUMP JUMPDEST PUSH1 0x0 PUSH1 0x65 PUSH1 0x0 SWAP1 SLOAD SWAP1 PUSH2 0x100 EXP SWAP1 DIV PUSH20 0xFFFFFFFFFFFFFFFFFFFFFFFFFFFFFFFFFFFFFFFF AND SWAP1 POP SWAP1 JUMP JUMPDEST PUSH1 0x60 PUSH1 0x37 DUP1 SLOAD PUSH2 0x9F6 SWAP1 PUSH2 0x27B4 JUMP JUMPDEST DUP1 PUSH1 0x1F ADD PUSH1 0x20 DUP1 SWAP2 DIV MUL PUSH1 0x20 ADD PUSH1 0x40 MLOAD SWAP1 DUP2 ADD PUSH1 0x40 MSTORE DUP1 SWAP3 SWAP2 SWAP1 DUP2 DUP2 MSTORE PUSH1 0x20 ADD DUP3 DUP1 SLOAD PUSH2 0xA22 SWAP1 PUSH2 0x27B4 JUMP JUMPDEST DUP1 ISZERO PUSH2 0xA6F JUMPI DUP1 PUSH1 0x1F LT PUSH2 0xA44 JUMPI PUSH2 0x100 DUP1 DUP4 SLOAD DIV MUL DUP4 MSTORE SWAP2 PUSH1 0x20 ADD SWAP2 PUSH2 0xA6F JUMP JUMPDEST DUP3 ADD SWAP2 SWAP1 PUSH1 0x0 MSTORE PUSH1 0x20 PUSH1 0x0 KECCAK256 SWAP1 JUMPDEST DUP2 SLOAD DUP2 MSTORE SWAP1 PUSH1 0x1 ADD SWAP1 PUSH1 0x20 ADD DUP1 DUP4 GT PUSH2 0xA52 JUMPI DUP3 SWAP1 SUB PUSH1 0x1F AND DUP3 ADD SWAP2 JUMPDEST POP POP POP POP POP SWAP1 POP SWAP1 JUMP JUMPDEST PUSH1 0x0 DUP1 PUSH2 0xA84 PUSH2 0xD7B JUMP JUMPDEST SWAP1 POP PUSH1 0x0 PUSH2 0xA92 DUP3 DUP7 PUSH2 0xC70 JUMP JUMPDEST SWAP1 POP DUP4 DUP2 LT ISZERO PUSH2 0xAD7 JUMPI PUSH1 0x40 MLOAD PUSH32 0x8C379A000000000000000000000000000000000000000000000000000000000 DUP2 MSTORE PUSH1 0x4 ADD PUSH2 0xACE SWAP1 PUSH2 0x257C JUMP JUMPDEST PUSH1 0x40 MLOAD DUP1 SWAP2 SUB SWAP1 REVERT JUMPDEST PUSH2 0xAE4 DUP3 DUP7 DUP7 DUP5 SUB PUSH2 0xD83 JUMP JUMPDEST PUSH1 0x1 SWAP3 POP POP POP SWAP3 SWAP2 POP POP JUMP JUMPDEST PUSH1 0x0 DUP1 PUSH2 0xAFB PUSH2 0xD7B JUMP JUMPDEST SWAP1 POP PUSH2 0xB08 DUP2 DUP6 DUP6 PUSH2 0xFDA JUMP JUMPDEST PUSH1 0x1 SWAP2 POP POP SWAP3 SWAP2 POP POP JUMP JUMPDEST PUSH1 0x0 DUP1 PUSH1 0x1 SWAP1 SLOAD SWAP1 PUSH2 0x100 EXP SWAP1 DIV PUSH1 0xFF AND ISZERO SWAP1 POP DUP1 DUP1 ISZERO PUSH2 0xB44 JUMPI POP PUSH1 0x1 PUSH1 0x0 DUP1 SLOAD SWAP1 PUSH2 0x100 EXP SWAP1 DIV PUSH1 0xFF AND PUSH1 0xFF AND LT JUMPDEST DUP1 PUSH2 0xB71 JUMPI POP PUSH2 0xB53 ADDRESS PUSH2 0x16D0 JUMP JUMPDEST ISZERO DUP1 ISZERO PUSH2 0xB70 JUMPI POP PUSH1 0x1 PUSH1 0x0 DUP1 SLOAD SWAP1 PUSH2 0x100 EXP SWAP1 DIV PUSH1 0xFF AND PUSH1 0xFF AND EQ JUMPDEST JUMPDEST PUSH2 0xBB0 JUMPI PUSH1 0x40 MLOAD PUSH32 0x8C379A000000000000000000000000000000000000000000000000000000000 DUP2 MSTORE PUSH1 0x4 ADD PUSH2 0xBA7 SWAP1 PUSH2 0x247C JUMP JUMPDEST PUSH1 0x40 MLOAD DUP1 SWAP2 SUB SWAP1 REVERT JUMPDEST PUSH1 0x1 PUSH1 0x0 DUP1 PUSH2 0x100 EXP DUP2 SLOAD DUP2 PUSH1 0xFF MUL NOT AND SWAP1 DUP4 PUSH1 0xFF AND MUL OR SWAP1 SSTORE POP DUP1 ISZERO PUSH2 0xBED JUMPI PUSH1 0x1 PUSH1 0x0 PUSH1 0x1 PUSH2 0x100 EXP DUP2 SLOAD DUP2 PUSH1 0xFF MUL NOT AND SWAP1 DUP4 ISZERO ISZERO MUL OR SWAP1 SSTORE POP JUMPDEST PUSH2 0xBF7 DUP5 DUP5 PUSH2 0x16F3 JUMP JUMPDEST PUSH2 0xBFF PUSH2 0x1750 JUMP JUMPDEST PUSH2 0xC07 PUSH2 0x17A9 JUMP JUMPDEST PUSH2 0xC11 CALLER DUP4 PUSH2 0x14B2 JUMP JUMPDEST DUP1 ISZERO PUSH2 0xC6A JUMPI PUSH1 0x0 DUP1 PUSH1 0x1 PUSH2 0x100 EXP DUP2 SLOAD DUP2 PUSH1 0xFF MUL NOT AND SWAP1 DUP4 ISZERO ISZERO MUL OR SWAP1 SSTORE POP PUSH32 0x7F26B83FF96E1F2B6A682F133852F6798A09C465DA95921460CEFB3847402498 PUSH1 0x1 PUSH1 0x40 MLOAD PUSH2 0xC61 SWAP2 SWAP1 PUSH2 0x231F JUMP JUMPDEST PUSH1 0x40 MLOAD DUP1 SWAP2 SUB SWAP1 LOG1 JUMPDEST POP POP POP POP JUMP JUMPDEST PUSH1 0x0 PUSH1 0x34 PUSH1 0x0 DUP5 PUSH20 0xFFFFFFFFFFFFFFFFFFFFFFFFFFFFFFFFFFFFFFFF AND PUSH20 0xFFFFFFFFFFFFFFFFFFFFFFFFFFFFFFFFFFFFFFFF AND DUP2 MSTORE PUSH1 0x20 ADD SWAP1 DUP2 MSTORE PUSH1 0x20 ADD PUSH1 0x0 KECCAK256 PUSH1 0x0 DUP4 PUSH20 0xFFFFFFFFFFFFFFFFFFFFFFFFFFFFFFFFFFFFFFFF AND PUSH20 0xFFFFFFFFFFFFFFFFFFFFFFFFFFFFFFFFFFFFFFFF AND DUP2 MSTORE PUSH1 0x20 ADD SWAP1 DUP2 MSTORE PUSH1 0x20 ADD PUSH1 0x0 KECCAK256 SLOAD SWAP1 POP SWAP3 SWAP2 POP POP JUMP JUMPDEST PUSH2 0xCFF PUSH2 0x1434 JUMP JUMPDEST PUSH1 0x0 PUSH20 0xFFFFFFFFFFFFFFFFFFFFFFFFFFFFFFFFFFFFFFFF AND DUP2 PUSH20 0xFFFFFFFFFFFFFFFFFFFFFFFFFFFFFFFFFFFFFFFF AND EQ ISZERO PUSH2 0xD6F JUMPI PUSH1 0x40 MLOAD PUSH32 0x8C379A000000000000000000000000000000000000000000000000000000000 DUP2 MSTORE PUSH1 0x4 ADD PUSH2 0xD66 SWAP1 PUSH2 0x237C JUMP JUMPDEST PUSH1 0x40 MLOAD DUP1 SWAP2 SUB SWAP1 REVERT JUMPDEST PUSH2 0xD78 DUP2 PUSH2 0x160A JUMP JUMPDEST POP JUMP JUMPDEST PUSH1 0x0 CALLER SWAP1 POP SWAP1 JUMP JUMPDEST PUSH1 0x0 PUSH20 0xFFFFFFFFFFFFFFFFFFFFFFFFFFFFFFFFFFFFFFFF AND DUP4 PUSH20 0xFFFFFFFFFFFFFFFFFFFFFFFFFFFFFFFFFFFFFFFF AND EQ ISZERO PUSH2 0xDF3 JUMPI PUSH1 0x40 MLOAD PUSH32 0x8C379A000000000000000000000000000000000000000000000000000000000 DUP2 MSTORE PUSH1 0x4 ADD PUSH2 0xDEA SWAP1 PUSH2 0x253C JUMP JUMPDEST PUSH1 0x40 MLOAD DUP1 SWAP2 SUB SWAP1 REVERT JUMPDEST PUSH1 0x0 PUSH20 0xFFFFFFFFFFFFFFFFFFFFFFFFFFFFFFFFFFFFFFFF AND DUP3 PUSH20 0xFFFFFFFFFFFFFFFFFFFFFFFFFFFFFFFFFFFFFFFF AND EQ ISZERO PUSH2 0xE63 JUMPI PUSH1 0x40 MLOAD PUSH32 0x8C379A000000000000000000000000000000000000000000000000000000000 DUP2 MSTORE PUSH1 0x4 ADD PUSH2 0xE5A SWAP1 PUSH2 0x239C JUMP JUMPDEST PUSH1 0x40 MLOAD DUP1 SWAP2 SUB SWAP1 REVERT JUMPDEST DUP1 PUSH1 0x34 PUSH1 0x0 DUP6 PUSH20 0xFFFFFFFFFFFFFFFFFFFFFFFFFFFFFFFFFFFFFFFF AND PUSH20 0xFFFFFFFFFFFFFFFFFFFFFFFFFFFFFFFFFFFFFFFF AND DUP2 MSTORE PUSH1 0x20 ADD SWAP1 DUP2 MSTORE PUSH1 0x20 ADD PUSH1 0x0 KECCAK256 PUSH1 0x0 DUP5 PUSH20 0xFFFFFFFFFFFFFFFFFFFFFFFFFFFFFFFFFFFFFFFF AND PUSH20 0xFFFFFFFFFFFFFFFFFFFFFFFFFFFFFFFFFFFFFFFF AND DUP2 MSTORE PUSH1 0x20 ADD SWAP1 DUP2 MSTORE PUSH1 0x20 ADD PUSH1 0x0 KECCAK256 DUP2 SWAP1 SSTORE POP DUP2 PUSH20 0xFFFFFFFFFFFFFFFFFFFFFFFFFFFFFFFFFFFFFFFF AND DUP4 PUSH20 0xFFFFFFFFFFFFFFFFFFFFFFFFFFFFFFFFFFFFFFFF AND PUSH32 0x8C5BE1E5EBEC7D5BD14F71427D1E84F3DD0314C0F7B2291E5B200AC8C7C3B925 DUP4 PUSH1 0x40 MLOAD PUSH2 0xF41 SWAP2 SWAP1 PUSH2 0x25BC JUMP JUMPDEST PUSH1 0x40 MLOAD DUP1 SWAP2 SUB SWAP1 LOG3 POP POP POP JUMP JUMPDEST PUSH1 0x0 PUSH2 0xF5A DUP5 DUP5 PUSH2 0xC70 JUMP JUMPDEST SWAP1 POP PUSH32 0xFFFFFFFFFFFFFFFFFFFFFFFFFFFFFFFFFFFFFFFFFFFFFFFFFFFFFFFFFFFFFFFF DUP2 EQ PUSH2 0xFD4 JUMPI DUP2 DUP2 LT ISZERO PUSH2 0xFC6 JUMPI PUSH1 0x40 MLOAD PUSH32 0x8C379A000000000000000000000000000000000000000000000000000000000 DUP2 MSTORE PUSH1 0x4 ADD PUSH2 0xFBD SWAP1 PUSH2 0x23DC JUMP JUMPDEST PUSH1 0x40 MLOAD DUP1 SWAP2 SUB SWAP1 REVERT JUMPDEST PUSH2 0xFD3 DUP5 DUP5 DUP5 DUP5 SUB PUSH2 0xD83 JUMP JUMPDEST JUMPDEST POP POP POP POP JUMP JUMPDEST PUSH1 0x0 PUSH20 0xFFFFFFFFFFFFFFFFFFFFFFFFFFFFFFFFFFFFFFFF AND DUP4 PUSH20 0xFFFFFFFFFFFFFFFFFFFFFFFFFFFFFFFFFFFFFFFF AND EQ ISZERO PUSH2 0x104A JUMPI PUSH1 0x40 MLOAD PUSH32 0x8C379A000000000000000000000000000000000000000000000000000000000 DUP2 MSTORE PUSH1 0x4 ADD PUSH2 0x1041 SWAP1 PUSH2 0x251C JUMP JUMPDEST PUSH1 0x40 MLOAD DUP1 SWAP2 SUB SWAP1 REVERT JUMPDEST PUSH1 0x0 PUSH20 0xFFFFFFFFFFFFFFFFFFFFFFFFFFFFFFFFFFFFFFFF AND DUP3 PUSH20 0xFFFFFFFFFFFFFFFFFFFFFFFFFFFFFFFFFFFFFFFF AND EQ ISZERO PUSH2 0x10BA JUMPI PUSH1 0x40 MLOAD PUSH32 0x8C379A000000000000000000000000000000000000000000000000000000000 DUP2 MSTORE PUSH1 0x4 ADD PUSH2 0x10B1 SWAP1 PUSH2 0x235C JUMP JUMPDEST PUSH1 0x40 MLOAD DUP1 SWAP2 SUB SWAP1 REVERT JUMPDEST PUSH2 0x10C5 DUP4 DUP4 DUP4 PUSH2 0x17FA JUMP JUMPDEST PUSH1 0x0 PUSH1 0x33 PUSH1 0x0 DUP6 PUSH20 0xFFFFFFFFFFFFFFFFFFFFFFFFFFFFFFFFFFFFFFFF AND PUSH20 0xFFFFFFFFFFFFFFFFFFFFFFFFFFFFFFFFFFFFFFFF AND DUP2 MSTORE PUSH1 0x20 ADD SWAP1 DUP2 MSTORE PUSH1 0x20 ADD PUSH1 0x0 KECCAK256 SLOAD SWAP1 POP DUP2 DUP2 LT ISZERO PUSH2 0x114C JUMPI PUSH1 0x40 MLOAD PUSH32 0x8C379A000000000000000000000000000000000000000000000000000000000 DUP2 MSTORE PUSH1 0x4 ADD PUSH2 0x1143 SWAP1 PUSH2 0x23FC JUMP JUMPDEST PUSH1 0x40 MLOAD DUP1 SWAP2 SUB SWAP1 REVERT JUMPDEST DUP2 DUP2 SUB PUSH1 0x33 PUSH1 0x0 DUP7 PUSH20 0xFFFFFFFFFFFFFFFFFFFFFFFFFFFFFFFFFFFFFFFF AND PUSH20 0xFFFFFFFFFFFFFFFFFFFFFFFFFFFFFFFFFFFFFFFF AND DUP2 MSTORE PUSH1 0x20 ADD SWAP1 DUP2 MSTORE PUSH1 0x20 ADD PUSH1 0x0 KECCAK256 DUP2 SWAP1 SSTORE POP DUP2 PUSH1 0x33 PUSH1 0x0 DUP6 PUSH20 0xFFFFFFFFFFFFFFFFFFFFFFFFFFFFFFFFFFFFFFFF AND PUSH20 0xFFFFFFFFFFFFFFFFFFFFFFFFFFFFFFFFFFFFFFFF AND DUP2 MSTORE PUSH1 0x20 ADD SWAP1 DUP2 MSTORE PUSH1 0x20 ADD PUSH1 0x0 KECCAK256 PUSH1 0x0 DUP3 DUP3 SLOAD ADD SWAP3 POP POP DUP2 SWAP1 SSTORE POP DUP3 PUSH20 0xFFFFFFFFFFFFFFFFFFFFFFFFFFFFFFFFFFFFFFFF AND DUP5 PUSH20 0xFFFFFFFFFFFFFFFFFFFFFFFFFFFFFFFFFFFFFFFF AND PUSH32 0xDDF252AD1BE2C89B69C2B068FC378DAA952BA7F163C4A11628F55A4DF523B3EF DUP5 PUSH1 0x40 MLOAD PUSH2 0x123C SWAP2 SWAP1 PUSH2 0x25BC JUMP JUMPDEST PUSH1 0x40 MLOAD DUP1 SWAP2 SUB SWAP1 LOG3 PUSH2 0x124F DUP5 DUP5 DUP5 PUSH2 0x17FF JUMP JUMPDEST POP POP POP POP JUMP JUMPDEST PUSH1 0x0 PUSH2 0x1283 PUSH32 0x360894A13BA1A3210667C828492DB98DCA3E2076CC3735A920A3CA505D382BBC PUSH1 0x0 SHL PUSH2 0x1804 JUMP JUMPDEST PUSH1 0x0 ADD PUSH1 0x0 SWAP1 SLOAD SWAP1 PUSH2 0x100 EXP SWAP1 DIV PUSH20 0xFFFFFFFFFFFFFFFFFFFFFFFFFFFFFFFFFFFFFFFF AND SWAP1 POP SWAP1 JUMP JUMPDEST PUSH2 0x12B4 PUSH2 0x1434 JUMP JUMPDEST POP JUMP JUMPDEST PUSH2 0x12E3 PUSH32 0x4910FDFA16FED3260ED0E7147F7CC6DA11A60208B5B9406D12A635614FFD9143 PUSH1 0x0 SHL PUSH2 0x180E JUMP JUMPDEST PUSH1 0x0 ADD PUSH1 0x0 SWAP1 SLOAD SWAP1 PUSH2 0x100 EXP SWAP1 DIV PUSH1 0xFF AND ISZERO PUSH2 0x1307 JUMPI PUSH2 0x1302 DUP4 PUSH2 0x1818 JUMP JUMPDEST PUSH2 0x142F JUMP JUMPDEST DUP3 PUSH20 0xFFFFFFFFFFFFFFFFFFFFFFFFFFFFFFFFFFFFFFFF AND PUSH4 0x52D1902D PUSH1 0x40 MLOAD DUP2 PUSH4 0xFFFFFFFF AND PUSH1 0xE0 SHL DUP2 MSTORE PUSH1 0x4 ADD PUSH1 0x20 PUSH1 0x40 MLOAD DUP1 DUP4 SUB DUP2 DUP7 DUP1 EXTCODESIZE ISZERO DUP1 ISZERO PUSH2 0x134D JUMPI PUSH1 0x0 DUP1 REVERT JUMPDEST POP GAS STATICCALL SWAP3 POP POP POP DUP1 ISZERO PUSH2 0x137E JUMPI POP PUSH1 0x40 MLOAD RETURNDATASIZE PUSH1 0x1F NOT PUSH1 0x1F DUP3 ADD AND DUP3 ADD DUP1 PUSH1 0x40 MSTORE POP DUP2 ADD SWAP1 PUSH2 0x137B SWAP2 SWAP1 PUSH2 0x1EA2 JUMP JUMPDEST PUSH1 0x1 JUMPDEST PUSH2 0x13BD JUMPI PUSH1 0x40 MLOAD PUSH32 0x8C379A000000000000000000000000000000000000000000000000000000000 DUP2 MSTORE PUSH1 0x4 ADD PUSH2 0x13B4 SWAP1 PUSH2 0x249C JUMP JUMPDEST PUSH1 0x40 MLOAD DUP1 SWAP2 SUB SWAP1 REVERT JUMPDEST PUSH32 0x360894A13BA1A3210667C828492DB98DCA3E2076CC3735A920A3CA505D382BBC PUSH1 0x0 SHL DUP2 EQ PUSH2 0x1422 JUMPI PUSH1 0x40 MLOAD PUSH32 0x8C379A000000000000000000000000000000000000000000000000000000000 DUP2 MSTORE PUSH1 0x4 ADD PUSH2 0x1419 SWAP1 PUSH2 0x245C JUMP JUMPDEST PUSH1 0x40 MLOAD DUP1 SWAP2 SUB SWAP1 REVERT JUMPDEST POP PUSH2 0x142E DUP4 DUP4 DUP4 PUSH2 0x18D1 JUMP JUMPDEST JUMPDEST POP POP POP JUMP JUMPDEST PUSH2 0x143C PUSH2 0xD7B JUMP JUMPDEST PUSH20 0xFFFFFFFFFFFFFFFFFFFFFFFFFFFFFFFFFFFFFFFF AND PUSH2 0x145A PUSH2 0x9BD JUMP JUMPDEST PUSH20 0xFFFFFFFFFFFFFFFFFFFFFFFFFFFFFFFFFFFFFFFF AND EQ PUSH2 0x14B0 JUMPI PUSH1 0x40 MLOAD PUSH32 0x8C379A000000000000000000000000000000000000000000000000000000000 DUP2 MSTORE PUSH1 0x4 ADD PUSH2 0x14A7 SWAP1 PUSH2 0x24DC JUMP JUMPDEST PUSH1 0x40 MLOAD DUP1 SWAP2 SUB SWAP1 REVERT JUMPDEST JUMP JUMPDEST PUSH1 0x0 PUSH20 0xFFFFFFFFFFFFFFFFFFFFFFFFFFFFFFFFFFFFFFFF AND DUP3 PUSH20 0xFFFFFFFFFFFFFFFFFFFFFFFFFFFFFFFFFFFFFFFF AND EQ ISZERO PUSH2 0x1522 JUMPI PUSH1 0x40 MLOAD PUSH32 0x8C379A000000000000000000000000000000000000000000000000000000000 DUP2 MSTORE PUSH1 0x4 ADD PUSH2 0x1519 SWAP1 PUSH2 0x259C JUMP JUMPDEST PUSH1 0x40 MLOAD DUP1 SWAP2 SUB SWAP1 REVERT JUMPDEST PUSH2 0x152E PUSH1 0x0 DUP4 DUP4 PUSH2 0x17FA JUMP JUMPDEST DUP1 PUSH1 0x35 PUSH1 0x0 DUP3 DUP3 SLOAD PUSH2 0x1540 SWAP2 SWAP1 PUSH2 0x26AB JUMP JUMPDEST SWAP3 POP POP DUP2 SWAP1 SSTORE POP DUP1 PUSH1 0x33 PUSH1 0x0 DUP5 PUSH20 0xFFFFFFFFFFFFFFFFFFFFFFFFFFFFFFFFFFFFFFFF AND PUSH20 0xFFFFFFFFFFFFFFFFFFFFFFFFFFFFFFFFFFFFFFFF AND DUP2 MSTORE PUSH1 0x20 ADD SWAP1 DUP2 MSTORE PUSH1 0x20 ADD PUSH1 0x0 KECCAK256 PUSH1 0x0 DUP3 DUP3 SLOAD ADD SWAP3 POP POP DUP2 SWAP1 SSTORE POP DUP2 PUSH20 0xFFFFFFFFFFFFFFFFFFFFFFFFFFFFFFFFFFFFFFFF AND PUSH1 0x0 PUSH20 0xFFFFFFFFFFFFFFFFFFFFFFFFFFFFFFFFFFFFFFFF AND PUSH32 0xDDF252AD1BE2C89B69C2B068FC378DAA952BA7F163C4A11628F55A4DF523B3EF DUP4 PUSH1 0x40 MLOAD PUSH2 0x15F2 SWAP2 SWAP1 PUSH2 0x25BC JUMP JUMPDEST PUSH1 0x40 MLOAD DUP1 SWAP2 SUB SWAP1 LOG3 PUSH2 0x1606 PUSH1 0x0 DUP4 DUP4 PUSH2 0x17FF JUMP JUMPDEST POP POP JUMP JUMPDEST PUSH1 0x0 PUSH1 0x65 PUSH1 0x0 SWAP1 SLOAD SWAP1 PUSH2 0x100 EXP SWAP1 DIV PUSH20 0xFFFFFFFFFFFFFFFFFFFFFFFFFFFFFFFFFFFFFFFF AND SWAP1 POP DUP2 PUSH1 0x65 PUSH1 0x0 PUSH2 0x100 EXP DUP2 SLOAD DUP2 PUSH20 0xFFFFFFFFFFFFFFFFFFFFFFFFFFFFFFFFFFFFFFFF MUL NOT AND SWAP1 DUP4 PUSH20 0xFFFFFFFFFFFFFFFFFFFFFFFFFFFFFFFFFFFFFFFF AND MUL OR SWAP1 SSTORE POP DUP2 PUSH20 0xFFFFFFFFFFFFFFFFFFFFFFFFFFFFFFFFFFFFFFFF AND DUP2 PUSH20 0xFFFFFFFFFFFFFFFFFFFFFFFFFFFFFFFFFFFFFFFF AND PUSH32 0x8BE0079C531659141344CD1FD0A4F28419497F9722A3DAAFE3B4186F6B6457E0 PUSH1 0x40 MLOAD PUSH1 0x40 MLOAD DUP1 SWAP2 SUB SWAP1 LOG3 POP POP JUMP JUMPDEST PUSH1 0x0 DUP1 DUP3 PUSH20 0xFFFFFFFFFFFFFFFFFFFFFFFFFFFFFFFFFFFFFFFF AND EXTCODESIZE GT SWAP1 POP SWAP2 SWAP1 POP JUMP JUMPDEST PUSH1 0x0 PUSH1 0x1 SWAP1 SLOAD SWAP1 PUSH2 0x100 EXP SWAP1 DIV PUSH1 0xFF AND PUSH2 0x1742 JUMPI PUSH1 0x40 MLOAD PUSH32 0x8C379A000000000000000000000000000000000000000000000000000000000 DUP2 MSTORE PUSH1 0x4 ADD PUSH2 0x1739 SWAP1 PUSH2 0x255C JUMP JUMPDEST PUSH1 0x40 MLOAD DUP1 SWAP2 SUB SWAP1 REVERT JUMPDEST PUSH2 0x174C DUP3 DUP3 PUSH2 0x18FD JUMP JUMPDEST POP POP JUMP JUMPDEST PUSH1 0x0 PUSH1 0x1 SWAP1 SLOAD SWAP1 PUSH2 0x100 EXP SWAP1 DIV PUSH1 0xFF AND PUSH2 0x179F JUMPI PUSH1 0x40 MLOAD PUSH32 0x8C379A000000000000000000000000000000000000000000000000000000000 DUP2 MSTORE PUSH1 0x4 ADD PUSH2 0x1796 SWAP1 PUSH2 0x255C JUMP JUMPDEST PUSH1 0x40 MLOAD DUP1 SWAP2 SUB SWAP1 REVERT JUMPDEST PUSH2 0x17A7 PUSH2 0x197E JUMP JUMPDEST JUMP JUMPDEST PUSH1 0x0 PUSH1 0x1 SWAP1 SLOAD SWAP1 PUSH2 0x100 EXP SWAP1 DIV PUSH1 0xFF AND PUSH2 0x17F8 JUMPI PUSH1 0x40 MLOAD PUSH32 0x8C379A000000000000000000000000000000000000000000000000000000000 DUP2 MSTORE PUSH1 0x4 ADD PUSH2 0x17EF SWAP1 PUSH2 0x255C JUMP JUMPDEST PUSH1 0x40 MLOAD DUP1 SWAP2 SUB SWAP1 REVERT JUMPDEST JUMP JUMPDEST POP POP POP JUMP JUMPDEST POP POP POP JUMP JUMPDEST PUSH1 0x0 DUP2 SWAP1 POP SWAP2 SWAP1 POP JUMP JUMPDEST PUSH1 0x0 DUP2 SWAP1 POP SWAP2 SWAP1 POP JUMP JUMPDEST PUSH2 0x1821 DUP2 PUSH2 0x16D0 JUMP JUMPDEST PUSH2 0x1860 JUMPI PUSH1 0x40 MLOAD PUSH32 0x8C379A000000000000000000000000000000000000000000000000000000000 DUP2 MSTORE PUSH1 0x4 ADD PUSH2 0x1857 SWAP1 PUSH2 0x24BC JUMP JUMPDEST PUSH1 0x40 MLOAD DUP1 SWAP2 SUB SWAP1 REVERT JUMPDEST DUP1 PUSH2 0x188D PUSH32 0x360894A13BA1A3210667C828492DB98DCA3E2076CC3735A920A3CA505D382BBC PUSH1 0x0 SHL PUSH2 0x1804 JUMP JUMPDEST PUSH1 0x0 ADD PUSH1 0x0 PUSH2 0x100 EXP DUP2 SLOAD DUP2 PUSH20 0xFFFFFFFFFFFFFFFFFFFFFFFFFFFFFFFFFFFFFFFF MUL NOT AND SWAP1 DUP4 PUSH20 0xFFFFFFFFFFFFFFFFFFFFFFFFFFFFFFFFFFFFFFFF AND MUL OR SWAP1 SSTORE POP POP JUMP JUMPDEST PUSH2 0x18DA DUP4 PUSH2 0x19DF JUMP JUMPDEST PUSH1 0x0 DUP3 MLOAD GT DUP1 PUSH2 0x18E7 JUMPI POP DUP1 JUMPDEST ISZERO PUSH2 0x18F8 JUMPI PUSH2 0x18F6 DUP4 DUP4 PUSH2 0x1A2E JUMP JUMPDEST POP JUMPDEST POP POP POP JUMP JUMPDEST PUSH1 0x0 PUSH1 0x1 SWAP1 SLOAD SWAP1 PUSH2 0x100 EXP SWAP1 DIV PUSH1 0xFF AND PUSH2 0x194C JUMPI PUSH1 0x40 MLOAD PUSH32 0x8C379A000000000000000000000000000000000000000000000000000000000 DUP2 MSTORE PUSH1 0x4 ADD PUSH2 0x1943 SWAP1 PUSH2 0x255C JUMP JUMPDEST PUSH1 0x40 MLOAD DUP1 SWAP2 SUB SWAP1 REVERT JUMPDEST DUP2 PUSH1 0x36 SWAP1 DUP1 MLOAD SWAP1 PUSH1 0x20 ADD SWAP1 PUSH2 0x1962 SWAP3 SWAP2 SWAP1 PUSH2 0x1B84 JUMP JUMPDEST POP DUP1 PUSH1 0x37 SWAP1 DUP1 MLOAD SWAP1 PUSH1 0x20 ADD SWAP1 PUSH2 0x1979 SWAP3 SWAP2 SWAP1 PUSH2 0x1B84 JUMP JUMPDEST POP POP POP JUMP JUMPDEST PUSH1 0x0 PUSH1 0x1 SWAP1 SLOAD SWAP1 PUSH2 0x100 EXP SWAP1 DIV PUSH1 0xFF AND PUSH2 0x19CD JUMPI PUSH1 0x40 MLOAD PUSH32 0x8C379A000000000000000000000000000000000000000000000000000000000 DUP2 MSTORE PUSH1 0x4 ADD PUSH2 0x19C4 SWAP1 PUSH2 0x255C JUMP JUMPDEST PUSH1 0x40 MLOAD DUP1 SWAP2 SUB SWAP1 REVERT JUMPDEST PUSH2 0x19DD PUSH2 0x19D8 PUSH2 0xD7B JUMP JUMPDEST PUSH2 0x160A JUMP JUMPDEST JUMP JUMPDEST PUSH2 0x19E8 DUP2 PUSH2 0x1818 JUMP JUMPDEST DUP1 PUSH20 0xFFFFFFFFFFFFFFFFFFFFFFFFFFFFFFFFFFFFFFFF AND PUSH32 0xBC7CD75A20EE27FD9ADEBAB32041F755214DBC6BFFA90CC0225B39DA2E5C2D3B PUSH1 0x40 MLOAD PUSH1 0x40 MLOAD DUP1 SWAP2 SUB SWAP1 LOG2 POP JUMP JUMPDEST PUSH1 0x60 PUSH2 0x1A39 DUP4 PUSH2 0x16D0 JUMP JUMPDEST PUSH2 0x1A78 JUMPI PUSH1 0x40 MLOAD PUSH32 0x8C379A000000000000000000000000000000000000000000000000000000000 DUP2 MSTORE PUSH1 0x4 ADD PUSH2 0x1A6F SWAP1 PUSH2 0x24FC JUMP JUMPDEST PUSH1 0x40 MLOAD DUP1 SWAP2 SUB SWAP1 REVERT JUMPDEST PUSH1 0x0 DUP1 DUP5 PUSH20 0xFFFFFFFFFFFFFFFFFFFFFFFFFFFFFFFFFFFFFFFF AND DUP5 PUSH1 0x40 MLOAD PUSH2 0x1AA0 SWAP2 SWAP1 PUSH2 0x22B7 JUMP JUMPDEST PUSH1 0x0 PUSH1 0x40 MLOAD DUP1 DUP4 SUB DUP2 DUP6 GAS DELEGATECALL SWAP2 POP POP RETURNDATASIZE DUP1 PUSH1 0x0 DUP2 EQ PUSH2 0x1ADB JUMPI PUSH1 0x40 MLOAD SWAP2 POP PUSH1 0x1F NOT PUSH1 0x3F RETURNDATASIZE ADD AND DUP3 ADD PUSH1 0x40 MSTORE RETURNDATASIZE DUP3 MSTORE RETURNDATASIZE PUSH1 0x0 PUSH1 0x20 DUP5 ADD RETURNDATACOPY PUSH2 0x1AE0 JUMP JUMPDEST PUSH1 0x60 SWAP2 POP JUMPDEST POP SWAP2 POP SWAP2 POP PUSH2 0x1B08 DUP3 DUP3 PUSH1 0x40 MLOAD DUP1 PUSH1 0x60 ADD PUSH1 0x40 MSTORE DUP1 PUSH1 0x27 DUP2 MSTORE PUSH1 0x20 ADD PUSH2 0x2E7A PUSH1 0x27 SWAP2 CODECOPY PUSH2 0x1B12 JUMP JUMPDEST SWAP3 POP POP POP SWAP3 SWAP2 POP POP JUMP JUMPDEST PUSH1 0x60 DUP4 ISZERO PUSH2 0x1B22 JUMPI DUP3 SWAP1 POP PUSH2 0x1B2D JUMP JUMPDEST PUSH2 0x1B2C DUP4 DUP4 PUSH2 0x1B34 JUMP JUMPDEST JUMPDEST SWAP4 SWAP3 POP POP POP JUMP JUMPDEST PUSH1 0x0 DUP3 MLOAD GT ISZERO PUSH2 0x1B47 JUMPI DUP2 MLOAD DUP1 DUP4 PUSH1 0x20 ADD REVERT JUMPDEST DUP1 PUSH1 0x40 MLOAD PUSH32 0x8C379A000000000000000000000000000000000000000000000000000000000 DUP2 MSTORE PUSH1 0x4 ADD PUSH2 0x1B7B SWAP2 SWAP1 PUSH2 0x233A JUMP JUMPDEST PUSH1 0x40 MLOAD DUP1 SWAP2 SUB SWAP1 REVERT JUMPDEST DUP3 DUP1 SLOAD PUSH2 0x1B90 SWAP1 PUSH2 0x27B4 JUMP JUMPDEST SWAP1 PUSH1 0x0 MSTORE PUSH1 0x20 PUSH1 0x0 KECCAK256 SWAP1 PUSH1 0x1F ADD PUSH1 0x20 SWAP1 DIV DUP2 ADD SWAP3 DUP3 PUSH2 0x1BB2 JUMPI PUSH1 0x0 DUP6 SSTORE PUSH2 0x1BF9 JUMP JUMPDEST DUP3 PUSH1 0x1F LT PUSH2 0x1BCB JUMPI DUP1 MLOAD PUSH1 0xFF NOT AND DUP4 DUP1 ADD OR DUP6 SSTORE PUSH2 0x1BF9 JUMP JUMPDEST DUP3 DUP1 ADD PUSH1 0x1 ADD DUP6 SSTORE DUP3 ISZERO PUSH2 0x1BF9 JUMPI SWAP2 DUP3 ADD JUMPDEST DUP3 DUP2 GT ISZERO PUSH2 0x1BF8 JUMPI DUP3 MLOAD DUP3 SSTORE SWAP2 PUSH1 0x20 ADD SWAP2 SWAP1 PUSH1 0x1 ADD SWAP1 PUSH2 0x1BDD JUMP JUMPDEST JUMPDEST POP SWAP1 POP PUSH2 0x1C06 SWAP2 SWAP1 PUSH2 0x1C0A JUMP JUMPDEST POP SWAP1 JUMP JUMPDEST JUMPDEST DUP1 DUP3 GT ISZERO PUSH2 0x1C23 JUMPI PUSH1 0x0 DUP2 PUSH1 0x0 SWAP1 SSTORE POP PUSH1 0x1 ADD PUSH2 0x1C0B JUMP JUMPDEST POP SWAP1 JUMP JUMPDEST PUSH1 0x0 PUSH2 0x1C3A PUSH2 0x1C35 DUP5 PUSH2 0x2617 JUMP JUMPDEST PUSH2 0x25F2 JUMP JUMPDEST SWAP1 POP DUP3 DUP2 MSTORE PUSH1 0x20 DUP2 ADD DUP5 DUP5 DUP5 ADD GT ISZERO PUSH2 0x1C56 JUMPI PUSH2 0x1C55 PUSH2 0x28A9 JUMP JUMPDEST JUMPDEST PUSH2 0x1C61 DUP5 DUP3 DUP6 PUSH2 0x2772 JUMP JUMPDEST POP SWAP4 SWAP3 POP POP POP JUMP JUMPDEST PUSH1 0x0 PUSH2 0x1C7C PUSH2 0x1C77 DUP5 PUSH2 0x2648 JUMP JUMPDEST PUSH2 0x25F2 JUMP JUMPDEST SWAP1 POP DUP3 DUP2 MSTORE PUSH1 0x20 DUP2 ADD DUP5 DUP5 DUP5 ADD GT ISZERO PUSH2 0x1C98 JUMPI PUSH2 0x1C97 PUSH2 0x28A9 JUMP JUMPDEST JUMPDEST PUSH2 0x1CA3 DUP5 DUP3 DUP6 PUSH2 0x2772 JUMP JUMPDEST POP SWAP4 SWAP3 POP POP POP JUMP JUMPDEST PUSH1 0x0 DUP2 CALLDATALOAD SWAP1 POP PUSH2 0x1CBA DUP2 PUSH2 0x2E34 JUMP JUMPDEST SWAP3 SWAP2 POP POP JUMP JUMPDEST PUSH1 0x0 DUP2 MLOAD SWAP1 POP PUSH2 0x1CCF DUP2 PUSH2 0x2E4B JUMP JUMPDEST SWAP3 SWAP2 POP POP JUMP JUMPDEST PUSH1 0x0 DUP3 PUSH1 0x1F DUP4 ADD SLT PUSH2 0x1CEA JUMPI PUSH2 0x1CE9 PUSH2 0x28A4 JUMP JUMPDEST JUMPDEST DUP2 CALLDATALOAD PUSH2 0x1CFA DUP5 DUP3 PUSH1 0x20 DUP7 ADD PUSH2 0x1C27 JUMP JUMPDEST SWAP2 POP POP SWAP3 SWAP2 POP POP JUMP JUMPDEST PUSH1 0x0 DUP3 PUSH1 0x1F DUP4 ADD SLT PUSH2 0x1D18 JUMPI PUSH2 0x1D17 PUSH2 0x28A4 JUMP JUMPDEST JUMPDEST DUP2 CALLDATALOAD PUSH2 0x1D28 DUP5 DUP3 PUSH1 0x20 DUP7 ADD PUSH2 0x1C69 JUMP JUMPDEST SWAP2 POP POP SWAP3 SWAP2 POP POP JUMP JUMPDEST PUSH1 0x0 DUP2 CALLDATALOAD SWAP1 POP PUSH2 0x1D40 DUP2 PUSH2 0x2E62 JUMP JUMPDEST SWAP3 SWAP2 POP POP JUMP JUMPDEST PUSH1 0x0 PUSH1 0x20 DUP3 DUP5 SUB SLT ISZERO PUSH2 0x1D5C JUMPI PUSH2 0x1D5B PUSH2 0x28B3 JUMP JUMPDEST JUMPDEST PUSH1 0x0 PUSH2 0x1D6A DUP5 DUP3 DUP6 ADD PUSH2 0x1CAB JUMP JUMPDEST SWAP2 POP POP SWAP3 SWAP2 POP POP JUMP JUMPDEST PUSH1 0x0 DUP1 PUSH1 0x40 DUP4 DUP6 SUB SLT ISZERO PUSH2 0x1D8A JUMPI PUSH2 0x1D89 PUSH2 0x28B3 JUMP JUMPDEST JUMPDEST PUSH1 0x0 PUSH2 0x1D98 DUP6 DUP3 DUP7 ADD PUSH2 0x1CAB JUMP JUMPDEST SWAP3 POP POP PUSH1 0x20 PUSH2 0x1DA9 DUP6 DUP3 DUP7 ADD PUSH2 0x1CAB JUMP JUMPDEST SWAP2 POP POP SWAP3 POP SWAP3 SWAP1 POP JUMP JUMPDEST PUSH1 0x0 DUP1 PUSH1 0x0 PUSH1 0x60 DUP5 DUP7 SUB SLT ISZERO PUSH2 0x1DCC JUMPI PUSH2 0x1DCB PUSH2 0x28B3 JUMP JUMPDEST JUMPDEST PUSH1 0x0 PUSH2 0x1DDA DUP7 DUP3 DUP8 ADD PUSH2 0x1CAB JUMP JUMPDEST SWAP4 POP POP PUSH1 0x20 PUSH2 0x1DEB DUP7 DUP3 DUP8 ADD PUSH2 0x1CAB JUMP JUMPDEST SWAP3 POP POP PUSH1 0x40 PUSH2 0x1DFC DUP7 DUP3 DUP8 ADD PUSH2 0x1D31 JUMP JUMPDEST SWAP2 POP POP SWAP3 POP SWAP3 POP SWAP3 JUMP JUMPDEST PUSH1 0x0 DUP1 PUSH1 0x40 DUP4 DUP6 SUB SLT ISZERO PUSH2 0x1E1D JUMPI PUSH2 0x1E1C PUSH2 0x28B3 JUMP JUMPDEST JUMPDEST PUSH1 0x0 PUSH2 0x1E2B DUP6 DUP3 DUP7 ADD PUSH2 0x1CAB JUMP JUMPDEST SWAP3 POP POP PUSH1 0x20 DUP4 ADD CALLDATALOAD PUSH8 0xFFFFFFFFFFFFFFFF DUP2 GT ISZERO PUSH2 0x1E4C JUMPI PUSH2 0x1E4B PUSH2 0x28AE JUMP JUMPDEST JUMPDEST PUSH2 0x1E58 DUP6 DUP3 DUP7 ADD PUSH2 0x1CD5 JUMP JUMPDEST SWAP2 POP POP SWAP3 POP SWAP3 SWAP1 POP JUMP JUMPDEST PUSH1 0x0 DUP1 PUSH1 0x40 DUP4 DUP6 SUB SLT ISZERO PUSH2 0x1E79 JUMPI PUSH2 0x1E78 PUSH2 0x28B3 JUMP JUMPDEST JUMPDEST PUSH1 0x0 PUSH2 0x1E87 DUP6 DUP3 DUP7 ADD PUSH2 0x1CAB JUMP JUMPDEST SWAP3 POP POP PUSH1 0x20 PUSH2 0x1E98 DUP6 DUP3 DUP7 ADD PUSH2 0x1D31 JUMP JUMPDEST SWAP2 POP POP SWAP3 POP SWAP3 SWAP1 POP JUMP JUMPDEST PUSH1 0x0 PUSH1 0x20 DUP3 DUP5 SUB SLT ISZERO PUSH2 0x1EB8 JUMPI PUSH2 0x1EB7 PUSH2 0x28B3 JUMP JUMPDEST JUMPDEST PUSH1 0x0 PUSH2 0x1EC6 DUP5 DUP3 DUP6 ADD PUSH2 0x1CC0 JUMP JUMPDEST SWAP2 POP POP SWAP3 SWAP2 POP POP JUMP JUMPDEST PUSH1 0x0 DUP1 PUSH1 0x0 PUSH1 0x60 DUP5 DUP7 SUB SLT ISZERO PUSH2 0x1EE8 JUMPI PUSH2 0x1EE7 PUSH2 0x28B3 JUMP JUMPDEST JUMPDEST PUSH1 0x0 DUP5 ADD CALLDATALOAD PUSH8 0xFFFFFFFFFFFFFFFF DUP2 GT ISZERO PUSH2 0x1F06 JUMPI PUSH2 0x1F05 PUSH2 0x28AE JUMP JUMPDEST JUMPDEST PUSH2 0x1F12 DUP7 DUP3 DUP8 ADD PUSH2 0x1D03 JUMP JUMPDEST SWAP4 POP POP PUSH1 0x20 DUP5 ADD CALLDATALOAD PUSH8 0xFFFFFFFFFFFFFFFF DUP2 GT ISZERO PUSH2 0x1F33 JUMPI PUSH2 0x1F32 PUSH2 0x28AE JUMP JUMPDEST JUMPDEST PUSH2 0x1F3F DUP7 DUP3 DUP8 ADD PUSH2 0x1D03 JUMP JUMPDEST SWAP3 POP POP PUSH1 0x40 PUSH2 0x1F50 DUP7 DUP3 DUP8 ADD PUSH2 0x1D31 JUMP JUMPDEST SWAP2 POP POP SWAP3 POP SWAP3 POP SWAP3 JUMP JUMPDEST PUSH2 0x1F63 DUP2 PUSH2 0x2701 JUMP JUMPDEST DUP3 MSTORE POP POP JUMP JUMPDEST PUSH2 0x1F72 DUP2 PUSH2 0x2713 JUMP JUMPDEST DUP3 MSTORE POP POP JUMP JUMPDEST PUSH2 0x1F81 DUP2 PUSH2 0x271F JUMP JUMPDEST DUP3 MSTORE POP POP JUMP JUMPDEST PUSH1 0x0 PUSH2 0x1F92 DUP3 PUSH2 0x2679 JUMP JUMPDEST PUSH2 0x1F9C DUP2 DUP6 PUSH2 0x268F JUMP JUMPDEST SWAP4 POP PUSH2 0x1FAC DUP2 DUP6 PUSH1 0x20 DUP7 ADD PUSH2 0x2781 JUMP JUMPDEST DUP1 DUP5 ADD SWAP2 POP POP SWAP3 SWAP2 POP POP JUMP JUMPDEST PUSH2 0x1FC1 DUP2 PUSH2 0x2760 JUMP JUMPDEST DUP3 MSTORE POP POP JUMP JUMPDEST PUSH1 0x0 PUSH2 0x1FD2 DUP3 PUSH2 0x2684 JUMP JUMPDEST PUSH2 0x1FDC DUP2 DUP6 PUSH2 0x269A JUMP JUMPDEST SWAP4 POP PUSH2 0x1FEC DUP2 DUP6 PUSH1 0x20 DUP7 ADD PUSH2 0x2781 JUMP JUMPDEST PUSH2 0x1FF5 DUP2 PUSH2 0x28B8 JUMP JUMPDEST DUP5 ADD SWAP2 POP POP SWAP3 SWAP2 POP POP JUMP JUMPDEST PUSH1 0x0 PUSH2 0x200D PUSH1 0x23 DUP4 PUSH2 0x269A JUMP JUMPDEST SWAP2 POP PUSH2 0x2018 DUP3 PUSH2 0x28C9 JUMP JUMPDEST PUSH1 0x40 DUP3 ADD SWAP1 POP SWAP2 SWAP1 POP JUMP JUMPDEST PUSH1 0x0 PUSH2 0x2030 PUSH1 0x26 DUP4 PUSH2 0x269A JUMP JUMPDEST SWAP2 POP PUSH2 0x203B DUP3 PUSH2 0x2918 JUMP JUMPDEST PUSH1 0x40 DUP3 ADD SWAP1 POP SWAP2 SWAP1 POP JUMP JUMPDEST PUSH1 0x0 PUSH2 0x2053 PUSH1 0x22 DUP4 PUSH2 0x269A JUMP JUMPDEST SWAP2 POP PUSH2 0x205E DUP3 PUSH2 0x2967 JUMP JUMPDEST PUSH1 0x40 DUP3 ADD SWAP1 POP SWAP2 SWAP1 POP JUMP JUMPDEST PUSH1 0x0 PUSH2 0x2076 PUSH1 0x2C DUP4 PUSH2 0x269A JUMP JUMPDEST SWAP2 POP PUSH2 0x2081 DUP3 PUSH2 0x29B6 JUMP JUMPDEST PUSH1 0x40 DUP3 ADD SWAP1 POP SWAP2 SWAP1 POP JUMP JUMPDEST PUSH1 0x0 PUSH2 0x2099 PUSH1 0x1D DUP4 PUSH2 0x269A JUMP JUMPDEST SWAP2 POP PUSH2 0x20A4 DUP3 PUSH2 0x2A05 JUMP JUMPDEST PUSH1 0x20 DUP3 ADD SWAP1 POP SWAP2 SWAP1 POP JUMP JUMPDEST PUSH1 0x0 PUSH2 0x20BC PUSH1 0x26 DUP4 PUSH2 0x269A JUMP JUMPDEST SWAP2 POP PUSH2 0x20C7 DUP3 PUSH2 0x2A2E JUMP JUMPDEST PUSH1 0x40 DUP3 ADD SWAP1 POP SWAP2 SWAP1 POP JUMP JUMPDEST PUSH1 0x0 PUSH2 0x20DF PUSH1 0x2C DUP4 PUSH2 0x269A JUMP JUMPDEST SWAP2 POP PUSH2 0x20EA DUP3 PUSH2 0x2A7D JUMP JUMPDEST PUSH1 0x40 DUP3 ADD SWAP1 POP SWAP2 SWAP1 POP JUMP JUMPDEST PUSH1 0x0 PUSH2 0x2102 PUSH1 0x38 DUP4 PUSH2 0x269A JUMP JUMPDEST SWAP2 POP PUSH2 0x210D DUP3 PUSH2 0x2ACC JUMP JUMPDEST PUSH1 0x40 DUP3 ADD SWAP1 POP SWAP2 SWAP1 POP JUMP JUMPDEST PUSH1 0x0 PUSH2 0x2125 PUSH1 0x29 DUP4 PUSH2 0x269A JUMP JUMPDEST SWAP2 POP PUSH2 0x2130 DUP3 PUSH2 0x2B1B JUMP JUMPDEST PUSH1 0x40 DUP3 ADD SWAP1 POP SWAP2 SWAP1 POP JUMP JUMPDEST PUSH1 0x0 PUSH2 0x2148 PUSH1 0x2E DUP4 PUSH2 0x269A JUMP JUMPDEST SWAP2 POP PUSH2 0x2153 DUP3 PUSH2 0x2B6A JUMP JUMPDEST PUSH1 0x40 DUP3 ADD SWAP1 POP SWAP2 SWAP1 POP JUMP JUMPDEST PUSH1 0x0 PUSH2 0x216B PUSH1 0x2E DUP4 PUSH2 0x269A JUMP JUMPDEST SWAP2 POP PUSH2 0x2176 DUP3 PUSH2 0x2BB9 JUMP JUMPDEST PUSH1 0x40 DUP3 ADD SWAP1 POP SWAP2 SWAP1 POP JUMP JUMPDEST PUSH1 0x0 PUSH2 0x218E PUSH1 0x2D DUP4 PUSH2 0x269A JUMP JUMPDEST SWAP2 POP PUSH2 0x2199 DUP3 PUSH2 0x2C08 JUMP JUMPDEST PUSH1 0x40 DUP3 ADD SWAP1 POP SWAP2 SWAP1 POP JUMP JUMPDEST PUSH1 0x0 PUSH2 0x21B1 PUSH1 0x20 DUP4 PUSH2 0x269A JUMP JUMPDEST SWAP2 POP PUSH2 0x21BC DUP3 PUSH2 0x2C57 JUMP JUMPDEST PUSH1 0x20 DUP3 ADD SWAP1 POP SWAP2 SWAP1 POP JUMP JUMPDEST PUSH1 0x0 PUSH2 0x21D4 PUSH1 0x26 DUP4 PUSH2 0x269A JUMP JUMPDEST SWAP2 POP PUSH2 0x21DF DUP3 PUSH2 0x2C80 JUMP JUMPDEST PUSH1 0x40 DUP3 ADD SWAP1 POP SWAP2 SWAP1 POP JUMP JUMPDEST PUSH1 0x0 PUSH2 0x21F7 PUSH1 0x25 DUP4 PUSH2 0x269A JUMP JUMPDEST SWAP2 POP PUSH2 0x2202 DUP3 PUSH2 0x2CCF JUMP JUMPDEST PUSH1 0x40 DUP3 ADD SWAP1 POP SWAP2 SWAP1 POP JUMP JUMPDEST PUSH1 0x0 PUSH2 0x221A PUSH1 0x24 DUP4 PUSH2 0x269A JUMP JUMPDEST SWAP2 POP PUSH2 0x2225 DUP3 PUSH2 0x2D1E JUMP JUMPDEST PUSH1 0x40 DUP3 ADD SWAP1 POP SWAP2 SWAP1 POP JUMP JUMPDEST PUSH1 0x0 PUSH2 0x223D PUSH1 0x2B DUP4 PUSH2 0x269A JUMP JUMPDEST SWAP2 POP PUSH2 0x2248 DUP3 PUSH2 0x2D6D JUMP JUMPDEST PUSH1 0x40 DUP3 ADD SWAP1 POP SWAP2 SWAP1 POP JUMP JUMPDEST PUSH1 0x0 PUSH2 0x2260 PUSH1 0x25 DUP4 PUSH2 0x269A JUMP JUMPDEST SWAP2 POP PUSH2 0x226B DUP3 PUSH2 0x2DBC JUMP JUMPDEST PUSH1 0x40 DUP3 ADD SWAP1 POP SWAP2 SWAP1 POP JUMP JUMPDEST PUSH1 0x0 PUSH2 0x2283 PUSH1 0x1F DUP4 PUSH2 0x269A JUMP JUMPDEST SWAP2 POP PUSH2 0x228E DUP3 PUSH2 0x2E0B JUMP JUMPDEST PUSH1 0x20 DUP3 ADD SWAP1 POP SWAP2 SWAP1 POP JUMP JUMPDEST PUSH2 0x22A2 DUP2 PUSH2 0x2749 JUMP JUMPDEST DUP3 MSTORE POP POP JUMP JUMPDEST PUSH2 0x22B1 DUP2 PUSH2 0x2753 JUMP JUMPDEST DUP3 MSTORE POP POP JUMP JUMPDEST PUSH1 0x0 PUSH2 0x22C3 DUP3 DUP5 PUSH2 0x1F87 JUMP JUMPDEST SWAP2 POP DUP2 SWAP1 POP SWAP3 SWAP2 POP POP JUMP JUMPDEST PUSH1 0x0 PUSH1 0x20 DUP3 ADD SWAP1 POP PUSH2 0x22E3 PUSH1 0x0 DUP4 ADD DUP5 PUSH2 0x1F5A JUMP JUMPDEST SWAP3 SWAP2 POP POP JUMP JUMPDEST PUSH1 0x0 PUSH1 0x20 DUP3 ADD SWAP1 POP PUSH2 0x22FE PUSH1 0x0 DUP4 ADD DUP5 PUSH2 0x1F69 JUMP JUMPDEST SWAP3 SWAP2 POP POP JUMP JUMPDEST PUSH1 0x0 PUSH1 0x20 DUP3 ADD SWAP1 POP PUSH2 0x2319 PUSH1 0x0 DUP4 ADD DUP5 PUSH2 0x1F78 JUMP JUMPDEST SWAP3 SWAP2 POP POP JUMP JUMPDEST PUSH1 0x0 PUSH1 0x20 DUP3 ADD SWAP1 POP PUSH2 0x2334 PUSH1 0x0 DUP4 ADD DUP5 PUSH2 0x1FB8 JUMP JUMPDEST SWAP3 SWAP2 POP POP JUMP JUMPDEST PUSH1 0x0 PUSH1 0x20 DUP3 ADD SWAP1 POP DUP2 DUP2 SUB PUSH1 0x0 DUP4 ADD MSTORE PUSH2 0x2354 DUP2 DUP5 PUSH2 0x1FC7 JUMP JUMPDEST SWAP1 POP SWAP3 SWAP2 POP POP JUMP JUMPDEST PUSH1 0x0 PUSH1 0x20 DUP3 ADD SWAP1 POP DUP2 DUP2 SUB PUSH1 0x0 DUP4 ADD MSTORE PUSH2 0x2375 DUP2 PUSH2 0x2000 JUMP JUMPDEST SWAP1 POP SWAP2 SWAP1 POP JUMP JUMPDEST PUSH1 0x0 PUSH1 0x20 DUP3 ADD SWAP1 POP DUP2 DUP2 SUB PUSH1 0x0 DUP4 ADD MSTORE PUSH2 0x2395 DUP2 PUSH2 0x2023 JUMP JUMPDEST SWAP1 POP SWAP2 SWAP1 POP JUMP JUMPDEST PUSH1 0x0 PUSH1 0x20 DUP3 ADD SWAP1 POP DUP2 DUP2 SUB PUSH1 0x0 DUP4 ADD MSTORE PUSH2 0x23B5 DUP2 PUSH2 0x2046 JUMP JUMPDEST SWAP1 POP SWAP2 SWAP1 POP JUMP JUMPDEST PUSH1 0x0 PUSH1 0x20 DUP3 ADD SWAP1 POP DUP2 DUP2 SUB PUSH1 0x0 DUP4 ADD MSTORE PUSH2 0x23D5 DUP2 PUSH2 0x2069 JUMP JUMPDEST SWAP1 POP SWAP2 SWAP1 POP JUMP JUMPDEST PUSH1 0x0 PUSH1 0x20 DUP3 ADD SWAP1 POP DUP2 DUP2 SUB PUSH1 0x0 DUP4 ADD MSTORE PUSH2 0x23F5 DUP2 PUSH2 0x208C JUMP JUMPDEST SWAP1 POP SWAP2 SWAP1 POP JUMP JUMPDEST PUSH1 0x0 PUSH1 0x20 DUP3 ADD SWAP1 POP DUP2 DUP2 SUB PUSH1 0x0 DUP4 ADD MSTORE PUSH2 0x2415 DUP2 PUSH2 0x20AF JUMP JUMPDEST SWAP1 POP SWAP2 SWAP1 POP JUMP JUMPDEST PUSH1 0x0 PUSH1 0x20 DUP3 ADD SWAP1 POP DUP2 DUP2 SUB PUSH1 0x0 DUP4 ADD MSTORE PUSH2 0x2435 DUP2 PUSH2 0x20D2 JUMP JUMPDEST SWAP1 POP SWAP2 SWAP1 POP JUMP JUMPDEST PUSH1 0x0 PUSH1 0x20 DUP3 ADD SWAP1 POP DUP2 DUP2 SUB PUSH1 0x0 DUP4 ADD MSTORE PUSH2 0x2455 DUP2 PUSH2 0x20F5 JUMP JUMPDEST SWAP1 POP SWAP2 SWAP1 POP JUMP JUMPDEST PUSH1 0x0 PUSH1 0x20 DUP3 ADD SWAP1 POP DUP2 DUP2 SUB PUSH1 0x0 DUP4 ADD MSTORE PUSH2 0x2475 DUP2 PUSH2 0x2118 JUMP JUMPDEST SWAP1 POP SWAP2 SWAP1 POP JUMP JUMPDEST PUSH1 0x0 PUSH1 0x20 DUP3 ADD SWAP1 POP DUP2 DUP2 SUB PUSH1 0x0 DUP4 ADD MSTORE PUSH2 0x2495 DUP2 PUSH2 0x213B JUMP JUMPDEST SWAP1 POP SWAP2 SWAP1 POP JUMP JUMPDEST PUSH1 0x0 PUSH1 0x20 DUP3 ADD SWAP1 POP DUP2 DUP2 SUB PUSH1 0x0 DUP4 ADD MSTORE PUSH2 0x24B5 DUP2 PUSH2 0x215E JUMP JUMPDEST SWAP1 POP SWAP2 SWAP1 POP JUMP JUMPDEST PUSH1 0x0 PUSH1 0x20 DUP3 ADD SWAP1 POP DUP2 DUP2 SUB PUSH1 0x0 DUP4 ADD MSTORE PUSH2 0x24D5 DUP2 PUSH2 0x2181 JUMP JUMPDEST SWAP1 POP SWAP2 SWAP1 POP JUMP JUMPDEST PUSH1 0x0 PUSH1 0x20 DUP3 ADD SWAP1 POP DUP2 DUP2 SUB PUSH1 0x0 DUP4 ADD MSTORE PUSH2 0x24F5 DUP2 PUSH2 0x21A4 JUMP JUMPDEST SWAP1 POP SWAP2 SWAP1 POP JUMP JUMPDEST PUSH1 0x0 PUSH1 0x20 DUP3 ADD SWAP1 POP DUP2 DUP2 SUB PUSH1 0x0 DUP4 ADD MSTORE PUSH2 0x2515 DUP2 PUSH2 0x21C7 JUMP JUMPDEST SWAP1 POP SWAP2 SWAP1 POP JUMP JUMPDEST PUSH1 0x0 PUSH1 0x20 DUP3 ADD SWAP1 POP DUP2 DUP2 SUB PUSH1 0x0 DUP4 ADD MSTORE PUSH2 0x2535 DUP2 PUSH2 0x21EA JUMP JUMPDEST SWAP1 POP SWAP2 SWAP1 POP JUMP JUMPDEST PUSH1 0x0 PUSH1 0x20 DUP3 ADD SWAP1 POP DUP2 DUP2 SUB PUSH1 0x0 DUP4 ADD MSTORE PUSH2 0x2555 DUP2 PUSH2 0x220D JUMP JUMPDEST SWAP1 POP SWAP2 SWAP1 POP JUMP JUMPDEST PUSH1 0x0 PUSH1 0x20 DUP3 ADD SWAP1 POP DUP2 DUP2 SUB PUSH1 0x0 DUP4 ADD MSTORE PUSH2 0x2575 DUP2 PUSH2 0x2230 JUMP JUMPDEST SWAP1 POP SWAP2 SWAP1 POP JUMP JUMPDEST PUSH1 0x0 PUSH1 0x20 DUP3 ADD SWAP1 POP DUP2 DUP2 SUB PUSH1 0x0 DUP4 ADD MSTORE PUSH2 0x2595 DUP2 PUSH2 0x2253 JUMP JUMPDEST SWAP1 POP SWAP2 SWAP1 POP JUMP JUMPDEST PUSH1 0x0 PUSH1 0x20 DUP3 ADD SWAP1 POP DUP2 DUP2 SUB PUSH1 0x0 DUP4 ADD MSTORE PUSH2 0x25B5 DUP2 PUSH2 0x2276 JUMP JUMPDEST SWAP1 POP SWAP2 SWAP1 POP JUMP JUMPDEST PUSH1 0x0 PUSH1 0x20 DUP3 ADD SWAP1 POP PUSH2 0x25D1 PUSH1 0x0 DUP4 ADD DUP5 PUSH2 0x2299 JUMP JUMPDEST SWAP3 SWAP2 POP POP JUMP JUMPDEST PUSH1 0x0 PUSH1 0x20 DUP3 ADD SWAP1 POP PUSH2 0x25EC PUSH1 0x0 DUP4 ADD DUP5 PUSH2 0x22A8 JUMP JUMPDEST SWAP3 SWAP2 POP POP JUMP JUMPDEST PUSH1 0x0 PUSH2 0x25FC PUSH2 0x260D JUMP JUMPDEST SWAP1 POP PUSH2 0x2608 DUP3 DUP3 PUSH2 0x27E6 JUMP JUMPDEST SWAP2 SWAP1 POP JUMP JUMPDEST PUSH1 0x0 PUSH1 0x40 MLOAD SWAP1 POP SWAP1 JUMP JUMPDEST PUSH1 0x0 PUSH8 0xFFFFFFFFFFFFFFFF DUP3 GT ISZERO PUSH2 0x2632 JUMPI PUSH2 0x2631 PUSH2 0x2875 JUMP JUMPDEST JUMPDEST PUSH2 0x263B DUP3 PUSH2 0x28B8 JUMP JUMPDEST SWAP1 POP PUSH1 0x20 DUP2 ADD SWAP1 POP SWAP2 SWAP1 POP JUMP JUMPDEST PUSH1 0x0 PUSH8 0xFFFFFFFFFFFFFFFF DUP3 GT ISZERO PUSH2 0x2663 JUMPI PUSH2 0x2662 PUSH2 0x2875 JUMP JUMPDEST JUMPDEST PUSH2 0x266C DUP3 PUSH2 0x28B8 JUMP JUMPDEST SWAP1 POP PUSH1 0x20 DUP2 ADD SWAP1 POP SWAP2 SWAP1 POP JUMP JUMPDEST PUSH1 0x0 DUP2 MLOAD SWAP1 POP SWAP2 SWAP1 POP JUMP JUMPDEST PUSH1 0x0 DUP2 MLOAD SWAP1 POP SWAP2 SWAP1 POP JUMP JUMPDEST PUSH1 0x0 DUP2 SWAP1 POP SWAP3 SWAP2 POP POP JUMP JUMPDEST PUSH1 0x0 DUP3 DUP3 MSTORE PUSH1 0x20 DUP3 ADD SWAP1 POP SWAP3 SWAP2 POP POP JUMP JUMPDEST PUSH1 0x0 PUSH2 0x26B6 DUP3 PUSH2 0x2749 JUMP JUMPDEST SWAP2 POP PUSH2 0x26C1 DUP4 PUSH2 0x2749 JUMP JUMPDEST SWAP3 POP DUP3 PUSH32 0xFFFFFFFFFFFFFFFFFFFFFFFFFFFFFFFFFFFFFFFFFFFFFFFFFFFFFFFFFFFFFFFF SUB DUP3 GT ISZERO PUSH2 0x26F6 JUMPI PUSH2 0x26F5 PUSH2 0x2817 JUMP JUMPDEST JUMPDEST DUP3 DUP3 ADD SWAP1 POP SWAP3 SWAP2 POP POP JUMP JUMPDEST PUSH1 0x0 PUSH2 0x270C DUP3 PUSH2 0x2729 JUMP JUMPDEST SWAP1 POP SWAP2 SWAP1 POP JUMP JUMPDEST PUSH1 0x0 DUP2 ISZERO ISZERO SWAP1 POP SWAP2 SWAP1 POP JUMP JUMPDEST PUSH1 0x0 DUP2 SWAP1 POP SWAP2 SWAP1 POP JUMP JUMPDEST PUSH1 0x0 PUSH20 0xFFFFFFFFFFFFFFFFFFFFFFFFFFFFFFFFFFFFFFFF DUP3 AND SWAP1 POP SWAP2 SWAP1 POP JUMP JUMPDEST PUSH1 0x0 DUP2 SWAP1 POP SWAP2 SWAP1 POP JUMP JUMPDEST PUSH1 0x0 PUSH1 0xFF DUP3 AND SWAP1 POP SWAP2 SWAP1 POP JUMP JUMPDEST PUSH1 0x0 PUSH2 0x276B DUP3 PUSH2 0x2753 JUMP JUMPDEST SWAP1 POP SWAP2 SWAP1 POP JUMP JUMPDEST DUP3 DUP2 DUP4 CALLDATACOPY PUSH1 0x0 DUP4 DUP4 ADD MSTORE POP POP POP JUMP JUMPDEST PUSH1 0x0 JUMPDEST DUP4 DUP2 LT ISZERO PUSH2 0x279F JUMPI DUP1 DUP3 ADD MLOAD DUP2 DUP5 ADD MSTORE PUSH1 0x20 DUP2 ADD SWAP1 POP PUSH2 0x2784 JUMP JUMPDEST DUP4 DUP2 GT ISZERO PUSH2 0x27AE JUMPI PUSH1 0x0 DUP5 DUP5 ADD MSTORE JUMPDEST POP POP POP POP JUMP JUMPDEST PUSH1 0x0 PUSH1 0x2 DUP3 DIV SWAP1 POP PUSH1 0x1 DUP3 AND DUP1 PUSH2 0x27CC JUMPI PUSH1 0x7F DUP3 AND SWAP2 POP JUMPDEST PUSH1 0x20 DUP3 LT DUP2 EQ ISZERO PUSH2 0x27E0 JUMPI PUSH2 0x27DF PUSH2 0x2846 JUMP JUMPDEST JUMPDEST POP SWAP2 SWAP1 POP JUMP JUMPDEST PUSH2 0x27EF DUP3 PUSH2 0x28B8 JUMP JUMPDEST DUP2 ADD DUP2 DUP2 LT PUSH8 0xFFFFFFFFFFFFFFFF DUP3 GT OR ISZERO PUSH2 0x280E JUMPI PUSH2 0x280D PUSH2 0x2875 JUMP JUMPDEST JUMPDEST DUP1 PUSH1 0x40 MSTORE POP POP POP JUMP JUMPDEST PUSH32 0x4E487B7100000000000000000000000000000000000000000000000000000000 PUSH1 0x0 MSTORE PUSH1 0x11 PUSH1 0x4 MSTORE PUSH1 0x24 PUSH1 0x0 REVERT JUMPDEST PUSH32 0x4E487B7100000000000000000000000000000000000000000000000000000000 PUSH1 0x0 MSTORE PUSH1 0x22 PUSH1 0x4 MSTORE PUSH1 0x24 PUSH1 0x0 REVERT JUMPDEST PUSH32 0x4E487B7100000000000000000000000000000000000000000000000000000000 PUSH1 0x0 MSTORE PUSH1 0x41 PUSH1 0x4 MSTORE PUSH1 0x24 PUSH1 0x0 REVERT JUMPDEST PUSH1 0x0 DUP1 REVERT JUMPDEST PUSH1 0x0 DUP1 REVERT JUMPDEST PUSH1 0x0 DUP1 REVERT JUMPDEST PUSH1 0x0 DUP1 REVERT JUMPDEST PUSH1 0x0 PUSH1 0x1F NOT PUSH1 0x1F DUP4 ADD AND SWAP1 POP SWAP2 SWAP1 POP JUMP JUMPDEST PUSH32 0x45524332303A207472616E7366657220746F20746865207A65726F2061646472 PUSH1 0x0 DUP3 ADD MSTORE PUSH32 0x6573730000000000000000000000000000000000000000000000000000000000 PUSH1 0x20 DUP3 ADD MSTORE POP JUMP JUMPDEST PUSH32 0x4F776E61626C653A206E6577206F776E657220697320746865207A65726F2061 PUSH1 0x0 DUP3 ADD MSTORE PUSH32 0x6464726573730000000000000000000000000000000000000000000000000000 PUSH1 0x20 DUP3 ADD MSTORE POP JUMP JUMPDEST PUSH32 0x45524332303A20617070726F766520746F20746865207A65726F206164647265 PUSH1 0x0 DUP3 ADD MSTORE PUSH32 0x7373000000000000000000000000000000000000000000000000000000000000 PUSH1 0x20 DUP3 ADD MSTORE POP JUMP JUMPDEST PUSH32 0x46756E6374696F6E206D7573742062652063616C6C6564207468726F75676820 PUSH1 0x0 DUP3 ADD MSTORE PUSH32 0x64656C656761746563616C6C0000000000000000000000000000000000000000 PUSH1 0x20 DUP3 ADD MSTORE POP JUMP JUMPDEST PUSH32 0x45524332303A20696E73756666696369656E7420616C6C6F77616E6365000000 PUSH1 0x0 DUP3 ADD MSTORE POP JUMP JUMPDEST PUSH32 0x45524332303A207472616E7366657220616D6F756E7420657863656564732062 PUSH1 0x0 DUP3 ADD MSTORE PUSH32 0x616C616E63650000000000000000000000000000000000000000000000000000 PUSH1 0x20 DUP3 ADD MSTORE POP JUMP JUMPDEST PUSH32 0x46756E6374696F6E206D7573742062652063616C6C6564207468726F75676820 PUSH1 0x0 DUP3 ADD MSTORE PUSH32 0x6163746976652070726F78790000000000000000000000000000000000000000 PUSH1 0x20 DUP3 ADD MSTORE POP JUMP JUMPDEST PUSH32 0x555550535570677261646561626C653A206D757374206E6F742062652063616C PUSH1 0x0 DUP3 ADD MSTORE PUSH32 0x6C6564207468726F7567682064656C656761746563616C6C0000000000000000 PUSH1 0x20 DUP3 ADD MSTORE POP JUMP JUMPDEST PUSH32 0x45524331393637557067726164653A20756E737570706F727465642070726F78 PUSH1 0x0 DUP3 ADD MSTORE PUSH32 0x6961626C65555549440000000000000000000000000000000000000000000000 PUSH1 0x20 DUP3 ADD MSTORE POP JUMP JUMPDEST PUSH32 0x496E697469616C697A61626C653A20636F6E747261637420697320616C726561 PUSH1 0x0 DUP3 ADD MSTORE PUSH32 0x647920696E697469616C697A6564000000000000000000000000000000000000 PUSH1 0x20 DUP3 ADD MSTORE POP JUMP JUMPDEST PUSH32 0x45524331393637557067726164653A206E657720696D706C656D656E74617469 PUSH1 0x0 DUP3 ADD MSTORE PUSH32 0x6F6E206973206E6F742055555053000000000000000000000000000000000000 PUSH1 0x20 DUP3 ADD MSTORE POP JUMP JUMPDEST PUSH32 0x455243313936373A206E657720696D706C656D656E746174696F6E206973206E PUSH1 0x0 DUP3 ADD MSTORE PUSH32 0x6F74206120636F6E747261637400000000000000000000000000000000000000 PUSH1 0x20 DUP3 ADD MSTORE POP JUMP JUMPDEST PUSH32 0x4F776E61626C653A2063616C6C6572206973206E6F7420746865206F776E6572 PUSH1 0x0 DUP3 ADD MSTORE POP JUMP JUMPDEST PUSH32 0x416464726573733A2064656C65676174652063616C6C20746F206E6F6E2D636F PUSH1 0x0 DUP3 ADD MSTORE PUSH32 0x6E74726163740000000000000000000000000000000000000000000000000000 PUSH1 0x20 DUP3 ADD MSTORE POP JUMP JUMPDEST PUSH32 0x45524332303A207472616E736665722066726F6D20746865207A65726F206164 PUSH1 0x0 DUP3 ADD MSTORE PUSH32 0x6472657373000000000000000000000000000000000000000000000000000000 PUSH1 0x20 DUP3 ADD MSTORE POP JUMP JUMPDEST PUSH32 0x45524332303A20617070726F76652066726F6D20746865207A65726F20616464 PUSH1 0x0 DUP3 ADD MSTORE PUSH32 0x7265737300000000000000000000000000000000000000000000000000000000 PUSH1 0x20 DUP3 ADD MSTORE POP JUMP JUMPDEST PUSH32 0x496E697469616C697A61626C653A20636F6E7472616374206973206E6F742069 PUSH1 0x0 DUP3 ADD MSTORE PUSH32 0x6E697469616C697A696E67000000000000000000000000000000000000000000 PUSH1 0x20 DUP3 ADD MSTORE POP JUMP JUMPDEST PUSH32 0x45524332303A2064656372656173656420616C6C6F77616E63652062656C6F77 PUSH1 0x0 DUP3 ADD MSTORE PUSH32 0x207A65726F000000000000000000000000000000000000000000000000000000 PUSH1 0x20 DUP3 ADD MSTORE POP JUMP JUMPDEST PUSH32 0x45524332303A206D696E7420746F20746865207A65726F206164647265737300 PUSH1 0x0 DUP3 ADD MSTORE POP JUMP JUMPDEST PUSH2 0x2E3D DUP2 PUSH2 0x2701 JUMP JUMPDEST DUP2 EQ PUSH2 0x2E48 JUMPI PUSH1 0x0 DUP1 REVERT JUMPDEST POP JUMP JUMPDEST PUSH2 0x2E54 DUP2 PUSH2 0x271F JUMP JUMPDEST DUP2 EQ PUSH2 0x2E5F JUMPI PUSH1 0x0 DUP1 REVERT JUMPDEST POP JUMP JUMPDEST PUSH2 0x2E6B DUP2 PUSH2 0x2749 JUMP JUMPDEST DUP2 EQ PUSH2 0x2E76 JUMPI PUSH1 0x0 DUP1 REVERT JUMPDEST POP JUMP INVALID COINBASE PUSH5 0x6472657373 GASPRICE KECCAK256 PUSH13 0x6F772D6C6576656C2064656C65 PUSH8 0x6174652063616C6C KECCAK256 PUSH7 0x61696C6564A264 PUSH10 0x706673582212207BDBFD 0xB0 0xB9 CALL 0xC1 PUSH20 0xCDFCF54A256328819C4D518F2571D502ACD66A23 PUSH14 0xA559D64736F6C63430008070033 "
				},
				"gasEstimates": {
					"creation": {
						"codeDepositCost": "2398000",
						"executionCost": "infinite",
						"totalCost": "infinite"
					},
					"external": {
						"allowance(address,address)": "infinite",
						"approve(address,uint256)": "infinite",
						"balanceOf(address)": "2886",
						"decimals()": "366",
						"decreaseAllowance(address,uint256)": "infinite",
						"increaseAllowance(address,uint256)": "infinite",
						"initialize(string,string,uint256)": "infinite",
						"mint(address,uint256)": "infinite",
						"name()": "infinite",
						"owner()": "2611",
						"proxiableUUID()": "infinite",
						"renounceOwnership()": "30465",
						"symbol()": "infinite",
						"totalSupply()": "2505",
						"transfer(address,uint256)": "infinite",
						"transferFrom(address,address,uint256)": "infinite",
						"transferOwnership(address)": "30857",
						"upgradeTo(address)": "infinite",
						"upgradeToAndCall(address,bytes)": "infinite"
					},
					"internal": {
						"_authorizeUpgrade(address)": "infinite"
					}
				},
				"methodIdentifiers": {
					"allowance(address,address)": "dd62ed3e",
					"approve(address,uint256)": "095ea7b3",
					"balanceOf(address)": "70a08231",
					"decimals()": "313ce567",
					"decreaseAllowance(address,uint256)": "a457c2d7",
					"increaseAllowance(address,uint256)": "39509351",
					"initialize(string,string,uint256)": "b119490e",
					"mint(address,uint256)": "40c10f19",
					"name()": "06fdde03",
					"owner()": "8da5cb5b",
					"proxiableUUID()": "52d1902d",
					"renounceOwnership()": "715018a6",
					"symbol()": "95d89b41",
					"totalSupply()": "18160ddd",
					"transfer(address,uint256)": "a9059cbb",
					"transferFrom(address,address,uint256)": "23b872dd",
					"transferOwnership(address)": "f2fde38b",
					"upgradeTo(address)": "3659cfe6",
					"upgradeToAndCall(address,bytes)": "4f1ef286"
				}
			},
			"storageLayout": {
				"storage": [
					{
						"astId": 342,
						"contract": "contract/myProject/CNRC_V2/V2_CNRedCross.sol:CNRedCrossUpgradeable",
						"label": "_initialized",
						"offset": 0,
						"slot": "0",
						"type": "t_uint8"
					},
					{
						"astId": 345,
						"contract": "contract/myProject/CNRC_V2/V2_CNRedCross.sol:CNRedCrossUpgradeable",
						"label": "_initializing",
						"offset": 1,
						"slot": "0",
						"type": "t_bool"
					},
					{
						"astId": 522,
						"contract": "contract/myProject/CNRC_V2/V2_CNRedCross.sol:CNRedCrossUpgradeable",
						"label": "__gap",
						"offset": 0,
						"slot": "1",
						"type": "t_array(t_uint256)50_storage"
					},
					{
						"astId": 620,
						"contract": "contract/myProject/CNRC_V2/V2_CNRedCross.sol:CNRedCrossUpgradeable",
						"label": "_balances",
						"offset": 0,
						"slot": "51",
						"type": "t_mapping(t_address,t_uint256)"
					},
					{
						"astId": 626,
						"contract": "contract/myProject/CNRC_V2/V2_CNRedCross.sol:CNRedCrossUpgradeable",
						"label": "_allowances",
						"offset": 0,
						"slot": "52",
						"type": "t_mapping(t_address,t_mapping(t_address,t_uint256))"
					},
					{
						"astId": 628,
						"contract": "contract/myProject/CNRC_V2/V2_CNRedCross.sol:CNRedCrossUpgradeable",
						"label": "_totalSupply",
						"offset": 0,
						"slot": "53",
						"type": "t_uint256"
					},
					{
						"astId": 630,
						"contract": "contract/myProject/CNRC_V2/V2_CNRedCross.sol:CNRedCrossUpgradeable",
						"label": "_name",
						"offset": 0,
						"slot": "54",
						"type": "t_string_storage"
					},
					{
						"astId": 632,
						"contract": "contract/myProject/CNRC_V2/V2_CNRedCross.sol:CNRedCrossUpgradeable",
						"label": "_symbol",
						"offset": 0,
						"slot": "55",
						"type": "t_string_storage"
					},
					{
						"astId": 1192,
						"contract": "contract/myProject/CNRC_V2/V2_CNRedCross.sol:CNRedCrossUpgradeable",
						"label": "__gap",
						"offset": 0,
						"slot": "56",
						"type": "t_array(t_uint256)45_storage"
					},
					{
						"astId": 1199,
						"contract": "contract/myProject/CNRC_V2/V2_CNRedCross.sol:CNRedCrossUpgradeable",
						"label": "_owner",
						"offset": 0,
						"slot": "101",
						"type": "t_address"
					},
					{
						"astId": 1311,
						"contract": "contract/myProject/CNRC_V2/V2_CNRedCross.sol:CNRedCrossUpgradeable",
						"label": "__gap",
						"offset": 0,
						"slot": "102",
						"type": "t_array(t_uint256)49_storage"
					},
					{
						"astId": 1687,
						"contract": "contract/myProject/CNRC_V2/V2_CNRedCross.sol:CNRedCrossUpgradeable",
						"label": "__gap",
						"offset": 0,
						"slot": "151",
						"type": "t_array(t_uint256)50_storage"
					},
					{
						"astId": 1818,
						"contract": "contract/myProject/CNRC_V2/V2_CNRedCross.sol:CNRedCrossUpgradeable",
						"label": "__gap",
						"offset": 0,
						"slot": "201",
						"type": "t_array(t_uint256)50_storage"
					}
				],
				"types": {
					"t_address": {
						"encoding": "inplace",
						"label": "address",
						"numberOfBytes": "20"
					},
					"t_array(t_uint256)45_storage": {
						"base": "t_uint256",
						"encoding": "inplace",
						"label": "uint256[45]",
						"numberOfBytes": "1440"
					},
					"t_array(t_uint256)49_storage": {
						"base": "t_uint256",
						"encoding": "inplace",
						"label": "uint256[49]",
						"numberOfBytes": "1568"
					},
					"t_array(t_uint256)50_storage": {
						"base": "t_uint256",
						"encoding": "inplace",
						"label": "uint256[50]",
						"numberOfBytes": "1600"
					},
					"t_bool": {
						"encoding": "inplace",
						"label": "bool",
						"numberOfBytes": "1"
					},
					"t_mapping(t_address,t_mapping(t_address,t_uint256))": {
						"encoding": "mapping",
						"key": "t_address",
						"label": "mapping(address => mapping(address => uint256))",
						"numberOfBytes": "32",
						"value": "t_mapping(t_address,t_uint256)"
					},
					"t_mapping(t_address,t_uint256)": {
						"encoding": "mapping",
						"key": "t_address",
						"label": "mapping(address => uint256)",
						"numberOfBytes": "32",
						"value": "t_uint256"
					},
					"t_string_storage": {
						"encoding": "bytes",
						"label": "string",
						"numberOfBytes": "32"
					},
					"t_uint256": {
						"encoding": "inplace",
						"label": "uint256",
						"numberOfBytes": "32"
					},
					"t_uint8": {
						"encoding": "inplace",
						"label": "uint8",
						"numberOfBytes": "1"
					}
				}
			},
			"userdoc": {
				"kind": "user",
				"methods": {},
				"version": 1
			}
		}
	}
}